:100200000DC500003DC500003BC500000C94E0108A
:1002100037C5000035C5000033C5000031C50000FA
:100220000C949F112DC500002BC5000029C50000AE
:1002300027C5000025C5000023C5000021C500001A
:100240001FC500001DC500001BC5000019C500002A
:1002500017C5000015C5000013C5000011C500003A
:100260000FC500000DC500000C94BB1109C50000AE
:1002700007C5000005C5000003C500000C94E81088
:10028000FFC40000FDC40000FBC400000C948D11ED
:10029000F7C40000F5C40000F3C40000F1C400007E
:1002A000EFC40000EDC40000EBC40000E9C400008E
:1002B000E7C40000E5C40000E3C40000E1C400009E
:1002C000DFC40000DDC40000DBC40000D9C40000AE
:1002D000D7C400000C940A110C9404110C94101152
:1002E000CFC40000CDC40000CBC40000C9C40000CE
:1002F000C7C400004E414E494E495459494E46CD5F
:10030000CCCC3D0AD7233C17B7D13877CC2B3295CC
:1003100095E6241FB14F0A000020410000C84200AA
:10032000401C4620BCBE4CCA1B0E5AAEC59D747004
:100330006861736500766F6C74616765203D2000AD
:10034000656D6F6E547835006861726477617265AF
:10035000203D200076657273696F6E203D20006637
:1003600069726D77617265203D20656D6F6E5F44C7
:10037000425F364354006A736F6E203D206F66669D
:10038000006A736F6E203D206F6E00646174616C53
:100390006F67203D20002C20694C65616400694333
:1003A000616C007643616C203D20004C6F77506F8C
:1003B0007765724C616273002C207266466F726DB5
:1003C0006174203D20002C207266506F776572208A
:1003D0003D20002C2072664E6F6465203D20002079
:1003E0004D487A2C20726647726F7570203D200050
:1003F0005246203D206F6E2C20726642616E642052
:100400003D20005246203D206F6666006D73002C33
:100410002070756C7365506572696F64203D2000B3
:100420006F66660070756C7365203D20004E6F200E
:10043000454550524F4D20636F6E666967004C6FA3
:100440006164656420454550524F4D20636F6E6670
:100450006967007672656661203D20000A002028E9
:1004600068696464656E292E002062797465730082
:100470002C20446174612073697A653A200020530E
:1004800069676E61747572653A20004E6F20646111
:10049000746120626C6F636B20666F756E64202DD3
:1004A00020454550524F4D20617070656172732038
:1004B000746F20626520666F726D6174746564206C
:1004C000746F204F454D205374616E6461726420D7
:1004D00062757420756E757365642E000A00206263
:1004E000797465732C206E6F7420666F726D617401
:1004F00074656420746F204F454D205374616E64A1
:100500006172640053697A653A2000446F6E652E0B
:10051000204E657720636F6E66696720736176652C
:100520006420746F20454550524F4D0053617669E9
:100530006E672E2E2E00536B657463682077696C8E
:100540006C206E6F7720726573746172742075739E
:10055000696E672064656661756C7420636F6E6692
:1005600069672E00526573657474696E672E2E2E4E
:100570000020000A417661696C61626C6520636FDE
:100580006D6D616E64733A0A6C09092D206C697394
:1005900074207468652073657474696E67730A7279
:1005A00009092D20726573746F726520736B657411
:1005B00063682064656661756C74730A7309092D3C
:1005C00020736176652073657474696E6773207437
:1005D0006F20454550524F4D0A7609092D2073680A
:1005E0006F77206669726D776172652076657273C8
:1005F000696F6E0A7A09092D207A65726F20656E1F
:10060000657267792076616C7565730A7809092DC2
:1006100020657869742C206C6F636B20616E642098
:10062000636F6E74696E75650A3F09092D207368E2
:100630006F772074686973207465787420616761CE
:10064000696E0A0A773C783E09092D207475726E2E
:100650002052464D20576972656C65737320646142
:100660007461206F66663A2078203D2030206F72DA
:10067000206F6E3A2078203D20310A623C6E3E09A0
:10068000092D2073657420722E662E2062616E64BF
:10069000206E203D20612073696E676C65206E7549
:1006A0006D6572616C3A2034203D203433334D48FF
:1006B0007A2C2038203D203836384D487A2C203985
:1006C000203D203931354D487A20286D61792072DE
:1006D0006571756972652068617264776172652001
:1006E0006368616E6765290A703C6E6E3E09092D6C
:1006F000207365742074686520722E662E20706FDA
:100700007765722E206E6E202D20616E20696E74CA
:10071000656765722030202D20333120726570723C
:100720006573656E74696E67202D31382064426D83
:1007300020746F202B31332064426D2E2044656677
:1007400061756C743A20323520282B372064426D55
:10075000290A673C6E6E6E3E092D20736574204E2B
:100760006574776F726B2047726F757020206E6EA4
:100770006E202D20616E20696E7465676572202879
:100780004F454D2064656661756C74203D203231A3
:1007900030290A6E3C6E6E3E09092D207365742067
:1007A0006E6F6465204944206E3D20616E20696E45
:1007B000746567657220287374616E646172642069
:1007C0006E6F6465206964732061726520312E2E1E
:1007D0003630290A0A643C78782E783E092D207834
:1007E000782E78203D206120666C6F6174696E6799
:1007F00020706F696E74206E756D62657220666F11
:10080000722074686520646174616C6F6767696EDB
:100810006720706572696F640A633C6E3E09092D3A
:10082000206E203D203020666F72204F46462C20DF
:100830006E203D203120666F72204F4E2C20656E59
:1008400061626C6520766F6C746167652C206375DE
:100850007272656E74202620706F776572206661F3
:1008600063746F722076616C75657320746F20738A
:10087000657269616C206F757470757420666F7233
:100880002063616C6962726174696F6E2E200A6AFE
:100890003C6E3E09092D207475726E204A534F4EEE
:1008A0002053657269616C20666F726D6174206F90
:1008B0006E20283129206F72206F6666202830292B
:1008C0002E0A663C78783E09092D207878203D2054
:1008D000746865206C696E65206672657175656EF9
:1008E000637920696E20487A3A206E6F726D616C70
:1008F0006C7920656974686572203530206F7220CC
:1009000036300A6B3C783E203C79792E793E203C8B
:100910007A7A2E7A3E0A09092D2043616C69627247
:1009200061746520616E20616E616C6F6775652012
:10093000696E707574206368616E6E656C3A0A0941
:1009400009202078203D20612073696E676C652046
:100950006E756D6572616C3A2030203D20766F6C4B
:10096000746167652063616C6962726174696F6E3E
:100970002C2031203D206374312063616C696272E8
:100980006174696F6E2C2032203D206374322063C5
:10099000616C6962726174696F6E2C206574630AA0
:1009A0000909202079792E79203D206120666C6F1D
:1009B0006174696E6720706F696E74206E756D6208
:1009C000657220666F722074686520766F6C746142
:1009D00067652F63757272656E742063616C6962FE
:1009E000726174696F6E20636F6E7374616E740AE6
:1009F000090920207A7A2E7A203D206120666C6FCA
:100A00006174696E6720706F696E74206E756D62B7
:100A1000657220666F722074686520706861736506
:100A20002063616C6962726174696F6E20666F72B7
:100A3000207468697320632E742E20287A206973CD
:100A4000206E6F74206E65656465642C206F722063
:100A500069676E6F72656420696620737570706C6B
:100A60006965642C207768656E2078203D203029E8
:100A70000A09092020652E672E206B30203235367A
:100A80002E380A0909202020202020206B3120390F
:100A9000302E3920322E30300A6D3C783E203C79A1
:100AA000793E092D206D657465722070756C7365D3
:100AB00020636F756E74696E673A0A0909202020F9
:100AC00078203D203020666F72204F46462C2078DB
:100AD000203D203120666F72204F4E2C203C7979CA
:100AE0003E203D20616E20696E74656765722066E8
:100AF0006F72207468652070756C7365206D696E07
:100B0000696D756D20706572696F6420696E206D06
:100B1000732E202879206973206E6F74206E6565AE
:100B20006465642C206F722069676E6F7265642043
:100B30007768656E2078203D2030290A00456E6573
:100B40007267792076616C756573207365742074A3
:100B50006F207A65726F00436F6E74696E75696E8F
:100B6000672E2E2E007266506F776572203D200032
:100B700072664E6F6465203D20002C20694C6561D3
:100B800064006943616C007643616C203D20007213
:100B90006647726F7570203D200066726571203D5A
:100BA0002000646174616C6F67203D20006A736F80
:100BB0006E203D206F6666006A736F6E203D206F69
:100BC0006E00204D487A00726642616E64203D20BE
:100BD000002C7066002C49002C70756C73653A000F
:100BE0002C45002C50002C56004D53473A007D00F8
:100BF0002C2270756C7365223A002C2245002C2241
:100C000050002C2256007B224D5347223A000A0006
:100C100000080A400CFFC000C0000D1611241FBEC2
:100C2000CFEFCDBFDFE7DEBF80E38093011088ED1B
:100C300090EB84BF9093011011E4A0E0B0E4EEE9E2
:100C4000F4E600E00BBF02C007900D92A031B1079F
:100C5000D9F72EE5A0E1B1E401C01D92A336B20799
:100C6000E1F716E0CEE0D6E004C02197FE010E9435
:100C70002132CD30D107C9F70E944F170C944D3265
:100C8000BFCA80915C5E8D3011F42D9A0895873033
:100C900011F40F9A0895813109F44B9A08950000D8
:100CA0009091605E911109C080934409809143093D
:100CB00087FFFCCF80914409089580936409809157
:100CC000630987FFFCCF80916409089580915C5E81
:100CD0008D3011F42D980895873011F40F980895F0
:100CE000813109F44B980895CF93DF93D82FC62F05
:100CF000EDDF8D2F8068D3DF8C2FD1DFDF91CF9197
:100D0000C0CFCF93C82FE2DF8C2FC9DF80E0C7DFD1
:100D1000C82FB7DF8C2FCF910895CF92DF92EF923B
:100D2000FF92CF93DF936A01815096E1899FE001A2
:100D30001124C655D24A888323EA33E240E051E4C5
:100D4000CB01B6010E94192F2091494030914A40B1
:100D500040914B4050914C400E94192F6B017C01F7
:100D6000609104587091055890E080E00E94B82E80
:100D70009B01AC01C701B6010E94923069837A835E
:100D80008B839C831D828AE097EDA3E2BEE38E8372
:100D90009F83A887B9871A861B861C861D861E8698
:100DA000DF91CF91FF90EF90DF90CF900895079A59
:100DB00020E533EC93E0179A44E1F9013197F1F71C
:100DC0004150D9F7482F179AF9013197F1F7179A3F
:100DD00059E0F9013197F1F75150D9F7415099F79E
:100DE000915049F7E7CF9FB7F894E0912A0BF09123
:100DF0002B0B8091260B2091235730912457409143
:100E00002557509126579FBF80FF08C0CF018827E4
:100E1000892B21F42F5F3F4F4F4F5F4F0F011694E7
:100E20000794169407941694079416940794F00167
:100E300016940794E00DF11D16940794102C169447
:100E400001181694010C169401181694010C1694AE
:100E5000011816941694010C1124E019F109A8EE5A
:100E6000B3E00E94EC2F6E0F7F1F811D911D08952E
:100E7000CF92DF92EF92FF92CF93DF936B017C01D1
:100E8000B2DFEB01C114D104E104F10471F0ABDF76
:100E90006C1B7D0B683E7340A8F381E0C81AD10833
:100EA000E108F108C851DC4FEDCFDF91CF91FF9001
:100EB000EF90DF90CF9008952FB7F894609123576B
:100EC0007091245780912557909126572FBF0895F0
:100ED000CF92DF92EF92FF92CF9390916E57981737
:100EE000E9F0C82F81E00DDF837E682F6C2B81E055
:100EF000FBDEE2DF6B017C0180916E57811114C033
:100F000087E2FFDE87FD10C0D7DF6C197D098E09EF
:100F10009F09643671058105910570F3CF91FF90AB
:100F2000EF90DF90CF900895C0936E57F7CF0F9357
:100F30001F93CF93DF93EC0184E0CADF2097D9F0B1
:100F400088818823C1F0C2DE8EEBA9DE8E01005FAE
:100F50001F4F8991A4DEC017D107D9F792DEC1E0F7
:100F60008DE3CFDE8E7F682F6C2B8DE3DF91CF91E9
:100F70001F910F91B9CEC0E0F3CF10922D57109270
:100F80002B5710922C571092295710922A571092D3
:100F900028571092275788E2B4DE82FF06C08DE3FF
:100FA000B0DE682F64608DE39FDE80E191CFAF9269
:100FB000BF92CF92DF92EF92FF920F931F93CF9346
:100FC000DF936C017B018B01040F151FEB015E01A8
:100FD000AE18BF08C017D10759F06991D601ED913D
:100FE000FC910190F081E02DC6010995892B79F7DC
:100FF000C501DF91CF911F910F91FF90EF90DF908E
:10100000CF90BF90AF900895FC0151894289252F60
:1010100030E0842F90E0821B930B541710F0CF9692
:10102000089501970895FC0197858089981761F0CC
:10103000A089AE0FBF2FB11D53968C9190899F5FF1
:101040009F73908B90E008958FEF9FEF0895FC01C0
:1010500097858089981731F08089E80FF11D838981
:1010600090E008958FEF9FEF0895FC019785208908
:10107000892F90E0805C9F4F821B91098F73992785
:101080000895FC010FB607FE04C08091110188236A
:10109000A9F0A085B18514968C91149785FF0EC098
:1010A00091898289981307C015968C9115978F7D29
:1010B00015968C930895E8940C941D1108950F9340
:1010C0001F93CF93DF93EC018E8581608E87998982
:1010D0008A8998130BC0E885F985848185FF06C04D
:1010E0008E8581FD0DC080E4848312C0062F19898E
:1010F0001F5F1F738A89811315C0CE01C2DFFACF2B
:1011000085818F77806490E49483E885F985858371
:10111000E885F985628381E090E0DF91CF911F91AE
:101120000F910895E989EC0FFD2FF11DED5AFF4F46
:101130000083198B8E85E885F98581FF09C085813B
:101140008F77806690E49483E885F9858583E3CF83
:1011500085818062FBCF0F931F93CF93DF938C0128
:10116000D0E0C0E0F801EC0FFD1F6491662339F078
:101170008FE697E5A4DF892B11F02196F3CFCE01FE
:10118000DF91CF911F910F910895682F8FE697E51A
:1011900096CFCF93DF93EC018E85882359F0E885B5
:1011A000F985858185FD03C0848186FD03C0CE015C
:1011B00068DFF5CFDF91CF91089581509091E2568D
:1011C0002FE5929FF0011124E65CF74A45E1849FE8
:1011D000900111242255334A20833183615026E146
:1011E000629FB00111246655724A628373836483DF
:1011F0007583E25AFF4F21E02083E82FF0E0EB51A6
:10120000F94A90839F5F9093E25608958F929F9240
:10121000AF92BF92CF92DF92EF92FF920F93CF9354
:101220006B017C0120E030E040E05FE30E94B42EDF
:1012300087FF05C0C12CD12CE12C8FE3F82EC09282
:101240000540D0920640E0920740F092084080901E
:10125000DF569090E056C091E15620E836E948E12B
:101260005BE4C701B6010E94192F6B017C01B12C10
:10127000A12CC501B4010E94B82E9B01AC01C7018D
:10128000B6010E9492300E94FF306B017C0160E841
:1012900076E988E990E0A50194010E94FC2FCA013B
:1012A000B90100914640202F30E050E040E00E941C
:1012B000FC2F44275527C701B601621B730B840B13
:1012C000950B2C2F30E050E040E00E94FC2F209343
:1012D000D2563093D3564093D4565093D556CF918F
:1012E0000F91FF90EF90DF90CF90BF90AF909F90C5
:1012F0008F900895DC01ED91FC91F170FC5E80818E
:101300000895CF92DF92EF92FF920F931F93CF93A6
:10131000DF9300D0CDB7DEB76C017C0103E010E0B5
:1013200009831A83CE010196E5DFF70181937F01DE
:101330000F5F1F4F0730110599F7C6010F900F90EF
:10134000DF91CF911F910F91FF90EF90DF90CF90A1
:1013500008950F931F93CF93DF9300D000D0CDB7A4
:10136000DEB78C0119821A82CE010196C3DF8F3459
:10137000F9F481E090E089839A83CE010196BADF87
:101380008534B1F482E090E089839A83CE0101969E
:10139000B1DF8D3469F481E00115110551F0CE0102
:1013A0000196AFDF81E02B813C812017310709F0E6
:1013B00080E02496CDBFDEBFDF91CF911F910F91CA
:1013C00008951F93CF93DF93EC01162F93DF8117BE
:1013D000B1F09FB780910210282F227081FDFACFC3
:1013E000F8948DE984BF2093001023E184BF2093FB
:1013F0000010E881F981F170FC5E10839FBFCE017F
:10140000DF91CF911F910895CF92DF92EF92FF92DB
:101410000F931F93CF93DF9300D0CDB7DEB76C014E
:101420007C0103E010E009831A83F70161917F01D9
:10143000CE010196C6DF0F5F1F4F0730110599F7E8
:10144000C6010F900F90DF91CF911F910F91FF90E8
:10145000EF90DF90CF9008950F931F93CF93DF937A
:1014600000D0CDB7DEB70091105E1091115E809173
:10147000125E9091135E081719079CF4C8019571CC
:1014800089839A836FEFCE0101969BDF10920C5EE9
:1014900010920D5E80910A5E90910B5E080F191FED
:1014A000E6CF0F900F90DF91CF911F910F9108958C
:1014B000FC0101900020E9F73197AF01481B590B5F
:1014C000BC018FE697E573CD8EED90E4F1CFCF931D
:1014D000DF9341DEEC01F8DF8C0F9D1FDF91CF9190
:1014E0000895009709F0E4CF90E080E008958F928E
:1014F0009F92AF92BF920F931F93CF93DF93CDB77D
:10150000DEB7A197CDBFDEBF19A2423008F44AE092
:101510008E010F5D1F4F842E912CB12CA12CA501A3
:1015200094010E94FC2FE62FB901CA01EA30D4F4DD
:10153000E05DD801EE938D01232B242B252B79F729
:1015400090E080E0109711F0CD01B2DFA196CDBF01
:10155000DEBFDF91CF911F910F91BF90AF909F9011
:101560008F900895E95CE5CFAF92BF92CF92DF9262
:10157000EF92FF920F931F93CF93DF9300D0CDB7DD
:10158000DEB76C015B0110E000E00A151B057CF57D
:101590007801EC0CFD1C85E1F822E982FA82CE018B
:1015A0000196A8DE803110F480E3EFDD0F5F1F4F5E
:1015B000E982FA82CE0101969DDE682F70E090E00C
:1015C00080E040E194DF89EF90E48BDFC801877011
:1015D0009927892B19F489EF90E483DFC8018F7074
:1015E0009927892B91F68EE09CE0B5DDCECF0F9048
:1015F0000F90DF91CF911F910F91FF90EF90DF90AF
:10160000CF90BF90AF900895CF92DF92EF92FF926C
:10161000CF93DF9397FF17C06B017C018DE2B5DD9F
:10162000EC0166277727CB016C197D098E099F098C
:101630004AE05DDF8C0F9D1FDF91CF91FF90EF900F
:10164000DF90CF9008954AE0DF91CF91FF90EF9027
:10165000DF90CF904CCFBC01990F880B990BD4CF62
:1016600084E294E078DD8091555E882371F083E018
:1016700090E0F1DF8FE094E06EDD8091565E909116
:10168000575EE9DF8CE094E022CF80E294E0FCCF6B
:101690008FE593E01CDF84E593E05DDD81EE90E46F
:1016A00007DF88E493E057DD80E493E010DF85E313
:1016B00093E051DD83E090E0CEDF8FE293E007CF4F
:1016C0004F925F926F927F928F929F92AF92BF9252
:1016D000CF92DF92EF92FF920F931F93CF936B0104
:1016E0007C01742EAC019B010E941632882391F07C
:1016F00089EE90E4CF911F910F91FF90EF90DF90D2
:10170000CF90BF90AF909F908F907F906F905F90A1
:101710004F90CECE46015701E894B7F82FEF3FEF38
:101720004FE75FE7C501B4010E94163281110DC079
:101730002FEF3FEF4FE75FE7C501B4010E94B42EE2
:1017400018161CF48DEE90E4D5CF2FEF3FEF4FE746
:101750005FE4C701B6010E94D03118161CF481EF76
:1017600090E4C8CF2FEF3FEF4FE75FECC701B60122
:101770000E94B42E87FDF3CF20E030E0A901C7011D
:10178000B6010E94B42E10E000E087FF07C08DE292
:10179000FCDC8C01F7FAF094F7F8F094C0E060E01C
:1017A00070E080E09FE37C1641F020E030E040E212
:1017B00051E40E949230CF5FF6CFA70196010E94BC
:1017C0002E302B013C010E94FF304B015C014AE0AE
:1017D0008EDE7C01E00EF11ECC23A9F1C501B4011F
:1017E0000E94B82E9B01AC01C301B2010E942D30B2
:1017F0004B015C0185EF90E45BDEE80EF91EC15001
:1018000010F120E030E040E251E4C501B4010E9453
:10181000192F2B013C010E94FF304B01B12CA12C50
:101820004AE0C501B40163DEE80EF91EC501B4014A
:101830000E94B82E9B01AC01C301B2010E942D3061
:101840004B015C01DCCFC701CF911F910F91FF903D
:10185000EF90DF90CF90BF90AF909F908F907F9050
:101860006F905F904F900895CF93DF9329DFEC0145
:101870002BDE8C0F9D1FDF91CF910895CF93DF93C7
:10188000682F70E090E080E04AE031DEEC011CDE81
:101890008C0F9D1FDF91CF9108950F931F93CF93CE
:1018A000DF9380916E57803109F062C088E229DAB7
:1018B00082FF3BC084E00CDB09DA80E0F0D980E0F5
:1018C000EED9D82FC82F833408F0C2E4C09328572C
:1018D00080E0E5D9082F80E0E2D9182F80E0DFD939
:1018E000282F30E0A90196E0440F551F9A95E1F7A3
:1018F00044275370402B4093295750932A57322F37
:10190000222722273370212B20932B5730932C57DB
:1019100090915A5E9417150611F0452B11F4D330AF
:10192000A0F410922857ADD928DB80916E578031F2
:10193000F9F4809128578823E1F084E0C9DA81E046
:10194000DF91CF911F910F910895C350C0932D57F0
:10195000807880932757D0E0DC1720F480E09FD96F
:10196000DF5FFACF8ED980E1B3DA84E2CAD9DDCF66
:1019700004DB80E0E5CF8091175E882309F439C04D
:1019800080EF93E0E8DB8091145E8B3249F186357D
:1019900051F18B3559F190E080E05DDE8FED93E001
:1019A000DADB6091155E70E090E080E04AE09FDD58
:1019B00083ED93E0D0DB8091165E8F7390E04BDE79
:1019C00086EC93E0C8DB6091185E70E090E080E008
:1019D0004AE08DDD88EB93E0BEDB8BEA93E077CDC8
:1019E00081EB91E0DACF84E693E0D7CF83E993E00F
:1019F000D4CF83E094E0F3CF0F931F93CF93DF9383
:101A000083EA93E0A8DB6091195E70911A5E809181
:101A10001B5E90911C5E42E050E026DF01E21EE575
:101A2000C1E0D0E08EE993E096DBCE0114DE87EFD3
:101A300090E457DDF80161917191819191918F014D
:101A400042E03EDE86E993E086DBCE0104DE87EFEE
:101A500090E447DDF801648975898689978942E0B9
:101A600050E002DF2196C730D105E1F6F9DD83DFD2
:101A70008BE893E070DB6091515E7091525E8091D3
:101A8000535E9091545E42E050E0EEDE8091595EEC
:101A9000811107C086E793E0DF91CF911F910F91ED
:101AA00016CD81E893E0F8CF94E081111BC09093AC
:101AB00046049091400492FD0AC09FB7F8948111AA
:101AC00014C080915204877F809352049FBF8091FD
:101AD000E6058770823029F48091010A8B7F80931C
:101AE000010A089590934504E4CF809152048860E0
:101AF000EBCF0F931F93CF93DF93CDB7DEB72C9728
:101B0000CDBFDEBF681BF1F0062F10E0682F70E03C
:101B1000625D784AA801CE0101960E943E32E1E062
:101B2000F0E0EC0FFD1FE00FF11F1082CE010196D7
:101B30000E941A2D2C96CDBFDEBFDF91CF911F9151
:101B40000F91089590E080E0F5CF0F931F93CF930E
:101B5000DF93CDB7DEB72C97CDBFDEBF681BF1F0AA
:101B6000062F10E0682F70E0625D784AA801CE0170
:101B700001960E943E32E1E0F0E0EC0FFD1FE00F25
:101B8000F11F1082CE0101960E94172D2C96CDBF19
:101B9000DEBFDF91CF911F910F91089560E070E05B
:101BA000CB01F4CF2F923F924F925F926F927F9230
:101BB0008F929F92AF92BF92CF92DF92EF92FF925D
:101BC0000F931F93CF93DF93CDB7DEB72A97CDBF87
:101BD000DEBF89879A87162F7A01222E312CB10118
:101BE000032C000C880B990B0E94BA2E4B015C0150
:101BF000612F70E090E080E00E94BA2E20E030E09B
:101C000044EB53E40E94192F2B013C01B70190E0F3
:101C100080E00E94B82E9B01AC01C301B2010E947A
:101C2000192FA50194010E94192F20E836E948E1F7
:101C30005BE40E9492302B013C01E985FA85058125
:101C40008081081B110B218132814381548166817F
:101C50007781808591850E942D30A30192010E9499
:101C600092306B017C01B801012E000C880B990B9E
:101C70000E94BA2EA50194010E9492309B01AC01F2
:101C8000C701B6010E942E306D837E838F839887B3
:101C90000E946D3169837A838B839C8320E030E0DE
:101CA00040E85FE30E942E306B017C0120E030E0D1
:101CB000A90169817A818B819C810E94D03187FD45
:101CC000A2C0A7019601C501B4010E94192F0E946C
:101CD000FA30E985FA856287738716861786E98563
:101CE000FA8526853785020F131F06871787020D91
:101CF000131D0487158720E030E044EB53E4C30153
:101D0000B2010E9492302BED3FE049EC50E40E947A
:101D1000192F6B017C0129813A814B815C816D8196
:101D20007E818F8198850E942D30A30192010E94AF
:101D3000192F20E030E044EB53E40E9492302BED69
:101D40003FE049EC50E40E94192F4B015C01A701D0
:101D500096010E9492302B013C01E985FA85448A64
:101D6000558A668A778AA5019401C501B4010E944B
:101D7000192F20E030E040E05FE30E94192F9B0123
:101D8000AC0160E070E080E89FE30E942D304B01E1
:101D90005C01A7019601C701B6010E94192F20E03E
:101DA00030E040E05FE30E94192F9B01AC0160E04E
:101DB00070E080E89FE30E942D30A30192010E9411
:101DC000192F9B01AC01C501B4010E942D30E9859A
:101DD000FA85608B718B828B938B2A96CDBFDEBF89
:101DE000DF91CF911F910F91FF90EF90DF90CF90F7
:101DF000BF90AF909F908F907F906F905F904F902B
:101E00003F902F900895E985FA8512861386C701C1
:101E1000B6019058A50194010E94192F0E94FA3032
:101E2000E985FA85668777875ACFCF92DF92FF924E
:101E30000F931F93CF93DF930FE5089FF0011124B9
:101E4000EF01C65CD74AAA81BB811F962C911F97D0
:101E50002A8B16964D915D916D917C9119974B8BC4
:101E60005C8B6D8B7E8BA881B9811F962C911F97FF
:101E70002F8B16964D915D916D917C911997488F9E
:101E8000598F6A8F7B8F2091E156C090DF56D0909A
:101E9000E056F09046408F01A6016F2DCF01845B84
:101EA000974A80DEEC81FD818A819B818E179F0796
:101EB00029F187858AA786819781A085B1858BA71F
:101EC0009CA7ADA7BEA7E881F98187858FA78681EA
:101ED0009781A085B18588AB99ABAAABBBAB2091AC
:101EE000E156A6016F2DC8018C59974ADF91CF9119
:101EF0001F910F91FF90DF90CF9054CEDF91CF9143
:101F00001F910F91FF90DF90CF900895CF92DF92B5
:101F1000EF92FF920F931F93CF93DF93CDB7DEB76E
:101F2000AD97CDBFDEBF87E080935C5E84E0809399
:101F30005D5E85E080935E5E86E080935F5E1092DA
:101F4000605E1091155E8091165E80935A5E1092CD
:101F50005B5E80E88093010480E1809301049FB779
:101F6000F89480E28093020480911504877F809327
:101F700015049FBF80915F5E893288F490E0FC0178
:101F8000EF5AFF4B20812F3F51F086589F4BDC01C9
:101F9000EC91B0E2EB9FF0011124FC5F21830E94E1
:101FA00041068091605E8111B5C08091E4058C7F0F
:101FB0008093E40580914109846080934109809178
:101FC00040098162809340090E945C076B017C019B
:101FD0006AEA8FE20E9474068FE20E9481068A3AC2
:101FE00059F00E945C076C197D098E099F096233C4
:101FF00071058105910560F30E945C076C197D09EC
:102000008E099F09623371058105910508F0B3C0FF
:102010000E945C076B017C0165E58FE20E947406FB
:102020008FE20E948106853559F00E945C076C1989
:102030007D098E099F09623371058105910560F361
:102040000E945C076C197D098E099F096233710536
:102050008105910508F08FC0FE0133968BE2DF0108
:102060001D928A95E9F781E0898384E08A8322E0E2
:102070002B8393E09D832E838F8380E4888725E0E4
:1020800029879A8796E09B8793E39C8797E09D87B3
:1020900028E02F8729E0298B29E12B8B32E43C8B28
:1020A00025E22D8B8E8B26E22F8B988F98E2998FCD
:1020B00020E12A8F99E29B8F9CED9C8F9EE29D8F61
:1020C00098E89E8F9FE29F8F9DE298A390E399A34B
:1020D00047E34BA340E94CA348E34DA33EA33CE3B5
:1020E0003FA33FE838A73DE339A72AA72FE62BA750
:1020F0009CA79CE69E87888B1AA38E010F5F1F4FBB
:10210000F80180818823B1F061810E9474060E5F1E
:102110001F4FF6CF8091E405837F8093E405809183
:102120006109846080936109809160098162809374
:1021300060094ACF90E080E00E94970769E981E159
:102140000E94740684E00E9468070E945C076B018D
:102150007C0187E20E94810687FD0BC00E945C071C
:102160006C197D098E099F096233710581059105FE
:1021700080F30E945C078BEF90E40E949707209108
:10218000165EF4E12F9F8001112460E070E0CB0126
:102190000115110541F00E94C22C9801110F440B4A
:1021A000550B0E94D02FAD96CDBFDEBFDF91CF91F2
:1021B0001F910F91FF90EF90DF90CF900C94380714
:1021C0001F920F920FB60F92112484E00E94D7063F
:1021D000EF93FF93E3E2F7E58F938FB78F938081BF
:1021E0008F5F808381818F4F818382818F4F828334
:1021F00083818F4F838381E08093260B8F918FBFE4
:102200008F91FF91EF911895EF93FF93F898EFE678
:10221000F7E50BC0EF93FF93F898EFE6F7E534C0CE
:10222000EF93FF93EFE6F7E55FC02F932FB72F9360
:102230008F939F93AF93BF936894CF93DF9320E0E6
:10224000C085D8E09289DF01A90FB21FAD5ABF4FF8
:102250008C9120E42C838A839F5F9F738D812189D9
:10226000291302C08F7D8D83928BDF91CF9116F061
:102270000C945E08BF91AF919F918F912F912FBFCA
:102280002F91FF91EF9118952F932FB72F933F9395
:102290008F939F93CF93DF93C085D8E02E812F7EBD
:1022A0002E83898198818674880F3685382B82FD2C
:1022B0000DC0C78581E08C0F8F732089281791F09E
:1022C000CE0FDF2F20E0D21F9B8B87873687DF91D1
:1022D000CF919F918F913F912F912FBF2F91FF9180
:1022E000EF9118953064F2CF8F938FB78F939F93B0
:1022F000CF93DF93C085D8E09D8188818C8187FD55
:10230000FCCF9F7B90689D83DF91CF919F918F91B0
:102310008FBF8F91FF91EF9118951F920F920FB67B
:102320000F9211248F9388E08093A90481E0809319
:10233000DC568F910F900FBE0F901F9018951F9233
:102340000F920FB60F9211248F939F9380910904DF
:102350008093090486FF03C091E09093DE5687FFC7
:1023600003C081E08093DD569F918F910F900FBE47
:102370000F901F9018951F920F920FB60F92112475
:102380000BB60F922F923F924F925F926F927F9275
:102390008F929F92AF92BF92CF92DF92EF92FF9275
:1023A0000F931F932F933F934F935F936F937F935D
:1023B0008F939F93AF93BF93EF93FF93CF93DF934D
:1023C000CDB7DEB72A97CDBFDEBF81E080930D0683
:1023D00080911006909111068D839E838091D15635
:1023E0008E5F9091E156891718F09091E156891B04
:1023F00090E0FC01EE0FFF1FE80FF91FE75EFF4BB7
:102400008081809308068D819E81209104583091AF
:10241000055836952795821B930B8D839E838D815E
:102420009E81E091CF56F091D056EE0FFF1FE15301
:10243000F14B8083918319821A821B821C822D8129
:102440003E810D811E8122241302B001029FA00152
:1024500012037209500D611D721D30037209500D77
:10246000611D721D112449835A836B837C8389808B
:102470009A80AB80BC80A0910140B0910240E09175
:10248000D15608E0E09FF0011124EA0FFB1FE0584D
:10249000FF4F2080318042805380648075800681A8
:1024A00017819401A50160E070E080E090E05101A7
:1024B000620173010E942A32208331834283538355
:1024C00064837583868397834D815E81E091D156C5
:1024D00018E0E19FF0011124EA0FFB1FA084B184F2
:1024E000C284D384E484F58406851785952F990FDB
:1024F000990B9A01492F592F692F792F892F0E9403
:102500002A32208731874287538764877587868779
:102510009787E091D1568E2F90E0FC01EE0FFF1FC0
:10252000E80FF91FE75EFF4B80818111CFC08091DA
:10253000CD4E9091CE4E9C01369527953695279598
:10254000AC01421B530B9A018D819E81181619060E
:102550000CF478C08D819E81919581959109820FAF
:10256000931F8093CD4E9093CE4E21E04091025820
:10257000509103584817590708F020E02093BF5D99
:102580008D819E81181619060CF05FC081E090E0E5
:102590008093CB4E9093CC4E2091CB4E3091CC4E2D
:1025A0008091C74E9091C84E2817390709F452C040
:1025B0008091C44E8F5F8093C44E8091C44E882317
:1025C00051F01092C44E8091CB4E9091CC4E80939E
:1025D000C94E9093CA4E8091C94E9091CA4E0197B0
:1025E00009F016C38091C74E9091C84E019709F427
:1025F00065C08091C54E9091C64E01968093C54EA0
:102600009093C64E20910440222339F1209103403B
:102610002817190609F008F5109204401092C54ECB
:102620001092C64E14961D921D921D921C921797E1
:10263000CD0188529D4FFD01E817F90771F0108216
:102640003196FACF8D819E818ACF1092CB4E109217
:10265000CC4EA2CF1092C44EB0CF14964D915D9146
:102660006D917C9117974F5F5F4F6F4F7F4F14961F
:102670004D935D936D937C9317970D911D912D91C3
:102680003C9113974091D2565091D3566091D456B5
:102690007091D556041715072607370778F08091F3
:1026A000474090914840A0934740B0934840809362
:1026B00001409093024081E08093E4568091C94E9E
:1026C0009091CA4E8093C74E9093C84E9091D15628
:1026D0008091E356981708F445C28090CF569090A9
:1026E000D056E091D1568E2F90E0FC01EE0FFF1FE7
:1026F000E80FF91FE75EFF4B0180F281E02D848D2A
:10270000958D881A990A53E09522E091CF56F09161
:10271000D056A091D1568A2F90E0DC01AA0FBB1FA2
:10272000A80FB91FA75EBF4B11960D90BC91A02DAD
:102730005E968D919C91E81BF90BF3702091CF561A
:102740003091D056A091D1568A2F90E0DC01AA0F8B
:10275000BB1FA80FB91FA75EBF4B11960D90BC9170
:10276000A02D90968D919C91281B390BD901B370A7
:10277000AF83B887880C991C84010153114B480121
:10278000D8016D917C91EE0FFF1FE153F14B408119
:102790005181222457029001469F8001560332093D
:1027A000100D211D321D74033209100D211D321D23
:1027B000112428013901E0910140F0910240A091DB
:1027C000D15618E0A19FD0011124AE0FBF1FA85011
:1027D000BF4FAC901196BC90119712962C90129707
:1027E00013963C90139714960C911497098715969D
:1027F0001C9115971A8716960C91169717961C918F
:10280000179773016201FF0CCC08DC2C7601920152
:10281000A3016C2D7C2D8C2D9C2D6101E984FA8403
:102820000E942A322C9311963C93119712964C9346
:10283000129713965C93139714966C9314971596AE
:102840007C93159716968C93169717969C93D401A4
:102850006D917C91AF81B885AA0FBB1FA153B14B7D
:102860004D915C91222457029001469F80015603AE
:102870003209100D211D321D74033209100D211D66
:10288000321D112448015901A091D15618E0A19F91
:10289000D0011124AE0FBF1FA059BE4F2C9011962E
:1028A0003C9011971296CC9012971396DC90139748
:1028B0001496EC9014971596FC90159716960C911B
:1028C000169717961C91179724013501770C440829
:1028D000542C32019401A501642D742D842D942D66
:1028E00051010E942A322C9311963C931197129613
:1028F0004C93129713965C93139714966C931497BA
:1029000015967C93159716968C93169717969C930D
:10291000A091D1568091D1562A2F30E0D901AA0F2B
:10292000BB1FA20FB31FA75EBF4B11962D913C9109
:1029300090E0DC01AA0FBB1FA80FB91FA75EBF4B19
:1029400011968D919C91D90112962D913C91DC01AB
:1029500014968D919C912817390709F403C1809032
:10296000CF569090D056A091D1568A2F90E0DC019E
:10297000AA0FBB1FA80FB91FA75EBF4B11960D90E2
:10298000BC91A02DD4968D919C91881A990AB3E0A0
:102990009B222091CF563091D0568091D15690E015
:1029A000DC01AA0FBB1FA80FB91FA75EBF4B119672
:1029B0000D90BC91A02DD6968D919C91D901A81B0C
:1029C000B90BBD0173704091CF565091D056809194
:1029D000D156282F30E0C901880F991F820F931F0D
:1029E000875E9F4BDC0111968D919C91DC01D896FE
:1029F0008D919C91481B590BDA01B370AF83B88756
:102A0000880C991C84010153114B4801D8018D9108
:102A10009C91DB01AA0FBB1FA153B14B4D915C915F
:102A2000BC01222457029001469F800156033209BF
:102A3000100D211D321D74033209100D211D321D90
:102A4000112428013901A091D15678E0A79FD00127
:102A50001124AE0FBF1FA851BE4FAC901196BC9071
:102A6000119712962C90129713963C9013971496E8
:102A70000C911497098715961C9115971A8716962D
:102A80000C91169717961C91179779016201FF0C0C
:102A9000CC08DC2C76019201A3016C2D7C2D8C2DB1
:102AA0009C2D6101E984FA840E942A322C931196AC
:102AB0003C93119712964C93129713965C9313972D
:102AC00014966C93149715967C93159716968C9381
:102AD000169717969C93D4016D917C91AF81B88520
:102AE000AA0FBB1FA153B14B4D915C9122245702F9
:102AF0009001469F800156033209100D211D321DA1
:102B000074033209100D211D321D112428013901D1
:102B10008091D15618E0819FC0011124E80FF91F60
:102B2000E05AFD4FB081A181C280D380E480F5805E
:102B30000681178153014201BB0C8808982C54016F
:102B40009201A301682D782D882D982DAB2EBA2ED9
:102B50000E942A32208331834283538364837583A6
:102B6000868397838091D1568F5F8093D1568091D1
:102B7000CF569091D05601968093CF569093D056D1
:102B80009091D1568091E156981788F01092D156C5
:102B9000E0910140F091024080819181A281B38156
:102BA0000196A11DB11D80839183A283B38380917F
:102BB000CF569091D05693708093CF569093D05625
:102BC0002A96CDBFDEBFDF91CF91FF91EF91BF91EC
:102BD000AF919F918F917F916F915F914F913F91B5
:102BE0002F911F910F91FF90EF90DF90CF90BF90AA
:102BF000AF909F908F907F906F905F904F903F909D
:102C00002F900F900BBE0F900FBE0F901F90189536
:102C10008091C74E9091C84E51CDEF92FF920F9385
:102C20001F93CF93DF9300D0CDB7DEB710927157CB
:102C30001092725788EE93E0A0E0B0E08093735753
:102C400090937457A0937557B093765780ED90E4A6
:102C500080936F579093705780E698E080937757F2
:102C60009093785780E19CE08093795790937A57BE
:102C700082E080937B5710927C5710927D5780E0C2
:102C800090E0A8ECB2E48093AB5D9093AC5DA09330
:102C9000AD5DB093AE5D1092BE5D1092BF5D80934E
:102CA000C15D9093C25DA093C35DB093C45D10926B
:102CB000D45D1092D55D8093D75D9093D85DA0933D
:102CC000D95DB093DA5D1092EA5D1092EB5DEEEAA9
:102CD000FCE581839283A383B483148A75962DE5E2
:102CE000EA3AF207B1F78AE398E5FC01E25AFF4FAE
:102CF0001082815A9F4F4CE58E3A9407B1F7EAE073
:102D0000F8E524E130E092E081E020833183928392
:102D1000138214821582168217821086118682878A
:102D20001386709648E5EA33F40779F7109206584F
:102D3000109207581092085880E090E18093045850
:102D40009093055880E091E0809302589093035847
:102D50008EEF90E080930E5E90930F5E8DE190E099
:102D600080930A5E90930B5E8DE090E08093085E06
:102D70009093095E84E890E08093105E9093115EDA
:102D80008DEF91E08093125E9093135E10920C5E33
:102D900010920D5E04E810E009831A83CE010196BB
:102DA0000E947A0978019DE1E90EF11C8F3F09F438
:102DB0006EC000930C5E10930D5E2DEFE21621E0C5
:102DC000F2065CF4E982FA82CE0101960E947A0949
:102DD0008F3F09F458C00E942C0A8AE080935C5E01
:102DE0008BE080935D5E8CE080935E5E8DE08093EF
:102DF0005F5E1092605E8BE28093145E82ED809342
:102E0000155E8BE18093165E81E08093175E99E1F9
:102E10009093185E4AE959E96AEC72E44093195EAE
:102E200050931A5E60931B5E70931C5E40E050E00E
:102E300068E472E440931D5E50931E5E60931F5ED3
:102E40007093205E4DEC5CEC6CE171E44093515E5C
:102E50005093525E6093535E7093545E8093555EC0
:102E600084E690E08093565E9093575E1092585E91
:102E70001092595E0F900F90DF91CF911F910F919B
:102E8000FF90EF9008954DE1E40EF11C96CF87017D
:102E90008DEFE81681E0F80609F07ECF9ECFCF9344
:102EA000DF93CDB7DEB7CA57D109CDBFDEBF88EDFE
:102EB00021E030E084BF2093620091E084BF9093D2
:102EC00063009DE284BF9093800093E084BF909361
:102ED000600080E090E22091650020FDA8C221E022
:102EE0002093030A8EEF8093260A8093270A9BE0A3
:102EF0009093000A32E03093E6052093430A8093D2
:102F0000660A8093670A9093400A9093E70537E03A
:102F10003093010B80930C0B10920D0B95E0909366
:102F2000000B3093110B80931C0B10921D0B909390
:102F3000100B3093310B80933C0B10923D0B909310
:102F4000300B4FEF5FE04093AA0B5093AB0B80E840
:102F50008093820B1092810B4EEF50E04093AE0BAA
:102F60005093AF0B88ED34E184BF3093680081E16A
:102F70008093800BE0E0F6E092838EE0858380E62C
:102F8000838390838091B000887F85608093B000B8
:102F90008091B200887F85608093B2008FED9EE2C1
:102FA00080932C0B90932D0B2093250B1092210BCB
:102FB00083E08093200B789484E08093410481E047
:102FC0000E94540D80917D5780FF14C08FE697E5D5
:102FD0000E94C908E0917757F09178578681168250
:102FE0008581158280E4848380917F5780937E570A
:102FF00010927D571FB7F894E0917757F09178576A
:10300000168233E0378381E493E0808791871486CA
:1030100080E8858380EC868320917C5760917B5784
:103020008091795790917A57FC01239FE00DF11D13
:10303000112445915491261708F03FC0252F30E008
:10304000593280F4F901EF5AFF4B70817F3F51F004
:1030500026583F4BD901EC91B0E2EB9FF0011124CF
:10306000FC5F718371E0750F272F30E0793228F50E
:10307000F901EF5AFF4B70817F3FF9F0F901E658F3
:10308000FF4BA081E0E2AE9FD0011124BC5F2D5523
:103090003F4BF9010081F0E0E0E0083030F49D01A1
:1030A000205F3F4FF901E00FF11D3FB7F8941296F2
:1030B0007C932081286020833FBFFC0103E0609F58
:1030C000E00DF11D1124319625913491F901FF276E
:1030D000EE51FA4F9081832F80958923482B4083AE
:1030E0001FBF0E94480BF1E22F2EFEE53F2EF1019B
:1030F00040E050E060EA71E48DEC9CECACE4B0E4BC
:103100004193519361937193848B958BA68BB78B6D
:103110001EE5E933F107A1F780E090E0A8ECB2E406
:103120008093215E9093225EA093235EB093245EF1
:1031300080E090E0A8E4B2E48093255E9093265E60
:10314000A093275EB093285E8093295E90932A5EB9
:10315000A0932B5EB0932C5E80E290E00E94A909C0
:10316000882341F1CE0101960E94810909811A81CB
:1031700017FD20C0680123E0C20ED11CE4E1EE2E51
:10318000EEE5FE2E87E090E05C013FEFA31AB30A64
:103190008BAB9CABCE01C3960E947A09D7018D936D
:1031A0007D01C501AC14BD0478F38EE394E00430D6
:1031B000110511F48DE294E00E94670A0E94FC0C54
:1031C0008091175E81110E94860F8EE08093050624
:1031D00080910306809303061092B00086E08093EE
:1031E000020681E08093000680910006809300062D
:1031F00087E08093080660E070E0CB0150E040E09B
:10320000E1E0E0930A0620910D0620FFFCCF4A3052
:10321000510544F02091100630911106620F731F82
:10322000811D911D4F5F5F4F4A31B7E25B0749F740
:103230000E94B82E20E030E44CE156E40E94923027
:1032400020E030EF4FE755E40E9492309B01AC0143
:1032500066E676E686E69FE30E9492306B017C018B
:1032600083E594E00E94AB0844E050E0C701B6015A
:103270000E94340C4091195E50911A5E60911B5E61
:1032800070911C5E81E00E948D064091195E509104
:103290001A5E60911B5E70911C5E82E00E948D063A
:1032A0004091195E50911A5E60911B5E70911C5E98
:1032B00083E00E948D068090494090904A40A09003
:1032C0004B40B0904C408BAE9CAEADAEBEAE60916C
:1032D00004587091055890E080E00E94B82E2B01B0
:1032E0003C010EEA1CE520E0D10158968D909D909E
:1032F000AD90BC905B97F101619171918191919139
:103300001F01F1E0F20FFFABD8012C9320E030E079
:1033100040E450E40E94192F2BAD3CAD4DAD5EADA5
:103320000E94192FA30192010E949230F80161833B
:10333000728383839483158286829782A086B18666
:10334000128613861486158616860B5E1F4F2FA9CC
:10335000263051F661E081E00E94DD0862E082E003
:103360000E94DD0861E083E00E94DD0862E084E005
:103370000E94DD0861E085E00E94DD0862E086E0F1
:103380000E94DD088CE3809346408AE080930340EE
:103390006091515E7091525E8091535E9091545E47
:1033A0000E940609C0924940D0924A40E0924B40A8
:1033B000F0924C408091555E809333588823E9F118
:1033C00089E08093B3048091565E9091575E80931C
:1033D0002A5890932B5882E080932C5881E0809358
:1033E0003458C0900C5ED0900D5EC114D10409F425
:1033F00074C186010F5F1F4F7CEEE72E7DE5F72E2F
:1034000080910A5E90910B5E8C0D9D1D0817190727
:10341000BCF4C801957189839A83CE0101960E94FC
:103420007A09D7018D937D010F5F1F4FE9CF019777
:1034300009F051CD83E00E94D7061092B304C3CFA8
:103440004090EC5D5090ED5D6090EE5D7090EF5DB2
:103450008090F05D9090F15DA090F25DB090F35D92
:10346000C090F45DD090F55DE090F65DF090F75D72
:103470000091F85D1091F95D2091FA5D3091FB5D4E
:103480004091FC5D5091FD5D6091FE5D7091FF5D2E
:103490008091005E9091015EA091025EB091035E0A
:1034A0008FAB98AFA9AFBAAF8091045E9091055EE3
:1034B000A091065EB091075E40929058509291584C
:1034C00060929258709293588092EF589092F05870
:1034D000A092F158B092F258C0924E59D0924F59E2
:1034E000E0925059F09251590093AD591093AE5952
:1034F0002093AF593093B05940930C5A50930D5AC2
:1035000060930E5A70930F5A2FA838AC49AC5AAC3E
:1035100020926B5A30926C5A40926D5A50926E5A69
:1035200080930D5890930E58A0930F58B093105855
:1035300085E18093DA5688E090E08093D8569093A6
:10354000D95688EE91E08093DF569093E056109222
:10355000D7569091E356A8E9B8E54CE05DE580E0E8
:1035600011E02C91222309F44FC0E82FF0E09F01D5
:10357000220F331FE20FF31F9F01275E3F4B79019C
:10358000F9012081BD016C5571092F3F99F4FB01B0
:1035900020813181F901048901110CC08787148BC6
:1035A000208130E0275F3F4BF9012081F701208324
:1035B0008F5F9F5FFD01EA55F10920813181FB0199
:1035C0006081718126173707F9F0E82FF0E0BF011D
:1035D000660F771FE60FF71FBF01675E7F4B7B010A
:1035E000FB0160816F3F81F4F901648961110CC0B6
:1035F0008787148B208130E0275F3F4BF9012081C2
:103600008F5FF70120839F5FA15ABF4F4A175B0767
:1036100009F0A7CF9093E3568093D7569091D65652
:10362000AAE3B8E541E0FD01E25AFF4F20812223E1
:1036300019F1282F30E0F901EE0FFF1FE20FF31F01
:10364000BF01675E7F4BFB0120812F3FA9F42D91C5
:103650003C911197F901548951110EC08787448B11
:10366000208130E0245F3F4BF9012081FB01208362
:103670008F5FA183B2839F5FA15ABF4FFCE5AE3A33
:10368000BF0789F68093D7569093D65690910658E7
:103690009923A9F0809309582091184091E0980F40
:1036A0009093D75690E0FC01EE0FFF1FE80FF91F33
:1036B000E75EFF4B208310920758109208588091C4
:1036C000D7568093E15610E08091E2561817E0F447
:1036D000812F0E94150F1F5FF7CF1FAA18AE19AEDA
:1036E0001AAE40E050E0BA0100E010E09801C12CB1
:1036F000D12C7601812C912C5401412C512C32017A
:1037000080E090E0DC01D8CE1091E15620E836E967
:1037100048E15BE46091054070910640809107406C
:10372000909108400E94192F20E030E044EF53E4CC
:103730000E9492300E94FF306555714081099109C5
:10374000212F30E050E040E00E94FC2F2093D25621
:103750003093D3564093D4565093D5561092E45696
:1037600081E08093044095E19093050690910306D3
:10377000909303061092B0009091D8569093020651
:1037800080930006909100069093000690910006A9
:103790009260909300061092080690910C0691603A
:1037A00090930C0680930A0678941092F15610922A
:1037B000F2561092F3561092F45660E070E080E0FA
:1037C00090E40E9406098E010D5C1F4F0DAB1EABED
:1037D0008FE697E50E943508892B09F4A0C08FE693
:1037E00097E50E941308D090DB568A3009F028C56F
:1037F000AD2DB0E0A25DB84A1C92E0912E57EF5378
:10380000EC3308F084C00E2E000CFF0BE65FF34E85
:103810000C9421320721871C871C871C871C871C5E
:10382000871C871C871C871C871C871C871C871C80
:10383000871C871C871C871C871C871C871C871C70
:10384000871C871C871C871C871C871C871C871C60
:10385000871C871C871C871C871C461C7A1C4C1DD8
:10386000671D6E1D861D871CBA1F331D951D511FB8
:10387000591FBA1F871CD21F871CE01F0B20871CF3
:10388000871CD720C620DE20871CE52012E0D1123D
:103890003EC08FE297E50E941A2D8430E1F0883017
:1038A000E1F08930E1F48BE58093145E87EC9BE0D6
:1038B0000E94AB088091145E8B3299F08635A1F09E
:1038C0008B35A9F483E993E00E942B0B82EC9BE0FB
:1038D0000E94670A1CC08BE2E7CF86E5E5CF80E057
:1038E000E3CF81EB91E0F0CF84E693E0EDCF90E081
:1038F00080E0EACF22E0D2120AC08FE297E50E9470
:103900001A2D019709F0ACC081E08093585E80E4E5
:10391000AEE2B7E51D928A95E9F71092DB568091E9
:10392000DE5690911358992389F0882379F081E02D
:10393000809315580E945C0760931658709317582F
:1039400080931858909319581092DE568091DD5646
:1039500090912358992389F0882379F081E080930E
:1039600025580E945C0760932658709327588093CF
:103970002858909329581092DD568091DC569091EA
:103980003358992389F0882379F081E08093355862
:103990000E945C076093365870933758809338586C
:1039A000909339581092DC562AE0E22E28E5F22E48
:1039B0008701D12CC12C560194E0AA0CBB1C9A950E
:1039C000E1F7F501E65FF74A4F018385D8011996C3
:1039D0009C91992309F453C4882309F450C40E948C
:1039E0005C07F40124853585468557851B012C012C
:1039F000221A330A440A550AB201A101D8018D9155
:103A00009C91B0E0A0E084179507A607B70708F0DF
:103A100036C4B1E0CB1609F420C4E2E0CE1609F4B6
:103A200022C48091080486FB882780F9F501E65FAF
:103A3000F74A1386D8011A969C911A97981709F499
:103A40001EC412969C91811114C4923009F014C4C2
:103A5000F801278130852F5F3F4F278330870CC4C3
:103A60001092585E54CF32E0D31251CF8FE297E5D7
:103A70000E941A2D019751F481E08093595E809144
:103A8000595E882331F088EB9BE022CF1092595E7B
:103A9000F6CF8DEA9BE01CCF8FE297E50E94172DB1
:103AA0006B017C010E940609C092515ED092525E69
:103AB000E092535EF092545E82EA9BE00E94AB0873
:103AC00042E050E0C701B6010E94340C20CF8AE0EA
:103AD0008C938FE297E50E94710A19CF43E0D412CC
:103AE00016CF8FE297E50E94172D0E94FA30162F0D
:103AF000072F609346408AE99BE00E94AB08812F24
:103B0000902F0E942B0B0E94640A01CF8FE297E551
:103B10000E941A2D8093155E8FE89BE00E94AB08EF
:103B20008091155E0E943E0CF2CE60E270E08EE263
:103B300097E50E943332009711F40C94612C8C01AC
:103B40000E521745C801992760E270E0815D984ADE
:103B50000E943332CC24C394C00E009711F40C940D
:103B6000682CBC016E5277455B01602F81E00E949A
:103B7000790D7C016A2D8C2D0E94A50D2D966CAFC0
:103B80007DAF8EAF9FAF2D976D2D81E08A0D0E9486
:103B9000A50DA2966CAF7DAF8EAF9FAFA297E1143B
:103BA000F10409F093C023EA33E240E051E42D969A
:103BB0006CAD7DAD8EAD9FAD2D970E94192F4B0141
:103BC0005C010AEA1DE5E7E5CE2EE9E5DE2EFAE323
:103BD000EF2EF8E5FF2E2091494030914A40409168
:103BE0004B4050914C40C501B4010E94192F2B014C
:103BF0003C01609104587091055890E080E00E946B
:103C0000B82E9B01AC01C301B2010E949230D801D1
:103C100011966D937D938D939C9314972AE037EDC5
:103C200043E25EE316966D917D918D919C9119977B
:103C30000E94B42E882321F1F80115828AE097EDC5
:103C4000A3E2BEE386839783A087B187128613869B
:103C5000148615861686712C8091E256781680F4AB
:103C6000F701828193818017910729F084819581E2
:103C70008017910719F4872D0E94150F7394ECCFCC
:103C80000A5E1F4F7FE5E70EF11CCE14DF0409F03A
:103C9000A2CF2D962CAC3DAC4EAC5FAC2D972092B4
:103CA000195E30921A5E40921B5E50921C5E87E84D
:103CB0009BE00E94AB086091195E70911A5E809142
:103CC0001B5E90911C5E42E050E0FECECC24CA9474
:103CD000CE0C7BE0372E3C1408F49DC0AC2CB12CEC
:103CE00025E1C29E800111240255134A20E030E0F4
:103CF00040E450E42D966CAD7DAD8EAD9FAD2D971B
:103D00000E94192F2091494030914A4040914B40E8
:103D100050914C400E94192F2B013C016091045896
:103D20007091055890E080E00E94B82E9B01AC0194
:103D3000C301B2010E949230D80111966D937D9318
:103D40008D939C93149716962D913D914D915C9176
:103D50001997A2966CAD7DAD8EAD9FADA2970E94D6
:103D6000B42E882309F457C0F8011582A2962CAC12
:103D70003DAC4EAC5FACA29726823782408651861E
:103D8000128613861486158616868FE58A9D800115
:103D90008B9D100D1124065C174AD801ED91FC9102
:103DA0004681578160857185F801408F518F628F00
:103DB000738F2091E156A090DF56B090E05690901E
:103DC0004640C89E60011124A501692DC601845B8F
:103DD000974A0E94D20DD80112962D913C911397CB
:103DE00014968D919C91159728173907A1F0ED91A4
:103DF000FC9186819781A085B185F80180AB91AB5C
:103E0000A2ABB3AB2091E156A501692DC6018C5937
:103E1000974A0E94D20D8701000F111F000F111F3A
:103E2000005F114A2D962CAC3DAC4EAC5FAC2D978B
:103E3000D8011D962D923D924D925C925097A2967C
:103E40002CAC3DAC4EAC5FACA29795962D923D92BA
:103E50004D925C92989782E89BE00E94AB08C70164
:103E60000E942B0B87EF90E40E94710AF801658590
:103E700076858785908942E00E94600B8AE79BE007
:103E80000E94AB08C7010E942B0B87EF90E40E94B1
:103E9000710AD80195966D917D918D919C9198971D
:103EA00012CFB1E0DB1233CD0E94480B0E94FC0C14
:103EB0002ECD60E270E08EE297E50E9433320097EB
:103EC00071F56D2D81E00E94790D8C0101151105B0
:103ED00009F440C00130110509F443C02D966CADC2
:103EE0007DAD8EAD9FAD2D970E94FF3060932A5817
:103EF00070932B5882E080932C5881E08093345843
:103F00002D966CAD7DAD8EAD9FAD2D970E94FA3094
:103F10006093565E7093575E0E94300BF8CCFC01A4
:103F2000EE52F7457F016E2F81E00E94790D8C01E2
:103F30006D2D81E08E0D0E94790DBC01990F880BCB
:103F4000990B0E94BA2E2D966CAF7DAF8EAF9FAFAE
:103F50002D97BCCF109233581092B3041092555E37
:103F6000BDCF81E08093335899E09093B304809360
:103F7000555EB4CF8FE297E50E941A2D882379F021
:103F800099278034910514F08FE390E08093165EBA
:103F900080E79BE00E94AB088091165EC3CD81E074
:103FA00090E0F4CF8FE297E50E941A2D8F718093F5
:103FB000185E85E69BE00E94AB088091185EB2CD4A
:103FC000F1E0DF12A4CC84E695E00E94670A80E26B
:103FD00090E00E94A909882389F0CE0101960E94F1
:103FE000810989819A8197FD09C0919581959109EF
:103FF00089839A83CE0101960E94040A86E395E0A4
:104000000E94670A68EC70E080E090E00E94380748
:104010000C9400007CCC22242394D21078CC8CE227
:1040200095E00E94670A80E290E00E94A909811150
:104030002AC019821A826FE4CE0101960E94E1091A
:1040400044244394512C49825A8265E4CE0101965E
:104050000E94E10952E0852E912C89829A826DE4BA
:10406000CE0101960E94E10903E010E009831A8362
:104070006FEFCE0101960E94E1090F5F1F4F0115FE
:1040800022E0120799F74AE450E049835A8380E21C
:1040900090E08B839C83CE0101960E94040A04E188
:1040A0001EE587E090E0D8016D918D017C01BFEFA6
:1040B000EB1AFB0A8BAB9CABCE01C3960E94E109C5
:1040C000C7018D34910579F790E080E00E94A9093D
:1040D00081111AC084E095E00E94AB084AE060E0DC
:1040E00072E080E090E00E94770A8EED94E00E94FA
:1040F000670A60E072E090E080E00E94B40A8CED14
:1041000094E00E94AB080CC0CE0101960E94810988
:104110008B819C81019649F48BE894E00E94670AA8
:104120000E94640A8BE095E0D3CB8EE794E00E9476
:10413000AB086B817C8190E080E04AE00E94770AC6
:1041400009811A8117FF03C01195019511090450C7
:10415000110980E794E00E94AB08C8010E942B0B74
:1041600089E694E00E94AB0889819A8197FF04C098
:104170008EE594E00E94AB080E94640AB80187E0D3
:1041800090E00E94B40A8CE594E0BBCFF2E0DF122D
:10419000BECB1092175E80912F57813329F481E0B6
:1041A0008093175E0E94860F0E94BB0CB0CB222426
:1041B0002394D210ACCB0E94480BA9CB3324339468
:1041C00087E59BE0D310A3CB83CB44244394D41046
:1041D0009ECB8DE39BE00E94670A0E942C0AE0E9D7
:1041E000F8E51082118212821382E15AFF4F3AECF5
:1041F000832E3AE5932E8E169F0699F710920D584E
:1042000010920E5810920F581092105880CB99248B
:104210009394D9107CCB03E715E0F801F490FF20CC
:1042200061F0FAE0FF1203C08DE00E94C5088F2DF7
:104230000E94C5080F5F1F4FF0CF81E795E048CB84
:10424000BFE3BD1508F46BCBED2DF0E0E25DF84A5D
:104250008083D394D092DB5662CB80910804881F70
:104260008827881FE3CB8091A80483FB882780F9E7
:10427000DDCB933009F4ECCBD8011A968C93BFEFC9
:10428000CB1ADB0A005F1F4FE3E0CE16D10409F022
:1042900092CB8091E456882311F40C941D2B10923C
:1042A000E4562090E3562FAE822D90E006E1209E4A
:1042B000D0011124A655B24A26E1833098F45496D1
:1042C0003C91549731110BC0289FF001299FF00DAC
:1042D0001124E655F24A108A118A128A138A5696D8
:1042E0000196EBCF1091E256A3961FAFA397812FB3
:1042F00090E02FE5129FD0011124A457B74A25E181
:104300008C30B8F51C963C911C9731112EC0289F1B
:10431000F001299FF00D1124E255F34A108A118A09
:10432000128A138AFD01EC54F10910821182128263
:1043300013823496108211821282138214821582A3
:10434000168217821D921C92119712961D921C9232
:10435000139714961D921D921D921C9217971896F2
:104360001D921D921D921C921B970196A15ABF4F40
:10437000C7CFD70117962D913C911897211531057C
:1043800089F013968D919D910D90BC91A02D820F77
:10439000931FA11DB11DF70183839483A583B68369
:1043A00017821086F0E1EF0EF11C0AE3E01608E533
:1043B000F006F9F620904740309048400AEA1DE5A3
:1043C0000BAF1CAF10E000E04FAC041508F0EEC0DE
:1043D000780183E0EE0CFF1C8A95E1F7E20CF31CF8
:1043E000F701E058FF4F2081318142815381648180
:1043F000758186819781D1014D905D906D907C9003
:104400000E942F314B015C01C301B2010E94B82E02
:104410009B01AC01C501B4010E949230B6E1B09F8E
:104420009001B19F300D1124F901E655F24AEFAB2E
:10443000F8AF608B718B828B938BF7012085318570
:10444000428553856485758586859785D1014D9014
:104450005D906D907C901397808422968FAE22970A
:1044600091846D969FAE6D97A2842E96AFAE2E97D7
:10447000B3846296BFAE6297C4846696CFAE6697E9
:10448000D5846A96DFAE6A9786846B968FAE6B97FB
:1044900097846C969FAE6C97CD90DD90ED90FC90DC
:1044A000AFA9B8AD50968D909D90AD90BC905397AC
:1044B00029968CAE9DAEAEAEBFAE29970E942B3131
:1044C0004B015C01C301B2010E94B82E9B01AC01FB
:1044D000C501B4010E9492304B015C0122962FADC0
:1044E00022976D963FAD6D972E964FAD2E976296A3
:1044F0005FAD629766966FAD66976A967FAD6A9775
:104500006B968FAD6B976C969FAD6C970E942B311D
:104510009B01AC01C501B4010E94192F4B015C0144
:10452000C701B6010E94B82E9B01AC01C501B401C0
:104530000E9492309B01AC0129966CAD7DAD8EAD91
:104540009FAD29970E942D30EFA9F8AD608B718B3C
:10455000828B938B60897189828993890E94D8317B
:10456000AFA9B8AD50966D937D938D939C9353975F
:1045700050966D917D918D919C915397EBADFCADD3
:1045800021813281438154810E94192FAFA9B8AD96
:1045900050966D937D938D939C9353970F5F1F4F10
:1045A000EBADFCAD7696EBAFFCAF0ECFF1018481A5
:1045B0009581A681B78180819181A281B38180910B
:1045C000E1568091DF569091E0560CE818E521966F
:1045D0000EAF1FAF21970AE318E50FAB18AF6D962A
:1045E0001FAE6D974C01B12CA12CEB968CAE9DAEFD
:1045F000AEAEBFAEEB97A3969FACA3976D96AFAC54
:104600006D979A1409F4B6C4AFA9B8AD0D90BC91DA
:10461000A02DABAFBCAF1F968C91B8E08B9F8001F3
:104620001124020D131DF801E058FF4F2081318144
:10463000428153816481758186819781F1018080F7
:104640009180A280B3800E942F316B017C01C50153
:10465000B4010E94B82E9B01AC01C701B6010E94B3
:104660009230ABADBCAD50966D937D938D939C9382
:104670005397F8012085318542855385648575857A
:1046800086859785D1014D905D906D907C901397B4
:10469000808422968FAE229791842E969FAE2E977D
:1046A000A2846296AFAE6297B3846696BFAE6697F9
:1046B000C4846A96CFAE6A97D5846B96DFAE6B974B
:1046C000E6846C96EFAE6C97F7846E96FFAE6E97AD
:1046D000CD90DD90ED90FC90ABADBCAD50968D9043
:1046E0009D90AD90BC90539729968CAE9DAEAEAE8A
:1046F000BFAE29970E942B314B015C01C301B2016F
:104700000E94B82E9B01AC01C501B4010E949230F9
:104710004B015C0122962FAD22972E963FAD2E972E
:1047200062964FAD629766965FAD66976A966FAD7B
:104730006A976B967FAD6B976C968FAD6C976E9604
:104740009FAD6E970E942B319B01AC01C501B40156
:104750000E94192F4B015C01C701B6010E94B82EBF
:104760009B01AC01C501B4010E9492309B01AC01D8
:1047700029966CAD7DAD8EAD9FAD29970E942D30F1
:10478000EBADFCAD608B718B828B938B60897189F3
:10479000828993890E94D831ABADBCAD50966D93A0
:1047A0007D938D939C93539750966D917D918D91B0
:1047B0009C91539711968D909D90AD90BC901497BD
:1047C00061968CAE9DAEAEAEBFAE6197A501940171
:1047D0000E94192FEBADFCAD608B718B828B938B9C
:1047E000F801E850FF4F208131814281538164817B
:1047F000758186819781E858FF4F408062964FAE61
:104800006297518066965FAE669782806A968FAE99
:104810006A9793806B969FAE6B97A4806C96AFAEB1
:104820006C97B5806E96BFAE6E97C680A496CFAEDD
:10483000A497D780A596DFAEA597D1018D909D90C6
:10484000AD90BC90F801F085A696FFAFA697D80171
:104850001996BC91A796BFAFA797F801F285A896C5
:10486000FFAFA897D8011B96BC91A996BFAFA99797
:10487000F801F485AA96FFAFAA97D8011D96BC91BE
:10488000AB96BFAFAB97F801F685AC96FFAFAC9790
:10489000D8011F96BC91AD96BFAFAD97F101408096
:1048A000518062807380AFA9B8AD12960D90BC9113
:1048B000A02D2796AEAFBFAF27971F96EC91F0E0E3
:1048C0003196B3E0EE0FFF1FBA95E1F7E20DF31D4D
:1048D000C080AE96CFAEAE97D180AF96DFAEAF9729
:1048E000E280E096EFAEE097F380E196FFAEE197CD
:1048F000C480E296CFAEE297D580E396DFAEE39731
:10490000E680E496EFAEE497F780E596FFAEE59794
:10491000D101CD90DD90ED90FC902596CCAEDDAE32
:10492000EEAEFFAE25970E942B31EFA9F8AD22A184
:1049300033A144A155A10E94192F6B017C016296FD
:104940002FAD629766963FAD66976A964FAD6A97B0
:104950006B965FAD6B976C966FAD6C976E967FADF7
:104960006E97A4968FADA497A5969FADA5970E942C
:104970002B31AFA9B8AD96962D913D914D915C919B
:1049800099970E94192F9B01AC01C701B6010E94A3
:104990002E306B017C01C501B4010E94B82E9B0131
:1049A000AC01C701B6010E9492306B017C01A69652
:1049B0002FADA697A7963FADA797A8964FADA897FE
:1049C000A9965FADA997AA966FADAA97AB967FAD52
:1049D000AB97AC968FADAC97AD969FADAD970E945F
:1049E0002B314B015C01C301B2010E94B82E9B0127
:1049F000AC01C501B4010E9492304B015C01AE963E
:104A00002FADAE97AF963FADAF97E0964FADE09725
:104A1000E1965FADE197E2966FADE297E3967FADE9
:104A2000E397E4968FADE497E5969FADE5970E94F6
:104A30002B319B01AC01C501B4010E94192F4B0120
:104A40005C0125966CAD7DAD8EAD9FAD25970E9426
:104A5000B82E9B01AC01C501B4010E9492309B01AC
:104A6000AC01C701B6010E942D306B017C01279675
:104A7000EEADFFAD2797218132814381548161964C
:104A80006CAD7DAD8EAD9FAD61970E94192FA701D2
:104A900096010E94192F65966CAF7DAF8EAF9FAFC8
:104AA0006597AFA9B8AD14960D90BC91A02D239633
:104AB000AEAFBFAF239727964EAC5FAC279720E0F1
:104AC00030E0A9014A165B0609F458C1F801E85123
:104AD000FE4F50806A965FAE6A9781806B968FAE6C
:104AE0006B9792806C969FAE6C97A3806E96AFAEDC
:104AF0006E97B480A496BFAEA497C580A596CFAE9E
:104B0000A597D680A696DFAEA697E780A796EFAECC
:104B1000A797E858FF4F20813181428153816481FA
:104B2000758186819781D1018D909D90AD90BC90CB
:104B3000F801F085A896FFAFA897D8011996BC9107
:104B4000A996BFAFA997F801F285AA96FFAFAA97D9
:104B5000D8011B96BC91AB96BFAFAB97F801F4851B
:104B6000AC96FFAFAC97D8011D96BC91AD96BFAF88
:104B7000AD97F801F685AE96FFAFAE97D8011F96B8
:104B8000BC91AF96BFAFAF97F1014080518062807A
:104B900073802396AEADBFAD23971F96EC91F0E0E6
:104BA0003196A3E0EE0FFF1FAA95E1F7E20DF31D8A
:104BB000C080E096CFAEE097D180E196DFAEE1977E
:104BC000E280E296EFAEE297F380E396FFAEE397E2
:104BD0000481E4960FAFE4971581E5961FAFE59742
:104BE000C680E696CFAEE697D780E796DFAEE7972A
:104BF000D101ED90FD900D911C916996ECAEFDAE4A
:104C00000EAF1FAF69970E942B31EFA9F8ADFE964A
:104C100020813181428153810E94192F6B017C01D7
:104C20006A962FAD6A976B963FAD6B976C964FADBA
:104C30006C976E965FAD6E97A4966FADA497A59690
:104C40007FADA597A6968FADA697A7969FADA79780
:104C50000E942B31EFA9F8AD22AD33AD44AD55AD77
:104C60000E94192F9B01AC01C701B6010E942E3092
:104C70006B017C01C501B4010E94B82E9B01AC01FF
:104C8000C701B6010E9492306B017C01A8962FAD3E
:104C9000A897A9963FADA997AA964FADAA97AB96AC
:104CA0005FADAB97AC966FADAC97AD967FADAD9762
:104CB000AE968FADAE97AF969FADAF970E942B315A
:104CC0004B015C01C301B2010E94B82E9B01AC01F3
:104CD000C501B4010E9492304B015C01E0962FADFA
:104CE000E097E1963FADE197E2964FADE297E3960C
:104CF0005FADE397E4966FADE497E5967FADE597FA
:104D0000E6968FADE697E7969FADE7970E942B3129
:104D10009B01AC01C501B4010E94192F4B015C013C
:104D200069966CAD7DAD8EAD9FAD69970E94B82E32
:104D30009B01AC01C501B4010E9492309B01AC0102
:104D4000C701B6010E942D306B017C012396AEADE8
:104D5000BFAD239711962D913D914D915C91149784
:104D600061966CAD7DAD8EAD9FAD61970E94192FA0
:104D7000A70196010E94192F9B01AC0165966CADAD
:104D80007DAD8EAD9FAD65970E942D304B015C01CE
:104D900027964EAC5FAC27972396CEACDFAC23971B
:104DA00020E030E0A9014C145D0439F4D2015096A2
:104DB0002D913D914D915C915397EBADFCAD608988
:104DC0007189828993890E94192F2B013C01AC01C2
:104DD0009B01C501B4010E9492306B017C0126E663
:104DE00036E646E85FE30E94D03118160CF4B9C0ED
:104DF00026E636E646E85FEBC701B601B5D787FD84
:104E0000B0C0A7019601C701B6010E9416328111F8
:104E1000A8C02196AEADBFAD21971896CD92DD9278
:104E2000ED92FC921B9720E030E040E05FE3C5018B
:104E3000B4010E942E300E94FA302196AEADBFAD73
:104E400021976D937C9320E030E040E05FE3C30165
:104E5000B2010E942E300E94FA302196EEADFFADD5
:104E6000219762837383D1016D917D918D919C9186
:104E70001091E1567DD7A5019401DBD76B017C0130
:104E8000EB966CAD7DAD8EAD9FADEB9771D79B0171
:104E9000AC01C701B601CDD76B017C01612F70E079
:104EA00090E080E067D79B01AC01C701B601C1D794
:104EB00020E836E948E15BE40E949230EFA9F8ADC2
:104EC00026813781408551850E942E306B017C01FF
:104ED00020E030E041E655E40E9492300E94FA3032
:104EE000072E000C880B990B2196AEADBFAD219714
:104EF00014960D911D912D913C911797060F171F38
:104F0000281F391FFD01048315832683378332D779
:104F100020E030E041E655E48CD79B01AC01C701AD
:104F2000B6010E942D30AFA9B8AD16966D937D9352
:104F30008D939C9319976D960FAD6D970F5F6D963E
:104F40000FAF6D97A15ABF4FAFABB8AF21960EAD63
:104F50001FAD2197015A1F4F21960EAF1FAF21970A
:104F60004ACB2196EEADFFAD2197108611861286B1
:104F7000138659CF80910658882309F44FC0E091D9
:104F80000958F0E0319613E0EE0FFF1F1A95E1F794
:104F9000E20DF31D2081318142815381648175814D
:104FA00086819781D1018D909D90AD90BC900E949B
:104FB0002B316B017C01C501B401DAD69B01AC0138
:104FC000C701B6010E9492306B017C0160910458C8
:104FD000709105587695679590E080E0C9D69B0161
:104FE000AC01C701B6010E942E3020E030E040E065
:104FF0005FE30E942E300E94FF3060930758709349
:105000000858C10188529D4F2816390661F0F101F8
:10501000108281010F5F1F4F1801F6CF10920758C1
:1050200010920858EECF8091F1569091F256A091CF
:10503000F356B091F456892B8A2B8B2B99F480E090
:105040000E94540D65E070E080E090E00E94380717
:105050006091515E7091525E8091535E9091545E6A
:105060000E9406098091F1569091F256A091F35654
:10507000B091F4560196A11DB11D8093F156909305
:10508000F256A093F356B093F456A5EF4A2EA6E538
:105090005A2E720110E000E0B6E1DB2ED09EF00146
:1050A000D19EF00D1124E655F24A608971898289FA
:1050B000938920E030E048EC52E4BBD60E94FA30FD
:1050C000D7016D937D937D010F5F1F4F0330110555
:1050D00029F7E7E06E2EE7E57E2EFBEFCF2EF6E513
:1050E000DF2E85EE96E56CE27DE5A6019301AEEA42
:1050F000BCE51FE554960C915497F12CE12C00234C
:1051000049F0FC01F0801F9DF0011124E457F74A9B
:10511000E080F180FA01E192F192AF01812C912CB3
:105120005401002359F0FC010081109FF00111246B
:10513000E057F74A80809180A280B380F901819284
:105140009192A192B1929F01559601966A177B07A1
:1051500089F680912D5890912E58A0912F58B0919A
:10516000305880931F5790932057A0932157B093A6
:1051700022578091175E882309F46DC082E3E1EF26
:10518000F6E5DE01119601900D928A95E1F7F12C7A
:10519000F0925B5E8DE30E948106682F64608DE370
:1051A0000E9474060E945C074B015C0180916E575F
:1051B000803109F04BC280912857811147C284E2A7
:1051C0000E94810690E09195819591098C349F4FC2
:1051D0000CF03CC284E00E94680784E00E946807EB
:1051E0000E945C074B015C0187E20E94810687FDFB
:1051F0003CC20E945C07681979098A099B096436D8
:1052000071058105910580F384E00E9468070E9482
:105210005C074B015C010E945C07681979098A09E7
:105220009B096E3171058105910508F057C20E94F6
:105230004D0C882381F380912B5790912C57059723
:1052400051F780912757882331F362E370E080E0C3
:1052500090E00E9438078090F1569090F256A0900E
:10526000F356B090F4568091595E882309F43CC2FD
:1052700086E09CE00E94AB084AE0C501B4010E94B0
:10528000770A01E010E082E09CE00E94AB08C801D0
:105290000E942B0B8CE091E40E94710AD2016D9167
:1052A0007D912D01072E000C880B990B63D52AE008
:1052B00037ED43E25CE3BDD542E00E94600B0F5F37
:1052C0001F4F04301105F9F601E010E08EEF9BE06E
:1052D0000E94AB08C8010E942B0B8CE091E40E9455
:1052E000710AF601819191916F010E942B0B0F5F62
:1052F0001F4F0730110551F701E010E08AEF9BE0E6
:105300000E94AB08C8010E942B0B8CE091E40E9424
:10531000710AD3016D917D918D919D913D010E9406
:10532000040B0F5F1F4F0730110541F78091555E49
:10533000882379F080EF9BE00E94AB0860911F57B3
:105340007091205780912157909122574AE00E94F6
:10535000770A8EEE9BE00E94670A6CE370E080E0C3
:1053600090E00E94380781E00E94540D62E370E0F3
:1053700080E090E00E94380780E00E94540D209069
:105380001F573090205740902157509022572FAAF6
:1053900038AE49AE5AAE40901B5750901C576090A3
:1053A0001D5770901E578091175790911857A091D4
:1053B0001957B0911A574091135750911457609153
:1053C00015577091165700910F5710911057209153
:1053D000115730911257C0900B57D0900C57E09056
:1053E0000D57F0900E578090075790900857A09057
:1053F0000957B0900A57E091EC5DF091ED5D140112
:105400002E1A3F0AF10137FE03C0F195E195F1092B
:10541000E83CF1050CF064C0E091F05DF091F15DC5
:1054200016012E1A3F0AF10137FE03C0F195E195EE
:10543000F109E83CF1050CF053C0E091F45DF09106
:10544000F55D18012E1A3F0AF10137FE03C0F195F0
:10545000E195F109E83CF1050CF042C0E091F85DFE
:10546000F091F95D1A012E1A3F0AF10137FE03C0CF
:10547000F195E195F109E83CF10594F5E091FC5DC9
:10548000F091FD5D1C012E1A3F0AF10137FE03C0A9
:10549000F195E195F109E83CF10514F5E091005E24
:1054A000F091015E12012E1A3F0AF10137FE03C08E
:1054B000F195E195F109E83CF10594F4E091045E81
:1054C000F091055E2FA838AC2E1A3F0AF10137FE85
:1054D00003C0F195E195F109E83CF1050CF4ADC08C
:1054E0008092EC5D9092ED5DA092EE5DB092EF5DEA
:1054F000C092F05DD092F15DE092F25DF092F35DCA
:105500000093F45D1093F55D2093F65D3093F75DA5
:105510004093F85D5093F95D6093FA5D7093FB5D85
:105520008093FC5D9093FD5DA093FE5DB093FF5D65
:105530004092005E5092015E6092025E7092035E45
:105540008FA898ACA9ACBAAC8092045E9092055E2C
:10555000A092065EB092075E00910C5E10910D5E07
:105560000115110549F1C801957189839A83CE010E
:1055700001960E947A0990E080930E5E90930F5EF0
:1055800009831A836FEFCE0101960E94E109809191
:105590000C5E90910D5E20910A5E30910B5E820F41
:1055A000931F80930C5E90930D5E2091125E30915C
:1055B000135E8217930744F08091105E9091115E04
:1055C00080930C5E90930D5E80910E5E90910F5EC5
:1055D000880F991F992781608F3F910509F46EC14B
:1055E00080930E5E90930F5E60910E5E80910C5ED4
:1055F00090910D5E89839A83CE0101960E94E10904
:1056000000910C5E10910D5E88E0E82E8EE5F82E7C
:105610009CEEC92E9DE5D92E0B5E1D45C8018C0D53
:105620009D1D89839A83D6016D916D01CE010196EE
:105630000E94E109EC14FD0489F7A89564E170E08B
:1056400080E090E00E9438070C94E81B0E945C0701
:10565000681979098A099B09683E7340810591059B
:1056600008F0BBCD0E944D0CA1CD0E94660680E8DB
:105670000E944F0685E30E944F0685E00E944F0678
:1056800080915A5E0E944F0680E40E944F068E0170
:105690000F5F1F4FD8018D918D010E944F062DA8DD
:1056A0003EA802151305B1F70E9441068CE00E9446
:1056B00068070E945C074B015C0188E20E9481063A
:1056C00083FDA2CD0E945C07681979098A099B09AC
:1056D000643671058105910580F396CDF39473E0EE
:1056E000372EF31055CDB1CD89EE9BE00E94AB086B
:1056F0004AE0C501B4010E94770A01E010E086EE9D
:105700009BE00E94AB08C8010E942B0B8DE091E446
:105710000E94710AF201619171912F01072E000C14
:10572000880B990B27D32AE037ED43E25CE381D362
:1057300042E00E94600B0F5F1F4F04301105F9F625
:1057400001E010E083EE9BE00E94AB08C8010E94DC
:105750002B0B8DE091E40E94710AD6018D919D91F1
:105760006D010E942B0B0F5F1F4F0730110551F782
:1057700001E010E080EE9BE00E94AB08C8010E94AF
:105780002B0B8DE091E40E94710AF30161917191FC
:10579000819191913F010E94040B0F5F1F4F0730D1
:1057A000110541F78091555E882379F088ED9BE0E3
:1057B0000E94AB0860911F5770912057809121572C
:1057C000909122574AE00E94770A8091585E811199
:1057D00007C00E94640A68E270E080E090E0C1CDFA
:1057E0005EEAE52E5CE5F52E10E000E065E1B62E00
:1057F00085ED9BE00E94AB0868010F5F1F4FC80159
:105800000E942B0B8DE091E40E94710AD7015496FF
:105810008C91882309F44AC0BC9CF001BD9CF00D1A
:105820001124E255F34A608971898289938943E0A2
:105830000E94600BB5E1EB0EF11C06301105C1F6BC
:105840003EEAE32E3CE5F32E01E010E04FE5D42ED6
:1058500081ED9BE00E94AB08C8010E942B0B8DE0FC
:1058600091E40E94710AF7018489882319F1F801F3
:10587000EC51F94AE081DE9EF0011124EC56F74A22
:10588000608171818281938144E00E94600B0F5F8F
:105890001F4FF5E1EF0EF11C07301105C9F60E940C
:1058A000640A60E570E080E090E05BCD60E070E06D
:1058B000CB01BDCF60E070E0CB01E6CF8EEF90E092
:1058C0008FCE6D2D81E00E94790D7C010C94CF1D4F
:1058D000602F81E00E94790D7C016D2D8C2D0E943E
:1058E000A50D2D966CAF7DAF8EAF9FAF2D970C940D
:1058F000CF1D8F929F92AF92BF92CF92DF92EF9285
:10590000FF92CF93DF93EC01688179818A819B813B
:10591000611571058105910521F464E279ED8BE54E
:1059200097E02DE133EF41E050E03AD349015A01CD
:105930009B01AC01A7EAB1E44FD36B017C01ACEE53
:10594000B4EFA501940154D3C60ED71EE81EF91E6C
:10595000F7FE06C081E0C81AD108E10880E8F80A1D
:10596000C882D982EA82FB82C701B6019F77DF91A4
:10597000CF91FF90EF90DF90CF90BF90AF909F902E
:105980008F9008958F929F92AF92BF92CF92DF92A5
:10599000EF92FF9260914D4070914E4080914F4048
:1059A00090915040611571058105910521F464E2E3
:1059B00079ED8BE597E02DE133EF41E050E0F0D257
:1059C00049015A019B01AC01A7EAB1E405D36B017F
:1059D0007C01ACEEB4EFA50194010AD3C60ED71E2C
:1059E000E81EF91EF7FE06C081E0C81AD108E108DA
:1059F00080E8F80AC0924D40D0924E40E0924F406D
:105A0000F0925040C701B6019F77FF90EF90DF9072
:105A1000CF90BF90AF909F908F90089560934D402E
:105A200070934E4080934F40909350400895662766
:105A3000772725C0FC0188279927E89421912032F7
:105A4000E9F3293010F02E30C8F32B3239F02D3223
:105A500031F4689403C00BD0820F911D2191205323
:105A60002A30C8F31EF4909581959F4F08957AE0EF
:105A7000979F902D879F802D910D112408958F92CF
:105A80009F92AF92BF92CF92DF92EF92FF920F93CD
:105A90001F93CF93DF935C017B016115710519F0B2
:105AA000DB018D939C9385010F5F1F4FF501D08122
:105AB0008D2F90E039D16C01892BA9F5DD32A9F544
:105AC0000F5F1F4FD5011196DC91C1E05801F1E045
:105AD000AF1AB10843E050E06CEF72E0C5012CD181
:105AE000892B61F5680182E0C80ED11C45E050E0C9
:105AF00067EF72E0C60120D1892B21F4680197E09D
:105B0000C90ED11CE114F10419F0D701CD92DC9239
:105B100060E070E080E89FEFC111F9C060E070E0E4
:105B200080E89FE7F4C05801BECFDB3229F485013D
:105B30000E5F1F4FF501D181C0E0C8CF43E050E0B8
:105B400064EF72E0C501F8D0892BE9F0F80110E0AC
:105B500000E020E030E0A9015F01B0ED8B2E8D0E5A
:105B600089E08815C0F19C2E689491F88C2F88707C
:105B7000C2FF16C0811102C00F5F1F4F3196D501C1
:105B8000DC91C92DE9CFE114F10429F00E5F1F4F1C
:105B9000F7010083118360E070E080EC9FE7B7C0FD
:105BA000882311F001501109A5E0B0E015D29B0146
:105BB000AC01220F331F441F551F280D311D411DFD
:105BC000511D283999E93907490799E15907B0F278
:105BD000C6609C2ED3CFAEEF8A1206C0C3FD3CC078
:105BE0009C2E689493F8CACFDF7DD534A9F58081C7
:105BF0008D3239F4C061DF011296818162E070E07C
:105C000006C0DF018B32C1F3119661E070E0805372
:105C10005D01A61AB70A8A30F8F4E0E8CE16ECE087
:105C2000DE065CF4B601660F771F660F771FC60E9F
:105C3000D71ECC0CDD1CC80ED11C5D01FFEFAF1AC6
:105C4000BF0A8C9180538A3098F1C4FF03C0D1946D
:105C5000C194D1080C0D1D1DC1FF09C0E114F10450
:105C600031F081E0A81AB108D701AD92BC92CA0107
:105C7000B9017ED0C370C33009F490584B015C0168
:105C800020E030E0A90170D0882309F43EC0CBE2C7
:105C9000D3E017FF05C0119501951109C3E1D3E0C9
:105CA0006E01B8E1CB1AD10880E2E82EF12C0EC0CB
:105CB000D501B3CFFE0125913591459154910E192F
:105CC0001F09C501B401B5D04B015C01D501C40168
:105CD0000E151F057CF72497F594E794CC16DD0686
