:100200000DC5000035C5000033C500000C94FC117D
:100210002FC500002DC500002BC5000029C500001A
:100220000C943E1225C5000023C5000021C5000026
:100230001FC500001DC500001BC5000019C500003A
:1002400017C5000015C5000013C5000011C500004A
:100250000FC500000DC500000BC5000009C500005A
:1002600007C5000005C500000C945A1201C5000026
:10027000FFC40000FDC40000FBC400000C94041285
:10028000F7C40000F5C40000F3C400000C942C1265
:10029000EFC40000EDC40000EBC40000E9C400009E
:1002A000E7C40000E5C40000E3C40000E1C40000AE
:1002B000DFC40000DDC40000DBC40000D9C40000BE
:1002C000D7C40000D5C40000D3C40000D1C40000CE
:1002D000CFC400000C948E110C9489110C949311CE
:1002E000C7C40000C5C40000C3C40000C1C40000EE
:1002F000BFC400004E414E494E495459494E46CD67
:10030000CCCC3D0AD7233C17B7D13877CC2B3295CC
:1003100095E6241FB14F0A000020410000C84200AA
:10032000401C4620BCBE4CCA1B0E5AAEC59D747004
:100330006861736500766F6C74616765203D2000AD
:10034000656D6F6E547835006861726477617265AF
:10035000203D200076657273696F6E203D20006637
:1003600069726D77617265203D20656D6F6E5F44C7
:10037000425F364354006A736F6E203D206F66669D
:10038000006A736F6E203D206F6E00646174616C53
:100390006F67203D20002C20694C65616400694333
:1003A000616C007643616C203D20004C6F77506F8C
:1003B0007765724C616273002C207266466F726DB5
:1003C0006174203D20002C207266506F776572208A
:1003D0003D20002C2072664E6F6465203D20002079
:1003E0004D487A2C20726647726F7570203D200050
:1003F0005246203D206F6E2C20726642616E642052
:100400003D20005246203D206F6666006D73002C33
:100410002070756C7365506572696F64203D2000B3
:100420006F66660070756C7365203D20004E6F200E
:10043000454550524F4D20636F6E666967004C6FA3
:100440006164656420454550524F4D20636F6E6670
:100450006967007672656661203D20000A002028E9
:1004600068696464656E292E002062797465730082
:100470002C20446174612073697A653A200020530E
:1004800069676E61747572653A20004E6F20646111
:10049000746120626C6F636B20666F756E64202DD3
:1004A00020454550524F4D20617070656172732038
:1004B000746F20626520666F726D6174746564206C
:1004C000746F204F454D205374616E6461726420D7
:1004D00062757420756E757365642E000A00206263
:1004E000797465732C206E6F7420666F726D617401
:1004F00074656420746F204F454D205374616E64A1
:100500006172640053697A653A2000446F6E652E0B
:10051000204E657720636F6E66696720736176652C
:100520006420746F20454550524F4D0053617669E9
:100530006E672E2E2E00536B657463682077696C8E
:100540006C206E6F7720726573746172742075739E
:10055000696E672064656661756C7420636F6E6692
:1005600069672E00526573657474696E672E2E2E4E
:100570000020000A417661696C61626C6520636FDE
:100580006D6D616E64733A0A6C09092D206C697394
:1005900074207468652073657474696E67730A7279
:1005A00009092D20726573746F726520736B657411
:1005B00063682064656661756C74730A7309092D3C
:1005C00020736176652073657474696E6773207437
:1005D0006F20454550524F4D0A7609092D2073680A
:1005E0006F77206669726D776172652076657273C8
:1005F000696F6E0A7A09092D207A65726F20656E1F
:10060000657267792076616C7565730A7809092DC2
:1006100020657869742C206C6F636B20616E642098
:10062000636F6E74696E75650A3F09092D207368E2
:100630006F772074686973207465787420616761CE
:10064000696E0A0A773C783E09092D207475726E2E
:100650002052464D20576972656C65737320646142
:100660007461206F66663A2078203D2030206F72DA
:10067000206F6E3A2078203D20310A623C6E3E09A0
:10068000092D2073657420722E662E2062616E64BF
:10069000206E203D20612073696E676C65206E7549
:1006A0006D6572616C3A2034203D203433334D48FF
:1006B0007A2C2038203D203836384D487A2C203985
:1006C000203D203931354D487A20286D61792072DE
:1006D0006571756972652068617264776172652001
:1006E0006368616E6765290A703C6E6E3E09092D6C
:1006F000207365742074686520722E662E20706FDA
:100700007765722E206E6E202D20616E20696E74CA
:10071000656765722030202D20333120726570723C
:100720006573656E74696E67202D31382064426D83
:1007300020746F202B31332064426D2E2044656677
:1007400061756C743A20323520282B372064426D55
:10075000290A673C6E6E6E3E092D20736574204E2B
:100760006574776F726B2047726F757020206E6EA4
:100770006E202D20616E20696E7465676572202879
:100780004F454D2064656661756C74203D203231A3
:1007900030290A6E3C6E6E3E09092D207365742067
:1007A0006E6F6465204944206E3D20616E20696E45
:1007B000746567657220287374616E646172642069
:1007C0006E6F6465206964732061726520312E2E1E
:1007D0003630290A0A643C78782E783E092D207834
:1007E000782E78203D206120666C6F6174696E6799
:1007F00020706F696E74206E756D62657220666F11
:10080000722074686520646174616C6F6767696EDB
:100810006720706572696F640A633C6E3E09092D3A
:10082000206E203D203020666F72204F46462C20DF
:100830006E203D203120666F72204F4E2C20656E59
:1008400061626C6520766F6C746167652C206375DE
:100850007272656E74202620706F776572206661F3
:1008600063746F722076616C75657320746F20738A
:10087000657269616C206F757470757420666F7233
:100880002063616C6962726174696F6E2E200A6AFE
:100890003C6E3E09092D207475726E204A534F4EEE
:1008A0002053657269616C20666F726D6174206F90
:1008B0006E20283129206F72206F6666202830292B
:1008C0002E0A663C78783E09092D207878203D2054
:1008D000746865206C696E65206672657175656EF9
:1008E000637920696E20487A3A206E6F726D616C70
:1008F0006C7920656974686572203530206F7220CC
:1009000036300A6B3C783E203C79792E793E203C8B
:100910007A7A2E7A3E0A09092D2043616C69627247
:1009200061746520616E20616E616C6F6775652012
:10093000696E707574206368616E6E656C3A0A0941
:1009400009202078203D20612073696E676C652046
:100950006E756D6572616C3A2030203D20766F6C4B
:10096000746167652063616C6962726174696F6E3E
:100970002C2031203D206374312063616C696272E8
:100980006174696F6E2C2032203D206374322063C5
:10099000616C6962726174696F6E2C206574630AA0
:1009A0000909202079792E79203D206120666C6F1D
:1009B0006174696E6720706F696E74206E756D6208
:1009C000657220666F722074686520766F6C746142
:1009D00067652F63757272656E742063616C6962FE
:1009E000726174696F6E20636F6E7374616E740AE6
:1009F000090920207A7A2E7A203D206120666C6FCA
:100A00006174696E6720706F696E74206E756D62B7
:100A1000657220666F722074686520706861736506
:100A20002063616C6962726174696F6E20666F72B7
:100A3000207468697320632E742E20287A206973CD
:100A4000206E6F74206E65656465642C206F722063
:100A500069676E6F72656420696620737570706C6B
:100A60006965642C207768656E2078203D203029E8
:100A70000A09092020652E672E206B30203235367A
:100A80002E380A0909202020202020206B3120390F
:100A9000302E3920322E30300A6D3C783E203C79A1
:100AA000793E092D206D657465722070756C7365D3
:100AB00020636F756E74696E673A0A0909202020F9
:100AC00078203D203020666F72204F46462C2078DB
:100AD000203D203120666F72204F4E2C203C7979CA
:100AE0003E203D20616E20696E74656765722066E8
:100AF0006F72207468652070756C7365206D696E07
:100B0000696D756D20706572696F6420696E206D06
:100B1000732E202879206973206E6F74206E6565AE
:100B20006465642C206F722069676E6F7265642043
:100B30007768656E2078203D2030290A00456E6573
:100B40007267792076616C756573207365742074A3
:100B50006F207A65726F00436F6E74696E75696E8F
:100B6000672E2E2E007266506F776572203D200032
:100B700072664E6F6465203D20002C20694C6561D3
:100B800064006943616C007643616C203D20007213
:100B90006647726F7570203D200066726571203D5A
:100BA0002000646174616C6F67203D20006A736F80
:100BB0006E203D206F6666006A736F6E203D206F69
:100BC0006E00204D487A00726642616E64203D20BE
:100BD000002C7066002C49002C70756C73653A000F
:100BE0002C45002C50002C56004D53473A007D00F8
:100BF0002C2270756C7365223A002C2245002C2241
:100C000050002C2256007B224D5347223A000A0006
:100C100000080A400CFFC000C000AC1611241FBE23
:100C2000CFEFCDBFDFE7DEBF11E4A0E0B0E4EEE53B
:100C3000F4E600E00BBF02C007900D92A831B107A7
:100C4000D9F72EE5A8E1B1E401C01D92AB36B20799
:100C5000E1F716E0CEE0D6E004C02197FE010E9445
:100C60000132CD30D107C9F70E94EE170C942D3216
:100C7000C7CA8091645E8D3011F42D9A0895873033
:100C800011F40F9A0895813109F44B9A08950000E8
:100C90009091685E911109C0809344098091430945
:100CA00087FFFCCF80914409089580936409809167
:100CB000630987FFFCCF8091640908958091645E89
:100CC0008D3011F42D980895873011F40F98089500
:100CD000813109F44B980895CF93DF93D82FC62F15
:100CE000EDDF8D2F8068D3DF8C2FD1DFDF91CF91A7
:100CF000C0CFCF93C82FE2DF8C2FC9DF80E0C7DFE2
:100D0000C82FB7DF8C2FCF910895CF939091725752
:100D1000981791F0C82F81E0ECDF837E682F6C2B51
:100D200081E0DADF80917257811104C087E2E1DF50
:100D300087FFF8CFC0937257CF9108950F931F93F9
:100D4000CF93DF93EC0184E0E0DF2097D9F0888136
:100D50008823C1F0B3DF8EEB9ADF8E01005F1F4F57
:100D6000899195DFC017D107D9F783DFC1E08DE303
:100D7000C0DF8E7F682F6C2B8DE3DF91CF911F91A9
:100D80000F91AACFC0E0F3CF1092315710922F5796
:100D90001092305710922D5710922E5710922C57B8
:100DA00010922B5788E2A5DF82FF06C08DE3A1DFFA
:100DB000682F64608DE390DF80E1A7CFAF92BF9290
:100DC000CF92DF92EF92FF920F931F93CF93DF9317
:100DD0006C017B018B01040F151FEB015E01AE1846
:100DE000BF08C017D10759F06991D601ED91FC9168
:100DF0000190F081E02DC6010995892B79F7C50195
:100E0000DF91CF911F910F91FF90EF90DF90CF90E6
:100E1000BF90AF900895FC0155894689252F30E099
:100E2000842F90E0821B930B541710F0CF960895F7
:100E300001970895FC0193898489981761F0A4892A
:100E4000AE0FBF2FB11D57968C9194899F5F9F73F2
:100E5000948B90E008958FEF9FEF0895FC019389A4
:100E60008489981731F08489E80FF11D878990E013
:100E700008958FEF9FEF0895FC0193892489892FAE
:100E800090E0805C9F4F821B91098F739927089592
:100E9000CF93DF93EC01E881F9810680F781E02DA3
:100EA0000995EC85FD85868116828581158280E411
:100EB00084838C898B8B1A8ADF91CF9108958F92CE
:100EC0009F92AF92BF92FF920F931F93CF93DF93A6
:100ED0008C014A015B01D22FC32FDC0152968C9109
:100EE000529780FF07C0ED91FC910288F389E02DB5
:100EF000C8010995D11101C0D3E0FD2EE894F2F8A4
:100F0000DC2FD095D07CB1E68B16B3EE9B06B6E114
:100F1000AB06B10428F0D260B694A7949794879456
:100F200060E078ED88EB95E0A50194010E94DC2F4C
:100F3000C9012034310510F480E490E03C2F3B726D
:100F4000D7FD30684D2F487C30FD41605FB7F89485
:100F5000D8011C96ED91FC911682F78280879187CB
:100F600035FF8FC04F7781E084878FEF85873F7D86
:100F70003583D683F8012189C08986859785FC0150
:100F800033E0239FE00DF11D1124659174912C171E
:100F900008F059C0272F46FF76C0793288F430E038
:100FA000F901EF5AFF4BA081AF3F51F026583F4B5C
:100FB000F901308120E2329FF0011124FC5FA1830E
:100FC00047FF2AC021E0270F293230F530E0F90130
:100FD000EF5AFF4BD081DF3FF9F0F901E658FF4BA4
:100FE000A081F0E2AF9FD0011124BC5F2D553F4B93
:100FF000F9011081F0E0E0E0183030F49D01205F4D
:101000003F4FF901E10FF11D3FB7F8941296DC93C1
:101010002081286020833FBF40FF15C023E0270FB9
:10102000293288F430E0F901EF5AFF4B40814F3FFD
:1010300051F026583F4BD901EC91B0E2EB9FF00103
:101040001124FC5F4183FC0123E0C29FE00DF11DF0
:101050001124319625913491F901FF27EE51FA4F71
:101060009081832F80958923682B60835FBFDF91F8
:10107000CF911F910F91FF90BF90AF909F908F9055
:101080000895148674CF342F307509F499CF7932CE
:1010900008F096CF30E0F901EF5AFF4BD081DF3FE7
:1010A00009F48ECFF901E658FF4BA081E0E2AE9F34
:1010B000D0011124BC5F2D553F4BF9011081F0E0A8
:1010C000E0E0183030F49D01205F3F4FF901E10F5F
:1010D000F11D3FB7F8941296DC932081286020839D
:1010E0003FBF6ECFFC010FB607FE04C08091110117
:1010F0008823A9F0A485B58514968C91149785FF53
:101100000EC095898689981739F015968C91159798
:101110008F7D15968C930895E8940C949E110895F4
:101120000F931F93CF93DF93EC018A89982F9160DF
:101130009A8B2D899E8929130AC0EC85FD8594819F
:1011400095FF05C081FD0DC080E4848312C0062F89
:101150001D891F5F1F738E89811315C0CE01C2DFE9
:10116000FACF85818F77806490E49483EC85FD8548
:101170008583EC85FD85628381E090E0DF91CF91EE
:101180001F910F910895ED89EC0FFD2FF11DE95A84
:10119000FF4F00831D8BEC85FD858A8981FF09C087
:1011A00085818F77806690E49483EC85FD858583C7
:1011B000E3CF85818062FBCF0F931F93CF93DF93A3
:1011C0008C01D0E0C0E0F801EC0FFD1F64916623B4
:1011D00039F083E797E5A4DF892B11F02196F3CF4F
:1011E000CE01DF91CF911F910F910895682F83E772
:1011F00097E596CFCF93DF93EC018A8980FF0BC0F0
:10120000EC85FD85858185FD03C0848186FD03C055
:10121000CE0168DFF5CFDF91CF91089581E0089589
:101220000F98079A20E533EC93E0179A44E1F9010F
:101230003197F1F74150D9F7482F179AF9013197B3
:10124000F1F7179A59E0F9013197F1F75150D9F7B1
:10125000415099F7915049F7E7CF9FB7F894E09143
:101260002A0BF0912B0B8091260B2091DA563091AE
:10127000DB564091DC565091DD569FBF80FF08C081
:10128000EC3E8CE2F80720F42F5F3F4F4F4F5F4F4B
:101290000F011694079416940794169407941694C5
:1012A0000794F00116940794E00DF11D169407942D
:1012B000102C169401181694010C1694011816940B
:1012C000010C1694011816941694010C1124E019BF
:1012D000F109A8EEB3E00E94CC2F6E0F7F1F811D95
:1012E000911D08958F929F92AF92BF92CF92DF92FD
:1012F000EF92FF926B017C01B0DF4B015C01C114E6
:10130000D104E104F104B1F0A8DF681979098A0970
:101310009B09683E73408105910588F321E0C21A5C
:10132000D108E108F10888EE880E83E0981EA11C20
:10133000B11CE5CFFF90EF90DF90CF90BF90AF90C2
:101340009F908F9008952FB7F8946091DA5670911E
:10135000DB568091DC569091DD562FBF08958F9219
:101360009F92AF92BF92CF92DF92EF92FF920F9334
:10137000CF936B017C0120E030E040E05FE30E940E
:10138000942E87FF05C0C12CD12CE12C8FE3F82EC1
:10139000C0920540D0920640E0920740F09208408B
:1013A0008090EB569090EC56C091ED5620E836E9CF
:1013B00048E15BE4C701B6010E94F92E6B017C0194
:1013C000B12CA12CC501B4010E94982E9B01AC0147
:1013D000C701B6010E9472300E94DF306B017C01B0
:1013E00060E876E988E990E0A50194010E94DC2F8D
:1013F000CA01B90100914A40202F30E050E040E09E
:101400000E94DC2F44275527C701B601621B730BCE
:10141000840B950B2C2F30E050E040E00E94DC2F35
:101420002093DE563093DF564093E0565093E156BA
:10143000CF910F91FF90EF90DF90CF90BF90AF9042
:101440009F908F900895DC01ED91FC91F170FC5E0E
:1014500080810895CF92DF92EF92FF920F931F93B6
:10146000CF93DF9300D0CDB7DEB76C017C0103E0F2
:1014700010E009831A83CE010196E5DFF70181931D
:101480007F010F5F1F4F0730110599F7C6010F90BD
:101490000F90DF91CF911F910F91FF90EF90DF9010
:1014A000CF9008950F931F93CF93DF9300D000D078
:1014B000CDB7DEB78C0119821A82CE010196C3DF47
:1014C0008F34F9F481E090E089839A83CE0101960C
:1014D000BADF8534B1F482E090E089839A83CE014B
:1014E0000196B1DF8D3469F481E00115110551F0E9
:1014F000CE010196AFDF81E02B813C8120173107BF
:1015000009F080E02496CDBFDEBFDF91CF911F911F
:101510000F9108951F93CF93DF93EC01162F93DF64
:101520008117B1F09FB780910210282F227081FDA2
:10153000FACFF8948DE984BF2093001023E184BF93
:1015400020930010E881F981F170FC5E10839FBF49
:10155000CE01DF91CF911F910895CF92DF92EF924C
:10156000FF920F931F93CF93DF9300D0CDB7DEB7D9
:101570006C017C0103E010E009831A83F70161919B
:101580007F01CE010196C6DF0F5F1F4F07301105A7
:1015900099F7C6010F900F90DF91CF911F910F9196
:1015A000FF90EF90DF90CF9008950F931F93CF930C
:1015B000DF9300D0CDB7DEB70091185E1091195EB1
:1015C00080911A5E90911B5E081719079CF4C80160
:1015D000957189839A836FEFCE0101969BDF1092FC
:1015E000145E1092155E8091125E9091135E080F4A
:1015F000191FE6CF0F900F90DF91CF911F910F91A0
:101600000895DC01ED91FC910088F189E02D23E043
:1016100030E00994FC0101900020E9F73197AF0117
:10162000481B590BBC0183E797E5C8CB86EE90E4D5
:10163000F1CFCF93DF93C0DDEC01F8DF8C0F9D1F5E
:10164000DF91CF910895009709F0E4CF90E080E01A
:1016500008958F929F92AF92BF920F931F93CF9353
:10166000DF93CDB7DEB7A197CDBFDEBF19A2423061
:1016700008F44AE08E010F5D1F4F842E912CB12C8F
:10168000A12CA50194010E94DC2FE62FB901CA010B
:10169000EA30D4F4E05DD801EE938D01232B242BA6
:1016A000252B79F790E080E0109711F0CD01B2DFA3
:1016B000A196CDBFDEBFDF91CF911F910F91BF905B
:1016C000AF909F908F900895E95CE5CFAF92BF9265
:1016D000CF92DF92EF92FF920F931F93CF93DF93FE
:1016E00000D0CDB7DEB76C015B0110E000E00A1559
:1016F0001B057CF57801EC0CFD1C85E1F822E982E4
:10170000FA82CE0101969FDE803110F480E36EDD17
:101710000F5F1F4FE982FA82CE01019694DE682F97
:1017200070E090E080E040E194DF81E091E48BDFC5
:10173000C80187709927892B19F481E091E483DF30
:10174000C8018F709927892B91F68EE09CE034DDDB
:10175000CECF0F900F90DF91CF911F910F91FF90FF
:10176000EF90DF90CF90BF90AF900895CF92DF922F
:10177000EF92FF92CF93DF9397FF17C06B017C012D
:101780008DE234DDEC0166277727CB016C197D09EA
:101790008E099F094AE05DDF8C0F9D1FDF91CF917D
:1017A000FF90EF90DF90CF9008954AE0DF91CF91C6
:1017B000FF90EF90DF90CF904CCFBC01990F880B3A
:1017C000990BD4CF84E294E0F7DC80915D5E8823AE
:1017D00071F083E090E0F1DF8FE094E0EDDC809148
:1017E0005E5E90915F5EE9DF8CE094E022CF80E264
:1017F00094E0FCCF8FE593E01CDF84E593E0DCDC34
:1018000089EE90E407DF88E493E0D6DC80E493E09F
:1018100010DF85E393E0D0DC81E090E0CEDF8FE263
:1018200093E007CF4F925F926F927F928F929F9239
:10183000AF92BF92CF92DF92EF92FF920F931F93DE
:10184000CF936B017C01742EAC019B010E94F63199
:10185000882391F081EF90E4CF911F910F91FF9039
:10186000EF90DF90CF90BF90AF909F908F907F9040
:101870006F905F904F90CECE46015701E894B7F835
:101880002FEF3FEF4FE75FE7C501B4010E94F6314C
:1018900081110DC02FEF3FEF4FE75FE7C501B401A6
:1018A0000E94942E18161CF485EF90E4D5CF2FEFEC
:1018B0003FEF4FE75FE4C701B6010E94B031181651
:1018C0001CF489EF90E4C8CF2FEF3FEF4FE75FECB8
:1018D000C701B6010E94942E87FDF3CF20E030E0CF
:1018E000A901C701B6010E94942E10E000E087FF15
:1018F00007C08DE27BDC8C01F7FAF094F7F8F094E6
:10190000C0E060E070E080E09FE37C1641F020E002
:1019100030E040E251E40E947230CF5FF6CFA70181
:1019200096010E940E302B013C010E94DF304B01DA
:101930005C014AE08EDE7C01E00EF11ECC23A9F1B1
:10194000C501B4010E94982E9B01AC01C301B201F4
:101950000E940D304B015C018DEF90E45BDEE80EE0
:10196000F91EC15010F120E030E040E251E4C50121
:10197000B4010E94F92E2B013C010E94DF304B0183
:10198000B12CA12C4AE0C501B40163DEE80EF91EBA
:10199000C501B4010E94982E9B01AC01C301B201A4
:1019A0000E940D304B015C01DCCFC701CF911F912C
:1019B0000F91FF90EF90DF90CF90BF90AF909F90EE
:1019C0008F907F906F905F904F900895CF93DF93AB
:1019D00029DFEC012BDE8C0F9D1FDF91CF91089545
:1019E000CF93DF93682F70E090E080E04AE031DE33
:1019F000EC011CDE8C0F9D1FDF91CF9108950F939A
:101A00001F93CF93DF9380917257803109F062C0AA
:101A100088E26FD982FF3BC084E077D94FD980E05C
:101A200036D980E034D9D82FC82F833408F0C2E4E7
:101A3000C0932C5780E02BD9082F80E028D9182F8D
:101A400080E025D9282F30E0A90196E0440F551FEA
:101A50009A95E1F744275370402B40932D575093AC
:101A60002E57322F222722273370212B20932F57D6
:101A7000309330579091625E9417150611F0452B04
:101A800011F4D330A0F410922C57F3D87DD9809163
:101A900072578031F9F480912C578823E1F084E06B
:101AA00034D981E0DF91CF911F910F910895C350F8
:101AB000C0933157807880932B57D0E0DC1720F407
:101AC00080E0E5D8DF5FFACFD4D880E11ED984E288
:101AD00010D9DDCF59D980E0E5CF80911F5E8823F2
:101AE00009F439C080EF93E067DB80911C5E8B3294
:101AF00049F1863551F18B3559F190E080E05DDE9A
:101B00008FED93E059DB60911D5E70E090E080E026
:101B10004AE09FDD83ED93E04FDB80911E5E8F7383
:101B200090E04BDE86EC93E047DB6091205E70E056
:101B300090E080E04AE08DDD88EB93E03DDB8BEACE
:101B400093E077CD81EB91E0DACF84E693E0D7CFD5
:101B500083E993E0D4CF83E094E0F3CF0F931F9316
:101B6000CF93DF9383EA93E027DB6091215E70914E
:101B7000225E8091235E9091245E42E050E026DF59
:101B800009E21EE5C1E0D0E08EE993E015DBCE016D
:101B900014DE8FEF90E457DDF8016191719181912E
:101BA00091918F0142E03EDE86E993E005DBCE01B4
:101BB00004DE8FEF90E447DDF8016489758986893A
:101BC000978942E050E002DF2196C730D105E1F667
:101BD000F9DD83DF8BE893E0EFDA6091595E709175
:101BE0005A5E80915B5E90915C5E42E050E0EEDE7A
:101BF0008091615E811107C086E793E0DF91CF910C
:101C00001F910F9116CD81E893E0F8CF94E08111F8
:101C10001BC0909346049091400492FD0AC09FB768
:101C2000F894811114C080915204877F80935204EC
:101C30009FBF8091E6058770823029F48091010A68
:101C40008B7F8093010A089590934504E4CF80919F
:101C500052048860EBCF0F931F93CF93DF93CDB7E0
:101C6000DEB72C97CDBFDEBF681BF1F0062F10E06A
:101C7000682F70E06E5C784AA801CE0101960E9440
:101C80001E32E1E0F0E0EC0FFD1FE00FF11F1082CB
:101C9000CE0101960E94FA2C2C96CDBFDEBFDF91BB
:101CA000CF911F910F91089590E080E0F5CF0F93B1
:101CB0001F93CF93DF93CDB7DEB72C97CDBFDEBF99
:101CC000681BF1F0062F10E0682F70E06E5C784A18
:101CD000A801CE0101960E941E32E1E0F0E0EC0F77
:101CE000FD1FE00FF11F1082CE0101960E94F72C1C
:101CF0002C96CDBFDEBFDF91CF911F910F9108953C
:101D000060E070E0CB01F4CF2F923F924F925F9250
:101D10006F927F928F929F92AF92BF92CF92DF92FB
:101D2000EF92FF920F931F93CF93DF93CDB7DEB760
:101D30002A97CDBFDEBF89879A87162F7A01222E78
:101D4000312CB101032C000C880B990B0E949A2EA8
:101D50004B015C01612F70E090E080E00E949A2EC0
:101D600020E030E044EB53E40E94F92E2B013C01CB
:101D7000B70190E080E00E94982E9B01AC01C30166
:101D8000B2010E94F92EA50194010E94F92E20E8CB
:101D900036E948E15BE40E9472302B013C01E985A1
:101DA000FA8505818081081B110B218132814381D5
:101DB000548166817781808591850E940D30A301D1
:101DC00092010E9472306B017C01B801012E000C5F
:101DD000880B990B0E949A2EA50194010E947230E3
:101DE0009B01AC01C701B6010E940E306D837E835A
:101DF0008F8398870E944D3169837A838B839C837C
:101E000020E030E040E85FE30E940E306B017C018F
:101E100020E030E0A90169817A818B819C810E9458
:101E2000B03187FDA2C0A7019601C501B4010E948F
:101E3000F92E0E94DA30E985FA8562877387168663
:101E40001786E985FA8526853785020F131F0687D1
:101E50001787020D131D0487158720E030E044EB3F
:101E600053E4C301B2010E9472302BED3FE049EC14
:101E700050E40E94F92E6B017C0129813A814B814B
:101E80005C816D817E818F8198850E940D30A301D8
:101E900092010E94F92E20E030E044EB53E40E94CE
:101EA00072302BED3FE049EC50E40E94F92E4B01DB
:101EB0005C01A70196010E9472302B013C01E9856B
:101EC000FA85448A558A668A778AA5019401C501F4
:101ED000B4010E94F92E20E030E040E05FE30E9470
:101EE000F92E9B01AC0160E070E080E89FE30E9466
:101EF0000D304B015C01A7019601C701B6010E949C
:101F0000F92E20E030E040E05FE30E94F92E9B01D3
:101F1000AC0160E070E080E89FE30E940D30A30117
:101F200092010E94F92E9B01AC01C501B4010E94EF
:101F30000D30E985FA85608B718B828B938B2A96A5
:101F4000CDBFDEBFDF91CF911F910F91FF90EF903A
:101F5000DF90CF90BF90AF909F908F907F906F90C9
:101F60005F904F903F902F900895E985FA851286F3
:101F70001386C701B6019058A50194010E94F92E5D
:101F80000E94DA30E985FA85668777875ACFCF9243
:101F9000DF92FF920F931F93CF93DF930FE5089F7C
:101FA000F0011124EF01CE5BD74AAA81BB811F96B5
:101FB0002C911F972A8B16964D915D916D917C9176
:101FC00019974B8B5C8B6D8B7E8BA881B9811F968B
:101FD0002C911F972F8B16964D915D916D917C9151
:101FE0001997488F598F6A8F7B8F2091ED56C0903B
:101FF000EB56D090EC56F0904A408F01A6016F2D21
:10200000CF018C5A974A80DEEC81FD818A819B81C9
:102010008E179F0729F187858AA786819781A085DA
:10202000B1858BA79CA7ADA7BEA7E881F98187855D
:102030008FA786819781A085B18588AB99ABAAAB24
:10204000BBAB2091ED56A6016F2DC8018459974A6C
:10205000DF91CF911F910F91FF90DF90CF9054CEE1
:10206000DF91CF911F910F91FF90DF90CF90089556
:10207000CF92DF92EF92FF920F931F93CF93DF9354
:10208000CDB7DEB7AD97CDBFDEBF87E08093645E8E
:1020900084E08093655E85E08093665E86E0809351
:1020A000675E1092685E10911D5E80911E5E809347
:1020B000625E1092635E80E88093010480E1809309
:1020C00001049FB7F89480E2809302048091150484
:1020D000877F809315049FBF8091675E893288F463
:1020E00090E0FC01EF5AFF4B20812F3F51F08658C2
:1020F0009F4BDC01EC91B0E2EB9FF0011124FC5FFF
:1021000021830E9439068091685E8111AFC0809161
:10211000E4058C7F8093E40580914109846080937D
:102120004109809140098162809340090CD96B017B
:102130007C016AEA8FE20E946C068FE20E947906B7
:102140008A3A51F000D96C197D098E099F096233D2
:1021500071058105910568F3F6D86C197D098E0922
:102160009F09623371058105910508F0ADC0EBD878
:102170006B017C0165E58FE20E946C068FE20E9494
:102180007906853551F0DFD86C197D098E099F09D4
:10219000623371058105910568F3D5D86C197D0905
:1021A0008E099F09623371058105910508F08CC085
:1021B000FE0133968BE2DF011D928A95E9F781E0FB
:1021C000898384E08A8322E02B8393E09D832E839E
:1021D0008F8380E4888725E029879A8796E09B870C
:1021E00093E39C8797E09D8728E02F8729E0298B40
:1021F00029E12B8B32E43C8B25E22D8B8E8B26E262
:102200002F8B988F98E2998F20E12A8F99E29B8FEC
:102210009CED9C8F9EE29D8F98E89E8F9FE29F8F02
:102220009DE298A390E399A347E34BA340E94CA315
:1022300048E34DA33EA33CE33FA33FE838A73DE37B
:1022400039A72AA72FE62BA79CA79CE69E87888BF9
:102250001AA38E010F5F1F4FF80180818823B1F010
:1022600061810E946C060E5F1F4FF6CF8091E405DE
:10227000837F8093E4058091610984608093610984
:102280008091600981628093600950CF90E080E086
:102290000E949E0669E981E10E946C0684E00E942A
:1022A000850651D86B017C0187E20E94790687FD83
:1022B0000AC049D86C197D098E099F0962337105DE
:1022C0008105910588F33FD883E091E40E949E0642
:1022D00020911E5EF4E12F9F8001112460E070E0E8
:1022E000CB010115110541F00E94A22C9801110F9C
:1022F000440B550B0E94B02FAD96CDBFDEBFDF91D2
:10230000CF911F910F91FF90EF90DF90CF900C94A1
:102310007209EF93FF93E3E7F7E508C0EF93FF93AC
:10232000E3E7F7E532C0EF93E0E653C02F932FB712
:102330002F938F939F93AF93BF936894CF93DF9323
:1023400020E0C485D8E09689DF01A90FB21FA95A01
:10235000BF4F8C9120E42C838A839F5F9F738D8174
:102360002589291302C08F7D8D83968BDF91CF91B4
:1023700016F00C948F08BF91AF919F918F912F9180
:102380002FBF2F91FF91EF9118952F932FB72F9378
:102390008F939F93CF93DF93C485D8E089819881F1
:1023A00081FD0DC0C38981E08C0F8F7324892817AC
:1023B00031F0CE0FDF2F20E0D21F9F8B838BDF9178
:1023C000CF919F918F912F912FBF2F91FF91EF91DF
:1023D0001895FF938F938FB78F93F8E08081848156
:1023E00087FFFCCF85818F7B806885838F918FBF2E
:1023F0008F91FF91EF9118951F920F920FB60F9248
:10240000112484E00E9410091F920F920FB60F92C0
:1024100011248F939F93AF93BF938091DA5690913D
:10242000DB56A091DC56B091DD560196A11DB11D81
:102430008093DA569093DB56A093DC56B093DD562A
:1024400081E08093260BBF91AF919F918F910F9068
:102450000FBE0F901F9018951F920F920FB60F92FC
:1024600011248F9388E08093A90481E08093E8563B
:102470008F910F900FBE0F901F9018951F920F9283
:102480000FB60F9211248F939F938091090480932C
:10249000090486FF03C091E09093EA5687FF03C0CA
:1024A00081E08093E9569F918F910F900FBE0F901E
:1024B0001F9018951F920F920FB60F9211240BB612
:1024C0000F922F923F924F925F926F927F928F92D4
:1024D0009F92AF92BF92CF92DF92EF92FF920F93B3
:1024E0001F932F933F934F935F936F937F938F939C
:1024F0009F93AF93BF93EF93FF93CF93DF93CDB7AA
:10250000DEB72A97CDBFDEBF81E080930D068091B4
:102510001006909111068D839E838091D9568E5F0F
:102520009091ED56891718F09091ED56891B90E027
:10253000FC01EE0FFF1FE80FF91FE75EFF4B8081E4
:10254000809308068D819E8120910C5830910D5802
:1025500036952795821B930B8D839E838D819E815B
:10256000E091D756F091D856EE0FFF1FE952F14B8C
:102570008083918319821A821B821C822D813E8165
:102580000D811E8122241302B001029FA0011203BB
:102590007209500D611D721D30037209500D611DCD
:1025A000721D112449835A836B837C8389809A80AE
:1025B000AB80BC80A0910140B0910240E091D9561F
:1025C00008E0E09FF0011124EA0FFB1FE058FF4FE5
:1025D000208031804280538064807580068117811D
:1025E0009401A50160E070E080E090E0510162019B
:1025F00073010E940A3220833183428353836483B0
:102600007583868397834D815E81E091D95618E06A
:10261000E19FF0011124EA0FFB1FA084B184C28462
:10262000D384E484F58406851785952F990F990B3B
:102630009A01492F592F692F792F892F0E940A3229
:102640002087318742875387648775878687978776
:10265000E091D9568E2F90E0FC01EE0FFF1FE80F9E
:10266000F91FE75EFF4B80818111CFC08091D54E6D
:102670009091D64E9C013695279536952795AC01BD
:10268000421B530B9A018D819E81181619060CF47A
:1026900078C08D819E81919581959109820F931FBC
:1026A0008093D54E9093D64E21E040910A58509198
:1026B0000B584817590708F020E02093C75D8D811B
:1026C0009E81181619060CF05FC081E090E080939F
:1026D000D34E9093D44E2091D34E3091D44E8091CE
:1026E000CF4E9091D04E2817390709F452C08091EF
:1026F000CC4E8F5F8093CC4E8091CC4E882351F08E
:102700001092CC4E8091D34E9091D44E8093D14E66
:102710009093D24E8091D14E9091D24E019709F074
:1027200016C38091CF4E9091D04E019709F465C0A9
:102730008091CD4E9091CE4E01968093CD4E909348
:10274000CE4E20910440222339F1209103402817D6
:10275000190609F008F5109204401092CD4E10921F
:10276000CE4E14961D921D921D921C921797CD016C
:1027700088529D4FFD01E817F90771F010823196DC
:10278000FACF8D819E818ACF1092D34E1092D44E73
:10279000A2CF1092CC4EB0CF14964D915D916D9119
:1027A0007C9117974F5F5F4F6F4F7F4F14964D93FC
:1027B0005D936D937C9317970D911D912D913C9195
:1027C00013974091DE565091DF566091E05670911C
:1027D000E156041715072607370778F080914B401C
:1027E00090914C40A0934B40B0934C40809301405B
:1027F0009093024081E08093F0568091D14E909169
:10280000D24E8093CF4E9093D04E9091D9568091D6
:10281000EF56981708F445C28090D7569090D85636
:10282000E091D9568E2F90E0FC01EE0FFF1FE80FCC
:10283000F91FE75EFF4B0180F281E02D848D958DBD
:10284000881A990A53E09522E091D756F091D8560C
:10285000A091D9568A2F90E0DC01AA0FBB1FA80FC8
:10286000B91FA75EBF4B11960D90BC91A02D5E962F
:102870008D919C91E81BF90BF3702091D756309104
:10288000D856A091D9568A2F90E0DC01AA0FBB1F21
:10289000A80FB91FA75EBF4B11960D90BC91A02D3C
:1028A00090968D919C91281B390BD901B370AF8301
:1028B000B887880C991C84010952114B4801D80132
:1028C0006D917C91EE0FFF1FE952F14B40815181D8
:1028D000222457029001469F800156033209100DB1
:1028E000211D321D74033209100D211D321D1124CA
:1028F00028013901E0910140F0910240A091D956A0
:1029000018E0A19FD0011124AE0FBF1FA850BF4FE8
:10291000AC901196BC90119712962C90129713962A
:102920003C90139714960C911497098715961C9157
:1029300015971A8716960C91169717961C9117974C
:1029400073016201FF0CCC08DC2C76019201A3011B
:102950006C2D7C2D8C2D9C2D6101E984FA840E94C4
:102960000A322C9311963C93119712964C9312971E
:1029700013965C93139714966C93149715967C9307
:10298000159716968C93169717969C93D4016D9174
:102990007C91AF81B885AA0FBB1FA952B14B4D9155
:1029A0005C91222457029001469F80015603320910
:1029B000100D211D321D74033209100D211D321D11
:1029C000112448015901A091D95618E0A19FD001C6
:1029D0001124AE0FBF1FA059BE4F2C9011963C90F2
:1029E00011971296CC9012971396DC901397149629
:1029F000EC9014971596FC90159716960C911697D7
:102A000017961C91179724013501770C4408542C14
:102A100032019401A501642D742D842D942D510152
:102A20000E940A322C9311963C93119712964C9364
:102A3000129713965C93139714966C9314971596AC
:102A40007C93159716968C93169717969C93A09146
:102A5000D9568091D9562A2F30E0D901AA0FBB1F31
:102A6000A20FB31FA75EBF4B11962D913C9190E032
:102A7000DC01AA0FBB1FA80FB91FA75EBF4B1196A1
:102A80008D919C91D90112962D913C91DC01149667
:102A90008D919C912817390709F403C18090D7566E
:102AA0009090D856A091D9568A2F90E0DC01AA0FB9
:102AB000BB1FA80FB91FA75EBF4B11960D90BC910D
:102AC000A02DD4968D919C91881A990AB3E09B22EF
:102AD0002091D7563091D8568091D95690E0DC019C
:102AE000AA0FBB1FA80FB91FA75EBF4B11960D9071
:102AF000BC91A02DD6968D919C91D901A81BB90BA4
:102B0000BD0173704091D7565091D8568091D956D7
:102B1000282F30E0C901880F991F820F931F875E0D
:102B20009F4BDC0111968D919C91DC01D8968D9183
:102B30009C91481B590BDA01B370AF83B887880C9E
:102B4000991C84010952114B4801D8018D919C9127
:102B5000DB01AA0FBB1FA952B14B4D915C91BC0187
:102B6000222457029001469F800156033209100D1E
:102B7000211D321D74033209100D211D321D112437
:102B800028013901A091D95678E0A79FD0011124DE
:102B9000AE0FBF1FA851BE4FAC901196BC901197BD
:102BA00012962C90129713963C90139714960C91B2
:102BB0001497098715961C9115971A8716960C91EC
:102BC000169717961C91179779016201FF0CCC0894
:102BD000DC2C76019201A3016C2D7C2D8C2D9C2D7B
:102BE0006101E984FA840E940A322C9311963C9385
:102BF000119712964C93129713965C931397149611
:102C00006C93149715967C93159716968C9316973C
:102C100017969C93D4016D917C91AF81B885AA0FD2
:102C2000BB1FA952B14B4D915C91222457029001D8
:102C3000469F800156033209100D211D321D740379
:102C40003209100D211D321D1124280139018091F6
:102C5000D95618E0819FC0011124E80FF91FE05AEE
:102C6000FD4FB081A181C280D380E480F5800681D0
:102C7000178153014201BB0C8808982C5401920122
:102C8000A301682D782D882D982DAB2EBA2E0E9489
:102C90000A3220833183428353836483758386831E
:102CA00097838091D9568F5F8093D9568091D7565C
:102CB0009091D85601968093D7569093D85690917C
:102CC000D9568091ED56981788F01092D956E09118
:102CD0000140F091024080819181A281B3810196EF
:102CE000A11DB11D80839183A283B3838091D756A8
:102CF0009091D85693708093D7569093D8562A9631
:102D0000CDBFDEBFDF91CF91FF91EF91BF91AF912A
:102D10009F918F917F916F915F914F913F912F91F3
:102D20001F910F91FF90EF90DF90CF90BF90AF90E9
:102D30009F908F907F906F905F904F903F902F90DB
:102D40000F900BBE0F900FBE0F901F9018958091A3
:102D5000CF4E9091D04E51CDEF92FF920F931F9393
:102D6000CF93DF9300D0CDB7DEB710927557109296
:102D7000765788EE93E0A0E0B0E080937757909389
:102D80007857A0937957B0937A5780ED90E4809369
:102D900073579093745780E698E080937F57909391
:102DA000805780E19CE0809381579093825782E026
:102DB00080938357109284571092855780E090E05B
:102DC000A8ECB2E48093B35D9093B45DA093B55D3D
:102DD000B093B65D1092C65D1092C75D8093C95DD9
:102DE0009093CA5DA093CB5DB093CC5D1092DC5DF7
:102DF0001092DD5D8093DF5D9093E05DA093E15DD7
:102E0000B093E25D1092F25D1092F35DE6EBFCE5AB
:102E100081839283A383B483148A75962DE5E23B64
:102E2000F207B1F782E498E5FC01E25AFF4F108205
:102E3000815A9F4F4CE5863B9407B1F7E2E1F8E5F4
:102E400024E130E092E081E0208331839283138299
:102E50001482158216821782108611868287138645
:102E6000709648E5E234F40779F710920E58109204
:102E70000F581092105880E090E180930C58909376
:102E80000D5880E091E080930A5890930B588EEF94
:102E900090E08093165E9093175E8DE190E08093B2
:102EA000125E9093135E8DE090E08093105E90939D
:102EB000115E84E890E08093185E9093195E8DEF28
:102EC00091E080931A5E90931B5E1092145E1092B4
:102ED000155E04E810E009831A83CE0101960E9472
:102EE000230A78019DE1E90EF11C8F3F09F46EC0C1
:102EF0000093145E1093155E2DEFE21621E0F206AA
:102F00005CF4E982FA82CE0101960E94230A8F3F87
:102F100009F458C00E94D50A8AE08093645E8BE071
:102F20008093655E8CE08093665E8DE08093675E43
:102F30001092685E8BE280931C5E82ED80931D5E32
:102F40008BE180931E5E81E080931F5E99E19093F8
:102F5000205E4AE959E96AEC72E44093215E50939D
:102F6000225E6093235E7093245E40E050E068E44C
:102F700072E44093255E5093265E6093275E7093C3
:102F8000285E4DEC5CEC6CE171E44093595E50932B
:102F90005A5E60935B5E70935C5E80935D5E84E6D8
:102FA00090E080935E5E90935F5E1092605E109200
:102FB000615E0F900F90DF91CF911F910F91FF9065
:102FC000EF9008954DE1E40EF11C96CF87018DEF4F
:102FD000E81681E0F80609F07ECF9ECFCF93DF930D
:102FE000CDB7DEB7C657D109CDBFDEBF88ED21E032
:102FF00030E084BF2093620091E084BF909363002F
:103000009DE284BF9093800093E084BF9093600022
:1030100080E090E22091650020FD49C221E02093EC
:10302000030A8EEF8093260A8093270A9BE09093F1
:10303000000A32E03093E6052093430A8093660A43
:103040008093670A9093400A9093E705E0E0FBE0E5
:1030500027E09EEF85E02183948715868083709614
:10306000E0340BE0F007B9F72FEF3FE02093AA0B15
:103070003093AB0B90E89093820B1092810B2EEF64
:1030800030E02093AE0B3093AF0B98ED24E194BF6A
:103090002093680091E19093800B809302069EE05C
:1030A0009093050690E69093030680930006809126
:1030B000B000887F85608093B0008091B200887FE7
:1030C00085608093B2008FED9EE280932C0B9093ED
:1030D0002D0B81E08093250B1092210B83E08093D0
:1030E000200B789484E08093410481E00E94060ED6
:1030F00040E052EC61E070E083E797E50E94010B4D
:103100000E94FA0B09E21EE50BAB1CABF80140E094
:1031100050E060EA71E48DEC9CECACE4B0E44193E7
:10312000519361937193848B958BA68BB78B1EE51E
:10313000E134F107A1F780E090E0A8ECB2E48093DD
:10314000295E90932A5EA0932B5EB0932C5E80E064
:1031500090E0A8E4B2E480932D5E90932E5EA0935D
:103160002F5EB093305E8093315E9093325EA09379
:10317000335EB093345E80E290E00E94520A88236E
:1031800041F1CE0101960E942A0A09811A8117FD98
:1031900020C0680123E0C20ED11CECE1EE2EEEE56A
:1031A000FE2E87E090E05C013FEFA31AB30A8FA7E1
:1031B00098ABCE018F960E94230AD7018D937D0193
:1031C000C501AC14BD0478F38EE394E0043011051E
:1031D00011F48DE294E00E94190B0E94AE0D8091D3
:1031E0001F5E81110E9438108EE080930506809149
:1031F0000306809303061092B00086E080930206D7
:1032000081E080930006809100068093000687E0AD
:103210008093080660E070E0CB0150E040E0E1E020
:10322000E0930A0620910D0620FFFCCF4A3051059D
:1032300044F02091100630911106620F731F811D1A
:10324000911D4F5F5F4F4A31B7E25B0749F70E941C
:10325000982E20E030E44CE156E40E94723020E0E9
:1032600030EF4FE755E40E9472309B01AC0166E6F7
:1032700076E686E69FE30E9472306B017C0183E56F
:1032800094E00E94DC0844E050E0C701B6010E94CF
:10329000E60C4090215E5090225E6090235E70901C
:1032A000245E1092B25D8090464090904740A0907E
:1032B0004840B09049408FAA98AEA9AEBAAE60918E
:1032C0000C5870910D5890E080E00E94982E4B01B0
:1032D0005C0123EA33E240E051E4C301B2010E9401
:1032E000F92E2FA938AD49AD5AAD0E94F92EA5018E
:1032F00094010E9472306093B35D7093B45D8093CB
:10330000B55D9093B65D1092B75D8AE097EDA3E24C
:10331000BEE38093B85D9093B95DA093BA5DB0931E
:10332000BB5D1092BC5D1092BD5D1092BE5D1092AF
:10333000BF5D1092C05D06EB1CE520E0ABA9BCA907
:1033400058962D903D904D905C905B976D917D913E
:103350008D919D91ABABBCAB77247394720EF80149
:10336000208320E030E040E450E40E94F92E2FA9B1
:1033700038AD49AD5AAD0E94F92EA50194010E94C5
:103380007230D80111966D937D938D939C93149711
:1033900015961C921597F801268237824086518631
:1033A00012861B961D921D921D921C921E970B5EFB
:1033B0001F4F272D263011F69091EE56A1EFB6E55E
:1033C00026EB3CE580E01FE542EB5DE571E0692F0F
:1033D000680F8F5F169FF0011124EE5BF74A208380
:1033E00031834283538344835583E25AFF4F708372
:1033F0006D932B5E3F4F863051F776E0372E390EB6
:103400003092EE5682E380934A408AE080930340F4
:103410006091595E70915A5E80915B5E90915C5EA6
:103420000E94AF09C0924640D0924740E092484087
:10343000F092494080915D5E80933B588823E9F18A
:1034400089E08093B30480915E5E90915F5E80938B
:1034500032589093335882E08093345881E08093BF
:103460003C58E090145EF090155EE114F10409F40C
:103470007DC187010F5F1F4F64EFC62E6DE5D62E0D
:103480008091125E9091135E8E0D9F1D0817190793
:10349000BCF4C801957189839A83CE0101960E947C
:1034A000230AF60181936F010F5F1F4FE9CF019748
:1034B00009F0B0CD83E00E9410091092B304C3CF8D
:1034C0004090F45D5090F55D6090F65D7090F75D12
:1034D0008090F85D9090F95DA090FA5DB090FB5DF2
:1034E000C090FC5DD090FD5DE090FE5DF090FF5DD2
:1034F0000091005E1091015E2091025E3091035EAA
:103500004091045E5091055E6091065E7091075E89
:103510008091085E9091095EA0910A5EB0910B5E69
:103520008BAB9CABADABBEAB80910C5E90910D5E56
:10353000A0910E5EB0910F5E409239B750923AB7AB
:1035400060923BB770923CB780929858909299588D
:10355000A0929A58B0929B58C092F758D092F858BF
:10356000E092F958F092FA5800935659109357592F
:1035700020935859309359594093B5595093B6599F
:103580006093B7597093B8598BA89CA8ADA8BEA8F2
:103590008092145A9092155AA092165AB092175AC5
:1035A0008093155890931658A0931758B0931858B5
:1035B00085E18093E65688E090E08093E45690930E
:1035C000E55688EE91E08093EB569093EC5610927E
:1035D000E3569091EF56E2E4F8E580E041E0DF0148
:1035E000A25ABF4F2C91222309F451C0282F30E05A
:1035F000D901AA0FBB1FA20FB31FBD01675E7F4B8E
:10360000DB012C912F3FC1F422813381D9015496E3
:103610005C915497511110C01F968C931F9754962C
:103620004C9354972C9130E0275F3F4BD9012C915C
:10363000DB012C938F5F9F5F2481358162817381D1
:103640002617370721F1A82FB0E0BD01660F771FBD
:10365000A60FB71FBD01675E7F4BDB015C915F3F2B
:10366000B1F4D90154965C915497511110C01F9632
:103670008C931F9754964C9354972C9130E0275F6E
:103680003F4BD9012C918F5FDB012C939F5FE15A57
:10369000FF4FBCE5E63BFB0709F0A1CF9093EF5647
:1036A0008093E3569091E25622E438E561E0D90137
:1036B000A25ABF4F4C91442359F1A82FB0E0AD015D
:1036C000440F551FA40FB51F8D01075E1F4BD80176
:1036D0004C914F3FE9F4D9014D915C91DA01549638
:1036E0007C915497711114C01F968C931F97549618
:1036F0006C9354974C9150E0445F5F4BDA014C91CE
:10370000D8014C938F5F11962D933C9312979F5F36
:10371000215A3F4FE217F30751F68093E3569093F7
:10372000E25690910E589923A9F080931158209158
:10373000184091E0980F9093E35690E0FC01EE0F53
:10374000FF1FE80FF91FE75EFF4B208310920F5811
:10375000109210588091E3568093ED5610E01315A7
:10376000E0F4812F0E94C70F1F5FF9CF1BAA1CAA8C
:103770001DAA1EAA40E050E0BA0100E010E0980146
:10378000C12CD12C7601812C912C5401412C512C2F
:10379000320180E090E0DC01CFCE1091ED5620E8C0
:1037A00036E948E15BE46091054070910640809104
:1037B0000740909108400E94F92E20E030E044EF4D
:1037C00053E40E9472300E94DF30695971408109D0
:1037D0009109212F30E050E040E00E94DC2F20933F
:1037E000DE563093DF564093E0565093E1561092E8
:1037F000F05681E08093044095E190930506909106
:103800000306909303061092B0009091E4569093B3
:103810000206809300069091000690930006909116
:1038200000069260909300061092080690910C0694
:10383000916090930C0680930A0678941092FD563E
:103840001092FE561092FF561092005760E070E002
:1038500080E090E40E94AF098E01015D1F4F09AB2B
:103860001AAB83E797E50E943C07892B09F4A0C0B7
:1038700083E797E50E941A07D090E7568A3009F04F
:1038800020C5AD2DB0E0AE5CB84A1C92E091325735
:10389000EF53EC3308F084C00E2E000CFF0BED5AF2
:1038A000F34E0C9401324821D01CD01CD01CD01CEB
:1038B000D01CD01CD01CD01CD01CD01CD01CD01CA8
:1038C000D01CD01CD01CD01CD01CD01CD01CD01C98
:1038D000D01CD01CD01CD01CD01CD01CD01CD01C88
:1038E000D01CD01CD01CD01CD01CD01C8F1CC31CC6
:1038F000951DB01DB71DCF1DD01CFB1F7C1DDE1DEF
:10390000921F9A1FFB1FD01C1320D01C21204C207B
:10391000D01CD01C07210D211F21D01C262112E014
:10392000D1123EC083E397E50E94FA2C8430E1F087
:103930008830E1F08930E1F48BE580931C5E87EC00
:103940009BE00E94DC0880911C5E8B3299F08635EA
:10395000A1F08B35A9F483E993E00E94DD0B82ECA2
:103960009BE00E94190B1CC08BE2E7CF86E5E5CFF8
:1039700080E0E3CF81EB91E0F0CF84E693E0EDCF00
:1039800090E080E0EACF22E0D2120AC083E397E51C
:103990000E94FA2C019709F0ACC081E08093605E30
:1039A00080E4A2E3B7E51D928A95E9F71092E75605
:1039B0008091EA5690911B58992389F0882379F0D9
:1039C00081E080931D580E94A30960931E58709354
:1039D0001F5880932058909321581092EA56809156
:1039E000E95690912B58992389F0882379F081E04A
:1039F00080932D580E94A30960932E5870932F58DE
:103A000080933058909331581092E9568091E8563F
:103A100090913B58992389F0882379F081E0809335
:103A20003D580E94A30960933E5870933F5880937D
:103A30004058909341581092E85692E1E92E98E54B
:103A4000F92E8701D12CC12C560184E0AA0CBB1C95
:103A50008A95E1F7F501EE5EF74A4F018385D801BB
:103A600019969C91992309F44BC4882309F448C4FE
:103A70000E94A309F40124853585468557851B01DD
:103A80002C01221A330A440A550AB201A101D801B5
:103A90008D919C91B0E0A0E084179507A607B70729
:103AA00008F02EC4B1E0CB1609F418C4E2E0CE163B
:103AB00009F41AC48091080486FB882780F9F5016F
:103AC000EE5EF74A1386D8011A969C911A979817BA
:103AD00009F416C412969C9181110CC4923009F01D
:103AE0000CC4F801278130852F5F3F4F2783308733
:103AF00004C41092605E54CF32E0D31251CF83E3FE
:103B000097E50E94FA2C019751F481E08093615E61
:103B10008091615E882331F088EB9BE022CF109288
:103B2000615EF6CF8DEA9BE01CCF83E397E50E94B0
:103B3000F72C6B017C010E94AF09C092595ED092B4
:103B40005A5EE0925B5EF0925C5E82EA9BE00E94CD
:103B5000DC0842E050E0C701B6010E94E60C20CF2D
:103B60008AE08C9383E397E50E94230B19CF43E00F
:103B7000D41216CF83E397E50E94F72C0E94DA3027
:103B8000162F072F60934A408AE99BE00E94DC08C9
:103B9000812F902F0E94DD0B0E94160B01CF83E333
:103BA00097E50E94FA2C80931D5E8FE89BE00E94AF
:103BB000DC0880911D5E0E94F00CF2CE60E270E0A5
:103BC00082E397E50E941332009711F40C94412C84
:103BD0008C0102531745C801992760E270E08D5CA3
:103BE000984A0E941332CC24C394C00E009711F45B
:103BF0000C94482CDC01A253B7455D01602F81E095
:103C00000E942B0E7C016A2D8C2D0E94570E299646
:103C10006CAF7DAF8EAF9FAF29976D2D81E08A0D80
:103C20000E94570E6E966CAF7DAF8EAF9FAF6E97B2
:103C3000E114F10409F08BC023EA33E240E051E4DF
:103C400029966CAD7DAD8EAD9FAD29970E94F92E62
:103C50002091464030914740409148405091494022
:103C60000E94F92E6B017C0160910C5870910D58E7
:103C700090E080E00E94982E9B01AC01C701B60144
:103C80000E9472306093B35D7093B45D8093B55DB4
:103C90009093B65D2AE037ED43E25EE36091B85D54
:103CA0007091B95D8091BA5D9091BB5D0E94942E38
:103CB000882381F11092B75D8AE097EDA3E2BEE31D
:103CC0008093B85D9093B95DA093BA5DB093BB5DEE
:103CD0001092BC5D1092BD5D1092BE5D1092BF5DF2
:103CE0001092C05D10E08091EE56181798F4809104
:103CF000445890914558825B9D4539F080914658D3
:103D000090914758825B9D4519F4812F0E94C70FFF
:103D10001F5FE9CF29962CAC3DAC4EAC5FAC299728
:103D20002092215E3092225E4092235E5092245E69
:103D300087E89BE00E94DC086091215E7091225E22
:103D40008091235E9091245E42E050E006CFCC2427
:103D5000CA94CE0C7BE0372E3C1408F49DC0AC2CEA
:103D6000B12C25E1C29E800111240A54134A20E09F
:103D700030E040E450E429966CAD7DAD8EAD9FAD52
:103D800029970E94F92E209146403091474040915A
:103D90004840509149400E94F92E2B013C0160910E
:103DA0000C5870910D5890E080E00E94982E9B0175
:103DB000AC01C301B2010E947230D80111966D931B
:103DC0007D938D939C93149716962D913D914D91D3
:103DD0005C9119976E966CAD7DAD8EAD9FAD6E9773
:103DE0000E94942E882309F457C0F80115826E961C
:103DF0002CAC3DAC4EAC5FAC6E97268237824086D1
:103E00005186128613861486158616868FE58A9D3E
:103E100080018B9D100D11240E5B174AD801ED9186
:103E2000FC914681578160857185F801408F518FE3
:103E3000628F738F2091ED56A090EB56B090EC56A8
:103E400090904A40C89E60011124A501692DC601C9
:103E50008C5A974A0E94840ED80112962D913C915B
:103E6000139714968D919C91159728173907A1F0F7
:103E7000ED91FC9186819781A085B185F80180AB99
:103E800091ABA2ABB3AB2091ED56A501692DC60154
:103E90008459974A0E94840E8701000F111F000F5A
:103EA000111F085E114A29962CAC3DAC4EAC5FAC9C
:103EB0002997D8011D962D923D924D925C92509774
:103EC0006E962CAC3DAC4EAC5FAC6E9795962D9239
:103ED0003D924D925C92989782E89BE00E94DC08AC
:103EE000C7010E94DD0B8FEF90E40E94230BF801C5
:103EF000658576858785908942E00E94120C8AE765
:103F00009BE00E94DC08C7010E94DD0B8FEF90E46C
:103F10000E94230BD80195966D917D918D919C9176
:103F2000989712CFB1E0DB123BCD0E94FA0B0E94B2
:103F3000AE0D36CD60E270E082E397E50E94133269
:103F4000009771F56D2D81E00E942B0E8C010115FB
:103F5000110509F440C00130110509F443C0299648
:103F60006CAD7DAD8EAD9FAD29970E94DF30609323
:103F700032587093335882E08093345881E08093B4
:103F80003C5829966CAD7DAD8EAD9FAD29970E94B2
:103F9000DA3060935E5E70935F5E0E94E20B00CD4C
:103FA000FC01E253F7457F016E2F81E00E942B0E4A
:103FB0008C016D2D81E08E0D0E942B0EBC01990F9E
:103FC000880B990B0E949A2E29966CAF7DAF8EAF0D
:103FD0009FAF2997BCCF10923B581092B304109218
:103FE0005D5EBDCF81E080933B5899E09093B30430
:103FF00080935D5EB4CF83E397E50E94FA2C88231B
:1040000079F099278034910514F08FE390E0809344
:104010001E5E80E79BE00E94DC0880911E5ECBCD97
:1040200081E090E0F4CF83E397E50E94FA2C8F7152
:104030008093205E85E69BE00E94DC088091205EF4
:10404000BACDF1E0DF12ACCC84E695E00E94190B0A
:1040500080E290E00E94520A882389F0CE01019606
:104060000E942A0A89819A8197FD09C091958195BC
:10407000910989839A83CE0101960E94AD0A86E355
:1040800095E00E94190B68EC70E080E090E00E94DF
:1040900072090C94000084CC22242394D21080CC8A
:1040A0008CE295E00E94190B80E290E00E94520A97
:1040B00081112AC019821A826FE4CE0101960E94F2
:1040C0008A0A44244394512C49825A8265E4CE01E1
:1040D00001960E948A0A52E0852E912C89829A824A
:1040E0006DE4CE0101960E948A0A03E010E0098384
:1040F0001A836FEFCE0101960E948A0A0F5F1F4F4D
:10410000011522E0120799F74AE450E049835A83E7
:1041100080E290E08B839C83CE0101960E94AD0AE1
:104120000CE11EE587E090E0D8016D918D017C01E6
:10413000BFEFEB1AFB0A8FA798ABCE018F960E94B8
:104140008A0AC7018D34910579F790E080E00E94DA
:10415000520A81111AC084E095E00E94DC084AE00E
:1041600060E072E080E090E00E94290B8EED94E028
:104170000E94190B60E072E090E080E00E94660B04
:104180008CED94E00E94DC080CC0CE0101960E94E8
:104190002A0A8B819C81019649F48BE894E00E9465
:1041A000190B0E94160B8BE095E0DBCB8EE794E0B9
:1041B0000E94DC086B817C8190E080E04AE00E94F4
:1041C000290B09811A8117FF03C011950195110967
:1041D0000450110980E794E00E94DC08C8010E94A5
:1041E000DD0B89E694E00E94DC0889819A8197FFC3
:1041F00004C08EE594E00E94DC080E94160BB80112
:1042000087E090E00E94660B8CE594E0BBCFF1E084
:10421000DF12C6CB0E94FA0BC3CB32E0232ED210A2
:10422000BFCB10921F5E80913357813329F481E018
:1042300080931F5E0E9438100E946D0DB1CB332415
:10424000339487E59BE0D310ABCB8BCB44244394D2
:10425000D410A6CB8DE39BE00E94190B0E94D50AD7
:10426000E8E9F8E51082118212821382E15AFF4FC9
:1042700022ED822E2AE5922E8E169F0699F7109235
:10428000155810921658109217581092185888CB3B
:1042900099249394D91084CB03E715E0F801F490A6
:1042A000FF2061F0FAE0FF1203C08DE00E94F608E3
:1042B0008F2D0E94F6080F5F1F4FF0CF81E795E02A
:1042C00050CBBFE3BD1508F473CBED2DF0E0EE5CF1
:1042D000F84A8083D394D092E7566ACB8091080441
:1042E000881F8827881FEBCB8091A80483FB882731
:1042F00080F9E5CB933009F4F4CBD8011A968C936E
:10430000BFEFCB1ADB0A005F1F4FE3E0CE16D104EC
:1043100009F09ACB8091F056882311F40C943C2B31
:104320001092F0562090EF562FAA822D90E006E1D1
:10433000209EF0011124EE54F24A26E1833098F4D5
:10434000348931110DC0289FD001299FB00D11244F
:10435000AE54B24A50961D921D921D921C925397D4
:1043600076960196EBCF1091EE566F961FAF6F9732
:10437000812F90E02FE5129FD0011124AC56B74A4F
:1043800025E18C30B8F51C963C911C9731112EC05C
:10439000289FF001299FF00D1124EA54F34A108A56
:1043A000118A128A138AFD01EC54F10910821182DC
:1043B0001282138234961082118212821382148226
:1043C0001582168217821D921C92119712961D92C9
:1043D0001C92139714961D921D921D921C92179772
:1043E00018961D921D921D921C921B970196A15A20
:1043F000BF4FC7CF22E438E5D70117964D915C91A6
:1044000018974115510589F013968D919D910D9046
:10441000BC91A02D840F951FA11DB11DF7018383B1
:104420009483A583B68317821086F0E1EF0EF11C0A
:104430002E153F0509F720904B4030904C4002EB81
:104440001DE50BAF1CAF10E000E04FA8041508F00D
:10445000EAC07801B3E0EE0CFF1CBA95E1F7E20C7C
:10446000F31CF701E058FF4F2081318142815381D5
:104470006481758186819781D1014D905D906D90A9
:104480007C900E940F314B015C01C301B2010E947C
:10449000982E9B01AC01C501B4010E947230B6E1B7
:1044A000B09F9001B19F300D1124F901EE54F24AF2
:1044B000EBABFCAB608B718B828B938BF701208510
:1044C0003185428553856485758586859785D101BB
:1044D0004D905D906D907C90139780848DAE91840B
:1044E00069969FAE6997A2842A96AFAE2A97B38445
:1044F0002E96BFAE2E97C4846296CFAE6297D584B7
:104500006696DFAE6697868467968FAE67979784C8
:1045100068969FAE6897CD90DD90ED90FC90ABA92A
:10452000BCA950968D909D90AD90BC9053972596C8
:104530008CAE9DAEAEAEBFAE25970E940B314B0147
:104540005C01C301B2010E94982E9B01AC01C50120
:10455000B4010E9472304B015C012DAD69963FADF4
:1045600069972A964FAD2A972E965FAD2E97629641
:104570006FAD629766967FAD669767968FAD6797CA
:1045800068969FAD68970E940B319B01AC01C501F5
:10459000B4010E94F92E4B015C01C701B6010E94D3
:1045A000982E9B01AC01C501B4010E9472309B01A1
:1045B000AC0125966CAD7DAD8EAD9FAD25970E946B
:1045C0000D30EBA9FCA9608B718B828B938B60897A
:1045D0007189828993890E94B831ABA9BCA9509690
:1045E0006D937D938D939C93539750966D917D9190
:1045F0008D919C915397EBADFCAD2181328143812C
:1046000054810E94F92EABA9BCA950966D937D935D
:104610008D939C9353970F5F1F4FEBADFCAD769638
:10462000EBAFFCAF12CFF10184819581A681B781F8
:1046300080819181A281B3818091ED568091EB566A
:104640009091EC5604E918E50BAF1CAF02E418E5B5
:104650000BAB1CAB69961FAE69974C01B12CA12C1A
:10466000E7968CAE9DAEAEAEBFAEE7976F969FACB1
:104670006F976996AFAC69979A1409F49AC4ABA97D
:10468000BCA90D90BC91A02DAFABB8AF1F968C917B
:10469000B8E08B9F80011124020D131DF801E05832
:1046A000FF4F2081318142815381648175818681F0
:1046B0009781F10180809180A280B3800E940F31A8
:1046C0006B017C01C501B4010E94982E9B01AC01D5
:1046D000C701B6010E947230AFA9B8AD50966D9374
:1046E0007D938D939C935397F80120853185428566
:1046F00053856485758586859785D1014D905D903C
:104700006D907C90139780848DAE91842A969FAE95
:104710002A97A2842E96AFAE2E97B3846296BFAE30
:104720006297C4846696CFAE6697D5846796DFAEEF
:104730006797E6846896EFAE6897F7846A96FFAE4F
:104740006A97CD90DD90ED90FC90AFA9B8AD5096F2
:104750008D909D90AD90BC90539725968CAE9DAE5C
:10476000AEAEBFAE25970E940B314B015C01C30179
:10477000B2010E94982E9B01AC01C501B4010E94B8
:1047800072304B015C012DAD2A963FAD2A972E96D3
:104790004FAD2E9762965FAD629766966FAD669746
:1047A00067967FAD679768968FAD68976A969FAD5D
:1047B0006A970E940B319B01AC01C501B4010E94B4
:1047C000F92E4B015C01C701B6010E94982E9B0196
:1047D000AC01C501B4010E9472309B01AC01259669
:1047E0006CAD7DAD8EAD9FAD25970E940D30EFA9CC
:1047F000F8AD608B718B828B938B60897189828914
:1048000093890E94B831AFA9B8AD50966D937D934E
:104810008D939C93539750966D917D918D919C9122
:10482000539711968D909D90AD90BC9014972D96B6
:104830008CAE9DAEAEAEBFAE2D97A50194010E9489
:10484000F92EEFA9F8AD608B718B828B938BF801F9
:10485000E850FF4F2081318142815381648175810D
:1048600086819781E858FF4F40802E964FAE2E9755
:10487000518062965FAE6297828066968FAE669731
:10488000938067969FAE6797A4806896AFAE68974F
:10489000B5806A96BFAE6A97C680A096CFAEA09745
:1048A000D780A196DFAEA197D1018D909D90AD905C
:1048B000BC90F801F085A296FFAFA297D801199697
:1048C000BC91A396BFAFA397F801F285A496FFAF62
:1048D000A497D8011B96BC91A596BFAFA597F801E8
:1048E000F485A696FFAFA697D8011D96BC91A79612
:1048F000BFAFA797F801F685A896FFAFA897D80194
:104900001F96BC91A996BFAFA997F1014080518035
:1049100062807380ABA9BCA912960D90BC91A02DAA
:104920002396AEAFBFAF23971F96EC91F0E0319680
:10493000A3E0EE0FFF1FAA95E1F7E20DF31DC08083
:10494000AA96CFAEAA97D180AB96DFAEAB97E280A6
:10495000AC96EFAEAC97F380AD96FFAEAD97C4804A
:10496000AE96CFAEAE97D580AF96DFAEAF97E6806E
:10497000E096EFAEE097F780E196FFAEE197D101C8
:10498000CD90DD90ED90FC902196CCAEDDAEEEAEFC
:10499000FFAE21970E940B31EBA9FCA922A133A104
:1049A00044A155A10E94F92E6B017C012E962FADDA
:1049B0002E9762963FAD629766964FAD6697679663
:1049C0005FAD679768966FAD68976A967FAD6A9797
:1049D000A0968FADA097A1969FADA1970E940B3195
:1049E000ABA9BCA996962D913D914D915C9199975B
:1049F0000E94F92E9B01AC01C701B6010E940E3046
:104A00006B017C01C501B4010E94982E9B01AC0191
:104A1000C701B6010E9472306B017C01A2962FADD6
:104A2000A297A3963FADA397A4964FADA497A59642
:104A30005FADA597A6966FADA697A7967FADA797F2
:104A4000A8968FADA897A9969FADA9970E940B3104
:104A50004B015C01C301B2010E94982E9B01AC0185
:104A6000C501B4010E9472304B015C01AA962FADC2
:104A7000AA97AB963FADAB97AC964FADAC97AD96C2
:104A80005FADAD97AE966FADAE97AF967FADAF977A
:104A9000E0968FADE097E1969FADE1970E940B31D4
:104AA0009B01AC01C501B4010E94F92E4B015C01D0
:104AB00021966CAD7DAD8EAD9FAD21970E94982E55
:104AC0009B01AC01C501B4010E9472309B01AC0195
:104AD000C701B6010E940D306B017C012396EEAD3B
:104AE000FFAD239721813281438154812D966CAD96
:104AF0007DAD8EAD9FAD2D970E94F92EA701960139
:104B00000E94F92E61966CAF7DAF8EAF9FAF61971B
:104B1000ABA9BCA914960D90BC91A02DADAFBEAFB2
:104B200023964EAC5FAC239720E030E0A9014A16F3
:104B30005B0609F453C1F801E851FE4F50806696B8
:104B40005FAE6697818067968FAE67979280689612
:104B50009FAE6897A3806A96AFAE6A97B480A0961E
:104B6000BFAEA097C580A196CFAEA197D680A296E2
:104B7000DFAEA297E780A396EFAEA397E858FF4F6A
:104B80002081318142815381648175818681978141
:104B9000D1018D909D90AD90BC90F801F085A496C8
:104BA000FFAFA497D8011996BC91A596BFAFA59762
:104BB000F801F285A696FFAFA697D8011B96BC9187
:104BC000A796BFAFA797F801F485A896FFAFA8975F
:104BD000D8011D96BC91A996BFAFA997F801F6859B
:104BE000AA96FFAFAA97D8011F96BC91AB96BFAF0C
:104BF000AB97F1014080518062807380ADADBEAD56
:104C00001F96EC91F0E0319613E0EE0FFF1F1A951E
:104C1000E1F7E20DF31DC080AC96CFAEAC97D1802A
:104C2000AD96DFAEAD97E280AE96EFAEAE97F38075
:104C3000AF96FFAEAF970481E0960FAFE097158176
:104C4000E1961FAFE197C680E296CFAEE297D7809C
:104C5000E396DFAEE397D101ED90FD900D911C91AD
:104C60006596ECAEFDAE0EAF1FAF65970E940B319F
:104C7000EBA9FCA9FE9620813181428153810E94DB
:104C8000F92E6B017C0166962FAD669767963FAD56
:104C9000679768964FAD68976A965FAD6A97A096DA
:104CA0006FADA097A1967FADA197A2968FADA29769
:104CB000A3969FADA3970E940B31EBA9FCA922AD4F
:104CC00033AD44AD55AD0E94F92E9B01AC01C70137
:104CD000B6010E940E306B017C01C501B4010E9437
:104CE000982E9B01AC01C701B6010E9472306B0186
:104CF0007C01A4962FADA497A5963FADA597A69647
:104D00004FADA697A7965FADA797A8966FADA8974A
:104D1000A9967FADA997AA968FADAA97AB969FAD9E
:104D2000AB970E940B314B015C01C301B2010E94A1
:104D3000982E9B01AC01C501B4010E9472304B0159
:104D40005C01AC962FADAC97AD963FADAD97AE96EE
:104D50004FADAE97AF965FADAF97E0966FADE09772
:104D6000E1967FADE197E2968FADE297E3969FAD36
:104D7000E3970E940B319B01AC01C501B4010E9475
:104D8000F92E4B015C0165966CAD7DAD8EAD9FAD8E
:104D90006597CED79B01AC01C501B4010E9472306A
:104DA0009B01AC01C701B6010E940D306B017C0173
:104DB000ADADBEAD11962D913D914D915C91149785
:104DC0002D966CAD7DAD8EAD9FAD2D970E94F92EC9
:104DD000A70196010E94F92E9B01AC0161966CAD72
:104DE0007DAD8EAD9FAD61970E940D304B015C0192
:104DF00023964EAC5FAC2397CDACDEAC20E030E028
:104E0000A9014C145D0439F4D20150962D913D91C5
:104E10004D915C915397EFA9F8AD608971898289B2
:104E20009389E7D72B013C01AC019B01C501B4017B
:104E30000E9472306B017C0126E636E646E85FE3AD
:104E40000E94B03118160CF4ADC026E636E646E8EE
:104E50005FEBC701B60168D787FDA4C0A701960123
:104E6000C701B6010E94F63181119CC0ABADBCAD4B
:104E70001896CD92DD92ED92FC921B9720E030E0E7
:104E800040E05FE3C501B4010E940E300E94DA30B9
:104E9000ABADBCAD6D937C9320E030E040E05FE3D0
:104EA000C301B2010E940E300E94DA30EBADFCADBE
:104EB00062837383D1016D917D918D919C9110914D
:104EC000ED5636D7A501940194D76B017C01E79686
:104ED0006CAD7DAD8EAD9FADE7972AD79B01AC0140
:104EE000C701B60186D76B017C01612F70E090E0AD
:104EF00080E020D79B01AC01C701B6017AD720E83A
:104F000036E948E15BE40E947230EBA9FCA92681F6
:104F10003781408551850E940E306B017C0120E075
:104F200030E041E655E40E9472300E94DA30072EEC
:104F3000000C880B990BABADBCAD14960D911D9177
:104F40002D913C911797060F171F281F391FFD0140
:104F50000483158326833783EDD620E030E041E6D5
:104F600055E447D79B01AC01C701B6010E940D3043
:104F7000ABA9BCA916966D937D938D939C931997BD
:104F800069960FAD69970F5F69960FAF6997A15A40
:104F9000BF4FABABBCAB0BAD1CAD015A1F4F0BAF42
:104FA0001CAF64CBEBADFCAD108611861286138668
:104FB00065CF80910E58882309F44DC0E0911158B7
:104FC000F0E03196A3E0EE0FFF1FAA95E1F7E20DA6
:104FD000F31D2081318142815381648175818681F5
:104FE0009781D1018D909D90AD90BC900E940B3126
:104FF0006B017C01C501B4019BD69B01AC01C701CB
:10500000B6010E9472306B017C0160910C58709166
:105010000D587695679590E080E08AD69B01AC01AB
:10502000C701B601FBD720E030E040E05FE3F6D7F0
:105030000E94DF3060930F5870931058C10188525E
:105040009D4F2816390661F0F101108281010F5F32
:105050001F4F1801F6CF10920F5810921058EECF34
:105060008091FD569091FE56A091FF56B091005749
:10507000892B8A2B8B2B99F480E00E94060E65E029
:1050800070E080E090E00E9472096091595E70913A
:105090005A5E80915B5E90915C5E0E94AF09809148
:1050A000FD569091FE56A091FF56B0910057019683
:1050B000A11DB11D8093FD569093FE56A093FF56FF
:1050C000B09300576091C25D7091C35D8091C45DE3
:1050D0009091C55D20E030E048EC52E48AD60E9411
:1050E000DA306093015770930257EFE0CE2EE7E578
:1050F000DE2EF3E0EF2EF7E5FF2E81EF96E5A70118
:105100009601A6EBBCE51FE554960C91549770E010
:1051100060E0002349F0FC016081169FF00111243A
:10512000EC56F74A60817181FA0161937193AF0186
:10513000812C912C5401002359F0FC016081169FB1
:10514000F0011124E856F74A80809180A280B38054
:10515000F90181929192A192B1929F015596019687
:10516000FDE5A433BF0781F68091355890913658FC
:10517000A0913758B091385880932757909328576B
:10518000A0932957B0932A5780911F5E882309F472
:1051900087C08EE2EDEFF6E5DE01119601900D92EB
:1051A0008A95E1F7B12CB092635E8DE30E94790697
:1051B000682F64608DE30E946C060E94A3092B0196
:1051C0003C0180917257803109F05FC280912C5769
:1051D00081115BC284E20E94790690E091958195ED
:1051E00091098C349F4F0CF050C284E00E948506D8
:1051F00084E00E94850687E20E94790687FFFBCF44
:105200000E945E0680E80E94470681E30E944706EE
:1052100085E00E9447068091625E0E94470680E416
:105220000E9447068E010F5F1F4FD8018D918D019F
:105230000E94470629A83AA802151305B1F70E9453
:1052400039068CE00E94850688E20E94790683FF79
:10525000FBCF84E00E9485060E94A3092B013C013C
:105260000E94A30964197509860997096E317105B1
:105270008105910508F018C20E94FF0C882381F374
:1052800080912F5790913057059751F780912B5768
:10529000882331F362E370E080E090E00E947209BD
:1052A0008090FD569090FE56A090FF56B09000570B
:1052B0008091615E882309F4FDC186E09CE00E9434
:1052C000DC084AE0C501B4010E94290B82E09CE0A1
:1052D0000E94DC0881E090E00E94DD0B84E191E413
:1052E0000E94230B6091015770910257072E000C0A
:1052F000880B990B1FD52AE037ED43E25CE379D5A3
:1053000042E00E94120C01E010E08EEF9BE00E9450
:10531000DC08C8010E94DD0B84E191E40E94230BAC
:10532000D7018D919D917D010E94DD0B0F5F1F4F75
:105330000730110551F701E010E08AEF9BE00E9471
:10534000DC08C8010E94DD0B84E191E40E94230B7C
:10535000F60161917191819191916F010E94B60B5B
:105360000F5F1F4F0730110541F780915D5E882365
:1053700079F080EF9BE00E94DC08609127577091E4
:1053800028578091295790912A574AE00E94290B6B
:105390008EEE9BE00E94190B6CE370E080E090E0E1
:1053A0000E94720981E00E94060E62E370E080E0D4
:1053B00090E00E94720980E00E94060E209027571C
:1053C000309028574090295750902A572BAA3CAA32
:1053D0004DAA5EAA409023575090245760902557BD
:1053E0007090265780911F5790912057A091215778
:1053F000B091225740911B5750911C5760911D57F7
:1054000070911E57009117571091185720911957F6
:1054100030911A57C0901357D0901457E0901557F9
:10542000F090165780900F5790901057A0901157FA
:10543000B0901257E091F45DF091F55D14012E1AD1
:105440003F0AF10137FE03C0F195E195F109E83C0F
:10545000F1050CF064C0E091F85DF091F95D160182
:105460002E1A3F0AF10137FE03C0F195E195F109CB
:10547000E83CF1050CF053C0E091FC5DF091FD5D5E
:1054800018012E1A3F0AF10137FE03C0F195E1958C
:10549000F109E83CF1050CF042C0E091005EF091AA
:1054A000015E1A012E1A3F0AF10137FE03C0F19581
:1054B000E195F109E83CF10594F5E091045EF09185
:1054C000055E1C012E1A3F0AF10137FE03C0F1955B
:1054D000E195F109E83CF10514F5E091085EF091E1
:1054E000095E12012E1A3F0AF10137FE03C0F19541
:1054F000E195F109E83CF10594F4E0910C5EF0913E
:105500000D5E2BA83CA82E1A3F0AF10137FE03C0FE
:10551000F195E195F109E83CF1050CF4ADC08092FC
:10552000F45D9092F55DA092F65DB092F75DC09249
:10553000F85DD092F95DE092FA5DF092FB5D009328
:10554000FC5D1093FD5D2093FE5D3093FF5D409305
:10555000005E5093015E6093025E7093035E8093E1
:10556000045E9093055EA093065EB093075E409242
:10557000085E5092095E60920A5E70920B5E8BA884
:105580009CA8ADA8BEA880920C5E90920D5EA092E1
:105590000E5EB0920F5E0091145E1091155E0115C3
:1055A000110549F1C801957189839A83CE0101964D
:1055B0000E94230A90E08093165E9093175E098301
:1055C0001A836FEFCE0101960E948A0A8091145EC1
:1055D0009091155E2091125E3091135E820F931FA1
:1055E0008093145E9093155E20911A5E30911B5E3D
:1055F0008217930744F08091185E9091195E809312
:10560000145E9093155E8091165E9091175E880FE0
:10561000991F992781608F3F910509F42FC18093CD
:10562000165E9093175E6091165E8091145E909165
:10563000155E89839A83CE0101960E948A0A0091A1
:10564000145E1091155E80E1E82E8EE5F82E94EF41
:10565000C92E9DE5D92E035F1D45C8018C0D9D1DEA
:1056600089839A83D6016D916D01CE0101960E94C6
:105670008A0AEC14FD0489F7A89564E170E080E0E3
:1056800090E00E9472090C94311C0E94A3096419D5
:10569000750986099709683E73408105910508F0F0
:1056A000A7CD0E94FF0C8DCDB39473E0372EB310BD
:1056B0007ACDF0CD89EE9BE00E94DC084AE0C5017E
:1056C000B4010E94290B86EE9BE00E94DC0881E079
:1056D00090E00E94DD0B85E191E40E94230B609134
:1056E000015770910257072E000C880B990B22D39B
:1056F0002AE037ED43E25CE37CD342E00E94120CE7
:1057000001E010E083EE9BE00E94DC08C8010E94EB
:10571000DD0B85E191E40E94230BD7018D919D91D2
:105720007D010E94DD0B0F5F1F4F0730110551F700
:1057300001E010E080EE9BE00E94DC08C8010E94BE
:10574000DD0B85E191E40E94230BF60161917191DB
:10575000819191916F010E94B60B0F5F1F4F07302F
:10576000110541F780915D5E882379F088ED9BE01B
:105770000E94DC0860912757709128578091295723
:1057800090912A574AE00E94290B8091605E811116
:1057900007C00E94160B68E270E080E090E000CE47
:1057A00056EBE52E5CE5F52E10E000E065E1B62E47
:1057B00085ED9BE00E94DC0868010F5F1F4FC80168
:1057C0000E94DD0B85E191E40E94230BD7015496E2
:1057D0008C91882309F44AC0BC9CF001BD9CF00D5B
:1057E0001124EA54F34A608971898289938943E0DC
:1057F0000E94120CB5E1EB0EF11C06301105C1F64A
:1058000036EBE32E3CE5F32E01E010E04FE5D42E1D
:1058100081ED9BE00E94DC08C8010E94DD0B85E160
:1058200091E40E94230BF7018489882319F1F80180
:10583000E051F94AE081DE9EF0011124E456F74A76
:10584000608171818281938144E00E94120C0F5F1C
:105850001F4FF5E1EF0EF11C07301105C9F60E944C
:10586000160B60E570E080E090E09ACD60E070E0BB
:10587000CB01BDCF60E070E0CB01E6CF8EEF90E0D2
:10588000CECE6D2D81E00E942B0E7C010C94181E53
:10589000602F81E00E942B0E7C016D2D8C2D0E94CB
:1058A000570E29966CAF7DAF8EAF9FAF29970C94A2
:1058B000181E8F929F92AF92BF92CF92DF92EF927B
:1058C000FF92CF93DF93EC01688179818A819B817C
:1058D000611571058105910521F464E279ED8BE58F
:1058E00097E02DE133EF41E050E03AD349015A010E
:1058F0009B01AC01A7EAB1E44FD36B017C01ACEE94
:10590000B4EFA501940154D3C60ED71EE81EF91EAC
:10591000F7FE06C081E0C81AD108E10880E8F80A5D
:10592000C882D982EA82FB82C701B6019F77DF91E4
:10593000CF91FF90EF90DF90CF90BF90AF909F906E
:105940008F9008958F929F92AF92BF92CF92DF92E5
:10595000EF92FF9260914D4070914E4080914F4088
:1059600090915040611571058105910521F464E223
:1059700079ED8BE597E02DE133EF41E050E0F0D297
:1059800049015A019B01AC01A7EAB1E405D36B01BF
:105990007C01ACEEB4EFA50194010AD3C60ED71E6C
:1059A000E81EF91EF7FE06C081E0C81AD108E1081A
:1059B00080E8F80AC0924D40D0924E40E0924F40AD
:1059C000F0925040C701B6019F77FF90EF90DF90B3
:1059D000CF90BF90AF909F908F90089560934D406F
:1059E00070934E4080934F409093504008956627A7
:1059F000772725C0FC0188279927E8942191203238
:105A0000E9F3293010F02E30C8F32B3239F02D3263
:105A100031F4689403C00BD0820F911D2191205363
:105A20002A30C8F31EF4909581959F4F08957AE02F
:105A3000979F902D879F802D910D112408958F920F
:105A40009F92AF92BF92CF92DF92EF92FF920F930D
:105A50001F93CF93DF935C017B016115710519F0F2
:105A6000DB018D939C9385010F5F1F4FF501D08162
:105A70008D2F90E039D16C01892BA9F5DD32A9F584
:105A80000F5F1F4FD5011196DC91C1E05801F1E085
:105A9000AF1AB10843E050E06CEF72E0C5012CD1C1
:105AA000892B61F5680182E0C80ED11C45E050E009
:105AB00067EF72E0C60120D1892B21F4680197E0DD
:105AC000C90ED11CE114F10419F0D701CD92DC927A
:105AD00060E070E080E89FEFC111F9C060E070E025
:105AE00080E89FE7F4C05801BECFDB3229F485017E
:105AF0000E5F1F4FF501D181C0E0C8CF43E050E0F9
:105B000064EF72E0C501F8D0892BE9F0F80110E0EC
:105B100000E020E030E0A9015F01B0ED8B2E8D0E9A
:105B200089E08815C0F19C2E689491F88C2F8870BC
:105B3000C2FF16C0811102C00F5F1F4F3196D50101
:105B4000DC91C92DE9CFE114F10429F00E5F1F4F5C
:105B5000F7010083118360E070E080EC9FE7B7C03D
:105B6000882311F001501109A5E0B0E015D29B0186
:105B7000AC01220F331F441F551F280D311D411D3D
:105B8000511D283999E93907490799E15907B0F2B8
:105B9000C6609C2ED3CFAEEF8A1206C0C3FD3CC0B8
:105BA0009C2E689493F8CACFDF7DD534A9F5808107
:105BB0008D3239F4C061DF011296818162E070E0BC
:105BC00006C0DF018B32C1F3119661E070E08053B3
:105BD0005D01A61AB70A8A30F8F4E0E8CE16ECE0C8
:105BE000DE065CF4B601660F771F660F771FC60EE0
:105BF000D71ECC0CDD1CC80ED11C5D01FFEFAF1A07
:105C0000BF0A8C9180538A3098F1C4FF03C0D194AD
:105C1000C194D1080C0D1D1DC1FF09C0E114F10490
:105C200031F081E0A81AB108D701AD92BC92CA0147
:105C3000B9017ED0C370C33009F490584B015C01A8
:105C400020E030E0A90170D0882309F43EC0CBE207
:105C5000D3E017FF05C0119501951109C3E1D3E009
:105C60006E01B8E1CB1AD10880E2E82EF12C0EC00B
:105C7000D501B3CFFE0125913591459154910E196F
:105C80001F09C501B401B5D04B015C01D501C401A8
:105C90000E151F057CF72497F594E794CC16DD06C6
:105CA000A9F78A2F880F8B2F881F8F3F41F020E0A4
:105CB00030E0A901C501B40137D0811106C082E2EC
:105CC00090E08093695E90936A5EC501B401DF91B4
:105CD000CF911F910F91FF90EF90DF90CF90BF90E9
