:10020000FDC400002DC500002BC500000C94BE11DC
:1002100027C5000025C5000023C5000021C500003A
:100220000C94F4111DC500001BC5000019C5000089
:1002300017C5000015C5000013C5000011C500005A
:100240000FC500000DC500000BC5000009C500006A
:1002500007C5000005C5000003C5000001C500007A
:10026000FFC40000FDC400000C941012F9C400008B
:10027000F7C40000F5C40000F3C400000C94C611DC
:10028000EFC40000EDC40000EBC400000C94E211C8
:10029000E7C40000E5C40000E3C40000E1C40000BE
:1002A000DFC40000DDC40000DBC40000D9C40000CE
:1002B000D7C40000D5C40000D3C40000D1C40000DE
:1002C000CFC40000CDC40000CBC40000C9C40000EE
:1002D000C7C400000C943B110C9435110C944111CF
:1002E000BFC40000BDC40000BBC40000B9C400000E
:1002F000B7C400004E414E494E495459494E46CD6F
:10030000CCCC3D0AD7233C17B7D13877CC2B3295CC
:1003100095E6241FB14F0A000020410000C84200AA
:10032000401C4620BCBE4CCA1B0E5AAEC59D747004
:100330006861736500766F6C74616765203D2000AD
:10034000656D6F6E547835006861726477617265AF
:10035000203D200076657273696F6E203D20006637
:1003600069726D77617265203D20656D6F6E5F44C7
:10037000425F31324354006A736F6E203D206F66D6
:1003800066006A736F6E203D206F6E006461746159
:100390006C6F67203D20002C20694C65616400690A
:1003A00043616C007643616C203D20002C20726616
:1003B000466F726D6174203D20002C207266506F74
:1003C000776572203D20002C2072664E6F64652098
:1003D0003D2000204D487A2C20726647726F757060
:1003E000203D20005246203D206F6E2C2072664238
:1003F000616E64203D20005246203D206F666600FD
:100400006D73002C2070756C7365506572696F6434
:10041000203D20006F66660070756C7365203D207E
:10042000004E6F20454550524F4D20636F6E6669F8
:1004300067004C6F6164656420454550524F4D2004
:10044000636F6E666967007672656661203D2000A5
:100450000A00202868696464656E292E002062798C
:10046000746573002C20446174612073697A653A65
:100470002000205369676E61747572653A20004EE2
:100480006F206461746120626C6F636B20666F75AE
:100490006E64202D20454550524F4D20617070658F
:1004A00061727320746F20626520666F726D617473
:1004B00074656420746F204F454D205374616E64E1
:1004C0006172642062757420756E757365642E00A8
:1004D0000A002062797465732C206E6F7420666F39
:1004E000726D617474656420746F204F454D2053A4
:1004F00074616E646172640053697A653A200044E5
:100500006F6E652E204E657720636F6E666967207B
:10051000736176656420746F20454550524F4D00DD
:10052000536176696E672E2E2E00536B6574636877
:100530002077696C6C206E6F7720726573746172BE
:1005400074207573696E672064656661756C7420CC
:10055000636F6E6669672E00526573657474696EA9
:10056000672E2E2E0020000A417661696C61626C54
:100570006520636F6D6D616E64733A0A6C09092DB5
:10058000206C697374207468652073657474696E77
:1005900067730A7209092D20726573746F72652082
:1005A000736B657463682064656661756C74730A47
:1005B0007309092D20736176652073657474696E03
:1005C000677320746F20454550524F4D0A760909D4
:1005D0002D2073686F77206669726D776172652070
:1005E00076657273696F6E0A7A09092D207A6572D1
:1005F0006F20656E657267792076616C7565730A28
:100600007809092D20657869742C206C6F636B2044
:10061000616E6420636F6E74696E75650A3F0909C7
:100620002D2073686F7720746869732074657874FF
:1006300020616761696E0A0A773C783E09092D20BE
:100640007475726E2052464D20576972656C6573E1
:10065000732064617461206F66663A2078203D20C3
:1006600030206F72206F6E3A2078203D20310A6270
:100670003C6E3E09092D2073657420722E662E2073
:1006800062616E64206E203D20612073696E676C2C
:1006900065206E756D6572616C3A2034203D2034A2
:1006A00033334D487A2C2038203D203836384D4899
:1006B0007A2C2039203D203931354D487A20286D5B
:1006C00061792072657175697265206861726477FD
:1006D000617265206368616E6765290A703C6E6EA1
:1006E0003E09092D207365742074686520722E669A
:1006F0002E20706F7765722E206E6E202D20616E19
:1007000020696E74656765722030202D203331209A
:10071000726570726573656E74696E67202D31380D
:100720002064426D20746F202B31332064426D2E83
:100730002044656661756C743A20323520282B3769
:100740002064426D290A673C6E6E6E3E092D20734F
:100750006574204E6574776F726B2047726F757089
:1007600020206E6E6E202D20616E20696E7465678C
:10077000657220284F454D2064656661756C742054
:100780003D20323130290A6E3C6E6E3E09092D2023
:10079000736574206E6F6465204944206E3D20614E
:1007A0006E20696E746567657220287374616E646B
:1007B000617264206E6F6465206964732061726584
:1007C00020312E2E3630290A0A643C78782E783E65
:1007D000092D2078782E78203D206120666C6F618D
:1007E00074696E6720706F696E74206E756D6265D6
:1007F0007220666F722074686520646174616C6F2A
:100800006767696E6720706572696F640A633C6E22
:100810003E09092D206E203D203020666F72204F4A
:1008200046462C206E203D203120666F72204F4EB0
:100830002C20656E61626C6520766F6C74616765F3
:100840002C2063757272656E74202620706F776538
:100850007220666163746F722076616C75657320B7
:10086000746F2073657269616C206F757470757434
:1008700020666F722063616C6962726174696F6E69
:100880002E200A6A3C6E3E09092D207475726E2076
:100890004A534F4E2053657269616C20666F726DCA
:1008A0006174206F6E20283129206F72206F666678
:1008B000202830292E0A663C78783E09092D2078B8
:1008C00078203D20746865206C696E6520667265CD
:1008D0007175656E637920696E20487A3A206E6F73
:1008E000726D616C6C792065697468657220353051
:1008F000206F722036300A6B3C783E203C79792E8E
:10090000793E203C7A7A2E7A3E0A09092D204361ED
:100910006C69627261746520616E20616E616C6FDA
:1009200067756520696E707574206368616E6E65A9
:100930006C3A0A0909202078203D20612073696EF5
:10094000676C65206E756D6572616C3A2030203D74
:1009500020766F6C746167652063616C6962726197
:1009600074696F6E2C2031203D20637431206361E7
:100970006C6962726174696F6E2C2032203D206355
:1009800074322063616C6962726174696F6E2C20CD
:100990006574630A0909202079792E79203D206148
:1009A00020666C6F6174696E6720706F696E742069
:1009B0006E756D62657220666F7220746865207650
:1009C0006F6C746167652F63757272656E742063F6
:1009D000616C6962726174696F6E20636F6E7374AB
:1009E000616E740A090920207A7A2E7A203D2061EE
:1009F00020666C6F6174696E6720706F696E742019
:100A00006E756D62657220666F7220746865207005
:100A1000686173652063616C6962726174696F6E8D
:100A200020666F72207468697320632E742E2028EC
:100A30007A206973206E6F74206E65656465642C1E
:100A4000206F722069676E6F72656420696620731B
:100A50007570706C6965642C207768656E207820ED
:100A60003D2030290A09092020652E672E206B3091
:100A7000203235362E380A09092020202020202057
:100A80006B312039302E3920322E30300A6D3C78CF
:100A90003E203C79793E092D206D65746572207089
:100AA000756C736520636F756E74696E673A0A09B9
:100AB0000920202078203D203020666F72204F468C
:100AC000462C2078203D203120666F72204F4E2C1E
:100AD000203C79793E203D20616E20696E74656707
:100AE000657220666F72207468652070756C73651E
:100AF000206D696E696D756D20706572696F642017
:100B0000696E206D732E202879206973206E6F74B2
:100B1000206E65656465642C206F722069676E6F56
:100B2000726564207768656E2078203D2030290A40
:100B300000456E657267792076616C756573207308
:100B4000657420746F207A65726F00436F6E7469EC
:100B50006E75696E672E2E2E007266506F77657205
:100B6000203D200072664E6F6465203D20002C20E1
:100B7000694C656164006943616C007643616C2077
:100B80003D2000726647726F7570203D20006672CE
:100B90006571203D2000646174616C6F67203D20A9
:100BA000006A736F6E203D206F6666006A736F6E19
:100BB000203D206F6E00204D487A00726642616EC3
:100BC00064203D20007D002C2250002C2246223A39
:100BD000002C225633223A002C225632223A002C84
:100BE000225631223A007B224D5347223A000A0016
:100BF00000080A400CFFC000C000621611241FBE8E
:100C0000CFEFCDBFDFE7DEBF80E38093011088ED3B
:100C100090EB84BF9093011011E4A0E0B0E4EEE506
:100C2000FEE500E00BBF02C007900D92A832B107AD
:100C3000D9F72EE5A8E2B1E401C01D92A93CB207A4
:100C4000E1F715E0CEEFD5E004C02197FE010E9448
:100C5000012FCD3FD107C9F70E948A170C942D2F81
:100C6000CFCA20910314FC01208320910414218316
:100C700020910514228320910614238308958091E6
:100C8000C25E8D3011F42D9A0895873011F40F9AB9
:100C90000895813109F44B9A089500009091C65E41
:100CA000911109C0809344098091430987FFFCCFCB
:100CB000809144090895809364098091630987FFB6
:100CC000FCCF8091640908958091C25E8D3011F44B
:100CD0002D980895873011F40F980895813109F403
:100CE0004B980895CF93DF93D82FC62FEDDF8D2F2C
:100CF0008068D3DF8C2FD1DFDF91CF91C0CFCF932E
:100D0000C82FE2DF8C2FC9DF80E0C7DFC82FB7DF35
:100D10008C2FCF910895CF939091C057981791F051
:100D2000C82F81E0ECDF837E682F6C2B81E0DADF57
:100D30008091C057811104C087E2E1DF87FFF8CFBF
:100D4000C093C057CF9108950F931F93CF93DF9314
:100D5000EC0184E0E0DF2097D9F088818823C1F09E
:100D6000B3DF8EEB9ADF8E01005F1F4F899195DF15
:100D7000C017D107D9F783DFC1E08DE3C0DF8E7FD5
:100D8000682F6C2B8DE3DF91CF911F910F91AACF2C
:100D9000C0E0F3CF1092BF571092BD571092BE57CC
:100DA0001092BB571092BC571092BA571092B95775
:100DB00088E2A5DF82FF06C08DE3A1DF682F6460B3
:100DC0008DE390DF80E1A7CFCF92DF92EF92FF9289
:100DD000CF93DF936A01815096E1899FE00111244E
:100DE000C450D24A888323EA33E240E051E4CB0185
:100DF000B6010E94EA2B2091494030914A4040912F
:100E00004B4050914C400E94EA2B6B017C01609159
:100E100056587091575890E080E00E94892B9B01B2
:100E2000AC01C701B6010E94632D69837A838B836D
:100E30009C831D828AE097EDA3E2BEE38E839F83AD
:100E4000A887B9871A861B861C861D861E86DF9199
:100E5000CF91FF90EF90DF90CF900895AF92BF9227
:100E6000CF92DF92EF92FF920F931F93CF93DF9376
:100E70006C017B018B01040F151FEB015E01AE18A5
:100E8000BF08C017D10759F06991D601ED91FC91C7
:100E90000190F081E02DC6010995892B79F7C501F4
:100EA000DF91CF911F910F91FF90EF90DF90CF9046
:100EB000BF90AF900895FC0151894289252F30E001
:100EC000842F90E0821B930B541710F0CF96089557
:100ED00001970895FC0197858089981761F0A08992
:100EE000AE0FBF2FB11D53968C9190899F5F9F735A
:100EF000908B90E008958FEF9FEF0895FC01978508
:100F00008089981731F08089E80FF11D838990E07E
:100F100008958FEF9FEF0895FC0197852089892F11
:100F200090E0805C9F4F821B91098F7399270895F1
:100F3000FC010FB607FE04C0809111018823A9F0BF
:100F4000A085B18514968C91149785FF0EC0918968
:100F50008289981307C015968C9115978F7D1596E9
:100F60008C930895E8940C944E1108950F931F9359
:100F7000CF93DF93EC018E8581608E8799898A8972
:100F800098130BC0E885F985848185FF06C08E859E
:100F900081FD0DC080E4848312C0062F19891F5F74
:100FA0001F738A89811315C0CE01C2DFFACF8581F4
:100FB0008F77806490E49483E885F9858583E8855C
:100FC000F985628381E090E0DF91CF911F910F91CD
:100FD0000895E989EC0FFD2FF11DED5AFF4F0083B5
:100FE000198B8E85E885F98581FF09C085818F770A
:100FF000806690E49483E885F9858583E3CF8581D5
:101000008062FBCF0F931F93CF93DF938C01D0E0CF
:10101000C0E0F801EC0FFD1F6491662339F081EC0C
:1010200097E5A4DF892B11F02196F3CFCE01DF9154
:10103000CF911F910F910895682F81EC97E596CF7E
:10104000CF93DF93EC018E85882359F0E885F985ED
:10105000858185FD03C0848186FD03C0CE0168DFE4
:10106000F5CFDF91CF910895079A20E533EC93E017
:10107000179A44E1F9013197F1F74150D9F7482F18
:10108000179AF9013197F1F7179A59E0F901319759
:10109000F1F75150D9F7415099F7915049F7E7CFFF
:1010A0009FB7F894E0912A0BF0912B0B8091260BBF
:1010B0002091F6563091F7564091F8565091F956D6
:1010C0009FBF80FF08C0CF018827892B21F42F5FA5
:1010D0003F4F4F4F5F4F0F0116940794169407949C
:1010E0001694079416940794F00116940794E00D53
:1010F000F11D16940794102C169401181694010CE7
:10110000169401181694010C16940118169416944E
:10111000010C1124E019F109A8EEB3E00E94BD2CE6
:101120006E0F7F1F811D911D0895CF92DF92EF9268
:10113000FF92CF93DF936B017C01B2DFEB01C1140F
:10114000D104E104F10471F0ABDF6C1B7D0B683E50
:101150007340A8F381E0C81AD108E108F108C8512A
:10116000DC4FEDCFDF91CF91FF90EF90DF90CF90EC
:1011700008952FB7F8946091F6567091F7568091C4
:10118000F8569091F9562FBF0895815090910A57C3
:101190002FE5929FF0011124E457F74A45E1849F1F
:1011A000900111242050334A20833183615026E17D
:1011B000629FB00111246450724A62837383648316
:1011C0007583E25AFF4F21E02083E82FF0E0E651DB
:1011D000F94A90839F5F90930A5708958150282F72
:1011E00030E095E1899FF0011124E050F34A8489B1
:1011F000882379F0F901E651F94AE0818FE5E89F0B
:10120000F0011124EE51F74A60817181828193814E
:10121000089560E070E0CB0108958150282F082EDA
:10122000000C330B95E18902F0011124E050F34AE0
:101230008489882369F0F901E651F94AE0818FE554
:10124000E89FF0011124E252F74A808191810895CC
:1012500090E080E008958F929F92AF92BF92CF92DC
:10126000DF92EF92FF920F93CF936B017C0120E00E
:1012700030E040E05FE30E94852B87FF05C0C12C72
:10128000D12CE12C8FE3F82EC0920540D09206407D
:10129000E0920740F09208408090075790900857DE
:1012A000C091095720E836E948E15BE4C701B6017F
:1012B0000E94EA2B6B017C01B12CA12CC501B40169
:1012C0000E94892B9B01AC01C701B6010E94632DCE
:1012D0000E94D02D6B017C0160E876E988E990E0FE
:1012E000A50194010E94CD2CCA01B901009146408C
:1012F000202F30E050E040E00E94CD2C44275527BD
:10130000C701B601621B730B840B950B2C2F30E0C9
:1013100050E040E00E94CD2C2093FA563093FB56CB
:101320004093FC565093FD56CF910F91FF90EF9054
:10133000DF90CF90BF90AF909F908F9008950F93C4
:101340001F93CF93DF9300D000D0CDB7DEB72091AD
:1013500000142F34A1F420910114253481F420913C
:1013600002142D3461F4009799F08C01CE0101969E
:1013700078DC81E02B813C812017310709F080E087
:101380002496CDBFDEBFDF91CF911F910F910895BD
:1013900081E0F6CFDC01ED91FC91F170FC5E2081E3
:1013A0006217B9F03FB720910210422F427021FD21
:1013B000FACFF8942DE924BF4093001043E124BFF5
:1013C00040930010DC01ED91FC91F170FC5E6083B4
:1013D0003FBF0895CF92DF92EF92FF920F931F933A
:1013E000CF93DF9300D0CDB7DEB76C017C0103E073
:1013F00010E009831A83F70161917F01CE01019604
:10140000C9DF0F5F1F4F0730110599F7C6010F9015
:101410000F90DF91CF911F910F91FF90EF90DF9090
:10142000CF9008950F931F93CF93DF9300D0CDB744
:10143000DEB70091465E1091475E8091485E9091C4
:10144000495E081719079CF4C801957189839A832E
:101450006FEFCE0101969EDF1092425E1092435EC6
:101460008091405E9091415E080F191FE6CF0F906A
:101470000F90DF91CF911F910F910895FC01019082
:101480000020E9F73197AF01481B590BBC0181ECF3
:1014900097E5E4CC8EED90E4F1CFCF93DF93B2DD0E
:1014A000EC01F8DF8C0F9D1FDF91CF91089500971D
:1014B00009F0E4CF90E080E008958F929F92AF9280
:1014C000BF920F931F93CF93DF93CDB7DEB7A19752
:1014D000CDBFDEBF19A2423008F44AE08E010F5D95
:1014E0001F4F842E912CB12CA12CA50194010E9498
:1014F000CD2CE62FB901CA01EA30D4F4E05DD80161
:10150000EE938D01232B242B252B79F790E080E09F
:10151000109711F0CD01B2DFA196CDBFDEBFDF91F4
:10152000CF911F910F91BF90AF909F908F90089592
:10153000E95CE5CFCF92DF92EF92FF920F931F937A
:10154000CF93DF937C016B01D0E0C0E0CC15DD05CB
:101550003CF58E010E0D1F1D11701C5EF80180817F
:10156000803110F480E368DD2196F801608170E03D
:1015700090E080E040E1A1DF89EF90E498DFCE01C8
:1015800087709927892B19F489EF90E490DFCE01B9
:101590008F709927892BD1F68EEE9BE033DDD6CF65
:1015A000DF91CF911F910F91FF90EF90DF90CF903F
:1015B0000895CF92DF92EF92FF92CF93DF936C0169
:1015C000990FEE08FF08F7FE15C08DE235DDEC013E
:1015D00066277727CB016C197D098E099F094AE0A0
:1015E0006CDF8C0F9D1FDF91CF91FF90EF90DF900C
:1015F000CF9008954AE0C701B601DF91CF91FF90E7
:10160000EF90DF90CF9059CF88E194E0FBDC8091A0
:10161000BB5E882371F081E090E0CBDF83E094E053
:10162000F1DC8091BC5E9091BD5EC3DF80E094E010
:1016300034CF84E194E0FCCF8FE593E02EDF84E5A6
:1016400093E0E0DC81EE90E419DF88E493E0DADCFB
:1016500080E493E022DF85E393E0D4DC83E090E054
:10166000A8DF8FE293E019CF0F931F93CF93DF93FF
:101670008091C057803109F062C088E240DB82FF70
:101680003BC084E048DB20DB80E007DB80E005DB5B
:10169000D82FC82F833408F0C2E4C093BA5780E033
:1016A000FCDA082F80E0F9DA182F80E0F6DA282F2C
:1016B00030E0A90196E0440F551F9A95E1F74427C1
:1016C0005370402B4093BB575093BC57322F222767
:1016D00022273370212B2093BD573093BE57909112
:1016E000C05E9417150611F0452B11F4D330A0F409
:1016F0001092BA57C4DA4EDB8091C0578031F9F4AA
:101700008091BA578823E1F084E005DB81E0DF9126
:10171000CF911F910F910895C350C093BF57807808
:101720008093B957D0E0DC1720F480E0B6DADF5FB1
:10173000FACFA5DA80E1EFDA84E2E1DADDCF2ADB65
:1017400080E0E5CFBF92CF92DF92EF92FF920F93AE
:101750001F93CF93DF93EC01B12C8C010C5C1F4FD6
:10176000B092C15E8DE3CBDA682F64608DE3BADAA4
:1017700000DD6B017C018091C057803109F058C0B9
:101780008091BA57811154C084E2B9DA90E0919502
:10179000819591098C349F4F0CF04AC084E0BBDAEC
:1017A00084E0B9DA87E2ABDA87FFFCCF8DDA80E834
:1017B00074DA87E372DA85E070DA8091C05E6DDA00
:1017C00080E46BDA7E01F70181917F0166DA0E1504
:1017D0001F05C9F754DA8CE09EDA88E290DA83FFBD
:1017E000FCCF84E098DAC5DC6B017C01C2DC6C19AB
:1017F0007D098E099F096E3171058105910528F5D6
:1018000033DF882399F32091BD573091BE5725309F
:10181000310561F79091B957992341F3DF91CF9149
:101820001F910F91FF90EF90DF90CF90BF900895A0
:10183000A0DC6C197D098E099F09683E7340810503
:10184000910508F0ADCF10DF96CFB394F9E0BF1249
:1018500087CF80E0E3CF4F925F926F927F928F921B
:101860009F92AF92BF92CF92DF92EF92FF920F932F
:101870001F93CF936B017C01742EAC019B010E94DE
:10188000E72E882391F089EE90E4CF911F910F917C
:10189000FF90EF90DF90CF90BF90AF909F908F9090
:1018A0007F906F905F904F90E9CD46015701E8948B
:1018B000B7F82FEF3FEF4FE75FE7C501B4010E9494
:1018C000E72E81110DC02FEF3FEF4FE75FE7C50116
:1018D000B4010E94852B18161CF48DEE90E4D5CF30
:1018E0002FEF3FEF4FE75FE4C701B6010E94A12E43
:1018F00018161CF481EF90E4C8CF2FEF3FEF4FE7AD
:101900005FECC701B6010E94852B87FDF3CF20E075
:1019100030E0A901C701B6010E94852B10E000E06C
:1019200087FF07C08DE288DB8C01F7FAF094F7F8A7
:10193000F094C0E060E070E080E09FE37C1641F04E
:1019400020E030E040E251E40E94632DCF5FF6CF0B
:10195000A70196010E94FF2C2B013C010E94D02D73
:101960004B015C014AE0A9DD7C01E00EF11ECC23B5
:10197000A9F1C501B4010E94892B9B01AC01C301EF
:10198000B2010E94FE2C4B015C0185EF90E476DDF4
:10199000E80EF91EC15010F120E030E040E251E4C1
:1019A000C501B4010E94EA2B2B013C010E94D02DFD
:1019B0004B01B12CA12C4AE0C501B4017EDDE80E3B
:1019C000F91EC501B4010E94892B9B01AC01C30122
:1019D000B2010E94FE2C4B015C01DCCFC701CF910C
:1019E0001F910F91FF90EF90DF90CF90BF90AF903D
:1019F0009F908F907F906F905F904F90089542E0FE
:101A00002ACFCF93DF9327DFEC0144DD8C0F9D1F9E
:101A1000DF91CF910895CF93DF93682F70E090E02E
:101A200080E04AE04ADDEC0135DD8C0F9D1FDF913F
:101A3000CF91089580914D5E882309F436C084EEDD
:101A400093E0E0DA80914A5E8B3231F1863539F1EC
:101A50008B3541F190E080E0ACDD83ED93E0D2DAAC
:101A600060914B5E70E090E080E04AE026DD87EC1C
:101A700093E0C8DA80914C5E8F7390E09ADD8AEB38
:101A800093E0C0DA60914E5E70E090E080E04AE062
:101A900014DD8CEA93E0B6CA81EB91E0DDCF84E6F9
:101AA00093E0DACF83E993E0D7CF87EF93E0F5CCEB
:101AB0000F931F93CF93DF9384EA93E0A3DA6091AF
:101AC0004F5E7091505E8091515E9091525E42E007
:101AD00050E097DF07E51EE5C1E0D0E08FE993E035
:101AE00091DACE0166DD87EF90E4E1DCF8016191E7
:101AF0007191819191918F0182DF87E993E082DA80
:101B0000CE0157DD87EF90E4D2DCF80164A575A51E
:101B100086A597A542E050E074DF2196CD30D1052F
:101B2000E9F672DD87DF8CE893E06CDA6091B75EEE
:101B30007091B85E8091B95E9091BA5E42E050E0DB
:101B400060DF8091BF5E811107C087E793E0DF917E
:101B5000CF911F910F91A1CC82E893E0F8CF94E050
:101B600081111BC0909346049091400492FD0AC0DD
:101B70009FB7F894811114C080915204877F80939D
:101B800052049FBF8091E6058770823029F48091CE
:101B9000010A8B7F8093010A089590934504E4CF56
:101BA000809152048860EBCF0F931F93CF93DF9304
:101BB000CDB7DEB72C97CDBFDEBF681BF1F0062F87
:101BC00010E0682F70E06758784AA801CE010196AE
:101BD0000E941E2FE1E0F0E0EC0FFD1FE00FF11F6F
:101BE0001082CE0101960E94EB292C96CDBFDEBF5C
:101BF000DF91CF911F910F91089590E080E0F5CF94
:101C00000F931F93CF93DF93CDB7DEB72C97CDBF44
:101C1000DEBF681BF1F0062F10E0682F70E06758F8
:101C2000784AA801CE0101960E941E2FE1E0F0E063
:101C3000EC0FFD1FE00FF11F1082CE0101960E94F4
:101C4000E8292C96CDBFDEBFDF91CF911F910F9178
:101C5000089560E070E0CB01F4CF2F923F924F9255
:101C60005F926F927F928F929F92AF92BF92CF922C
:101C7000DF92EF92FF920F931F93CF93DF93CDB735
:101C8000DEB72A97CDBFDEBF89879A87162F7A01E4
:101C9000222E312CB101032C000C880B990B0E94D1
:101CA0008B2B4B015C01612F70E090E080E00E9483
:101CB0008B2B20E030E044EB53E40E94EA2B2B0115
:101CC0003C01B70190E080E00E94892B9B01AC01B0
:101CD000C301B2010E94EA2BA50194010E94EA2BE4
:101CE00020E836E948E15BE40E94632D2B013C01CA
:101CF000E985FA8505818081081B110B21813281DC
:101D00004381548166817781808591850E94FE2C74
:101D1000A30192010E94632D6B017C01B801012E89
:101D2000000C880B990B0E948B2BA50194010E943B
:101D3000632D9B01AC01C701B6010E94FF2C6D838E
:101D40007E838F8398870E943E2E69837A838B835C
:101D50009C8320E030E040E85FE30E94FF2C6B01B1
:101D60007C0120E030E0A90169817A818B819C812E
:101D70000E94A12E87FDA2C0A7019601C501B40152
:101D80000E94EA2B0E94CB2DE985FA856287738732
:101D900016861786E985FA8526853785020F131F73
:101DA00006871787020D131D0487158720E030E092
:101DB00044EB53E4C301B2010E94632D2BED3FE0DD
:101DC00049EC50E40E94EA2B6B017C0129813A81A5
:101DD0004B815C816D817E818F8198850E94FE2C74
:101DE000A30192010E94EA2B20E030E044EB53E48F
:101DF0000E94632D2BED3FE049EC50E40E94EA2B5A
:101E00004B015C01A70196010E94632D2B013C014F
:101E1000E985FA85448A558A668A778AA5019401FC
:101E2000C501B4010E94EA2B20E030E040E05FE30E
:101E30000E94EA2B9B01AC0160E070E080E89FE328
:101E40000E94FE2C4B015C01A7019601C701B6015F
:101E50000E94EA2B20E030E040E05FE30E94EA2BA2
:101E60009B01AC0160E070E080E89FE30E94FE2CE3
:101E7000A30192010E94EA2B9B01AC01C501B401B0
:101E80000E94FE2CE985FA85608B718B828B938B87
:101E90002A96CDBFDEBFDF91CF911F910F91FF90AA
:101EA000EF90DF90CF90BF90AF909F908F907F90FA
:101EB0006F905F904F903F902F900895E985FA853D
:101EC00012861386C701B6019058A50194010E949D
:101ED000EA2B0E94CB2DE985FA85668777875ACF52
:101EE000CF92DF92FF920F931F93CF93DF930FE573
:101EF000089FF0011124EF01C457D74AAA81BB8182
:101F00001F962C911F972A8B16964D915D916D917E
:101F10007C9119974B8B5C8B6D8B7E8BA881B981E3
:101F20001F962C911F972F8B16964D915D916D9159
:101F30007C911997488F598F6A8F7B8F2091095711
:101F4000C0900757D0900857F09046408F01A601E7
:101F50006F2DCF018256974A80DEEC81FD818A8108
:101F60009B818E179F0729F187858AA78681978194
:101F7000A085B1858BA79CA7ADA7BEA7E881F981F5
:101F800087858FA786819781A085B18588AB99AB1E
:101F9000AAABBBAB20910957A6016F2DC8018A548B
:101FA000974ADF91CF911F910F91FF90DF90CF90D3
:101FB00054CEDF91CF911F910F91FF90DF90CF9082
:101FC0000895CF92DF92EF92FF920F931F93CF93DA
:101FD000DF93CDB7DEB7AD97CDBFDEBF87E080938F
:101FE000C25E84E08093C35E85E08093C45E86E039
:101FF0008093C55E1092C65E10914B5E80914C5EE0
:102000008093C05E1092C15E80E88093010480E1FD
:10201000809301049FB7F89480E28093020480913A
:102020001504877F809315049FBF8091C55E893218
:1020300088F490E0FC01EF5AFF4B20812F3F51F0D4
:1020400086589F4BDC01EC91B0E2EB9FF00111242C
:10205000FC5F21830E943F068091C65E8111AFC064
:102060008091E4058C7F8093E40580914109846030
:10207000809341098091400981628093400979D819
:102080006B017C016AEA8FE20E9472068FE20E9475
:102090007F068A3A51F06DD86C197D098E099F0927
:1020A000623371058105910568F363D86C197D0968
:1020B0008E099F09623371058105910508F0B0C052
:1020C00058D86B017C0165E58FE20E9472068FE2B1
:1020D0000E947F06853551F04CD86C197D098E0918
:1020E0009F09623371058105910568F342D86C1927
:1020F0007D098E099F09623371058105910508F0FC
:102100008FC0FE0133968BE2DF011D928A95E9F7BD
:1021100081E0898384E08A8322E02B8393E09D839E
:102120002E838F8380E4888725E029879A8796E02D
:102130009B8793E39C8797E09D8728E02F8729E082
:10214000298B29E12B8B32E43C8B25E22D8B8E8B66
:1021500026E22F8B988F98E2998F20E12A8F99E2BF
:102160009B8F9CED9C8F9EE29D8F98E89E8F9FE2B7
:102170009F8F9DE298A390E399A347E34BA340E987
:102180004CA348E34DA33EA33CE33FA33FE838A75D
:102190003DE339A72AA72FE62BA79CA79CE69E879D
:1021A000888B1AA38E010F5F1F4FF801808188234F
:1021B000B1F061810E9472060E5F1F4FF6CF8091D1
:1021C000E405837F8093E4058091610984608093B6
:1021D00061098091600981628093600950CF90E02D
:1021E00080E00E94A40669E981E10E94720684E011
:1021F0000E948B060E94B9086B017C0187E20E9455
:102200007F0687FD0BC00E94B9086C197D098E09F5
:102210009F09623371058105910580F30E94B90819
:102220008BEF90E40E94A40620914C5EF4E12F9F76
:102230008001112460E070E0CB010115110541F02F
:102240000E9493299801110F440B550B0E94A12C59
:10225000AD96CDBFDEBFDF91CF911F910F91FF9063
:10226000EF90DF90CF900C949508EF93FF93F89840
:10227000E1ECF7E50BC0EF93FF93F898E1ECF7E59D
:1022800034C0EF93FF93E1ECF7E55FC02F932FB7D6
:102290002F938F939F93AF93BF936894CF93DF93C4
:1022A00020E0C085D8E09289DF01A90FB21FAD5AA6
:1022B000BF4F8C9120E42C838A839F5F9F738D8115
:1022C0002189291302C08F7D8D83928BDF91CF915D
:1022D00016F00C94B507BF91AF919F918F912F91FC
:1022E0002FBF2F91FF91EF9118952F932FB72F9319
:1022F0003F938F939F93CF93DF93C085D8E02E8138
:102300002F7E2E83898198818674880F3685382B9D
:1023100082FD0DC0C78581E08C0F8F73208928173F
:1023200091F0CE0FDF2F20E0D21F9B8B878736875F
:10233000DF91CF919F918F913F912F912FBF2F913F
:10234000FF91EF9118953064F2CF8F938FB78F93F1
:102350009F93CF93DF93C085D8E09D8188818C8146
:1023600087FDFCCF9F7B90689D83DF91CF919F91EC
:102370008F918FBF8F91FF91EF9118951F920F92C0
:102380000FB60F92112484E00E943408EF93FF935C
:10239000E6EFF6E58F938FB78F9380818F5F808311
:1023A00081818F4F818382818F4F828383818F4F81
:1023B000838381E08093260B8F918FBF8F91FF9154
:1023C000EF9118951F920F920FB60F9211248F93D1
:1023D00088E08093A90481E0809304578F910F9047
:1023E0000FBE0F901F9018951F920F920FB60F926D
:1023F00011248F939F93809109048093090486FF91
:1024000003C091E09093065787FF03C081E080935B
:1024100005579F918F910F900FBE0F901F901895A9
:102420001F920F920FB60F9211240BB60F922F929C
:102430003F924F925F926F927F928F929F92AF9254
:10244000BF92CF92DF92EF92FF920F931F932F9341
:102450003F934F935F936F937F938F939F93AF932C
:10246000BF93EF93FF93CF93DF93CDB7DEB72A9758
:10247000CDBFDEBF81E080930D0680911006909164
:1024800011068D839E838091E9568E5F9091095746
:10249000891718F090910957891B90E0FC01EE0F05
:1024A000FF1FE80FF91FE75EFF4B8081809308064E
:1024B0008D819E8120915658309157583695279599
:1024C000821B930B8D839E838D819E81E091E756C5
:1024D000F091E856EE0FFF1FE951F14B8083918395
:1024E00019821A821B821C822D813E810D811E81E0
:1024F00022241302B001029FA00112037209500DA1
:10250000611D721D30037209500D611D721D112471
:1025100049835A836B837C8389809A80AB80BC809B
:10252000A0910140B0910240E091E95608E0E09F9F
:10253000F0011124EA0FFB1FE058FF4F208031808B
:102540004280538064807580068117819401A501C3
:1025500060E070E080E090E05101620173010E9450
:102560000A2F208331834283538364837583868358
:1025700097834D815E81E091E95618E0E19FF0017B
:102580001124EA0FFB1FA084B184C284D384E484A5
:10259000F58406851785952F990F990B9A01492F78
:1025A000592F692F792F892F0E940A2F2087318771
:1025B000428753876487758786879787E091E956B6
:1025C0008E2F90E0FC01EE0FFF1FE80FF91FE75E72
:1025D000FF4B80818111CFC08091E54E9091E64EF6
:1025E0009C013695279536952795AC01421B530BD8
:1025F0009A018D819E81181619060CF478C08D8180
:102600009E81919581959109820F931F8093E54E4C
:102610009093E64E21E040915458509155584817F8
:10262000590708F020E02093115E8D819E811816D5
:1026300019060CF05FC081E090E08093E34E909328
:10264000E44E2091E34E3091E44E8091DF4E909124
:10265000E04E2817390709F452C08091DC4E8F5F95
:102660008093DC4E8091DC4E882351F01092DC4E3A
:102670008091E34E9091E44E8093E14E9093E24E30
:102680008091E14E9091E24E019709F016C380913E
:10269000DF4E9091E04E019709F465C08091DD4EC8
:1026A0009091DE4E01968093DD4E9093DE4E209108
:1026B0000440222339F1209103402817190609F01C
:1026C00008F5109204401092DD4E1092DE4E1496E2
:1026D0001D921D921D921C921797CD0188529D4FFD
:1026E000FD01E817F90771F010823196FACF8D815C
:1026F0009E818ACF1092E34E1092E44EA2CF1092A8
:10270000DC4EB0CF14964D915D916D917C911797F1
:102710004F5F5F4F6F4F7F4F14964D935D936D9357
:102720007C9317970D911D912D913C91139740919A
:10273000FA565091FB566091FC567091FD56041765
:1027400015072607370778F0809147409091484059
:10275000A0934740B093484080930140909302403B
:1027600081E080930C578091E14E9091E24E8093EE
:10277000DF4E9093E04E9091E95680910B57981759
:1027800008F445C28090E7569090E856E091E956EB
:102790008E2F90E0FC01EE0FFF1FE80FF91FE75EA0
:1027A000FF4B0180F281E02D848D958D881A990A66
:1027B00053E09522E091E756F091E856A091E95652
:1027C0008A2F90E0DC01AA0FBB1FA80FB91FA75EDC
:1027D000BF4B11960D90BC91A02D5E968D919C9152
:1027E000E81BF90BF3702091E7563091E856A09161
:1027F000E9568A2F90E0DC01AA0FBB1FA80FB91F72
:10280000A75EBF4B11960D90BC91A02D90968D9117
:102810009C91281B390BD901B370AF83B887880C02
:10282000991C84010951114B4801D8016D917C918B
:10283000EE0FFF1FE951F14B4081518122245702D5
:102840009001469F800156033209100D211D321D53
:1028500074033209100D211D321D11242801390184
:10286000E0910140F0910240A091E95618E0A19F4B
:10287000D0011124AE0FBF1FA850BF4FAC901196CE
:10288000BC90119712962C90129713963C90139728
:1028900014960C911497098715961C9115971A8711
:1028A00016960C91169717961C9117977301620153
:1028B000FF0CCC08DC2C76019201A3016C2D7C2D41
:1028C0008C2D9C2D6101E984FA840E940A2F2C939F
:1028D00011963C93119712964C93129713965C9312
:1028E000139714966C93149715967C9315971696D8
:1028F0008C93169717969C93D4016D917C91AF8120
:10290000B885AA0FBB1FA951B14B4D915C912224F0
:1029100057029001469F800156033209100D211D78
:10292000321D74033209100D211D321D112448017E
:102930005901A091E95618E0A19FD0011124AE0FD2
:10294000BF1FA059BE4F2C9011963C901197129624
:10295000CC9012971396DC9013971496EC901497E2
:102960001596FC90159716960C91169717961C9134
:10297000179724013501770C4408542C3201940137
:10298000A501642D742D842D942D51010E940A2FD0
:102990002C9311963C93119712964C931297139681
:1029A0005C93139714966C93149715967C931597D4
:1029B00016968C93169717969C93A091E956809142
:1029C000E9562A2F30E0D901AA0FBB1FA20FB31F6F
:1029D000A75EBF4B11962D913C9190E0DC01AA0FB0
:1029E000BB1FA80FB91FA75EBF4B11968D919C917D
:1029F000D90112962D913C91DC0114968D919C91F8
:102A00002817390709F403C18090E7569090E856DB
:102A1000A091E9568A2F90E0DC01AA0FBB1FA80FF6
:102A2000B91FA75EBF4B11960D90BC91A02DD496F7
:102A30008D919C91881A990AB3E09B222091E756C8
:102A40003091E8568091E95690E0DC01AA0FBB1F57
:102A5000A80FB91FA75EBF4B11960D90BC91A02D7A
:102A6000D6968D919C91D901A81BB90BBD017370AD
:102A70004091E7565091E8568091E956282F30E072
:102A8000C901880F991F820F931F875E9F4BDC013E
:102A900011968D919C91DC01D8968D919C91481B4B
:102AA000590BDA01B370AF83B887880C991C840185
:102AB0000951114B4801D8018D919C91DB01AA0F5E
:102AC000BB1FA951B14B4D915C91BC01222457020F
:102AD0009001469F800156033209100D211D321DC1
:102AE00074033209100D211D321D112428013901F2
:102AF000A091E95678E0A79FD0011124AE0FBF1F27
:102B0000A851BE4FAC901196BC90119712962C9084
:102B1000129713963C90139714960C91149709876B
:102B200015961C9115971A8716960C91169717965D
:102B30001C91179779016201FF0CCC08DC2C7601FF
:102B40009201A3016C2D7C2D8C2D9C2D6101E984BB
:102B5000FA840E940A2F2C9311963C931197129697
:102B60004C93129713965C93139714966C93149747
:102B700015967C93159716968C93169717969C939B
:102B8000D4016D917C91AF81B885AA0FBB1FA9516B
:102B9000B14B4D915C91222457029001469F8001D8
:102BA00056033209100D211D321D74033209100D18
:102BB000211D321D1124280139018091E95618E0A8
:102BC000819FC0011124E80FF91FE05AFD4FB08129
:102BD000A181C280D380E480F580068117815301F2
:102BE0004201BB0C8808982C54019201A301682D66
:102BF000782D882D982DAB2EBA2E0E940A2F208377
:102C00003183428353836483758386839783809162
:102C1000E9568F5F8093E9568091E7569091E85688
:102C200001968093E7569093E8569091E9568091EB
:102C30000957981788F01092E956E0910140F091F9
:102C4000024080819181A281B3810196A11DB11DB5
:102C500080839183A283B3838091E7569091E85655
:102C600093708093E7569093E8562A96CDBFDEBFC7
:102C7000DF91CF91FF91EF91BF91AF919F918F9194
:102C80007F916F915F914F913F912F911F910F9184
:102C9000FF90EF90DF90CF90BF90AF909F908F907C
:102CA0007F906F905F904F903F902F900F900BBE52
:102CB0000F900FBE0F901F9018958091DF4E90914E
:102CC000E04E51CD1092C3571092C45788EE93E056
:102CD000A0E0B0E08093C5579093C657A093C75724
:102CE000B093C85780ED90E48093C1579093C2573A
:102CF00080E698E08093C9579093CA5780EF9BE095
:102D00008093CB579093CC5782E08093CD5710920D
:102D1000CE571092CF5780E090E0A8ECB2E48093B9
:102D2000FD5D9093FE5DA093FF5DB093005E1092F9
:102D3000105E1092115E8093135E9093145EA093C8
:102D4000155EB093165E1092265E1092275E8093F9
:102D5000295E90932A5EA0932B5EB0932C5E109216
:102D60003C5E10923D5EE0E0FDE581839283A383AB
:102D7000B483148A75962DE5EC3FF207B1F78CE821
:102D800098E520E03DE5FC01E25AFF4F1082815AB0
:102D90009F4F28173907B9F7ECE5F8E524E130E053
:102DA00092E081E020833183928313821482158222
:102DB000168217821086118682871386709648E5E0
:102DC000EC38F40779F7109258581092595810922D
:102DD0005A5880E090E1809356589093575880E07D
:102DE00091E080935458909355588EEF90E08093E3
:102DF000445E9093455E8DE190E08093405E9093B9
:102E0000415E8DE090E080933E5E90933F5E84E86B
:102E100090E08093465E9093475E8DEF91E08093C3
:102E2000485E9093495E1092425E1092435E84E841
:102E300090E09C01235E3F4FFC01FC5E40814F3FD0
:102E400009F461C08093425E9093435E2D3F81E020
:102E5000380744F4F901FC5E80818F3F09F450C0CB
:102E60000E94120A8AE08093C25E8BE08093C35E68
:102E70008CE08093C45E8DE08093C55E1092C65E48
:102E80008BE280934A5E82ED80934B5E8CE180936F
:102E90004C5E81E080934D5E89E180934E5E8AE9CD
:102EA00099E9AAECB2E480934F5E9093505EA093B0
:102EB000515EB093525E80E090E0A8E4B2E480936B
:102EC000535E9093545EA093555EB093565E8DEC26
:102ED0009CECACE1B1E48093B75E9093B85EA093B4
:102EE000B95EB093BA5E1092BB5E84E690E08093C8
:102EF000BC5E9093BD5E1092BE5E1092BF5E089560
:102F0000235E3F4FA3CFC9018D3F21E0920709F017
:102F100090CFA8CFCF93DF93CDB7DEB7C854D109F8
:102F2000CDBFDEBF88ED21E030E084BF209362009A
:102F300091E084BF909363009DE284BF90938000F2
:102F400093E084BF9093600080E090E22091650060
:102F500020FD3EC321E02093030A8EEF8093260AD2
:102F60008093270A9BE09093000A32E03093E605B5
:102F70002093430A8093660A8093670A9093400ADD
:102F80009093E70537E03093010B80930C0B109280
:102F90000D0B95E09093000B3093110B80931C0B5D
:102FA00010921D0B9093100B3093310B80933C0BC0
:102FB00010923D0B9093300B4FEF5FE04093AA0BC4
:102FC0005093AB0B80E88093820B1092810B4EEFF5
:102FD00050E04093AE0B5093AF0B88ED34E184BFCB
:102FE0003093680081E18093800BE0E0F6E092830B
:102FF0008EE0858380E6838390838091B000887F14
:1030000085608093B0008091B200887F8560809356
:10301000B2008FED9EE280932C0B90932D0B2093AA
:10302000250B1092210B83E08093200B789484E091
:103030008093410481E00E94AF0D8091CF5780FFC3
:1030400014C081EC97E50E942008E091C957F091E7
:10305000CA57868116828581158280E48483809197
:10306000D1578093D0571092CF571FB7F894E09163
:10307000C957F091CA57168233E0378381E493E051
:1030800080879187148680E8858380EC86832091F1
:10309000CE576091CD578091CB579091CC57FC0182
:1030A000239FE00DF11D112445915491261708F03E
:1030B0003FC0252F30E0593280F4F901EF5AFF4B21
:1030C00070817F3F51F026583F4BD901EC91B0E21F
:1030D000EB9FF0011124FC5F718371E0750F272FC6
:1030E00030E0793228F5F901EF5AFF4B70817F3FCC
:1030F000F9F0F901E658FF4BA081E0E2AE9FD00164
:103100001124BC5F2D553F4BF9010081F0E0E0E058
:10311000083030F49D01205F3F4FF901E00FF11DB1
:103120003FB7F89412967C932081286020833FBF9C
:10313000FC0103E0609FE00DF11D11243196259103
:103140003491F901FF27EE51FA4F9081832F80953A
:103150008923482B40831FBF0E941C0B87E5282E24
:103160008EE5382E87E89EE5F10100E010E020EAC8
:1031700031E44DEC5CEC6CE470E401931193219329
:10318000319344A755A766A777A78E179F07A9F77E
:1031900080E390E00E949F098823E9F0CE01019628
:1031A0000E94310629813A8137FD15C0A9014D5F82
:1031B0005F4FAAE4BEE587E090E0FC01F170FC5EA1
:1031C00060816D93019684179507B8F382E394E0CC
:1031D0002430310511F481E294E00E944D0A0E94EE
:1031E000580D80914D5E81110E94E10F8EE0809319
:1031F000050680910306809303061092B00086E0D6
:103200008093020681E080930006809100068093FF
:10321000000687E08093080660E070E0CB0150E094
:1032200040E0E1E0E0930A0620910D0620FFFCCF8C
:103230004A30510544F02091100630911106620F7A
:10324000731F811D911D4F5F5F4F4A3117E2510778
:1032500049F70E94892B20E030E44CE156E40E94BB
:10326000632D20E030EF4FE755E40E94632D9B0172
:10327000AC0166E676E686E69FE30E94632D6B016D
:103280007C0187E494E00E94020844E050E0C7011A
:10329000B6010E94010D40914F5E5091505E6091C9
:1032A000515E7091525E81E00E94E40640914F5E53
:1032B0005091505E6091515E7091525E82E00E942A
:1032C000E40640914F5E5091505E6091515E709166
:1032D000525E83E00E94E4066090494070904A404C
:1032E00080904B4090904C4069867A868B869C8675
:1032F000609156587091575890E080E00E94892B59
:103300002B013C0100E01DE520E0D101D0968D901D
:103310009D90AD90BC90D397F10161917191819195
:1033200091911F01F1E0F20FFF83D8012C9320E06F
:1033300030E040E450E40E94EA2B29853A854B8531
:103340005C850E94EA2BA30192010E94632DF80183
:103350006183728383839483158286829782A08699
:10336000B186128613861486158616860B5E1F4F4D
:103370002F812C3051F661E081E00E94C50862E0A7
:1033800082E00E94C50861E083E00E94C50862E017
:1033900084E00E94C50861E085E00E94C50862E003
:1033A00086E00E94C50861E087E00E94C50862E0EF
:1033B00088E00E94C50861E089E00E94C50862E0DB
:1033C0008AE00E94C50861E08BE00E94C50862E0C7
:1033D0008CE00E94C50882E3809346408AE0809397
:1033E00003406091B75E7091B85E8091B95E909134
:1033F000BA5E0E942B09C0924940D0924A40E092A6
:103400004B40F0924C408091BB5E8093655888237E
:1034100009F4E4C089E0809316048091BC5E909129
:10342000BD5E80935C5890935D5882E080935E58B7
:1034300081E08093665885E18093025788E090E0B0
:10344000809300579093015788EE91E0809307573F
:10345000909308571092FF5690910B5720E03DE54E
:10346000ACE8B8E580E011E0FD01E25AFF4F408191
:10347000442309F445C0482F50E012966D917C9189
:103480001397FA01EE0FFF1F4E0F5F1F475E5F4B52
:10349000FA0100810F3F81F4FB01048901110CC086
:1034A0008787148B0081E02FF0E0E75FFF4B0081FE
:1034B000FA0100838F5F9F5F1496ED90FC90159743
:1034C000E616F706E9F0482F50E0BA01660F771FBD
:1034D000460F571F475E5F4BFA0160816F3F81F4D3
:1034E000F701648961110CC08787148B6081E62F16
:1034F000F0E0E75FFF4B60818F5FFA0160839F5FC1
:10350000A15ABF4F2A173B0709F0AECF90930B5734
:103510008093FF569091FE562CE838E561E0F90162
:10352000E25AFF4F4081442319F1E82FF0E0AF0148
:10353000440F551FE40FF51F8F01075E1F4BF80165
:1035400040814F3FA9F4F90140815181FA0174890A
:1035500071110EC08787648B408150E0445F5F4BE0
:10356000FA014081F80140838F5F218332839F5F9E
:10357000215A3F4F2A173B0791F68093FF569093AD
:10358000FE56909158589923A9F080935B5820914A
:10359000184091E0980F9093FF5690E0FC01EE0FD9
:1035A000FF1FE80FF91FE75EFF4B20831092595869
:1035B00010925A588091FF568093095710E08091DD
:1035C0000A57181770F4812F0E94700F1F5FF7CFF2
:1035D000019709F0BBCC83E00E94340810921604D6
:1035E0001CCF1091095720E836E948E15BE460916F
:1035F00005407091064080910740909108400E94DC
:10360000EA2B20E030E044EF53E40E94632D0E9457
:10361000D02D6959714081099109212F30E050E086
:1036200040E00E94CD2C2093FA563093FB564093F5
:10363000FC565093FD5610920C5781E08093044045
:1036400095E19093050690910306909303061092DE
:10365000B0009091005790930206809300069091DD
:1036600000069093000690910006926090930006E9
:103670001092080690910C06916090930C0680932E
:103680000A06789410924557109246571092475761
:1036900010924857109211571092125710921357C8
:1036A0001092145760E070E080E090E40E942B09D3
:1036B000B2E02B2E312C81EC97E50E948C07892BF0
:1036C00009F4A1C081EC97E50E946A07D0900357E6
:1036D0008A3009F00CC5AD2DB0E0A758B84A1C924D
:1036E000E0917957EF53EC3308F085C00E2E000CB3
:1036F000FF0BE358F44E0C94012F5E20FB1BFB1BC9
:10370000FB1BFB1BFB1BFB1BFB1BFB1BFB1BFB1B09
:10371000FB1BFB1BFB1BFB1BFB1BFB1BFB1BFB1BF9
:10372000FB1BFB1BFB1BFB1BFB1BFB1BFB1BFB1BE9
:10373000FB1BFB1BFB1BFB1BFB1BFB1BFB1BFB1BD9
:10374000B91BED1BC11CDC1CE31CFC1CFB1B141F68
:10375000A71C0B1DB31EBB1E141FFB1B2C1FFB1B2A
:103760003A1F651FFB1BFB1B2E201D203520FB1B5A
:103770003C20F2E0DF123FC08AE797E50E94EB2988
:103780008430E1F08830E1F08930E1F48BE580931A
:103790004A5E8BEB9BE00E94020880914A5E8B326E
:1037A00099F08635A1F08B35A9F483E993E00E9466
:1037B000D90A86EB9BE00E944D0A1DC08BE2E7CF41
:1037C00086E5E5CF80E0E3CF81EB91E0F0CF84E6C2
:1037D00093E0EDCF90E080E0EACFA2E06A2ED61031
:1037E0000AC08AE797E50E94EB29019709F0ACC06F
:1037F00081E08093BE5E80E4A9E7B7E51D928A95DB
:10380000E9F71092035780910657909165589923D4
:1038100089F0882379F081E0809367580E94B90885
:10382000609368587093695880936A5890936B5866
:10383000109206578091055790917558992389F0F9
:10384000882379F081E0809377580E94B9086093CB
:1038500078587093795880937A5890937B58109247
:1038600005578091045790918558992389F08823B2
:1038700079F081E0809387580E94B9086093885856
:103880007093895880938A5890938B58109204575C
:103890002CE5E22E28E5F22E8701D12CC12C560111
:1038A00094E0AA0CBB1C9A95E1F7F501E45AF74A9B
:1038B0004F018385D80119969C91992309F436C448
:1038C000882309F433C40E94B908F401248535859E
:1038D000468557853B014C01621A730A840A950A92
:1038E000B401A301D8018D919C91B0E0A0E08417B0
:1038F0009507A607B70708F019C4B1E0CB1609F47D
:1039000003C4E2E0CE1609F405C48091080486FBE6
:10391000882780F9F501E45AF74A1386D8011A96E8
:103920009C911A97981709F401C412969C918111E1
:10393000F7C3923009F0F7C3F801278130852F5F74
:103940003F4F27833087EFC31092BE5E54CFF2E023
:103950007F2ED71050CF8AE797E50E94EB29019779
:1039600051F481E08093BF5E8091BF5E882331F087
:103970008CEA9BE020CF1092BF5EF6CF81EA9BE0FD
:103980001ACF8AE797E50E94E8296B017C010E9423
:103990002B09C092B75ED092B85EE092B95EF09209
:1039A000BA5E86E99BE00E94020842E050E0C7014F
:1039B000B6010E94010D1FCF8AE08C938AE797E53C
:1039C0000E94570A18CFE3E08E2ED81014CF8AE752
:1039D00097E50E94E8290E94CB2D162F072F6093B0
:1039E00046408EE89BE00E940208812F902F0E94A3
:1039F000D90A0E944A0AFFCE8AE797E50E94EB297E
:103A000080934B5E83E89BE00E94020880914B5EAE
:103A10000E940B0DF0CE60E270E089E797E50E940E
:103A2000132F009711F40C9434298C010957174572
:103A30007801C801992760E270E08658984A0E9490
:103A4000132FCC24C394C00E009711F40C943B297F
:103A50008C01095717456E2D81E00E94D40D7C0121
:103A6000602F8C2D0E94000E6F8B788F898F9A8F1C
:103A70006D2D81E0800F0E94000E6CA77DA78EA7A0
:103A80009FA7E114F10409F08CC023EA33E240E07F
:103A900051E46F89788D898D9A8D0E94EA2B4B01B4
:103AA0005C010CEF1DE57CE8E72E78E5F72E209110
:103AB000494030914A4040914B4050914C40C501A3
:103AC000B4010E94EA2B2B013C0160915658709181
:103AD000575890E080E00E94892B9B01AC01C30104
:103AE000B2010E94632DD80111966D937D938D9341
:103AF0009C9314972AE037ED43E25EE316966D91AE
:103B00007D918D919C9119970E94852B882321F19D
:103B1000F80115828AE097EDA3E2BEE386839783DE
:103B2000A087B18712861386148615861686D12C37
:103B300080910A57D81680F4F7018281938180170B
:103B4000910729F0848195818017910719F48D2DB3
:103B50000E94700FD394ECCF0A5E1F4F2FE5E20E48
:103B6000F11C3EE50E33130709F0A1CF6F88788C66
:103B7000898C9A8C60924F5E7092505E8092515EFA
:103B80009092525E8BE79BE00E94020860914F5E2C
:103B90007091505E8091515E9091525E42E050E093
:103BA00008CFCC24CA94CE0C6BE0762E7C1408F49B
:103BB00097C0AC2CB12C25E1C29E8001112400508D
:103BC000134A20E030E040E450E46F89788D898D1D
:103BD0009A8D0E94EA2B2091494030914A404091B1
:103BE0004B4050914C400E94EA2B2B013C016091CC
:103BF00056587091575890E080E00E94892B9B01A5
:103C0000AC01C301B2010E94632DD80111966D93DE
:103C10007D938D939C93149716962D913D914D9184
:103C20005C9119976CA57DA58EA59FA50E94852BFB
:103C3000882309F455C0F80115826CA47DA48EA4D4
:103C40009FA4668277828086918612861386148668
:103C5000158616868FE58A9D80018B9D100D112497
:103C60000457174AD801ED91FC9146815781608530
:103C70007185F801408F518F628F738F20910957A2
:103C8000A0900757B090085790904640C89E60019A
:103C90001124A501692DC6018256974A0E942D0E56
:103CA000D80112962D913C91139714968D919C9169
:103CB000159728173907A1F0ED91FC91868197811E
:103CC000A085B185F80180AB91ABA2ABB3AB2091DD
:103CD0000957A501692DC6018A54974A0E942D0EE5
:103CE000C701880F991F880F991F8C010A5B114A21
:103CF00068016F88788C898C9A8CD8011D966D929A
:103D00007D928D929C925097035C1F4F6CA47DA472
:103D10008EA49FA4D8016D927D928D929C92139750
:103D200086E79BE00E940208C7010E94D90A87EF3C
:103D300090E40E94570AF60165857685878590890B
:103D40000E94FF0C8EE69BE00E940208C7010E94C1
:103D5000D90A87EF90E40E94570AD8016D917D91AE
:103D60008D919C911BCFB1E0DB1245CD0E941C0BC5
:103D70000E94580D40CD60E270E089E797E50E940F
:103D8000132F009741F56D2D81E00E94D40D8C0119
:103D900001151105C9F101301105E9F16F89788D1F
:103DA000898D9A8D0E94D02D60935C5870935D58D8
:103DB00082E080935E5881E0809366586F89788DA9
:103DC000898D9A8D0E94CB2D6093BC5E7093BD5EF1
:103DD0000E94040B10CDFC01E957F7457F016E2FBF
:103DE00081E00E94D40D8C016D2D81E08E0D0E942A
:103DF000D40DBC01990F880B990B0E948B2B6F8BF4
:103E0000788F898F9A8FC4CF1092655810921604BC
:103E10001092BB5EC3CF81E08093655899E0909388
:103E200016048093BB5EBACF8AE797E50E94EB2920
:103E3000882379F099278034910514F08FE390E07E
:103E400080934C5E84E69BE00E94020880914C5E69
:103E5000DFCD81E090E0F4CF8AE797E50E94EB297F
:103E60008F7180934E5E89E59BE00E9402088091ED
:103E70004E5ECECDF1E0DF12BECC88E595E00E942B
:103E80004D0A80E390E00E949F09882389F0CE01CB
:103E900001960E94310689819A8197FD09C091950A
:103EA0008195910989839A83CE0101960E94EA093E
:103EB0008AE295E00E944D0A68EC70E080E090E0B4
:103EC0000E9495080C94000096CC66246394D6104A
:103ED00092CC80E295E00E944D0A80E390E00E943F
:103EE0009F09811127C019821A826FE4CE010196C1
:103EF0000E94CA0988248394912C89829A8265E45D
:103F0000CE0101960E94CA0929823A826DE4CE014F
:103F100001960E94CA0903E010E009831A836FEF3B
:103F2000CE0101960E94CA090F5F1F4F011522E0C2
:103F3000120799F74AE750E049835A8380E390E0FB
:103F40008B839C83CE0101960E94EA090AE41EE558
:103F500087E090E0D8016D918D017C01BFEFEB1AF5
:103F6000FB0A8D839E83CE0105960E94CA09C70174
:103F70008D37910579F790E080E00E949F098111CB
:103F80001AC088EF94E00E9402084AE060E072E004
:103F900080E090E00E945D0A82ED94E00E944D0A6C
:103FA00060E072E090E080E00E949A0A80ED94E088
:103FB0000E9402080CC0CE0101960E9431068B813E
:103FC0009C81019649F48FE794E00E944D0A0E947B
:103FD0004A0A8FEF94E0EFCB82E794E00E94020858
:103FE0006B817C8190E080E04AE00E945D0A09815B
:103FF0001A8117FF03C01195019511090450110989
:1040000084E694E00E940208C8010E94D90A8DE566
:1040100094E00E94020889819A8197FF04C082E59A
:1040200094E00E9402080E944A0AB80187E090E0EA
:104030000E949A0A80E594E0BBCFF2E0DF12DBCB6E
:1040400010924D5E80917A57813329F481E08093FC
:104050004D5E0E94E10F0E941A0DCDCB6624639441
:10406000D610C9CB0E941C0BC6CB772473948BE46B
:104070009BE0D710C0CB9FCB88248394D810BBCBB8
:1040800081E39BE00E944D0A0E94120AE2EEF8E5ED
:104090001082118212821382E15AFF4F3CE1A32E5B
:1040A0003BE5B32EAE16BF0699F710925F581092FB
:1040B000605810926158109262589DCBBB24B39403
:1040C000DB1099CB07E615E0F801F490FF2061F0D2
:1040D000FAE0FF1203C08DE00E941C088F2D0E94A1
:1040E0001C080F5F1F4FF0CF85E695E064CBBFE360
:1040F000BD1508F488CBED2DF0E0E758F84A808331
:10410000D394D09203577FCB80910804881F8827CF
:10411000881F00CC8091A80483FB882780F9FACB04
:10412000933009F409CCD8011A968C93BFEFCB1ABF
:10413000DB0A005F1F4FE3E0CE16D10409F0AFCBDE
:1041400080910C57882309F4B6CA10920C576090DE
:104150000B576D86862D90E006E1609EF0011124DC
:10416000E450F24A26E1833098F4348931110DC0CD
:10417000289FD001299FB00D1124A450B24A509617
:104180001D921D921D921C92539776960196EBCF2D
:1041900010910A5718AB812F90E02FE5129FD001A4
:1041A0001124A252B74A25E18C30B8F51C963C91F7
:1041B0001C9731112EC0289FF001299FF00D11246A
:1041C000E050F34A108A118A128A138AFD01EC54D6
:1041D000F1091082118212821382349610821182A8
:1041E0001282138214821582168217821D921C92EB
:1041F000119712961D921C92139714961D921D9260
:104200001D921C92179718961D921D921D921C923A
:104210001B970196A15ABF4FC7CFD70117962D9173
:104220003C9118972115310589F013968D919D9138
:104230000D90BC91A02D820F931FA11DB11DF70100
:1042400083839483A583B68317821086F0E1EF0EF3
:10425000F11C0CE8E01608E5F006F9F6209047405E
:10426000309048400CEF1DE509871A8710E000E008
:104270006D84061508F0CAC0780183E0EE0CFF1CBF
:104280008A95E1F7E20CF31CF701E058FF4F20811B
:104290003181428153816481758186819781D10109
:1042A0004D905D906D907C900E94002E4B015C01C2
:1042B000C301B2010E94892B9B01AC01C501B4016D
:1042C0000E94632DB6E1B09F9001B19F300D112483
:1042D000F901E450F24AEF83F887608B718B828B8F
:1042E000938BF701208531854285538564857585DB
:1042F00086859785D1014D905D906D907C90139748
:1043000080848F8691849AA6A284AB8EB384BF8E5C
:10431000C484CBA2D584DFA2868488A6978499A67C
:10432000CD90DD90ED90FC90AF81B88550968D904A
:104330009D90AD90BC9053978B8A9C8AAD8ABE8A23
:104340000E94FC2D4B015C01C301B2010E94892B2C
:104350009B01AC01C501B4010E94632D4B015C01BE
:104360002F853AA54B8D5F8D6BA17FA188A599A55F
:104370000E94FC2D9B01AC01C501B4010E94EA2BF7
:104380004B015C01C701B6010E94892B9B01AC0166
:10439000C501B4010E94632D9B01AC016B897C892E
:1043A0008D899E890E94FE2CEF81F885608B718B30
:1043B000828B938B60897189828993890E94A92E4F
:1043C000AF81B88550966D937D938D939C93539751
:1043D00050966D917D918D919C915397E985FA85C9
:1043E00021813281438154810E94EA2BAF81B885BB
:1043F00050966D937D938D939C9353970F5F1F4FB2
:10440000E985FA857696E987FA8732CFD101149645
:104410006D917D918D919C9117974D905D906D90D0
:104420007C9010910957C0900757D09008570E9470
:10443000892B20E836E948E15BE40E94EA2B4B0136
:104440005C01A12FB0E0A30192010E94BD2C9B0151
:10445000AC01F12CE12CC701B6010E94F22E0E94A2
:10446000892B9B01AC01C501B4010E94632D6093AF
:104470000D5770930E5780930F57909310570EED72
:1044800018E50D871E870CE818E50F8318871AA614
:104490002696CFAE26972796DFAE27972896EFAEC3
:1044A00028972996FFAE299718A96AA4161509F42A
:1044B000ADC3AF81B8850D90BC91A02DA987BA87F7
:1044C0001F968C91B8E08B9F80011124020D131D63
:1044D000F801E058FF4F208131814281538164818E
:1044E000758186819781F10180809180A280B3805F
:1044F0000E94002E6B017C01C501B4010E94892B32
:104500009B01AC01C701B6010E94632DA985BA8544
:1045100050966D937D938D939C935397F8012085CE
:104520003185428553856485758586859785D1015A
:104530004D905D906D907C90139780848F869184D0
:104540009B8EA284AF8EB384BBA2C484CFA2D58439
:10455000D8A6E684E9A6F784FBA6CD90DD90ED9081
:10456000FC90A985BA8550968D909D90AD90BC9099
:1045700053978B8A9C8AAD8ABE8A0E94FC2D4B0180
:104580005C01C301B2010E94892B9B01AC01C501F2
:10459000B4010E94632D4B015C012F853B8D4F8D33
:1045A0005BA16FA178A589A59BA50E94FC2D9B010D
:1045B000AC01C501B4010E94EA2B4B015C01C701AB
:1045C000B6010E94892B9B01AC01C501B4010E9478
:1045D000632D9B01AC016B897C898D899E890E942A
:1045E000FE2CE985FA85608B718B828B938B6089B9
:1045F0007189828993890E94A92EA985BA855096CE
:104600006D937D938D939C93539750966D917D916F
:104610008D919C91539711966D907D908D909C906B
:1046200014976B8E7C8E8D8E9E8EA40193010E94BA
:10463000EA2BE985FA85608B718B828B938BF8016D
:10464000E850FF4F2081318142815381648175811F
:1046500086819781E858FF4F60806F8E71807BA2C2
:1046600082808FA2938098A6A480A9A6B580BBA6BD
:10467000C680C9AAD780DAAAD1018D909D90AD904D
:10468000BC90F801F085FBABD8011996BC91BCAB8E
:10469000F801F285FDABD8011B96BC91BEABF801C9
:1046A000F485FFABD8011D96BC91B8AFF801F68533
:1046B000F9AFD8011F96BC91BAAFF101408051808B
:1046C00062807380AF81B88512960D90BC91A02D49
:1046D000AB8BBC8B1F96EC91F0E03196B3E0EE0F04
:1046E000FF1FBA95E1F7E20DF31DC080CBAED1807C
:1046F000DCAEE280EDAEF380FEAEC480CFAED580FE
:104700002196DFAE2197E6802296EFAE2297F780C2
:104710002396FFAE2397D101CD90DD90ED90FC90D4
:10472000CF86D88AE98AFA8A0E94FC2DEF81F88523
:1047300022A133A144A155A10E94EA2B6B017C0167
:104740002F8D3BA14FA158A569A57BA589A99AA941
:104750000E94FC2DAF81B88596962D913D914D918B
:104760005C9199970E94EA2B9B01AC01C701B601AD
:104770000E94FF2C6B017C01C501B401CAD79B01CB
:10478000AC01C701B6010E94632D6B017C012BA90E
:104790003CA94DA95EA96FA978AD89AD9AAD0E94DB
:1047A000FC2D4B015C01C301B201B3D79B01AC01ED
:1047B000C501B4010E94632D4B015C012BAD3CADE2
:1047C0004DAD5EAD6FAD21967FAD219722968FAD39
:1047D000229723969FAD23970E94FC2D9B01AC014D
:1047E000C501B401F7D74B015C016F8578898989D0
:1047F0009A898FD79B01AC01C501B4010E94632D3A
:104800009B01AC01C701B6010E94FE2C6B017C012B
:10481000EB89FC8921813281438154816B8D7C8DB0
:104820008D8D9E8DD7D7A7019601D4D76F8F78A392
:1048300089A39AA3AF81B88514960D90BC91A02D41
:10484000AF87B88B6B887C8820E030E0A9016A16BE
:104850007B0609F4F9C0F801E851FE4F70807FA291
:10486000818088A6928099A6A380ABA6B480B9AABD
:10487000C580CAAAD680DBAAE780ECAAE858FF4F19
:104880002081318142815381648175818681978144
:10489000D1018D909D90AD90BC90F801F085FDAB5D
:1048A000D8011996BC91BEABF801F285FFABD801D7
:1048B0001B96BC91B8AFF801F485F9AFD8011D96ED
:1048C000BC91BAAFF801F685FBAFD8011F96BC9139
:1048D000BCAFF1014080518062807380AF85B889A0
:1048E0001F96EC91F0E03196A3E0EE0FFF1FAA9522
:1048F000E1F7E20DF31DC080CDAED180DEAEE280E7
:10490000EFAEF3802196FFAE2197048122960FAF80
:104910002297158123961FAF2397C6802496CFAE8A
:104920002497D7802596DFAE2597D101ED90FD9095
:104930000D911C91EBA2FCA20DA31EA30E94FC2DC5
:10494000EF81F885FE96208131814281538142D7E3
:104950006B017C012FA138A549A55BA569A97AA99E
:104960008BA99CA90E94FC2DEF81F88522AD33AD67
:1049700044AD55AD2FD79B01AC01C701B6010E94D4
:10498000FF2C6B017C01C501B401C3D69B01AC01B6
:10499000C701B6010E94632D6B017C012DA93EA9C0
:1049A0004FA958AD69AD7AAD8BAD9CAD0E94FC2D81
:1049B0004B015C01C301B201ACD69B01AC01C50146
:1049C000B4010E94632D4B015C012DAD3EAD4FAD96
:1049D00021965FAD219722966FAD229723967FADEA
:1049E000239724968FAD249725969FAD25970E94F7
:1049F000FC2D9B01AC01C501B401ECD64B015C015F
:104A00006BA17CA18DA19EA184D69B01AC01C501A7
:104A1000B4010E94632D9B01AC01C701B601EED722
:104A20006B017C01AF85B88911962D913D914D9117
:104A30005C9114976B8D7C8D8D8D9E8DCBD6A7014F
:104A40009601C8D69B01AC016F8D78A189A19AA16E
:104A5000D5D74B015C016B887C88CF84D88820E057
:104A600030E0A9016C147D0439F4D30150962D91E6
:104A70003D914D915C915397E985FA8560897189E3
:104A800082899389A7D62B013C01AC019B01C5010A
:104A9000B4010E94632D6B017C0126E636E646E8F0
:104AA0005FE30E94A12E18160CF4A9C026E636E694
:104AB00046E85FEBC701B60128D687FDA0C0A70175
:104AC0009601C701B6010E94E72E811198C0AD85FD
:104AD000BE851896CD92DD92ED92FC921B9720E058
:104AE00030E040E05FE3C501B40189D70E94CB2DDF
:104AF000AD85BE856D937C9320E030E040E05FE3C0
:104B0000C301B2017CD70E94CB2DED85FE85628367
:104B10007383D1016D917D918D919C911091095775
:104B2000F8D5A501940156D66B017C0126966FAD90
:104B3000269727967FAD279728968FAD2897299699
:104B40009FAD2997E6D59B01AC01C701B60142D6BE
:104B50006B017C01612F70E090E080E0DCD59B016F
:104B6000AC01C701B60136D620E836E948E15BE47E
:104B7000AAD7EF81F88526813781408551853FD7B7
:104B80006B017C0120E030E041E655E49CD70E94B7
:104B9000CB2D072E000C880B990BAD85BE85149686
:104BA0000D911D912D913C911797060F171F281FEE
:104BB000391FFD010483158326833783ACD520E09C
:104BC00030E041E655E406D69B01AC01C701B601D1
:104BD00015D7AF81B88516966D937D938D939C9371
:104BE00019970AA50F5F0AA7A15ABF4FAF83B887CD
:104BF0000D851E85015A1F4F0D871E8755CCED85EB
:104C0000FE85108611861286138669CF80915858CA
:104C1000882309F44AC0E0915B58F0E0319623E024
:104C2000EE0FFF1F2A95E1F7E20DF31D2081318180
:104C3000428153816481758186819781D1018D90F4
:104C40009D90AD90BC90D8D76B017C01C501B4019B
:104C500060D59B01AC01C701B60135D76B017C0162
:104C600060915658709157587695679590E080E01E
:104C700050D59B01AC01C701B601C1D620E030E0A0
:104C800040E05FE3BCD68CD76093595870935A5874
:104C9000C10188529D4F8215930561F0F101108288
:104CA00081010F5F1F4F1801F6CF109259581092D3
:104CB0005A58EECF8091455790914657A09147574B
:104CC000B0914857892B8A2B8B2B99F480E00E9456
:104CD000AF0D65E070E080E090E00E949508609183
:104CE000B75E7091B85E8091B95E9091BA5E0E9495
:104CF0002B098091455790914657A0914757B09105
:104D000048570196A11DB11D809345579093465772
:104D1000A0934757B093485760910C5E70910D5E19
:104D200080910E5E90910F5E20E030E048EC52E4FE
:104D300051D531D76093495770934A576091225E9D
:104D40007091235E8091245E9091255E20E030E09A
:104D500048EC52E43FD51FD760934B5770934C57A4
:104D60006091385E7091395E80913A5E90913B5EC1
:104D700020E030E048EC52E42DD50DD760934D573C
:104D800070934E5781E00E940D0980934F57909386
:104D9000505782E00E940D098093515790935257CB
:104DA00083E00E940D09809353579093545784E0F9
:104DB0000E940D09809355579093565785E00E94A5
:104DC0000D09809357579093585786E00E940D091C
:104DD0008093595790935A5781E00E94EE08609350
:104DE0005B5770935C5780935D5790935E5782E05A
:104DF0000E94EE0860935F577093605780936157ED
:104E00009093625783E00E94EE086093635770931B
:104E10006457809365579093665784E00E94EE082C
:104E200060936757709368578093695790936A5758
:104E300085E00E94EE0860936B5770936C578093E7
:104E40006D5790936E5786E00E94EE0860936F57FF
:104E500070937057809371579093725780915F58F9
:104E600090916058A0916158B091625880937357A7
:104E700090937457A0937557B09376578091595873
:104E800090915A58809377579093785780914D5EC0
:104E9000882359F060914C5E6093C05E89E30E9464
:104EA000720685E497E50E94A20B809111579091BC
:104EB0001257A0911357B09114570196A11DB11D1F
:104EC0008093115790931257A0931357B093145790
:104ED0006091225E7091235E8091245E9091255EA8
:104EE00020E030E048EC52E475D455D66093155775
:104EF000709316576091385E7091395E80913A5E7A
:104F000090913B5E20E030E048EC52E463D443D61D
:104F1000609317577093185787E00E940D0980938C
:104F2000195790931A5788E00E940D0980931B57D8
:104F300090931C5789E00E940D0980931D57909310
:104F40001E578AE00E940D0980931F5790932057A7
:104F50008BE00E940D0980932157909322578CE09B
:104F60000E940D09809323579093245787E00E9455
:104F7000EE08609325577093265780932757909398
:104F8000285788E00E94EE086093295770932A57AB
:104F900080932B5790932C5789E00E94EE086093E2
:104FA0002D5770932E5780932F57909330578AE048
:104FB0000E94EE08609331577093325780933357B5
:104FC000909334578BE00E94EE08609335577093AE
:104FD000365780933757909338578CE00E94EE08ED
:104FE0006093395770933A5780933B5790933C574F
:104FF00080916F5890917058A0917158B0917258EB
:1050000080933D5790933E57A0933F57B09340579E
:1050100080917F5890918058A0918158B09182588A
:105020008093415790934257A0934357B09344576E
:1050300068E770E080E090E00E94950880914D5E06
:10504000882361F060914C5E6F5F6093C05E89E37E
:105050000E94720681E197E50E94A20B64E670E06F
:1050600080E090E00E9495088091BF5E882309F45B
:1050700080C086EE9BE00E940208609145577091C7
:10508000465780914757909148574AE00E945D0AE1
:105090008FED9BE00E94020860910C5E70910D5EA6
:1050A00080910E5E90910F5E0E94FF0C88ED9BE058
:1050B0000E9402086091225E7091235E8091245EBE
:1050C0009091255E0E94FF0C81ED9BE00E940208FA
:1050D0006091385E7091395E80913A5E90913B5E4E
:1050E0000E94FF0C8BEC9BE00E94020860910D5720
:1050F00070910E5780910F57909110570E94FF0C9E
:10510000C12CD12C7601C39487EC9BE00E9402084D
:105110004AE0C701B6010E945D0A8CE091E40E945A
:10512000570A8C2D0E940D090E94D90A1FEFC11A3F
:10513000D10AE10AF10A2DE0C216D104E104F1041A
:1051400019F785EC9BE00E944D0A81E00E94AF0DAB
:1051500062E370E080E090E00E94950880E00E94A9
:10516000AF0D68EC70E080E090E00E9495080C9430
:10517000581B8FE091E40E94570A60914557709147
:10518000465780914757909148574AE00E945D0AE0
:1051900084E191E40E94570A86E191E40E94570A53
:1051A00060910C5E70910D5E80910E5E90910F5E2D
:1051B0000E94FF0C84E191E40E94570A8AE191E485
:1051C0000E94570A6091225E7091235E8091245E56
:1051D0009091255E0E94FF0C84E191E40E94570AA1
:1051E0008EE191E40E94570A6091385E7091395EB9
:1051F00080913A5E90913B5E0E94FF0C84E191E4C5
:105200000E94570A82E291E40E94570A60910D576A
:1052100070910E5780910F57909110570E94FF0C7C
:10522000C12CD12C7601C39485E291E40E94570AE7
:105230004AE0C701B6010E945D0A8DE091E40E9438
:10524000570A8C2D0E940D090E94D90A3FEFC31AFC
:10525000D30AE30AF30A4DE0C416D104E104F104D1
:1052600019F70E944A0A71CF6D2D81E00E94D40D7A
:105270007C010C94411D602F81E00E94D40D7C01C3
:105280006D2D8C2D0E94000E6F8B788F898F9A8FD9
:105290000C94411D8F929F92AF92BF92CF92DF925A
:1052A000EF92FF92CF93DF93EC01688179818A813D
:1052B0009B81611571058105910521F464E279ED09
:1052C0008BE597E02DE133EF41E050E03AD349011F
:1052D0005A019B01AC01A7EAB1E44FD36B017C01F9
:1052E000ACEEB4EFA501940154D3C60ED71EE81E50
:1052F000F91EF7FE06C081E0C81AD108E10880E86F
:10530000F80AC882D982EA82FB82C701B6019F7778
:10531000DF91CF91FF90EF90DF90CF90BF90AF9053
:105320009F908F9008958F929F92AF92BF92CF924D
:10533000DF92EF92FF9260914D4070914E408091CC
:105340004F4090915040611571058105910521F400
:1053500064E279ED8BE597E02DE133EF41E050E039
:10536000F0D249015A019B01AC01A7EAB1E405D38F
:105370006B017C01ACEEB4EFA50194010AD3C60E1B
:10538000D71EE81EF91EF7FE06C081E0C81AD10834
:10539000E10880E8F80AC0924D40D0924E40E09279
:1053A0004F40F0925040C701B6019F77FF90EF90B9
:1053B000DF90CF90BF90AF909F908F9008956093B3
:1053C0004D4070934E4080934F40909350400895CD
:1053D0006627772725C0FC0188279927E894219123
:1053E0002032E9F3293010F02E30C8F32B3239F097
:1053F0002D3231F4689403C00BD0820F911D21919E
:1054000020532A30C8F31EF4909581959F4F08953C
:105410007AE0979F902D879F802D910D11240895FC
:105420008F929F92AF92BF92CF92DF92EF92FF92B4
:105430000F931F93CF93DF935C017B01611571057F
:1054400019F0DB018D939C9385010F5F1F4FF501D0
:10545000D0818D2F90E039D16C01892BA9F5DD32F7
:10546000A9F50F5F1F4FD5011196DC91C1E05801DE
:10547000F1E0AF1AB10843E050E06CEF72E0C50113
:105480002CD1892B61F5680182E0C80ED11C45E062
:1054900050E067EF72E0C60120D1892B21F468014A
:1054A00097E0C90ED11CE114F10419F0D701CD9297
:1054B000DC9260E070E080E89FEFC111F9C060E02D
:1054C00070E080E89FE7F4C05801BECFDB3229F4DA
:1054D00085010E5F1F4FF501D181C0E0C8CF43E0C9
:1054E00050E064EF72E0C501F8D0892BE9F0F801D3
:1054F00010E000E020E030E0A9015F01B0ED8B2E6C
:105500008D0E89E08815C0F19C2E689491F88C2F3F
:105510008870C2FF16C0811102C00F5F1F4F319605
:10552000D501DC91C92DE9CFE114F10429F00E5F1A
:105530001F4FF7010083118360E070E080EC9FE76C
:10554000B7C0882311F001501109A5E0B0E015D2D1
:105550009B01AC01220F331F441F551F280D311D25
:10556000411D511D283999E93907490799E1590722
:10557000B0F2C6609C2ED3CFAEEF8A1206C0C3FD38
:105580003CC09C2E689493F8CACFDF7DD534A9F532
:1055900080818D3239F4C061DF011296818162E031
:1055A00070E006C0DF018B32C1F3119661E070E05C
:1055B00080535D01A61AB70A8A30F8F4E0E8CE16E7
:1055C000ECE0DE065CF4B601660F771F660F771F0E
:1055D000C60ED71ECC0CDD1CC80ED11C5D01FFEF22
:1055E000AF1ABF0A8C9180538A3098F1C4FF03C070
:1055F000D194C194D1080C0D1D1DC1FF09C0E11447
:10560000F10431F081E0A81AB108D701AD92BC9243
:10561000CA01B9017ED0C370C33009F490584B0160
:105620005C0120E030E0A90170D0882309F43EC07D
:10563000CBE2D3E017FF05C0119501951109C3E135
:10564000D3E06E01B8E1CB1AD10880E2E82EF12C4C
:105650000EC0D501B3CFFE012591359145915491EE
:105660000E191F09C501B401B5D04B015C01D5016C
:10567000C4010E151F057CF72497F594E794CC160A
:10568000DD06A9F78A2F880F8B2F881F8F3F41F0E7
:1056900020E030E0A901C501B40137D0811106C076
:1056A00082E290E08093C75E9093C85EC501B4012A
:1056B000DF91CF911F910F91FF90EF90DF90CF90EE
:1056C000BF90AF909F908F9008959111E6C0803267
:1056D00019F089508550D0F70895FB01DC01415045
:1056E000504088F08D9181341CF08B350CF4805E35
:1056F000659161341CF06B350CF4605E861B6111A2
:1057000071F3990B0895881BFCCF40D008F481E019
:105710000895E89409C097FB3EF4909580957095A4
:1057200061957F4F8F4F9F4F9923A9F0F92F96E9ED
:10573000BB279395F695879577956795B795F11162
:10574000F8CFFAF4BB0F11F460FF1BC06F5F7F4FFF
:105750008F4F9F4F16C0882311F096E911C0772311
:1057600021F09EE8872F762F05C0662371F096E81A
:10577000862F70E060E02AF09A95660F771F881FE9
:10578000DAF7880F9695879597F90895990F00088D
:10579000550FAA0BE0E8FEEF16161706E807F90703
:1057A000C0F012161306E407F50798F0621B730B9E
:1057B000840B950B39F40A2661F0232B242B252B1F
:1057C00021F408950A2609F4A140A6958FEF811DC2
:1057D000811D08950BD07BC06CD028F071D018F0DB
:1057E000952309F05DC062C01124A5C081D0A0F34B
:1057F000959FD1F3950F50E0551F629FF001729F66
:10580000BB27F00DB11D639FAA27F00DB11DAA1F84
:10581000649F6627B00DA11D661F829F2227B00DD1
:10582000A11D621F739FB00DA11D621F839FA00D5C
:10583000611D221F749F3327A00D611D231F849FAC
:10584000600D211D822F762F6A2F11249F57504003
:105850008AF0E1F088234AF0EE0FFF1FBB1F661F9E
:10586000771F881F91505040A9F79E3F510570F057
:1058700017C061C05F3FECF3983EDCF386957795E7
:105880006795B795F795E7959F5FC1F7FE2B880F52
:10589000911D9695879597F90895992788270895DA
:1058A00097F99F6780E870E060E008959FEF80ECD3
:1058B000089500240A941616170618060906089576
:1058C00000240A9412161306140605060895092EDC
:1058D0000394000C11F4882352F0BB0F40F4BF2B4B
:1058E00011F460FF04C06F5F7F4F8F4F9F4F08958B
:1058F00057FD9058440F551F59F05F3F71F0479581
:10590000880F97FB991F61F09F3F79F08795089565
:10591000121613061406551FF2CF4695F1DF08C084
:10592000161617061806991FF1CF869571056105A1
:1059300008940895E894BB2766277727CB0197F949
:105940000895052E97FB16F400940FD057FD05D04F
:1059500024D007FC02D046F408C0509540953095FD
:1059600021953F4F4F4F5F4F0895909580957095CB
:1059700061957F4F8F4F9F4F089531D0A59F900D18
:10598000B49F900DA49F800D911D11240895B7FF21
:10599000F4CFF3DF821B930B0895A1E21A2EAA1B0A
:1059A000BB1BFD010DC0AA1FBB1FEE1FFF1FA217CF
:1059B000B307E407F50720F0A21BB30BE40BF50BCC
:1059C000661F771F881F991F1A9469F76095709555
:1059D000809590959B01AC01BD01CF010895A29FD8
:1059E000B001B39FC001A39F700D811D1124911DB3
:1059F000B29F700D811D1124911D08955058BB2731
:105A0000AA270ED064CF55DF30F05ADF20F031F4F2
:105A10009F3F11F41EF44ACF0EF4E095E7FB40CF10
:105A2000E92F66DF80F3BA176207730784079507CB
:105A300018F071F49EF57ECF0EF4E0950B2EBA2F80
:105A4000A02D0B01B90190010C01CA01A001112484
:105A5000FF27591B99F0593F50F4503E68F11A1630
:105A6000F040A22F232F342F4427585FF3CF4695C1
:105A700037952795A795F0405395C9F77EF41F16E3
:105A8000BA0B620B730B840BBAF09150A1F0FF0FAD
:105A9000BB1F661F771F881FC2F70EC0BA0F621F99
:105AA000731F841F48F4879577956795B795F79589
:105AB0009E3F08F0B3CF9395880F08F09927EE0F1B
:105AC0009795879508950CD002CFFADE40F0F1DE6D
:105AD00030F021F45F3F19F0E3CE51112CCFE6CE28
:105AE00007DF98F39923C9F35523B1F3951B550BA1
:105AF000BB27AA2762177307840738F09F5F5F4FA1
:105B0000220F331F441FAA1FA9F333D00E2E3AF0E1
:105B1000E0E830D091505040E695001CCAF729D0FB
:105B2000FE2F27D0660F771F881FBB1F261737074A
:105B30004807AB07B0E809F0BB0B802DBF01FF277A
:105B400093585F4F2AF09E3F510568F0A9CEF3CEDF
:105B50005F3FECF3983EDCF3869577956795B795B4
:105B6000F7959F5FC9F7880F911D9695879597F9CF
:105B70000895E1E0660F771F881FBB1F6217730748
:105B80008407BA0720F0621B730B840BBA0BEE1F5D
:105B900088F7E095089504D06894B111CCCE0895AB
:105BA000AFDE88F09F5790F0B92F9927B751A0F03A
:105BB000D1F0660F771F881F991F1AF0BA95C9F7A1
:105BC00012C0B13081F0B6DEB1E00895B3CE672FD8
:105BD000782F8827B85F39F0B93FCCF38695779551
:105BE0006795B395D9F73EF490958095709561953A
:105BF0007F4F8F4F9F4F089597FB0EF47BD001C0CE
:105C0000E894F92F96EBFF2381F012161306140681
:105C1000440B9395F69587957795679557954040F2
:105C2000FF23B9F71BC099270895882351F4985092
:105C3000D2F7872B762F652F542F432F322F20E05A
:105C4000B1F3121613061406440B88233AF09A9502
:105C5000440F551F661F771F881FCAF755234AF444
:105C6000440F551F11F460FF04C06F5F7F4F8F4FCB
:105C70009F4F880F9695879597F908954BD080F0A0
:105C80009F3740F491110EF056CE60E070E080E84E
:105C90009FEB089526F41B16611D711D811D01C027
:105CA0001BC0882371F4772321F09850872B762F1F
:105CB00007C0662311F499270DC09051862B70E020
:105CC00060E02AF09A95660F771F881FDAF7880F31
:105CD0009695879597F908959F3F31F0915020F45C
