:100200000EC5000036C5000034C500000C944C112A
:1002100030C500002EC500002CC500002AC5000016
:100220000C948E1126C5000024C5000022C50000D4
:1002300020C500001EC500001CC500001AC5000036
:1002400018C5000016C5000014C5000012C5000046
:1002500010C500000EC500000CC500000AC5000056
:1002600008C5000006C500000C94AA1102C50000D4
:1002700000C50000FEC40000FCC400000C94541132
:10028000F8C40000F6C40000F4C400000C947C1113
:10029000F0C40000EEC40000ECC40000EAC400009A
:1002A000E8C40000E6C40000E4C40000E2C40000AA
:1002B000E0C40000DEC40000DCC40000DAC40000BA
:1002C000D8C40000D6C40000D4C40000D2C40000CA
:1002D000D0C400000C94DE100C94D9100C94E310E0
:1002E000C8C40000C6C40000C4C40000C2C40000EA
:1002F000C0C400004E414E494E495459494E46CD66
:10030000CCCC3D0AD7233C17B7D13877CC2B3295CC
:1003100095E6241FB14F0A000020410000C84200AA
:10032000401C4620BCBE4CCA1B0E5AAEC59D747004
:100330006861736500766F6C74616765203D2000AD
:10034000656D6F6E547834006861726477617265B0
:10035000203D200076657273696F6E203D20006637
:1003600069726D77617265203D20656D6F6E5F44C7
:10037000425F364354006A736F6E203D206F66669D
:10038000006A736F6E203D206F6E00646174616C53
:100390006F67203D20002C20694C65616400694333
:1003A000616C007643616C203D20004A65654C69B4
:1003B0006220436C6173736963002C207266466F20
:1003C000726D6174203D20002C207266506F77653D
:1003D00072203D20002C2072664E6F6465203D2007
:1003E00000204D487A2C20726647726F7570203D50
:1003F00020005246203D206F6E2C20726642616EB6
:1004000064203D20005246203D206F6666006D73DB
:10041000002C2070756C7365506572696F64203DA7
:1004200020006F66660070756C7365203D20004E7D
:100430006F20454550524F4D20636F6E66696700CF
:100440004C6F6164656420454550524F4D20636F89
:100450006E666967007672656661203D20000A005D
:10046000202868696464656E292E002062797465AD
:1004700073002C20446174612073697A653A20000E
:10048000205369676E61747572653A20004E6F2063
:100490006461746120626C6F636B20666F756E645B
:1004A000202D20454550524F4D206170706561727E
:1004B0007320746F20626520666F726D617474655D
:1004C0006420746F204F454D205374616E646172D7
:1004D000642062757420756E757365642E000A0061
:1004E0002062797465732C206E6F7420666F726D54
:1004F000617474656420746F204F454D205374619E
:100500006E646172640053697A653A2000446F6ECC
:10051000652E204E657720636F6E66696720736174
:1005200076656420746F20454550524F4D005361ED
:1005300076696E672E2E2E00536B65746368207784
:10054000696C6C206E6F77207265737461727420B1
:100550007573696E672064656661756C7420636F7E
:100560006E6669672E00526573657474696E672ED6
:100570002E2E0020000A417661696C61626C652054
:10058000636F6D6D616E64733A0A6C09092D206C9E
:10059000697374207468652073657474696E677319
:1005A0000A7209092D20726573746F726520736B6E
:1005B000657463682064656661756C74730A730999
:1005C000092D20736176652073657474696E677395
:1005D00020746F20454550524F4D0A7609092D2051
:1005E00073686F77206669726D77617265207665D2
:1005F0007273696F6E0A7A09092D207A65726F200D
:10060000656E657267792076616C7565730A780925
:10061000092D20657869742C206C6F636B20616EE6
:100620006420636F6E74696E75650A3F09092D2039
:1006300073686F77207468697320746578742061BB
:100640006761696E0A0A773C783E09092D20747546
:10065000726E2052464D20576972656C6573732027
:1006600064617461206F66663A2078203D203020F6
:100670006F72206F6E3A2078203D20310A623C6E06
:100680003E09092D2073657420722E662E2062614A
:100690006E64206E203D20612073696E676C65205A
:1006A0006E756D6572616C3A2034203D20343333B1
:1006B0004D487A2C2038203D203836384D487A2C49
:1006C0002039203D203931354D487A20286D617917
:1006D00020726571756972652068617264776172F4
:1006E00065206368616E6765290A703C6E6E3E091D
:1006F000092D207365742074686520722E662E2083
:10070000706F7765722E206E6E202D20616E2069CD
:100710006E74656765722030202D2033312072653C
:1007200070726573656E74696E67202D3138206450
:10073000426D20746F202B31332064426D2E204493
:10074000656661756C743A20323520282B37206439
:10075000426D290A673C6E6E6E3E092D20736574EA
:10076000204E6574776F726B2047726F7570202012
:100770006E6E6E202D20616E20696E7465676572E5
:1007800020284F454D2064656661756C74203D20BE
:10079000323130290A6E3C6E6E3E09092D20736598
:1007A00074206E6F6465204944206E3D20616E2088
:1007B000696E746567657220287374616E64617216
:1007C00064206E6F646520696473206172652031F6
:1007D0002E2E3630290A0A643C78782E783E092D70
:1007E0002078782E78203D206120666C6F617469D6
:1007F0006E6720706F696E74206E756D6265722011
:10080000666F722074686520646174616C6F6767DD
:10081000696E6720706572696F640A633C6E3E0999
:10082000092D206E203D203020666F72204F4646F5
:100830002C206E203D203120666F72204F4E2C20E0
:10084000656E61626C6520766F6C746167652C20E3
:1008500063757272656E74202620706F77657220E2
:10086000666163746F722076616C75657320746F56
:100870002073657269616C206F7574707574206681
:100880006F722063616C6962726174696F6E2E2091
:100890000A6A3C6E3E09092D207475726E204A5317
:1008A0004F4E2053657269616C20666F726D617482
:1008B000206F6E20283129206F72206F66662028F5
:1008C00030292E0A663C78783E09092D2078782058
:1008D0003D20746865206C696E652066726571756F
:1008E000656E637920696E20487A3A206E6F726D6A
:1008F000616C6C7920656974686572203530206F91
:10090000722036300A6B3C783E203C79792E793E55
:10091000203C7A7A2E7A3E0A09092D2043616C69BF
:10092000627261746520616E20616E616C6F6775C3
:100930006520696E707574206368616E6E656C3ACF
:100940000A0909202078203D20612073696E676CB8
:1009500065206E756D6572616C3A2030203D2076A1
:100960006F6C746167652063616C69627261746940
:100970006F6E2C2031203D206374312063616C69DF
:1009800062726174696F6E2C2032203D2063743274
:100990002063616C6962726174696F6E2C2065748A
:1009A000630A0909202079792E79203D206120668B
:1009B0006C6F6174696E6720706F696E74206E75FC
:1009C0006D62657220666F722074686520766F6C48
:1009D000746167652F63757272656E742063616CF4
:1009E0006962726174696F6E20636F6E7374616E99
:1009F000740A090920207A7A2E7A203D2061206627
:100A00006C6F6174696E6720706F696E74206E75AB
:100A10006D62657220666F7220746865207068610F
:100A200073652063616C6962726174696F6E2066C0
:100A30006F72207468697320632E742E20287A20C8
:100A40006973206E6F74206E65656465642C206F19
:100A5000722069676E6F72656420696620737570B5
:100A6000706C6965642C207768656E2078203D2065
:100A700030290A09092020652E672E206B3020328C
:100A800035362E380A0909202020202020206B31FD
:100A90002039302E3920322E30300A6D3C783E20FD
:100AA0003C79793E092D206D657465722070756CF6
:100AB000736520636F756E74696E673A0A09092061
:100AC000202078203D203020666F72204F46462C33
:100AD0002078203D203120666F72204F4E2C203C24
:100AE00079793E203D20616E20696E74656765727C
:100AF00020666F72207468652070756C7365206D58
:100B0000696E696D756D20706572696F6420696EBC
:100B1000206D732E202879206973206E6F74206EEB
:100B200065656465642C206F722069676E6F7265FD
:100B300064207768656E2078203D2030290A0045C2
:100B40006E657267792076616C7565732073657464
:100B500020746F207A65726F00436F6E74696E75D2
:100B6000696E672E2E2E007266506F776572203D7B
:100B7000200072664E6F6465203D20002C20694C79
:100B8000656164006943616C007643616C203D20BF
:100B900000726647726F7570203D20006672657145
:100BA000203D2000646174616C6F67203D20006A05
:100BB000736F6E203D206F6666006A736F6E203D16
:100BC000206F6E00204D487A00726642616E64208C
:100BD0003D20002C7066002C49002C70756C7365EC
:100BE0003A002C45002C50002C56004D53473A003B
:100BF0007D002C2270756C7365223A002C22450012
:100C00002C2250002C2256007B224D5347223A00C2
:100C10000A0000080A400CFFC000C000FC151124A7
:100C20001FBECFEFCDBFDFE7DEBF11E4A0E0B0E431
:100C3000E6ECF3E600E00BBF02C007900D92A03691
:100C4000B107D9F72EE5A0E6B1E401C01D92A03F9F
:100C5000B207E1F716E0CFE0D6E004C02197FE012D
:100C60000E94B531CE30D107C9F70E9433170C94DA
:100C7000E131C6CA0000809364098091630987FF4F
:100C8000FCCF8091640908952D98F4DF80E0F2DFB5
:100C90002D9A0895CF93C62F2D988068EBDF8C2F67
:100CA000E9DF2D9ACF910895CF939091ED5E98173B
:100CB00091F0C82F81E0E8DF837E682F6C2B81E004
:100CC000E9DF8091ED5E811104C087E2DDDF87FFFF
:100CD000F8CFC093ED5ECF910895CF93DF93EC01F1
:100CE0008881882321F06981D5DF2296F9CFDF91B1
:100CF000CF910895CF92DF92EF92FF92CF93DF933F
:100D00006A01815096E1899FE0011124C950D24ABD
:100D1000888323EA33E240E051E4CB01B6010E942C
:100D2000AD2E2091494030914A4040914B40509126
:100D30004C400E94AD2E6B017C0160915158709126
:100D4000525890E080E00E944C2E9B01AC01C701FC
:100D5000B6010E94263069837A838B839C831D822F
:100D60008AE097EDA3E2BEE38E839F83A887B987CD
:100D70001A861B861C861D861E86DF91CF91FF90EA
:100D8000EF90DF90CF900895AF92BF92CF92DF9215
:100D9000EF92FF920F931F93CF93DF936C017B0130
:100DA0008B01040F151FEB015E01AE18BF08C017C1
:100DB000D10759F06991D601ED91FC910190F08134
:100DC000E02DC6010995892B79F7C501DF91CF91F7
:100DD0001F910F91FF90EF90DF90CF90BF90AF9059
:100DE0000895FC0155894689252F30E0842F90E035
:100DF000821B930B541710F0CF9608950197089516
:100E0000FC0193898489981761F0A489AE0FBF2FE4
:100E1000B11D57968C9194899F5F9F73948B90E03E
:100E200008958FEF9FEF0895FC01938984899817A7
:100E300031F08489E80FF11D878990E008958FEFE4
:100E40009FEF0895FC0193892489892F90E0805CAD
:100E50009F4F821B91098F7399270895CF93DF933A
:100E6000EC01E881F9810680F781E02D0995EC8598
:100E7000FD85868116828581158280E484838C8934
:100E80008B8B1A8ADF91CF9108958F929F92AF92A8
:100E9000BF92FF920F931F93CF93DF938C014A0170
:100EA0005B01D22FC32FDC0152968C91529780FFA9
:100EB00007C0ED91FC910288F389E02DC8010995E6
:100EC000D11101C0D3E0FD2EE894F2F8DC2FD095CB
:100ED000D07CB1E68B16B3EE9B06B6E1AB06B1044F
:100EE00028F0D260B694A7949794879460E078ED48
:100EF00088EB95E0A50194010E94902FC901203450
:100F0000310510F480E490E03C2F3B72D7FD30684F
:100F10004D2F487C30FD41605FB7F894D8011C9696
:100F2000ED91FC911682F7828087918735FF8FC003
:100F30004F7781E084878FEF85873F7D3583D68328
:100F4000F8012189C08986859785FC0133E0239FBC
:100F5000E00DF11D1124659174912C1708F059C012
:100F6000272F46FF76C0793288F430E0F901E75642
:100F7000FF4BA081AF3F51F02E533F4BF901308121
:100F800020E2329FF0011124FC5FA18347FF2AC0B9
:100F900021E0270F293230F530E0F901E756FF4B09
:100FA000D081DF3FF9F0F901EE53FF4BA081F0E271
:100FB000AF9FD0011124BC5F25513F4BF901108137
:100FC000F0E0E0E0183030F49D01205F3F4FF90180
:100FD000E10FF11D3FB7F8941296DC932081286051
:100FE00020833FBF40FF15C023E0270F293288F43C
:100FF00030E0F901E756FF4B40814F3F51F02E534F
:101000003F4BD901EC91B0E2EB9FF0011124FC5F62
:101010004183FC0123E0C29FE00DF11D11243196B4
:1010200025913491F901FF27EE51FA4F9081832FDA
:1010300080958923682B60835FBFDF91CF911F91DB
:101040000F91FF90BF90AF909F908F90089514865E
:1010500074CF342F307509F499CF793208F096CFD8
:1010600030E0F901E756FF4BD081DF3F09F48ECF26
:10107000F901EE53FF4BA081E0E2AE9FD0011124B5
:10108000BC5F25513F4BF9011081F0E0E0E01830E2
:1010900030F49D01205F3F4FF901E10FF11D3FB793
:1010A000F8941296DC932081286020833FBF6ECF96
:1010B000FC010FB607FE04C0809111018823A9F03E
:1010C000A485B58514968C91149785FF0EC09589DB
:1010D0008689981739F015968C9115978F7D1596FE
:1010E0008C930895E8940C94EE1008950F931F9339
:1010F000CF93DF93EC018A89982F91609A8B2D8989
:101100009E8929130AC0EC85FD85948195FF05C051
:1011100081FD0DC080E4848312C0062F1D891F5FEE
:101120001F738E89811315C0CE01C2DFFACF85816E
:101130008F77806490E49483EC85FD858583EC85CE
:10114000FD85628381E090E0DF91CF911F910F9147
:101150000895ED89EC0FFD2FF11DE95AFF4F008333
:101160001D8BEC85FD858A8981FF09C085818F777C
:10117000806690E49483EC85FD858583E3CF85814B
:101180008062FBCF0F931F93CF93DF938C01D0E04E
:10119000C0E0F801EC0FFD1F6491662339F088EB85
:1011A00097E5A4DF892B11F02196F3CFCE01DF91D3
:1011B000CF911F910F910895682F88EB97E596CFF7
:1011C000CF93DF93EC018A8980FF0BC0EC85FD850E
:1011D000858185FD03C0848186FD03C0CE0168DF63
:1011E000F5CFDF91CF91089581E008950F98079A88
:1011F00020E533EC93E0179A44E1F9013197F1F7D8
:101200004150D9F7482F179AF9013197F1F7179AFA
:1012100059E0F9013197F1F75150D9F7415099F759
:10122000915049F7E7CF9FB7F894E0912A0BF091DE
:101230002B0B8091260B2091225730912357409100
:101240002457509125579FBF80FF08C0EC3E8CE289
:10125000F80720F42F5F3F4F4F4F5F4F0F01169459
:101260000794169407941694079416940794F00123
:1012700016940794E00DF11D16940794102C169403
:1012800001181694010C169401181694010C16946A
:10129000011816941694010C1124E019F109A8EE16
:1012A000B3E00E94802F6E0F7F1F811D911D089556
:1012B0008F929F92AF92BF92CF92DF92EF92FF9266
:1012C0006B017C01B0DF4B015C01C114D104E1046E
:1012D000F104B1F0A8DF681979098A099B09683E11
:1012E00073408105910588F321E0C21AD108E10815
:1012F000F10888EE880E83E0981EA11CB11CE5CF92
:10130000FF90EF90DF90CF90BF90AF909F908F9025
:1013100008952FB7F89460912257709123578091C8
:101320002457909125572FBF08958150909137579A
:101330002FE5929FF0011124E957F74A45E1849F78
:10134000900111242550334A20833183615026E1D6
:10135000629FB00111246950724A6283738364836F
:101360007583E25AFF4F21E02083E82FF0E0E65C2E
:10137000F84A90839F5F9093375708958F929F927A
:10138000AF92BF92CF92DF92EF92FF920F93CF93E3
:101390006B017C0120E030E040E05FE30E94482EDA
:1013A00087FF05C0C12CD12CE12C8FE3F82EC09211
:1013B0000540D0920640E0920740F09208408090AD
:1013C000345790903557C091365720E836E948E1B8
:1013D0005BE4C701B6010E94AD2E6B017C01B12C0C
:1013E000A12CC501B4010E944C2E9B01AC01C70188
:1013F000B6010E9426300E9493306B017C0160E8A8
:1014000076E988E990E0A50194010E94902FCA0135
:10141000B90100914640202F30E050E040E00E94AA
:10142000902F44275527C701B601621B730B840B0D
:10143000950B2C2F30E050E040E00E94902F20933D
:101440002657309327574093285750932957CF91C9
:101450000F91FF90EF90DF90CF90BF90AF909F9053
:101460008F900895DC01ED91FC91F170FC5E80811C
:101470000895CF92DF92EF92FF920F931F93CF9335
:10148000DF9300D0CDB7DEB76C017C0103E010E044
:1014900009831A83CE010196E5DFF70181937F016D
:1014A0000F5F1F4F0730110599F7C6010F900F907E
:1014B000DF91CF911F910F91FF90EF90DF90CF9030
:1014C00008950F931F93CF93DF9300D000D0CDB733
:1014D000DEB78C0119821A82CE010196C3DF8F34E8
:1014E000F9F481E090E089839A83CE010196BADF16
:1014F0008534B1F482E090E089839A83CE0101962D
:10150000B1DF8D3469F481E00115110551F0CE0190
:101510000196AFDF81E02B813C812017310709F074
:1015200080E02496CDBFDEBFDF91CF911F910F9158
:1015300008951F93CF93DF93EC01162F93DF81174C
:10154000B1F09FB780910210282F227081FDFACF51
:10155000F8948DE984BF2093001023E184BF209389
:101560000010E881F981F170FC5E10839FBFCE010D
:10157000DF91CF911F910895CF92DF92EF92FF926A
:101580000F931F93CF93DF9300D0CDB7DEB76C01DD
:101590007C0103E010E009831A83F70161917F0168
:1015A000CE010196C6DF0F5F1F4F0730110599F777
:1015B000C6010F900F90DF91CF911F910F91FF9077
:1015C000EF90DF90CF9008950F931F93CF93DF9309
:1015D00000D0CDB7DEB700915D5E10915E5E809168
:1015E0005F5E9091605E081719079CF4C8019571C1
:1015F00089839A836FEFCE0101969BDF1092595E2B
:1016000010925A5E8091575E9091585E080F191F94
:10161000E6CF0F900F90DF91CF911F910F9108951A
:101620008627682F62956827062E66956695602541
:10163000062E669560256770082E892F669507949B
:101640006795902D8627069467959025862708959F
:10165000DC01ED91FC910088F189E02D23E030E080
:101660000994FC0101900020E9F73197AF01481B74
:10167000590BBC0188EB97E587CB8EE291E4F1CF63
:10168000CF93DF937FDDEC01F8DF8C0F9D1FDF919F
:10169000CF910895009709F0E4CF90E080E008959D
:1016A0008F929F92AF92BF920F931F93CF93DF932E
:1016B000CDB7DEB7A197CDBFDEBF19A2423008F487
:1016C0004AE08E010F5D1F4F842E912CB12CA12C6E
:1016D000A50194010E94902FE62FB901CA01EA30BA
:1016E000D4F4E05DD801EE938D01232B242B252B20
:1016F00079F790E080E0109711F0CD01B2DFA1966C
:10170000CDBFDEBFDF91CF911F910F91BF90AF9002
:101710009F908F900895E95CE5CFAF92BF92CF92F2
:10172000DF92EF92FF920F931F93CF93DF9300D03E
:10173000CDB7DEB76C015B0110E000E00A151B05B8
:101740007CF57801EC0CFD1C85E1F822E982FA8237
:10175000CE01019687DE803110F480E32DDD0F5F2E
:101760001F4FE982FA82CE0101967CDE682F70E07D
:1017700090E080E040E194DF89E491E48BDFC801F0
:1017800087709927892B19F489E491E483DFC801D4
:101790008F709927892B91F680E19CE0F3DCCECF06
:1017A0000F900F90DF91CF911F910F91FF90EF90CD
:1017B000DF90CF90BF90AF900895CF92DF92EF92DD
:1017C000FF92CF93DF9397FF17C06B017C018DE2EF
:1017D000F3DCEC0166277727CB016C197D098E09B4
:1017E0009F094AE05DDF8C0F9D1FDF91CF91FF9035
:1017F000EF90DF90CF9008954AE0DF91CF91FF9076
:10180000EF90DF90CF904CCFBC01990F880B990BD4
:10181000D4CF86E294E0B6DC8091A25E882371F09A
:1018200081E090E0F1DF81E194E0ACDC8091A35EA7
:101830009091A45EE9DF8EE094E022CF82E294E012
:10184000FCCF8FE593E01CDF84E593E09BDC81E334
:1018500091E407DF88E493E095DC80E493E010DF17
:1018600085E393E08FDC83E090E0CEDF8FE293E0CE
:1018700007CF4F925F926F927F928F929F92AF921B
:10188000BF92CF92DF92EF92FF920F931F93CF936D
:101890006B017C01742EAC019B010E94AA3188234C
:1018A00091F089E391E4CF911F910F91FF90EF9018
:1018B000DF90CF90BF90AF909F908F907F906F9070
:1018C0005F904F90CECE46015701E894B7F82FEFC6
:1018D0003FEF4FE75FE7C501B4010E94AA318111D4
:1018E0000DC02FEF3FEF4FE75FE7C501B4010E9446
:1018F000482E18161CF48DE391E4D5CF2FEF3FEF5F
:101900004FE75FE4C701B6010E94643118161CF46A
:1019100081E491E4C8CF2FEF3FEF4FE75FECC701C1
:10192000B6010E94482E87FDF3CF20E030E0A901E8
:10193000C701B6010E94482E10E000E087FF07C0F3
:101940008DE23ADC8C01F7FAF094F7F8F094C0E0FD
:1019500060E070E080E09FE37C1641F020E030E042
:1019600040E251E40E942630CF5FF6CFA7019601F6
:101970000E94C22F2B013C010E9493304B015C015D
:101980004AE08EDE7C01E00EF11ECC23A9F1C501F8
:10199000B4010E944C2E9B01AC01C301B2010E9414
:1019A000C12F4B015C0185E491E45BDEE80EF91E7A
:1019B000C15010F120E030E040E251E4C501B40133
:1019C0000E94AD2E2B013C010E9493304B01B12CA3
:1019D000A12C4AE0C501B40163DEE80EF91EC50181
:1019E000B4010E944C2E9B01AC01C301B2010E94C4
:1019F000C12F4B015C01DCCFC701CF911F910F912B
:101A0000FF90EF90DF90CF90BF90AF909F908F901E
:101A10007F906F905F904F900895CF93DF9329DF71
:101A2000EC012BDE8C0F9D1FDF91CF910895CF939A
:101A3000DF93682F70E090E080E04AE031DEEC0157
:101A40001CDE8C0F9D1FDF91CF9108958091645E05
:101A5000882309F439C082EF93E094DB8091615EC2
:101A60008B3249F1863551F18B3559F190E080E0A8
:101A7000CBDE81EE93E086DB6091625E70E090E009
:101A800080E04AE00DDE85ED93E07CDB8091635ED3
:101A90008F7390E0B9DE88EC93E074DB6091655E53
:101AA00070E090E080E04AE0FBDD8AEB93E06ADBE7
:101AB0008BEA93E0E5CD81EB91E0DACF84E693E029
:101AC000D7CF83E993E0D4CF85E094E0F3CF0F93B1
:101AD0001F93CF93DF9383EA93E054DB6091665EBC
:101AE0007091675E8091685E9091695E42E050E01F
:101AF00094DF0EE61EE5C1E0D0E08EE993E042DB24
:101B0000CE0182DE87E491E4C5DDF8016191719137
:101B1000819191918F0142E0ACDE86E993E032DB66
:101B2000CE0172DE87E491E4B5DDF8016489758940
:101B30008689978942E050E070DF2196C730D10551
:101B4000E1F667DE83DF8BE893E01CDB60919E5E4D
:101B500070919F5E8091A05E9091A15E42E050E006
:101B60005CDF8091A65E811107C086E793E0DF917C
:101B7000CF911F910F9184CD81E893E0F8CF94E04D
:101B8000811119C0909326049091200492FD0AC0FF
:101B90009FB7F894811112C080913204877F80939F
:101BA00032049FBF8091E605982F9770913051F0D5
:101BB000887171F0089590932504E6CF80913204E6
:101BC0008860EDCF8091010A8B7F8093010A089590
:101BD0008091410A8B7F8093410A08950F931F9350
:101BE000CF93DF93CDB7DEB72C97CDBFDEBF681B99
:101BF000F1F0062F10E0682F70E06858784AA801CD
:101C0000CE0101960E94D231E1E0F0E0EC0FFD1F21
:101C1000E00FF11F1082CE0101960E94AE2C2C968F
:101C2000CDBFDEBFDF91CF911F910F91089590E05E
:101C300080E0F5CF0F931F93CF93DF93CDB7DEB73F
:101C40002C97CDBFDEBF681BF1F0062F10E0682F88
:101C500070E06858784AA801CE0101960E94D231FE
:101C6000E1E0F0E0EC0FFD1FE00FF11F1082CE016C
:101C700001960E94AB2C2C96CDBFDEBFDF91CF9199
:101C80001F910F91089560E070E0CB01F4CF2F9287
:101C90003F924F925F926F927F928F929F92AF92FC
:101CA000BF92CF92DF92EF92FF920F931F93CF9349
:101CB000DF93CDB7DEB72A97CDBFDEBF89879A877E
:101CC000162F7A01222E312CB101032C000C880B27
:101CD000990B0E944E2E4B015C01612F70E090E049
:101CE00080E00E944E2E20E030E044EB53E40E945E
:101CF000AD2E2B013C01B70190E080E00E944C2EFC
:101D00009B01AC01C301B2010E94AD2EA50194015B
:101D10000E94AD2E20E836E948E15BE40E942630BF
:101D20002B013C01E985FA8505818081081B110B97
:101D300021813281438154816681778180859185BB
:101D40000E94C12FA30192010E9426306B017C01E9
:101D5000B801012E000C880B990B0E944E2EA50194
:101D600094010E9426309B01AC01C701B6010E947C
:101D7000C22F6D837E838F8398870E940131698390
:101D80007A838B839C8320E030E040E85FE30E940D
:101D9000C22F6B017C0120E030E0A90169817A81CA
:101DA0008B819C810E94643187FDA2C0A7019601AE
:101DB000C501B4010E94AD2E0E948E30E985FA85DE
:101DC0006287738716861786E985FA8526853785A3
:101DD000020F131F06871787020D131D048715872F
:101DE00020E030E044EB53E4C301B2010E9426300E
:101DF0002BED3FE049EC50E40E94AD2E6B017C01DD
:101E000029813A814B815C816D817E818F819885AA
:101E10000E94C12FA30192010E94AD2E20E030E06C
:101E200044EB53E40E9426302BED3FE049EC50E4B4
:101E30000E94AD2E4B015C01A70196010E94263045
:101E40002B013C01E985FA85448A558A668A778A9E
:101E5000A5019401C501B4010E94AD2E20E030E03F
:101E600040E05FE30E94AD2E9B01AC0160E070E0BA
:101E700080E89FE30E94C12F4B015C01A7019601FE
:101E8000C701B6010E94AD2E20E030E040E05FE3E4
:101E90000E94AD2E9B01AC0160E070E080E89FE302
:101EA0000E94C12FA30192010E94AD2E9B01AC01A3
:101EB000C501B4010E94C12FE985FA85608B718B41
:101EC000828B938B2A96CDBFDEBFDF91CF911F917E
:101ED0000F91FF90EF90DF90CF90BF90AF909F90C9
:101EE0008F907F906F905F904F903F902F900895CC
:101EF000E985FA8512861386C701B6019058A501B7
:101F000094010E94AD2E0E948E30E985FA85668785
:101F100077875ACFCF92DF92FF920F931F93CF9381
:101F2000DF930FE5089FF0011124EF01C957D74A4D
:101F3000AA81BB811F962C911F972A8B16964D91D3
:101F40005D916D917C9119974B8B5C8B6D8B7E8B2A
:101F5000A881B9811F962C911F972F8B16964D91B2
:101F60005D916D917C911997488F598F6A8F7B8F06
:101F700020913657C0903457D0903557F090464056
:101F80008F01A6016F2DCF018756974A80DEEC8125
:101F9000FD818A819B818E179F0729F187858AA7FA
:101FA00086819781A085B1858BA79CA7ADA7BEA789
:101FB000E881F98187858FA786819781A085B18582
:101FC00088AB99ABAAABBBAB20913657A6016F2D5E
:101FD000C8018F54974ADF91CF911F910F91FF90C5
:101FE000DF90CF9054CEDF91CF911F910F91FF9052
:101FF000DF90CF900895CF92DF92EF92FF920F93F0
:102000001F93CF93DF9382E08093EC5EC091625E7A
:102010008091635E8093EA5E20E1C29FC00111243B
:102020008C2794E0899F900111248227807C8093E3
:10203000EB5E80E28093210481E08093410484E0A0
:10204000809341042D9A8091E405837F8093E40579
:102050008091610984608093610980916009816247
:102060008093600956D96B017C016AEA8FE20E9475
:102070004A068FE20E9444068A3A51F04AD96C1906
:102080007D098E099F09623371058105910568F309
:1020900040D96B017C0165E58FE20E944A068FE220
:1020A0000E944406853551F034D96C197D098E099A
:1020B0009F09623371058105910568F38091EC5E9B
:1020C000813009F06CC08CE790E40E946D068CE7CB
:1020D00090E40E946D066CE687E00E944A0660E884
:1020E00088E00E944A0660E089E00E944A066C2F60
:1020F00080E30E944A0669E981E10E944A0684E081
:102100000E94540606D96B017C0187E20E944406B6
:1021100087FD0AC0FED86C197D098E099F096233BC
:1021200071058105910588F3F4D88091EC5E8130CA
:10213000D1F084E00E9454062D988EEB0E943A065E
:10214000CBE4D1E40BE511E489910E943A060C1727
:102150001D07D1F72D9A8DE30E944406682F616018
:102160008DE30E944A062091635E84E1289FE0018E
:10217000112460E070E0CB01209741F00E94562CC2
:102180009E01DD0F440B550B0E94642FDF91CF9110
:102190001F910F91FF90EF90DF90CF9089C8823010
:1021A00009F099CF81E590E40E946D0681E590E405
:1021B00090CFEF93FF93E8EBF7E508C0EF93FF9321
:1021C000E8EBF7E532C0EF93E0E653C02F932FB76B
:1021D0002F938F939F93AF93BF936894CF93DF9385
:1021E00020E0C485D8E09689DF01A90FB21FA95A63
:1021F000BF4F8C9120E42C838A839F5F9F738D81D6
:102200002589291302C08F7D8D83968BDF91CF9115
:1022100016F00C947508BF91AF919F918F912F91FB
:102220002FBF2F91FF91EF9118952F932FB72F93D9
:102230008F939F93CF93DF93C485D8E08981988152
:1022400081FD0DC0C38981E08C0F8F73248928170D
:1022500031F0CE0FDF2F20E0D21F9F8B838BDF91D9
:10226000CF919F918F912F912FBF2F91FF91EF9140
:102270001895FF938F938FB78F93F8E080818481B7
:1022800087FFFCCF85818F7B806885838F918FBF8F
:102290008F91FF91EF9118951F920F920FB60F92A9
:1022A000112484E00E94F6081F920F920FB60F923D
:1022B00011248F939F93AF93BF9380912257909156
:1022C0002357A0912457B09125570196A11DB11D08
:1022D0008093225790932357A0932457B093255768
:1022E00081E08093260BBF91AF919F918F910F90CA
:1022F0000FBE0F901F9018951F920F920FB60F925E
:1023000011248F9388E08093A90481E08093315752
:102310008F910F900FBE0F901F9018951F920F92E4
:102320000FB60F9211248F939F938091090480938D
:10233000090486FF03C091E09093335787FF03C0E1
:1023400081E0809332579F918F910F900FBE0F9035
:102350001F9018951F920F920FB60F9211240BB673
:102360000F922F923F924F925F926F927F928F9235
:102370009F92AF92BF92CF92DF92EF92FF920F9314
:102380001F932F933F934F935F936F937F938F93FD
:102390009F93AF93BF93EF93FF93CF93DF93CDB70B
:1023A000DEB72A97CDBFDEBF81E080930D06809116
:1023B0001006909111068D839E83809121578E5F28
:1023C00090913657891718F090913657891B90E0F5
:1023D000FC01EE0FFF1FE80FF91FE75EFF4B808146
:1023E000809308068D819E812091515830915258DA
:1023F00036952795821B930B8D839E838D819E81BD
:10240000E0911F57F0912057EE0FFF1FE15EF04B58
:102410008083918319821A821B821C822D813E81C6
:102420000D811E8122241302B001029FA00112031C
:102430007209500D611D721D30037209500D611D2E
:10244000721D112449835A836B837C8389809A800F
:10245000AB80BC80A0910140B0910240E091215737
:1024600008E0E09FF0011124EA0FFB1FE058FF4F46
:10247000208031804280538064807580068117817E
:102480009401A50160E070E080E090E051016201FC
:1024900073010E94BE31208331834283538364835E
:1024A0007583868397834D815E81E091215718E083
:1024B000E19FF0011124EA0FFB1FA084B184C284C4
:1024C000D384E484F58406851785952F990F990B9D
:1024D0009A01492F592F692F792F892F0E94BE31D8
:1024E00020873187428753876487758786879787D8
:1024F000E09121578E2F90E0FC01EE0FFF1FE80FB7
:10250000F91FE75EFF4B80818111CFC080911D4F85
:1025100090911E4F9C013695279536952795AC01D5
:10252000421B530B9A018D819E81181619060CF4DB
:1025300078C08D819E81919581959109820F931F1D
:1025400080931D4F90931E4F21E040914F58509122
:1025500050584817590708F020E020930C5E8D81F1
:102560009E81181619060CF05FC081E090E0809300
:102570001B4F90931C4F20911B4F30911C4F80910B
:10258000174F9091184F2817390709F452C08091BE
:10259000144F8F5F8093144F8091144F882351F014
:1025A0001092144F80911B4F90911C4F8093194FA4
:1025B00090931A4F8091194F90911A4F019709F0FB
:1025C00016C38091174F9091184F019709F465C079
:1025D0008091154F9091164F01968093154F9093CF
:1025E000164F20910440222339F1209103402817EF
:1025F000190609F008F5109204401092154F109238
:10260000164F14961D921D921D921C921797CD0184
:1026100088529D4FFD01E817F90771F0108231963D
:10262000FACF8D819E818ACF10921B4F10921C4F42
:10263000A2CF1092144FB0CF14964D915D916D9131
:102640007C9117974F5F5F4F6F4F7F4F14964D935D
:102650005D936D937C9317970D911D912D913C91F6
:1026600013974091265750912757609128577091A2
:102670002957041715072607370778F08091474038
:1026800090914840A0934740B093484080930140C8
:102690009093024081E0809339578091194F909137
:1026A0001A4F8093174F9093184F90912157809114
:1026B0003857981708F445C280901F5790902057BC
:1026C000E09121578E2F90E0FC01EE0FFF1FE80FE5
:1026D000F91FE75EFF4B0180F281E02D848D958D1F
:1026E000881A990A53E09522E0911F57F0912057DC
:1026F000A09121578A2F90E0DC01AA0FBB1FA80FE1
:10270000B91FA75EBF4B11960D90BC91A02D5E9690
:102710008D919C91E81BF90BF37020911F5730911C
:102720002057A09121578A2F90E0DC01AA0FBB1FF0
:10273000A80FB91FA75EBF4B11960D90BC91A02D9D
:1027400090968D919C91281B390BD901B370AF8362
:10275000B887880C991C8401015E104B4801D80190
:102760006D917C91EE0FFF1FE15EF04B4081518136
:10277000222457029001469F800156033209100D12
:10278000211D321D74033209100D211D321D11242B
:1027900028013901E0910140F0910240A0912157B8
:1027A00018E0A19FD0011124AE0FBF1FA850BF4F4A
:1027B000AC901196BC90119712962C90129713968C
:1027C0003C90139714960C911497098715961C91B9
:1027D00015971A8716960C91169717961C911797AE
:1027E00073016201FF0CCC08DC2C76019201A3017D
:1027F0006C2D7C2D8C2D9C2D6101E984FA840E9426
:10280000BE312C9311963C93119712964C931297CC
:1028100013965C93139714966C93149715967C9368
:10282000159716968C93169717969C93D4016D91D5
:102830007C91AF81B885AA0FBB1FA15EB04B4D91B3
:102840005C91222457029001469F80015603320971
:10285000100D211D321D74033209100D211D321D72
:10286000112448015901A091215718E0A19FD001DE
:102870001124AE0FBF1FA059BE4F2C9011963C9053
:1028800011971296CC9012971396DC90139714968A
:10289000EC9014971596FC90159716960C91169738
:1028A00017961C91179724013501770C4408542C76
:1028B00032019401A501642D742D842D942D5101B4
:1028C0000E94BE312C9311963C93119712964C9313
:1028D000129713965C93139714966C93149715960E
:1028E0007C93159716968C93169717969C93A091A8
:1028F0002157809121572A2F30E0D901AA0FBB1F01
:10290000A20FB31FA75EBF4B11962D913C9190E093
:10291000DC01AA0FBB1FA80FB91FA75EBF4B119602
:102920008D919C91D90112962D913C91DC011496C8
:102930008D919C912817390709F403C180901F5786
:1029400090902057A09121578A2F90E0DC01AA0F88
:10295000BB1FA80FB91FA75EBF4B11960D90BC916E
:10296000A02DD4968D919C91881A990AB3E09B2250
:1029700020911F57309120578091215790E0DC0122
:10298000AA0FBB1FA80FB91FA75EBF4B11960D90D2
:10299000BC91A02DD6968D919C91D901A81BB90B05
:1029A000BD01737040911F5750912057809121575E
:1029B000282F30E0C901880F991F820F931F875E6F
:1029C0009F4BDC0111968D919C91DC01D8968D91E5
:1029D0009C91481B590BDA01B370AF83B887880C00
:1029E000991C8401015E104B4801D8018D919C9186
:1029F000DB01AA0FBB1FA15EB04B4D915C91BC01E6
:102A0000222457029001469F800156033209100D7F
:102A1000211D321D74033209100D211D321D112498
:102A200028013901A091215778E0A79FD0011124F6
:102A3000AE0FBF1FA851BE4FAC901196BC9011971E
:102A400012962C90129713963C90139714960C9113
:102A50001497098715961C9115971A8716960C914D
:102A6000169717961C91179779016201FF0CCC08F5
:102A7000DC2C76019201A3016C2D7C2D8C2D9C2DDC
:102A80006101E984FA840E94BE312C9311963C9333
:102A9000119712964C93129713965C931397149672
:102AA0006C93149715967C93159716968C9316979E
:102AB00017969C93D4016D917C91AF81B885AA0F34
:102AC000BB1FA15EB04B4D915C9122245702900137
:102AD000469F800156033209100D211D321D7403DB
:102AE0003209100D211D321D112428013901809158
:102AF000215718E0819FC0011124E80FF91FE05A07
:102B0000FD4FB081A181C280D380E480F580068131
:102B1000178153014201BB0C8808982C5401920183
:102B2000A301682D782D882D982DAB2EBA2E0E94EA
:102B3000BE312083318342835383648375838683CC
:102B40009783809121578F5F8093215780911F57E2
:102B500090912057019680931F5790932057909102
:102B6000215780913657981788F010922157E0919D
:102B70000140F091024080819181A281B381019650
:102B8000A11DB11D80839183A283B38380911F57C0
:102B900090912057937080931F57909320572A96B7
:102BA000CDBFDEBFDF91CF91FF91EF91BF91AF918C
:102BB0009F918F917F916F915F914F913F912F9155
:102BC0001F910F91FF90EF90DF90CF90BF90AF904B
:102BD0009F908F907F906F905F904F903F902F903D
:102BE0000F900BBE0F900FBE0F901F901895809105
:102BF000174F9091184F51CDEF92FF920F931F9363
:102C0000CF93DF9300D0CDB7DEB71092BA571092B2
:102C1000BB5788EE93E0A0E0B0E08093BC57909360
:102C2000BD57A093BE57B093BF5788E191E48093FE
:102C3000B8579093B95780E698E08093C457909323
:102C4000C55782E19CE08093C6579093C75782E0B6
:102C50008093C8571092C9571092CA5780E090E0ED
:102C6000A8ECB2E48093F85D9093F95DA093FA5DCF
:102C7000B093FB5D10920B5E10920C5E80930E5E23
:102C800090930F5EA093105EB093115E1092215E40
:102C90001092225E8093245E9093255EA093265E20
:102CA000B093275E1092375E1092385EEBEFFCE532
:102CB00081839283A383B483148A75962DE5E73FBD
:102CC000F207B1F787E898E5FC01E25AFF4F10825E
:102CD000815A9F4F4CE58B3F9407B1F7E7E5F8E544
:102CE00024E130E092E081E02083318392831382FB
:102CF00014821582168217821086118682871386A7
:102D0000709648E5E738F40779F710925358109217
:102D100054581092555880E090E180935158909308
:102D2000525880E091E080934F58909350588EEF26
:102D300090E080935B5E90935C5E8DE190E0809389
:102D4000575E9093585E8DE090E08093555E90932F
:102D5000565E84E890E080935D5E90935E5E8DEFBA
:102D600091E080935F5E9093605E1092595E109246
:102D70005A5E04E810E009831A83CE0101960E948E
:102D8000320A78019DE1E90EF11C8F3F09F463C01E
:102D90000093595E10935A5E2DEFE21621E0F20681
:102DA0005CF4E982FA82CE0101960E94320A8F3FDA
:102DB00009F44DC00E94E40A82E08093EC5E8BE24D
:102DC0008093615E82ED8093625E8BE18093635EAF
:102DD00081E08093645E99E19093655E4AE959E9E8
:102DE0006AEC72E44093665E5093675E6093685E3F
:102DF0007093695E40E050E068E472E440936A5E7C
:102E000050936B5E60936C5E70936D5E4DEC5CEC0A
:102E10006CE171E440939E5E50939F5E6093A05E70
:102E20007093A15E8093A25E84E690E08093A35E9F
:102E30009093A45E1092A55E1092A65E0F900F90E4
:102E4000DF91CF911F910F91FF90EF9008954DE189
:102E5000E40EF11CA1CF87018DEFE81681E0F806A2
:102E600009F089CFA9CFCF93DF93CDB7DEB7CA578B
:102E7000D109CDBFDEBF88ED21E030E084BF2093D3
:102E8000620091E084BF909363009DE284BF9093C1
:102E9000800093E084BF9093600080E090E22091F6
:102EA000650020FD43C221E02093030A8EEF80934A
:102EB000260A8093270A9BE09093000A32E0309321
:102EC000E6052093430A8093660A8093670A9093ED
:102ED000400A9093E705E0E0FBE027E09EEF85E005
:102EE00021839487158680837096E0340BE0F00789
:102EF000B9F72FEF3FE02093AA0B3093AB0B90E88C
:102F00009093820B1092810B2EEF30E02093AE0B4A
:102F10003093AF0B98ED24E194BF2093680091E1CA
:102F20009093800B809302069EE09093050690E6B6
:102F300090930306809300068091B000887F85609F
:102F40008093B0008091B200887F85608093B2004A
:102F50008FED9EE280932C0B90932D0B81E080935C
:102F6000250B1092210B83E08093200B789484E052
:102F70008093210481E00E94BF0D40E052EC61E0AB
:102F800070E088EB97E50E94280B0E94210C9FB708
:102F9000F89480E180930204809114048860809307
:102FA00014049FBF9FB7F89480E28093020480913D
:102FB00015048860809315049FBF8091080485FDE7
:102FC00005C08091635E8F5F8093635EEEE62E2E78
:102FD000EEE53E2EF10140E050E060EA71E48DEC58
:102FE0009CECACE4B0E44193519361937193848B76
:102FF000958BA68BB78B1EE5E638F107A1F780E02D
:1030000090E0A8ECB2E480936E5E90936F5EA09324
:10301000705EB093715E80E090E0A8E4B2E48093CB
:10302000725E9093735EA093745EB093755E8093AE
:10303000765E9093775EA093785EB093795E80E23F
:1030400090E00E94610A882341F1CE0101960E941E
:10305000390A09811A8117FD20C0680123E0C20ED8
:10306000D11C71E6E72E7EE5F72E87E090E05C014B
:103070003FEFA31AB30A8BAB9CABCE01C3960E9461
:10308000320AD7018D937D01C501AC14BD0478F3DC
:1030900080E494E00430110511F48FE294E00E9482
:1030A000400B0E94670D8091080484FD03C081E0FD
:1030B00080932F578091645E81110E94FB0F8EE0F8
:1030C0008093050680910306809303061092B0005A
:1030D00086E08093020681E08093000680910006DE
:1030E0008093000687E08093080660E070E0CB01E3
:1030F00050E040E0E1E0E0930A0620910D0620FF59
:10310000FCCF4A30510544F0209110063091110651
:10311000620F731F811D911D4F5F5F4F4A31B7E2F0
:103120005B0749F70E944C2E20E030E44CE156E466
:103130000E94263020E030EF4FE755E40E94263011
:103140009B01AC0166E676E686E69FE30E942630A8
:103150006B017C0185E594E00E94C20844E050E0E8
:10316000C701B6010E940D0D4091665E5091675EE9
:103170006091685E7091695E81E00E947A0640917C
:10318000665E5091675E6091685E7091695E82E0F4
:103190000E947A064091665E5091675E6091685E1B
:1031A0007091695E83E00E947A0680904940909019
:1031B0004A40A0904B40B0904C408BAE9CAEADAE20
:1031C000BEAE609151587091525890E080E00E94DC
:1031D0004C2E2B013C010BEF1CE520E0D101589651
:1031E0008D909D90AD90BC905B97F1016191719134
:1031F000819191911F01F1E0F20FFFABD8012C9367
:1032000020E030E040E450E40E94AD2E2BAD3CAD18
:103210004DAD5EAD0E94AD2EA30192010E942630FD
:10322000F8016183728383839483158286829782F7
:10323000A086B186128613861486158616860B5EC6
:103240001F4F2FA9263051F661E081E00E949509B9
:1032500062E082E00E94950963E083E00E949509A4
:1032600061E084E00E94950962E085E00E94950992
:1032700063E086E00E94950980912F5781115CC020
:1032800082E3809346408AE08093034060919E5E93
:1032900070919F5E8091A05E9091A15E0E94BE0998
:1032A000C0924940D0924A40E0924B40F0924C404C
:1032B0008091A25E80936058882309F43FC089E022
:1032C000809316048091A35E9091A45E80935758DA
:1032D0009093585882E08093595881E080936158C8
:1032E000C090595ED0905A5EC114D10409F473C1E4
:1032F00086010F5F1F4F69E3E62E6EE5F62E809183
:10330000575E9091585E8C0D9D1D08171907CCF4DF
:10331000C801957189839A83CE0101960E94320A71
:10332000D7018D937D010F5F1F4FE9CF019709F002
:10333000B6CD83E00E94F6088CE3A3CF109216046A
:10334000C1CF4090395E50903A5E60903B5E709085
:103350003C5E80903D5E90903E5EA0903F5EB0905F
:10336000405EC090415ED090425EE090435EF0903F
:10337000445E0091455E1091465E2091475E30911B
:10338000485E4091495E50914A5E60914B5E7091FB
:103390004C5E80914D5E90914E5EA0914F5EB091DB
:1033A000505E8FAB98AFA9AFBAAF8091515E90914C
:1033B000525EA091535EB091545E40927EB750929F
:1033C0007FB7609280B7709281B78092DD589092FB
:1033D000DE58A092DF58B092E058C0923C59D0928B
:1033E0003D59E0923E59F0923F5900939B591093FA
:1033F0009C5920939D5930939E594093FA5950936C
:10340000FB596093FC597093FD592FA838AC49AC17
:103410005AAC2092595A30925A5A40925B5A509262
:103420005C5A80935A5890935B58A0935C58B09321
:103430005D5885E180932E5788E090E080932C576B
:1034400090932D5788EE91E08093345790933557A1
:1034500010922B5790913857A5EEB8E580E041E0E7
:103460002C91222309F44DC0282F30E0F901EE0FF2
:10347000FF1FE20FF31F8F01075E1F4BF801208132
:10348000BD016C5571092F3F99F4FB0120813181F9
:10349000F901548951110CC08787448B208130E099
:1034A000275F3F4BF9012081F80120838F5F9F5FE9
:1034B000FD01EA55F10920813181FB0160817181B3
:1034C00026173707F1F0E82FF0E0BF01660F771FEE
:1034D000E60FF71FBF01675E7F4BFB0150815F3F27
:1034E00081F4F901548951110CC08787448B2081E4
:1034F00030E0275F3F4BF90120818F5FFB01208384
:103500009F5FA15ABF4FFDE5A935BF0709F0A8CFBE
:103510009093385780932B5790912A57A7E8B8E596
:1035200041E0FD01E25AFF4F2081222319F1282FAB
:1035300030E0F901EE0FFF1FE20FF31FBF01675EDE
:103540007F4BFB0120812F3FA9F42D913C911197D6
:10355000F901548951110EC08787448B208130E0D6
:10356000245F3F4BF9012081FB0120838F5FA18302
:10357000B2839F5FA15ABF4FFCE5AB3FBF0789F6FF
:1035800080932B5790932A57909153589923A9F0E1
:10359000809356582091184091E0980F90932B57A4
:1035A00090E0FC01EE0FFF1FE80FF91FE75EFF4BF5
:1035B0002083109254581092555880912B57809325
:1035C000365710E0809137571817E0F4812F0E948A
:1035D0008A0F1F5FF7CF1FAA18AE19AE1AAE40E0D0
:1035E00050E0BA0100E010E09801C12CD12C760126
:1035F000812C912C5401412C512C320180E090E01F
:10360000DC01DBCE1091365720E836E948E15BE477
:10361000609105407091064080910740909108406C
:103620000E94AD2E20E030E044EF53E40E942630AB
:103630000E9493306B017C012091464030E050E0C5
:1036400040E06BE070E580E090E00E94902FC701C1
:10365000B601621B730B840B950B212F30E050E0F9
:1036600040E00E94902F2093265730932757409395
:103670002857509329571092395781E0809304407E
:1036800095E190930506909103069093030610929E
:10369000B00090912C579093020680930006909171
:1036A00000069093000690910006926090930006A9
:1036B0001092080690910C06916090930C068093EE
:1036C0000A0678941092465710924757109248571E
:1036D0001092495760E070E080E090E40E94BE09DB
:1036E0008E010D5C1F4F0DAB1EAB88EB97E50E9462
:1036F0002207892B09F4A0C088EB97E50E940007F8
:10370000D09030578A3009F022C5AD2DB0E0A858CE
:10371000B84A1C92E0917857EF53EC3308F084C01C
:103720000E2E000CFF0BE956F44E0C94B5318F2091
:10373000141C141C141C141C141C141C141C141C09
:10374000141C141C141C141C141C141C141C141CF9
:10375000141C141C141C141C141C141C141C141CE9
:10376000141C141C141C141C141C141C141C141CD9
:10377000141C141CD31B071CD91CF41CFB1C131D8C
:10378000141C451FC01C221DDC1EE41E451F141CFA
:103790005D1F141C6B1F961F141C141C62205120EB
:1037A0006920141C702012E0D1123EC089E797E511
:1037B0000E94AE2C8430E1F08830E1F08930E1F4F1
:1037C0008BE58093615E89EC9BE00E94C20880914A
:1037D000615E8B3299F08635A1F08B35A9F483E9CF
:1037E00093E00E94040C84EC9BE00E94400B1CC000
:1037F0008BE2E7CF86E5E5CF80E0E3CF81EB91E098
:10380000F0CF84E693E0EDCF90E080E0EACF22E0D5
:10381000D2120AC089E797E50E94AE2C019709F001
:10382000ACC081E08093A55E80E4A8E7B7E51D9277
:103830008A95E9F7109230578091335790916058EC
:10384000992389F0882379F081E0809362580E945F
:103850008909609363587093645880936558909376
:10386000665810923357809132579091705899232F
:1038700089F0882379F081E0809372580E94890949
:1038800060937358709374588093755890937658DA
:10389000109232578091315790918058992389F036
:1038A000882379F081E0809382580E94890960938F
:1038B00083587093845880938558909386581092BB
:1038C000315797E5E92E98E5F92E8701D12CC12CC7
:1038D000560184E0AA0CBB1C8A95E1F7F501E95A70
:1038E000F74A4F018385D80119969C91992309F4D1
:1038F0004DC4882309F44AC40E948909F40124852F
:103900003585468557851B012C01221A330A440A46
:10391000550AB201A101D8018D919C91B0E0A0E0BF
:1039200084179507A607B70708F030C4B1E0CB1697
:1039300009F41AC4E2E0CE1609F41CC4809108040C
:1039400086FB882780F9F501E95AF74A1386D801E2
:103950001A969C911A97981709F418C412969C917C
:1039600081110EC4923009F00EC4F8012781308510
:103970002F5F3F4F2783308706C41092A55E54CF38
:1039800032E0D31251CF89E797E50E94AE2C019720
:1039900051F481E08093A65E8091A65E882331F089
:1039A0008AEB9BE022CF1092A65EF6CF8FEA9BE0D7
:1039B0001CCF89E797E50E94AB2C6B017C010E942C
:1039C000BE09C0929E5ED0929F5EE092A05EF09291
:1039D000A15E84EA9BE00E94C20842E050E0C70179
:1039E000B6010E940D0D20CF8AE08C9389E797E500
:1039F0000E944A0B19CF43E0D41216CF89E797E50E
:103A00000E94AB2C0E948E30162F072F60934640E9
:103A10008CE99BE00E94C208812F902F0E94040C29
:103A20000E943D0B01CF89E797E50E94AE2C809361
:103A3000625E81E99BE00E94C2088091625E0E9402
:103A4000170DF2CE60E270E088E797E50E94C7317B
:103A5000009711F40C94F52B8C0108571745C801F9
:103A6000992760E270E08758984A0E94C731CC24B9
:103A7000C394C00E009711F40C94FC2BDC01A857E2
:103A8000B7455D01602F81E00E94EE0D7C016A2D3B
:103A90008C2D0E941A0E2D966CAF7DAF8EAF9FAF0E
:103AA0002D976D2D81E08A0D0E941A0EA2966CAFA3
:103AB0007DAF8EAF9FAFA297E114F10409F091C0E2
:103AC00023EA33E240E051E42D966CAD7DAD8EAD3E
:103AD0009FAD2D970E94AD2E4B015C0107EF1DE5B8
:103AE00067E8E62E68E5F62E2091494030914A407D
:103AF00040914B4050914C40C501B4010E94AD2E05
:103B00002B013C01609151587091525890E080E037
:103B10000E944C2E9B01AC01C301B2010E942630D1
:103B2000D80111966D937D938D939C9314972AE001
:103B300037ED43E25EE316966D917D918D919C91F8
:103B400019970E94482E882321F1F80115828AE0F6
:103B500097EDA3E2BEE386839783A087B1871286A1
:103B60001386148615861686D12C80913757D81661
:103B700080F4F701828193810817190729F0848165
:103B800095810817190719F48D2D0E948A0FD39477
:103B9000ECCF0A5E1F4FBFE5EB0EF11CE4EAEE1618
:103BA000E9E5FE0609F0A0CF2D962CAC3DAC4EAC5D
:103BB0005FAC2D972092665E3092675E4092685EA1
:103BC0005092695E89E89BE00E94C2086091665E3F
:103BD0007091675E8091685E9091695E42E050E00E
:103BE00000CFCC24CA94CE0C5BE0352E3C1408F4F4
:103BF0009DC0AC2CB12C25E1C29E80011124055042
:103C0000134A20E030E040E450E42D966CAD7DADE9
:103C10008EAD9FAD2D970E94AD2E209149403091E1
:103C20004A4040914B4050914C400E94AD2E2B0198
:103C30003C01609151587091525890E080E00E9490
:103C40004C2E9B01AC01C301B2010E942630D80169
:103C500011966D937D938D939C93149716962D9149
:103C60003D914D915C911997A2966CAD7DAD8EAD55
:103C70009FADA2970E94482E882309F457C0F801EF
:103C80001582A2962CAC3DAC4EAC5FACA2972682BE
:103C900037824086518612861386148615861686CC
:103CA0008FE58A9D80018B9D100D11240957174ABD
:103CB000D801ED91FC914681578160857185F801AD
:103CC000408F518F628F738F20913657A090345759
:103CD000B090355790904640C89E60011124A501D0
:103CE000692DC6018756974A0E94470ED801129641
:103CF0002D913C91139714968D919C9115972817AF
:103D00003907A1F0ED91FC9186819781A085B1855D
:103D1000F80180AB91ABA2ABB3AB20913657A501B4
:103D2000692DC6018F54974A0E94470E8701000FE4
:103D3000111F000F111F035A114A2D962CAC3DACD8
:103D40004EAC5FAC2D97D8011D962D923D924D92B1
:103D50005C925097A2962CAC3DAC4EAC5FACA29757
:103D600095962D923D924D925C92989784E89BE0B7
:103D70000E94C208C7010E94040C87E491E40E94DB
:103D80004A0BF801658576858785908942E00E9417
:103D9000390C8CE79BE00E94C208C7010E94040C0A
:103DA00087E491E40E944A0BD80195966D917D912C
:103DB0008D919C91989712CFB1E0DB1235CD0E9486
:103DC000210C0E94670D30CD60E270E088E797E536
:103DD0000E94C731009771F56D2D81E00E94EE0DB4
:103DE0008C010115110509F440C00130110509F4D9
:103DF00043C02D966CAD7DAD8EAD9FAD2D970E94CD
:103E00009330609357587093585882E08093595874
:103E100081E0809361582D966CAD7DAD8EAD9FADE8
:103E20002D970E948E306093A35E7093A45E0E94D3
:103E3000090CFACCFC01E857F7457F016E2F81E0B1
:103E40000E94EE0D8C016D2D81E08E0D0E94EE0D15
:103E5000BC01990F880B990B0E944E2E2D966CAFCA
:103E60007DAF8EAF9FAF2D97BCCF10926058109250
:103E700016041092A25EBDCF81E08093605899E055
:103E8000909316048093A25EB4CF89E797E50E94D1
:103E9000AE2C882379F099278034910514F08FE3B4
:103EA00090E08093635E82E79BE00E94C20880916D
:103EB000635EC5CD81E090E0F4CF89E797E50E948D
:103EC000AE2C8F718093655E87E69BE00E94C208EE
:103ED0008091655EB4CDF1E0DF12A6CC86E695E078
:103EE0000E94400B80E290E00E94610A882389F0E2
:103EF000CE0101960E94390A89819A8197FD09C0F5
:103F000091958195910989839A83CE0101960E94AA
:103F1000BC0A88E395E00E94400B68EC70E080E00A
:103F200090E00E9458090C9400007ECC2224239437
:103F3000D2107ACC8EE295E00E94400B80E290E0B5
:103F40000E94610A81112AC019821A826FE4CE018F
:103F500001960E94990A44244394512C49825A8222
:103F600065E4CE0101960E94990A32E0832E912CDD
:103F700089829A826DE4CE0101960E94990A03E03B
:103F800010E009831A836FEFCE0101960E94990A0F
:103F90000F5F1F4F011522E0120799F74AE450E026
:103FA00049835A8380E290E08B839C83CE01019603
:103FB0000E94BC0A01E61EE587E090E0D8016D9101
:103FC0008D017C01BFEFEB1AFB0A8BAB9CABCE01E2
:103FD000C3960E94990AC7018D34910579F790E044
:103FE00080E00E94610A81111AC086E095E00E947B
:103FF000C2084AE060E072E080E090E00E94500B6E
:1040000080EE94E00E94400B60E072E090E080E07F
:104010000E948D0B8EED94E00E94C2080CC0CE0170
:1040200001960E94390A8B819C81019649F48DE8A2
:1040300094E00E94400B0E943D0B8DE095E0D5CBB3
:1040400080E894E00E94C2086B817C8190E080E06F
:104050004AE00E94500B09811A8117FF03C0119595
:10406000019511090450110982E794E00E94C208E9
:10407000C8010E94040C8BE694E00E94C20889816A
:104080009A8197FF04C080E694E00E94C2080E94D3
:104090003D0BB80187E090E00E948D0B8EE594E027
:1040A000BBCFF2E0DF12C0CB1092645E80917957F3
:1040B000813329F481E08093645E0E94FB0F0E94AB
:1040C000260DB2CB22242394D210AECB0E94210C19
:1040D000ABCB3324339489E59BE0D310A5CB85CBC0
:1040E00044244394D410A0CB8FE39BE00E94400B68
:1040F0000E94E40AEDEDF8E510821182128213822B
:10410000E15AFF4F0BE5E731F007B1F710925A582B
:1041100010925B5810925C5810925D5885CB11E05C
:10412000D11282CB05E715E0F801F490FF2061F091
:10413000FAE0FF1203C08DE00E94DC088F2D0E9480
:10414000DC080F5F1F4FF0CF83E795E04ECBBFE356
:10415000BD1508F471CBED2DF0E0E858F84A8083E6
:10416000D394D092305768CB80910804881F882759
:10417000881FE9CB8091A80483FB882780F9E3CBD3
:10418000933009F4F2CBD8011A968C93BFEFCB1A77
:10419000DB0A005F1F4FE3E0CE16D10409F098CB95
:1041A00080913957882311F40C94CE2A10923957F4
:1041B000209038572BAE822D90E006E1209ED00152
:1041C0001124A950B24A26E1833098F454963C91C8
:1041D000549731110BC0289FF001299FF00D112435
:1041E000E950F24A108A118A128A138A5696019669
:1041F000EBCF10913757A3961FAFA397812F90E075
:104200002FE5129FD0011124A752B74A25E18C3027
:10421000B8F51C963C911C9731112EC0289FF001D7
:10422000299FF00D1124E550F34A108A118A128A51
:10423000138AFD01EC54F10910821182128213825B
:104240003496108211821282138214821582168291
:1042500017821D921C92119712961D921C92139711
:1042600014961D921D921D921C92179718961D92DE
:104270001D921D921C921B970196A15ABF4FC7CF4A
:10428000D70117962D913C9118972115310589F08A
:1042900013968D919D910D90BC91A02D820F931F2F
:1042A000A11DB11DF70183839483A583B683178273
:1042B0001086F0E1EF0EF11C07E8E01608E5F006C5
:1042C000F9F6209047403090484007EF1DE52196D1
:1042D0000EAF1FAF219710E000E04BAC041508F0C3
:1042E000F4C07801B3E0EE0CFF1CBA95E1F7E20CE4
:1042F000F31CF701E058FF4F208131814281538147
:104300006481758186819781D1014D905D906D901A
:104310007C900E94C3304B015C01C301B2010E943A
:104320004C2E9B01AC01C501B4010E942630B6E1C0
:10433000B09F9001B19F300D1124F901E950F24A6C
:10434000EFABF8AF608B718B828B938BF70120857D
:104350003185428553856485758586859785D1012C
:104360004D905D906D907C901397808422968FAED7
:10437000229791846D969FAE6D97A2842E96AFAED4
:104380002E97B3846296BFAE6297C4846696CFAE12
:104390006697D5846A96DFAE6A9786846B968FAEF1
:1043A0006B9797846C969FAE6C97CD90DD90ED9057
:1043B000FC90AFA9B8AD50968D909D90AD90BC90FB
:1043C000539729968CAE9DAEAEAEBFAE29970E9494
:1043D000BF304B015C01C301B2010E944C2E9B0116
:1043E000AC01C501B4010E9426304B015C0122964C
:1043F0002FAD22976D963FAD6D972E964FAD2E97B0
:1044000062965FAD629766966FAD66976A967FAD6E
:104410006A976B968FAD6B976C969FAD6C970E9469
:10442000BF309B01AC01C501B4010E94AD2E4B0110
:104430005C01C701B6010E944C2E9B01AC01C50175
:10444000B4010E9426309B01AC0129966CAD7DAD74
:104450008EAD9FAD29970E94C12FEFA9F8AD608B5B
:10446000718B828B938B60897189828993890E9479
:104470006C31AFA9B8AD50966D937D938D939C939D
:10448000539750966D917D918D919C915397219664
:10449000EEADFFAD219721813281438154810E948D
:1044A000AD2EAFA9B8AD50966D937D938D939C932F
:1044B00053970F5F1F4F2196EEADFFAD2197769674
:1044C0002196EEAFFFAF219708CFF101848195814E
:1044D000A681B78180819181A281B3818091365775
:1044E000809134579091355709ED18E521960EAF1C
:1044F0001FAF219707E818E50FAB18AF6D961FAEF9
:104500006D974C01B12CA12CEB968CAE9DAEAEAE4E
:10451000BFAEEB97A3969FACA3976D96AFAC6D978C
:104520009A1409F4B6C4AFA9B8AD0D90BC91A02DF2
:10453000ABAFBCAF1F968C91B8E08B9F800111246C
:10454000020D131DF801E058FF4F20813181428197
:1045500053816481758186819781F101808091808A
:10456000A280B3800E94C3306B017C01C501B401FD
:104570000E944C2E9B01AC01C701B6010E9426305F
:10458000ABADBCAD50966D937D938D939C9353973B
:10459000F80120853185428553856485758586853A
:1045A0009785D1014D905D906D907C90139780849C
:1045B00022968FAE229791842E969FAE2E97A2843C
:1045C0006296AFAE6297B3846696BFAE6697C484B8
:1045D0006A96CFAE6A97D5846B96DFAE6B97E6840A
:1045E0006C96EFAE6C97F7846E96FFAE6E97CD909B
:1045F000DD90ED90FC90ABADBCAD50968D909D9054
:10460000AD90BC90539729968CAE9DAEAEAEBFAE2A
:1046100029970E94BF304B015C01C301B2010E9487
:104620004C2E9B01AC01C501B4010E9426304B0108
:104630005C0122962FAD22972E963FAD2E97629663
:104640004FAD629766965FAD66976A966FAD6A9753
:104650006B967FAD6B976C968FAD6C976E969FAD9A
:104660006E970E94BF309B01AC01C501B4010E944E
:10467000AD2E4B015C01C701B6010E944C2E9B017F
:10468000AC01C501B4010E9426309B01AC01299602
:104690006CAD7DAD8EAD9FAD29970E94C12FEBAD66
:1046A000FCAD608B718B828B938B60897189828961
:1046B00093890E946C31ABADBCAD50966D937D93E8
:1046C0008D939C93539750966D917D918D919C9174
:1046D000539711968D909D90AD90BC9014976196D4
:1046E0008CAE9DAEAEAEBFAE6197A50194010E94A7
:1046F000AD2EEBADFCAD608B718B828B938BF80193
:10470000E850FF4F2081318142815381648175815E
:1047100086819781E858FF4F408062964FAE62973E
:10472000518066965FAE669782806A968FAE6A9772
:1047300093806B969FAE6B97A4806C96AFAE6C9790
:10474000B5806E96BFAE6E97C680A496CFAEA49786
:10475000D780A596DFAEA597D1018D909D90AD90A5
:10476000BC90F801F085A696FFAFA697D8011996E0
:10477000BC91A796BFAFA797F801F285A896FFAFA7
:10478000A897D8011B96BC91A996BFAFA997F8012D
:10479000F485AA96FFAFAA97D8011D96BC91AB9657
:1047A000BFAFAB97F801F685AC96FFAFAC97D801D9
:1047B0001F96BC91AD96BFAFAD97F101408051807F
:1047C00062807380AFA9B8AD12960D90BC91A02DF8
:1047D0002796AEAFBFAF27971F96EC91F0E03196CA
:1047E000A3E0EE0FFF1FAA95E1F7E20DF31DC080D5
:1047F000AE96CFAEAE97D180AF96DFAEAF97E280E8
:10480000E096EFAEE097F380E196FFAEE197C480CB
:10481000E296CFAEE297D580E396DFAEE397E680EF
:10482000E496EFAEE497F780E596FFAEE597D10109
:10483000CD90DD90ED90FC902596CCAEDDAEEEAE49
:10484000FFAE25970E94BF30EFA9F8AD22A133A19A
:1048500044A155A10E94AD2E6B017C0162962FAD43
:10486000629766963FAD66976A964FAD6A976B966C
:104870005FAD6B976C966FAD6C976E967FAD6E97D4
:10488000A4968FADA497A5969FADA5970E94BF3023
:10489000AFA9B8AD96962D913D914D915C919997A8
:1048A0000E94AD2E9B01AC01C701B6010E94C22F30
:1048B0006B017C01C501B4010E944C2E9B01AC012F
:1048C000C701B6010E9426306B017C01A6962FAD70
:1048D000A697A7963FADA797A8964FADA897A9967C
:1048E0005FADA997AA966FADAA97AB967FADAB9730
:1048F000AC968FADAC97AD969FADAD970E94BF3093
:104900004B015C01C301B2010E944C2E9B01AC0122
:10491000C501B4010E9426304B015C01AE962FAD5B
:10492000AE97AF963FADAF97E0964FADE097E1966B
:104930005FADE197E2966FADE297E3967FADE397C7
:10494000E4968FADE497E5969FADE5970E94BF3062
:104950009B01AC01C501B4010E94AD2E4B015C016D
:1049600025966CAD7DAD8EAD9FAD25970E944C2EEA
:104970009B01AC01C501B4010E9426309B01AC0132
:10498000C701B6010E94C12F6B017C012796EEADD5
:10499000FFAD2797218132814381548161966CADAF
:1049A0007DAD8EAD9FAD61970E94AD2EA7019601A2
:1049B0000E94AD2E65966CAF7DAF8EAF9FAF6597B1
:1049C000AFA9B8AD14960D90BC91A02D2396AEAFB3
:1049D000BFAF239727964EAC5FAC279720E030E01F
:1049E000A9014A165B0609F458C1F801E851FE4FC7
:1049F00050806A965FAE6A9781806B968FAE6B9798
:104A000092806C969FAE6C97A3806E96AFAE6E97B9
:104A1000B480A496BFAEA497C580A596CFAEA59747
:104A2000D680A696DFAEA697E780A796EFAEA797AB
:104A3000E858FF4F20813181428153816481758123
:104A400086819781D1018D909D90AD90BC90F801A9
:104A5000F085A896FFAFA897D8011996BC91A996A2
:104A6000BFAFA997F801F285AA96FFAFAA97D80120
:104A70001B96BC91AB96BFAFAB97F801F485AC9693
:104A8000FFAFAC97D8011D96BC91AD96BFAFAD9767
:104A9000F801F685AE96FFAFAE97D8011F96BC9190
:104AA000AF96BFAFAF97F1014080518062807380B5
:104AB0002396AEADBFAD23971F96EC91F0E03196F3
:104AC00003E0EE0FFF1F0A95E1F7E20DF31DC08032
:104AD000E096CFAEE097D180E196DFAEE197E2803D
:104AE000E296EFAEE297F380E396FFAEE3970481A0
:104AF000E4960FAFE4971581E5961FAFE597C68062
:104B0000E696CFAEE697D780E796DFAEE797D1017E
:104B1000ED90FD900D911C916996ECAEFDAE0EAF3F
:104B20001FAF69970E94BF30EFA9F8ADFE962081B4
:104B30003181428153810E94AD2E6B017C016A96C6
:104B40002FAD6A976B963FAD6B976C964FAD6C9798
:104B50006E965FAD6E97A4966FADA497A5967FAD48
:104B6000A597A6968FADA697A7969FADA7970E94EB
:104B7000BF30EFA9F8AD22AD33AD44AD55AD0E94C5
:104B8000AD2E9B01AC01C701B6010E94C22F6B0183
:104B90007C01C501B4010E944C2E9B01AC01C701F0
:104BA000B6010E9426306B017C01A8962FADA89714
:104BB000A9963FADA997AA964FADAA97AB965FADC0
:104BC000AB97AC966FADAC97AD967FADAD97AE960B
:104BD0008FADAE97AF969FADAF970E94BF304B01A0
:104BE0005C01C301B2010E944C2E9B01AC01C501C6
:104BF000B4010E9426304B015C01E0962FADE09796
:104C0000E1963FADE197E2964FADE297E3965FAD57
:104C1000E397E4966FADE497E5967FADE597E6966A
:104C20008FADE697E7969FADE7970E94BF309B0157
:104C3000AC01C501B4010E94AD2E4B015C01699627
:104C40006CAD7DAD8EAD9FAD69970E944C2E9B01E2
:104C5000AC01C501B4010E9426309B01AC01C70123
:104C6000B6010E94C12F6B017C012396AEADBFAD92
:104C7000239711962D913D914D915C9114976196DA
:104C80006CAD7DAD8EAD9FAD61970E94AD2EA7013D
:104C900096010E94AD2E9B01AC0165966CAD7DAD79
:104CA0008EAD9FAD65970E94C12F4B015C01279689
:104CB0004EAC5FAC27972396CEACDFAC239720E0B9
:104CC00030E0A9014C145D0439F4D20150962D91C5
:104CD0003D914D915C915397EBADFCAD608971892D
:104CE000828993890E94AD2E2B013C01AC019B016E
:104CF000C501B4010E9426306B017C0126E636E630
:104D000046E85FE30E94643118160CF4B9C026E649
:104D100036E646E85FEBC701B601BAD787FDB0C0FB
:104D2000A7019601C701B6010E94AA318111A8C04E
:104D30002196AEADBFAD21971896CD92DD92ED9242
:104D4000FC921B9720E030E040E05FE3C501B40136
:104D50000E94C22F0E948E302196AEADBFAD21972A
:104D60006D937C9320E030E040E05FE3C301B2014B
:104D70000E94C22F0E948E302196EEADFFAD21978A
:104D800062837383D1016D917D918D919C9110917E
:104D9000365782D7A5019401E0D76B017C01EB96D1
:104DA0006CAD7DAD8EAD9FADEB9776D79B01AC0121
:104DB000C701B601D2D76B017C01612F70E090E092
:104DC00080E06CD79B01AC01C701B601C6D720E8D3
:104DD00036E948E15BE40E942630EFA9F8AD268170
:104DE0003781408551850E94C22F6B017C0120E0F4
:104DF00030E041E655E40E9426300E948E30072EB6
:104E0000000C880B990B2196AEADBFAD219714967F
:104E10000D911D912D913C911797060F171F281F7B
:104E2000391FFD01048315832683378337D720E09C
:104E300030E041E655E491D79B01AC01C701B601D2
:104E40000E94C12FAFA9B8AD16966D937D938D9337
:104E50009C9319976D960FAD6D970F5F6D960FAF81
:104E60006D97A15ABF4FAFABB8AF21960EAD1FAD36
:104E70002197015A1F4F21960EAF1FAF21974ACBA2
:104E80002196EEADFFAD219710861186128613860E
:104E900059CF80915358882309F44FC0E091565858
:104EA000F0E03196B3E0EE0FFF1FBA95E1F7E20DA7
:104EB000F31D208131814281538164817581868116
:104EC0009781D1018D909D90AD90BC900E94BF3094
:104ED0006B017C01C501B401DFD69B01AC01C701A8
:104EE000B6010E9426306B017C016091515870918F
:104EF00052587695679590E080E0CED69B01AC0144
:104F0000C701B6010E94C22F20E030E040E05FE31D
:104F10000E94C22F0E94933060935458709355584A
:104F2000C10188529D4F8215930561F0F1011082F5
:104F300081010F5F1F4F1801F6CF10925458109245
:104F40005558EECF8091465790914757A0914857BA
:104F5000B0914957892B8A2B8B2B99F480E00E94C2
:104F6000BF0D65E070E080E090E00E94580960911C
:104F70009E5E70919F5E8091A05E9091A15E0E9466
:104F8000BE098091465790914757A0914857B091DC
:104F900049570196A11DB11D8093465790934757DD
:104FA000A0934857B0934957FAE46F2EF7E57F2E48
:104FB000730110E000E0A6E1DA2ED09EF001D19E50
:104FC000F00D1124E950F24A608971898289938930
:104FD00020E030E048EC52E4C0D60E948E30D70189
:104FE0006D937D937D010F5F1F4F0330110529F7EE
:104FF0007CE5C72E77E5D72EE0E5EE2EE7E5FE2E21
:105000008AE397E5A7019601ABEFBCE51FE554964F
:105010000C91549770E060E0002349F0FC0160813E
:10502000169FF0011124E752F74A60817181FA015D
:1050300061937193AF01812C912C5401002359F09D
:10504000FC016081169FF0011124E352F74A808031
:105050009180A280B380F90181929192A192B19244
:105060009F0155960196FDE5A937BF0781F680910E
:105070005A5890915B58A0915C58B0915D588093BC
:10508000745790937557A0937657B0937757809144
:10509000645E882309F493C082E3E6E4F7E5DE0169
:1050A000119601900D928A95E1F780E10E945406D5
:1050B0000E9489094B015C010E94890968197909DC
:1050C0008A099B096931710581059105C0F487E260
:1050D0000E94440687FFFBCF84E20E94440690E0D2
:1050E0009195819591098E339F4F4CF08DE30E94ED
:1050F0004406682F64608DE30E944A06DDCF8091EC
:10510000EC5E813009F053C284E00E94540687E2CD
:105110000E94440687FFFBCF62ED80E30E944A06AF
:1051200062ED8FEF9FEF0E94100B8C012D9880E8AD
:105130000E943A068091EA5E8F710E943A06609161
:10514000EA5E6F71C8010E94100B8C0182E30E941D
:105150003A0662E3C8010E94100B5C018E010F5FEA
:105160001F4FD8018D918D010E943A06F8013197A9
:105170006081C5010E94100B5C012DA83EA802159C
:10518000130579F70E943A068B2D0E943A068B2D63
:105190000E943A068AEA0E943A062D9A8CE00E9402
:1051A000540688E20E94440683FFFBCF84E00E94FD
:1051B000540662E370E080E090E00E94580980901D
:1051C000465790904757A0904857B09049578091C4
:1051D000A65E882309F41CC288E09CE00E94C208F5
:1051E0004AE0C501B4010E94500B01E010E084E0E8
:1051F0009CE00E94C208C8010E94040C8CE591E466
:105200000E944A0BD3016D917D913D01072E000C48
:10521000880B990B43D52AE037ED43E25CE39DD53B
:1052200042E00E94390C0F5F1F4F04301105F9F660
:1052300001E010E080E09CE00E94C208C8010E94EA
:10524000040C8CE591E40E944A0BF7018191919145
:105250007F010E94040C0F5F1F4F0730110551F7AB
:1052600001E010E08CEF9BE00E94C208C8010E94A0
:10527000040C8CE591E40E944A0BD6016D917D915E
:105280008D919D916D010E94DD0B0F5F1F4F0730C7
:10529000110541F78091A25E882379F082EF9BE0AF
:1052A0000E94C2086091745770917557809176572B
:1052B000909177574AE00E94500B80EF9BE00E944C
:1052C000400B6CE370E080E090E00E94580981E0C0
:1052D0000E94BF0D62E370E080E090E00E945809F8
:1052E00080E00E94BF0D2090745730907557409019
:1052F0007657509077572FAA38AE49AE5AAE4090A5
:10530000705750907157609072577090735780919A
:105310006C5790916D57A0916E57B0916F57409117
:1053200068575091695760916A5770916B57009117
:105330006457109165572091665730916757C09018
:105340006057D0906157E0906257F090635780901B
:105350005C5790905D57A0905E57B0905F57E0917A
:10536000395EF0913A5E14012E1A3F0AF10137FEC0
:1053700003C0F195E195F109E83CF1050CF064C03A
:10538000E0913D5EF0913E5E16012E1A3F0AF1015A
:1053900037FE03C0F195E195F109E83CF1050CF009
:1053A00053C0E091415EF091425E18012E1A3F0A0F
:1053B000F10137FE03C0F195E195F109E83CF105F3
:1053C0000CF042C0E091455EF091465E1A012E1A43
:1053D0003F0AF10137FE03C0F195E195F109E83C80
:1053E000F10594F5E091495EF0914A5E1C012E1A98
:1053F0003F0AF10137FE03C0F195E195F109E83C60
:10540000F10514F5E0914D5EF0914E5E12012E1AF9
:105410003F0AF10137FE03C0F195E195F109E83C3F
:10542000F10594F4E091515EF091525E2FA838ACF2
:105430002E1A3F0AF10137FE03C0F195E195F109FB
:10544000E83CF1050CF4AAC08092395E90923A5E75
:10545000A0923B5EB0923C5EC0923D5ED0923E5EBA
:10546000E0923F5EF092405E0093415E1093425E98
:105470002093435E3093445E4093455E5093465E76
:105480006093475E7093485E8093495E90934A5E56
:10549000A0934B5EB0934C5E40924D5E50924E5E38
:1054A00060924F5E7092505E8FA898ACA9ACBAAC77
:1054B0008092515E9092525EA092535EB092545E82
:1054C0000091595E10915A5E0115110549F1C8010C
:1054D000957189839A83CE0101960E94320A90E0E9
:1054E00080935B5E90935C5E09831A836FEFCE01BD
:1054F00001960E94990A8091595E90915A5E20917E
:10550000575E3091585E820F931F8093595E90933F
:105510005A5E20915F5E3091605E8217930744F07F
:1055200080915D5E90915E5E8093595E90935A5E2D
:1055300080915B5E90915C5E880F991F99278160D6
:105540008F3F910509F44EC180935B5E90935C5E42
:1055500060915B5E8091595E90915A5E89839A83D7
:10556000CE0101960E94990A8091595E90915A5EEF
:1055700009E31EE59C0128533E457901C701800FD0
:10558000911F89839A83D8016D918D01CE01019677
:105590000E94990ABEE505351B0781F7A89564E1CD
:1055A00070E080E090E00E9458090C94751B8230F6
:1055B00009F0FFCD84E00E94540687E20E94440671
:1055C00087FFFBCF2D9880E80E943A0684E30E9473
:1055D0003A068091EB5E0E943A068091EA5E0E9454
:1055E0003A068E010F5F1F4FD8018D918D010E94E9
:1055F0003A062DA83EA802151305B1F72D9A8CE0A6
:105600000E94540688E20E94440683FFFBCFCECD61
:105610008BEE9BE00E94C2084AE0C501B4010E94E3
:10562000500B01E010E088EE9BE00E94C208C80128
:105630000E94040C8DE591E40E944A0BF3016191F4
:1056400071913F01072E000C880B990B27D32AE09C
:1056500037ED43E25CE381D342E00E94390C0F5FF7
:105660001F4F04301105F9F601E010E085EE9BE0D4
:105670000E94C208C8010E94040C8DE591E40E94BA
:105680004A0BD7018D919D917D010E94040C0F5F03
:105690001F4F0730110551F701E010E082EE9BE04B
:1056A0000E94C208C8010E94040C8DE591E40E948A
:1056B0004A0BF60161917191819191916F010E9464
:1056C000DD0B0F5F1F4F0730110541F78091A25E80
:1056D000882379F08AED9BE00E94C208609174579C
:1056E0007091755780917657909177574AE00E9454
:1056F000500B8091A55E811107C00E943D0B68E2AE
:1057000070E080E090E0E1CD5BEFE52E5CE5F52E0A
:1057100010E000E065E1B62E87ED9BE00E94C20834
:1057200068010F5F1F4FC8010E94040C8DE591E4D2
:105730000E944A0BD70154968C91882309F44AC0E1
:10574000BC9CF001BD9CF00D1124E550F34A60892A
:1057500071898289938943E00E94390CB5E1EB0E8F
:10576000F11C06301105C1F63BEFE32E3CE5F32EAC
:1057700001E010E04FE5D42E83ED9BE00E94C208CB
:10578000C8010E94040C8DE591E40E944A0BF701C8
:105790008489882319F1F801E75CF84AE081DE9EEC
:1057A000F0011124EF51F74A608171818281938168
:1057B00044E00E94390C0F5F1F4FF5E1EF0EF11C22
:1057C00007301105C9F60E943D0B60E570E080E0EE
:1057D00090E07BCD60E070E0CB01BDCF60E070E099
:1057E000CB01E6CF8EEF90E0AFCE6D2D81E00E9431
:1057F000EE0D7C010C945C1D602F81E00E94EE0D8B
:105800007C016D2D8C2D0E941A0E2D966CAF7DAFF4
:105810008EAF9FAF2D970C945C1D8F929F92AF928D
:10582000BF92CF92DF92EF92FF92CF93DF93EC0182
:10583000688179818A819B81611571058105910556
:1058400021F464E279ED8BE597E02DE133EF41E05F
:1058500050E03AD349015A019B01AC01A7EAB1E4F7
:105860004FD36B017C01ACEEB4EFA501940154D38E
:10587000C60ED71EE81EF91EF7FE06C081E0C81A44
:10588000D108E10880E8F80AC882D982EA82FB825E
:10589000C701B6019F77DF91CF91FF90EF90DF9026
:1058A000CF90BF90AF909F908F9008958F929F92CE
:1058B000AF92BF92CF92DF92EF92FF9260914D40F4
:1058C00070914E4080914F4090915040611571050C
:1058D0008105910521F464E279ED8BE597E02DE1F6
:1058E00033EF41E050E0F0D249015A019B01AC0195
:1058F000A7EAB1E405D36B017C01ACEEB4EFA501DE
:1059000094010AD3C60ED71EE81EF91EF7FE06C084
:1059100081E0C81AD108E10880E8F80AC0924D4039
:10592000D0924E40E0924F40F0925040C701B601F5
:105930009F77FF90EF90DF90CF90BF90AF909F90B8
:105940008F90089560934D4070934E4080934F40E8
:105950009093504008956627772725C0FC0188273B
:105960009927E89421912032E9F3293010F02E3064
:10597000C8F32B3239F02D3231F4689403C00BD0C8
:10598000820F911D219120532A30C8F31EF4909567
:1059900081959F4F08957AE0979F902D879F802D46
:1059A000910D112408958F929F92AF92BF92CF9242
:1059B000DF92EF92FF920F931F93CF93DF935C01DF
:1059C0007B016115710519F0DB018D939C938501B5
:1059D0000F5F1F4FF501D0818D2F90E039D16C0101
:1059E000892BA9F5DD32A9F50F5F1F4FD50111965F
:1059F000DC91C1E05801F1E0AF1AB10843E050E09A
:105A00006CEF72E0C5012CD1892B61F5680182E051
:105A1000C80ED11C45E050E067EF72E0C60120D10E
:105A2000892B21F4680197E0C90ED11CE114F1041F
:105A300019F0D701CD92DC9260E070E080E89FEF32
:105A4000C111F9C060E070E080E89FE7F4C0580140
:105A5000BECFDB3229F485010E5F1F4FF501D181E6
:105A6000C0E0C8CF43E050E064EF72E0C501F8D079
:105A7000892BE9F0F80110E000E020E030E0A90116
:105A80005F01B0ED8B2E8D0E89E08815C0F19C2E44
:105A9000689491F88C2F8870C2FF16C0811102C0E3
:105AA0000F5F1F4F3196D501DC91C92DE9CFE1146D
:105AB000F10429F00E5F1F4FF7010083118360E0AE
:105AC00070E080EC9FE7B7C0882311F00150110906
:105AD000A5E0B0E015D29B01AC01220F331F441F9B
:105AE000551F280D311D411D511D283999E93907D0
:105AF000490799E15907B0F2C6609C2ED3CFAEEFAB
:105B00008A1206C0C3FD3CC09C2E689493F8CACF8D
:105B1000DF7DD534A9F580818D3239F4C061DF0194
:105B20001296818162E070E006C0DF018B32C1F322
:105B3000119661E070E080535D01A61AB70A8A30C1
:105B4000F8F4E0E8CE16ECE0DE065CF4B601660F91
:105B5000771F660F771FC60ED71ECC0CDD1CC80E34
:105B6000D11C5D01FFEFAF1ABF0A8C9180538A30C0
:105B700098F1C4FF03C0D194C194D1080C0D1D1D30
:105B8000C1FF09C0E114F10431F081E0A81AB108A5
:105B9000D701AD92BC92CA01B9017ED0C370C330A7
:105BA00009F490584B015C0120E030E0A90170D06D
:105BB000882309F43EC0CBE2D3E017FF05C011955E
:105BC00001951109C3E1D3E06E01B8E1CB1AD10808
:105BD00080E2E82EF12C0EC0D501B3CFFE01259155
:105BE0003591459154910E191F09C501B401B5D0E5
:105BF0004B015C01D501C4010E151F057CF72497EC
:105C0000F594E794CC16DD06A9F78A2F880F8B2F21
:105C1000881F8F3F41F020E030E0A901C501B401A9
:105C200037D0811106C082E290E08093EE5E9093BF
:105C3000EF5EC501B401DF91CF911F910F91FF90ED
:105C4000EF90DF90CF90BF90AF909F908F9008958E
:105C50009111E6C0803219F089508550D0F708952F
:105C6000FB01DC014150504088F08D9181341CF0E3
:105C70008B350CF4805E659161341CF06B350CF44F
:105C8000605E861B611171F3990B0895881BFCCF30
:105C900040D008F481E00895E89409C097FB3EF4F1
:105CA00090958095709561957F4F8F4F9F4F992369
:105CB000A9F0F92F96E9BB279395F69587957795E7
:105CC0006795B795F111F8CFFAF4BB0F11F460FFA7
:105CD0001BC06F5F7F4F8F4F9F4F16C0882311F0FF
