:1002000032C600005AC6000058C600000C94C6163C
:1002100054C6000052C6000050C600004EC6000082
:100220000C9405174AC6000048C6000046C60000E8
:1002300044C6000042C6000040C600003EC60000A2
:100240003CC600003AC6000038C6000036C60000B2
:1002500034C6000032C6000030C600002EC60000C2
:100260000C94FC162AC600000C94531726C60000F6
:1002700024C6000022C600000C94FF160C94CE1673
:100280001CC600001AC6000018C600000C94F61622
:1002900014C6000012C6000010C600000EC6000002
:1002A0000CC600000AC6000008C6000006C6000012
:1002B00004C600000C9402170C94F916FEC5000049
:1002C000FCC50000FAC50000F8C50000F6C5000036
:1002D000F4C500000C9458160C9453160C945D163B
:1002E000ECC50000EAC50000E8C50000E6C5000056
:1002F000E4C5000005A84CCDB2D44EB93836A902E9
:100300000C50B9918688083CA6AAAA2ABE00000013
:10031000803F4E414E494E495459494E46CDCCCC72
:100320003D0AD7233C17B7D13877CC2B329595E6C9
:10033000241FB14F0A000020410000C84200401CA9
:100340004620BCBE4CCA1B0E5AAEC59D74766F6C5F
:1003500074616765203D2031706861736500656D6B
:100360006F6E547834006861726477617265203D05
:10037000200076657273696F6E203D20005F7465A2
:100380006D7065726174757265006669726D776112
:100390007265203D20656D6F6E5F434D5F3643543F
:1003A0000074656D705F656E61626C65203D203024
:1003B000004E6F2074656D70657261747572652092
:1003C00073656E736F7273206465746563746564BE
:1003D0002C2064697361626C696E672074656D704E
:1003E000657261747572650074656D705F656E61CC
:1003F000626C65203D20300074656D705F656E61D4
:10040000626C65203D2031006A736F6E203D206F65
:100410006666006A736F6E203D206F6E00646174C3
:10042000616C6F67203D20002C20694C6561640081
:100430006943616C00617373756D656456203D207E
:10044000007643616C203D20004A65654C6962205E
:10045000436C6173736963002C207266466F726D22
:100460006174203D20002C207266506F77657220E9
:100470003D20002C2072664E6F6465203D200020D8
:100480004D487A2C20726647726F7570203D2000AF
:100490005246203D206F6E2C20726642616E6420B1
:1004A0003D20005246203D206F6666006D73002C93
:1004B0002070756C7365506572696F64203D200013
:1004C0006F66660070756C7365203D20004E6F206E
:1004D000454550524F4D20636F6E666967004C6F03
:1004E0006164656420454550524F4D20636F6E66D0
:1004F0006967007672656661203D20000A00202849
:1005000068696464656E292E0020627974657300E1
:100510002C20446174612073697A653A200020536D
:1005200069676E61747572653A20004E6F20646170
:10053000746120626C6F636B20666F756E64202D32
:1005400020454550524F4D20617070656172732097
:10055000746F20626520666F726D617474656420CB
:10056000746F204F454D205374616E646172642036
:1005700062757420756E757365642E000A002062C2
:10058000797465732C206E6F7420666F726D617460
:1005900074656420746F204F454D205374616E6400
:1005A0006172640053697A653A2000446F6E652E6B
:1005B000204E657720636F6E66696720736176658C
:1005C0006420746F20454550524F4D005361766949
:1005D0006E672E2E2E00536B657463682077696CEE
:1005E0006C206E6F772072657374617274207573FE
:1005F000696E672064656661756C7420636F6E66F2
:1006000069672E00526573657474696E672E2E2EAD
:100610000020000A417661696C61626C6520636F3D
:100620006D6D616E64733A0A6C09092D206C6973F3
:1006300074207468652073657474696E67730A72D8
:1006400009092D20726573746F726520736B657470
:1006500063682064656661756C74730A7309092D9B
:1006600020736176652073657474696E6773207496
:100670006F20454550524F4D0A7609092D20736869
:100680006F77206669726D77617265207665727327
:10069000696F6E0A7A09092D207A65726F20656E7E
:1006A000657267792076616C7565730A7809092D22
:1006B00020657869742C206C6F636B20616E6420F8
:1006C000636F6E74696E75650A3F09092D20736842
:1006D0006F7720746869732074657874206167612E
:1006E000696E0A0A773C783E09092D207475726E8E
:1006F0002052464D20576972656C657373206461A2
:100700007461206F66663A2078203D2030206F7239
:10071000206F6E3A2078203D20310A623C6E3E09FF
:10072000092D2073657420722E662E2062616E641E
:10073000206E203D20612073696E676C65206E75A8
:100740006D6572616C3A2034203D203433334D485E
:100750007A2C2038203D203836384D487A2C2039E4
:10076000203D203931354D487A20286D617920723D
:100770006571756972652068617264776172652060
:100780006368616E6765290A703C6E6E3E09092DCB
:10079000207365742074686520722E662E20706F39
:1007A0007765722E206E6E202D20616E20696E742A
:1007B000656765722030202D20333120726570729C
:1007C0006573656E74696E67202D31382064426DE3
:1007D00020746F202B31332064426D2E20446566D7
:1007E00061756C743A20323520282B372064426DB5
:1007F000290A673C6E6E6E3E092D20736574204E8B
:100800006574776F726B2047726F757020206E6E03
:100810006E202D20616E20696E74656765722028D8
:100820004F454D2064656661756C74203D20323102
:1008300030290A6E3C6E6E3E09092D2073657420C6
:100840006E6F6465204944206E3D20616E20696EA4
:10085000746567657220287374616E6461726420C8
:100860006E6F6465206964732061726520312E2E7D
:100870003630290A0A643C78782E783E092D207893
:10088000782E78203D206120666C6F6174696E67F8
:1008900020706F696E74206E756D62657220666F70
:1008A000722074686520646174616C6F6767696E3B
:1008B0006720706572696F640A633C6E3E09092D9A
:1008C000206E203D203020666F72204F46462C203F
:1008D0006E203D203120666F72204F4E2C20656EB9
:1008E00061626C6520766F6C746167652C2063753E
:1008F0007272656E74202620706F77657220666153
:1009000063746F722076616C75657320746F2073E9
:10091000657269616C206F757470757420666F7292
:100920002063616C6962726174696F6E2E200A6A5D
:100930003C6E3E09092D207475726E204A534F4E4D
:100940002053657269616C20666F726D6174206FEF
:100950006E20283129206F72206F6666202830298A
:100960002E0A663C78783E09092D207878203D20B3
:10097000746865206C696E65206672657175656E58
:10098000637920696E20487A3A206E6F726D616CCF
:100990006C7920656974686572203530206F72202B
:1009A00036300A6B3C783E203C79792E793E203CEB
:1009B0007A7A2E7A3E0A09092D2043616C696272A7
:1009C00061746520616E20616E616C6F6775652072
:1009D000696E707574206368616E6E656C3A0A09A1
:1009E00009202078203D20612073696E676C6520A6
:1009F0006E756D6572616C3A2030203D20766F6CAB
:100A0000746167652063616C6962726174696F6E9D
:100A10002C2031203D206374312063616C69627247
:100A20006174696F6E2C2032203D20637432206324
:100A3000616C6962726174696F6E2C206574630AFF
:100A40000909202079792E79203D206120666C6F7C
:100A50006174696E6720706F696E74206E756D6267
:100A6000657220666F722074686520766F6C7461A1
:100A700067652F63757272656E742063616C69625D
:100A8000726174696F6E20636F6E7374616E740A45
:100A9000090920207A7A2E7A203D206120666C6F29
:100AA0006174696E6720706F696E74206E756D6217
:100AB000657220666F722074686520706861736566
:100AC0002063616C6962726174696F6E20666F7217
:100AD000207468697320632E742E20287A2069732D
:100AE000206E6F74206E65656465642C206F7220C3
:100AF00069676E6F72656420696620737570706CCB
:100B00006965642C207768656E2078203D20302947
:100B10000A09092020652E672E206B3020323536D9
:100B20002E380A0909202020202020206B3120396E
:100B3000302E3920322E30300A613C78782E783EC3
:100B4000092D2078782E78203D206120666C6F6119
:100B500074696E6720706F696E74206E756D626562
:100B60007220666F722074686520617373756D659D
:100B70006420766F6C74616765206966206E6F20F3
:100B8000612E632E206973206465746563746564E7
:100B90000A6D3C783E203C79793E092D206D6574C4
:100BA00065722070756C736520636F756E74696E05
:100BB000673A0A090920202078203D203020666FFE
:100BC00072204F46462C2078203D203120666F72DF
:100BD000204F4E2C203C79793E203D20616E2069CB
:100BE0006E746567657220666F7220746865207028
:100BF000756C7365206D696E696D756D20706572B9
:100C0000696F6420696E206D732E202879206973C6
:100C1000206E6F74206E65656465642C206F722091
:100C200069676E6F726564207768656E2078203D15
:100C30002030290A743C783E09092D207475726EA3
:100C40002074656D7065726174757265206D656183
:100C5000737572656D656E74206F6E206F72206F94
:100C6000663A2078203D2030206F72206F6E3A2047
:100C700078203D20310A00456E65726779207661E3
:100C80006C7565732073657420746F207A65726F5C
:100C900000436F6E74696E75696E672E2E2E00723A
:100CA00066506F776572203D200072664E6F6465F6
:100CB000203D20002C20694C656164006943616C13
:100CC000007643616C203D2000726647726F75703C
:100CD000203D200066726571203D200061737375B0
:100CE0006D656456726D73203D2000646174616CA3
:100CF0006F67203D20006A736F6E203D206F66662F
:100D0000006A736F6E203D206F6E00204D487A00A0
:100D1000726642616E64203D2000005EBCE2613F6D
:100D2000DD83C29C7E20A3FD1F41009D23BE46DBC8
:100D300065F88C11AF32CA57E9742C7066002C49E3
:100D4000002C70756C73653A002C54002C45002CF7
:100D500050002C56726D733A004D53473A007D0097
:100D60002C2270756C7365223A002C2254002C22C0
:100D700045002C2250002C2256726D73223A007BC3
:100D8000224D5347223A002056004143206D69739B
:100D900073696E67202D204170706172656E7420DA
:100DA000506F7765722063616C6320656E61626C61
:100DB00065642C20617373756D696E672000414313
:100DC0002070726573656E74202D205265616C20F1
:100DD000506F7765722063616C6320656E61626C31
:100DE00065640020656E61626C65642E0054656DFB
:100DF0007065726174757265206D65617375726579
:100E00006D656E742069730053656E736F72206D2B
:100E10006179206E6F742062652072656C69616211
:100E20006C6500200030002C2077697468206164B4
:100E3000647265737365732E2E2E0054656D706534
:100E40007261747572652053656E736F727320667C
:100E50006F756E64203D20000A0000080A400CFFF8
:100E6000C000C000CF1A11241FBECFEFCDBFDFE7F7
:100E7000DEBF11E4A0E0B0E4ECE5F1E700E00BBF79
:100E800002C007900D92AC3BB107D9F727E4ACEB59
:100E9000B1E401C01D92A335B207E1F717E0C3E347
:100EA000D7E004C02197FE010E947438C233D107F5
:100EB000C9F70E94401C0C94AC38A2C9CF93DF93B1
:100EC000282F30E09FEF893220F5E901C35CDE4B2B
:100ED00098819F3FE9F0F901EC5EFE4BA08140E272
:100EE000A49FD0011124BC5FF901E551FF4BE081C3
:100EF000E830C0F5AD01405F5F4FE40FF52FF11D05
:100F00004FB7F89412969C939081977F90834FBF30
:100F1000988190934146893240F52C5E3E4BF90111
:100F20008081F4E08F9FC00111248093424690930A
:100F3000434610924C4610924E4610924D461092E7
:100F40004B4610924A4610924946109248461092DB
:100F50004746109246461092454610924446DF910D
:100F6000CF910895F0E0E0E0CBCF8CEF93E0DDCFC0
:100F700090914146E0914246F0914346292F2095B9
:100F800080FF15C0F8948181822381838081892B21
:100F9000808380E58A95F1F78181982B91837894FD
:100FA000A9E4B1E01197F1F700C000000895F894AA
:100FB0008181822381838081892B8083A5E8B1E0B0
:100FC0001197F1F700C000008181982B91837894EC
:100FD000B8E2BA95F1F7089580914146E091424612
:100FE000F0914346F8949081982B90832181382F7B
:100FF00030952323218398E19A95F1F790819323EB
:10100000908390E59A95F1F792817894EDE3F1E081
:101010003197F1F700C00000982381E009F480E0E7
:1010200008950000809364098091630987FFFCCFD5
:101030008091640908952D98F4DF80E0F2DF2D9A05
:101040000895CF93C62F2D988068EBDF8C2FE9DFB2
:101050002D9ACF910895CF9390915047981791F082
:10106000C82F81E0E8DF837E682F6C2B81E0E9DF09
:1010700080915047811104C087E2DDDF87FFF8CF00
:10108000C0935047CF910895CF93DF93EC018881AF
:10109000882321F06981D5DF2296F9CFDF91CF91A6
:1010A0000895893260F590E0FC01E551FF4BE08145
:1010B000EF3F29F18C5E9E4BDC018C9190E0DC01CE
:1010C000AA0FBB1FAA5ABF4B2D913C912115310588
:1010D000B1F04E2F50E0440F551F240F351FD9019A
:1010E0006D937C93E05FA5E0880F991FAA95E1F7C7
:1010F000E80FF0E0FC5F8081887F82608083089544
:10110000AF92BF92CF92DF92EF92FF920F931F9315
:10111000CF93DF936C017B018B01040F151FEB0153
:101120005E01AE18BF08C017D10759F06991D6010A
:10113000ED91FC910190F081E02DC6010995892B7C
:1011400079F7C501DF91CF911F910F91FF90EF903B
:10115000DF90CF90BF90AF900895FC0155894689EC
:10116000252F30E0842F90E0821B930B541710F052
:10117000CF96089501970895FC0193898489981763
:1011800061F0A489AE0FBF2FB11D57968C91948941
:101190009F5F9F73948B90E008958FEF9FEF08956A
:1011A000FC0193898489981731F08489E80FF11D37
:1011B000878990E008958FEF9FEF0895FC01938950
:1011C0002489892F90E0805C9F4F821B91098F7347
:1011D00099270895CF93DF93EC01E881F981068088
:1011E000F781E02D0995EC85FD8586811682858144
:1011F000158280E484838C898B8B1A8ADF91CF914E
:1012000008958F929F92AF92BF92FF920F931F9378
:10121000CF93DF938C014A015B01D22FC32FDC01F6
:1012200052968C91529780FF07C0ED91FC910288F5
:10123000F389E02DC8010995D11101C0D3E0FD2E3D
:10124000E894F2F8DC2FD095D07CB1E68B16B3EEA3
:101250009B06B6E1AB06B10428F0D260B694A79421
:101260009794879460E078ED88EB95E0A501940170
:101270000E941C36C9012034310510F480E490E04E
:101280003C2F3B72D7FD30684D2F487C30FD4160CC
:101290005FB7F894D8011C96ED91FC911682F78205
:1012A0008087918735FF8FC04F7781E084878FEFEC
:1012B00085873F7D3583D683F8012189C08986855E
:1012C0009785FC0133E0239FE00DF11D112465910A
:1012D00074912C1708F059C0272F46FF76C0793239
:1012E00088F430E0F901E35CFE4BA081AF3F51F0A0
:1012F0002C5E3E4BF901308120E2329FF001112437
:10130000FC5FA18347FF2AC021E0270F293230F577
:1013100030E0F901E35CFE4BD081DF3FF9F0F901E9
:10132000EC5EFE4BA081F0E2AF9FD0011124BC5FC8
:1013300025513F4BF9011081F0E0E0E0183030F426
:101340009D01205F3F4FF901E10FF11D3FB7F89478
:101350001296DC932081286020833FBF40FF15C098
:1013600023E0270F293288F430E0F901E35CFE4BDB
:1013700040814F3F51F02C5E3E4BD901EC91B0E2E1
:10138000EB9FF0011124FC5F4183FC0123E0C29F2D
:10139000E00DF11D1124319625913491F901FF27BB
:1013A000EE51FA4F9081832F80958923682B6083BB
:1013B0005FBFDF91CF911F910F91FF90BF90AF90D2
:1013C0009F908F900895148674CF342F307509F450
:1013D00099CF793208F096CF30E0F901E35CFE4B0B
:1013E000D081DF3F09F48ECFF901EC5EFE4BA08186
:1013F000E0E2AE9FD0011124BC5F25513F4BF901C3
:101400001081F0E0E0E0183030F49D01205F3F4FA4
:10141000F901E10FF11D3FB7F8941296DC9320819A
:10142000286020833FBF6ECFFC010FB607FE04C0CB
:10143000809111018823A9F0A485B58514968C911B
:10144000149785FF0EC095898689981739F01596EF
:101450008C9115978F7D15968C930895E8940C9434
:10146000681608950F931F93CF93DF93EC018A8939
:10147000982F91609A8B2D899E8929130AC0EC853B
:10148000FD85948195FF05C081FD0DC080E48483B6
:1014900012C0062F1D891F5F1F738E89811315C00F
:1014A000CE01C2DFFACF85818F77806490E4948388
:1014B000EC85FD858583EC85FD85628381E090E088
:1014C000DF91CF911F910F910895ED89EC0FFD2FC2
:1014D000F11DE95AFF4F00831D8BEC85FD858A893C
:1014E00081FF09C085818F77806690E49483EC85C5
:1014F000FD858583E3CF85818062FBCF0F931F93AA
:10150000CF93DF938C01D0E0C0E0F801EC0FFD1F1A
:101510006491662339F08DE995E4A4DF892B11F0FD
:101520002196F3CFCE01DF91CF911F910F910895B6
:10153000682F8DE995E496CFCF93DF93EC018A89EC
:1015400080FF0BC0EC85FD85858185FD03C084810E
:1015500086FD03C0CE0168DFF5CFDF91CF910895FE
:1015600081E008950F98079A20E533EC93E0179AED
:1015700044E1F9013197F1F74150D9F7482F179A13
:10158000F9013197F1F7179A59E0F9013197F1F71D
:101590005150D9F7415099F7915049F7E7CF9FB78C
:1015A000F894E0912A0BF0912B0B8091260B20915F
:1015B0004D4430914E4440914F44509150449FBF10
:1015C00080FF08C0EC3E8CE2F80720F42F5F3F4F0D
:1015D0004F4F5F4F0F01169407941694079416947B
:1015E000079416940794F00116940794E00DF11DEA
:1015F00016940794102C169401181694010C169446
:1016000001181694010C1694011816941694010CE6
:101610001124E019F109A8EEB3E00E940C366E0F18
:101620007F1F811D911D08958F929F92AF92BF924F
:10163000CF92DF92EF92FF926B017C01B0DF4B0102
:101640005C01C114D104E104F104B1F0A8DF681910
:1016500079098A099B09683E73408105910588F3E1
:1016600021E0C21AD108E108F10888EE880E83E073
:10167000981EA11CB11CE5CFFF90EF90DF90CF909A
:10168000BF90AF909F908F9008952FB7F89460917E
:101690004D4470914E4480914F44909150442FBFDF
:1016A0000895CF92DF92EF92FF920F931F93CF9303
:1016B000DF93082F10E096E1899FE0011124CD5AB5
:1016C000D94B8E819F81A885B985892B8A2B8B2B3D
:1016D00099F1DBDFCA88DB88EC88FD886C197D090D
:1016E0008E099F09CE80DF80E884F984C616D7066C
:1016F000E806F90658F48E859F85A889B989019670
:10170000A11DB11D8E879F87A88BB98BBEDF26E1F7
:10171000209FF001219FF00D1124ED5AF94B628BAF
:10172000738B848B958BDF91CF911F910F91FF90DD
:10173000EF90DF90CF9008958E859F85A889B98915
:101740000196A11DB11D8E879F87A88BB98BEBCF0A
:1017500080E0A7CF81E0A5CF28E030E041E071E054
:1017600090912644E0912444F0912544A92FA0951E
:10177000582F542370934C44552341F151815A23DF
:1017800051835081592B508350E55A95F1F751817F
:10179000952B918310924C44A9E4B1E01197F1F795
:1017A00000C00000440F21503109D1F661110DC075
:1017B000E0912444F09125449081809126448095C5
:1017C00098239083918189238183089551815A239D
:1017D00051835081592B5083A7E6B1E01197F1F75F
:1017E00000C000005181952B918310924C44B8E2C7
:1017F000BA95F1F7D7CF80912644E0912444F09137
:1018000025449081282F2095922390833DE73150E5
:1018100061F190E19A95F1F792819823C1F391815A
:10182000922391839081982B9083AFE3BBE0119733
:10183000F1F700C0000091E090934C449081922316
:101840009083A3EAB1E01197F1F700C00000928104
:10185000982381E009F080E010924C44EBE9F9E034
:101860003197F1F700C00000089580E00895CF920D
:10187000DF92EF92FF920F931F93CF93DF938091AC
:10188000094090E025E0959587952A95E1F78095A8
:10189000909583709927C0EFD2E002C0D595C79587
:1018A0008A95E2F72091484030914940DE010E943C
:1018B000833828E13CEF4FEF5FEF0E94F0358091D5
:1018C0005544909156440197280F391F209328447E
:1018D0003093294420E030E04AE754E460912C4002
:1018E00070912D4080912E4090912F400E9439356B
:1018F0000E9422378E01DD0F220B330B6B017C011E
:10190000C01AD10AE20AF30AA7019601A8EEB3E0D1
:101910000E940C3668587341810991090E94D8349D
:1019200020910B4030910C4040910D4050910E4061
:101930000E94B5360E94223760932C4470932D4448
:1019400080932E4490932F44DF91CF911F910F915C
:10195000FF90EF90DF90CF900895CF92DF92EF92BB
:10196000FF926B017C01C0922C40D0922D40E092FE
:101970002E40F0922F40609148407091494090E095
:1019800080E00E94D834A70196010E9439350E9458
:101990002237609355447093564420E034E244E784
:1019A00059E4C701B6010E94393520910B403091AE
:1019B0000C4040910D4050910E400E94B5360E945F
:1019C00022376093A5447093A6448093A7449093D4
:1019D000A844FF90EF90DF90CF9049CFEF92FF9215
:1019E0000F931F93CF93DF93E0915744CE2FD0E016
:1019F0007E01EE0CFF1CEE0CFF1CD701A05DBF4B5F
:101A00004D935D936D937C931397B701615F7F4B0B
:101A1000DB010D931D932D933C9313979E01275546
:101A20003B4B91E0D9019C93A82FB0E0AE50BB4B4B
:101A3000EC93EF5FE0935744F0E0EE5FFF4B808361
:101A4000DF91CF911F910F91FF90EF900895DC01EE
:101A5000ED91FC91F170FC5E80810895CF92DF9250
:101A6000EF92FF920F931F93CF93DF9300D0CDB7E8
:101A7000DEB76C017C0103E010E009831A83CE011C
:101A80000196E5DFF70181937F010F5F1F4F07305C
:101A9000110599F7C6010F900F90DF91CF911F911B
:101AA0000F91FF90EF90DF90CF9008950F931F93C9
:101AB000CF93DF9300D000D0CDB7DEB78C01198271
:101AC0001A82CE010196C3DF8F34F9F481E090E0F1
:101AD00089839A83CE010196BADF8534B1F482E01E
:101AE00090E089839A83CE010196B1DF8D3469F449
:101AF00081E00115110551F0CE010196AFDF81E0C3
:101B00002B813C812017310709F080E02496CDBF5E
:101B1000DEBFDF91CF911F910F9108951F93CF9357
:101B2000DF93EC01162F93DF8117B1F09FB78091FF
:101B30000210282F227081FDFACFF8948DE984BF1E
:101B40002093001023E184BF20930010E881F981E5
:101B5000F170FC5E10839FBFCE01DF91CF911F918A
:101B60000895CF92DF92EF92FF920F931F93CF933E
:101B7000DF9300D0CDB7DEB76C017C0103E010E04D
:101B800009831A83F70161917F01CE010196C6DFB7
:101B90000F5F1F4F0730110599F7C6010F900F9087
:101BA000DF91CF911F910F91FF90EF90DF90CF9039
:101BB00008950F931F93CF93DF9300D0CDB7DEB777
:101BC0000091A3461091A4468091A5469091A64607
:101BD000081719079CF4C801957189839A836FEFE0
:101BE000CE0101969BDF10929F461092A0468091F5
:101BF0009D4690919E46080F191FE6CF0F900F90BB
:101C0000DF91CF911F910F9108958627682F6295DC
:101C10006827062E669566956025062E66956025D2
:101C20006770082E892F669507946795902D8627F3
:101C300006946795902586270895DC01ED91FC9127
:101C40000088F189E02D23E030E00994FC01019047
:101C50000020E9F73197AF01481B590BBC018DE912
:101C600095E44ECA80E891E4F1CFCF93DF9346DC50
:101C7000EC01F8DF8C0F9D1FDF91CF9108958AE86A
:101C800093E03CDC8DE793E0F0DF82E793E036DC25
:101C900083E891E4DBDF86E693E030DC8EE593E0D9
:101CA000E4DF8DE493E0E1CF009709F0CFCF90E03F
:101CB00080E008958F929F92AF92BF920F931F93EF
:101CC000CF93DF93CDB7DEB7A197CDBFDEBF19A20B
:101CD000423008F44AE08E010F5D1F4F842E912C94
:101CE000B12CA12CA50194010E941C36E62FB9014C
:101CF000CA01EA30D4F4E05DD801EE938D01232BC4
:101D0000242B252B79F790E080E0109711F0CD017E
:101D10009DDFA196CDBFDEBFDF91CF911F910F91C7
:101D2000BF90AF909F908F900895E95CE5CFAF9200
:101D3000BF92CF92DF92EF92FF920F931F93CF93B8
:101D4000DF9300D0CDB7DEB76C015B0110E000E09F
:101D50000A151B057CF57801EC0CFD1C85E1F822C9
:101D6000E982FA82CE01019672DE803110F480E3BE
:101D7000DFDB0F5F1F4FE982FA82CE01019667DE3B
:101D8000682F70E090E080E040E194DF85EA91E424
:101D90008BDFC80187709927892B19F485EA91E4B4
:101DA00083DFC8018F709927892B91F688E59EE023
:101DB000A5DBCECF0F900F90DF91CF911F910F91A8
:101DC000FF90EF90DF90CF90BF90AF900895CF92AB
:101DD000DF92EF92FF92CF93DF9397FF17C06B01D3
:101DE0007C018DE2A5DBEC0166277727CB016C191E
:101DF0007D098E099F094AE05DDF8C0F9D1FDF91F1
:101E0000CF91FF90EF90DF90CF9008954AE0DF915F
:101E1000CF91FF90EF90DF90CF904CCFBC01990F06
:101E2000880B990BD4CF84EC94E068DB8091EC466E
:101E3000882371F081E090E0F1DF8FEA94E05EDBCF
:101E40008091ED469091EE46E9DF8CEA94E00DCF6B
:101E500080EC94E0FCCFDF92EF92FF920F931F9300
:101E6000CF93DF9320914E46222379F010924C4677
:101E700010924E4610924D4680E0DF91CF911F9117
:101E80000F91FF90EF90DF90089520914146E091EF
:101E90004246F0914346F8943081422F40953423D6
:101EA000308378945DE7515009F330E13A95F1F7CA
:101EB00032813223C1F3F89431813423318330816C
:101EC000322B30837894AFE3BBE01197F1F700C079
:101ED0000000F894308134233083A3EAB1E01197F5
:101EE000F1F700C0000032817894EBE9F9E0319716
:101EF000F1F700C00000232309F0B8CF7C01C8E04F
:101F0000D0E011E081E0912F907F09F480E030D89B
:101F1000110F2197B9F7F894E0914246F0914346AA
:101F2000808120914146209528232083E0914246DC
:101F3000F0914346818120914146209528232183B9
:101F40007894D1E000E0D12CC1E046D8182F44D8D5
:101F50001130E9F48130D1F5C13408F487CFD09243
:101F60004C46D11003C081E080934E468091444698
:101F7000882309F47BCFA4E4B6E4F701C7010896EF
:101F80002D9121938E179F07D9F781E076CFE02F0F
:101F9000F0E0181311C080914C46C817A8F4DF0177
:101FA000AF5BB94B13968C918D2381F410E0C9304F
:101FB00010F4C0934D46DC2EEF5BF94B83819D2FCF
:101FC0009095892383830AC08C13F0CFE02FF0E033
:101FD000EF5BF94B83818D2B838311E0812F0E946E
:101FE000B807CF5FDD0F11F40F5FD1E0083008F4C0
:101FF000ACCFB2CFCF92DF92EF92FF920F931F93AD
:10200000CF93DF938BE39EE079DA60919C4570E09B
:1020100090E080E04AE04EDE80E991E445DE6091A8
:10202000644070E090E080E04AE044DE80919C45AE
:10203000882309F448C087E29EE017DE10E000E044
:1020400080919C458017110609F00CF43CC0680192
:1020500083E0CC0CDD1C8A95E1F7F12CE12CC091DA
:102060009A45D0919B45CC0DDD1DCE0DDF1D88819D
:10207000803118F485E29EE041DA688170E090E0FA
:1020800080E040E117DE83E29EE038DA8FEFE81A65
:10209000F80AE8E0EE16F10411F780919A45909164
:1020A0009B45C80ED91EF6018681833019F488E05D
:1020B0009EE024DAD7DD65E070E080E090E0B4DAFD
:1020C0000F5F1F4FBDCFCEDD8DEE9DE017DA809103
:1020D0009945811114C08BE891E4E6DD83EE9DE023
:1020E000C4DDC0DD65E070E080E090E0DF91CF917D
:1020F0001F910F91FF90EF90DF90CF9095CA82E8EB
:1021000091E4EBCF4F925F926F927F928F929F926A
:10211000AF92BF92CF92DF92EF92FF920F931F93F5
:10212000CF936B017C01742EAC019B010E9425387A
:10213000882391F085E991E4CF911F910F91FF9051
:10214000EF90DF90CF90BF90AF909F908F907F9057
:102150006F905F904F907ACD46015701E894B7F8A1
:102160002FEF3FEF4FE75FE7C501B4010E9425382D
:1021700081110DC02FEF3FEF4FE75FE7C501B401BD
:102180000E94D43418161CF489E991E4D5CF2FEFBE
:102190003FEF4FE75FE4C701B6010E94D937181639
:1021A0001CF48DE991E4C8CF2FEF3FEF4FE75FECD0
:1021B000C701B6010E94D43487FDF3CF20E030E0A0
:1021C000A901C701B6010E94D43410E000E087FFE6
:1021D00007C08DE2ADD98C01F7FAF094F7F8F094CE
:1021E000C0E060E070E080E09FE37C1641F020E01A
:1021F00030E040E251E40E94B536CF5FF6CFA70150
:1022000096010E944E362B013C010E9422374B0161
:102210005C014AE04FDD7C01E00EF11ECC23A9F108
:10222000C501B4010E94D8349B01AC01C301B201C5
:102230000E944D364B015C0181EA91E407DDE80E16
:10224000F91EC15010F120E030E040E251E4C50138
:10225000B4010E9439352B013C010E9422374B0109
:10226000B12CA12C4AE0C501B40124DDE80EF91E11
:10227000C501B4010E94D8349B01AC01C301B20175
:102280000E944D364B015C01DCCFC701CF911F91FD
:102290000F91FF90EF90DF90CF90BF90AF909F9005
:1022A0008F907F906F905F904F900895CF93DF93C2
:1022B00029DFEC01D7DC8C0F9D1FDF91CF910895B2
:1022C000CF93DF93682F70E090E080E04AE0F2DC8B
:1022D000EC01C8DC8C0F9D1FDF91CF910895809198
:1022E000AA46882309F439C080E994E007D980918F
:1022F000A7468B3249F1863551F18B3559F190E083
:1023000080E08CDD8FE794E0F9D86091A84670E01A
:1023100090E080E04AE0CEDC83E794E0EFD8809163
:10232000A9468F7390E07ADD86E694E0E7D8609165
:10233000AB4670E090E080E04AE0BCDC88E594E0E9
:10234000DDD889E494E091CC81EB91E0DACF84E6AA
:1023500093E0D7CF83E993E0D4CF83EA94E0F3CF3F
:102360000F931F93CF93DF9381E494E0C7D86091DC
:10237000AC467091AD468091AE469091AF4642E03A
:1023800050E094DF85E394E0B9D86091B046709155
:10239000B1468091B2469091B34642E050E086DF6C
:1023A00008EB16E4C1E0D0E080E394E0A7D8CE01CA
:1023B00035DD83EA91E478DCF801619171918191D6
:1023C00091918F0142E09EDE88E294E097D8CE01A1
:1023D00025DD83EA91E468DCF801648975898689E2
:1023E000978942E050E062DF2196C730D105E1F6DF
:1023F0001ADD75DF8DE194E081D86091E846709137
:10240000E9468091EA469091EB4642E050E04EDF8B
:1024100080910947811107C088E094E0DF91CF9156
:102420001F910F9122CC83E194E0F8CF0F931F937B
:10243000CF93DF93893208F07CC090E0DC01A35C8D
:10244000BE4B2C912F3F09F474C08C010C5E1E4BC7
:10245000E801E881D0E2ED9FF0011124FC5F6111F9
:1024600033C0268330812323AC0145515F4B2111BA
:1024700011C0EA012881309749F1283038F570966B
:10248000E20FF11D3FB7F8942081611122C0277F30
:1024900020833FBFFA0130813F3F09F44AC0E80181
:1024A0002881363058F53091E605432F47702413C4
:1024B00012C0EC91E53008F0EE0F8091010AE09532
:1024C000E823E093010A35C02583CCCFF0E0E0E0BB
:1024D000D9CF2860DDCF387169F4213079F4EC91DF
:1024E000E53008F0EE0F8091410AE095E823E09393
:1024F000410A1FC0383111F4263089F38C549F4BA8
:10250000FC01808185FF13C030E1839FF00111241D
:10251000F75F91819770973061F4EC91853270F498
:10252000803298F48830E1F2803121F202C08111CA
:10253000F4CFDF91CF911F910F910895803471F006
:102540008038B9F71092A006F4CF90E1899FF0018E
:102550001124F75F81818F7E8183EBCF8091920B75
:102560008E2339F3C0E22C9F900111243C5FE830A8
:1025700030F5205F3F4FE20FF32FF11D4FB7F89476
:102580009091800B9E7F9093800B90918E0B90FF8B
:10259000FCCF2091920B90E08095909530E08223C3
:1025A000932328ED24BF8093920B8091800B816050
:1025B0008093800B80818F7780834FBFBACFF0E00C
:1025C000E0E0DCCF0F931F93CF93DF93CDB7DEB75F
:1025D0002897CDBFDEBF20919A4530919B45232B94
:1025E00031F020915B4430915C44232B61F41092D4
:1025F000994510929C452896CDBFDEBFDF91CF91C3
:102600001F910F910895182F809165400E945E07D9
:10261000E09165408FEFE93228F4AE2FB0E0A35C83
:10262000BE4B8C91809326448CEF93E0E93240F4CA
:10263000F0E0EC5EFE4B808124E0829FC00111241B
:10264000809324449093254410939945112309F4D1
:102650008DC020E030E040E85FE360912C40709155
:102660002D4080912E4090912F400E94D43487FFBE
:1026700003C08FE18093094000910940909164402C
:10268000E0915B44F0915C4480E020E335E79817EB
:1026900021F0219331938F5FFACF10924C46109224
:1026A0004E4610924D4610924B4610924A4610925A
:1026B000494610924846109247461092464610925C
:1026C00045461092444610929C45CE010196C3DBCC
:1026D000882349F089818832C1F780919C458F5FBA
:1026E00080939C45F2CF8091644090919C458917DE
:1026F00010F480939C45E0919A45F0919B45808130
:102700008832A1F010E080919C45181778F438E0E9
:10271000139FC001112420919A4530919B45820F4F
:10272000931F99DB882311F01F5FEDCF64D860E021
:102730008CEC12D860E08EE40FD860E080E00CD81A
:1027400060E080E009D860E0802F06D854D860E0CF
:102750008CEC02D861E088E40E94AC0B64E170E08C
:1027600080E090E00E94140B82D845CF80912B40EE
:1027700087FDFACF8932A4F4282F082E000C330BE2
:10278000F901E35CFE4B90819F3F51F02C5E3E4B84
:10279000D901EC91B0E2EB9FF0011124FC5F918331
:1027A00060E044DE80912B408932F0F690E0FC013D
:1027B000E35CFE4B20812F3FB9F2FC01EC5EFE4B47
:1027C000A081E0E2AE9FD0011124BC5F85519F4BF8
:1027D000FC013081F0E0E0E0383028F4CD01409693
:1027E000FC01E30FF11D9FB7F89412962C938081A2
:1027F000877F80839FBFB8CF8091EF46E3DE64E69A
:1028000070E080E090E00E94140B8091EF468823F6
:10281000F9F0F0DB80919945882381F080919C4507
:1028200090E0892B71F481EB93E01FDA81EA93E069
:102830001CDA80E0C7DE10922445089590E080E025
:10284000F0CF88EF93E011DA81E08093244508957A
:1028500088EE93E00ADAEFCF0F931F93CF93DF93C5
:10286000CDB7DEB72C97CDBFDEBF681BF1F0062FCA
:1028700010E0682F70E0675A7A4BA801CE010196EC
:102880000E949D38E1E0F0E0EC0FFD1FE00FF11F2A
:102890001082CE0101960E943A332C96CDBFDEBF46
:1028A000DF91CF911F910F91089590E080E0F5CFD7
:1028B0000F931F93CF93DF93CDB7DEB72C97CDBF88
:1028C000DEBF681BF1F0062F10E0682F70E0675A3A
:1028D0007A4BA801CE0101960E949D38E1E0F0E01C
:1028E000EC0FFD1FE00FF11F1082CE0101960E9438
:1028F00037332C96CDBFDEBFDF91CF911F910F9163
:10290000089560E070E0CB01F4CF4F925F926F9238
:102910007F928F929F92AF92BF92CF92DF92EF926F
:10292000FF92CF93DF93C82F80900B4090900C4084
:10293000A0900D40B0900E40609148407091494089
:1029400090E080E00E94D8346B017C01609150409F
:10295000709151406F5F7F4F072E000C880B990BD1
:102960000E94DA34A50194010E9439352BED3FE035
:1029700049EC50E40E943935A70196010E9439358F
:1029800020E034E244E759E40E94B5362B013C01D3
:10299000D0E0BE016F5F7F4F072E000C880B990BB4
:1029A0000E94DA34A50194010E943935A7019601ED
:1029B0000E94393520E034E244E759E40E94B536FC
:1029C0006B017C01CC0FDD1FCC0FDD1FFE01E15F31
:1029D000FF4B20E030E044EB53E460817181828161
:1029E00093810E94B5369B01AC01C701B6010E94DC
:1029F0004E362BED3FE049EC50E40E9439354B0157
:102A00005C010E94DD376B017C01C301B2010E94B1
:102A1000DD379B01AC01C701B6010E94B5366B01E1
:102A20007C01FE01EB58FB4BC082D182E282F38233
:102A3000C501B4010E94B2364B015C01C301B20171
:102A40000E94B2369B01AC01C357DB4BC701B601F4
:102A50000E9439359B01AC01C501B4010E944D367D
:102A6000688379838A839B83DF91CF91FF90EF9076
:102A7000DF90CF90BF90AF909F908F907F906F909E
:102A80005F904F900895CF93809348409093494032
:102A9000BC0190E080E00E94D83420912C4030911D
:102AA0002D4040912E4050912F400E9439350E9478
:102AB000223760935544709356440E94370CC0E00F
:102AC0008091504090915140C817190624F48C2FE2
:102AD0001CDFCF5FF5CFCF910895CF92DF92EF92B9
:102AE000FF920F931F93CF93DF9382E080934F4722
:102AF000C091A8468091A94680934D4720E1C29F8E
:102B0000C00111248C2794E0899F90011124822711
:102B1000807C80934E4780E28093210481E0809303
:102B2000410484E0809341042D9A8091E405837FE1
:102B30008093E405809161098460809361098091AC
:102B400060098162809360090E94450B6B017C01E2
:102B50006AEA8FE20E9421088FE20E941B088A3AEB
:102B600059F00E94450B6C197D098E099F0962334B
:102B700071058105910560F30E94450B6B017C0195
:102B800065E58FE20E9421088FE20E941B088535CF
:102B900059F00E94450B6C197D098E099F0962331B
:102BA00071058105910560F380914F47813009F0EF
:102BB00070C087E990E40E94440887E990E40E948D
:102BC00044086CE687E00E94210860E888E00E94E3
:102BD000210860E089E00E9421086C2F80E30E94B8
:102BE000210869E981E10E94210884E00E942B0804
:102BF0000E94450B6B017C0187E20E941B0887FD48
:102C00000BC00E94450B6C197D098E099F09623328
:102C100071058105910580F30E94450B80914F4716
:102C20008130D1F084E00E942B082D988EEB0E9419
:102C30001108C7EAD1E407EB11E489910E94110859
:102C40000C171D07D1F72D9A8DE30E941B08682FE2
:102C500061608DE30E9421082091A94684E1289FAC
:102C6000E001112460E070E0CB01209741F00E9468
:102C7000E2329E01DD0F440B550B0E94F035DF91CF
:102C8000CF911F910F91FF90EF90DF90CF900C9418
:102C9000140B823009F095CF8CE690E40E94440832
:102CA0008CE690E48CCFEF93FF93EDE9F5E408C058
:102CB000EF93FF93EDE9F5E432C0EF93E0E653C004
:102CC0002F932FB72F938F939F93AF93BF936894B6
:102CD000CF93DF9320E0C485D8E09689DF01A90F68
:102CE000B21FA95ABF4F8C9120E42C838A839F5F27
:102CF0009F738D812589291302C08F7D8D83968BCB
:102D0000DF91CF9116F00C94310ABF91AF919F9152
:102D10008F912F912FBF2F91FF91EF9118952F93A6
:102D20002FB72F938F939F93CF93DF93C485D8E0D2
:102D30008981988181FD0DC0C38981E08C0F8F73DB
:102D40002489281731F0CE0FDF2F20E0D21F9F8B70
:102D5000838BDF91CF919F918F912F912FBF2F91D7
:102D6000FF91EF911895FF938F938FB78F93F8E0B2
:102D70008081848187FFFCCF85818F7B80688583FC
:102D80008F918FBF8F91FF91EF9118951F920F92A6
:102D90000FB60F92112484E00E94B20A1F920F9284
:102DA0000FB60F9211248F939F93AF93BF9380918F
:102DB0004D4490914E44A0914F44B091504401969F
:102DC000A11DB11D80934D4490934E44A0934F4458
:102DD000B093504481E08093260BBF91AF919F91B7
:102DE0008F910F900FBE0F901F9018950F930AE0D0
:102DF0000FC00F9308E00CC00F9306E009C00F93BB
:102E000004E006C00F9302E003C00F9300E000C08F
:102E10000F920FB60F920BB60F921F921124FF92D2
:102E20001F932F933F934F935F936F937F938F9352
:102E30009F93AF93BF93CF93DF93EF93FF93A6E559
:102E4000B0E4A00FB11DCD91DC91000F0D5FA02F5C
:102E5000B0E0FC90109761F01F2D169518F041F02E
:102E60002296FBCFE991F9913097B9F30995F5CF07
:102E7000A02FB0E0FC92FF91EF91DF91CF91BF9135
:102E8000AF919F918F917F916F915F914F913F9102
:102E90002F911F91FF901F900F900BBE0F900FBEB0
:102EA0000F900F9118951F920F920FB60F92112449
:102EB0000BB60F922F923F924F925F926F927F923A
:102EC0008F929F92AF92BF92CF92DF92EF92FF923A
:102ED0000F931F932F933F934F935F936F937F9322
:102EE0008F939F93AF93BF93EF93FF93CF93DF9312
:102EF000CDB7DEB72697CDBFDEBF81E080930D064C
:102F0000409010065090110620914C44E0914B44A3
:102F1000A2E0AE0F8091504090915140A817190641
:102F200021F01CF0A1E0AE0FA81BB0E0AE5FBF4BDC
:102F30003C913093080621116FC14091514450914A
:102F4000524460915344709154444F5F5F4F6F4FB0
:102F50007F4F409351445093524460935344709335
:102F60005444E111E2C18091494490914A448093D4
:102F7000474490934844809151469091524696958B
:102F80008795481A590A4092494450924A44809180
:102F90004544909146449C01369527953695279552
:102FA000821B930B920157FE04C02227332724195A
:102FB0003509820F931F8093454490934644609156
:102FC0004F467091504621E06817790708F020E0DD
:102FD0002093B144141415040CF05AC021E030E0E1
:102FE0002093434430934444E0914344F09144445B
:102FF00040913D4450913E44E417F50709F44DC01B
:10300000209127442F5F2093274420912744233089
:1030100030F010922744E0933F44F09340442091D5
:10302000304421111092304480903F4490904044AD
:1030300020910040309101406817790708F023C1C2
:1030400081E08816910409F05CC04130510509F413
:103050005EC080912A4490912B44019680932A442B
:1030600090932B4440910A404423D1F00A97C0F03A
:1030700010920A4010922A4410922B44C9018C5F8E
:103080009E4FF901E817F90759F010823196FACFEF
:103090001092434410924444A7CF10922744B5CFD6
:1030A00080912A4490912B44409128445091294486
:1030B0008417950739F440910A40411103C041E05B
:1030C0004093B0444091554450915644841795071D
:1030D000F0F080910A4081111AC010922A44109297
:1030E0002B4480914E4090914F4020934E4030931E
:1030F0004F40809300409093014081E08093AF4423
:1031000006C0452B21F01092414410924244E091B8
:103110000040F09101409F0120533F4FD9014D9154
:103120005D916D917C9113974F5F5F4F6F4F7F4F14
:103130004D935D936D937C9313978091414490914F
:10314000424401968093414490934244285031096F
:1031500029833A83D901AC901196BC9011971296AD
:103160003C90129713961C91139714966C90149799
:1031700015967C90159716960C91169717962C908D
:103180009201D2010E947D386B017C01FF0CCC08BA
:10319000DC2C76019B01AC016C2D7C2D8C2D9C2DA3
:1031A000C32CD12E7301122D0E948938A981BA81B6
:1031B0002C9311963C93119712964C931297139659
:1031C0005C93139714966C93149715967C931597AC
:1031D00016968C93169717969C93A080B180C28008
:1031E000D380E480F58006811781952D990F990B86
:1031F0009201492F592F692F792F892F0E948938E1
:1032000020833183428353836483758386839783CA
:1032100080923D4490923E4480914B448F5F8093D6
:103220004B4420915040309151408217130619F0C1
:1032300014F010924B442696CDBFDEBFDF91CF91A4
:10324000FF91EF91BF91AF919F918F917F916F917E
:103250005F914F913F912F911F910F91FF90EF90B0
:10326000DF90CF90BF90AF909F908F907F906F90A6
:103270005F904F903F902F900F900BBE0F900FBE1E
:103280000F901F9018954091514450915244609175
:1032900053447091544480912C4490912D44A091BA
:1032A0002E44B0912F4484179507A607B70748F41A
:1032B00080915A44811105C081E08093B04480938D
:1032C0005A444091514450915244609153447091FA
:1032D00054448091A5449091A644A091A744B091F4
:1032E000A84484179507A607B70708F010CF1092D7
:1032F000514410925244109253441092544481E02D
:1033000080930A4010922A4410922B4440914E40E0
:1033100050914F4020934E4030934F404093004097
:1033200050930140EBCE1C9232C12E2E312C8215CF
:1033300093050CF471CF3101B1E06B1A7108D30120
:10334000A755BB4BE6E04E1651046CF381E08C931D
:10335000A0910040B0910140A983BA83D30193E0CA
:10336000AA0FBB1F9A95E1F7E981FA81AE0FBF1F43
:10337000AC52BF4FAC901196BC9011971296CC9066
:1033800012971396DC9013971496EC901497159659
:10339000FC90159716960C91169717961C911797F7
:1033A000C301880F991F8F5C9B4BFC01808091802B
:1033B000992D990F990B9401492F592F692F792F26
:1033C000892F0E9489382C9311963C93119712965D
:1033D0004C93129713965C93139714966C931497CF
:1033E00015967C93159716968C93169717969C9323
:1033F000809151469091524696958795881A990AE0
:10340000F10143E0EE0FFF1F4A95E1F7A981BA8170
:10341000EA0FFB1FA080B18032801381B481BD838D
:103420002581298306812780A0914744B091484493
:1034300094010E947D386B017C01FF0CCC08DC2CD0
:1034400076019B01AC016C2D7C2D8C2D9C2DC32C09
:10345000D12EED80F980122D0E948938208331838E
:10346000428353836483758386839783A0A8B1A81E
:1034700032A813A934A93D8345A9498306A927A8E1
:10348000A0914944B0914A4494010E947D386B0157
:103490007C01FF0CCC08DC2C76019B01AC016C2D6F
:1034A0007C2D8C2D9C2DC32CD12EED80F980122DDE
:1034B0000E94893820AB31AB42AB53AB64AB75ABE8
:1034C00086AB97ABCF01805A9F4F8D839E83DC01E3
:1034D000AC901196BC9011971296CC9012971396BF
:1034E000DC9013971496EC9014971596FC90159712
:1034F00016960C91169717961C919401D4010E9470
:103500007D389B01AC01550F220B322FA901298375
:103510003A834B835C839B01AC016981762F862FB4
:10352000962F0E948938AD81BE812C9311963C93D1
:10353000119712964C93129713965C9313971496C7
:103540006C93149715967C93159716968C931697F3
:1035500017969C93E057FF4FA080B180C280D38024
:10356000E480F58006811781992D990F990B9401BC
:10357000492F592F692F792F892F0E94893820834D
:103580003183428353836483758386839783F301F6
:10359000EE0FFF1FEF5CFB4B408251823DCEEF925E
:1035A000FF920F931F93CF93DF9300D0CDB7DEB779
:1035B00010929F451092A04588EE93E0A0E0B0E005
:1035C0008093A1459093A245A093A345B093A445B1
:1035D0008AE691E480939D4590939E4580E698E02D
:1035E0008093A9459093AA458AE59EE08093AB45D8
:1035F0009093AC4582E08093AD451092AE45109219
:10360000AF4540E05BE167EB70E080E08F5F8630C4
:1036100011F487E00BC07695679557954795413033
:1036200099E059079DE36907710580F794E090934D
:103630004046482F4095242F217030E044E0220F6F
:10364000331F4A95E1F731E08162822B80933F4638
:1036500040E459E0409334465093354690933746C2
:1036600086E08093384610923A4610923B4610927C
:1036700053461092544623E02093574630935846C1
:103680008EE690E0A0E0B0E08093594690935A46D1
:10369000A0935B46B0935C4610925D4610925E46E6
:1036A00010925F46109260461092614610926246F8
:1036B00010926346109264461092694610926A46D0
:1036C00020936D4630936E4680936F46909370467C
:1036D000A0937146B093724610927346109274464E
:1036E0001092754610927646109277461092784660
:1036F0001092794610927A4681E090E00090664000
:1037000002C0880F991F0A94E2F780935146909364
:10371000524655E0969587955A95E1F780934F4626
:1037200090935046809165400E945E078EEF90E036
:103730008093A1469093A2468DE190E080939D46B0
:1037400090939E468DE090E080939B4690939C469C
:1037500084E890E08093A3469093A4468DEF91E097
:103760008093A5469093A64610929F461092A0463D
:1037700004E810E009831A83CE0101960E94270D08
:1037800078019DE1E90EF11C8F3F09F471C00093AF
:103790009F461093A0468DEFE81681E0F8065CF492
:1037A000E982FA82CE0101960E94270D8F3F09F42B
:1037B0005BC00E94D90D82E080934F478BE28093DB
:1037C000A74682ED8093A84681E18093A94681E0D7
:1037D0008093AA4699E19093AB4643E353E36AECA6
:1037E00072E44093AC465093AD466093AE467093FE
:1037F000AF4640E050E060E773E44093B04650933A
:10380000B1466093B2467093B34640E050E068E43E
:1038100072E44093B4465093B5466093B6467093B5
:10382000B7464DEC5CEC6CE171E44093E846509394
:10383000E9466093EA467093EB468093EC4624E6B3
:1038400030E02093ED463093EE468093EF461092A1
:103850000847109209470F900F90DF91CF911F9169
:103860000F91FF90EF9008959DE1E90EF11C93CF29
:1038700087018DEFE81681E0F80609F07BCF9BCF3A
:10388000CF93DF93CDB7DEB7C15CD109CDBFDEBF2B
:1038900088ED21E030E084BF2093620091E084BF96
:1038A000909363009DE284BF9093800093E084BF77
:1038B0009093600080E090E22091650020FDD5C2E9
:1038C00021E02093030A8EEF8093260A8093270A33
:1038D0009BE09093000A32E03093E6052093430A80
:1038E0008093660A8093670A9093400A9093E70555
:1038F000E0E0FBE027E09EEF85E0218394871586DA
:1039000080837096E0343BE0F307B9F72FEF3FE098
:103910002093AA0B3093AB0B90E89093820B1092FC
:10392000810B2EEF30E02093AE0B3093AF0B98ED70
:1039300024E194BF2093680091E19093800B8093E1
:1039400002069EE09093050690E69093030680930E
:1039500000068091B000887F85608093B0008091E0
:10396000B200887F85608093B2008FED9EE28093E5
:103970002C0B90932D0B81E08093250B1092210B43
:1039800083E08093200B789484E08093210461E0AD
:103990008AE00E94161240E052EC61E070E08DE98E
:1039A00095E40E941D0E0E943F0E9FB7F89480E19F
:1039B00080930204809114048860809314049FBF54
:1039C0009FB7F89480E28093020480911504886088
:1039D000809315049FBF8091080485FD05C08091E8
:1039E000A9468F5F8093A946E8EBF6E440E050E0FB
:1039F00060EA71E48DEC9CECACE4B0E4419351934B
:103A000061937193848B958BA68BB78B26E4E03DF5
:103A1000F207A1F780E090E0A8ECB2E48093B8460A
:103A20009093B946A093BA46B093BB4680E090E02D
:103A3000A8E4B2E48093BC469093BD46A093BE46F2
:103A4000B093BF468093C0469093C146A093C246B0
:103A5000B093C34682E290E00E94560D882341F164
:103A6000CE0101960E942E0D09811A8117FD20C0FA
:103A7000680133E0C30ED11C67EAE62E66E4F62E39
:103A800087E090E05C014FEFA41AB40A8DAB9EABC7
:103A9000CE01C5960E94270DD7018D937D01C501EA
:103AA000AC14BD0478F38EED94E00430110511F4EC
:103AB0008DEC94E00E94350E0E94B01180910804B4
:103AC00084FD03C081E0809358448091AA4681110F
:103AD00004D88EE080930506809103068093030648
:103AE0001092B00086E08093020681E08093000689
:103AF000809100068093000687E08093080660E0CE
:103B000070E0CB0150E040E0E1E0E0930A06209154
:103B10000D0620FFFCCF4A30510544F020911006DD
:103B200030911106620F731F811D911D4F5F5F4F12
:103B30004A31B7E25B0749F70E94D83420E030E40D
:103B40004CE156E40E94B53620E030EF4FE755E4F3
:103B50000E94B5369B01AC0166E676E686E69FE3F9
:103B60000E94B5366B017C0183EF94E00E947E0ACF
:103B700044E050E0C701B6010E9456118CE090E08D
:103B800080936640909367408EEF94E5ADE1B2E498
:103B900080930B4090930C40A0930D40B0930E4047
:103BA00080E090E1809351469093524680E890E007
:103BB00080934F4690935046C0922740D092284021
:103BC000E0922940F0922A402AE037ED43E25CE39C
:103BD0006091AC467091AD468091AE469091AF46F3
:103BE0000E94393520E030E048E454E40E94393541
:103BF0001092024060934A4070934B4080934C4037
:103C000090934D40C090D046D090D146E090D2469F
:103C1000F090D3462AEF3EE74AEA5EE36091B84669
:103C20007091B9468091BA469091BB460E94B536D4
:103C3000AB01BC019701860183E00E94EE0CC090AD
:103C4000D446D090D546E090D646F090D7462AEF9D
:103C50003EE74AEA5EE36091BC467091BD468091C2
:103C6000BE469091BF460E94B536AB01BC0197019C
:103C7000860184E00E94EE0CC090D846D090D946D0
:103C8000E090DA46F090DB462AEF3EE74AEA5EE350
:103C90006091C0467091C1468091C2469091C346E2
:103CA0000E94B536AB01BC019701860185E00E94F8
:103CB000EE0CC090DC46D090DD46E090DE46F09001
:103CC000DF462AEF3EE74AEA5EE36091C446709120
:103CD000C5468091C6469091C7460E94B536AB0155
:103CE000BC019701860186E00E94EE0CC090E04680
:103CF000D090E146E090E246F090E3462AEF3EE7BE
:103D00004AEA5EE36091C8467091C9468091CA460E
:103D10009091CB460E94B536AB01BC01970186015C
:103D200088E00E94EE0CC090E446D090E546E0901A
:103D3000E646F090E7462AEF3EE74AEA5EE3609106
:103D4000CC467091CD468091CE469091CF460E9450
:103D5000B536AB01BC019701860189E00E94EE0CEB
:103D600080915844811187C082E390E00E944315FE
:103D70006091E8467091E9468091EA469091EB4661
:103D80000E94AD0C8091B0469091B146A091B24690
:103D9000B091B3468093524090935340A0935440C7
:103DA000B093554086E08093574680935846809163
:103DB000EC468093534681E0809354468091ED46D3
:103DC0009091EE46092E000CAA0BBB0B809359462E
:103DD00090935A46A0935B46B0935C468CE08093E8
:103DE00065408BE080932B4088E08093210461E064
:103DF0008BE00E9416128FE58093094080EF96E4D5
:103E000080939A4590939B451092F0468EE195E4FD
:103E100080935B4490935C4483E080936440C090C3
:103E20009F46D090A046C114D10409F4B5C08601C4
:103E30000F5F1F4F5FE7E52E56E4F52E80919D46FC
:103E400090919E468C0D9D1D08171907BCF4C80162
:103E5000957189839A83CE0101960E94270DF701FF
:103E600081937F010F5F1F4FE9CF019709F024CDA8
:103E700083E00E94B20A8CE390E078CF40907F46C6
:103E80005090804660908146709082468090834634
:103E900090908446A0908546B0908646C090874614
:103EA000D0908846E0908946F0908A4600918B46F3
:103EB00010918C4620918D4630918E4640918F46D0
:103EC00050919046609191467091924680919346B0
:103ED00090919446A0919546B09196468BAF9CAF39
:103EE000ADAFBEAF8091974690919846A09199460C
:103EF000B0919A464092C2445092C3446092C444E6
:103F00007092C5448092C6449092C744A092C8441F
:103F1000B092C944C092CA44D092CB44E092CC44FF
:103F2000F092CD440093CE441093CF442093D044DC
:103F30003093D1444093D2445093D3446093D444BB
:103F40007093D544CBACDCACEDACFEACC092D644A7
:103F5000D092D744E092D844F092D94480935D4601
:103F600090935E46A0935F46B09360460E94FC1318
:103F700080915744882339F1282F30E02093504016
:103F8000309351408F5F90E08630E8F4FC01E755B4
:103F9000FB4B10820196F8CF1BAE1CAE1DAE1EAEC1
:103FA00040E050E0BA0100E010E09801C12CD12CB3
:103FB0007601812C912C5401412C512C320180E04E
:103FC00090E0DC0197CF40902740509028406090CF
:103FD000294070902A40609151467091524690E07D
:103FE00080E00E94D8344B015C0120914A4030911E
:103FF0004B4040914C4050914D40C301B2010E9452
:104000003935A50194010E94B53660934A407093FA
:104010004B4080934C4090934D403DE5C32E34E49B
:10402000D32E40E3E42E40E4F42E10E000E0809133
:1040300050409091514008171907FCF4D7012D9179
:104040003D914D915C91C301B2010E943935A501AA
:1040500094010E94B536F701619371938193919316
:104060007F01802F0E948514D6011D921D921D9202
:104070001D926D010F5F1F4FDACF88EA9BE080939E
:104080005546909356468AEA9BE080936B46909300
:104090006C4681E080930A40109251441092524441
:1040A00010925344109254449EE0909305069091D0
:1040B0000306909303061092B00098E090930206D6
:1040C0008093000690910006909300069091000660
:1040D0009260909300061092080690910C069160F1
:1040E00090930C0680930A067894C0902C40D09050
:1040F0002D40E0902E40F0902F406091484070910C
:10410000494090E080E00E94D834A70196010E94C7
:1041100039350E942237609355447093564410926B
:10412000AF4420E034E244E759E4C701B6010E94FD
:10413000393520910B4030910C4040910D40509109
:104140000E400E94B5360E9422376093A5447093BA
:10415000A6448093A7449093A84403E516E4F12C69
:10416000F80180818823A9F18481E82FF0E0893269
:1041700020F5DF01A35CBE4B2C912F3FF1F0DF0156
:10418000AC5EBE4B8C9130E2839FC00111249C5FDA
:10419000E551FF4BE081E83008F098C0AC01405F8A
:1041A0005F4FE40FF52FF11D3FB7F894DC01129635
:1041B0002C938081886080833FBF6AEA7BE0809196
:1041C0006E46F11004C068EA7BE0809158460E9478
:1041D00051080A5E1F4FB1E0FB1275C010922545D1
:1041E00010922645109227451092284560E070E015
:1041F00080E090E40E94AD0CFE01F596EFABF8AFC5
:104200009E01265F3F4F29AF3AAF8DE995E40E94AA
:10421000DE08892B09F4A6C08DE995E40E94BC084C
:10422000F09059448A3009F08CC4AF2DB0E0A75A01
:10423000BA4B1C92E0915945EF53EC3308F08AC019
:104240000E2E000CFF0BE95DFE4D0C947438892591
:10425000AA21AA21AA21AA21AA21AA21AA21AA2106
:10426000AA21AA21AA21AA21AA21AA21AA21AA21F6
:10427000AA21AA21AA21AA21AA21AA21AA21AA21E6
:10428000AA21AA21AA21AA21AA21AA21AA21AA21D6
:10429000AA21732269219D2158228C229322AA22CD
:1042A000AA2133243F22B922CE23D8233324AA21A2
:1042B0004B24AA21592484243D25AA215E254C257E
:1042C0006525AA216C25FF24F3944ACFF0E0E0E0B5
:1042D0006BCF32E0F3123EC08AE595E40E943A3398
:1042E0008430E1F08830E1F08930E1F48BE58093AF
:1042F000A74680E19DE00E947E0A8091A7468B320E
:1043000099F08635A1F08B35A9F483E993E00E94FA
:104310000E0F8BE09DE00E94350E1CC08BE2E7CFB4
:1043200086E5E5CF80E0E3CF81EB91E0F0CF84E656
:1043300093E0EDCF90E080E0EACF42E0F4120AC0D3
:104340008AE595E40E943A33019709F095C081E02F
:104350008093084780E4A9E5B5E41D928A95E9F7C2
:10436000109259448091B044882369F11092B0446E
:1043700080919945882339F180912B4087FD19C0A0
:104380008932A4F4282F082E000C330BF901E35CCA
:10439000FE4B90819F3F51F02C5E3E4BD901EC913A
:1043A000B0E2EB9FF0011124FC5F918361E00E9479
:1043B00016120E94FB0B60E08CEC0E94AC0B61E0DB
:1043C00084E40E94AC0B8091AF44882311F40C94D8
:1043D0004D311092AF44F8942091504030915140AB
:1043E00040914E4050914F4090E080E082179307FB
:1043F0000CF0B4C3FC01E755FB4B608161113AC07E
:10440000FC01B3E0EE0FFF1FBA95E1F7E40FF51FD3
:1044100010861186128613861486158616861786D0
:1044200010AE11AE12AE13AE14AE15AE16AE17AE80
:10443000DF01A859BF4F1C9211961C92119712963A
:104440001C92129713961C92139714961C92149711
:1044500015961C92159716961C92169717961C92F5
:10446000E856FF4F10821182128213821482158245
:10447000168217820196BACF109208476BCF52E08E
:10448000F51268CF8AE595E40E943A33019751F41A
:1044900081E08093094780910947882331F081E0CA
:1044A0009DE039CF10920947F6CF86EF9CE033CFDD
:1044B0008AE595E40E9437336B017C010E94AD0CC4
:1044C000C092E846D092E946E092EA46F092EB4686
:1044D0008BEE9CE00E947E0A42E050E0C701B601EC
:1044E0000E94561137CF8AE595E40E9437336B015D
:1044F0007C01C0925240D0925340E0925440F092DE
:104500005540C092B046D092B146E092B246F09289
:10451000B3468CED9CE0DECF8AE08C938AE595E48F
:104520000E94540E17CF63E0F61214CF8AE595E48B
:104530000E9437330E941D376B01CB010E94431547
:1045400084ED9CE00E947E0AC6010E940E0F0E942C
:10455000320E00CF8AE595E40E943A338093A84654
:1045600089EC9CE00E947E0A8091A8460E9460111E
:10457000F1CE60E270E089E595E40E949238009700
:1045800011F40C9492328C0109551544C8019927F5
:1045900060E270E0865A9A4B0E949238EE24E394CF
:1045A000E00E009711F40C948132DC01A955B5445A
:1045B0006D01602F81E00E942C148C016C2D8E2DDA
:1045C0000E94581423966CAF7DAF8EAF9FAF239798
:1045D0006F2D81E08C0D0E945814E5966CAF7DAF75
:1045E0008EAF9FAFE5974090274050902840609055
:1045F000294070902A40609151467091524690E057
:1046000080E00E94D8344B015C010115110509F0CE
:104610003FC02AE037ED43E25CE323966CAD7DAD0D
:104620008EAD9FAD23970E94393520E030E048E4FD
:1046300054E40E943935A30192010E943935A50145
:1046400094010E94B53660934A4070934B4080932A
:104650004C4090934D402396CCACDDACEEACFFAC1F
:104660002397C092AC46D092AD46E092AE46F0920F
:10467000AF4681EC9CE00E947E0A6091AC4670914E
:10468000AD468091AE469091AF4642E050E028CFD3
:10469000F801EE0FFF1FE352FF4B0190F081E02D78
:1046A000FF27EE50FB4BD08024E0D29E70011124F6
:1046B000A701405D5F4B1A012AEF3EE74AEA5EE33D
:1046C00023966CAD7DAD8EAD9FAD23970E94B53620
:1046D000A30192010E943935A50194010E94B536CB
:1046E000D1016D937D938D939C931397F701E15FB7
:1046F000FF4BE5962CAD3DAD4EAD5FADE59720830C
:104700003183428353838D2D0E948514C801880F05
:10471000991F880F991FAC014D55594B7A0123966B
:104720006CAD7DAD8EAD9FAD2397DA0151966D9343
:104730007D938D939C935497E5962CAD3DAD4EADF6
:104740005FADE59799962D933D934D935C939C9720
:104750008CEB9CE00E947E0AC8010E940E0F83EA47
:1047600091E40E94540EF7016189728983899489CA
:1047700042E00E94821084EB9CE00E947E0AC80105
:104780000E940E0F83EA91E40E94540ED70199967D
:104790006D917D918D919C919C9777CFB1E0FB12AB
:1047A000D9CD0E943F0E0E94B0110E94FA0FD2CDC7
:1047B00060E270E089E595E40E949238009741F547
:1047C0006F2D81E00E942C148C0101151105D9F187
:1047D0000130110509F43FC023966CAD7DAD8EAD5F
:1047E0009FAD23970E941D378B01072E000C220BD3
:1047F000330B0093594610935A4620935B463093EF
:104800005C466093ED467093EE460E94130FA2CD76
:10481000FC01E955F5446F016E2F81E00E942C14D4
:104820008C016F2D81E08C0D0E942C14BC01990F1E
:10483000880B990B0E94DA3423966CAF7DAF8EAF54
:104840009FAF2397C2CF1092534681E08093544686
:104850001092EC46C1CF81E080935346809354463A
:104860008093EC46B9CF8AE595E40E943A338823D9
:1048700079F099278034910514F08FE390E08093CC
:10488000A9468AEA9CE00E947E0A8091A9466ECEE3
:1048900081E090E0F4CF8AE595E40E943A338F718D
:1048A0008093AB468FE99CE00E947E0A8091AB46E4
:1048B0005DCEF1E0FF124ECD84E096E00E94350E11
:1048C00082E290E00E94560D882389F0CE01019685
:1048D0000E942E0D89819A8197FD09C0919581953D
:1048E000910989839A83CE0101960E94B10D86EDCC
:1048F00095E00E94350E68EC70E080E090E00E9448
:10490000140B0C94000026CD22242394F21022CD07
:104910008CEC95E00E94350E82E290E00E94560DEC
:10492000811128C019821A826FE4CE0101960E947B
:104930008E0D81E090E089839A8365E4CE01019633
:104940000E948E0D82E090E089839A836DE4CE010F
:1049500001960E948E0D03E010E009831A836FEF29
:10496000CE0101960E948E0D0F5F1F4F011522E0B0
:10497000120799F747E650E049835A8382E290E0B4
:104980008B839C83CE0101960E94B10D07EA16E449
:1049900087E090E0D8016D918D017C01BFEFEB1AAB
:1049A000FB0A8DAB9EABCE01C5960E948E0DC70152
:1049B0008A36910579F790E080E00E94560D8111CA
:1049C0001AC084EA95E00E947E0A4AE060E072E044
:1049D00080E090E00E945A0E8EE795E00E94350E2E
:1049E00060E072E090E080E00E94970E8CE795E036
:1049F0000E947E0A0CC0CE0101960E942E0D8B8172
:104A00009C81019649F48BE295E00E94350E0E944C
:104A1000320E8BEA95E07FCC8EE195E00E947E0A13
:104A20006B817C8190E080E04AE00E945A0E09810F
:104A30001A8117FF03C0119501951109045011093E
:104A400080E195E00E947E0AC8010E940E0F89E075
:104A500095E00E947E0A89819A8197FF04C08EEFBB
:104A600094E00E947E0A0E94320EB80187E090E036
:104A70000E94970E8CEF94E0BBCFF2E0FF126ACC5D
:104A80001092EF4680915A45813319F481E080936A
:104A9000EF460E94FC135ECC12E0212EF2105ACC9D
:104AA0001092AA4680915A45813329F481E080937F
:104AB000AA460E946D150E946F114CCC332433948A
:104AC000F31048CC0E943F0E45CCCC24C39481E91E
:104AD0009CE0FC103FCC1FCCDD24D394FD103ACCDD
:104AE00087E79CE00E94350E0E94D90DE2ECF4E4C9
:104AF000119211921192119224E4EA3DF207C1F74A
:104B000010925D4610925E4610925F46109260468B
:104B100021CC31E0F3121ECC03E116E0F801F49051
:104B2000FF2061F0FAE0FF1203C08DE00E94980AB6
:104B30000F5F1F4F8F2D0E94980AF0CF81E196E002
:104B4000EACBBFE3BF1508F40DCCEF2DF0E0E75A38
:104B5000FA4B8083F394F092594404CCE3E5CE2ED3
:104B6000E6E4DE2E10E000E0EE24E394F12CA6E172
:104B7000BA2EF6018181882309F476C080818823CA
:104B8000C9F18481893228F590E0FC01E35CFE4B99
:104B900040814F3FF1F0FC01EC5EFE4B2081F0E2E2
:104BA0002F9F900111243C5F85519F4BDC018C911C
:104BB000F0E0E0E0883020F4F9017096E80FF11D94
:104BC0009FB7F894D90112964C93808188608083B6
:104BD0009FBF68EA7BE0809158460115110521F0DE
:104BE0006AEA7BE080916E460E9451083DC001E078
:104BF00010E0BFCF85818932A0F590E0FC01E5513E
:104C0000FF4B20812F3F69F18C5E9E4BDC018C9124
:104C1000E82FE295EE0FE07EE20FF0E0E05FFB4F61
:104C20009081917F908390E0FC0134E0EE0FFF1FB4
:104C30003A95E1F7422F50E0170102C0220C331CD5
:104C40002A95E2F72382880F991FFC01EA5AFF4B4D
:104C5000440F551F0190F081E02DE40FF51F1082E5
:104C60001182D60111961C92B09EF001B19EF00DFA
:104C700011249F012D5A394BF90186859785A0890A
:104C8000B189892B8A2B8B2BC1F04685578560898A
:104C90007189F60182859385A485B585840F951F5A
:104CA000A61FB71F82879387A487B587D9011E9651
:104CB0001D921D921D921C925197B6E1CB0ED11CF4
:104CC0000130110509F093CF789400914E40109176
:104CD0004F40F801E853FF4F2081318142815381D9
:104CE00064817581868197813896EBAFFCAF8080B7
:104CF0009180A280B380D801BC912896BFAF28973D
:104D0000F801F1812A96FFAF2A97D80112963C90BC
:104D1000129713962C9013971496CC9014972C9668
:104D2000CFAE2C971596DC9015972E96DFAE2E976A
:104D30001696EC9016976096EFAE60971796FC90DB
:104D400017976296FFAE6297CC906496CFAE649749
:104D50001196DC9011976696DFAE66971296EC90EE
:104D600012976896EFAE68971396FC9013976C961F
:104D7000FFAE6C971496CC901497A096CFAEA097E8
:104D80001596DC901597A296DFAEA2971696EC903A
:104D90001697A696EFAEA6971796FC90AA96FFAE2A
:104DA000AA97ABADBCAD4D905D906D907C90139784
:104DB000CD90DD90ED90FC902796CCAEDDAEEEAEC2
:104DC000FFAE27970E9452376B017C01C501B401E9
:104DD0000E94DA349B01AC01C701B6010E94B536CE
:104DE0006B017C0128962FAD28972A963FAD2A9714
:104DF000432D522D2C966FAD2C972E967FAD2E976E
:104E000060968FAD609762969FAD62970E944E3715
:104E10004B015C0164962FAD649766963FAD669733
:104E200068964FAD68976C965FAD6C97A0966FAD26
:104E3000A097A2967FADA297A6968FADA697AA96A9
:104E40009FADAA970E944E379B01AC01C501B401EA
:104E50000E9439354B015C01C301B2010E94DA3472
:104E60009B01AC01C501B4010E94B5364B015C0148
:104E700027966CAD7DAD8EAD9FAD27970E94DA343D
:104E80009B01AC01C501B4010E94B5369B01AC0188
:104E9000C701B6010E944D360E94E737C0904A40D4
:104EA000D0904B40E0904C40F0904D406B96CCAE93
:104EB000DDAEEEAEFFAE6B97A70196010E943935CD
:104EC0006F966CAF7DAF8EAF9FAF6F976093B2441C
:104ED0007093B3448093B4449093B544ABADBCADF0
:104EE0008D909D90AD90BC9020905040309051405E
:104EF000A1962EAE3FAEA1976091A5447091A644B5
:104F00008091A7449091A8440E94D8346B017C0101
:104F1000D1011196A50194010E9416360E94DA343F
:104F20009B01AC01C701B6010E94B536A5966CAFD6
:104F30007DAF8EAF9FAFA5973090B144C157DF4F83
:104F40003882CF58D040C0905240D0905340E0902B
:104F50005440F0905540C057DF4FC882D982EA8252
:104F6000FB82C059D040C0902C40D0902D40E090A2
:104F70002E40F0902F40AD96CCAEDDAEEEAEFFAE43
:104F8000AD9722EC34E467962EAF3FAF679746EBC0
:104F900054E42F964EAF5FAF2F9766E075E42596E9
:104FA0006EAF7FAF25978DE894E463968EAF9FAF89
:104FB0006397A5E7B4E46596AEAFBFAF6597EAED3A
:104FC000F4E4E796EEAFFFAFE79720E330E46196B5
:104FD0002EAF3FAF619729964EAF5FAF29976DE532
:104FE00074E42B966EAF7FAF2B9782EC94E42D96F2
:104FF0008EAF9FAF2D97312C212CA196CEACDFAC7C
:10500000A1972C143D040CF0D1C43101B3E0660C1F
:10501000771CBA95E1F7600E711ED3011896BC910A
:10502000CC56DF4FB883C459D040F301F185CB563D
:10503000DF4FF883C559D040D3011A96BC91CA56A8
:10504000DF4FB883C659D040F301F385C956DF4F0F
:10505000F883C759D040D3011C96BC91C856DF4F86
:10506000B883C859D040F301F585C756DF4FF883A0
:10507000C959D040D3011E96BC91C656DF4FB883A4
:10508000CA59D040F301F785C556DF4FF883CB5995
:10509000D0406396AEADBFAD6397CD90DD90ED90FF
:1050A000FD906396AEAFBFAF6397EB96CCAEDDAE2F
:1050B000EEAEFFAEEB97F301F0ADC456DF4FF883D1
:1050C000CC59D040D301D996BC91C356DF4FB88399
:1050D000CD59D040F301F2ADC256DF4FF883CE591F
:1050E000D040D301DB96BC91C156DF4FB883CF5976
:1050F000D040F301F4ADC056DF4FF883C05AD04022
:10510000D301DD96BC91CF55DF4FB883C15AD04053
:10511000F301F6ADCE55DF4FF883C25AD040D3012C
:10512000DF96BC91CD55DF4FB883C35AD04065960A
:10513000AEADBFAD6597CD90DD90ED90FD906596DD
:10514000AEAFBFAF6597EF96CCAEDDAEEEAEFFAEC5
:10515000EF97ABADBCADCD90DD90ED90FC90C1581C
:10516000DF4FC882D982EA82FB82CF57D040F80154
:10517000F081CC55DF4FF883C45AD040D801119646
:10518000BC91CB55DF4FB883C55AD040F801F281AE
:10519000CA55DF4FF883C65AD040D8011396BC9148
:1051A000C955DF4FB883C75AD040F801F481C855BC
:1051B000DF4FF883C85AD040D8011596BC91C75527
:1051C000DF4FB883C95AD040F801F681C655DF4F8A
:1051D000F883CA5AD040D8011796BC91C555DF4F05
:1051E000B883CB5AD0407301E8E9EE0EF11CD70129
:1051F000BC91C455DF4FB883CC5AD040F701F18140
:10520000C355DF4FF883CD5AD040D7011296BC91D9
:10521000C255DF4FB883CE5AD040F701F381C15554
:10522000DF4FF883CF5AD040D7011496BC91C055B8
:10523000DF4FB883C05BD040F701F581CF54DF4F1B
:10524000F883C15BD040D7011696BC91CE54DF4F96
:10525000B883C25BD040F701F781CD54DF4FF883AC
:10526000C35BD040ABADBCAD2D913D914D915C91F8
:105270001397CD57DF4F288339834A835B83C35805
:10528000D0402D913D914D915C91C957DF4F2883BE
:1052900039834A835B83C758D0406196AEADBFADBA
:1052A00061972D913D914D915D916196AEAFBFAFEC
:1052B0006197A9962CAF3DAF4EAF5FAFA997D301D1
:1052C000A859BF4F2C9111963C91119712964C9171
:1052D000129713965C91139714966C9114971596E8
:1052E0007C91159716968C91169717969C91EBAD1D
:1052F000FCAD80809180A280B380D701BC91CC545A
:10530000DF4FB883C45BD040F701F181CB54DF4F4E
:10531000F883C55BD040D7011296BC91CA54DF4FC9
:10532000B883C65BD040F701F381C954DF4FF883DF
:10533000C75BD040D7011496BC91C854DF4FB883E7
:10534000C85BD040F701F581C754DF4FF883C95BD4
:10535000D040D7011696BC91C654DF4FB883CA5BC4
:10536000D040F701F781C554DF4FF883CB5BD040C5
:10537000D701BC91C454DF4FB883CC5BD040F70158
:10538000F181C354DF4FF883CD5BD040D701129633
:10539000BC91C254DF4FB883CE5BD040F701F3819C
:1053A000C154DF4FF883CF5BD040D7011496BC9136
:1053B000C054DF4FB883C05CD040F701F581CF53B4
:1053C000DF4FF883C15CD040D70116964C901697FA
:1053D00017965C90ABADBCADCD90DD90ED90FC90A0
:1053E0001397E196CCAEDDAEEEAEFFAEE197CD9079
:1053F000DD90ED90FC90C557DF4FC882D982EA82DC
:10540000FB82CB58D0400E9452376B017C01C50112
:10541000B4010E94DA349B01AC01C701B6010E94BD
:10542000B5366B017C01CC54DF4F2881C45BD04082
:10543000CB54DF4F3881C55BD040CA54DF4F488121
:10544000C65BD040C954DF4F5881C75BD040C854B9
:10545000DF4F6881C85BD040C754DF4F7881C95B9C
:10546000D040C654DF4F8881CA5BD040C554DF4F5F
:105470009881CB5BD0400E944E374B015C01C454F5
:10548000DF4F2881CC5BD040C354DF4F3881CD5BE8
:10549000D040C254DF4F4881CE5BD040C154DF4F73
:1054A0005881CF5BD040C054DF4F6881C05CD04092
:1054B000CF53DF4F7881C15CD040C2010E944E378C
:1054C0009B01AC01C501B4010E9439354B015C015F
:1054D000E1966CAD7DAD8EAD9FADE1970E94DA3463
:1054E0009B01AC01C501B4010E94B5364B015C01C2
:1054F000C557DF4F688179818A819B81CB58D04025
:105500000E94DA349B01AC01C501B4010E94B5369A
:105510009B01AC01C701B6010E944D360E94E737DE
:105520009B01AC01F301EC52FF4F808181818281AC
:1055300083818481858186818781EBADFCAD80810B
:105540009181A281B381A9966CAD7DAD8EAD9FADE9
:10555000A9970E9439356B017C01E796AEADBFADCE
:10556000E797CD92DD92ED92FD92E796AEAFBFAF99
:10557000E7972B96AEADBFAD2B972D913D914D91F9
:105580005C91E1962CAF3DAF4EAF5FAFE197C15755
:10559000DF4FB881CF58D040BB2309F4DBC1CC56D4
:1055A000DF4F2881C459D040CB56DF4F3881C559D1
:1055B000D040CA56DF4F4881C659D040C956DF4F48
:1055C0005881C759D040C856DF4F6881C859D0406C
:1055D000C756DF4F7881C959D040C656DF4F888102
:1055E000CA59D040C556DF4F9881CB59D0400E9450
:1055F0004E37EB962CAD3DAD4EAD5FADEB970E94B7
:1056000039354B015C01C456DF4F2881CC59D0405D
:10561000C356DF4F3881CD59D040C256DF4F488145
:10562000CE59D040C156DF4F5881CF59D040C056D7
:10563000DF4F6881C05AD040CF55DF4F7881C15AC3
:10564000D040CE55DF4F8881C25AD040CD55DF4F74
:105650009881C35AD0400E944E37EF962CAD3DAD95
:105660004EAD5FADEF970E9439359B01AC01C5018E
:10567000B4010E944E364B015C01C158DF4F688176
:1056800079818A819B81CF57D0400E94DA349B0177
:10569000AC01C501B4010E94B5364B015C01CC558B
:1056A000DF4F2881C45AD040CB55DF4F3881C55ACF
:1056B000D040CA55DF4F4881C65AD040C955DF4F48
:1056C0005881C75AD040C855DF4F6881C85AD0406A
:1056D000C755DF4F7881C95AD040C655DF4F888102
:1056E000CA5AD040C555DF4F9881CB5AD0400E944E
:1056F0004E372B013C01C455DF4F2881CC5AD04096
:10570000C355DF4F3881CD5AD040C255DF4F488155
:10571000CE5AD040C155DF4F5881CF5AD040C055E6
:10572000DF4F6881C05BD040CF54DF4F7881C15BD1
:10573000D040CE54DF4F8881C25BD040CD54DF4F84
:105740009881C35BD0400E944E379B01AC01C301DE
:10575000B2010E9439352B013C01CD57DF4F6881E2
:1057600079818A819B81C358D0400E94DA349B01A1
:10577000AC01C301B2010E94B5362B013C01C957EF
:10578000DF4F688179818A819B81C758D0400E9410
:10579000DA349B01AC01C301B2010E94B5369B0112
:1057A000AC01C501B4010E944D366B962CAD3DADE8
:1057B0004EAD5FAD6B970E943935A9962CAD3DADCE
:1057C0004EAD5FADA9970E9439354B015C01A70131
:1057D00096016F966CAD7DAD8EAD9FAD6F970E94BB
:1057E00039359B01AC01C501B4010E94B5366B018E
:1057F0007C0126E636E646E85FE30E94D9371816B4
:105800000CF49EC026E636E646E85FEBC701B6011B
:105810000E94D43487FD94C0A7019601C701B60148
:105820000E94253881118CC02596EEADFFAD2597DD
:10583000C082D182E282F38220E030E040E05FE388
:10584000C501B4010E944E360E941D372996EEAD67
:10585000FFAD299760837183AD962CAD3DAD4EAD04
:105860005FADAD97C501B4010E943935A5962CAD49
:105870003DAD4EAD5FADA5970E94B536E1962CAD1E
:105880003DAD4EAD5FADE1970E944E366B017C01A0
:1058900020E030E041E655E40E94B5360E941D3715
:1058A0002D96AEADBFAD2D978D909D90AD90BD90D6
:1058B0002D96AEAFBFAF2D97FD013497AB01770F9B
:1058C000660B770BDB01CA01880D991DAA1DBB1D54
:1058D00080839183A283B383CB01BA010E94DA341F
:1058E00020E030E041E655E40E9439359B01AC01EF
:1058F000C701B6010E944D362B96EEADFFAD2B973A
:1059000061937193819391932B96EEAFFFAF2B9799
:10591000FFEF2F1A3F0A29962EAD3FAD29972E5F34
:105920003F4F29962EAF3FAF299725964EAD5FADDD
:1059300025974C5F5F4F25964EAF5FAF25975DCBA8
:105940002596AEADBFAD25971D921D921D921C925E
:10595000139772CFC057DF4F288139814A815B810D
:10596000C059D0400E9439356B017C012596AEADFF
:10597000BFAD25971D921D921D921C92139720E09A
:1059800030E040E05FE30E944E360E941D372996CA
:10599000EEADFFAD299760837183AD962CAD3DAD23
:1059A0004EAD5FADAD97C701B6015ECFE0914E4001
:1059B000F0914F40CF018C5F9E4FE817F90719F027
:1059C00010823196FACF80919945882309F4E5C079
:1059D000B12CA6E0AA2E80919C45B816B8F0909103
:1059E0006440282F30E0220F331FE0915B44F09198
:1059F0005C44E20FF31F891708F0C8C030E3232E80
:105A000035E7332E219231928F5FF5CF2DEC3CECB0
:105A10004CE45EE360912C4070912D4080912E40CB
:105A200090912F40C1D78B2C912C87FF0EC0880CF2
:105A3000991CE0915B44F0915C44E80DF91D60EC29
:105A400076E760837183B394C6CF0E94FB0B8823F3
:105A500071F3740173E0EE0CFF1C7A95E1F7E091AD
:105A60009A45F0919B45EE0DFF1D80818823F9F248
:105A700060E085E50E94AC0B10E000E0E0919A4503
:105A8000F0919B45EE0DFF1DE00FF11F60E080815E
:105A90000E94AC0B0F5F1F4F0830110579F760E0D3
:105AA0008EEB0E94AC0B8E010F5F1F4F780168E0F8
:105AB000C62ED12C712C662463940E94EC078111B0
:105AC0007628660C71E0C71AD108B9F7D7017D9224
:105AD0007D0129AC3AACA215B30549F799E0E0E0A5
:105AE000915099F0D8018D918D018E27E82FEF709C
:105AF000F0E0E65EF24F2491E82FE295EF70F0E0DF
:105B0000E65DF24FE491E227EBCF89858E1335C035
:105B100029813A81A29EC001A39E900D1124359542
:105B2000279535952795820F931F2D81211102C04E
:105B300080EC96E72F812C3021F48433B1E29B076F
:105B4000F9F0803CE6E79E0731F09C0124583A4E7C
:105B500021353644C0F4880C991C20915B44309167
:105B60005C44820E931ED4018D939C9361E070E09F
:105B700080E090E00E94140B66CF80EC96E7D5CFD2
:105B800080EC96E7E8CF88EF95E7E5CF60E080917D
:105B90002B400E94161210925A44809125459091F4
:105BA0002645A0912745B0912845892B8A2B8B2B20
:105BB000E9F460E08AE00E94161265E070E080E09F
:105BC00090E00E94140B6091E8467091E946809144
:105BD000EA469091EB460E94AD0C8091B144882337
:105BE00009F4BAC08EEB9DE00E94350E80912545E8
:105BF00090912645A0912745B09128450196A11D79
:105C0000B11D8093254590932645A0932745B093D9
:105C100028458091B14420E030E048EC52E48823EC
:105C200009F4ACC06091B2447091B3448091B44423
:105C30009091B5441ED70E941D37609329457093FB
:105C40002A452BE2C22E25E4D22E07E315E482EC8E
:105C500094E4F80176012F96AEADBFAD2F972D914C
:105C60003D912F96AEAFBFAF2F97D7012D933D93A8
:105C70007D016796AEADBFAD67974D915D916D911A
:105C80007D916796AEAFBFAF679741935193619394
:105C900071932F962EAC3FAC2F9782159305D9F6B2
:105CA00080912445AEE1B5E4E5E2F5E4882309F40A
:105CB0006EC02D913C91119722A733A71296329670
:105CC00025E4EB32F20791F780915D4690915E46B4
:105CD000A0915F46B091604680935545909356459C
