:10020000F9C4000021C500001FC500000C94DC12D9
:100210001BC5000019C5000017C5000015C500006A
:100220000C941E1311C500000FC500000DC5000081
:100230000BC5000009C5000007C5000005C500008A
:1002400003C5000001C50000FFC40000FDC400009C
:10025000FBC40000F9C40000F7C40000F5C40000AE
:10026000F3C40000F1C400000C943A13EDC4000084
:10027000EBC40000E9C40000E7C400000C94E412E1
:10028000E3C40000E1C40000DFC400000C940C13C0
:10029000DBC40000D9C40000D7C40000D5C40000EE
:1002A000D3C40000D1C40000CFC40000CDC40000FE
:1002B000CBC40000C9C40000C7C40000C5C400000E
:1002C000C3C40000C1C40000BFC40000BDC400001E
:1002D000BBC400000C946E120C9469120C9473123F
:1002E000B3C40000B1C40000AFC40000ADC400003E
:1002F000ABC400004E414E494E495459494E46CD7B
:10030000CCCC3D0AD7233C17B7D13877CC2B3295CC
:1003100095E6241FB14F0A000020410000C84200AA
:10032000401C4620BCBE4CCA1B0E5AAEC59D747004
:100330006861736500766F6C74616765203D2000AD
:100340006861726477617265203D20007665727322
:10035000696F6E203D20006669726D77617265205D
:100360003D20656D6F6E5F44425F31324354006AD9
:10037000736F6E203D206F6666006A736F6E203D5E
:10038000206F6E00646174616C6F67203D20002CEB
:1003900020694C656164006943616C007643616C5F
:1003A000203D20002C207266466F726D6174203DE6
:1003B00020002C207266506F776572203D20002C43
:1003C0002072664E6F6465203D2000204D487A2CD7
:1003D00020726647726F7570203D20005246203DA6
:1003E000206F6E2C20726642616E64203D200052A8
:1003F00046203D206F6666006D73002C2070756C82
:100400007365506572696F64203D20006F666600F9
:1004100070756C7365203D20004E6F20454550522D
:100420004F4D20636F6E666967004C6F6164656451
:1004300020454550524F4D20636F6E6669670076C8
:1004400072656661203D20000A00202868696464A6
:10045000656E292E00206279746573002C2044613A
:1004600074612073697A653A2000205369676E6170
:10047000747572653A20004E6F2064617461206269
:100480006C6F636B20666F756E64202D2045455040
:10049000524F4D206170706561727320746F2062DD
:1004A0006520666F726D617474656420746F204F8F
:1004B000454D205374616E646172642062757420CE
:1004C000756E757365642E000A0020627974657319
:1004D0002C206E6F7420666F726D61747465642079
:1004E000746F204F454D205374616E6461726400D7
:1004F00053697A653A2000446F6E652E204E657709
:1005000020636F6E66696720736176656420746F1F
:1005100020454550524F4D00536176696E672E2E2F
:100520002E00536B657463682077696C6C206E6F66
:10053000772072657374617274207573696E6720B9
:1005400064656661756C7420636F6E6669672E0002
:10055000526573657474696E672E2E2E0020000A32
:10056000417661696C61626C6520636F6D6D616E6F
:1005700064733A0A6C09092D206C697374207468DD
:10058000652073657474696E67730A7209092D209A
:10059000726573746F726520736B65746368206431
:1005A000656661756C74730A7309092D2073617631
:1005B000652073657474696E677320746F20454598
:1005C00050524F4D0A7609092D2073686F772066C7
:1005D00069726D776172652076657273696F6E0AF4
:1005E0007A09092D207A65726F20656E65726779C8
:1005F0002076616C7565730A7809092D2065786924
:10060000742C206C6F636B20616E6420636F6E745A
:10061000696E75650A3F09092D2073686F7720742C
:10062000686973207465787420616761696E0A0A6D
:10063000773C783E09092D207475726E2052464D24
:1006400020576972656C6573732064617461206FF3
:1006500066663A2078203D2030206F72206F6E3A17
:100660002078203D20310A623C6E3E09092D20731E
:10067000657420722E662E2062616E64206E203DAD
:1006800020612073696E676C65206E756D6572619F
:100690006C3A2034203D203433334D487A2C2038B6
:1006A000203D203836384D487A2C2039203D2039DD
:1006B00031354D487A20286D6179207265717569F0
:1006C0007265206861726477617265206368616E2B
:1006D0006765290A703C6E6E3E09092D20736574AA
:1006E0002074686520722E662E20706F7765722EDA
:1006F000206E6E202D20616E20696E7465676572B4
:100700002030202D20333120726570726573656E44
:1007100074696E67202D31382064426D20746F201B
:100720002B31332064426D2E2044656661756C74F4
:100730003A20323520282B372064426D290A673C45
:100740006E6E6E3E092D20736574204E6574776F52
:10075000726B2047726F757020206E6E6E202D2098
:10076000616E20696E746567657220284F454D2063
:1007700064656661756C74203D20323130290A6EE3
:100780003C6E6E3E09092D20736574206E6F6465A2
:10079000204944206E3D20616E20696E7465676556
:1007A0007220287374616E64617264206E6F646578
:1007B000206964732061726520312E2E3630290A3B
:1007C0000A643C78782E783E092D2078782E78209F
:1007D0003D206120666C6F6174696E6720706F697F
:1007E0006E74206E756D62657220666F722074681B
:1007F0006520646174616C6F6767696E67207065FE
:1008000072696F640A633C6E3E09092D206E203DBB
:10081000203020666F72204F46462C206E203D20EF
:100820003120666F72204F4E2C20656E61626C65C0
:1008300020766F6C746167652C2063757272656ECB
:1008400074202620706F77657220666163746F7202
:100850002076616C75657320746F207365726961B1
:100860006C206F757470757420666F722063616C94
:100870006962726174696F6E2E200A6A3C6E3E096D
:10088000092D207475726E204A534F4E20536572A5
:1008900069616C20666F726D6174206F6E20283103
:1008A00029206F72206F6666202830292E0A663C48
:1008B00078783E09092D207878203D2074686520DD
:1008C0006C696E65206672657175656E6379206905
:1008D0006E20487A3A206E6F726D616C6C7920657B
:1008E0006974686572203530206F722036300A6B6B
:1008F0003C783E203C79792E793E203C7A7A2E7ADB
:100900003E0A09092D2043616C6962726174652099
:10091000616E20616E616C6F67756520696E7075C0
:1009200074206368616E6E656C3A0A09092020784C
:10093000203D20612073696E676C65206E756D6562
:1009400072616C3A2030203D20766F6C746167656F
:100950002063616C6962726174696F6E2C20312052
:100960003D206374312063616C6962726174696FE8
:100970006E2C2032203D206374322063616C6962EA
:10098000726174696F6E2C206574630A09092020F6
:1009900079792E79203D206120666C6F6174696ED3
:1009A0006720706F696E74206E756D626572206667
:1009B0006F722074686520766F6C746167652F6351
:1009C000757272656E742063616C696272617469BC
:1009D0006F6E20636F6E7374616E740A0909202054
:1009E0007A7A2E7A203D206120666C6F6174696E80
:1009F0006720706F696E74206E756D626572206617
:100A00006F72207468652070686173652063616C23
:100A10006962726174696F6E20666F7220746869B2
:100A20007320632E742E20287A206973206E6F74D1
:100A3000206E65656465642C206F722069676E6F37
:100A400072656420696620737570706C6965642CCA
:100A5000207768656E2078203D2030290A0909201A
:100A600020652E672E206B30203235362E380A094D
:100A700009202020202020206B312039302E3920E1
:100A8000322E30300A6D3C783E203C79793E092D7B
:100A9000206D657465722070756C736520636F7569
:100AA0006E74696E673A0A090920202078203D207B
:100AB0003020666F72204F46462C2078203D203132
:100AC00020666F72204F4E2C203C79793E203D20CD
:100AD000616E20696E746567657220666F7220743E
:100AE00068652070756C7365206D696E696D756DD4
:100AF00020706572696F6420696E206D732E2028E6
:100B000079206973206E6F74206E65656465642C4E
:100B1000206F722069676E6F726564207768656EFA
:100B20002078203D2030290A00456E6572677920C3
:100B300076616C7565732073657420746F207A65B7
:100B4000726F00436F6E74696E75696E672E2E2E1C
:100B5000007266506F776572203D200072664E6F9E
:100B60006465203D20002C20694C65616400694368
:100B7000616C007643616C203D2000726647726FA5
:100B80007570203D200066726571203D2000646113
:100B900074616C6F67203D20006A736F6E203D208A
:100BA0006F6666006A736F6E203D206F6E00204D89
:100BB000487A00726642616E64203D20007D002C00
:100BC0002250002C2246223A002C225633223A0090
:100BD0002C225632223A002C225631223A007B2215
:100BE0004D5347223A000A0000080A400CFFC0009B
:100BF000C0008C1711241FBECFEFCDBFDFE7DEBFD3
:100C000011E4A0E0B0E4E0E9FFE500E00BBF02C0C2
:100C100007900D92A033B107D9F72EE5A0E3B1E418
:100C200001C01D92A53DB207E1F715E0CAEFD5E07E
:100C300004C02197FE010E949A2FC93FD107C9F72E
:100C40000E94B4180C94C62FDBCA20910314FC0137
:100C50002083209104142183209105142283209164
:100C60000614238308958091CE5E8D3011F42D9A61
:100C70000895873011F40F9A0895813109F44B9A41
:100C8000089500009091D25E911109C080934409AB
:100C90008091430987FFFCCF809144090895809398
:100CA00064098091630987FFFCCF809164090895EE
:100CB0008091CE5E8D3011F42D980895873011F417
:100CC0000F980895813109F44B980895CF93DF93DD
:100CD000D82FC62FEDDF8D2F8068D3DF8C2FD1DF8B
:100CE000DF91CF91C0CFCF93C82FE2DF8C2FC9DF28
:100CF00080E0C7DFC82FB7DF8C2FCF910895CF9347
:100D00009091C857981791F0C82F81E0ECDF837E4F
:100D1000682F6C2B81E0DADF8091C857811104C005
:100D200087E2E1DF87FFF8CFC093C857CF910895DE
:100D30000F931F93CF93DF93EC0184E0E0DF2097C4
:100D4000D9F088818823C1F0B3DF8EEB9ADF8E0162
:100D5000005F1F4F899195DFC017D107D9F783DF57
:100D6000C1E08DE3C0DF8E7F682F6C2B8DE3DF91B8
:100D7000CF911F910F91AACFC0E0F3CF1092C75728
:100D80001092C5571092C6571092C3571092C4576D
:100D90001092C2571092C15788E2A5DF82FF06C0A9
:100DA0008DE3A1DF682F64608DE390DF80E1A7CF42
:100DB000CF92DF92EF92FF92CF93DF936A0181503F
:100DC00096E1899FE0011124C85FD14A888323EA14
:100DD00033E240E051E4CB01B6010E94832C209124
:100DE000494030914A4040914B4050914C400E94C4
:100DF000832C6B017C01609162587091635890E084
:100E000080E00E94222C9B01AC01C701B6010E9428
:100E1000FC2D69837A838B839C831D828AE097ED06
:100E2000A3E2BEE38E839F83A887B9871A861B86B9
:100E30001C861D861E86DF91CF91FF90EF90DF907C
:100E4000CF900895AF92BF92CF92DF92EF92FF9230
:100E50000F931F93CF93DF936C017B018B01040FE2
:100E6000151FEB015E01AE18BF08C017D10759F07E
:100E70006991D601ED91FC910190F081E02DC601C0
:100E80000995892B79F7C501DF91CF911F910F91BA
:100E9000FF90EF90DF90CF90BF90AF900895FC014E
:100EA00055894689252F30E0842F90E0821B930BD3
:100EB000541710F0CF96089501970895FC01938977
:100EC0008489981761F0A489AE0FBF2FB11D579682
:100ED0008C9194899F5F9F73948B90E008958FEF1E
:100EE0009FEF0895FC0193898489981731F08489D4
:100EF000E80FF11D878990E008958FEF9FEF089527
:100F0000FC0193892489892F90E0805C9F4F821B8C
:100F100091098F7399270895CF93DF93EC01E881AE
:100F2000F9810680F781E02D0995EC85FD858681A4
:100F300016828581158280E484838C898B8B1A8A42
:100F4000DF91CF9108958F929F92AF92BF92FF92BF
:100F50000F931F93CF93DF938C014A015B01D22F34
:100F6000C32FDC0152968C91529780FF07C0ED9100
:100F7000FC910288F389E02DC8010995D11101C0C7
:100F8000D3E0FD2EE894F2F8DC2FD095D07CB1E6CA
:100F90008B16B3EE9B06B6E1AB06B10428F0D26027
:100FA000B694A7949794879460E078ED88EB95E0E9
:100FB000A50194010E94662DC9012034310510F469
:100FC00080E490E03C2F3B72D7FD30684D2F487C89
:100FD00030FD41605FB7F894D8011C96ED91FC910B
:100FE0001682F7828087918735FF8FC04F7781E027
:100FF00084878FEF85873F7D3583D683F8012189EC
:10100000C08986859785FC0133E0239FE00DF11DA3
:101010001124659174912C1708F059C0272F46FFB1
:1010200076C0793288F430E0F901EF5AFF4BA081A5
:10103000AF3F51F026583F4BF901308120E2329FFB
:10104000F0011124FC5FA18347FF2AC021E0270F94
:10105000293230F530E0F901EF5AFF4BD081DF3F04
:10106000F9F0F901E658FF4BA081F0E2AF9FD00103
:101070001124BC5F2D553F4BF9011081F0E0E0E0F9
:10108000183030F49D01205F3F4FF901E10FF11D51
:101090003FB7F8941296DC932081286020833FBFED
:1010A00040FF15C023E0270F293288F430E0F90112
:1010B000EF5AFF4B40814F3F51F026583F4BD9012B
:1010C000EC91B0E2EB9FF0011124FC5F4183FC0145
:1010D00023E0C29FE00DF11D11243196259134913A
:1010E000F901FF27EE51FA4F9081832F80958923D4
:1010F000682B60835FBFDF91CF911F910F91FF90AD
:10110000BF90AF909F908F900895148674CF342F26
:10111000307509F499CF793208F096CF30E0F901B3
:10112000EF5AFF4BD081DF3F09F48ECFF901E6582B
:10113000FF4BA081E0E2AE9FD0011124BC5F2D5592
:101140003F4BF9011081F0E0E0E0183030F49D01F0
:10115000205F3F4FF901E10FF11D3FB7F894129660
:10116000DC932081286020833FBF6ECFFC010FB647
:1011700007FE04C0809111018823A9F0A485B585DC
:1011800014968C91149785FF0EC0958986899817BF
:1011900039F015968C9115978F7D15968C9308953F
:1011A000E8940C947E1208950F931F93CF93DF93CE
:1011B000EC018A89982F91609A8B2D899E89291339
:1011C0000AC0EC85FD85948195FF05C081FD0DC0A9
:1011D00080E4848312C0062F1D891F5F1F738E89D0
:1011E000811315C0CE01C2DFFACF85818F7780646D
:1011F00090E49483EC85FD858583EC85FD85628391
:1012000081E090E0DF91CF911F910F910895ED89DA
:10121000EC0FFD2FF11DE95AFF4F00831D8BEC856C
:10122000FD858A8981FF09C085818F77806690E47A
:101230009483EC85FD858583E3CF85818062FBCF38
:101240000F931F93CF93DF938C01D0E0C0E0F801A0
:10125000EC0FFD1F6491662339F089EC97E5A4DF5C
:10126000892B11F02196F3CFCE01DF91CF911F9101
:101270000F910895682F89EC97E596CFCF93DF9370
:10128000EC018A8980FF0BC0EC85FD85858185FD99
:1012900003C0848186FD03C0CE0168DFF5CFDF91F6
:1012A000CF91089581E008950F98079A20E533ECD7
:1012B00093E0179A44E1F9013197F1F74150D9F7DA
:1012C000482F179AF9013197F1F7179A59E0F90168
:1012D0003197F1F75150D9F7415099F7915049F7AB
:1012E000E7CF9FB7F894E0912A0BF0912B0B8091F8
:1012F000260B2091FE563091FF5640910057509199
:1013000001579FBF80FF08C0EC3E8CE2F80720F435
:101310002F5F3F4F4F4F5F4F0F0116940794169466
:1013200007941694079416940794F0011694079462
:10133000E00DF11D16940794102C169401181694C4
:10134000010C169401181694010C169401181694A9
:101350001694010C1124E019F109A8EEB3E00E94E3
:10136000562D6E0F7F1F811D911D08958F929F92A4
:10137000AF92BF92CF92DF92EF92FF926B017C010E
:10138000B0DF4B015C01C114D104E104F104B1F000
:10139000A8DF681979098A099B09683E73408105AD
:1013A000910588F321E0C21AD108E108F10888EE1E
:1013B000880E83E0981EA11CB11CE5CFFF90EF9032
:1013C000DF90CF90BF90AF909F908F9008952FB7F0
:1013D000F8946091FE567091FF568091005790915D
:1013E00001572FBF08958150909112572FE5929F7A
:1013F000F0011124E856F74A45E1849F9001112439
:10140000245F324A20833183615026E1629FB0011C
:101410001124685F714A6283738364837583E25A1F
:10142000FF4F21E02083E82FF0E0EE50F94A90834F
:101430009F5F9093125708958150282F30E095E1D7
:10144000899FF0011124E45FF24A8489882379F0AE
:10145000F901EE50F94AE0818FE5E89FF00111248F
:10146000E251F74A6081718182819381089560E041
:1014700070E0CB0108958150282F082E000C330B0B
:1014800095E18902F0011124E45FF24A84898823FE
:1014900069F0F901EE50F94AE0818FE5E89FF0012B
:1014A0001124E651F74A80819181089590E080E00F
:1014B00008958F929F92AF92BF92CF92DF92EF9258
:1014C000FF920F93CF936B017C0120E030E040E06E
:1014D0005FE30E941E2C87FF05C0C12CD12CE12C9C
:1014E0008FE3F82EC0920540D0920640E09207406C
:1014F000F092084080900F5790901057C09111576C
:1015000020E836E948E15BE4C701B6010E94832C7C
:101510006B017C01B12CA12CC501B4010E94222CCD
:101520009B01AC01C701B6010E94FC2D0E94692EEF
:101530006B017C0160E876E988E990E0A5019401FF
:101540000E94662DCA01B90100914640202F30E06B
:1015500050E040E00E94662D44275527C701B601A0
:10156000621B730B840B950B2C2F30E050E040E096
:101570000E94662D209302573093035740930457DF
:1015800050930557CF910F91FF90EF90DF90CF9040
:10159000BF90AF909F908F9008950F931F93CF931C
:1015A000DF9300D000D0CDB7DEB7209100142F34E8
:1015B000A1F420910114253481F4209102142D34DA
:1015C00061F4009799F08C01CE0101963EDB81E039
:1015D0002B813C812017310709F080E02496CDBF94
:1015E000DEBFDF91CF911F910F91089581E0F6CF7B
:1015F000DC01ED91FC91F170FC5E20816217B9F085
:101600003FB720910210422F427021FDFACFF8948B
:101610002DE924BF4093001043E124BF4093001004
:10162000DC01ED91FC91F170FC5E60833FBF089599
:10163000CF92DF92EF92FF920F931F93CF93DF939E
:1016400000D0CDB7DEB76C017C0103E010E0098368
:101650001A83F70161917F01CE010196C9DF0F5F07
:101660001F4F0730110599F7C6010F900F90DF91BA
:10167000CF911F910F91FF90EF90DF90CF90089541
:101680000F931F93CF93DF9300D0CDB7DEB70091B8
:10169000525E1091535E8091545E9091555E081792
:1016A00019079CF4C801957189839A836FEFCE0165
:1016B00001969EDF10924E5E10924F5E80914C5EBE
:1016C00090914D5E080F191FE6CF0F900F90DF919C
:1016D000CF911F910F910895DC01ED91FC9100884D
:1016E000F189E02D23E030E00994FC010190002015
:1016F000E9F73197AF01481B590BBC0189EC97E51D
:10170000A1CB86EE90E4F1CFCF93DF9399DDEC018E
:10171000F8DF8C0F9D1FDF91CF910895009709F09E
:10172000E4CF90E080E008958F929F92AF92BF92B5
:101730000F931F93CF93DF93CDB7DEB7A197CDBFA4
:10174000DEBF19A2423008F44AE08E010F5D1F4F40
:10175000842E912CB12CA12CA50194010E94662D00
:10176000E62FB901CA01EA30D4F4E05DD801EE9366
:101770008D01232B242B252B79F790E080E0109707
:1017800011F0CD01B2DFA196CDBFDEBFDF91CF91C9
:101790001F910F91BF90AF909F908F900895E95C3B
:1017A000E5CFCF92DF92EF92FF920F931F93CF93EB
:1017B000DF937C016B01D0E0C0E0CC15DD053CF58A
:1017C0008E010E0D1F1D11701C5EF801808180318D
:1017D00010F480E34FDD2196F801608170E090E025
:1017E00080E040E1A1DF81E091E498DFCE018770E5
:1017F0009927892B19F481E091E490DFCE018F7055
:101800009927892BD1F686EE9BE01ADDD6CFDF91A2
:10181000CF911F910F91FF90EF90DF90CF9008959F
:10182000CF92DF92EF92FF92CF93DF936C01990FEB
:10183000EE08FF08F7FE15C08DE21CDDEC016627FF
:101840007727CB016C197D098E099F094AE06CDF6F
:101850008C0F9D1FDF91CF91FF90EF90DF90CF9085
:1018600008954AE0C701B601DF91CF91FF90EF9054
:10187000DF90CF9059CF80E194E0E2DC8091C75EA9
:10188000882371F081E090E0CBDF8BEF93E0D8DC30
:101890008091C85E9091C95EC3DF88EF93E034CF3A
:1018A0008CE094E0FCCF87E593E02EDF8CE493E0BE
:1018B000C7DC89EE90E419DF80E493E0C1DC85E3C6
:1018C00093E0BEDC83E090E0ABDF8FE293E01CCFDF
:1018D0000F931F93CF93DF938091C857803109F006
:1018E00062C088E200DA82FF3BC084E008DAE0D917
:1018F00080E0C7D980E0C5D9D82FC82F833408F03D
:10190000C2E4C093C25780E0BCD9082F80E0B9D9A7
:10191000182F80E0B6D9282F30E0A90196E0440FB7
:10192000551F9A95E1F744275370402B4093C357B6
:101930005093C457322F222722273370212B209314
:10194000C5573093C6579091CC5E9417150611F089
:10195000452B11F4D330A0F41092C25784D90EDA7B
:101960008091C8578031F9F48091C2578823E1F003
:1019700084E0C5D981E0DF91CF911F910F91089547
:10198000C350C093C75780788093C157D0E0DC170D
:1019900020F480E076D9DF5FFACF65D980E1AFD956
:1019A00084E2A1D9DDCFEAD980E0E5CFBF92CF9222
:1019B000DF92EF92FF920F931F93CF93DF93EC018F
:1019C000B12C8C010C5C1F4FB092CD5E8DE38BD996
:1019D000682F64608DE37AD9FADC6B017C01809119
:1019E000C857803109F058C08091C257811154C046
:1019F00084E279D990E09195819591098C349F4F3B
:101A00000CF04AC084E07BD984E079D987E26BD9B5
:101A100087FFFCCF4DD980E834D987E332D985E000
:101A200030D98091CC5E2DD980E42BD97E01F7018D
:101A300081917F0126D90E151F05C9F714D98CE0B5
:101A40005ED988E250D983FFFCCF84E058D9BFDC4F
:101A50006B017C01BCDC6C197D098E099F096E311C
:101A600071058105910528F533DF882399F32091CD
:101A7000C5573091C6572530310561F79091C15750
:101A8000992341F3DF91CF911F910F91FF90EF9038
:101A9000DF90CF90BF9008959ADC6C197D098E0974
:101AA0009F09683E73408105910508F0ADCF10DFB6
:101AB00096CFB394F9E0BF1287CF80E0E3CF4F9287
:101AC0005F926F927F928F929F92AF92BF92CF92CE
:101AD000DF92EF92FF920F931F93CF936B017C01E4
:101AE000742EAC019B010E94802F882391F081EF1E
:101AF00090E4CF911F910F91FF90EF90DF90CF90E6
:101B0000BF90AF909F908F907F906F905F904F901D
:101B1000ECCD46015701E894B7F82FEF3FEF4FE7C0
:101B20005FE7C501B4010E94802F81110DC02FEF26
:101B30003FEF4FE75FE7C501B4010E941E2C181666
:101B40001CF485EF90E4D5CF2FEF3FEF4FE75FE434
:101B5000C701B6010E943A2F18161CF489EF90E4D1
:101B6000C8CF2FEF3FEF4FE75FECC701B6010E94F0
:101B70001E2C87FDF3CF20E030E0A901C701B6019C
:101B80000E941E2C10E000E087FF07C08DE272DB90
:101B90008C01F7FAF094F7F8F094C0E060E070E0A0
:101BA00080E09FE37C1641F020E030E040E251E429
:101BB0000E94FC2DCF5FF6CFA70196010E94982DC1
:101BC0002B013C010E94692E4B015C014AE0ACDD17
:101BD0007C01E00EF11ECC23A9F1C501B4010E94E5
:101BE000222C9B01AC01C301B2010E94972D4B0135
:101BF0005C018DEF90E479DDE80EF91EC15010F123
:101C000020E030E040E251E4C501B4010E94832CA1
:101C10002B013C010E94692E4B01B12CA12C4AE002
:101C2000C501B40181DDE80EF91EC501B4010E94B1
:101C3000222C9B01AC01C301B2010E94972D4B01E4
:101C40005C01DCCFC701CF911F910F91FF90EF9006
:101C5000DF90CF90BF90AF909F908F907F906F90CC
:101C60005F904F90089542E02ACFCF93DF9327DF14
:101C7000EC0147DD8C0F9D1FDF91CF910895CF932D
:101C8000DF93682F70E090E080E04AE04DDDEC01EA
:101C900038DD8C0F9D1FDF91CF9108958091595EA3
:101CA000882309F436C08CED93E0CADA8091565E41
:101CB0008B3231F1863539F18B3541F190E080E09E
:101CC000AFDD8BEC93E0BCDA6091575E70E090E0A2
:101CD00080E04AE029DD8FEB93E0B2DA8091585E34
:101CE0008F7390E09DDD82EB93E0AADA60915A5EFB
:101CF00070E090E080E04AE017DD84EA93E0A0CA5B
:101D000081EB91E0DDCF84E693E0DACF83E993E0E5
:101D1000D7CF8FEE93E0F8CC0F931F93CF93DF9341
:101D20008CE993E08DDA60915B5E70915C5E8091EE
:101D30005D5E90915E5E42E050E097DF03E61EE557
:101D4000C1E0D0E087E993E07BDACE0169DD8FEF77
:101D500090E4E4DCF80161917191819191918F019E
:101D600082DF8FE893E06CDACE015ADD8FEF90E4EA
:101D7000D5DCF80164A575A586A597A542E050E0DD
:101D800074DF2196CD30D105E9F675DD87DF84E873
:101D900093E056DA6091C35E7091C45E8091C55E37
:101DA0009091C65E42E050E060DF8091CB5E811191
:101DB00007C08FE693E0DF91CF911F910F91A4CCE4
:101DC0008AE793E0F8CF94E081111BC0909346041A
:101DD0009091400492FD0AC09FB7F894811114C0FD
:101DE00080915204877F809352049FBF8091E605C3
:101DF0008770823029F48091010A8B7F8093010AD9
:101E0000089590934504E4CF809152048860EBCF0D
:101E10000F931F93CF93DF93CDB7DEB72C97CDBF32
:101E2000DEBF681BF1F0062F10E0682F70E06F57DF
:101E3000784AA801CE0101960E94B72FE1E0F0E0B8
:101E4000EC0FFD1FE00FF11F1082CE0101960E94E2
:101E5000842A2C96CDBFDEBFDF91CF911F910F91C9
:101E6000089590E080E0F5CF0F931F93CF93DF9319
:101E7000CDB7DEB72C97CDBFDEBF681BF1F0062FC4
:101E800010E0682F70E06F57784AA801CE010196E4
:101E90000E94B72FE1E0F0E0EC0FFD1FE00FF11F13
:101EA0001082CE0101960E94812A2C96CDBFDEBF02
:101EB000DF91CF911F910F91089560E070E0CB0109
:101EC000F4CF2F923F924F925F926F927F928F92B8
:101ED0009F92AF92BF92CF92DF92EF92FF920F93B9
:101EE0001F93CF93DF93CDB7DEB72A97CDBFDEBF69
:101EF00089879A87162F7A01222E312CB101032C63
:101F0000000C880B990B0E94242C4B015C01612F63
:101F100070E090E080E00E94242C20E030E044EB70
:101F200053E40E94832C2B013C01B70190E080E038
:101F30000E94222C9B01AC01C301B2010E94832CA0
:101F4000A50194010E94832C20E836E948E15BE476
:101F50000E94FC2D2B013C01E985FA8505818081D9
:101F6000081B110B21813281438154816681778165
:101F7000808591850E94972DA30192010E94FC2DDE
:101F80006B017C01B801012E000C880B990B0E949B
:101F9000242CA50194010E94FC2D9B01AC01C701DA
:101FA000B6010E94982D6D837E838F8398870E944F
:101FB000D72E69837A838B839C8320E030E040E8CE
:101FC0005FE30E94982D6B017C0120E030E0A901C5
:101FD00069817A818B819C810E943A2F87FDA2C002
:101FE000A7019601C501B4010E94832C0E94642EB2
:101FF000E985FA856287738716861786E985FA85EB
:1020000026853785020F131F06871787020D131DBC
:102010000487158720E030E044EB53E4C301B201AC
:102020000E94FC2D2BED3FE049EC50E40E94832CF4
:102030006B017C0129813A814B815C816D817E81BC
:102040008F8198850E94972DA30192010E94832C75
:1020500020E030E044EB53E40E94FC2D2BED3FE008
:1020600049EC50E40E94832C4B015C01A7019601CE
:102070000E94FC2D2B013C01E985FA85448A558A92
:10208000668A778AA5019401C501B4010E94832C58
:1020900020E030E040E05FE30E94832C9B01AC0134
:1020A00060E070E080E89FE30E94972D4B015C01A7
:1020B000A7019601C701B6010E94832C20E030E001
:1020C00040E05FE30E94832C9B01AC0160E070E084
:1020D00080E89FE30E94972DA30192010E94832C28
:1020E0009B01AC01C501B4010E94972DE985FA85D9
:1020F000608B718B828B938B2A96CDBFDEBFDF9175
:10210000CF911F910F91FF90EF90DF90CF90BF90F4
:10211000AF909F908F907F906F905F904F903F9087
:102120002F900895E985FA8512861386C701B601B6
:102130009058A50194010E94832C0E94642EE98589
:10214000FA85668777875ACFCF92DF92FF920F93F7
:102150001F93CF93DF930FE5089FF0011124EF0148
:10216000C856D74AAA81BB811F962C911F972A8BEC
:1021700016964D915D916D917C9119974B8B5C8B6F
:102180006D8B7E8BA881B9811F962C911F972F8B09
:1021900016964D915D916D917C911997488F598F4D
:1021A0006A8F7B8F20911157C0900F57D090105796
:1021B000F09046408F01A6016F2DCF018655974ABA
:1021C00080DEEC81FD818A819B818E179F0729F13A
:1021D00087858AA786819781A085B1858BA79CA7D3
:1021E000ADA7BEA7E881F98187858FA786819781F2
:1021F000A085B18588AB99ABAAABBBAB2091115739
:10220000A6016F2DC8018E53974ADF91CF911F9180
:102210000F91FF90DF90CF9054CEDF91CF911F911F
:102220000F91FF90DF90CF900895CF92DF92EF92C1
:10223000FF920F931F93CF93DF93CDB7DEB7AD9788
:10224000CDBFDEBF87E08093CE5E84E08093CF5E1B
:1022500085E08093D05E86E08093D15E1092D25E5E
:102260001091575E8091585E8093CC5E1092CD5E47
:1022700080E88093010480E1809301049FB7F89483
:1022800080E28093020480911504877F8093150477
:102290009FBF8091D15E893288F490E0FC01EF5AB3
:1022A000FF4B20812F3F51F086589F4BDC01EC9172
:1022B000B0E2EB9FF0011124FC5F21830E94330602
:1022C0008091D25E8111AFC08091E4058C7F8093B4
:1022D000E40580914109846080934109809140091F
:1022E00081628093400973D86B017C016AEA8FE2B6
:1022F0000E9466068FE20E9473068A3A51F067D800
:102300006C197D098E099F0962337105810591055C
:1023100068F35DD86C197D098E099F0962337105D8
:102320008105910508F0B0C052D86B017C0165E5CC
:102330008FE20E9466068FE20E947306853551F097
:1023400046D86C197D098E099F0962337105810594
:10235000910568F33CD86C197D098E099F09623399
:1023600071058105910508F08FC0FE0133968BE25F
:10237000DF011D928A95E9F781E0898384E08A83F1
:1023800022E02B8393E09D832E838F8380E48887D4
:1023900025E029879A8796E09B8793E39C8797E0BF
:1023A0009D8728E02F8729E0298B29E12B8B32E4B8
:1023B0003C8B25E22D8B8E8B26E22F8B988F98E21B
:1023C000998F20E12A8F99E29B8F9CED9C8F9EE252
:1023D0009D8F98E89E8F9FE29F8F9DE298A390E348
:1023E00099A347E34BA340E94CA348E34DA33EA385
:1023F0003CE33FA33FE838A73DE339A72AA72FE6F0
:102400002BA79CA79CE69E87888B1AA38E010F5F43
:102410001F4FF80180818823B1F061810E94660618
:102420000E5F1F4FF6CF8091E405837F8093E40514
:102430008091610984608093610980916009816263
:102440008093600950CF90E080E00E94980669E98F
:1024500081E10E94660684E00E947F060E94E709EF
:102460006B017C0187E20E94730687FD0BC00E940E
:10247000E7096C197D098E099F0962337105810591
:10248000910580F30E94E70983E091E40E94980699
:102490002091585EF4E12F9F8001112460E070E0EC
:1024A000CB010115110541F00E942C2A9801110F52
:1024B000440B550B0E943A2DAD96CDBFDEBFDF9188
:1024C000CF911F910F91FF90EF90DF90CF900C94E0
:1024D000B609EF93FF93E9ECF7E508C0EF93FF939C
:1024E000E9ECF7E532C0EF93E0E653C02F932FB746
:1024F0002F938F939F93AF93BF936894CF93DF9362
:1025000020E0C485D8E09689DF01A90FB21FA95A3F
:10251000BF4F8C9120E42C838A839F5F9F738D81B2
:102520002589291302C08F7D8D83968BDF91CF91F2
:1025300016F00C94D308BF91AF919F918F912F917A
:102540002FBF2F91FF91EF9118952F932FB72F93B6
:102550008F939F93CF93DF93C485D8E0898198812F
:1025600081FD0DC0C38981E08C0F8F7324892817EA
:1025700031F0CE0FDF2F20E0D21F9F8B838BDF91B6
:10258000CF919F918F912F912FBF2F91FF91EF911D
:102590001895FF938F938FB78F93F8E08081848194
:1025A00087FFFCCF85818F7B806885838F918FBF6C
:1025B0008F91FF91EF9118951F920F920FB60F9286
:1025C000112484E00E9454091F920F920FB60F92BB
:1025D00011248F939F93AF93BF938091FE56909158
:1025E000FF56A0910057B09101570196A11DB11D52
:1025F0008093FE569093FF56A0930057B0930157D7
:1026000081E08093260BBF91AF919F918F910F90A6
:102610000FBE0F901F9018951F920F920FB60F923A
:1026200011248F9388E08093A90481E080930C5754
:102630008F910F900FBE0F901F9018951F920F92C1
:102640000FB60F9211248F939F938091090480936A
:10265000090486FF03C091E090930E5787FF03C0E3
:1026600081E080930D579F918F910F900FBE0F9037
:102670001F9018951F920F920FB60F9211240BB650
:102680000F922F923F924F925F926F927F928F9212
:102690009F92AF92BF92CF92DF92EF92FF920F93F1
:1026A0001F932F933F934F935F936F937F938F93DA
:1026B0009F93AF93BF93EF93FF93CF93DF93CDB7E8
:1026C000DEB72A97CDBFDEBF81E080930D068091F3
:1026D0001006909111068D839E838091F1568E5F36
:1026E00090911157891718F090911157891B90E01C
:1026F000FC01EE0FFF1FE80FF91FE75EFF4B808123
:10270000809308068D819E81209162583091635894
:1027100036952795821B930B8D839E838D819E8199
:10272000E091EF56F091F056EE0FFF1FE151F14BA3
:102730008083918319821A821B821C822D813E81A3
:102740000D811E8122241302B001029FA0011203F9
:102750007209500D611D721D30037209500D611D0B
:10276000721D112449835A836B837C8389809A80EC
:10277000AB80BC80A0910140B0910240E091F15645
:1027800008E0E09FF0011124EA0FFB1FE058FF4F23
:10279000208031804280538064807580068117815B
:1027A0009401A50160E070E080E090E051016201D9
:1027B00073010E94A32F2083318342835383648358
:1027C0007583868397834D815E81E091F15618E091
:1027D000E19FF0011124EA0FFB1FA084B184C284A1
:1027E000D384E484F58406851785952F990F990B7A
:1027F0009A01492F592F692F792F892F0E94A32FD2
:1028000020873187428753876487758786879787B4
:10281000E091F1568E2F90E0FC01EE0FFF1FE80FC4
:10282000F91FE75EFF4B80818111CFC08091ED4E93
:102830009091EE4E9C013695279536952795AC01E3
:10284000421B530B9A018D819E81181619060CF4B8
:1028500078C08D819E81919581959109820F931FFA
:102860008093ED4E9093EE4E21E040916058509150
:1028700061584817590708F020E020931D5E8D81AC
:102880009E81181619060CF05FC081E090E08093DD
:10289000EB4E9093EC4E2091EB4E3091EC4E8091AC
:1028A000E74E9091E84E2817390709F452C08091FD
:1028B000E44E8F5F8093E44E8091E44E882351F084
:1028C0001092E44E8091EB4E9091EC4E8093E94E45
:1028D0009093EA4E8091E94E9091EA4E019709F06B
:1028E00016C38091E74E9091E84E019709F465C0B8
:1028F0008091E54E9091E64E01968093E54E90933F
:10290000E64E20910440222339F1209103402817FC
:10291000190609F008F5109204401092E54E109245
:10292000E64E14961D921D921D921C921797CD0192
:1029300088529D4FFD01E817F90771F0108231961A
:10294000FACF8D819E818ACF1092EB4E1092EC4E81
:10295000A2CF1092E44EB0CF14964D915D916D913F
:102960007C9117974F5F5F4F6F4F7F4F14964D933A
:102970005D936D937C9317970D911D912D913C91D3
:1029800013974091025750910357609104577091EB
:102990000557041715072607370778F08091474039
:1029A00090914840A0934740B093484080930140A5
:1029B0009093024081E0809314578091E94E90916A
:1029C000EA4E8093E74E9093E84E9091F1568091B5
:1029D0001357981708F445C28090EF569090F05620
:1029E000E091F1568E2F90E0FC01EE0FFF1FE80FF3
:1029F000F91FE75EFF4B0180F281E02D848D958DFC
:102A0000881A990A53E09522E091EF56F091F0561A
:102A1000A091F1568A2F90E0DC01AA0FBB1FA80FEE
:102A2000B91FA75EBF4B11960D90BC91A02D5E966D
:102A30008D919C91E81BF90BF3702091EF5630912A
:102A4000F056A091F1568A2F90E0DC01AA0FBB1F2F
:102A5000A80FB91FA75EBF4B11960D90BC91A02D7A
:102A600090968D919C91281B390BD901B370AF833F
:102A7000B887880C991C84010151114B4801D80179
:102A80006D917C91EE0FFF1FE151F14B408151811F
:102A9000222457029001469F800156033209100DEF
:102AA000211D321D74033209100D211D321D112408
:102AB00028013901E0910140F0910240A091F156C6
:102AC00018E0A19FD0011124AE0FBF1FA850BF4F27
:102AD000AC901196BC90119712962C901297139669
:102AE0003C90139714960C911497098715961C9196
:102AF00015971A8716960C91169717961C9117978B
:102B000073016201FF0CCC08DC2C76019201A30159
:102B10006C2D7C2D8C2D9C2D6101E984FA840E9402
:102B2000A32F2C9311963C93119712964C931297C6
:102B300013965C93139714966C93149715967C9345
:102B4000159716968C93169717969C93D4016D91B2
:102B50007C91AF81B885AA0FBB1FA151B14B4D919C
:102B60005C91222457029001469F8001560332094E
:102B7000100D211D321D74033209100D211D321D4F
:102B8000112448015901A091F15618E0A19FD001EC
:102B90001124AE0FBF1FA059BE4F2C9011963C9030
:102BA00011971296CC9012971396DC901397149667
:102BB000EC9014971596FC90159716960C91169715
:102BC00017961C91179724013501770C4408542C53
:102BD00032019401A501642D742D842D942D510191
:102BE0000E94A32F2C9311963C93119712964C930D
:102BF000129713965C93139714966C9314971596EB
:102C00007C93159716968C93169717969C93A09184
:102C1000F1568091F1562A2F30E0D901AA0FBB1F3F
:102C2000A20FB31FA75EBF4B11962D913C9190E070
:102C3000DC01AA0FBB1FA80FB91FA75EBF4B1196DF
:102C40008D919C91D90112962D913C91DC011496A5
:102C50008D919C912817390709F403C18090EF5694
:102C60009090F056A091F1568A2F90E0DC01AA0FC7
:102C7000BB1FA80FB91FA75EBF4B11960D90BC914B
:102C8000A02DD4968D919C91881A990AB3E09B222D
:102C90002091EF563091F0568091F15690E0DC0192
:102CA000AA0FBB1FA80FB91FA75EBF4B11960D90AF
:102CB000BC91A02DD6968D919C91D901A81BB90BE2
:102CC000BD0173704091EF565091F0568091F156CE
:102CD000282F30E0C901880F991F820F931F875E4C
:102CE0009F4BDC0111968D919C91DC01D8968D91C2
:102CF0009C91481B590BDA01B370AF83B887880CDD
:102D0000991C84010151114B4801D8018D919C916E
:102D1000DB01AA0FBB1FA151B14B4D915C91BC01CE
:102D2000222457029001469F800156033209100D5C
:102D3000211D321D74033209100D211D321D112475
:102D400028013901A091F15678E0A79FD001112404
:102D5000AE0FBF1FA851BE4FAC901196BC901197FB
:102D600012962C90129713963C90139714960C91F0
:102D70001497098715961C9115971A8716960C912A
:102D8000169717961C91179779016201FF0CCC08D2
:102D9000DC2C76019201A3016C2D7C2D8C2D9C2DB9
:102DA0006101E984FA840E94A32F2C9311963C932D
:102DB000119712964C93129713965C93139714964F
:102DC0006C93149715967C93159716968C9316977B
:102DD00017969C93D4016D917C91AF81B885AA0F11
:102DE000BB1FA151B14B4D915C9122245702900120
:102DF000469F800156033209100D211D321D7403B8
:102E00003209100D211D321D112428013901809134
:102E1000F15618E0819FC0011124E80FF91FE05A14
:102E2000FD4FB081A181C280D380E480F58006810E
:102E3000178153014201BB0C8808982C5401920160
:102E4000A301682D782D882D982DAB2EBA2E0E94C7
:102E5000A32F2083318342835383648375838683C6
:102E600097838091F1568F5F8093F1568091EF5652
:102E70009091F05601968093EF569093F056909172
:102E8000F15680911157981788F01092F156E09101
:102E90000140F091024080819181A281B38101962D
:102EA000A11DB11D80839183A283B3838091EF56CE
:102EB0009091F05693708093EF569093F0562A9627
:102EC000CDBFDEBFDF91CF91FF91EF91BF91AF9169
:102ED0009F918F917F916F915F914F913F912F9132
:102EE0001F910F91FF90EF90DF90CF90BF90AF9028
:102EF0009F908F907F906F905F904F903F902F901A
:102F00000F900BBE0F900FBE0F901F9018958091E1
:102F1000E74E9091E84E51CD1092CB571092CC577E
:102F200088EE93E0A0E0B0E08093CD579093CE5729
:102F3000A093CF57B093D05780ED90E48093C957BA
:102F40009093CA5780E698E08093D5579093D657D0
:102F500088EE9BE08093D7579093D85782E0809378
:102F6000D9571092DA571092DB5780E090E0A8EC26
:102F7000B2E48093095E90930A5EA0930B5EB093D7
:102F80000C5E10921C5E10921D5E80931F5E9093EB
:102F9000205EA093215EB093225E1092325E10926A
:102FA000335E8093355E9093365EA093375EB09328
:102FB000385E1092485E1092495EECE0FDE5818338
:102FC0009283A383B483148A75962EE5E830F207C2
:102FD000B1F788E998E52CE03DE5FC01E25AFF4FA6
:102FE0001082815A9F4F28173907B9F7E8E6F8E5AC
:102FF00024E130E092E081E02083318392831382E8
:103000001482158216821782108611868287138693
:10301000709648E5E839F40779F7109264581092F1
:1030200065581092665880E090E1809362589093C2
:10303000635880E091E080936058909361588EEFE0
:1030400090E08093505E9093515E8DE190E080938C
:103050004C5E90934D5E8DE090E080934A5E90933D
:103060004B5E84E890E08093525E9093535E8DEFC8
:1030700091E08093545E9093555E10924E5E109254
:103080004F5E84E890E09C01235E3F4FFC01FC5EB4
:1030900040814F3F09F461C080934E5E90934F5E34
:1030A0002D3F81E0380744F4F901FC5E80818F3FB9
:1030B00009F450C00E94400B8AE08093CE5E8BE002
:1030C0008093CF5E8CE08093D05E8DE08093D15E64
:1030D0001092D25E8BE28093565E82ED8093575EB3
:1030E0008CE18093585E81E08093595E89E1809302
:1030F0005A5E8AE999E9AAECB2E480935B5E909308
:103100005C5EA0935D5EB0935E5E80E090E0A8E4BC
:10311000B2E480935F5E9093605EA093615EB09333
:10312000625E8DEC9CECACE1B1E48093C35E909365
:10313000C45EA093C55EB093C65E1092C75E84E67F
:1031400090E08093C85E9093C95E1092CA5E109220
:10315000CB5E0895235E3F4FA3CFC9018D3F21E091
:10316000920709F090CFA8CFCF93DF93CDB7DEB70A
:10317000C854D109CDBFDEBF88ED21E030E084BF67
:103180002093620091E084BF909363009DE284BF2E
:103190009093800093E084BF9093600080E090E281
:1031A0002091650020FDADC221E02093030A8EEF3F
:1031B0008093260A8093270A9BE09093000A32E0CE
:1031C0003093E6052093430A8093660A8093670A4A
:1031D0009093400A9093E705E0E0FBE027E09EEF44
:1031E00085E021839487158680837096E0340BE018
:1031F000F007B9F72FEF3FE02093AA0B3093AB0B0A
:1032000090E89093820B1092810B2EEF30E0209388
:10321000AE0B3093AF0B98ED24E194BF2093680080
:1032200091E19093800B809302069EE090930506B7
:1032300090E690930306809300068091B000887F0B
:1032400085608093B0008091B200887F8560809314
:10325000B2008FED9EE280932C0B90932D0B81E0BA
:103260008093250B1092210B83E08093200B7894A0
:1032700084E08093410481E00E94E30E40E052EC40
:1032800061E070E089EC97E50E946C0B0E94530CA2
:1032900083E6282E8EE5382EF10140E050E060EA0A
:1032A00071E48DEC9CECACE4B0E4419351936193F8
:1032B000719384A795A7A6A7B7A71EE5E339F107E1
:1032C000A1F780E390E00E94CD0A8823E9F0CE01C7
:1032D00001960E94250629813A8137FD15C0A90172
:1032E0004D5F5F4FA6E5BEE587E090E0FC01F17021
:1032F000FC5E60816D93019684179507B8F38AE2AE
:1033000094E02430310511F489E194E00E94840BAB
:103310000E948C0E8091595E81110E9415118EE0E1
:103320008093050680910306809303061092B000F7
:1033300086E08093020681E080930006809100067B
:103340008093000687E08093080660E070E0CB0180
:1033500050E040E0E1E0E0930A0620910D0620FFF6
:10336000FCCF4A30510544F02091100630911106EF
:10337000620F731F811D911D4F5F5F4F4A3127E21E
:10338000520749F70E94222C20E030E44CE156E439
:103390000E94FC2D20E030EF4FE755E40E94FC2D09
:1033A0009B01AC0166E676E686E69FE30E94FC2D73
:1033B0006B017C018FE394E00E94200944E050E01F
:1033C000C701B6010E94350E40915B5E50915C5E74
:1033D00060915D5E70915E5E81E00E94D8064091D2
:1033E0005B5E50915C5E60915D5E70915E5E82E0BE
:1033F0000E94D80640915B5E50915C5E60915D5E7C
:1034000070915E5E83E00E94D806609049407090A3
:103410004A4080904B4090904C4069867A868B86DB
:103420009C86609162587091635890E080E00E94A1
:10343000222C2B013C010CE01DE520E0D101D096AF
:103440008D909D90AD90BC90D397F1016191719159
:10345000819191911F01F1E0F20FFF83D8012C932C
:1034600020E030E040E450E40E94832C29853A8536
:103470004B855C850E94832CA30192010E94FC2D48
:10348000F801618372838383948315828682978295
:10349000A086B186128613861486158616860B5E64
:1034A0001F4F2F812C3051F661E081E00E94F3091B
:1034B00062E082E00E94F30963E083E00E94F30986
:1034C00061E084E00E94F30962E085E00E94F30974
:1034D00063E086E00E94F30961E087E00E94F3095F
:1034E00062E088E00E94F30963E089E00E94F3094A
:1034F00061E08AE00E94F30962E08BE00E94F30938
:1035000063E08CE00E94F30982E3809346408AE006
:10351000809303406091C35E7091C45E8091C55EEC
:103520009091C65E0E94590AC0924940D0924A408A
:10353000E0924B40F0924C408091C75E809371586E
:10354000882309F4E4C089E0809316048091C85E62
:103550009091C95E809368589093695882E08093F7
:103560006A5881E08093725885E180930A5788E019
:1035700090E0809308579093095788EE91E08093EC
:103580000F579093105710920757909113572CE0B4
:103590003DE5A8E9B8E580E011E0FD01E25AFF4F02
:1035A0004081442309F445C0482F50E012966D91A4
:1035B0007C911397FA01EE0FFF1F4E0F5F1F475EBE
:1035C0005F4BFA0100810F3F81F4FB010489011177
:1035D0000CC08787148B0081E02FF0E0E75FFF4B82
:1035E0000081FA0100838F5F9F5F1496ED90FC903D
:1035F0001597E616F706E9F0482F50E0BA01660F76
:10360000771F460F571F475E5F4BFA0160816F3F80
:1036100081F4F701648961110CC08787148B608184
:10362000E62FF0E0E75FFF4B60818F5FFA01608378
:103630009F5FA15ABF4F2A173B0709F0AECF909367
:103640001357809307579091065728E938E561E0B2
:10365000F901E25AFF4F4081442319F1E82FF0E0CD
:10366000AF01440F551FE40FF51F8F01075E1F4B7D
:10367000F80140814F3FA9F4F90140815181FA01DD
:10368000748971110EC08787648B408150E0445F5C
:103690005F4BFA014081F80140838F5F21833283C1
:1036A0009F5F215A3F4FA217B30791F680930757A8
:1036B00090930657909164589923A9F08093675886
:1036C0002091184091E0980F9093075790E0FC01EB
:1036D000EE0FFF1FE80FF91FE75EFF4B20831092EC
:1036E000655810926658809107578093115710E0E3
:1036F00080911257181770F4812F0E94A4101F5F39
:10370000F7CF019709F04CCD83E00E945409109245
:1037100016041CCF1091115720E836E948E15BE40C
:10372000609105407091064080910740909108405B
:103730000E94832C20E030E044EF53E40E94FC2DF3
:103740000E94692E6959714081099109212F30E049
:1037500050E040E00E94662D2093025730930357BB
:1037600040930457509305571092145781E080936B
:10377000044095E19093050690910306909303060B
:103780001092B00090910857909302068093000623
:10379000909100069093000690910006926090939D
:1037A00000061092080690910C06916090930C060A
:1037B00080930A06789410924D5710924E571092AB
:1037C0004F57109250571092195710921A57109243
:1037D0001B5710921C5760E070E080E090E40E945C
:1037E000590AB2E02B2E312C89EC97E50E94800714
:1037F000892B09F4A1C089EC97E50E945E07D0905F
:103800000B578A3009F00CC5AD2DB0E0AF57B84A60
:103810001C92E0918157EF53EC3308F085C00E2ED7
:10382000000CFF0BEA5EF34E0C949A2FF720941CC9
:10383000941C941C941C941C941C941C941C941C08
:10384000941C941C941C941C941C941C941C941CF8
:10385000941C941C941C941C941C941C941C941CE8
:10386000941C941C941C941C941C941C941C941CD8
:10387000941C521C861C5A1D751D7C1D951D941C84
:10388000AD1F401DA41D4C1F541FAD1F941CC51F10
:10389000941CD31FFE1F941C941CC720B620CE205E
:1038A000941CD520F2E0DF123FC082E897E50E9429
:1038B000842A8430E1F08830E1F08930E1F48BE54E
:1038C0008093565E83EB9BE00E9420098091565EB8
:1038D0008B3299F08635A1F08B35A9F483E993E01A
:1038E0000E94100C8EEA9BE00E94840B1DC08BE2AC
:1038F000E7CF86E5E5CF80E0E3CF81EB91E0F0CF45
:1039000084E693E0EDCF90E080E0EACFA2E06A2E7B
:10391000D6100AC082E897E50E94842A019709F030
:10392000ACC081E08093CA5E80E4A1E8B7E51D9257
:103930008A95E9F710920B5780910E579091715824
:10394000992389F0882379F081E0809373580E944D
:10395000E7096093745870937558809376589093E4
:10396000775810920E5780910D5790918158992356
:1039700089F0882379F081E0809383580E94E709D9
:103980006093845870938558809386589093875895
:1039900010920D5780910C5790919158992389F06E
:1039A000882379F081E0809393580E94E70960931F
:1039B0009458709395588093965890939758109276
:1039C0000C5728E6E22E28E5F22E8701D12CC12CD7
:1039D000560194E0AA0CBB1C9A95E1F7F501E85951
:1039E000F74A4F018385D80119969C91992309F4D0
:1039F00036C4882309F433C40E94E709F4012485FE
:103A00003585468557853B014C01621A730A840A45
:103A1000950AB401A301D8018D919C91B0E0A0E07A
:103A200084179507A607B70708F019C4B1E0CB16AD
:103A300009F403C4E2E0CE1609F405C48091080439
:103A400086FB882780F9F501E859F74A1386D801E3
:103A50001A969C911A97981709F401C412969C9192
:103A60008111F7C3923009F0F7C3F801278130853F
:103A70002F5F3F4F27833087EFC31092CA5E54CF2A
:103A8000F2E07F2ED71050CF82E897E50E94842A7B
:103A9000019751F481E08093CB5E8091CB5E8823C7
:103AA00031F084EA9BE020CF1092CB5EF6CF89E91B
:103AB0009BE01ACF82E897E50E94812A6B017C0186
:103AC0000E94590AC092C35ED092C45EE092C55E65
:103AD000F092C65E8EE89BE00E94200942E050E032
:103AE000C701B6010E94350E1FCF8AE08C9382E891
:103AF00097E50E948E0B18CFE3E08E2ED81014CFDE
:103B000082E897E50E94812A0E94642E162F072FD3
:103B10006093464086E89BE00E942009812F902F09
:103B20000E94100C0E94810BFFCE82E897E50E9454
:103B3000842A8093575E8BE79BE00E942009809146
:103B4000575E0E943F0EF0CE60E270E081E897E59C
:103B50000E94AC2F009711F40C94CD298C010158D0
:103B600017457801C801992760E270E08E57984A9E
:103B70000E94AC2FCC24C394C00E009711F40C9477
:103B8000D4298C01015817456E2D81E00E94080F41
:103B90007C01602F8C2D0E94340F6F8B788F898F62
:103BA0009A8F6D2D81E0800F0E94340F6CA77DA746
:103BB0008EA79FA7E114F10409F08CC023EA33E239
:103BC00040E051E46F89788D898D9A8D0E94832C15
:103BD0004B015C0108E01EE578E9E72E78E5F72E59
:103BE0002091494030914A4040914B4050914C4087
:103BF000C501B4010E94832C2B013C0160916258E5
:103C00007091635890E080E00E94222C9B01AC01EF
:103C1000C301B2010E94FC2DD80111966D937D93D2
:103C20008D939C9314972AE037ED43E25EE316965A
:103C30006D917D918D919C9119970E941E2C8823E6
:103C400021F1F80115828AE097EDA3E2BEE38683B5
:103C50009783A087B18712861386148615861686E9
:103C6000D12C80911257D81680F4F701828193816C
:103C70000817190729F0848195810817190719F485
:103C80008D2D0E94A410D394ECCF0A5E1F4F2FE518
:103C9000E20EF11C3EE50A34130709F0A1CF6F884C
:103CA000788C898C9A8C60925B5E70925C5E80925C
:103CB0005D5E90925E5E83E79BE00E9420096091CA
:103CC0005B5E70915C5E80915D5E90915E5E42E0B5
:103CD00050E008CFCC24CA94CE0C6BE0762E7C1436
:103CE00008F497C0AC2CB12C25E1C29E80011124B0
:103CF000045F124A20E030E040E450E46F89788DA0
:103D0000898D9A8D0E94832C2091494030914A40A0
:103D100040914B4050914C400E94832C2B013C0120
:103D2000609162587091635890E080E00E94222C6C
:103D30009B01AC01C301B2010E94FC2DD801119678
:103D40006D937D938D939C93149716962D913D9131
:103D50004D915C9119976CA57DA58EA59FA50E949C
:103D60001E2C882309F455C0F80115826CA47DA48B
:103D70008EA49FA46682778280869186128613869F
:103D80001486158616868FE58A9D80018B9D100D01
:103D900011240856174AD801ED91FC9146815781AC
:103DA00060857185F801408F518F628F738F2091EC
:103DB0001157A0900F57B090105790904640C89E52
:103DC00060011124A501692DC6018655974A0E94FC
:103DD000610FD80112962D913C91139714968D91F5
:103DE0009C91159728173907A1F0ED91FC918681D8
:103DF0009781A085B185F80180AB91ABA2ABB3AB45
:103E000020911157A501692DC6018E53974A0E9432
:103E1000610FC701880F991F880F991F8C010E5AD7
:103E2000114A68016F88788C898C9A8CD8011D960C
:103E30006D927D928D929C925097035C1F4F6CA463
:103E40007DA48EA49FA4D8016D927D928D929C92A8
:103E500013978EE69BE00E942009C7010E94100C78
:103E60008FEF90E40E948E0BF6016585768587853D
:103E700090890E94330E86E69BE00E942009C701CC
:103E80000E94100C8FEF90E40E948E0BD8016D9170
:103E90007D918D919C911BCFB1E0DB1245CD0E94AD
:103EA000530C0E948C0E40CD60E270E081E897E5F3
:103EB0000E94AC2F009741F56D2D81E00E94080F04
:103EC0008C0101151105C9F101301105E9F16F8966
:103ED000788D898D9A8D0E94692E609368587093B1
:103EE000695882E080936A5881E0809372586F89A4
:103EF000788D898D9A8D0E94642E6093C85E709330
:103F0000C95E0E943B0C10CDFC01E158F7457F01D2
:103F10006E2F81E00E94080F8C016D2D81E08E0DC7
:103F20000E94080FBC01990F880B990B0E94242C4A
:103F30006F8B788F898F9A8FC4CF1092715810929F
:103F400016041092C75EC3CF81E08093715899E048
:103F5000909316048093C75EBACF82E897E50E94DB
:103F6000842A882379F099278034910514F08FE30F
:103F700090E08093585E8CE59BE00E942009809140
:103F8000585EDFCD81E090E0F4CF82E897E50E94B3
:103F9000842A8F7180935A5E81E59BE00E942009FC
:103FA00080915A5ECECDF1E0DF12BECC80E595E087
:103FB0000E94840B80E390E00E94CD0A882389F060
:103FC000CE0101960E94250689819A8197FD09C03C
:103FD00091958195910989839A83CE0101960E94DA
:103FE000180B82E295E00E94840B68EC70E080E0A0
:103FF00090E00E94B6090C94000096CC662463946D
:10400000D61092CC88E195E00E94840B80E390E08A
:104010000E94CD0A811127C019821A826FE4CE0155
:1040200001960E94F80A88248394912C89829A82AE
:1040300065E4CE0101960E94F80A29823A826DE475
:10404000CE0101960E94F80A03E010E009831A836A
:104050006FEFCE0101960E94F80A0F5F1F4F011506
:1040600022E0120799F74AE750E049835A8380E338
:1040700090E08B839C83CE0101960E94180B06E58D
:104080001EE587E090E0D8016D918D017C01BFEFC6
:10409000EB1AFB0A8D839E83CE0105960E94F80AD7
:1040A000C7018D37910579F790E080E00E94CD0A35
:1040B00081111AC080EF94E00E9420094AE060E07C
:1040C00072E080E090E00E94940B8AEC94E00E9401
:1040D000840B60E072E090E080E00E94D10B88ECFD
:1040E00094E00E9420090CC0CE0101960E94250692
:1040F0008B819C81019649F487E794E00E94840BB0
:104100000E94810B87EF94E0EFCB8AE694E00E9457
:1041100020096B817C8190E080E04AE00E94940B52
:1041200009811A8117FF03C01195019511090450E7
:1041300011098CE594E00E942009C8010E94100C2E
:1041400085E594E00E94200989819A8197FF04C047
:104150008AE494E00E9420090E94810BB80187E064
:1041600090E00E94D10B88E494E0BBCFF2E0DF1234
:10417000DBCB1092595E80918257813329F481E024
:104180008093595E0E9415110E944E0ECDCB66247D
:104190006394D610C9CB0E94530CC6CB772473947A
:1041A00083E49BE0D710C0CB9FCB88248394D810A6
:1041B000BBCB89E29BE00E94840B0E94400BEEEE99
:1041C000F8E51082118212821382E15AFF4F38E221
:1041D000A32E3BE5B32EAE16BF0699F710926B588F
:1041E00010926C5810926D5810926E589DCBBB2453
:1041F000B394DB1099CB0FE515E0F801F490FF20A4
:1042000061F0FAE0FF1203C08DE00E943A098F2DA1
:104210000E943A090F5F1F4FF0CF8DE595E064CB08
:10422000BFE3BD1508F488CBED2DF0E0EF57F84A59
:104230008083D394D0920B577FCB80910804881F42
:104240008827881F00CC8091A80483FB882780F9E9
:10425000FACB933009F409CCD8011A968C93BFEFAE
:10426000CB1ADB0A005F1F4FE3E0CE16D10409F042
:10427000AFCB80911457882309F4B6CA1092145713
:10428000609013576D86862D90E006E1609EF001E8
:104290001124E85FF14A26E1833098F43489311122
:1042A0000DC0289FD001299FB00D1124A85FB14AED
:1042B00050961D921D921D921C92539776960196D0
:1042C000EBCF1091125718AB812F90E02FE5129F82
:1042D000D0011124A651B74A25E18C30B8F51C96BF
:1042E0003C911C9731112EC0289FF001299FF00DA1
:1042F0001124E45FF24A108A118A128A138AFD019E
:10430000EC54F109108211821282138234961082C9
:1043100011821282138214821582168217821D92D4
:104320001C92119712961D921C92139714961D922F
:104330001D921D921C92179718961D921D921D9208
:104340001C921B970196A15ABF4FC7CFD701179652
:104350002D913C9118972115310589F013968D9177
:104360009D910D90BC91A02D820F931FA11DB11D99
:10437000F70183839483A583B68317821086F0E1C7
:10438000EF0EF11C08E9E01608E5F006F9F62090BA
:1043900047403090484008E01EE509871A8710E042
:1043A00000E06D84061508F0CAC0780183E0EE0CC9
:1043B000FF1C8A95E1F7E20CF31CF701E058FF4F70
:1043C0002081318142815381648175818681978109
:1043D000D1014D905D906D907C900E94992E4B0183
:1043E0005C01C301B2010E94222C9B01AC01C501FA
:1043F000B4010E94FC2DB6E1B09F9001B19F300D39
:104400001124F901E85FF14AEF83F887608B718B23
:10441000828B938BF7012085318542855385648596
:10442000758586859785D1014D905D906D907C90C6
:10443000139780848F8691849AA6A284AB8EB384CE
:10444000BF8EC484CBA2D584DFA2868488A697843D
:1044500099A6CD90DD90ED90FC90AF81B8855096F7
:104460008D909D90AD90BC9053978B8A9C8AAD8A1D
:10447000BE8A0E94952E4B015C01C301B2010E94CD
:10448000222C9B01AC01C501B4010E94FC2D4B0103
:104490005C012F853AA54B8D5F8D6BA17FA188A50F
:1044A00099A50E94952E9B01AC01C501B4010E9403
:1044B000832C4B015C01C701B6010E94222C9B0199
:1044C000AC01C501B4010E94FC2D9B01AC016B89BC
:1044D0007C898D899E890E94972DEF81F885608B5C
:1044E000718B828B938B60897189828993890E94F9
:1044F000422FAF81B88550966D937D938D939C9399
:10450000539750966D917D918D919C915397E9852C
:10451000FA8521813281438154810E94832CAF81AD
:10452000B88550966D937D938D939C9353970F5FB1
:104530001F4FE985FA857696E987FA8732CFD10150
:1045400014966D917D918D919C9117974D905D90F2
:104550006D907C9010911157C0900F57D0901057CC
:104560000E94222C20E836E948E15BE40E94832C7B
:104570004B015C01A12FB0E0A30192010E94562DD6
:104580009B01AC01F12CE12CC701B6010E948B2FDD
:104590000E94222C9B01AC01C501B4010E94FC2D9C
:1045A0006093155770931657809317579093185729
:1045B0000AEE18E50D871E8708E918E50F831887AE
:1045C0001AA62696CFAE26972796DFAE279728966F
:1045D000EFAE28972996FFAE299718A96AA4161559
:1045E00009F4ADC3AF81B8850D90BC91A02DA9870A
:1045F000BA871F968C91B8E08B9F80011124020D21
:10460000131DF801E058FF4F208131814281538111
:104610006481758186819781F10180809180A2807B
:10462000B3800E94992E6B017C01C501B4010E94E8
:10463000222C9B01AC01C701B6010E94FC2DA9856B
:10464000BA8550966D937D938D939C935397F80103
:104650002085318542855385648575858685978556
:10466000D1014D905D906D907C90139780848F86E2
:1046700091849B8EA284AF8EB384BBA2C484CFA24C
:10468000D584D8A6E684E9A6F784FBA6CD90DD9074
:10469000ED90FC90A985BA8550968D909D90AD9037
:1046A000BC9053978B8A9C8AAD8ABE8A0E94952EB5
:1046B0004B015C01C301B2010E94222C9B01AC01A1
:1046C000C501B4010E94FC2D4B015C012F853B8D7F
:1046D0004F8D5BA16FA178A589A59BA50E94952E02
:1046E0009B01AC01C501B4010E94832C4B015C010C
:1046F000C701B6010E94222C9B01AC01C501B40187
:104700000E94FC2D9B01AC016B897C898D899E895F
:104710000E94972DE985FA85608B718B828B938B34
:1047200060897189828993890E94422FA985BA85FF
:1047300050966D937D938D939C93539750966D9166
:104740007D918D919C91539711966D907D908D9058
:104750009C9014976B8E7C8E8D8E9E8EA4019301FF
:104760000E94832CE985FA85608B718B828B938BF9
:10477000F801E850FF4F20813181428153816481EB
:10478000758186819781E858FF4F60806F8E7180B8
:104790007BA282808FA2938098A6A480A9A6B580D0
:1047A000BBA6C680C9AAD780DAAAD1018D909D90F8
:1047B000AD90BC90F801F085FBABD8011996BC9187
:1047C000BCABF801F285FDABD8011B96BC91BEAB2A
:1047D000F801F485FFABD8011D96BC91B8AFF80184
:1047E000F685F9AFD8011F96BC91BAAFF1014080B0
:1047F000518062807380AF81B88512960D90BC9114
:10480000A02DAB8BBC8B1F96EC91F0E03196B3E002
:10481000EE0FFF1FBA95E1F7E20DF31DC080CBAE9E
:10482000D180DCAEE280EDAEF380FEAEC480CFAED0
:10483000D5802196DFAE2197E6802296EFAE2297B3
:10484000F7802396FFAE2397D101CD90DD90ED90B8
:10485000FC90CF86D88AE98AFA8A0E94952EEF8149
:10486000F88522A133A144A155A10E94832C6B019C
:104870007C012F8D3BA14FA158A569A57BA589A9D6
:104880009AA90E94952EAF81B88596962D913D915B
:104890004D915C9199970E94832C9B01AC01C701BB
:1048A000B6010E94982D6B017C01C501B401CAD7E5
:1048B0009B01AC01C701B6010E94FC2D6B017C017C
:1048C0002BA93CA94DA95EA96FA978AD89AD9AAD78
:1048D0000E94952E4B015C01C301B201B3D79B012D
:1048E000AC01C501B4010E94FC2D4B015C012BAD54
:1048F0003CAD4DAD5EAD6FAD21967FAD219722965B
:104900008FAD229723969FAD23970E94952E9B01F2
:10491000AC01C501B401F7D74B015C016F85788903
:1049200089899A898FD79B01AC01C501B4010E9486
:10493000FC2D9B01AC01C701B6010E94972D6B01B4
:104940007C01EB89FC8921813281438154816B8D0B
:104950007C8D8D8D9E8DD7D7A7019601D4D76F8F73
:1049600078A389A39AA3AF81B88514960D90BC91C2
:10497000A02DAF87B88B6B887C8820E030E0A90140
:104980006A167B0609F4F9C0F801E851FE4F708001
:104990007FA2818088A6928099A6A380ABA6B480CE
:1049A000B9AAC580CAAAD680DBAAE780ECAAE858D3
:1049B000FF4F2081318142815381648175818681DD
:1049C0009781D1018D909D90AD90BC90F801F085BC
:1049D000FDABD8011996BC91BEABF801F285FFABD7
:1049E000D8011B96BC91B8AFF801F485F9AFD80196
:1049F0001D96BC91BAAFF801F685FBAFD8011F96A2
:104A0000BC91BCAFF1014080518062807380AF8562
:104A1000B8891F96EC91F0E03196A3E0EE0FFF1FEE
:104A2000AA95E1F7E20DF31DC080CDAED180DEAED8
:104A3000E280EFAEF3802196FFAE219704812296AB
:104A40000FAF2297158123961FAF2397C680249618
:104A5000CFAE2497D7802596DFAE2597D101ED9074
:104A6000FD900D911C91EBA2FCA20DA31EA30E9430
:104A7000952EEF81F885FE96208131814281538108
:104A800042D76B017C012FA138A549A55BA569A977
:104A90007AA98BA99CA90E94952EEF81F88522AD59
:104AA00033AD44AD55AD2FD79B01AC01C701B60165
:104AB0000E94982D6B017C01C501B401C3D69B01F6
:104AC000AC01C701B6010E94FC2D6B017C012DA930
:104AD0003EA94FA958AD69AD7AAD8BAD9CAD0E9492
:104AE000952E4B015C01C301B201ACD69B01AC0118
:104AF000C501B4010E94FC2D4B015C012DAD3EAD02
:104B00004FAD21965FAD219722966FAD22972396E8
:104B10007FAD239724968FAD249725969FAD25973B
:104B20000E94952E9B01AC01C501B401ECD64B014E
:104B30005C016BA17CA18DA19EA184D69B01AC01DF
:104B4000C501B4010E94FC2D9B01AC01C701B60157
:104B5000EED76B017C01AF85B88911962D913D91FF
:104B60004D915C9114976B8D7C8D8D8D9E8DCBD6E8
:104B7000A7019601C8D69B01AC016F8D78A189A1D0
:104B80009AA1D5D74B015C016B887C88CF84D888EB
:104B900020E030E0A9016C147D0439F4D301509673
:104BA0002D913D914D915C915397E985FA856089EE
:104BB000718982899389A7D62B013C01AC019B01A5
:104BC000C501B4010E94FC2D6B017C0126E636E68E
:104BD00046E85FE30E943A2F18160CF4A9C026E6B7
:104BE00036E646E85FEBC701B60128D687FDA0C0D0
:104BF000A7019601C701B6010E94802F811198C0BC
:104C0000AD85BE851896CD92DD92ED92FC921B97F4
:104C100020E030E040E05FE3C501B40189D70E94A5
:104C2000642EAD85BE856D937C9320E030E040E03E
:104C30005FE3C301B2017CD70E94642EED85FE853F
:104C400062837383D1016D917D918D919C911091BF
:104C50001157F8D5A501940156D66B017C01269613
:104C60006FAD269727967FAD279728968FAD28970B
:104C700029969FAD2997E6D59B01AC01C701B601E6
:104C800042D66B017C01612F70E090E080E0DCD5C2
:104C90009B01AC01C701B60136D620E836E948E1F0
:104CA0005BE4AAD7EF81F88526813781408551855D
:104CB0003FD76B017C0120E030E041E655E49CD712
:104CC0000E94642E072E000C880B990BAD85BE85C3
:104CD00014960D911D912D913C911797060F171F5A
:104CE000281F391FFD010483158326833783ACD524
:104CF00020E030E041E655E406D69B01AC01C70157
:104D0000B60115D7AF81B88516966D937D938D93B7
:104D10009C9319970AA50F5F0AA7A15ABF4FAF83AB
:104D2000B8870D851E85015A1F4F0D871E8755CCEC
:104D3000ED85FE85108611861286138669CF8091D7
:104D40006458882309F44AC0E0916758F0E031962E
:104D500023E0EE0FFF1F2A95E1F7E20DF31D2081FE
:104D60003181428153816481758186819781D1012E
:104D70008D909D90AD90BC90D8D76B017C01C50102
:104D8000B40160D59B01AC01C701B60135D76B01F9
:104D90007C0160916258709163587695679590E0B8
:104DA00080E050D59B01AC01C701B601C1D620E01F
:104DB00030E040E05FE3BCD68CD7609365587093D9
:104DC0006658C10188529D4F8215930561F0F1012B
:104DD000108281010F5F1F4F1801F6CF10926558A6
:104DE00010926658EECF80914D5790914E57A091FA
:104DF0004F57B0915057892B8A2B8B2B99F480E019
:104E00000E94E30E65E070E080E090E00E94B60949
:104E10006091C35E7091C45E8091C55E9091C65EE4
:104E20000E94590A80914D5790914E57A0914F572B
:104E3000B09150570196A11DB11D80934D5790938D
:104E40004E57A0934F57B09350576091185E709192
:104E5000195E80911A5E90911B5E20E030E048EC74
:104E600052E451D531D760935157709352576091A6
:104E70002E5E70912F5E8091305E9091315E20E0C9
:104E800030E048EC52E43FD51FD7609353577093FE
:104E900054576091445E7091455E8091465E90915A
:104EA000475E20E030E048EC52E42DD50DD760930A
:104EB00055577093565781E00E943B0A809357578D
:104EC0009093585782E00E943B0A809359579093E1
:104ED0005A5783E00E943B0A80935B5790935C573C
:104EE00084E00E943B0A80935D5790935E5785E073
:104EF0000E943B0A80935F579093605786E00E9420
:104F00003B0A809361579093625781E00E941C0A8C
:104F10006093635770936457809365579093665777
:104F200082E00E941C0A60936757709368578093D1
:104F3000695790936A5783E00E941C0A60936B57ED
:104F400070936C5780936D5790936E5784E00E94D6
:104F50001C0A60936F5770937057809371579093AA
:104F6000725785E00E941C0A6093735770937457C0
:104F7000809375579093765786E00E941C0A609341
:104F80007757709378578093795790937A57809199
:104F90006B5890916C58A0916D58B0916E58809359
:104FA0007B5790937C57A0937D57B0937E57809109
:104FB00065589091665880937F5790938057809161
:104FC000595E882359F06091585E6093CC5E89E306
:104FD0000E9466068DE497E50E94D60C80911957D1
:104FE00090911A57A0911B57B0911C570196A11D83
:104FF000B11D8093195790931A57A0931B57B093E4
:105000001C5760912E5E70912F5E8091305E909162
:10501000315E20E030E048EC52E475D455D6609320
:105020001D5770931E576091445E7091455E80914C
:10503000465E9091475E20E030E048EC52E463D455
:1050400043D660931F577093205787E00E943B0A16
:10505000809321579093225788E00E943B0A8093C7
:1050600023579093245789E00E943B0A8093255749
:10507000909326578AE00E943B0A8093275790938B
:1050800028578BE00E943B0A8093295790932A5718
:105090008CE00E943B0A80932B5790932C5787E01B
:1050A0000E941C0A60932D5770932E5780932F57A0
:1050B0009093305788E00E941C0A60933157709398
:1050C0003257809333579093345789E00E941C0ADB
:1050D000609335577093365780933757909338576E
:1050E0008AE00E941C0A6093395770933A57809364
:1050F0003B5790933C578BE00E941C0A60933D57AE
:1051000070933E5780933F57909340578CE00E9496
:105110001C0A609341577093425780934357909372
:10512000445780917B5890917C58A0917D58B091C4
:105130007E588093455790934657A0934757B09316
:10514000485780918B5890918C58A0918D58B09170
:105150008E588093495790934A57A0934B57B093DA
:105160004C5768E770E080E090E00E94B6098091BB
:10517000595E882361F06091585E6F5F6093CC5EEA
:1051800089E30E94660689E197E50E94D60C64E6F1
:1051900070E080E090E00E94B6098091CB5E8823A9
:1051A00009F480C08EED9BE00E94200960914D576C
:1051B00070914E5780914F57909150574AE00E94FE
:1051C000940B87ED9BE00E9420096091185E70911E
:1051D000195E80911A5E90911B5E0E94330E80EDE5
:1051E0009BE00E94200960912E5E70912F5E80915D
:1051F000305E9091315E0E94330E89EC9BE00E94FC
:1052000020096091445E7091455E8091465E909168
:10521000475E0E94330E83EC9BE00E942009609160
:1052200015577091165780911757909118570E94F3
:10523000330EC12CD12C7601C3948FEB9BE00E94DE
:1052400020094AE0C701B6010E94940B84E191E471
:105250000E948E0B8C2D0E943B0A0E94100C1FEFA7
:10526000C11AD10AE10AF10A2DE0C216D104E10403
:10527000F10419F78DEB9BE00E94840B81E00E9402
:10528000E30E62E370E080E090E00E94B60980E007
:105290000E94E30E68EC70E080E090E00E94B609A6
:1052A0000C94F11B87E191E40E948E0B60914D57A5
:1052B00070914E5780914F57909150574AE00E94FD
:1052C000940B8CE191E40E948E0B8EE191E40E949C
:1052D0008E0B6091185E7091195E80911A5E9091AC
:1052E0001B5E0E94330E8CE191E40E948E0B82E2E1
:1052F00091E40E948E0B60912E5E70912F5E8091E2
:10530000305E9091315E0E94330E8CE191E40E94F8
:105310008E0B86E291E40E948E0B6091445E709148
:10532000455E8091465E9091475E0E94330E8CE10F
:1053300091E40E948E0B8AE291E40E948E0B6091B0
:1053400015577091165780911757909118570E94D2
:10535000330EC12CD12C7601C3948DE291E40E94CE
:105360008E0B4AE0C701B6010E94940B85E191E4DF
:105370000E948E0B8C2D0E943B0A0E94100C3FEF66
:10538000C31AD30AE30AF30A4DE0C416D104E104B8
:10539000F10419F70E94810B71CF6D2D81E00E94FD
:1053A000080F7C010C94DA1D602F81E00E94080F29
:1053B0007C016D2D8C2D0E94340F6F8B788F898F1F
:1053C0009A8F0C94DA1D8F929F92AF92BF92CF92D8
:1053D000DF92EF92FF92CF93DF93EC0168817981A6
:1053E0008A819B81611571058105910521F464E233
:1053F00079ED8BE597E02DE133EF41E050E03AD3D2
:1054000049015A019B01AC01A7EAB1E44FD36B01FA
:105410007C01ACEEB4EFA501940154D3C60ED71EA7
:10542000E81EF91EF7FE06C081E0C81AD108E1089F
:1054300080E8F80AC882D982EA82FB82C701B601F5
:105440009F77DF91CF91FF90EF90DF90CF90BF904B
:10545000AF909F908F9008958F929F92AF92BF923E
:10546000CF92DF92EF92FF9260914D4070914E404B
:1054700080914F40909150406115710581059105D3
:1054800021F464E279ED8BE597E02DE133EF41E023
:1054900050E0F0D249015A019B01AC01A7EAB1E406
:1054A00005D36B017C01ACEEB4EFA50194010AD3E6
:1054B000C60ED71EE81EF91EF7FE06C081E0C81A08
:1054C000D108E10880E8F80AC0924D40D0924E40E1
:1054D000E0924F40F0925040C701B6019F77FF9095
:1054E000EF90DF90CF90BF90AF909F908F900895F6
:1054F00060934D4070934E4080934F409093504046
:1055000008956627772725C0FC0188279927E89406
:1055100021912032E9F3293010F02E30C8F32B32DC
:1055200039F02D3231F4689403C00BD0820F911DF5
:10553000219120532A30C8F31EF4909581959F4FF6
:1055400008957AE0979F902D879F802D910D1124CB
:1055500008958F929F92AF92BF92CF92DF92EF9277
:10556000FF920F931F93CF93DF935C017B01611533
:10557000710519F0DB018D939C9385010F5F1F4F1F
:10558000F501D0818D2F90E039D16C01892BA9F5DF
:10559000DD32A9F50F5F1F4FD5011196DC91C1E0F7
:1055A0005801F1E0AF1AB10843E050E06CEF72E04F
:1055B000C5012CD1892B61F5680182E0C80ED11C90
:1055C00045E050E067EF72E0C60120D1892B21F45D
:1055D000680197E0C90ED11CE114F10419F0D7015C
:1055E000CD92DC9260E070E080E89FEFC111F9C0DD
:1055F00060E070E080E89FE7F4C05801BECFDB3286
:1056000029F485010E5F1F4FF501D181C0E0C8CF9D
:1056100043E050E064EF72E0C501F8D0892BE9F077
:10562000F80110E000E020E030E0A9015F01B0EDFA
:105630008B2E8D0E89E08815C0F19C2E689491F810
:105640008C2F8870C2FF16C0811102C00F5F1F4FE0
:105650003196D501DC91C92DE9CFE114F10429F08F
:105660000E5F1F4FF7010083118360E070E080EC54
:105670009FE7B7C0882311F001501109A5E0B0E001
:1056800015D29B01AC01220F331F441F551F280D5B
:10569000311D411D511D283999E93907490799E103
:1056A0005907B0F2C6609C2ED3CFAEEF8A1206C067
:1056B000C3FD3CC09C2E689493F8CACFDF7DD534DF
:1056C000A9F580818D3239F4C061DF0112968181A4
:1056D00062E070E006C0DF018B32C1F3119661E039
:1056E00070E080535D01A61AB70A8A30F8F4E0E84A
:1056F000CE16ECE0DE065CF4B601660F771F660F8F
:10570000771FC60ED71ECC0CDD1CC80ED11C5D0148
:10571000FFEFAF1ABF0A8C9180538A3098F1C4FF13
:1057200003C0D194C194D1080C0D1D1DC1FF09C047
:10573000E114F10431F081E0A81AB108D701AD926B
:10574000BC92CA01B9017ED0C370C33009F490582D
:105750004B015C0120E030E0A90170D0882309F4FE
:105760003EC0CBE2D3E017FF05C0119501951109AA
:10577000C3E1D3E06E01B8E1CB1AD10880E2E82E94
:10578000F12C0EC0D501B3CFFE0125913591459185
:1057900054910E191F09C501B401B5D04B015C012C
:1057A000D501C4010E151F057CF72497F594E794E5
:1057B000CC16DD06A9F78A2F880F8B2F881F8F3F05
:1057C00041F020E030E0A901C501B40137D08111DA
:1057D00006C082E290E08093D35E9093D45EC501D0
:1057E000B401DF91CF911F910F91FF90EF90DF9067
:1057F000CF90BF90AF909F908F9008959111E6C089
:10580000803219F089508550D0F70895FB01DC01F2
:105810004150504088F08D9181341CF08B350CF450
:10582000805E659161341CF06B350CF4605E861B04
:10583000611171F3990B0895881BFCCF40D008F4D7
:1058400081E00895E89409C097FB3EF49095809517
:10585000709561957F4F8F4F9F4F9923A9F0F92F36
:1058600096E9BB279395F695879577956795B795B4
:10587000F111F8CFFAF4BB0F11F460FF1BC06F5F9A
:105880007F4F8F4F9F4F16C0882311F096E911C0AC
:10589000772321F09EE8872F762F05C0662371F0CD
:1058A00096E8862F70E060E02AF09A95660F771FE1
:1058B000881FDAF7880F9695879597F90895990FBD
:1058C0000008550FAA0BE0E8FEEF16161706E807CA
:1058D000F907C0F012161306E407F50798F0621BEB
:1058E000730B840B950B39F40A2661F0232B242BC0
:1058F000252B21F408950A2609F4A140A6958FEFDF
:10590000811D811D08950BD07BC06CD028F071D013
:1059100018F0952309F05DC062C01124A5C081D0A4
:10592000A0F3959FD1F3950F50E0551F629FF001B2
:10593000729FBB27F00DB11D639FAA27F00DB11D0B
:10594000AA1F649F6627B00DA11D661F829F222794
:10595000B00DA11D621F739FB00DA11D621F839F1B
:10596000A00D611D221F749F3327A00D611D231FF1
:10597000849F600D211D822F762F6A2F11249F573F
:1059800050408AF0E1F088234AF0EE0FFF1FBB1F62
:10599000661F771F881F91505040A9F79E3F510501
:1059A00070F017C061C05F3FECF3983EDCF3869562
:1059B00077956795B795F795E7959F5FC1F7FE2BAC
:1059C000880F911D9695879597F9089599278827AF
:1059D000089597F99F6780E870E060E008959FEF71
:1059E00080EC089500240A94161617061806090676
:1059F000089500240A941216130614060506089545
:105A0000092E0394000C11F4882352F0BB0F40F4CC
:105A1000BF2B11F460FF04C06F5F7F4F8F4F9F4F0C
:105A2000089557FD9058440F551F59F05F3F71F08E
:105A30004795880F97FB991F61F09F3F79F08795F5
:105A40000895121613061406551FF2CF4695F1DF7E
:105A500008C0161617061806991FF1CF869571050E
:105A6000610508940895E894BB2766277727CB0142
:105A700097F90895052E97FB16F400940FD057FD63
:105A800005D024D007FC02D046F408C050954095BC
:105A9000309521953F4F4F4F5F4F089590958095DA
:105AA000709561957F4F8F4F9F4F089531D0A59F7F
:105AB000900DB49F900DA49F800D911D1124089509
:105AC000B7FFF4CFF3DF821B930B0895A1E21A2EE8
:105AD000AA1BBB1BFD010DC0AA1FBB1FEE1FFF1F92
:105AE000A217B307E407F50720F0A21BB30BE40BE2
:105AF000F50B661F771F881F991F1A9469F7609529
:105B00007095809590959B01AC01BD01CF010895E2
:105B1000A29FB001B39FC001A39F700D811D1124EE
:105B2000911DB29F700D811D1124911D0895505833
:105B3000BB27AA270ED064CF55DF30F05ADF20F004
:105B400031F49F3F11F41EF44ACF0EF4E095E7FBC9
:105B500040CFE92F66DF80F3BA1762077307840727
:105B6000950718F071F49EF57ECF0EF4E0950B2E9C
:105B7000BA2FA02D0B01B90190010C01CA01A0019F
:105B80001124FF27591B99F0593F50F4503E68F1FA
:105B90001A16F040A22F232F342F4427585FF3CF3B
:105BA000469537952795A795F0405395C9F77EF40C
:105BB0001F16BA0B620B730B840BBAF09150A1F055
:105BC000FF0FBB1F661F771F881FC2F70EC0BA0FDB
:105BD000621F731F841F48F4879577956795B79563
:105BE000F7959E3F08F0B3CF9395880F08F099275B
:105BF000EE0F9795879508950CD002CFFADE40F00E
:105C0000F1DE30F021F45F3F19F0E3CE51112CCFDB
:105C1000E6CE07DF98F39923C9F35523B1F3951B1B
:105C2000550BBB27AA2762177307840738F09F5FBD
:105C30005F4F220F331F441FAA1FA9F333D00E2E2C
:105C40003AF0E0E830D091505040E695001CCAF799
:105C500029D0FE2F27D0660F771F881FBB1F26175E
:105C600037074807AB07B0E809F0BB0B802DBF0131
:105C7000FF2793585F4F2AF09E3F510568F0A9CE49
:105C8000F3CE5F3FECF3983EDCF38695779567950E
:105C9000B795F7959F5FC9F7880F911D96958795E2
:105CA00097F90895E1E0660F771F881FBB1F621701
:105CB00073078407BA0720F0621B730B840BBA0BBF
:105CC000EE1F88F7E095089504D06894B111CCCE0A
:105CD0000895AFDE88F09F5790F0B92F9927B751FC
