:100200000DC5000035C5000033C500000C947912FF
:100210002FC500002DC500002BC5000029C500001A
:100220000C94BB1225C5000023C5000021C50000A9
:100230001FC500001DC500001BC5000019C500003A
:1002400017C5000015C5000013C5000011C500004A
:100250000FC500000DC500000BC5000009C500005A
:1002600007C5000005C500000C94D71201C50000A9
:10027000FFC40000FDC40000FBC400000C94811208
:10028000F7C40000F5C40000F3C400000C94A912E8
:10029000EFC40000EDC40000EBC40000E9C400009E
:1002A000E7C40000E5C40000E3C40000E1C40000AE
:1002B000DFC40000DDC40000DBC40000D9C40000BE
:1002C000D7C40000D5C40000D3C40000D1C40000CE
:1002D000CFC400000C940B120C9406120C94101254
:1002E000C7C40000C5C40000C3C40000C1C40000EE
:1002F000BFC400004E414E494E495459494E46CD67
:10030000CCCC3D0AD7233C17B7D13877CC2B3295CC
:1003100095E6241FB14F0A000020410000C84200AA
:10032000401C4620BCBE4CCA1B0E5AAEC59D747004
:100330006861736500766F6C74616765203D2000AD
:10034000656D6F6E547834006861726477617265B0
:10035000203D200076657273696F6E203D20006637
:1003600069726D77617265203D20656D6F6E5F44C7
:10037000425F364354006A736F6E203D206F66669D
:10038000006A736F6E203D206F6E00646174616C53
:100390006F67203D20002C20694C65616400694333
:1003A000616C007643616C203D20004C6F77506F8C
:1003B0007765724C616273002C207266466F726DB5
:1003C0006174203D20002C207266506F776572208A
:1003D0003D20002C2072664E6F6465203D20002079
:1003E0004D487A2C20726647726F7570203D200050
:1003F0005246203D206F6E2C20726642616E642052
:100400003D20005246203D206F6666006D73002C33
:100410002070756C7365506572696F64203D2000B3
:100420006F66660070756C7365203D20004E6F200E
:10043000454550524F4D20636F6E666967004C6FA3
:100440006164656420454550524F4D20636F6E6670
:100450006967007672656661203D20000A002028E9
:1004600068696464656E292E002062797465730082
:100470002C20446174612073697A653A200020530E
:1004800069676E61747572653A20004E6F20646111
:10049000746120626C6F636B20666F756E64202DD3
:1004A00020454550524F4D20617070656172732038
:1004B000746F20626520666F726D6174746564206C
:1004C000746F204F454D205374616E6461726420D7
:1004D00062757420756E757365642E000A00206263
:1004E000797465732C206E6F7420666F726D617401
:1004F00074656420746F204F454D205374616E64A1
:100500006172640053697A653A2000446F6E652E0B
:10051000204E657720636F6E66696720736176652C
:100520006420746F20454550524F4D0053617669E9
:100530006E672E2E2E00536B657463682077696C8E
:100540006C206E6F7720726573746172742075739E
:10055000696E672064656661756C7420636F6E6692
:1005600069672E00526573657474696E672E2E2E4E
:100570000020000A417661696C61626C6520636FDE
:100580006D6D616E64733A0A6C09092D206C697394
:1005900074207468652073657474696E67730A7279
:1005A00009092D20726573746F726520736B657411
:1005B00063682064656661756C74730A7309092D3C
:1005C00020736176652073657474696E6773207437
:1005D0006F20454550524F4D0A7609092D2073680A
:1005E0006F77206669726D776172652076657273C8
:1005F000696F6E0A7A09092D207A65726F20656E1F
:10060000657267792076616C7565730A7809092DC2
:1006100020657869742C206C6F636B20616E642098
:10062000636F6E74696E75650A3F09092D207368E2
:100630006F772074686973207465787420616761CE
:10064000696E0A0A773C783E09092D207475726E2E
:100650002052464D20576972656C65737320646142
:100660007461206F66663A2078203D2030206F72DA
:10067000206F6E3A2078203D20310A623C6E3E09A0
:10068000092D2073657420722E662E2062616E64BF
:10069000206E203D20612073696E676C65206E7549
:1006A0006D6572616C3A2034203D203433334D48FF
:1006B0007A2C2038203D203836384D487A2C203985
:1006C000203D203931354D487A20286D61792072DE
:1006D0006571756972652068617264776172652001
:1006E0006368616E6765290A703C6E6E3E09092D6C
:1006F000207365742074686520722E662E20706FDA
:100700007765722E206E6E202D20616E20696E74CA
:10071000656765722030202D20333120726570723C
:100720006573656E74696E67202D31382064426D83
:1007300020746F202B31332064426D2E2044656677
:1007400061756C743A20323520282B372064426D55
:10075000290A673C6E6E6E3E092D20736574204E2B
:100760006574776F726B2047726F757020206E6EA4
:100770006E202D20616E20696E7465676572202879
:100780004F454D2064656661756C74203D203231A3
:1007900030290A6E3C6E6E3E09092D207365742067
:1007A0006E6F6465204944206E3D20616E20696E45
:1007B000746567657220287374616E646172642069
:1007C0006E6F6465206964732061726520312E2E1E
:1007D0003630290A0A643C78782E783E092D207834
:1007E000782E78203D206120666C6F6174696E6799
:1007F00020706F696E74206E756D62657220666F11
:10080000722074686520646174616C6F6767696EDB
:100810006720706572696F640A633C6E3E09092D3A
:10082000206E203D203020666F72204F46462C20DF
:100830006E203D203120666F72204F4E2C20656E59
:1008400061626C6520766F6C746167652C206375DE
:100850007272656E74202620706F776572206661F3
:1008600063746F722076616C75657320746F20738A
:10087000657269616C206F757470757420666F7233
:100880002063616C6962726174696F6E2E200A6AFE
:100890003C6E3E09092D207475726E204A534F4EEE
:1008A0002053657269616C20666F726D6174206F90
:1008B0006E20283129206F72206F6666202830292B
:1008C0002E0A663C78783E09092D207878203D2054
:1008D000746865206C696E65206672657175656EF9
:1008E000637920696E20487A3A206E6F726D616C70
:1008F0006C7920656974686572203530206F7220CC
:1009000036300A6B3C783E203C79792E793E203C8B
:100910007A7A2E7A3E0A09092D2043616C69627247
:1009200061746520616E20616E616C6F6775652012
:10093000696E707574206368616E6E656C3A0A0941
:1009400009202078203D20612073696E676C652046
:100950006E756D6572616C3A2030203D20766F6C4B
:10096000746167652063616C6962726174696F6E3E
:100970002C2031203D206374312063616C696272E8
:100980006174696F6E2C2032203D206374322063C5
:10099000616C6962726174696F6E2C206574630AA0
:1009A0000909202079792E79203D206120666C6F1D
:1009B0006174696E6720706F696E74206E756D6208
:1009C000657220666F722074686520766F6C746142
:1009D00067652F63757272656E742063616C6962FE
:1009E000726174696F6E20636F6E7374616E740AE6
:1009F000090920207A7A2E7A203D206120666C6FCA
:100A00006174696E6720706F696E74206E756D62B7
:100A1000657220666F722074686520706861736506
:100A20002063616C6962726174696F6E20666F72B7
:100A3000207468697320632E742E20287A206973CD
:100A4000206E6F74206E65656465642C206F722063
:100A500069676E6F72656420696620737570706C6B
:100A60006965642C207768656E2078203D203029E8
:100A70000A09092020652E672E206B30203235367A
:100A80002E380A0909202020202020206B3120390F
:100A9000302E3920322E30300A6D3C783E203C79A1
:100AA000793E092D206D657465722070756C7365D3
:100AB00020636F756E74696E673A0A0909202020F9
:100AC00078203D203020666F72204F46462C2078DB
:100AD000203D203120666F72204F4E2C203C7979CA
:100AE0003E203D20616E20696E74656765722066E8
:100AF0006F72207468652070756C7365206D696E07
:100B0000696D756D20706572696F6420696E206D06
:100B1000732E202879206973206E6F74206E6565AE
:100B20006465642C206F722069676E6F7265642043
:100B30007768656E2078203D2030290A00456E6573
:100B40007267792076616C756573207365742074A3
:100B50006F207A65726F00436F6E74696E75696E8F
:100B6000672E2E2E007266506F776572203D200032
:100B700072664E6F6465203D20002C20694C6561D3
:100B800064006943616C007643616C203D20007213
:100B90006647726F7570203D200066726571203D5A
:100BA0002000646174616C6F67203D20006A736F80
:100BB0006E203D206F6666006A736F6E203D206F69
:100BC0006E00204D487A00726642616E64203D20BE
:100BD000002C7066002C49002C70756C73653A000F
:100BE0002C45002C50002C56004D53473A007D00F8
:100BF0002C2270756C7365223A002C2245002C2241
:100C000050002C2256007B224D5347223A000A0006
:100C100000080A400CFFC000C000291711241FBEA5
:100C2000CFEFCDBFDFE7DEBF11E4A0E0B0E4ECED35
:100C3000F5E600E00BBF02C007900D92A831B107A6
:100C4000D9F72EE5A8E1B1E401C01D92A037B207A3
:100C5000E1F716E0CEE0D6E004C02197FE010E9445
:100C6000C032CD30D107C9F70E946B180C94EC321A
:100C7000C7CA8091695E8D3011F42D9A089587302E
:100C800011F40F9A0895813109F44B9A08950000E8
:100C900090916D5E911109C0809344098091430940
:100CA00087FFFCCF80914409089580936409809167
:100CB000630987FFFCCF8091640908958091695E84
:100CC0008D3011F42D980895873011F40F98089500
:100CD000813109F44B980895CF93DF93D82FC62F15
:100CE000EDDF8D2F8068D3DF8C2FD1DFDF91CF91A7
:100CF000C0CFCF93C82FE2DF8C2FC9DF80E0C7DFE2
:100D0000C82FB7DF8C2FCF910895CF93909177574D
:100D1000981791F0C82F81E0ECDF837E682F6C2B51
:100D200081E0DADF80917757811104C087E2E1DF4B
:100D300087FFF8CFC0937757CF9108950F931F93F4
:100D4000CF93DF93EC0184E0E0DF2097D9F0888136
:100D50008823C1F0B3DF8EEB9ADF8E01005F1F4F57
:100D6000899195DFC017D107D9F783DFC1E08DE303
:100D7000C0DF8E7F682F6C2B8DE3DF91CF911F91A9
:100D80000F91AACFC0E0F3CFCF92DF92EF92FF9204
:100D9000CF93DF936A01815096E1899FE00111248E
:100DA000C954D24A888323EA33E240E051E4CB01BC
:100DB000B6010E94B82F2091494030914A4040919D
:100DC0004B4050914C400E94B82F6B017C016091C8
:100DD00011587091125890E080E00E94572F9B01AB
:100DE000AC01C701B6010E94313169837A838B83DC
:100DF0009C831D828AE097EDA3E2BEE38E839F83EE
:100E0000A887B9871A861B861C861D861E86DF91D9
:100E1000CF91FF90EF90DF90CF90089510923657CA
:100E20001092345710923557109232571092335710
:100E3000109231571092305788E25BDF82FF06C074
:100E40008DE357DF682F64608DE346DF80E15DCF7F
:100E5000AF92BF92CF92DF92EF92FF920F931F93C8
:100E6000CF93DF936C017B018B01040F151FEB0106
:100E70005E01AE18BF08C017D10759F06991D601BD
:100E8000ED91FC910190F081E02DC6010995892B2F
:100E900079F7C501DF91CF911F910F91FF90EF90EE
:100EA000DF90CF90BF90AF900895FC01558946899F
:100EB000252F30E0842F90E0821B930B541710F005
:100EC000CF96089501970895FC0193898489981716
:100ED00061F0A489AE0FBF2FB11D57968C919489F4
:100EE0009F5F9F73948B90E008958FEF9FEF08951D
:100EF000FC0193898489981731F08489E80FF11DEA
:100F0000878990E008958FEF9FEF0895FC01938902
:100F10002489892F90E0805C9F4F821B91098F73F9
:100F200099270895CF93DF93EC01E881F98106803A
:100F3000F781E02D0995EC85FD85868116828581F6
:100F4000158280E484838C898B8B1A8ADF91CF9100
:100F500008958F929F92AF92BF92FF920F931F932B
:100F6000CF93DF938C014A015B01D22FC32FDC01A9
:100F700052968C91529780FF07C0ED91FC910288A8
:100F8000F389E02DC8010995D11101C0D3E0FD2EF0
:100F9000E894F2F8DC2FD095D07CB1E68B16B3EE56
:100FA0009B06B6E1AB06B10428F0D260B694A794D4
:100FB0009794879460E078ED88EB95E0A501940123
:100FC0000E949B30C9012034310510F480E490E088
:100FD0003C2F3B72D7FD30684D2F487C30FD41607F
:100FE0005FB7F894D8011C96ED91FC911682F782B8
:100FF0008087918735FF8FC04F7781E084878FEF9F
:1010000085873F7D3583D683F8012189C089868510
:101010009785FC0133E0239FE00DF11D11246591BC
:1010200074912C1708F059C0272F46FF76C07932EB
:1010300088F430E0F901EF5AFF4BA081AF3F51F047
:1010400026583F4BF901308120E2329FF0011124F4
:10105000FC5FA18347FF2AC021E0270F293230F52A
:1010600030E0F901EF5AFF4BD081DF3FF9F0F90191
:10107000E658FF4BA081F0E2AF9FD0011124BC5F86
:101080002D553F4BF9011081F0E0E0E0183030F4CD
:101090009D01205F3F4FF901E10FF11D3FB7F8942B
:1010A0001296DC932081286020833FBF40FF15C04B
:1010B00023E0270F293288F430E0F901EF5AFF4B83
:1010C00040814F3F51F026583F4BD901EC91B0E29F
:1010D000EB9FF0011124FC5F4183FC0123E0C29FE0
:1010E000E00DF11D1124319625913491F901FF276E
:1010F000EE51FA4F9081832F80958923682B60836E
:101100005FBFDF91CF911F910F91FF90BF90AF9084
:101110009F908F900895148674CF342F307509F402
:1011200099CF793208F096CF30E0F901EF5AFF4BB2
:10113000D081DF3F09F48ECFF901E658FF4BA08143
:10114000E0E2AE9FD0011124BC5F2D553F4BF90169
:101150001081F0E0E0E0183030F49D01205F3F4F57
:10116000F901E10FF11D3FB7F8941296DC9320814D
:10117000286020833FBF6ECFFC010FB607FE04C07E
:10118000809111018823A9F0A485B58514968C91CE
:10119000149785FF0EC095898689981739F01596A2
:1011A0008C9115978F7D15968C930895E8940C94E7
:1011B0001B1208950F931F93CF93DF93EC018A893D
:1011C000982F91609A8B2D899E8929130AC0EC85EE
:1011D000FD85948195FF05C081FD0DC080E4848369
:1011E00012C0062F1D891F5F1F738E89811315C0C2
:1011F000CE01C2DFFACF85818F77806490E494833B
:10120000EC85FD858583EC85FD85628381E090E03A
:10121000DF91CF911F910F910895ED89EC0FFD2F74
:10122000F11DE95AFF4F00831D8BEC85FD858A89EE
:1012300081FF09C085818F77806690E49483EC8577
:10124000FD858583E3CF85818062FBCF0F931F935C
:10125000CF93DF938C01D0E0C0E0F801EC0FFD1FCD
:101260006491662339F088E797E5A4DF892B11F0B4
:101270002196F3CFCE01DF91CF911F910F91089569
:10128000682F88E797E596CFCF93DF93EC018A89A3
:1012900080FF0BC0EC85FD85858185FD03C08481C1
:1012A00086FD03C0CE0168DFF5CFDF91CF910895B1
:1012B00081E008950F98079A20E533EC93E0179AA0
:1012C00044E1F9013197F1F74150D9F7482F179AC6
:1012D000F9013197F1F7179A59E0F9013197F1F7D0
:1012E0005150D9F7415099F7915049F7E7CF9FB73F
:1012F000F894E0912A0BF0912B0B8091260B209112
:10130000DA563091DB564091DC565091DD569FBF46
:1013100080FF08C0EC3E8CE2F80720F42F5F3F4FBF
:101320004F4F5F4F0F01169407941694079416942D
:10133000079416940794F00116940794E00DF11D9C
:1013400016940794102C169401181694010C1694F8
:1013500001181694010C1694011816941694010C99
:101360001124E019F109A8EEB3E00E948B306E0F52
:101370007F1F811D911D08958F929F92AF92BF9202
:10138000CF92DF92EF92FF926B017C01B0DF4B01B5
:101390005C01C114D104E104F104B1F0A8DF6819C3
:1013A00079098A099B09683E73408105910588F394
:1013B00021E0C21AD108E108F10888EE880E83E026
:1013C000981EA11CB11CE5CFFF90EF90DF90CF904D
:1013D000BF90AF909F908F9008952FB7F894609131
:1013E000DA567091DB568091DC569091DD562FBF16
:1013F000089581509091EF562FE5929FF0011124AE
:10140000E95BF74A45E1849F900111242554334A52
:1014100020833183615026E1629FB0011124695419
:10142000724A6283738364837583E25AFF4F21E0BB
:101430002083E82FF0E0EE50F94A90839F5F90936D
:10144000EF5608958F929F92AF92BF92CF92DF9204
:10145000EF92FF920F93CF936B017C0120E030E07D
:1014600040E05FE30E94532F87FF05C0C12CD12CC1
:10147000E12C8FE3F82EC0920540D0920640E09216
:101480000740F09208408090EC569090ED56C09145
:10149000EE5620E836E948E15BE4C701B6010E9458
:1014A000B82F6B017C01B12CA12CC501B4010E94A5
:1014B000572F9B01AC01C701B6010E9431310E9438
:1014C0009E316B017C0160E876E988E990E0A50136
:1014D00094010E949B30CA01B90100914640202F1F
:1014E00030E050E040E00E949B3044275527C70180
:1014F000B601621B730B840B950B2C2F30E050E070
:1015000040E00E949B302093DE563093DF5640939C
:10151000E0565093E156CF910F91FF90EF90DF90FE
:10152000CF90BF90AF909F908F900895DC01ED9188
:10153000FC91F170FC5E80810895CF92DF92EF9272
:10154000FF920F931F93CF93DF9300D0CDB7DEB7F9
:101550006C017C0103E010E009831A83CE0101963F
:10156000E5DFF70181937F010F5F1F4F0730110502
:1015700099F7C6010F900F90DF91CF911F910F91B6
:10158000FF90EF90DF90CF9008950F931F93CF932C
:10159000DF9300D000D0CDB7DEB78C0119821A825C
:1015A000CE010196C3DF8F34F9F481E090E08983A6
:1015B0009A83CE010196BADF8534B1F482E090E0DF
:1015C00089839A83CE010196B1DF8D3469F481E07D
:1015D0000115110551F0CE010196AFDF81E02B819D
:1015E0003C812017310709F080E02496CDBFDEBF93
:1015F000DF91CF911F910F9108951F93CF93DF93A8
:10160000EC01162F93DF8117B1F09FB78091021084
:10161000282F227081FDFACFF8948DE984BF2093A2
:10162000001023E184BF20930010E881F981F1705C
:10163000FC5E10839FBFCE01DF91CF911F91089573
:10164000CF92DF92EF92FF920F931F93CF93DF938E
:1016500000D0CDB7DEB76C017C0103E010E0098358
:101660001A83F70161917F01CE010196C6DF0F5FFA
:101670001F4F0730110599F7C6010F900F90DF91AA
:10168000CF911F910F91FF90EF90DF90CF90089531
:101690000F931F93CF93DF9300D0CDB7DEB70091A8
:1016A0001D5E10911E5E80911F5E9091205E081756
:1016B00019079CF4C801957189839A836FEFCE0155
:1016C00001969BDF1092195E10921A5E8091175E50
:1016D0009091185E080F191FE6CF0F900F90DF91C1
:1016E000CF911F910F910895DC01ED91FC9100883D
:1016F000F189E02D23E030E00994FC010190002005
:10170000E9F73197AF01481B590BBC0188E797E512
:101710009FCB86EE90E4F1CFCF93DF9397DDEC0182
:10172000F8DF8C0F9D1FDF91CF910895009709F08E
:10173000E4CF90E080E008958F929F92AF92BF92A5
:101740000F931F93CF93DF93CDB7DEB7A197CDBF94
:10175000DEBF19A2423008F44AE08E010F5D1F4F30
:10176000842E912CB12CA12CA50194010E949B30B8
:10177000E62FB901CA01EA30D4F4E05DD801EE9356
:101780008D01232B242B252B79F790E080E01097F7
:1017900011F0CD01B2DFA196CDBFDEBFDF91CF91B9
:1017A0001F910F91BF90AF909F908F900895E95C2B
:1017B000E5CFAF92BF92CF92DF92EF92FF920F935D
:1017C0001F93CF93DF9300D0CDB7DEB76C015B01E1
:1017D00010E000E00A151B057CF57801EC0CFD1CFF
:1017E00085E1F822E982FA82CE0101969FDE8031FE
:1017F00010F480E345DD0F5F1F4FE982FA82CE01CE
:10180000019694DE682F70E090E080E040E194DF84
:1018100081E091E48BDFC80187709927892B19F447
:1018200081E091E483DFC8018F709927892B91F6BD
:101830008EE09CE00BDDCECF0F900F90DF91CF912B
:101840001F910F91FF90EF90DF90CF90BF90AF90DE
:101850000895CF92DF92EF92FF92CF93DF9397FF9D
:1018600017C06B017C018DE20BDDEC016627772749
:10187000CB016C197D098E099F094AE05DDF8C0F51
:101880009D1FDF91CF91FF90EF90DF90CF90089553
:101890004AE0DF91CF91FF90EF90DF90CF904CCF57
:1018A000BC01990F880B990BD4CF84E294E0CEDC75
:1018B0008091625E882371F083E090E0F1DF8FE039
:1018C00094E0C4DC8091635E9091645EE9DF8CE01B
:1018D00094E022CF80E294E0FCCF8FE593E01CDF20
:1018E00084E593E0B3DC89EE90E407DF88E493E0DD
:1018F000ADDC80E493E010DF85E393E0A7DC83E0D8
:1019000090E0CEDF8FE293E007CF4F925F926F922D
:101910007F928F929F92AF92BF92CF92DF92EF927F
:10192000FF920F931F93CF936B017C01742EAC0138
:101930009B010E94B532882391F081EF90E4CF9112
:101940001F910F91FF90EF90DF90CF90BF90AF90DD
:101950009F908F907F906F905F904F90CECE46017A
:101960005701E894B7F82FEF3FEF4FE75FE7C50166
:10197000B4010E94B53281110DC02FEF3FEF4FE748
:101980005FE7C501B4010E94532F18161CF485EFC0
:1019900090E4D5CF2FEF3FEF4FE75FE4C701B601EB
:1019A0000E946F3218161CF489EF90E4C8CF2FEF15
:1019B0003FEF4FE75FECC701B6010E94532F87FD51
:1019C000F3CF20E030E0A901C701B6010E94532FF8
:1019D00010E000E087FF07C08DE252DC8C01F7FACF
:1019E000F094F7F8F094C0E060E070E080E09FE3EE
:1019F0007C1641F020E030E040E251E40E943131B9
:101A0000CF5FF6CFA70196010E94CD302B013C019C
:101A10000E949E314B015C014AE08EDE7C01E00EAB
:101A2000F11ECC23A9F1C501B4010E94572F9B01DF
:101A3000AC01C301B2010E94CC304B015C018DEFBF
:101A400090E45BDEE80EF91EC15010F120E030E0BA
:101A500040E251E4C501B4010E94B82F2B013C01C2
:101A60000E949E314B01B12CA12C4AE0C501B4016A
:101A700063DEE80EF91EC501B4010E94572F9B01D9
:101A8000AC01C301B2010E94CC304B015C01DCCF40
:101A9000C701CF911F910F91FF90EF90DF90CF90F2
:101AA000BF90AF909F908F907F906F905F904F907E
:101AB0000895CF93DF9329DFEC012BDE8C0F9D1F60
:101AC000DF91CF910895CF93DF93682F70E090E07E
:101AD00080E04AE031DEEC011CDE8C0F9D1FDF91BF
:101AE000CF9108950F931F93CF93DF9380917757F2
:101AF000803109F062C088E2FCD882FF3BC084E0FC
:101B000004D9DCD880E0C3D880E0C1D8D82FC82F52
:101B1000833408F0C2E4C093315780E0B8D8082F6E
:101B200080E0B5D8182F80E0B2D8282F30E0A90186
:101B300096E0440F551F9A95E1F744275370402BC8
:101B40004093325750933357322F22272227337036
:101B5000212B20933457309335579091675E94171B
:101B6000150611F0452B11F4D330A0F41092315723
:101B700080D854D9809177578031F9F480913157CA
:101B80008823E1F084E0C1D881E0DF91CF911F91FB
:101B90000F910895C350C093365780788093305783
:101BA000D0E0DC1720F480E072D8DF5FFACF61D894
:101BB00080E1ABD884E29DD8DDCF30D980E0E5CF9D
:101BC0008091245E882309F439C080EF93E03EDBE6
:101BD0008091215E8B3249F1863551F18B3559F177
:101BE00090E080E05DDE8FED93E030DB6091225E7F
:101BF00070E090E080E04AE09FDD83ED93E026DB3B
:101C00008091235E8F7390E04BDE86EC93E01EDBC9
:101C10006091255E70E090E080E04AE08DDD88EB29
:101C200093E014DB8BEA93E077CD81EB91E0DACFA0
:101C300084E693E0D7CF83E993E0D4CF83E094E0C8
:101C4000F3CF0F931F93CF93DF9383EA93E0FEDAF2
:101C50006091265E7091275E8091285E9091295E4A
:101C600042E050E026DF0EE21EE5C1E0D0E08EE962
:101C700093E0ECDACE0114DE8FEF90E457DDF8014B
:101C800061917191819191918F0142E03EDE86E9EF
:101C900093E0DCDACE0104DE8FEF90E447DDF8015B
:101CA000648975898689978942E050E002DF219630
:101CB000C730D105E1F6F9DD83DF8BE893E0C6DAC2
:101CC00060915E5E70915F5E8091605E9091615EFA
:101CD00042E050E0EEDE8091665E811107C086E74B
:101CE00093E0DF91CF911F910F9116CD81E893E0A2
:101CF000F8CF94E0811119C09093260490912004AC
:101D000092FD0AC09FB7F894811112C080913204ED
:101D1000877F809332049FBF8091E605982F97704C
:101D2000913051F0887171F0089590932504E6CFB9
:101D3000809132048860EDCF8091010A8B7F80937F
:101D4000010A08958091410A8B7F8093410A08958A
:101D50000F931F93CF93DF93CDB7DEB72C97CDBFF3
:101D6000DEBF681BF1F0062F10E0682F70E0695CA1
:101D7000784AA801CE0101960E94DD32E1E0F0E050
:101D8000EC0FFD1FE00FF11F1082CE0101960E94A3
:101D9000B92D2C96CDBFDEBFDF91CF911F910F9152
:101DA000089590E080E0F5CF0F931F93CF93DF93DA
:101DB000CDB7DEB72C97CDBFDEBF681BF1F0062F85
:101DC00010E0682F70E0695C784AA801CE010196A6
:101DD0000E94DD32E1E0F0E0EC0FFD1FE00FF11FAB
:101DE0001082CE0101960E94B62D2C96CDBFDEBF8B
:101DF000DF91CF911F910F91089560E070E0CB01CA
:101E0000F4CF2F923F924F925F926F927F928F9278
:101E10009F92AF92BF92CF92DF92EF92FF920F9379
:101E20001F93CF93DF93CDB7DEB72A97CDBFDEBF29
:101E300089879A87162F7A01222E312CB101032C23
:101E4000000C880B990B0E94592F4B015C01612FEC
:101E500070E090E080E00E94592F20E030E044EBF9
:101E600053E40E94B82F2B013C01B70190E080E0C1
:101E70000E94572F9B01AC01C301B2010E94B82FF1
:101E8000A50194010E94B82F20E836E948E15BE4FF
:101E90000E9431312B013C01E985FA850581808161
:101EA000081B110B21813281438154816681778126
:101EB000808591850E94CC30A30192010E9431312E
:101EC0006B017C01B801012E000C880B990B0E945C
:101ED000592FA50194010E9431319B01AC01C7012A
:101EE000B6010E94CD306D837E838F8398870E94D8
:101EF0000C3269837A838B839C8320E030E040E856
:101F00005FE30E94CD306B017C0120E030E0A9014D
:101F100069817A818B819C810E946F3287FDA2C08A
:101F2000A7019601C501B4010E94B82F0E94993102
:101F3000E985FA856287738716861786E985FA85AB
:101F400026853785020F131F06871787020D131D7D
:101F50000487158720E030E044EB53E4C301B2016D
:101F60000E9431312BED3FE049EC50E40E94B82F44
:101F70006B017C0129813A814B815C816D817E817D
:101F80008F8198850E94CC30A30192010E94B82FC6
:101F900020E030E044EB53E40E9431312BED3FE090
:101FA00049EC50E40E94B82F4B015C01A701960157
:101FB0000E9431312B013C01E985FA85448A558A1A
:101FC000668A778AA5019401C501B4010E94B82FE1
:101FD00020E030E040E05FE30E94B82F9B01AC01BD
:101FE00060E070E080E89FE30E94CC304B015C0130
:101FF000A7019601C701B6010E94B82F20E030E08A
:1020000040E05FE30E94B82F9B01AC0160E070E00C
:1020100080E89FE30E94CC30A30192010E94B82F78
:102020009B01AC01C501B4010E94CC30E985FA8561
:10203000608B718B828B938B2A96CDBFDEBFDF9135
:10204000CF911F910F91FF90EF90DF90CF90BF90B5
:10205000AF909F908F907F906F905F904F903F9048
:102060002F900895E985FA8512861386C701B60177
:102070009058A50194010E94B82F0E949931E985DA
:10208000FA85668777875ACFCF92DF92FF920F93B8
:102090001F93CF93DF930FE5089FF0011124EF0109
:1020A000C95BD74AAA81BB811F962C911F972A8BA7
:1020B00016964D915D916D917C9119974B8B5C8B30
:1020C0006D8B7E8BA881B9811F962C911F972F8BCA
:1020D00016964D915D916D917C911997488F598F0E
:1020E0006A8F7B8F2091EE56C090EC56D090ED56C3
:1020F000F09046408F01A6016F2DCF01875A974A75
:1021000080DEEC81FD818A819B818E179F0729F1FA
:1021100087858AA786819781A085B1858BA79CA793
:10212000ADA7BEA7E881F98187858FA786819781B2
:10213000A085B18588AB99ABAAABBBAB2091EE561D
:10214000A6016F2DC8018F58974ADF91CF911F913B
:102150000F91FF90DF90CF9054CEDF91CF911F91E0
:102160000F91FF90DF90CF900895CF92DF92EF9282
:10217000FF920F931F93CF93DF93CDB7DEB7AD9749
:10218000CDBFDEBF8DE08093695E8EE080936A5E96
:102190008FE080936B5E80E180936C5E81E0809342
:1021A0006D5E1091225E9091235E9093675E109217
:1021B000685E90E290932104809341049FB7F89465
:1021C00082E08093420480915104877F8093510480
:1021D0009FBF80916C5E893288F490E0FC01EF5AD9
:1021E000FF4B20812F3F51F086589F4BDC01EC9133
:1021F000B0E2EB9FF0011124FC5F21830E943906BD
:1022000080916D5E8111AFC08091E4058C7F8093D9
:10221000E4058091410984608093410980914009DF
:10222000816280934009D9D86B017C016AEA8FE210
:102230000E946C068FE20E9479068A3A51F0CDD84E
:102240006C197D098E099F0962337105810591051D
:1022500068F3C3D86C197D098E099F096233710533
:102260008105910508F0ADC0B8D86B017C0165E52A
:102270008FE20E946C068FE20E947906853551F04C
:10228000ACD86C197D098E099F09623371058105EF
:10229000910568F3A2D86C197D098E099F096233F4
:1022A00071058105910508F08CC0FE0133968BE223
:1022B000DF011D928A95E9F781E0898384E08A83B2
:1022C00022E02B8393E09D832E838F8380E4888795
:1022D00025E029879A8796E09B8793E39C8797E080
:1022E0009D8728E02F8729E0298B29E12B8B32E479
:1022F0003C8B25E22D8B8E8B26E22F8B988F98E2DC
:10230000998F20E12A8F99E29B8F9CED9C8F9EE212
:102310009D8F98E89E8F9FE29F8F9DE298A390E308
:1023200099A347E34BA340E94CA348E34DA33EA345
:102330003CE33FA33FE838A73DE339A72AA72FE6B0
:102340002BA79CA79CE69E87888B1AA38E010F5F04
:102350001F4FF80180818823B1F061810E946C06D3
:102360000E5F1F4FF6CF8091E405837F8093E405D5
:102370008091610984608093610980916009816224
:102380008093600950CF90E080E00E949E0669E94A
:1023900081E10E946C0684E00E9485061ED86B01D4
:1023A0007C0187E20E94790687FD0AC016D86C1965
:1023B0007D098E099F09623371058105910588F3B6
:1023C0000CD883E091E40E949E062091235EF4E104
:1023D0002F9F8001112460E070E0CB0101151105F1
:1023E00041F00E94612D9801110F440B550B0E9482
:1023F0006F30AD96CDBFDEBFDF91CF911F910F91B2
:10240000FF90EF90DF90CF900C94BC09EF93FF9377
:10241000E8E7F7E508C0EF93FF93E8E7F7E532C098
:10242000EF93E0E653C02F932FB72F938F939F9393
:10243000AF93BF936894CF93DF9320E0C485D8E037
:102440009689DF01A90FB21FA95ABF4F8C9120E4D2
:102450002C838A839F5F9F738D812589291302C0F6
:102460008F7D8D83968BDF91CF9116F00C94D908D8
:10247000BF91AF919F918F912F912FBF2F91FF917E
:10248000EF9118952F932FB72F938F939F93CF93FF
:10249000DF93C485D8E08981988181FD0DC0C3890F
:1024A00081E08C0F8F732489281731F0CE0FDF2F36
:1024B00020E0D21F9F8B838BDF91CF919F918F91D3
:1024C0002F912FBF2F91FF91EF911895FF938F932D
:1024D0008FB78F93F8E08081848187FFFCCF85815F
:1024E0008F7B806885838F918FBF8F91FF91EF9154
:1024F00018951F920F920FB60F92112484E00E943C
:102500005A091F920F920FB60F9211248F939F9327
:10251000AF93BF938091DA569091DB56A091DC5631
:10252000B091DD560196A11DB11D8093DA569093AE
:10253000DB56A093DC56B093DD5681E08093260BEA
:10254000BF91AF919F918F910F900FBE0F901F90F1
:1025500018951F920F920FB60F9211248F9388E057
:102560008093A90481E08093E9568F910F900FBE6C
:102570000F901F9018951F920F920FB60F92112473
:102580008F939F93809109048093090486FF03C071
:1025900091E09093EB5687FF03C081E08093EA5669
:1025A0009F918F910F900FBE0F901F9018951F92C3
:1025B0000F920FB60F9211240BB60F922F923F92EB
:1025C0004F925F926F927F928F929F92AF92BF9243
:1025D000CF92DF92EF92FF920F931F932F933F932F
:1025E0004F935F936F937F938F939F93AF93BF931B
:1025F000EF93FF93CF93DF93CDB7DEB72A97CDBF8D
:10260000DEBF81E080930D06809110069091110647
:102610008D839E838091D9568E5F9091EE56891757
:1026200018F09091EE56891B90E0FC01EE0FFF1F11
:10263000E80FF91FE75EFF4B8081809308068D81CC
:102640009E81209111583091125836952795821B02
:10265000930B8D839E838D819E81E091D756F0915F
:10266000D856EE0FFF1FE952F14B808391831982F8
:102670001A821B821C822D813E810D811E812224A3
:102680001302B001029FA00112037209500D611DD7
:10269000721D30037209500D611D721D1124498392
:1026A0005A836B837C8389809A80AB80BC80A091A5
:1026B0000140B0910240E091D95608E0E09FF0015E
:1026C0001124EA0FFB1FE058FF4F20803180428029
:1026D000538064807580068117819401A50160E0B4
:1026E00070E080E090E05101620173010E94C93204
:1026F00020833183428353836483758386839783E6
:102700004D815E81E091D95618E0E19FF0011124DE
:10271000EA0FFB1FA084B184C284D384E484F584CF
:1027200006851785952F990F990B9A01492F592FD7
:10273000692F792F892F0E94C932208731874287DC
:1027400053876487758786879787E091D9568E2F40
:1027500090E0FC01EE0FFF1FE80FF91FE75EFF4B53
:1027600080818111CFC08091D54E9091D64E9C0131
:102770003695279536952795AC01421B530B9A0148
:102780008D819E81181619060CF478C08D819E816A
:10279000919581959109820F931F8093D54E9093C7
:1027A000D64E21E040910F585091105848175907C4
:1027B00008F020E02093CC5D8D819E8118161906CB
:1027C0000CF05FC081E090E08093D34E9093D44EA4
:1027D0002091D34E3091D44E8091CF4E9091D04ED7
:1027E0002817390709F452C08091CC4E8F5F80932F
:1027F000CC4E8091CC4E882351F01092CC4E8091DB
:10280000D34E9091D44E8093D14E9093D24E8091DE
:10281000D14E9091D24E019709F016C38091CF4EC0
:102820009091D04E019709F465C08091CD4E909162
:10283000CE4E01968093CD4E9093CE4E2091044083
:10284000222339F1209103402817190609F008F5D1
:10285000109204401092CD4E1092CE4E14961D92BE
:102860001D921D921C921797CD0188529D4FFD011C
:10287000E817F90771F010823196FACF8D819E81A9
:102880008ACF1092D34E1092D44EA2CF1092CC4E3B
:10289000B0CF14964D915D916D917C9117974F5FDC
:1028A0005F4F6F4F7F4F14964D935D936D937C9365
:1028B00017970D911D912D913C9113974091DE56E4
:1028C0005091DF566091E0567091E156041715075C
:1028D0002607370778F08091474090914840A093B1
:1028E0004740B0934840809301409093024081E07C
:1028F0008093F1568091D14E9091D24E8093CF4EDD
:102900009093D04E9091D9568091F056981708F434
:1029100045C28090D7569090D856E091D9568E2FC8
:1029200090E0FC01EE0FFF1FE80FF91FE75EFF4B81
:102930000180F281E02D848D958D881A990A53E0EB
:102940009522E091D756F091D856A091D9568A2F6A
:1029500090E0DC01AA0FBB1FA80FB91FA75EBF4BF9
:1029600011960D90BC91A02D5E968D919C91E81BC7
:10297000F90BF3702091D7563091D856A091D956C3
:102980008A2F90E0DC01AA0FBB1FA80FB91FA75E1A
:10299000BF4B11960D90BC91A02D90968D919C915E
:1029A000281B390BD901B370AF83B887880C991CE9
:1029B00084010952114B4801D8016D917C91EE0FB1
:1029C000FF1FE952F14B40815181222457029001AF
:1029D000469F800156033209100D211D321D7403DC
:1029E0003209100D211D321D112428013901E091F9
:1029F0000140F0910240A091D95618E0A19FD0016A
:102A00001124AE0FBF1FA850BF4FAC901196BC90C1
:102A1000119712962C90129713963C901397149638
:102A20000C911497098715961C9115971A8716967D
:102A30000C91169717961C91179773016201FF0C62
:102A4000CC08DC2C76019201A3016C2D7C2D8C2D01
:102A50009C2D6101E984FA840E94C9322C9311965D
:102A60003C93119712964C93129713965C9313977D
:102A700014966C93149715967C93159716968C93D1
:102A8000169717969C93D4016D917C91AF81B88570
:102A9000AA0FBB1FA952B14B4D915C912224570242
:102AA0009001469F800156033209100D211D321DF1
:102AB00074033209100D211D321D112448015901E2
:102AC000A091D95618E0A19FD0011124AE0FBF1FCD
:102AD000A059BE4F2C9011963C9011971296CC9015
:102AE00012971396DC9013971496EC901497159602
:102AF000FC90159716960C91169717961C911797A0
:102B000024013501770C4408542C32019401A501AD
:102B1000642D742D842D942D51010E94C9322C9363
:102B200011963C93119712964C93129713965C93BF
:102B3000139714966C93149715967C931597169685
:102B40008C93169717969C93A091D9568091D9563D
:102B50002A2F30E0D901AA0FBB1FA20FB31FA75E17
:102B6000BF4B11962D913C9190E0DC01AA0FBB1F49
:102B7000A80FB91FA75EBF4B11968D919C91D901EB
:102B800012962D913C91DC0114968D919C91281701
:102B9000390709F403C18090D7569090D856A09178
:102BA000D9568A2F90E0DC01AA0FBB1FA80FB91FCE
:102BB000A75EBF4B11960D90BC91A02DD4968D9120
:102BC0009C91881A990AB3E09B222091D7563091A4
:102BD000D8568091D95690E0DC01AA0FBB1FA80FF0
:102BE000B91FA75EBF4B11960D90BC91A02DD69634
:102BF0008D919C91D901A81BB90BBD0173704091B7
:102C0000D7565091D8568091D956282F30E0C90117
:102C1000880F991F820F931F875E9F4BDC011196CF
:102C20008D919C91DC01D8968D919C91481B590BFC
:102C3000DA01B370AF83B887880C991C84010952FC
:102C4000114B4801D8018D919C91DB01AA0FBB1F4C
:102C5000A952B14B4D915C91BC01222457029001C5
:102C6000469F800156033209100D211D321D740349
:102C70003209100D211D321D112428013901A091A6
:102C8000D95678E0A79FD0011124AE0FBF1FA851DD
:102C9000BE4FAC901196BC90119712962C90129743
:102CA00013963C90139714960C91149709871596D8
:102CB0001C9115971A8716960C91169717961C91CA
:102CC000179779016201FF0CCC08DC2C7601920188
:102CD000A3016C2D7C2D8C2D9C2D6101E984FA843F
:102CE0000E94C9322C9311963C93119712964C93E3
:102CF000129713965C93139714966C9314971596EA
:102D00007C93159716968C93169717969C93D401DF
:102D10006D917C91AF81B885AA0FBB1FA952B14BB1
:102D20004D915C91222457029001469F80015603E9
:102D30003209100D211D321D74033209100D211DA1
:102D4000321D1124280139018091D95618E0819F44
:102D5000C0011124E80FF91FE05AFD4FB081A18195
:102D6000C280D380E480F58006811781530142013F
:102D7000BB0C8808982C54019201A301682D782D72
:102D8000882D982DAB2EBA2E0E94C9322083318314
:102D90004283538364837583868397838091D95656
:102DA0008F5F8093D9568091D7569091D8560196CF
:102DB0008093D7569093D8569091D9568091EE56DD
:102DC000981788F01092D956E0910140F091024096
:102DD00080819181A281B3810196A11DB11D808363
:102DE0009183A283B3838091D7569091D8569370E4
:102DF0008093D7569093D8562A96CDBFDEBFDF91E9
:102E0000CF91FF91EF91BF91AF919F918F917F9162
:102E10006F915F914F913F912F911F910F91FF9073
:102E2000EF90DF90CF90BF90AF909F908F907F906A
:102E30006F905F904F903F902F900F900BBE0F9030
:102E40000FBE0F901F9018958091CF4E9091D04E4D
:102E500051CDEF92FF920F931F93CF93DF9300D04A
:102E6000CDB7DEB710927A5710927B5788EE93E079
:102E7000A0E0B0E080937C5790937D57A0937E575D
:102E8000B0937F5780ED90E4809378579093795773
:102E900080E698E0809384579093855780E19CE08A
:102EA000809386579093875782E08093885710923B
:102EB000895710928A5780E090E0A8ECB2E48093A2
:102EC000B85D9093B95DA093BA5DB093BB5D10926D
:102ED000CB5D1092CC5D8093CE5D9093CF5DA0933F
:102EE000D05DB093D15D1092E15D1092E25D809370
:102EF000E45D9093E55DA093E65DB093E75D10928D
:102F0000F75D1092F85DEBEBFCE581839283A38380
:102F1000B483148A75962DE5E73BF207B1F787E491
:102F200098E5FC01E25AFF4F1082815A9F4F4CE511
:102F30008B3B9407B1F7E7E1F8E524E130E092E05C
:102F400081E020833183928313821482158216825A
:102F500017821086118682871386709648E5E734BB
:102F6000F40779F7109213581092145810921558CC
:102F700080E090E1809311589093125880E091E0A6
:102F800080930F58909310588EEF90E080931B5EC3
:102F900090931C5E8DE190E08093175E9093185E95
:102FA0008DE090E08093155E9093165E84E890E04B
:102FB00080931D5E90931E5E8DEF91E080931F5E67
:102FC0009093205E1092195E10921A5E04E810E051
:102FD00009831A83CE0101960E94960A78019DE129
:102FE000E90EF11C8F3F09F46EC00093195E109337
:102FF0001A5E2DEFE21621E0F2065CF4E982FA8215
:10300000CE0101960E94960A8F3F09F458C00E9493
:10301000480B8AE08093695E8BE080936A5E8CE067
:1030200080936B5E8DE080936C5E10926D5E8BE2A0
:103030008093215E82ED8093225E8BE18093235EFC
:1030400081E08093245E99E19093255E4AE959E9F5
:103050006AEC72E44093265E5093275E6093285E8C
:103060007093295E40E050E068E472E440932A5E89
:1030700050932B5E60932C5E70932D5E4DEC5CEC58
:103080006CE171E440935E5E50935F5E6093605EBE
:103090007093615E8093625E84E690E08093635EED
:1030A0009093645E1092655E1092665E0F900F9032
:1030B000DF91CF911F910F91FF90EF9008954DE117
:1030C000E40EF11C96CF87018DEFE81681E0F8063B
:1030D00009F07ECF9ECFCF93DF93CDB7DEB7CA572F
:1030E000D109CDBFDEBF88ED21E030E084BF209361
:1030F000620091E084BF909363009DE284BF90934F
:10310000800093E084BF9093600080E090E2209183
:10311000650020FD43C221E02093030A8EEF8093D7
:10312000260A8093270A9BE09093000A32E03093AE
:10313000E6052093430A8093660A8093670A90937A
:10314000400A9093E705E0E0FBE027E09EEF85E092
:1031500021839487158680837096E0340BE0F00716
:10316000B9F72FEF3FE02093AA0B3093AB0B90E819
:103170009093820B1092810B2EEF30E02093AE0BD8
:103180003093AF0B98ED24E194BF2093680091E158
:103190009093800B809302069EE09093050690E644
:1031A00090930306809300068091B000887F85602D
:1031B0008093B0008091B200887F85608093B200D8
:1031C0008FED9EE280932C0B90932D0B81E08093EA
:1031D000250B1092210B83E08093200B789484E0E0
:1031E0008093210481E00E94790E40E052EC61E07E
:1031F00070E088E797E50E94740B0E946D0C9FB702
:10320000F89480E180930204809114048860809394
:1032100014049FBF9FB7F89480E2809302048091CA
:1032200015048860809315049FBF8091080485FD74
:1032300005C08091235E8F5F8093235EEEE22E2E89
:10324000EEE53E2EF10140E050E060EA71E48DECE5
:103250009CECACE4B0E44193519361937193848B03
:10326000958BA68BB78B1EE5E634F107A1F780E0BE
:1032700090E0A8ECB2E480932E5E90932F5EA09332
:10328000305EB093315E80E090E0A8E4B2E48093D9
:10329000325E9093335EA093345EB093355E80933C
:1032A000365E9093375EA093385EB093395E80E2CD
:1032B00090E00E94C50A882341F1CE0101960E9448
:1032C0009D0A09811A8117FD20C0680123E0C20E02
:1032D000D11C71E2E72E7EE5F72E87E090E05C01DD
:1032E0003FEFA31AB30A8BAB9CABCE01C3960E94EF
:1032F000960AD7018D937D01C501AC14BD0478F306
:103300008EE394E00430110511F48DE294E00E9404
:103310008C0B0E94210E8091080484FD03C081E083
:103320008093E7568091245E81110E94B5108EE053
:103330008093050680910306809303061092B000E7
:1033400086E08093020681E080930006809100066B
:103350008093000687E08093080660E070E0CB0170
:1033600050E040E0E1E0E0930A0620910D0620FFE6
:10337000FCCF4A30510544F02091100630911106DF
:10338000620F731F811D911D4F5F5F4F4A31B7E27E
:103390005B0749F70E94572F20E030E44CE156E4E8
:1033A0000E94313120E030EF4FE755E40E94313187
:1033B0009B01AC0166E676E686E69FE30E9431312A
:1033C0006B017C0183E594E00E94260944E050E013
:1033D000C701B6010E94590D4091265E5091275EAB
:1033E0006091285E7091295E81E00E94C406409140
:1033F000265E5091275E6091285E7091295E82E082
:103400000E94C4064091265E5091275E6091285E1E
:103410007091295E83E00E94C4068090494090909C
:103420004A40A0904B40B0904C408BAE9CAEADAEAD
:10343000BEAE609111587091125890E080E00E94E9
:10344000572F2B013C010BEB1CE520E0D1015896D6
:103450008D909D90AD90BC905B97F10161917191C1
:10346000819191911F01F1E0F20FFFABD8012C93F4
:1034700020E030E040E450E40E94B82F2BAD3CAD9A
:103480004DAD5EAD0E94B82FA30192010E94313173
:10349000F801618372838383948315828682978285
:1034A000A086B186128613861486158616860B5E54
:1034B0001F4F2FA9263051F661E081E00E94F909E3
:1034C00062E082E00E94F90963E083E00E94F9096A
:1034D00061E084E00E94F90962E085E00E94F90958
:1034E00063E086E00E94F9098091E75681115CC093
:1034F00082E3809346408AE08093034060915E5E61
:1035000070915F5E8091605E9091615E0E94220A80
:10351000C0924940D0924A40E0924B40F0924C40D9
:103520008091625E80934058882309F43FC089E00F
:103530008093B3048091635E9091645E809337586A
:103540009093385882E08093395881E080934158B5
:10355000C090195ED0901A5EC114D10409F473C1F1
:1035600086010F5F1F4F69EFE62E6DE5F62E809105
:10357000175E9091185E8C0D9D1D08171907CCF4ED
:10358000C801957189839A83CE0101960E94960A9B
:10359000D7018D937D010F5F1F4FE9CF019709F090
:1035A000B6CD83E00E945A098CE3A3CF1092B304F6
:1035B000C1CF4090F95D5090FA5D6090FB5D7090D6
:1035C000FC5D8090FD5D9090FE5DA090FF5DB090F1
:1035D000005EC090015ED090025EE090035EF090CD
:1035E000045E0091055E1091065E2091075E3091A9
:1035F000085E4091095E50910A5E60910B5E709189
:103600000C5E80910D5E90910E5EA0910F5EB09168
:10361000105E8FAB98AFA9AFBAAF8091115E909159
:10362000125EA091135EB091145E40923EB750922C
:103630003FB7609240B7709241B780929D58909288
:103640009E58A0929F58B092A058C092FC58D09219
:10365000FD58E092FE58F092FF5800935B5910938A
:103660005C5920935D5930935E594093BA595093F9
:10367000BB596093BC597093BD592FA838AC49AC65
:103680005AAC2092195A30921A5A40921B5A5092B0
:103690001C5A80931A5890931B58A0931C58B093AF
:1036A0001D5885E18093E65688E090E08093E456CB
:1036B0009093E55688EE91E08093EC569093ED560A
:1036C0001092E3569091F056A5EAB8E580E041E00B
:1036D0002C91222309F44CC0682F70E09B01220F2B
:1036E000331F260F371F275E3F4BF9015081BD0165
:1036F0006C5571095F3F99F4FB0100811181F8015C
:10370000548951110CC08787448B5081E52FF0E01C
:10371000E75FFF4B5081F90150838F5F9F5FFD0191
:10372000EA55F10920813181FB0160817181261701
:103730003707F1F0E82FF0E0BF01660F771FE60FC3
:10374000F71FBF01675E7F4BFB0150815F3F81F434
:10375000F901548951110CC08787448B208130E0D6
:10376000275F3F4BF90120818F5FFB0120839F5F23
:10377000A15ABF4FFDE5A931BF0709F0A9CF90932A
:10378000F0568093E3569091E2564BEB5CE5A7E44C
:10379000B8E561E0FD01E25AFF4F2081222319F1D3
:1037A000E82FF0E09F01220F331FE20FF31F8F017C
:1037B000075E1F4BF80120812F3FA9F42D913C910A
:1037C0001197F901748971110EC08787648B20816C
:1037D00030E0245F3F4BF9012081F80120838F5FA7
:1037E000A183B2839F5FA15ABF4F4A175B0791F62F
:1037F0008093E3569093E256909113589923A9F041
:10380000809316582091184091E0980F9093E356BA
:1038100090E0FC01EE0FFF1FE80FF91FE75EFF4B82
:10382000208310921458109215588091E35680937B
:10383000EE5610E08091EF561817E0F4812F0E94A9
:1038400044101F5FF7CF1FAA18AE19AE1AAE40E0A2
:1038500050E0BA0100E010E09801C12CD12C7601B3
:10386000812C912C5401412C512C320180E090E0AC
:10387000DC01DBCE1091EE5620E836E948E15BE44E
:1038800060910540709106408091074090910840FA
:103890000E94B82F20E030E044EF53E40E94313121
:1038A0000E949E316B017C012091464030E050E047
:1038B00040E06BE070E580E090E00E949B30C70143
:1038C000B601621B730B840B950B212F30E050E087
:1038D00040E00E949B302093DE563093DF564093A9
:1038E000E0565093E1561092F15681E080930440E7
:1038F00095E190930506909103069093030610922C
:10390000B0009091E4569093020680930006909147
:103910000006909300069091000692609093000636
:103920001092080690910C06916090930C0680937B
:103930000A0678941092FE561092FF561092005785
:103940001092015760E070E080E090E40E94220A4B
:103950008E010D5C1F4F0DAB1EAB88E797E50E94F3
:103960008607892B09F4A0C088E797E50E946407C1
:10397000D090E8568A3009F026C5AD2DB0E0A95C9C
:10398000B84A1C92E0913757EF53EC3308F084C0EB
:103990000E2E000CFF0BE153F34E0C94C032CA21E3
:1039A0004C1D4C1D4C1D4C1D4C1D4C1D4C1D4C1DCF
:1039B0004C1D4C1D4C1D4C1D4C1D4C1D4C1D4C1DBF
:1039C0004C1D4C1D4C1D4C1D4C1D4C1D4C1D4C1DAF
:1039D0004C1D4C1D4C1D4C1D4C1D4C1D4C1D4C1D9F
:1039E0004C1D4C1D0B1D3F1D111E2C1E331E4B1E4E
:1039F0004C1D7D20F81D5A1E14201C207D204C1DBE
:103A000095204C1DA320CE204C1D4C1D89218F21BB
:103A1000A1214C1DA82112E0D1123EC088E397E5F8
:103A20000E94B92D8430E1F08830E1F08930E1F472
:103A30008BE58093215E87EC9BE00E9426098091B4
:103A4000215E8B3299F08635A1F08B35A9F483E99C
:103A500093E00E94500C82EC9BE00E948C0B1CC0F7
:103A60008BE2E7CF86E5E5CF80E0E3CF81EB91E025
:103A7000F0CF84E693E0EDCF90E080E0EACF22E063
:103A8000D2120AC088E397E50E94B92D019709F088
:103A9000ACC081E08093655E80E4A7E3B7E51D924A
:103AA0008A95E9F71092E8568091EB56909120584C
:103AB000992389F0882379F081E0809322580E942D
:103AC000ED09609323587093245880932558909360
:103AD00026581092EB568091EA56909130589923CF
:103AE00089F0882379F081E0809332580E94ED09B3
:103AF0006093335870933458809335589093365868
:103B00001092EA568091E95690914058992389F095
:103B1000882379F081E0809342580E94ED096093F8
:103B20004358709344588093455890934658109248
:103B3000E95627E1E22E28E5F22E8701D12CC12C8F
:103B4000560194E0AA0CBB1C9A95E1F7F501E95ED9
:103B5000F74A4F018385D80119969C91992309F45E
:103B600051C4882309F44EC40E94ED09F401248550
:103B70003585468557851B012C01221A330A440AD4
:103B8000550AB201A101D8018D919C91B0E0A0E04D
:103B900084179507A607B70708F034C4B1E0CB1621
:103BA00009F41EC4E2E0CE1609F420C48091080492
:103BB00086FB882780F9F501E95EF74A1386D8016C
:103BC0001A969C911A97981709F41CC412969C9106
:103BD000811112C4923009F012C4F8012781308596
:103BE0002F5F3F4F278330870AC41092655E54CF02
:103BF00032E0D31251CF88E397E50E94B92D0197A7
:103C000051F481E08093665E8091665E882331F096
:103C100088EB9BE022CF1092665EF6CF8DEA9BE0A8
:103C20001CCF88E397E50E94B62D6B017C010E94B2
:103C3000220AC0925E5ED0925F5EE092605EF09279
:103C4000615E82EA9BE00E94260942E050E0C701E3
:103C5000B6010E94590D20CF8AE08C9388E397E546
:103C60000E94960B19CF43E0D41216CF88E397E554
:103C70000E94B62D0E949931162F072F609346405F
:103C80008AE99BE00E942609812F902F0E94500C08
:103C90000E94890B01CF88E397E50E94B92D80939C
:103CA000225E8FE89BE00E9426098091225E0E949E
:103CB000630DF2CE60E270E087E397E50E94D232B6
:103CC000009711F40C94002D8C0107531745C8017F
:103CD000992760E270E0885C984A0E94D232CC2436
:103CE000C394C00E009711F40C94072DDC01A75368
:103CF000B7455D01602F81E00E94A80E7C016A2D0E
:103D00008C2D0E94D40E2D966CAF7DAF8EAF9FAFE1
:103D10002D976D2D81E08A0D0E94D40EA2966CAF76
:103D20007DAF8EAF9FAFA297E114F10409F091C06F
:103D300023EA33E240E051E42D966CAD7DAD8EADCB
:103D40009FAD2D970E94B82F4B015C0107EB1DE53D
:103D5000F4E6CF2EF9E5DF2EA7E4EA2EA8E5FA2E49
:103D60002091494030914A4040914B4050914C4005
:103D7000C501B4010E94B82F2B013C01609111587C
:103D80007091125890E080E00E94572F9B01AC0187
:103D9000C301B2010E943131F801618372838383D0
:103DA00094832AE037ED43E25EE366817781808584
:103DB00091850E94532F882331F1D80115961C92CA
:103DC0008AE097EDA3E2BEE3F80186839783A0879C
:103DD000B18712861386148615861686712C8091FB
:103DE000EF56781680F4F70182819381801791074E
:103DF00029F0848195818017910719F4872D0E94FD
:103E000044107394ECCF0A5E1F4FBFE5EB0EF11C1C
:103E1000CE14DF0409F0A4CF2D962CAC3DAC4EACF3
:103E20005FAC2D972092265E3092275E4092285EEE
:103E30005092295E87E89BE00E9426096091265EE9
:103E40007091275E8091285E9091295E42E050E05B
:103E500000CFCC24CA94CE0CEBE03E2E3C1408F4E8
:103E60009DC0AC2CB12C25E1C29E800111240554CB
:103E7000134A20E030E040E450E42D966CAD7DAD77
:103E80008EAD9FAD2D970E94B82F20914940309163
:103E90004A4040914B4050914C400E94B82F2B011A
:103EA0003C01609111587091125890E080E00E949E
:103EB000572F9B01AC01C301B2010E943131D801DF
:103EC00011966D937D938D939C93149716962D91D7
:103ED0003D914D915C911997A2966CAD7DAD8EADE3
:103EE0009FADA2970E94532F882309F457C0F80171
:103EF0001582A2962CAC3DAC4EAC5FACA29726824C
:103F00003782408651861286138614861586168659
:103F10008FE58A9D80018B9D100D1124095B174A46
:103F2000D801ED91FC914681578160857185F8013A
:103F3000408F518F628F738F2091EE56A090EC5678
:103F4000B090ED5690904640C89E60011124A501A6
:103F5000692DC601875A974A0E94010FD80112960F
:103F60002D913C91139714968D919C91159728173C
:103F70003907A1F0ED91FC9186819781A085B185EB
:103F8000F80180AB91ABA2ABB3AB2091EE56A5018B
:103F9000692DC6018F58974A0E94010F8701000FB3
:103FA000111F000F111F035E114A2D962CAC3DAC62
:103FB0004EAC5FAC2D97D8011D962D923D924D923F
:103FC0005C925097A2962CAC3DAC4EAC5FACA297E5
:103FD00095962D923D924D925C92989782E89BE047
:103FE0000E942609C7010E94500C8FEF90E40E94A6
:103FF000960BF801658576858785908942E00E9459
:10400000850C8AE79BE00E942609C7010E94500C9C
:104010008FEF90E40E94960BD80195966D917D915B
:104020008D919C91989712CFB1E0DB1235CD0E9413
:104030006D0C0E94210E30CD60E270E087E397E5C1
:104040000E94D232009771F56D2D81E00E94A80E7A
:104050008C010115110509F440C00130110509F466
:1040600043C02D966CAD7DAD8EAD9FAD2D970E945A
:104070009E31609337587093385882E08093395856
:1040800081E0809341582D966CAD7DAD8EAD9FAD96
:104090002D970E9499316093635E7093645E0E94D5
:1040A000550CFACCFC01E753F7457F016E2F81E0F8
:1040B0000E94A80E8C016D2D81E08E0D0E94A80E2D
:1040C000BC01990F880B990B0E94592F2D966CAF4C
:1040D0007DAF8EAF9FAF2D97BCCF109240581092FE
:1040E000B3041092625EBDCF81E08093405899E0A6
:1040F0009093B3048093625EB4CF88E397E50E9407
:10410000B92D882379F099278034910514F08FE335
:1041100090E08093235E80E79BE00E9426098091D7
:10412000235EC5CD81E090E0F4CF88E397E50E945F
:10413000B92D8F718093255E85E69BE00E9426094C
:104140008091255EB4CDF1E0DF12A6CC84E695E047
:104150000E948C0B80E290E00E94C50A882389F0BF
:10416000CE0101960E949D0A89819A8197FD09C01E
:1041700091958195910989839A83CE0101960E9438
:10418000200B86E395E00E948C0B68EC70E080E0E9
:1041900090E00E94BC090C9400007ECC2224239461
:1041A000D2107ACC8CE295E00E948C0B80E290E0F9
:1041B0000E94C50A81112AC019821A826FE4CE01B9
:1041C00001960E94FD0A44244394512C49825A824C
:1041D00065E4CE0101960E94FD0A62E0862E912CD4
:1041E00089829A826DE4CE0101960E94FD0A03E065
:1041F00010E009831A836FEFCE0101960E94FD0A39
:104200000F5F1F4F011522E0120799F74AE450E0B3
:1042100049835A8380E290E08B839C83CE01019690
:104220000E94200B01E21EE587E090E0D8016D912D
:104230008D017C01BFEFEB1AFB0A8BAB9CABCE016F
:10424000C3960E94FD0AC7018D34910579F790E06D
:1042500080E00E94C50A81111AC084E095E00E94A6
:1042600026094AE060E072E080E090E00E949C0B4A
:104270008EED94E00E948C0B60E072E090E080E0B4
:104280000E94D90B8CED94E00E9426090CC0CE014F
:1042900001960E949D0A8B819C81019649F48BE8CE
:1042A00094E00E948C0B0E94890B8BE095E0D5CBAB
:1042B0008EE794E00E9426096B817C8190E080E08B
:1042C0004AE00E949C0B09811A8117FF03C01195D7
:1042D000019511090450110980E794E00E94260914
:1042E000C8010E94500C89E694E00E942609898149
:1042F0009A8197FF04C08EE594E00E9426090E94EF
:10430000890BB80187E090E00E94D90B8CE594E01E
:10431000BBCFF1E0DF12C0CB0E946D0CBDCB42E001
:10432000242ED210B9CB1092245E8091385781335D
:1043300029F481E08093245E0E94B5100E94E00D74
:10434000ABCB3324339487E59BE0D310A5CB85CB4F
:1043500044244394D410A0CB8DE39BE00E948C0BAB
:104360000E94480BEDE9F8E5108211821282138257
:10437000E15AFF4F37ED832E3AE5932E8E169F06B6
:1043800099F710921A5810921B5810921C581092BC
:104390001D5882CB99249394D9107ECB03E715E066
:1043A000F801F490FF2061F0FAE0FF1203C08DE005
:1043B0000E9440098F2D0E9440090F5F1F4FF0CFD0
:1043C00081E795E04ACBBFE3BD1508F46DCBED2D39
:1043D000F0E0E95CF84A8083D394D092E85664CB4D
:1043E00080910804881F8827881FE5CB8091A80446
:1043F00083FB882780F9DFCB933009F4EECBD8011B
:104400001A968C93BFEFCB1ADB0A005F1F4FE3E0D5
:10441000CE16D10409F094CB8091F156882311F483
:104420000C94F52B1092F1562090F0562FAE822D61
:1044300090E006E1209EF0011124E954F24A26E1C1
:10444000833098F4348931110DC0289FD001299F01
:10445000B00D1124A954B24A50961D921D921D927E
:104460001C92539776960196EBCF1091EF56A39638
:104470001FAFA397812F90E02FE5129FD001112449
:10448000A756B74A25E18C30B8F51C963C911C978D
:1044900031112EC0289FF001299FF00D1124E55401
:1044A000F34A108A118A128A138AFD01EC54F10929
:1044B000108211821282138234961082118212822B
:1044C000138214821582168217821D921C921197F4
:1044D00012961D921C92139714961D921D921D9276
:1044E0001C92179718961D921D921D921C921B9755
:1044F0000196A15ABF4FC7CF27E438E5D7011796D9
:104500004D915C9118974115510589F013968D9145
:104510009D910D90BC91A02D840F951FA11DB11DE3
:10452000F70183839483A583B68317821086F0E115
:10453000EF0EF11C2E153F0509F7209047403090F3
:10454000484007EB1DE50BAF1CAF10E000E04FAC9F
:10455000041508F0EEC0780183E0EE0CFF1C8A958C
:10456000E1F7E20CF31CF701E058FF4F20813181A5
:10457000428153816481758186819781D1014D90FB
:104580005D906D907C900E94CE314B015C01C30127
:10459000B2010E94572F9B01AC01C501B4010E94DA
:1045A0003131B6E1B09F9001B19F300D1124F90176
:1045B000E954F24AEFABF8AF608B718B828B938B2F
:1045C000F70120853185428553856485758586850B
:1045D0009785D1014D905D906D907C90139780846C
:1045E00022968FAE229791846D969FAE6D97A2848E
:1045F0002E96AFAE2E97B3846296BFAE6297C484F8
:104600006696CFAE6697D5846A96DFAE6A97868443
:104610006B968FAE6B9797846C969FAE6C97CD9090
:10462000DD90ED90FC90AFA9B8AD50968D909D9027
:10463000AD90BC90539729968CAE9DAEAEAEBFAEFA
:1046400029970E94CA314B015C01C301B2010E944B
:10465000572F9B01AC01C501B4010E9431314B01C0
:104660005C0122962FAD22976D963FAD6D972E96E9
:104670004FAD2E9762965FAD629766966FAD669767
:104680006A967FAD6A976B968FAD6B976C969FAD70
:104690006C970E94CA319B01AC01C501B4010E9414
:1046A000B82F4B015C01C701B6010E94572F9B0137
:1046B000AC01C501B4010E9431319B01AC012996C6
:1046C0006CAD7DAD8EAD9FAD29970E94CC30EFA92A
:1046D000F8AD608B718B828B938B60897189828935
:1046E00093890E947732AFA9B8AD50966D937D93B0
:1046F0008D939C93539750966D917D918D919C9144
:104700005397EBADFCAD21813281438154810E94EE
:10471000B82FAFA9B8AD50966D937D938D939C93B0
:1047200053970F5F1F4FEBADFCAD7696EBAFFCAF31
:104730000ECFF10184819581A681B781808191811D
:10474000A281B3818091EE568091EC569091ED5606
:1047500009E918E521960EAF1FAF219707E418E588
:104760000FAB18AF6D961FAE6D974C01B12CA12CFD
:10477000EB968CAE9DAEAEAEBFAEEB97A3969FAC64
:10478000A3976D96AFAC6D979A1409F4B5C4AFA911
:10479000B8AD0D90BC91A02DABAFBCAF1F968C9166
:1047A000B8E08B9F80011124020D131DF801E05821
:1047B000FF4F2081318142815381648175818681DF
:1047C0009781F10180809180A280B3800E94CE31D8
:1047D0006B017C01C501B4010E94572F9B01AC0104
:1047E000C701B6010E943131ABADBCAD50966D939F
:1047F0007D938D939C935397F80120853185428555
:1048000053856485758586859785D1014D905D902A
:104810006D907C901397808422968FAE229791841E
:104820002E969FAE2E97A2846296AFAE6297B38407
:104830006696BFAE6697C4846A96CFAE6A97D584F3
:104840006B96DFAE6B97E6846C96EFAE6C97F78451
:104850006E96FFAE6E97CD90DD90ED90FC90ABAD77
:10486000BCAD50968D909D90AD90BC90539729967D
:104870008CAE9DAEAEAEBFAE29970E94CA314B0141
:104880005C01C301B2010E94572F9B01AC01C5011D
:10489000B4010E9431314B015C0122962FAD229769
:1048A0002E963FAD2E9762964FAD629766965FAD9E
:1048B00066976A966FAD6A976B967FAD6B976C96AD
:1048C0008FAD6C976E969FAD6E970E94CA319B011B
:1048D000AC01C501B4010E94B82F4B015C01C701B6
:1048E000B6010E94572F9B01AC01C501B4010E9483
:1048F00031319B01AC0129966CAD7DAD8EAD9FAD84
:1049000029970E94CC30EBADFCAD608B718B828B14
:10491000938B60897189828993890E947732ABADCC
:10492000BCAD50966D937D938D939C935397509609
:104930006D917D918D919C91539711968D909D9045
:10494000AD90BC90149761968CAE9DAEAEAEBFAEEE
:104950006197A50194010E94B82FEBADFCAD608B6F
:10496000718B828B938BF801E850FF4F208131814E
:10497000428153816481758186819781E858FF4F18
:10498000408062964FAE6297518066965FAE6697A2
:1049900082806A968FAE6A9793806B969FAE6B9774
:1049A000A4806C96AFAE6C97B5806E96BFAE6E97D6
:1049B000C680A496CFAEA497D780A596DFAEA59764
:1049C000D1018D909D90AD90BC90F801F085A69698
:1049D000FFAFA697D8011996BC91A796BFAFA7972E
:1049E000F801F285A896FFAFA897D8011B96BC9155
:1049F000A996BFAFA997F801F485AA96FFAFAA9729
:104A0000D8011D96BC91AB96BFAFAB97F801F68568
:104A1000AC96FFAFAC97D8011F96BC91AD96BFAFD7
:104A2000AD97F1014080518062807380AFA9B8AD2D
:104A300012960D90BC91A02D2796AEAFBFAF2797D1
:104A40001F96EC91F0E03196B3E0EE0FFF1FBA95A0
:104A5000E1F7E20DF31DC080AE96CFAEAE97D180E8
:104A6000AF96DFAEAF97E280E096EFAEE097F380CF
:104A7000E196FFAEE197C480E296CFAEE297D58093
:104A8000E396DFAEE397E680E496EFAEE497F78037
:104A9000E596FFAEE597D101CD90DD90ED90FC90CD
:104AA0002596CCAEDDAEEEAEFFAE25970E94CA31A4
:104AB000EFA9F8AD22A133A144A155A10E94B82FBE
:104AC0006B017C0162962FAD629766963FAD66974B
:104AD0006A964FAD6A976B965FAD6B976C966FADAC
:104AE0006C976E967FAD6E97A4968FADA497A596A2
:104AF0009FADA5970E94CA31AFA9B8AD96962D91EA
:104B00003D914D915C9199970E94B82F9B01AC010A
:104B1000C701B6010E94CD306B017C01C501B40113
:104B20000E94572F9B01AC01C701B6010E94313191
:104B30006B017C01A6962FADA697A7963FADA797D0
:104B4000A8964FADA897A9965FADA997AA966FAD05
:104B5000AA97AB967FADAB97AC968FADAC97AD9661
:104B60009FADAD970E94CA314B015C01C301B201F8
:104B70000E94572F9B01AC01C501B4010E94313145
:104B80004B015C01AE962FADAE97AF963FADAF97A0
:104B9000E0964FADE097E1965FADE197E2966FAD9D
:104BA000E297E3967FADE397E4968FADE497E596C1
:104BB0009FADE5970E94CA319B01AC01C501B401CC
:104BC0000E94B82F4B015C0125966CAD7DAD8EAD7A
:104BD0009FAD25970E94572F9B01AC01C501B401E1
:104BE0000E9431319B01AC01C701B6010E94CC305B
:104BF0006B017C012796EEADFFAD279721813281B5
:104C00004381548161966CAD7DAD8EAD9FAD619752
:104C10000E94B82FA70196010E94B82F65966CAF2D
:104C20007DAF8EAF9FAF6597AFA9B8AD14960D90CD
:104C3000BC91A02D2396AEAFBFAF239727964EAC65
:104C40005FAC279720E030E0A9014A165B0609F423
:104C500057C1F801E851FE4F50806A965FAE6A97DF
:104C600081806B968FAE6B9792806C969FAE6C979F
:104C7000A3806E96AFAE6E97B480A496BFAEA49795
:104C8000C580A596CFAEA597D680A696DFAEA6978F
:104C9000E780A796EFAEA797E858FF4F20813181B4
:104CA000428153816481758186819781D1018D9084
:104CB0009D90AD90BC90F801F085A896FFAFA897A5
:104CC000D8011996BC91A996BFAFA997F801F285B2
:104CD000AA96FFAFAA97D8011B96BC91AB96BFAF1F
:104CE000AB97F801F485AC96FFAFAC97D8011D9651
:104CF000BC91AD96BFAFAD97F801F685AE96FFAF0C
:104D0000AE97D8011F96BC91AF96BFAFAF97F10198
:104D100040805180628073802396AEADBFAD2397F3
:104D20001F96EC91F0E03196A3E0EE0FFF1FAA95DD
:104D3000E1F7E20DF31DC080E096CFAEE097D180A1
:104D4000E196DFAEE197E280E296EFAEE297F38084
:104D5000E396FFAEE3970481E4960FAFE4971581E5
:104D6000E5961FAFE597C680E696CFAEE697D7806B
:104D7000E796DFAEE797D101ED90FD900D911C9184
:104D80006996ECAEFDAE0EAF1FAF69970E94CA31B7
:104D9000EFA9F8ADFE9620813181428153810E94B6
:104DA000B82F6B017C016A962FAD6A976B963FAD69
:104DB0006B976C964FAD6C976E965FAD6E97A496A1
:104DC0006FADA497A5967FADA597A6968FADA69734
:104DD000A7969FADA7970E94CA31EFA9F8AD22AD63
:104DE00033AD44AD55AD0E94B82F9B01AC01C70156
:104DF000B6010E94CD306B017C01C501B4010E9457
:104E0000572F9B01AC01C701B6010E9431316B01E4
:104E10007C01A8962FADA897A9963FADA997AA9611
:104E20004FADAA97AB965FADAB97AC966FADAC9715
:104E3000AD967FADAD97AE968FADAE97AF969FAD69
:104E4000AF970E94CA314B015C01C301B2010E94BD
:104E5000572F9B01AC01C501B4010E9431314B01B8
:104E60005C01E0962FADE097E1963FADE197E296C9
:104E70004FADE297E3965FADE397E4966FADE497AD
:104E8000E5967FADE597E6968FADE697E7969FAD01
:104E9000E7970E94CA319B01AC01C501B4010E9491
:104EA000B82F4B015C0169966CAD7DAD8EAD9FADA9
:104EB0006997FDD79B01AC01C501B4010E94313156
:104EC0009B01AC01C701B6010E94CC306B017C0193
:104ED0002396AEADBFAD239711962D913D914D9187
:104EE0005C91149761966CAD7DAD8EAD9FAD619771
:104EF0000E94B82FA70196010E94B82F9B01AC0118
:104F000065966CAD7DAD8EAD9FAD65970E94CC3042
:104F10004B015C0127964EAC5FAC27972396CEAC35
:104F2000DFAC239720E030E0A9014C145D0439F494
:104F3000D20150962D913D914D915C915397EBADDF
:104F4000FCAD60897189828993890E94B82F2B01F9
:104F50003C01AC019B01C501B4010E9431316B01E0
:104F60007C0126E636E646E85FE30E946F321816BB
:104F70000CF4B9C026E636E646E85FEBC701B60199
:104F800092D787FDB0C0A7019601C701B6010E9464
:104F9000B5328111A8C02196AEADBFAD219718964C
:104FA000CD92DD92ED92FC921B9720E030E040E044
:104FB0005FE3C501B4010E94CD300E949931219672
:104FC000AEADBFAD21976D937C9320E030E040E023
:104FD0005FE3C301B2010E94CD300E949931219656
:104FE000EEADFFAD219762837383D1016D917D9109
:104FF0008D919C911091EE565AD7A5019401B8D786
:105000006B017C01EB966CAD7DAD8EAD9FADEB97EA
:105010004ED79B01AC01C701B601AAD76B017C0139
:10502000612F70E090E080E044D79B01AC01C701A4
:10503000B6019ED720E836E948E15BE40E943131B1
:10504000EFA9F8AD26813781408551850E94CD308A
:105050006B017C0120E030E041E655E40E943131F3
:105060000E949931072E000C880B990B2196AEAD4A
:10507000BFAD219714960D911D912D913C911797DD
:10508000060F171F281F391FFD0104831583268370
:1050900037830FD720E030E041E655E469D79B0124
:1050A000AC01C701B6010E94CC30AFA9B8AD1696CD
:1050B0006D937D938D939C9319976D960FAD6D971E
:1050C0000F5F6D960FAF6D97A15ABF4FAFABB8AFE3
:1050D00021960EAD1FAD2197015A1F4F21960EAF9D
:1050E0001FAF21974BCB2196EEADFFAD21971086D8
:1050F00011861286138659CF80911358882309F49C
:105100004FC0E0911658F0E0319613E0EE0FFF1F0C
:105110001A95E1F7E20DF31D20813181428153811F
:105120006481758186819781D1018D909D90AD902C
:10513000BC900E94CA316B017C01C501B401B7D695
:105140009B01AC01C701B6010E9431316B017C01AA
:1051500060911158709112587695679590E080E0B3
:10516000A6D69B01AC01C701B6010E94CD3020E05C
:1051700030E040E05FE30E94CD300E949E316093BA
:10518000145870931558C10188529D4F821593058C
:1051900061F0F101108281010F5F1F4F1801F6CFFE
:1051A0001092145810921558EECF8091FE5690919F
:1051B000FF56A0910057B0910157892B8A2B8B2B5A
:1051C00099F480E00E94790E65E070E080E090E064
:1051D0000E94BC0960915E5E70915F5E8091605E2E
:1051E0009091615E0E94220A8091FE569091FF5636
:1051F000A0910057B09101570196A11DB11D809358
:10520000FE569093FF56A0930057B0930157A2E02B
:105210004A2EA7E55A2E720110E000E0B6E1DB2E1F
:10522000D09EF001D19EF00D1124E954F24A60891C
:1052300071898289938920E030E048EC52E498D665
:105240000E949931D7016D937D937D010F5F1F4FB0
:105250000330110529F7E4E16E2EE7E57E2EF8E034
:10526000CF2EF7E5DF2E82EF96E5A6019301ABEB9B
:10527000BCE51FE554960C91549770E060E0002364
:1052800049F0FC016081169FF0011124E756F74AAE
:1052900060817181FA0161937193AF01812C912C2E
:1052A0005401002359F0FC016081169FF001112484
:1052B000E356F74A80809180A280B380F901819201
:1052C0009192A192B1929F0155960196FDE5A93365
:1052D000BF0781F680913A5890913B58A0913C5875
:1052E000B0913D5880932C5790932D57A0932E57F3
:1052F000B0932F578091245E882309F487C082E3FE
:10530000EEEFF6E5DE01119601900D928A95E1F738
:10531000F12CF092685E8DE30E947906682F64603C
:105320008DE30E946C060E94ED094B015C018091A7
:105330007757803109F062C28091315781115EC286
:1053400084E20E94790690E09195819591098C34D0
:105350009F4F0CF053C284E00E94850684E00E94B7
:10536000850687E20E94790687FFFBCF0E945E06D2
:1053700080E80E94470685E30E94470685E00E9478
:1053800047068091675E0E94470680E40E944706B8
:105390008E010F5F1F4FD8018D918D010E9447062E
:1053A0002DA83EA802151305B1F70E9439068CE01E
:1053B0000E94850688E20E94790683FFFBCF84E085
:1053C0000E9485060E94ED094B015C010E94ED09D7
:1053D000681979098A099B096E3171058105910562
:1053E00008F01BC20E94720D882381F3809134570C
:1053F00090913557059751F780913057882331F3B5
:1054000062E370E080E090E00E94BC098090FE566C
:105410009090FF56A0900057B09001578091665E23
:10542000882309F400C286E09CE00E9426094AE035
:10543000C501B4010E949C0B01E010E082E09CE0F9
:105440000E942609C8010E94500C84E191E40E9448
:10545000960BD2016D917D912D01072E000C880BCA
:10546000990B27D52AE037ED43E25CE381D542E092
:105470000E94850C0F5F1F4F04301105F9F601E003
:1054800010E08EEF9BE00E942609C8010E94500C9C
:1054900084E191E40E94960BF601819191916F0154
:1054A0000E94500C0F5F1F4F0730110551F701E0AC
:1054B00010E08AEF9BE00E942609C8010E94500C70
:1054C00084E191E40E94960BD3016D917D918D91C1
:1054D0009D913D010E94290C0F5F1F4F0730110560
:1054E00041F78091625E882379F080EF9BE00E9413
:1054F000260960912C5770912D5780912E579091CD
:105500002F574AE00E949C0B8EEE9BE00E948C0B72
:105510006CE370E080E090E00E94BC0981E00E94B2
:10552000790E62E370E080E090E00E94BC0980E0C8
:105530000E94790E20902C5730902D5740902E5776
:1055400050902F572FAA38AE49AE5AAE40902857E8
:105550005090295760902A5770902B57809124576C
:1055600090912557A0912657B091275740912057E9
:1055700050912157609122577091235700911C57E9
:1055800010911D5720911E5730911F57C0901857EA
:10559000D0901957E0901A57F0901B5780901457ED
:1055A00090901557A0901657B0901757E091F95D5D
:1055B000F091FA5D14012E1A3F0AF10137FE03C083
:1055C000F195E195F109E83CF1050CF064C0E0913A
:1055D000FD5DF091FE5D16012E1A3F0AF10137FEC6
:1055E00003C0F195E195F109E83CF1050CF053C0D9
:1055F000E091015EF091025E18012E1A3F0AF1015E
:1056000037FE03C0F195E195F109E83CF1050CF096
:1056100042C0E091055EF091065E1A012E1A3F0A23
:10562000F10137FE03C0F195E195F109E83CF10580
:1056300094F5E091095EF0910A5E1C012E1A3F0A72
:10564000F10137FE03C0F195E195F109E83CF10560
:1056500014F5E0910D5EF0910E5E12012E1A3F0AD4
:10566000F10137FE03C0F195E195F109E83CF10540
:1056700094F4E091115EF091125E2FA838AC2E1ACE
:105680003F0AF10137FE03C0F195E195F109E83CCD
:10569000F1050CF4AAC08092F95D9092FA5DA09297
:1056A000FB5DB092FC5DC092FD5DD092FE5DE0922C
:1056B000FF5DF092005E0093015E1093025E209306
:1056C000035E3093045E4093055E5093065E6093E4
:1056D000075E7093085E8093095E90930A5EA093C4
:1056E0000B5EB0930C5E40920D5E50920E5E609227
:1056F0000F5E7092105E8FA898ACA9ACBAAC809285
:10570000115E9092125EA092135EB092145E0091B0
:10571000195E10911A5E0115110549F1C8019571C4
:1057200089839A83CE0101960E94960A90E0809325
:105730001B5E90931C5E09831A836FEFCE01019666
:105740000E94FD0A8091195E90911A5E2091175E69
:105750003091185E820F931F8093195E90931A5EAA
:1057600020911F5E3091205E8217930744F0809154
:105770001D5E90911E5E8093195E90931A5E8091DB
:105780001B5E90911C5E880F991F992781608F3F47
:10579000910509F432C180931B5E90931C5E609169
:1057A0001B5E8091195E90911A5E89839A83CE0167
:1057B00001960E94FD0A8091195E90911A5E09EF90
:1057C0001DE59C01285F3D457901C701800F911FB0
:1057D00089839A83D8016D918D01CE0101960E9433
:1057E000FD0ABEE505311B0781F7A89564E170E06D
:1057F00080E090E00E94BC090C94AD1C0E94ED0971
:10580000681979098A099B09683E734081059105E9
:1058100008F0A4CD0E94720D8ACDF39473E0372E68
:10582000F31077CDEDCD89EE9BE00E9426094AE08A
:10583000C501B4010E949C0B01E010E086EE9BE0E4
:105840000E942609C8010E94500C85E191E40E9443
:10585000960BF201619171912F01072E000C880BBC
:10586000990B27D32AE037ED43E25CE381D342E092
:105870000E94850C0F5F1F4F04301105F9F601E0FF
:1058800010E083EE9BE00E942609C8010E94500CA4
:1058900085E191E40E94960BD6018D919D916D0159
:1058A0000E94500C0F5F1F4F0730110551F701E0A8
:1058B00010E080EE9BE00E942609C8010E94500C77
:1058C00085E191E40E94960BF301619171918191C0
:1058D00091913F010E94290C0F5F1F4F0730110566
:1058E00041F78091625E882379F088ED9BE00E9409
:1058F000260960912C5770912D5780912E579091C9
:105900002F574AE00E949C0B8091655E811107C071
:105910000E94890B68E270E080E090E0FDCD5BEBD7
:10592000E52E5CE5F52E10E000E065E1B62E85ED94
:105930009BE00E94260968010F5F1F4FC8010E946B
:10594000500C85E191E40E94960BD70154968C91FE
:10595000882309F44AC0BC9CF001BD9CF00D1124C1
:10596000E554F34A608971898289938943E00E94F2
:10597000850CB5E1EB0EF11C06301105C1F63BEBD1
:10598000E32E3CE5F32E01E010E04FE5D42E81ED4F
:105990009BE00E942609C8010E94500C85E191E419
:1059A0000E94960BF7018489882319F1F801EF50C2
:1059B000F94AE081DE9EF0011124EF55F74A60813B
:1059C00071818281938144E00E94850C0F5F1F4F9B
:1059D000F5E1EF0EF11C07301105C9F60E94890BA5
:1059E00060E570E080E090E097CD60E070E0CB0192
:1059F000BDCF60E070E0CB01E6CF8EEF90E0CBCE84
:105A00006D2D81E00E94A80E7C010C94941E602FE5
:105A100081E00E94A80E7C016D2D8C2D0E94D40E79
:105A20002D966CAF7DAF8EAF9FAF2D970C94941ECB
:105A30008F929F92AF92BF92CF92DF92EF92FF929E
:105A4000CF93DF93EC01688179818A819B81611515
:105A500071058105910521F464E279ED8BE597E00C
:105A60002DE133EF41E050E03AD349015A019B0167
:105A7000AC01A7EAB1E44FD36B017C01ACEEB4EF0B
:105A8000A501940154D3C60ED71EE81EF91EF7FED9
:105A900006C081E0C81AD108E10880E8F80AC88287
:105AA000D982EA82FB82C701B6019F77DF91CF914D
:105AB000FF90EF90DF90CF90BF90AF909F908F902E
:105AC00008958F929F92AF92BF92CF92DF92EF9202
:105AD000FF9260914D4070914E4080914F40909167
:105AE0005040611571058105910521F464E279ED5D
:105AF0008BE597E02DE133EF41E050E0F0D2490132
:105B00005A019B01AC01A7EAB1E405D36B017C010A
:105B1000ACEEB4EFA50194010AD3C60ED71EE81E61
:105B2000F91EF7FE06C081E0C81AD108E10880E836
:105B3000F80AC0924D40D0924E40E0924F40F09211
:105B40005040C701B6019F77FF90EF90DF90CF9054
:105B5000BF90AF909F908F90089560934D40709349
:105B60004E4080934F40909350400895662777278A
:105B700025C0FC0188279927E89421912032E9F378
:105B8000293010F02E30C8F32B3239F02D3231F499
:105B9000689403C00BD0820F911D219120532A30AD
:105BA000C8F31EF4909581959F4F08957AE0979FD2
:105BB000902D879F802D910D112408958F929F9293
:105BC000AF92BF92CF92DF92EF92FF920F931F930B
:105BD000CF93DF935C017B016115710519F0DB0147
:105BE0008D939C9385010F5F1F4FF501D0818D2F01
:105BF00090E039D16C01892BA9F5DD32A9F50F5F51
:105C00001F4FD5011196DC91C1E05801F1E0AF1AA8
:105C1000B10843E050E06CEF72E0C5012CD1892B54
:105C200061F5680182E0C80ED11C45E050E067EFE5
:105C300072E0C60120D1892B21F4680197E0C90EDA
:105C4000D11CE114F10419F0D701CD92DC9260E08F
:105C500070E080E89FEFC111F9C060E070E080E87B
:105C60009FE7F4C05801BECFDB3229F485010E5FF7
:105C70001F4FF501D181C0E0C8CF43E050E064EF91
:105C800072E0C501F8D0892BE9F0F80110E000E0DE
:105C900020E030E0A9015F01B0ED8B2E8D0E89E090
:105CA0008815C0F19C2E689491F88C2F8870C2FFE3
:105CB00016C0811102C00F5F1F4F3196D501DC91D4
:105CC000C92DE9CFE114F10429F00E5F1F4FF70150
:105CD0000083118360E070E080EC9FE7B7C0882309
