:1002000015C5000045C5000043C500000C942E1123
:100210003FC500003DC500003BC5000039C50000DA
:100220000C94ED1135C5000033C5000031C5000048
:100230002FC500002DC500002BC5000029C50000FA
:1002400027C5000025C5000023C5000021C500000A
:100250001FC500001DC500001BC5000019C500001A
:1002600017C5000015C500000C94091211C5000047
:100270000FC500000DC500000BC500000C94361121
:1002800007C5000005C5000003C500000C94DB1184
:10029000FFC40000FDC40000FBC40000F9C400005E
:1002A000F7C40000F5C40000F3C40000F1C400006E
:1002B000EFC40000EDC40000EBC40000E9C400007E
:1002C000E7C40000E5C40000E3C40000E1C400008E
:1002D000DFC400000C9458110C9452110C945E1160
:1002E000D7C40000D5C40000D3C40000D1C40000AE
:1002F000CFC400004E414E494E495459494E46CD57
:10030000CCCC3D0AD7233C17B7D13877CC2B3295CC
:1003100095E6241FB14F0A000020410000C84200AA
:10032000401C4620BCBE4CCA1B0E5AAEC59D747004
:100330006861736500766F6C74616765203D2000AD
:10034000656D6F6E547834006861726477617265B0
:10035000203D200076657273696F6E203D20006637
:1003600069726D77617265203D20656D6F6E5F44C7
:10037000425F364354006A736F6E203D206F66669D
:10038000006A736F6E203D206F6E00646174616C53
:100390006F67203D20002C20694C65616400694333
:1003A000616C007643616C203D20004C6F77506F8C
:1003B0007765724C616273002C207266466F726DB5
:1003C0006174203D20002C207266506F776572208A
:1003D0003D20002C2072664E6F6465203D20002079
:1003E0004D487A2C20726647726F7570203D200050
:1003F0005246203D206F6E2C20726642616E642052
:100400003D20005246203D206F6666006D73002C33
:100410002070756C7365506572696F64203D2000B3
:100420006F66660070756C7365203D20004E6F200E
:10043000454550524F4D20636F6E666967004C6FA3
:100440006164656420454550524F4D20636F6E6670
:100450006967007672656661203D20000A002028E9
:1004600068696464656E292E002062797465730082
:100470002C20446174612073697A653A200020530E
:1004800069676E61747572653A20004E6F20646111
:10049000746120626C6F636B20666F756E64202DD3
:1004A00020454550524F4D20617070656172732038
:1004B000746F20626520666F726D6174746564206C
:1004C000746F204F454D205374616E6461726420D7
:1004D00062757420756E757365642E000A00206263
:1004E000797465732C206E6F7420666F726D617401
:1004F00074656420746F204F454D205374616E64A1
:100500006172640053697A653A2000446F6E652E0B
:10051000204E657720636F6E66696720736176652C
:100520006420746F20454550524F4D0053617669E9
:100530006E672E2E2E00536B657463682077696C8E
:100540006C206E6F7720726573746172742075739E
:10055000696E672064656661756C7420636F6E6692
:1005600069672E00526573657474696E672E2E2E4E
:100570000020000A417661696C61626C6520636FDE
:100580006D6D616E64733A0A6C09092D206C697394
:1005900074207468652073657474696E67730A7279
:1005A00009092D20726573746F726520736B657411
:1005B00063682064656661756C74730A7309092D3C
:1005C00020736176652073657474696E6773207437
:1005D0006F20454550524F4D0A7609092D2073680A
:1005E0006F77206669726D776172652076657273C8
:1005F000696F6E0A7A09092D207A65726F20656E1F
:10060000657267792076616C7565730A7809092DC2
:1006100020657869742C206C6F636B20616E642098
:10062000636F6E74696E75650A3F09092D207368E2
:100630006F772074686973207465787420616761CE
:10064000696E0A0A773C783E09092D207475726E2E
:100650002052464D20576972656C65737320646142
:100660007461206F66663A2078203D2030206F72DA
:10067000206F6E3A2078203D20310A623C6E3E09A0
:10068000092D2073657420722E662E2062616E64BF
:10069000206E203D20612073696E676C65206E7549
:1006A0006D6572616C3A2034203D203433334D48FF
:1006B0007A2C203439203D203433332E39324D48C2
:1006C0007A2C2038203D203836384D487A2C203975
:1006D000203D203931354D487A20286D61792072CE
:1006E00065717569726520686172647761726520F1
:1006F0006368616E6765290A703C6E6E3E09092D5C
:10070000207365742074686520722E662E20706FC9
:100710007765722E206E6E202D20616E20696E74BA
:10072000656765722030202D20333120726570722C
:100730006573656E74696E67202D31382064426D73
:1007400020746F202B31332064426D2E2044656667
:1007500061756C743A20323520282B372064426D45
:10076000290A673C6E6E6E3E092D20736574204E1B
:100770006574776F726B2047726F757020206E6E94
:100780006E202D20616E20696E7465676572202869
:100790004F454D2064656661756C74203D20323193
:1007A00030290A6E3C6E6E3E09092D207365742057
:1007B0006E6F6465204944206E3D20616E20696E35
:1007C000746567657220287374616E646172642059
:1007D0006E6F6465206964732061726520312E2E0E
:1007E0003630290A0A643C78782E783E092D207824
:1007F000782E78203D206120666C6F6174696E6789
:1008000020706F696E74206E756D62657220666F00
:10081000722074686520646174616C6F6767696ECB
:100820006720706572696F640A633C6E3E09092D2A
:10083000206E203D203020666F72204F46462C20CF
:100840006E203D203120666F72204F4E2C20656E49
:1008500061626C6520766F6C746167652C206375CE
:100860007272656E74202620706F776572206661E3
:1008700063746F722076616C75657320746F20737A
:10088000657269616C206F757470757420666F7223
:100890002063616C6962726174696F6E2E200A6AEE
:1008A0003C6E3E09092D207475726E204A534F4EDE
:1008B0002053657269616C20666F726D6174206F80
:1008C0006E20283129206F72206F6666202830291B
:1008D0002E0A663C78783E09092D207878203D2044
:1008E000746865206C696E65206672657175656EE9
:1008F000637920696E20487A3A206E6F726D616C60
:100900006C7920656974686572203530206F7220BB
:1009100036300A6B3C783E203C79792E793E203C7B
:100920007A7A2E7A3E0A09092D2043616C69627237
:1009300061746520616E20616E616C6F6775652002
:10094000696E707574206368616E6E656C3A0A0931
:1009500009202078203D20612073696E676C652036
:100960006E756D6572616C3A2030203D20766F6C3B
:10097000746167652063616C6962726174696F6E2E
:100980002C2031203D206374312063616C696272D8
:100990006174696F6E2C2032203D206374322063B5
:1009A000616C6962726174696F6E2C206574630A90
:1009B0000909202079792E79203D206120666C6F0D
:1009C0006174696E6720706F696E74206E756D62F8
:1009D000657220666F722074686520766F6C746132
:1009E00067652F63757272656E742063616C6962EE
:1009F000726174696F6E20636F6E7374616E740AD6
:100A0000090920207A7A2E7A203D206120666C6FB9
:100A10006174696E6720706F696E74206E756D62A7
:100A2000657220666F7220746865207068617365F6
:100A30002063616C6962726174696F6E20666F72A7
:100A4000207468697320632E742E20287A206973BD
:100A5000206E6F74206E65656465642C206F722053
:100A600069676E6F72656420696620737570706C5B
:100A70006965642C207768656E2078203D203029D8
:100A80000A09092020652E672E206B30203235366A
:100A90002E380A0909202020202020206B312039FF
:100AA000302E3920322E30300A6D3C783E203C7991
:100AB000793E092D206D657465722070756C7365C3
:100AC00020636F756E74696E673A0A0909202020E9
:100AD00078203D203020666F72204F46462C2078CB
:100AE000203D203120666F72204F4E2C203C7979BA
:100AF0003E203D20616E20696E74656765722066D8
:100B00006F72207468652070756C7365206D696EF6
:100B1000696D756D20706572696F6420696E206DF6
:100B2000732E202879206973206E6F74206E65659E
:100B30006465642C206F722069676E6F7265642033
:100B40007768656E2078203D2030290A00456E6563
:100B50007267792076616C75657320736574207493
:100B60006F207A65726F00436F6E74696E75696E7F
:100B7000672E2E2E007266506F776572203D200022
:100B800072664E6F6465203D20002C20694C6561C3
:100B900064006943616C007643616C203D20007203
:100BA0006647726F7570203D200066726571203D4A
:100BB0002000646174616C6F67203D20006A736F70
:100BC0006E203D206F6666006A736F6E203D206F59
:100BD0006E00204D487A00726642616E64203D20AE
:100BE000002C7066002C49002C70756C73653A00FF
:100BF0002C45002C50002C56004D53473A007D00E8
:100C00002C2270756C7365223A002C2245002C2230
:100C100050002C2256007B224D5347223A000A00F6
:100C200000080A400CFFC000C0005B1611241FBE64
:100C3000CFEFCDBFDFE7DEBF80E38093011088ED0B
:100C400090EB84BF9093011011E4A0E0B0E4EAECD3
:100C5000F5E600E00BBF02C007900D92A031B1078E
:100C6000D9F72EE5A0E1B1E401C01D92A436B20788
:100C7000E1F716E0C6E1D6E004C02197FE010E942C
:100C8000B732C531D107C9F70E949D170C94E332E2
:100C9000B7CA80915D5E8D3011F42D9A089587302A
:100CA00011F40F9A0895813109F44B9A08950000C8
:100CB0009091615E911109C080934409809143092C
:100CC00087FFFCCF80914409089580936409809147
:100CD000630987FFFCCF80916409089580915D5E70
:100CE0008D3011F42D980895873011F40F980895E0
:100CF000813109F44B980895CF93DF93D82FC62FF5
:100D0000EDDF8D2F8068D3DF8C2FD1DFDF91CF9186
:100D1000C0CFCF93C82FE2DF8C2FC9DF80E0C7DFC1
:100D2000C82FB7DF8C2FCF910895CF92DF92EF922B
:100D3000FF92CF93DF936A01815096E1899FE00192
:100D40001124C555D24A888323EA33E240E051E4B6
:100D5000CB01B6010E94AF2F2091494030914A400B
:100D600040914B4050914C400E94AF2F6B017C0151
:100D7000609105587091065890E080E00E944E2FD7
:100D80009B01AC01C701B6010E94283169837A83B7
:100D90008B839C831D828AE097EDA3E2BEE38E8362
:100DA0009F83A887B9871A861B861C861D861E8688
:100DB000DF91CF91FF90EF90DF90CF900895079A49
:100DC00020E533EC93E0179A44E1F9013197F1F70C
:100DD0004150D9F7482F179AF9013197F1F7179A2F
:100DE00059E0F9013197F1F75150D9F7415099F78E
:100DF000915049F7E7CF9FB7F894E0912A0BF09113
:100E00002B0B8091260B2091245730912557409130
:100E10002657509127579FBF80FF08C0CF018827D2
:100E2000892B21F42F5F3F4F4F4F5F4F0F011694D7
:100E30000794169407941694079416940794F00157
:100E400016940794E00DF11D16940794102C169437
:100E500001181694010C169401181694010C16949E
:100E6000011816941694010C1124E019F109A8EE4A
:100E7000B3E00E9482306E0F7F1F811D911D089587
:100E8000CF92DF92EF92FF92CF93DF936B017C01C1
:100E9000B2DFEB01C114D104E104F10471F0ABDF66
:100EA0006C1B7D0B683E7340A8F381E0C81AD10823
:100EB000E108F108C851DC4FEDCFDF91CF91FF90F1
:100EC000EF90DF90CF9008952FB7F894609124575A
:100ED0007091255780912657909127572FBF0895DD
:100EE000CF92DF92EF92FF92CF9390916F57981726
:100EF000E9F0C82F81E00DDF837E682F6C2B81E045
:100F0000FBDEE2DF6B017C0180916F57811114C021
:100F100087E2FFDE87FD10C0D7DF6C197D098E09DF
:100F20009F09643671058105910570F3CF91FF909B
:100F3000EF90DF90CF900895C0936F57F7CF0F9346
:100F40001F93CF93DF93EC0184E0CADF2097D9F0A1
:100F500088818823C1F0C2DE8EEBA9DE8E01005F9E
:100F60001F4F8991A4DEC017D107D9F792DEC1E0E7
:100F70008DE3CFDE8E7F682F6C2B8DE3DF91CF91D9
:100F80001F910F91B9CEC0E0F3CF10922E5710925F
:100F90002C5710922D5710922A5710922B571092BF
:100FA00029571092285788E2B4DE82FF06C08DE3ED
:100FB000B0DE682F64608DE39FDE80E191CFAF9259
:100FC000BF92CF92DF92EF92FF920F931F93CF9336
:100FD000DF936C017B018B01040F151FEB015E0198
:100FE000AE18BF08C017D10759F06991D601ED912D
:100FF000FC910190F081E02DC6010995892B79F7CC
:10100000C501DF91CF911F910F91FF90EF90DF907D
:10101000CF90BF90AF900895FC0151894289252F50
:1010200030E0842F90E0821B930B541710F0CF9682
:10103000089501970895FC0197858089981761F0BC
:10104000A089AE0FBF2FB11D53968C9190899F5FE1
:101050009F73908B90E008958FEF9FEF0895FC01B0
:1010600097858089981731F08089E80FF11D838971
:1010700090E008958FEF9FEF0895FC0197852089F8
:10108000892F90E0805C9F4F821B91098F73992775
:101090000895FC010FB607FE04C08091110188235A
:1010A000A9F0A085B18514968C91149785FF0EC088
:1010B00091898289981307C015968C9115978F7D19
:1010C00015968C930895E8940C946B1108950F93E2
:1010D0001F93CF93DF93EC018E8581608E87998972
:1010E0008A8998130BC0E885F985848185FF06C03D
:1010F0008E8581FD0DC080E4848312C0062F19897E
:101100001F5F1F738A89811315C0CE01C2DFFACF1A
:1011100085818F77806490E49483E885F985858361
:10112000E885F985628381E090E0DF91CF911F919E
:101130000F910895E989EC0FFD2FF11DED5AFF4F36
:101140000083198B8E85E885F98581FF09C085812B
:101150008F77806690E49483E885F9858583E3CF73
:1011600085818062FBCF0F931F93CF93DF938C0118
:10117000D0E0C0E0F801EC0FFD1F6491662339F068
:1011800080E797E5A4DF892B11F02196F3CFCE01FC
:10119000DF91CF911F910F910895682F80E797E518
:1011A00096CFCF93DF93EC018E85882359F0E885A5
:1011B000F985858185FD03C0848186FD03C0CE014C
:1011C00068DFF5CFDF91CF91089581509091E3567C
:1011D0002FE5929FF0011124E55CF74A45E1849FD9
:1011E000900111242155334A20833183615026E137
:1011F000629FB00111246555724A628373836483D0
:101200007583E25AFF4F21E02083E82FF0E0EA5196
:10121000F94A90839F5F9093E35608958F929F922F
:10122000AF92BF92CF92DF92EF92FF920F93CF9344
:101230006B017C0120E030E040E05FE30E944A2F38
:1012400087FF05C0C12CD12CE12C8FE3F82EC09272
:101250000540D0920640E0920740F092084080900E
:10126000E0569090E156C091E25620E836E948E118
:101270005BE4C701B6010E94AF2F6B017C01B12C6A
:10128000A12CC501B4010E944E2F9B01AC01C701E6
:10129000B6010E9428310E9495316B017C0160E803
:1012A00076E988E990E0A50194010E949230CA0194
:1012B000B90100914640202F30E050E040E00E940C
:1012C000923044275527C701B601621B730B840B6C
:1012D000950B2C2F30E050E040E00E94923020939C
:1012E000D2563093D3564093D4565093D556CF917F
:1012F0000F91FF90EF90DF90CF90BF90AF909F90B5
:101300008F900895DC01ED91FC91F170FC5E80817D
:101310000895CF92DF92EF92FF920F931F93CF9396
:10132000DF9300D0CDB7DEB76C017C0103E010E0A5
:1013300009831A83CE010196E5DFF70181937F01CE
:101340000F5F1F4F0730110599F7C6010F900F90DF
:10135000DF91CF911F910F91FF90EF90DF90CF9091
:1013600008950F931F93CF93DF9300D000D0CDB794
:10137000DEB78C0119821A82CE010196C3DF8F3449
:10138000F9F481E090E089839A83CE010196BADF77
:101390008534B1F482E090E089839A83CE0101968E
:1013A000B1DF8D3469F481E00115110551F0CE01F2
:1013B0000196AFDF81E02B813C812017310709F0D6
:1013C00080E02496CDBFDEBFDF91CF911F910F91BA
:1013D00008951F93CF93DF93EC01162F93DF8117AE
:1013E000B1F09FB780910210282F227081FDFACFB3
:1013F000F8948DE984BF2093001023E184BF2093EB
:101400000010E881F981F170FC5E10839FBFCE016E
:10141000DF91CF911F910895CF92DF92EF92FF92CB
:101420000F931F93CF93DF9300D0CDB7DEB76C013E
:101430007C0103E010E009831A83F70161917F01C9
:10144000CE010196C6DF0F5F1F4F0730110599F7D8
:10145000C6010F900F90DF91CF911F910F91FF90D8
:10146000EF90DF90CF9008950F931F93CF93DF936A
:1014700000D0CDB7DEB70091115E1091125E809161
:10148000135E9091145E081719079CF4C8019571BA
:1014900089839A836FEFCE0101969BDF10920D5ED8
:1014A00010920E5E80910B5E90910C5E080F191FDA
:1014B000E6CF0F900F90DF91CF911F910F9108957C
:1014C000FC0101900020E9F73197AF01481B590B4F
:1014D000BC0180E797E573CD8EED90E4F1CFCF931B
:1014E000DF9341DEEC01F8DF8C0F9D1FDF91CF9180
:1014F0000895009709F0E4CF90E080E008958F927E
:101500009F92AF92BF920F931F93CF93DF93CDB76C
:10151000DEB7A197CDBFDEBF19A2423008F44AE082
:101520008E010F5D1F4F842E912CB12CA12CA50193
:1015300094010E949230E62FB901CA01EA30D4F436
:10154000E05DD801EE938D01232B242B252B79F719
:1015500090E080E0109711F0CD01B2DFA196CDBFF1
:10156000DEBFDF91CF911F910F91BF90AF909F9001
:101570008F900895E95CE5CFAF92BF92CF92DF9252
:10158000EF92FF920F931F93CF93DF9300D0CDB7CD
:10159000DEB76C015B0110E000E00A151B057CF56D
:1015A0007801EC0CFD1C85E1F822E982FA82CE017B
:1015B0000196A8DE803110F480E3EFDD0F5F1F4F4E
:1015C000E982FA82CE0101969DDE682F70E090E0FC
:1015D00080E040E194DF89EF90E48BDFC801877001
:1015E0009927892B19F489EF90E483DFC8018F7064
:1015F0009927892B91F68EE19CE0B5DDCECF0F9037
:101600000F90DF91CF911F910F91FF90EF90DF909E
:10161000CF90BF90AF900895CF92DF92EF92FF925C
:10162000CF93DF9397FF17C06B017C018DE2B5DD8F
:10163000EC0166277727CB016C197D098E099F097C
:101640004AE05DDF8C0F9D1FDF91CF91FF90EF90FF
:10165000DF90CF9008954AE0DF91CF91FF90EF9017
:10166000DF90CF904CCFBC01990F880B990BD4CF52
:1016700084E294E078DD8091565E882371F081E009
:1016800090E0F1DF8FE094E06EDD8091575E909105
:10169000585EE9DF8CE094E022CF80E294E0FCCF5A
:1016A0008FE593E01CDF84E593E05DDD81EE90E45F
:1016B00007DF88E493E057DD80E493E010DF85E303
:1016C00093E051DD83E090E0CEDF8FE293E007CF3F
:1016D0004F925F926F927F928F929F92AF92BF9242
:1016E000CF92DF92EF92FF920F931F93CF936B01F4
:1016F0007C01742EAC019B010E94AC32882391F0D6
:1017000089EE90E4CF911F910F91FF90EF90DF90C1
:10171000CF90BF90AF909F908F907F906F905F9091
:101720004F90CECE46015701E894B7F82FEF3FEF28
:101730004FE75FE7C501B4010E94AC3281110DC0D3
:101740002FEF3FEF4FE75FE7C501B4010E944A2F3B
:1017500018161CF48DEE90E4D5CF2FEF3FEF4FE736
:101760005FE4C701B6010E94663218161CF481EFCF
:1017700090E4C8CF2FEF3FEF4FE75FECC701B60112
:101780000E944A2F87FDF3CF20E030E0A901C70176
:10179000B6010E944A2F10E000E087FF07C08DE2EB
:1017A000FCDC8C01F7FAF094F7F8F094C0E060E00C
:1017B00070E080E09FE37C1641F020E030E040E202
:1017C00051E40E942831CF5FF6CFA70196010E9415
:1017D000C4302B013C010E9495314B015C014AE071
:1017E0008EDE7C01E00EF11ECC23A9F1C501B4010F
:1017F0000E944E2F9B01AC01C301B2010E94C33075
:101800004B015C0185EF90E45BDEE80EF91EC150F0
:1018100010F120E030E040E251E4C501B4010E9443
:10182000AF2F2B013C010E9495314B01B12CA12C13
:101830004AE0C501B40163DEE80EF91EC501B4013A
:101840000E944E2F9B01AC01C301B2010E94C33024
:101850004B015C01DCCFC701CF911F910F91FF902D
:10186000EF90DF90CF90BF90AF909F908F907F9040
:101870006F905F904F900895CF93DF9329DFEC0135
:101880002BDE8C0F9D1FDF91CF910895CF93DF93B7
:10189000682F70E090E080E04AE031DEEC011CDE71
:1018A0008C0F9D1FDF91CF9108950F931F93CF93BE
:1018B000DF9380916F57803109F062C088E229DAA6
:1018C00082FF3BC084E00CDB09DA80E0F0D980E0E5
:1018D000EED9D82FC82F833408F0C2E4C09329571B
:1018E00080E0E5D9082F80E0E2D9182F80E0DFD929
:1018F000282F30E0A90196E0440F551F9A95E1F793
:1019000044275370402B40932A5750932B57322F24
:10191000222722273370212B20932C5730932D57C9
:1019200090915B5E9417150611F0452B11F4D3309E
:10193000A0F410922957ADD928DB80916F578031E0
:10194000F9F4809129578823E1F084E0C9DA81E035
:10195000DF91CF911F910F910895C350C0932E57DF
:10196000807880932857D0E0DC1720F480E09FD95E
:10197000DF5FFACF8ED980E1B3DA84E2CAD9DDCF56
:1019800004DB80E0E5CF8091185E882309F449C02C
:1019900080EF93E0E8DB8091155E8B3271F181334B
:1019A00089F18635A1F18B3509F436C060E070E02D
:1019B000CB0142E08DDE8FED93E0D5DB6091165ECA
:1019C00070E090E080E04AE09ADD83ED93E0CBDBCD
:1019D0008091175E8F7390E046DE86EC93E0C3DB68
:1019E0006091195E70E090E080E04AE088DD88EB6D
:1019F00093E0B9DB8BEA93E072CD60E070E888EDAC
:101A000093E4D7CF63EC75EF88ED93E4D2CF60E039
:101A100070E089E594E4CDCF60E070EC84E694E476
:101A2000C8CF83E094E0E8CF0F931F93CF93DF9369
:101A300083EA93E098DB60911A5E70911B5E80915F
:101A40001C5E90911D5E42E050E016DF02E21EE552
:101A5000C1E0D0E08EE993E086DBCE0104DE87EFC3
:101A600090E447DDF80161917191819191918F012D
:101A700042E02EDE86E993E076DBCE01F4DD87EFEF
:101A800090E437DDF801648975898689978942E099
:101A900050E0F2DE2196C730D105E1F6E9DD73DFD3
:101AA0008BE893E060DB6091525E7091535E8091B1
:101AB000545E9091555E42E050E0DEDE80915A5EC9
:101AC000811107C086E793E0DF91CF911F910F91BD
:101AD00006CD81E893E0F8CF94E0811119C090938E
:101AE00026049091200492FD0AC09FB7F8948111BA
:101AF00012C080913204877F809332049FBF80910F
:101B0000E605982F9770913051F0887171F0089523
:101B100090932504E6CF809132048860EDCF8091C8
:101B2000010A8B7F8093010A08958091410A8B7F7F
:101B30008093410A08950F931F93CF93DF93CDB7FE
:101B4000DEB72C97CDBFDEBF681BF1F0062F10E08B
:101B5000682F70E0615D784AA801CE0101960E946D
:101B6000D432E1E0F0E0EC0FFD1FE00FF11F108236
:101B7000CE0101960E94B02D2C96CDBFDEBFDF9125
:101B8000CF911F910F91089590E080E0F5CF0F93D2
:101B90001F93CF93DF93CDB7DEB72C97CDBFDEBFBA
:101BA000681BF1F0062F10E0682F70E0615D784A45
:101BB000A801CE0101960E94D432E1E0F0E0EC0FE2
:101BC000FD1FE00FF11F1082CE0101960E94AD2D86
:101BD0002C96CDBFDEBFDF91CF911F910F9108955D
:101BE00060E070E0CB01F4CF2F923F924F925F9272
:101BF0006F927F928F929F92AF92BF92CF92DF921D
:101C0000EF92FF920F931F93CF93DF93CDB7DEB781
:101C10002A97CDBFDEBF89879A87162F7A01222E99
:101C2000312CB101032C000C880B990B0E94502F12
:101C30004B015C01612F70E090E080E00E94502F2A
:101C400020E030E044EB53E40E94AF2F2B013C0135
:101C5000B70190E080E00E944E2F9B01AC01C301D0
:101C6000B2010E94AF2FA50194010E94AF2F20E87E
:101C700036E948E15BE40E9428312B013C01E9850B
:101C8000FA8505818081081B110B218132814381F6
:101C9000548166817781808591850E94C330A3013C
:101CA00092010E9428316B017C01B801012E000CC9
:101CB000880B990B0E94502FA50194010E94283196
:101CC0009B01AC01C701B6010E94C4306D837E83C5
:101CD0008F8398870E94033269837A838B839C83E6
:101CE00020E030E040E85FE30E94C4306B017C01FB
:101CF00020E030E0A90169817A818B819C810E947A
:101D0000663287FDA2C0A7019601C501B4010E94F9
:101D1000AF2F0E949031E985FA8562877387168616
:101D20001786E985FA8526853785020F131F0687F2
:101D30001787020D131D0487158720E030E044EB60
:101D400053E4C301B2010E9428312BED3FE049EC7E
:101D500050E40E94AF2F6B017C0129813A814B81B5
:101D60005C816D817E818F8198850E94C330A30143
:101D700092010E94AF2F20E030E044EB53E40E9438
:101D800028312BED3FE049EC50E40E94AF2F4B018E
:101D90005C01A70196010E9428312B013C01E985D5
:101DA000FA85448A558A668A778AA5019401C50115
:101DB000B4010E94AF2F20E030E040E05FE30E94DA
:101DC000AF2F9B01AC0160E070E080E89FE30E94D0
:101DD000C3304B015C01A7019601C701B6010E9407
:101DE000AF2F20E030E040E05FE30E94AF2F9B0187
:101DF000AC0160E070E080E89FE30E94C330A30183
:101E000092010E94AF2F9B01AC01C501B4010E9459
:101E1000C330E985FA85608B718B828B938B2A9610
:101E2000CDBFDEBFDF91CF911F910F91FF90EF905B
:101E3000DF90CF90BF90AF909F908F907F906F90EA
:101E40005F904F903F902F900895E985FA85128614
:101E50001386C701B6019058A50194010E94AF2FC7
:101E60000E949031E985FA85668777875ACFCF92AD
:101E7000DF92FF920F931F93CF93DF930FE5089F9D
:101E8000F0011124EF01C55CD74AAA81BB811F96DE
:101E90002C911F972A8B16964D915D916D917C9197
:101EA00019974B8B5C8B6D8B7E8BA881B9811F96AC
:101EB0002C911F972F8B16964D915D916D917C9172
:101EC0001997488F598F6A8F7B8F2091E256C09067
:101ED000E056D090E156F09046408F01A6016F2D5C
:101EE000CF01835B974A80DEEC81FD818A819B81F3
:101EF0008E179F0729F187858AA786819781A085FC
:101F0000B1858BA79CA7ADA7BEA7E881F98187857E
:101F10008FA786819781A085B18588AB99ABAAAB45
:101F2000BBAB2091E256A6016F2DC8018B59974A91
:101F3000DF91CF911F910F91FF90DF90CF9054CE02
:101F4000DF91CF911F910F91FF90DF90CF90089577
:101F5000CF92DF92EF92FF920F931F93CF93DF9375
:101F6000CDB7DEB7AD97CDBFDEBF8DE080935D5EB0
:101F70008EE080935E5E8FE080935F5E80E1809371
:101F8000605E81E08093615E0091165E1091155E47
:101F90009091175E90935B5E10925C5E90E29093DE
:101FA0002104809341049FB7F89482E08093420417
:101FB00080915104877F809351049FBF8091605E20
:101FC000893288F490E0FC01EF5AFF4B20812F3FCB
:101FD00051F086589F4BDC01EC91B0E2EB9FF00191
:101FE0001124FC5F21830E9449068091615E81116A
:101FF000DBC08091E4058C7F8093E40580914109EA
:1020000084608093410980914009816280934009F6
:102010000E9464076B017C016AEA8FE20E947C06E1
:102020008FE20E9489068A3A59F00E9464076C196F
:102030007D098E099F09623371058105910560F361
:102040000E9464076C197D098E099F09623371052E
:102050008105910508F0DDC00E9464076B017C01D9
:1020600065E58FE20E947C068FE20E948906853535
:1020700059F00E9464076C197D098E099F0962332B
:1020800071058105910560F30E9464076C197D0953
:102090008E099F09623371058105910508F0B9C069
:1020A000FE0133968BE2DF011D928A95E9F781E00C
:1020B000898394E09A8322E02B8383E08D832E83AF
:1020C0009F8390E4988725E029878A8786E08B871D
:1020D00083E38C8787E08D8728E02F8729E0298B91
:1020E00029E12B8B22E42C8B35E23D8B9E8B96E2F3
:1020F0009F8B888F88E2898F90E19A8F89E28B8FFE
:102100008CED8C8F8EE28D8F88E88E8F8FE28F8F93
:102110008DE288A380E389A337E33BA330E93CA3A6
:1021200038E33DA32EA32CE32FA32FE828A72DE30C
:1021300029A79AA79FE69BA78CA78EE41F3159F089
:102140001B3241F0113331F089ED163521F084EE68
:102150001B3509F08CE68E871F31B1F180E41B320C
:1021600041F0113329F080E0163519F01B3561F18B
:102170008AE7888B1F3141F01B3231F0113331F186
:10218000163511F01B3511F580E08A8B0AA38E01FC
:102190000F5F1F4FF80180818823D1F061810E9479
:1021A0007C060E5F1F4FF6CF8091E405837F8093FE
:1021B000E4058091610984608093610980916009E0
:1021C00081628093600924CF80ECD3CF81EEDDCF94
:1021D00090E080E00E949F0769E981E10E947C060F
:1021E00084E00E9470070E9464076B017C0187E213
:1021F0000E94890687FD0BC00E9464076C197D0947
:102200008E099F09623371058105910580F30E9453
:1022100064078BEF90E40E949F072091175EF4E122
:102220002F9F8001112460E070E0CB0101151105A2
:1022300041F00E94582D9801110F440B550B0E943C
:102240006630AD96CDBFDEBFDF91CF911F910F916C
:10225000FF90EF90DF90CF900C9440071F920F9269
:102260000FB60F92112484E00E94DF06EF93FF93D4
:10227000E4E2F7E58F938FB78F9380818F5F808340
:1022800081818F4F818382818F4F828383818F4FA2
:10229000838381E08093260B8F918FBF8F91FF9175
:1022A000EF911895EF93FF93F898E0E7F7E50BC0EF
:1022B000EF93FF93F898E0E7F7E534C0EF93FF93CF
:1022C000E0E7F7E55FC02F932FB72F938F939F938E
:1022D000AF93BF936894CF93DF9320E0C085D8E09D
:1022E0009289DF01A90FB21FAD5ABF4F8C9120E434
:1022F0002C838A839F5F9F738D812189291302C05C
:102300008F7D8D83928BDF91CF9116F00C946608B0
:10231000BF91AF919F918F912F912FBF2F91FF91DF
:10232000EF9118952F932FB72F933F938F939F93F0
:10233000CF93DF93C085D8E02E812F7E2E838981B5
:1023400098818674880F3685382B82FD0DC0C7852D
:1023500081E08C0F8F732089281791F0CE0FDF2F2B
:1023600020E0D21F9B8B87873687DF91CF919F918B
:102370008F913F912F912FBF2F91FF91EF91189542
:102380003064F2CF8F938FB78F939F93CF93DF9368
:10239000C085D8E09D8188818C8187FDFCCF9F7BA3
:1023A00090689D83DF91CF919F918F918FBF8F9187
:1023B000FF91EF9118951F920F920FB60F92112473
:1023C0008F9388E08093A90481E08093DD568F91FC
:1023D0000F900FBE0F901F9018951F920F920FB67F
:1023E0000F9211248F939F93809109048093090485
:1023F00086FF03C091E09093DF5687FF03C081E022
:102400008093DE569F918F910F900FBE0F901F907B
:1024100018951F920F920FB60F9211240BB60F92C0
:102420002F923F924F925F926F927F928F929F92E4
:10243000AF92BF92CF92DF92EF92FF920F931F93D2
:102440002F933F934F935F936F937F938F939F93BC
:10245000AF93BF93EF93FF93CF93DF93CDB7DEB7E7
:102460002A97CDBFDEBF81E080930D0680911006D4
:10247000909111068D839E838091D1568E5F9091AD
:10248000E256891718F09091E256891B90E0FC0102
:10249000EE0FFF1FE80FF91FE75EFF4B808180936F
:1024A00008068D819E8120910558309106583695F9
:1024B0002795821B930B8D839E838D819E81E09156
:1024C000CF56F091D056EE0FFF1FE153F14B8083B2
:1024D000918319821A821B821C822D813E810D817B
:1024E0001E8122241302B001029FA001120372096F
:1024F000500D611D721D30037209500D611D721D5A
:10250000112449835A836B837C8389809A80AB80B2
:10251000BC80A0910140B0910240E091D15608E00A
:10252000E09FF0011124EA0FFB1FE058FF4F2080CD
:1025300031804280538064807580068117819401C8
:10254000A50160E070E080E090E05101620173015C
:102550000E94C03220833183428353836483758316
:10256000868397834D815E81E091D15618E0E19F8B
:10257000F0011124EA0FFB1FA084B184C284D3842C
:10258000E484F58406851785952F990F990B9A0198
:10259000492F592F692F792F892F0E94C032208708
:1025A0003187428753876487758786879787E0914D
:1025B000D1568E2F90E0FC01EE0FFF1FE80FF91FA0
:1025C000E75EFF4B80818111CFC08091CD4E90910D
:1025D000CE4E9C013695279536952795AC01421B2A
:1025E000530B9A018D819E81181619060CF478C040
:1025F0008D819E81919581959109820F931F809382
:10260000CD4E9093CE4E21E0409103585091045806
:102610004817590708F020E02093C05D8D819E8106
:10262000181619060CF05FC081E090E08093CB4E45
:102630009093CC4E2091CB4E3091CC4E8091C74E92
:102640009091C84E2817390709F452C08091C44EA2
:102650008F5F8093C44E8091C44E882351F01092B6
:10266000C44E8091CB4E9091CC4E8093C94E9093A6
:10267000CA4E8091C94E9091CA4E019709F016C377
:102680008091C74E9091C84E019709F465C0809122
:10269000C54E9091C64E01968093C54E9093C64EFE
:1026A00020910440222339F1209103402817190674
:1026B00009F008F5109204401092C54E1092C64ED3
:1026C00014961D921D921D921C921797CD0188524F
:1026D0009D4FFD01E817F90771F010823196FACF8E
:1026E0008D819E818ACF1092CB4E1092CC4EA2CF7C
:1026F0001092C44EB0CF14964D915D916D917C9126
:1027000017974F5F5F4F6F4F7F4F14964D935D93B9
:102710006D937C9317970D911D912D913C9113977B
:102720004091D2565091D3566091D4567091D5565F
:10273000041715072607370778F0809147409091D6
:102740004840A0934740B093484080930140909305
:10275000024081E08093E5568091C94E9091CA4E27
:102760008093C74E9093C84E9091D1568091E45675
:10277000981708F445C28090CF569090D056E091BB
:10278000D1568E2F90E0FC01EE0FFF1FE80FF91FCE
:10279000E75EFF4B0180F281E02D848D958D881AD4
:1027A000990A53E09522E091CF56F091D056A0912E
:1027B000D1568A2F90E0DC01AA0FBB1FA80FB91FCA
:1027C000A75EBF4B11960D90BC91A02D5E968D918A
:1027D0009C91E81BF90BF3702091CF563091D056A5
:1027E000A091D1568A2F90E0DC01AA0FBB1FA80F41
:1027F000B91FA75EBF4B11960D90BC91A02D90966E
:102800008D919C91281B390BD901B370AF83B88788
:10281000880C991C84010153114B4801D8016D911A
:102820007C91EE0FFF1FE153F14B40815181222437
:1028300057029001469F800156033209100D211D59
:10284000321D74033209100D211D321D112428017F
:102850003901E0910140F0910240A091D15618E079
:10286000A19FD0011124AE0FBF1FA850BF4FAC9045
:102870001196BC90119712962C90129713963C903B
:10288000139714960C911497098715961C91159718
:102890001A8716960C91169717961C911797730125
:1028A0006201FF0CCC08DC2C76019201A3016C2D97
:1028B0007C2D8C2D9C2D6101E984FA840E94C0320C
:1028C0002C9311963C93119712964C931297139652
:1028D0005C93139714966C93149715967C931597A5
:1028E00016968C93169717969C93D4016D917C91B4
:1028F000AF81B885AA0FBB1FA153B14B4D915C911D
:10290000222457029001469F800156033209100D80
:10291000211D321D74033209100D211D321D112499
:1029200048015901A091D15618E0A19FD00111246E
:10293000AE0FBF1FA059BE4F2C9011963C9011971F
:102940001296CC9012971396DC9013971496EC90F5
:1029500014971596FC90159716960C911697179646
:102960001C91179724013501770C4408542C32012F
:102970009401A501642D742D842D942D51010E9484
:10298000C0322C9311963C93119712964C93129748
:1029900013965C93139714966C93149715967C93E7
:1029A000159716968C93169717969C93A091D156CF
:1029B0008091D1562A2F30E0D901AA0FBB1FA20F58
:1029C000B31FA75EBF4B11962D913C9190E0DC01A7
:1029D000AA0FBB1FA80FB91FA75EBF4B11968D9101
:1029E0009C91D90112962D913C91DC0114968D9108
:1029F0009C912817390709F403C18090CF56909015
:102A0000D056A091D1568A2F90E0DC01AA0FBB1FAF
:102A1000A80FB91FA75EBF4B11960D90BC91A02DBA
:102A2000D4968D919C91881A990AB3E09B222091AB
:102A3000CF563091D0568091D15690E0DC01AA0F4C
:102A4000BB1FA80FB91FA75EBF4B11960D90BC917D
:102A5000A02DD6968D919C91D901A81BB90BBD01D3
:102A600073704091CF565091D0568091D156282FF7
:102A700030E0C901880F991F820F931F875E9F4B1B
:102A8000DC0111968D919C91DC01D8968D919C91E1
:102A9000481B590BDA01B370AF83B887880C991CB7
:102AA00084010153114B4801D8018D919C91DB01A8
:102AB000AA0FBB1FA153B14B4D915C91BC012224C5
:102AC00057029001469F800156033209100D211DC7
:102AD000321D74033209100D211D321D11242801ED
:102AE0003901A091D15678E0A79FD0011124AE0FF3
:102AF000BF1FA851BE4FAC901196BC901197129673
:102B00002C90129713963C90139714960C9114974F
:102B1000098715961C9115971A8716960C9116978A
:102B200017961C91179779016201FF0CCC08DC2CD9
:102B300076019201A3016C2D7C2D8C2D9C2D6101C1
:102B4000E984FA840E94C0322C9311963C93119729
:102B500012964C93129713965C93139714966C935A
:102B6000149715967C93159716968C93169717962F
:102B70009C93D4016D917C91AF81B885AA0FBB1F46
:102B8000A153B14B4D915C91222457029001469F75
:102B9000800156033209100D211D321D74033209C4
:102BA000100D211D321D1124280139018091D156AB
:102BB00018E0819FC0011124E80FF91FE05AFD4F72
:102BC000B081A181C280D380E480F5800681178125
:102BD00053014201BB0C8808982C54019201A301B7
:102BE000682D782D882D982DAB2EBA2E0E94C032DC
:102BF00020833183428353836483758386839783E1
:102C00008091D1568F5F8093D1568091CF5690910D
:102C1000D05601968093CF569093D0569091D1562E
:102C20008091E256981788F01092D156E0910140B9
:102C3000F091024080819181A281B3810196A11D12
:102C4000B11D80839183A283B3838091CF569091ED
:102C5000D05693708093CF569093D0562A96CDBF7E
:102C6000DEBFDF91CF91FF91EF91BF91AF919F9127
:102C70008F917F916F915F914F913F912F911F9114
:102C80000F91FF90EF90DF90CF90BF90AF909F900B
:102C90008F907F906F905F904F903F902F900F900C
:102CA0000BBE0F900FBE0F901F9018958091C74ECE
:102CB0009091C84E51CDEF92FF920F931F93CF93F7
:102CC000DF9300D0CDB7DEB71092725710927357D2
:102CD00088EE93E0A0E0B0E080937457909375572E
:102CE000A0937657B093775780ED90E48093705718
:102CF0009093715780E698E0809378579093795736
:102D000080E29CE080937A5790937B5782E0809397
:102D10007C5710927D5710927E5780E090E0A8EC8F
:102D2000B2E48093AC5D9093AD5DA093AE5DB09343
:102D3000AF5D1092BF5D1092C05D8093C25D9093B5
:102D4000C35DA093C45DB093C55D1092D55D109234
:102D5000D65D8093D85D9093D95DA093DA5DB093F2
:102D6000DB5D1092EB5D1092EC5DEFEAFCE5818398
:102D70009283A383B483148A75962DE5EB3AF20708
:102D8000B1F78BE398E5FC01E25AFF4F1082815ABC
:102D90009F4F4CE58F3A9407B1F7EBE0F8E524E15B
:102DA00030E092E081E020833183928313821482A9
:102DB0001582168217821086118682871386709676
:102DC00048E5EB33F40779F710920758109208584A
:102DD0001092095880E090E180930558909306582E
:102DE00080E091E080930358909304588EEF90E038
:102DF00080930F5E9093105E8DE190E080930B5E68
:102E000090930C5E8DE090E08093095E90930A5E53
:102E100084E890E08093115E9093125E8DEF91E0D4
:102E20008093135E9093145E10920D5E10920E5E6E
:102E300004E810E009831A83CE0101960E948209FA
:102E400078019DE1E90EF11C8F3F09F46EC00093FB
:102E50000D5E10930E5E2DEFE21621E0F2065CF49B
:102E6000E982FA82CE0101960E9482098F3F09F41D
:102E700058C00E94340A8AE080935D5E8BE08093A4
:102E80005E5E8CE080935F5E8DE08093605E10926A
:102E9000615E81E38093155E82ED8093165E8BE127
:102EA0008093175E81E08093185E99E19093195E9C
:102EB0004AE959E96AEC72E440931A5E50931B5E4A
:102EC00060931C5E70931D5E40E050E068E472E425
:102ED00040931E5E50931F5E6093205E7093215E50
:102EE0004DEC5CEC6CE171E44093525E5093535EA8
:102EF0006093545E7093555E8093565E84E690E0D6
:102F00008093575E9093585E1092595E10925A5E6D
:102F10000F900F90DF91CF911F910F91FF90EF9045
:102F200008954DE1E40EF11C96CF87018DEFE81670
:102F300081E0F80609F07ECF9ECFCF93DF93CDB727
:102F4000DEB7CA57D109CDBFDEBF88ED21E030E042
:102F500084BF2093620091E084BF909363009DE260
:102F600084BF9093800093E084BF9093600080E0E2
:102F700090E22091650020FDD4C221E02093030A55
:102F80008EEF8093260A8093270A9BE09093000A95
:102F900032E03093E6052093430A8093660A8093DB
:102FA000670A9093400A9093E70537E03093010B4E
:102FB00080930C0B10920D0B95E09093000B3093C7
:102FC000110B80931C0B10921D0B9093100B3093E0
:102FD000310B80933C0B10923D0B9093300B4FEFD5
:102FE0005FE04093AA0B5093AB0B80E88093820B79
:102FF0001092810B4EEF50E04093AE0B5093AF0B0D
:1030000088ED34E184BF3093680081E18093800BC8
:10301000E0E0F6E092838EE0858380E68383908310
:103020008091B000887F85608093B0008091B2006D
:10303000887F85608093B2008FED9EE280932C0B99
:1030400090932D0B2093250B1092210B83E08093FE
:10305000200B789484E08093210481E00E946C0D21
:1030600080917E5780FF14C080E797E50E94D108C9
:10307000E0917857F0917957868116828581158283
:1030800080E484838091805780937F5710927E578D
:103090001FB7F894E0917857F0917957168233E092
:1030A000378381E493E080879187148680E8858365
:1030B00080EC868320917D5760917C5780917A5770
:1030C00090917B57FC01239FE00DF11D1124459148
:1030D0005491261708F03FC0252F30E0593280F474
:1030E000F901EF5AFF4B70817F3F51F026583F4B5B
:1030F000D901EC91B0E2EB9FF0011124FC5F7183E8
:1031000071E0750F272F30E0793228F5F901EF5A79
:10311000FF4B70817F3FF9F0F901E658FF4BA0812A
:10312000E0E2AE9FD0011124BC5F2D553F4BF90169
:103130000081F0E0E0E0083030F49D01205F3F4F77
:10314000F901E00FF11D3FB7F89412967C932081AE
:10315000286020833FBFFC0103E0609FE00DF11D6C
:103160001124319625913491F901FF27EE51FA4F40
:103170009081832F80958923482B40831FBF0E9415
:10318000500B9FB7F89480E180930204809114045F
:103190008860809314049FBF9FB7F89480E2809367
:1031A0000204809115048860809315049FBF80916C
:1031B000080485FD05C08091175E8F5F8093175EC0
:1031C000E2E22E2EEEE53E2E8AE39EE5F10100E0DE
:1031D00010E020EA31E44DEC5CEC6CE470E4019327
:1031E000119321933193448B558B668B778B8E177C
:1031F0009F07A9F780E090E0A8ECB2E48093225EFC
:103200009093235EA093245EB093255E80E090E0CF
:10321000A8E4B2E48093265E9093275EA093285E94
:10322000B093295E80932A5E90932B5EA0932C5ED0
:10323000B0932D5E80E290E00E94B109882341F1B5
:10324000CE0101960E94890909811A8117FD20C0CB
:10325000680123E0C20ED11C75E1E72E7EE5F72E52
:1032600087E090E05C013FEFA31AB30A8BAB9CAB05
:10327000CE01C3960E948209D7018D937D01C501BD
:10328000AC14BD0478F38EE394E00430110511F41E
:103290008DE294E00E946F0A0E94140D8091080450
:1032A00084FD03C081E08093DB568091185E81111C
:1032B0000E94A80F8EE080930506809103068093FC
:1032C00003061092B00086E08093020681E08093AE
:1032D0000006809100068093000687E08093080630
:1032E00060E070E0CB0150E040E0E1E0E0930A06EE
:1032F00020910D0620FFFCCF4A30510544F020916B
:10330000100630911106620F731F811D911D4F5FD2
:103310005F4F4A31B7E25B0749F70E944E2F20E02A
:1033200030E44CE156E40E94283120E030EF4FE7D2
:1033300055E40E9428319B01AC0166E676E686E6FC
:103340009FE30E9428316B017C0183E594E00E9499
:10335000B30844E050E0C701B6010E943C0C409124
:103360001A5E50911B5E60911C5E70911D5E81E043
:103370000E94950640911A5E50911B5E60911C5E02
:1033800070911D5E82E00E94950640911A5E5091F8
:103390001B5E60911C5E70911D5E83E00E9495062D
:1033A0008090494090904A40A0904B40B0904C4053
:1033B0008BAE9CAEADAEBEAE609105587091065816
:1033C00090E080E00E944E2F2B013C010FEA1CE5AB
:1033D00020E0D10158968D909D90AD90BC905B9768
:1033E000F10161917191819191911F01F1E0F20FD1
:1033F000FFABD8012C9320E030E040E450E40E9481
:10340000AF2F2BAD3CAD4DAD5EAD0E94AF2FA301F4
:1034100092010E942831F80161837283838394832F
:10342000158286829782A086B186128613861486BC
:10343000158616860B5E1F4F2FA9263051F661E0C8
:1034400081E00E94E50862E082E00E94E50863E016
:1034500083E00E94E50861E084E00E94E50862E004
:1034600085E00E94E50863E086E00E94E50880911F
:10347000DB5681115CC082E3809346408AE08093F2
:1034800003406091525E7091535E8091545E9091C2
:10349000555E0E940E09C0924940D0924A40E09287
:1034A0004B40F0924C408091565E80931458882394
:1034B00009F43FC089E0809316048091575E909193
:1034C000585E80930B5890930C5882E080930D586F
:1034D00081E080931558C0900D5ED0900E5EC114AF
:1034E000D10409F473C186010F5F1F4F6DEEE62E04
:1034F0006DE5F62E80910B5E90910C5E8C0D9D1DFE
:1035000008171907CCF4C801957189839A83CE01F5
:1035100001960E948209D7018D937D010F5F1F4F95
:10352000E9CF019709F025CD83E00E94DF068CE307
:10353000A3CF10921604C1CF4090ED5D5090EE5D88
:103540006090EF5D7090F05D8090F15D9090F25D25
:10355000A090F35DB090F45DC090F55DD090F65D05
:10356000E090F75DF090F85D0091F95D1091FA5DE3
:103570002091FB5D3091FC5D4091FD5D5091FE5DC1
:103580006091FF5D7091005E8091015E9091025E9E
:10359000A091035EB091045E8FAB98AFA9AFBAAFB4
:1035A0008091055E9091065EA091075EB091085EE5
:1035B00040929158509292586092935870929458B9
:1035C0008092F0589092F158A092F258B092F3582D
:1035D000C0924F59D0925059E0925159F09252599D
:1035E0000093AE591093AF592093B0593093B1590D
:1035F00040930D5A50930E5A60930F5A7093105A7D
:103600002FA838AC49AC5AAC20926C5A30926D5A03
:1036100040926E5A50926F5A80930E5890930F5862
:10362000A0931058B093115885E18093DA5688E042
:1036300090E08093D8569093D95688EE91E080938D
:10364000E0569093E1561092D7569091E456A9E92E
:10365000B8E580E041E02C91222309F44CC0682FAA
:1036600070E09B01220F331F260F371F275E3F4B51
:10367000F9015081BD016C5571095F3F99F4FB015F
:1036800000811181F801548951110CC08787448B46
:103690005081E52FF0E0E75FFF4B5081F901508347
:1036A0008F5F9F5FFD01EA55F10920813181FB01A8
:1036B0006081718126173707F1F0E82FF0E0BF0134
:1036C000660F771FE60FF71FBF01675E7F4BFB0199
:1036D00050815F3F81F4F901548951110CC08787F3
:1036E000448B208130E0275F3F4BF90120818F5FC1
:1036F000FB0120839F5FA15ABF4FFDE5AD30BF079F
:1037000009F0A9CF9093E4568093D7569091D6565E
:103710004FEA5CE5ABE3B8E561E0FD01E25AFF4F3B
:103720002081222319F1E82FF0E09F01220F331F9F
:10373000E20FF31F8F01075E1F4BF80120812F3F1F
:10374000A9F42D913C911197F901748971110EC062
:103750008787648B208130E0245F3F4BF901208113
:10376000F80120838F5FA183B2839F5FA15ABF4F6F
:103770004A175B0791F68093D7569093D65690914F
:1037800007589923A9F080930A582091184091E096
:10379000980F9093D75690E0FC01EE0FFF1FE80FB3
:1037A000F91FE75EFF4B20831092085810920958CA
:1037B0008091D7568093E25610E08091E356181717
:1037C000E0F4812F0E94370F1F5FF7CF1FAA18AEBA
:1037D00019AE1AAE40E050E0BA0100E010E09801E6
:1037E000C12CD12C7601812C912C5401412C512CCF
:1037F000320180E090E0DC01DBCE1091E25620E85F
:1038000036E948E15BE460910540709106408091A3
:103810000740909108400E94AF2F20E030E044EF35
:1038200053E40E9428310E9495316B017C01209164
:10383000464030E050E040E06BE070E580E090E032
:103840000E949230C701B601621B730B840B950B6B
:10385000212F30E050E040E00E9492302093D25679
:103860003093D3564093D4565093D5561092E55684
:1038700081E08093044095E19093050690910306C2
:10388000909303061092B0009091D8569093020640
:103890008093000690910006909300069091000698
:1038A0009260909300061092080690910C06916029
:1038B00090930C0680930A0678941092F256109218
:1038C000F3561092F4561092F55660E070E080E0E6
:1038D00090E40E940E098E010D5C1F4F0DAB1EABD4
:1038E00080E797E50E943D08892B09F4B3C080E783
:1038F00097E50E941B08D090DC568A3009F037C546
:10390000AD2DB0E0A15DB84A1C92E0912F57EF5366
:10391000EC3308F097C00E2E000CFF0BEE56F34E62
:103920000C94B7329E21221D221D221D221D221D14
:10393000221D221D221D221D221D221D221D221D8F
:10394000221D221D221D221D221D221D221D221D7F
:10395000221D221D221D221D221D221D221D221D6F
:10396000221D221D221D221D221DCE1C151DE71DFC
:10397000021E091E211E221D5320CE1D301EEA1FCD
:10398000F21F5320221D6B20221D7920A420221D0E
:10399000221D6E215D217521221D7C218EEF8D0D52
:1039A000823008F04FC080E397E50E94B02D84304C
:1039B00019F1813329F0883009F1893009F58BE557
:1039C0008093155E87ED9BE00E94B3088091155EA1
:1039D0008B32C1F08133D9F08635F1F08B3509F5A2
:1039E00060E070EC84E694E442E00E94680B82EDB3
:1039F0009BE00E946F0A26C08BE2E2CF86E5E0CF13
:103A000080E0DECF60E070E888ED93E4EDCF63EC1A
:103A100075EF88ED93E4E8CF60E070E089E594E429
:103A2000E3CF60E070E0CB01DFCF12E0D1120AC03B
:103A300080E397E50E94B02D019709F0ACC081E0CA
:103A40008093595E80E4AFE2B7E51D928A95E9F76D
:103A50001092DC568091DF5690911458992389F08A
:103A6000882379F081E0809316580E946407609360
:103A70001758709318588093195890931A581092A9
:103A8000DF568091DE5690912458992389F088233F
:103A900079F081E0809326580E946407609327584C
:103AA000709328588093295890932A581092DE5684
:103AB0008091DD5690913458992389F0882379F0CC
:103AC00081E0809336580E94640760933758709362
:103AD00038588093395890933A581092DD562BE01D
:103AE000E22E28E5F22E8701D12CC12C560194E05C
:103AF000AA0CBB1C9A95E1F7F501E55FF74A4F0167
:103B00008385D80119969C91992309F44FC4882381
:103B100009F44CC40E946407F40124853585468568
:103B200057851B012C01221A330A440A550AB20197
:103B3000A101D8018D919C91B0E0A0E08417950778
:103B4000A607B70708F032C4B1E0CB1609F41CC4CD
:103B5000E2E0CE1609F41EC48091080486FB882793
:103B600080F9F501E55FF74A1386D8011A969C9112
:103B70001A97981709F41AC412969C91811110C4CF
:103B8000923009F010C4F801278130852F5F3F4F34
:103B90002783308708C41092595E54CF22E0D21296
:103BA00051CF80E397E50E94B02D019751F481E059
:103BB00080935A5E80915A5E882331F088EC9BE0B6
:103BC00018CF10925A5EF6CF8DEB9BE012CF80E3B8
:103BD00097E50E94AD2D6B017C010E940E09C092F9
:103BE000525ED092535EE092545EF092555E82EB4C
:103BF0009BE00E94B30842E050E0C701B6010E947A
:103C00003C0C20CF8AE08C9380E397E50E94790AF0
:103C100019CF33E0D31216CF80E397E50E94AD2D84
:103C20000E949031162F072F609346408AEA9BE04E
:103C30000E94B308812F902F0E94330B0E946C0AC0
:103C400001CF80E397E50E94B02D8093165E8FE947
:103C50009BE00E94B3088091165E0E94460CF2CE53
:103C600060E270E08FE297E50E94C932009711F49C
:103C70000C94F72C8C010F521745C801992760E26C
:103C800070E0805D984A0E94C932CC24C394C00E73
:103C9000009711F40C94FE2CAC014F5257455A0179
:103CA000602F81E00E949B0D7C016A2D8C2D0E946B
:103CB000C70D2D966CAF7DAF8EAF9FAF2D976D2D3D
:103CC00081E08A0D0E94C70DA2966CAF7DAF8EAFCA
:103CD0009FAFA297E114F10409F091C023EA33E207
:103CE00040E051E42D966CAD7DAD8EAD9FAD2D972E
:103CF0000E94AF2F4B015C010BEA1DE56BE3E62E42
:103D000068E5F62E2091494030914A4040914B4061
:103D100050914C40C501B4010E94AF2F2B013C01D2
:103D2000609105587091065890E080E00E944E2FF7
:103D30009B01AC01C301B2010E942831D801119648
:103D40006D937D938D939C9314972AE037ED43E216
:103D50005EE316966D917D918D919C9119970E94CD
:103D60004A2F882321F1F80115828AE097EDA3E21A
:103D7000BEE386839783A087B18712861386148655
:103D800015861686D12C8091E356D81680F4F7015B
:103D9000828193818017910729F084819581801712
:103DA000910719F48D2D0E94370FD394ECCF0A5E42
:103DB0001F4F5FE5E50EF11C68E5E61669E5F606BE
:103DC00009F0A0CF2D962CAC3DAC4EAC5FAC2D973E
:103DD00020921A5E30921B5E40921C5E50921D5ED5
:103DE00087E99BE00E94B30860911A5E70911B5EA8
:103DF00080911C5E90911D5E42E050E000CFCC248B
:103E0000CA94CE0C5BE0352E3C1408F49DC0AC2C5B
:103E1000B12C25E1C29E800111240155134A20E0F6
:103E200030E040E450E42D966CAD7DAD8EAD9FAD9D
:103E30002D970E94AF2F2091494030914A404091E8
:103E40004B4050914C400E94AF2F2B013C016091A0
:103E500005587091065890E080E00E944E2F9B011B
:103E6000AC01C301B2010E942831D80111966D93B3
:103E70007D938D939C93149716962D913D914D9122
:103E80005C911997A2966CAD7DAD8EAD9FADA2975A
:103E90000E944A2F882309F457C0F8011582A29680
:103EA0002CAC3DAC4EAC5FACA297268237824086EC
:103EB0005186128613861486158616868FE58A9D8E
:103EC00080018B9D100D1124055C174AD801ED91DE
:103ED000FC914681578160857185F801408F518F33
:103EE000628F738F2091E256A090E056B090E15619
:103EF00090904640C89E60011124A501692DC6011D
:103F0000835B974A0E94F40DD80112962D913C9143
:103F1000139714968D919C91159728173907A1F046
:103F2000ED91FC9186819781A085B185F80180ABE8
:103F300091ABA2ABB3AB2091E256A501692DC601AE
:103F40008B59974A0E94F40D8701000F111F000F33
:103F5000111F0F5E114A2D962CAC3DAC4EAC5FACE0
:103F60002D97D8011D962D923D924D925C925097BF
:103F7000A2962CAC3DAC4EAC5FACA29795962D9220
:103F80003D924D925C92989782E99BE00E94B30823
:103F9000C7010E94330B87EF90E40E94790AF80171
:103FA000658576858785908942E00E94680B8AE85E
:103FB0009BE00E94B308C7010E94330B87EF90E497
:103FC0000E94790AD80195966D917D918D919C9171
:103FD000989712CFB1E0DB1235CD0E94500B0E94B2
:103FE000140D30CD60E270E08FE297E50E94C93297
:103FF000009771F56D2D81E00E949B0D8C010115DC
:10400000110509F440C00130110509F443C02D9693
:104010006CAD7DAD8EAD9FAD2D970E9495316093B7
:104020000B5870930C5882E080930D5881E0809378
:1040300015582D966CAD7DAD8EAD9FAD2D970E9420
:1040400090316093575E7093585E0E94380BFACCA3
:10405000FC01EF52F7457F016E2F81E00E949B0D1E
:104060008C016D2D81E08E0D0E949B0DBC01990F7E
:10407000880B990B0E94502F2D966CAF7DAF8EAFA1
:104080009FAF2D97BCCF1092145810921604109227
:10409000565EBDCF81E08093145899E0909316044A
:1040A0008093565EB4CF80E397E50E94B02D8823BD
:1040B00079F099278034910514F08FE390E0809394
:1040C000175E80E89BE00E94B3088091175EC5CD23
:1040D00081E090E0F4CF80E397E50E94B02D8F71EE
:1040E0008093195E85E79BE00E94B3088091195E7A
:1040F000B4CDF1E0DF12A6CC84E695E00E946F0A11
:1041000080E290E00E94B109882389F0CE010196F7
:104110000E94890989819A8197FD09C091958195AD
:10412000910989839A83CE0101960E940C0A86E345
:1041300095E00E946F0A68EC70E080E090E00E94D9
:1041400040070C9400007ECC22242394D2107ACC19
:104150008CE295E00E946F0A80E290E00E94B10933
:10416000811128C019821A826FE4CE0101960E9443
:10417000E90981E090E089839A8365E4CE010196A4
:104180000E94E90982E090E089839A836DE4CE0180
:1041900001960E94E90903E010E009831A836FEF9A
:1041A000CE0101960E94E9090F5F1F4F011522E021
:1041B000120799F74AE450E049835A8380E290E07D
:1041C0008B839C83CE0101960E940C0A05E11EE5BB
:1041D00087E090E0D8016D918D017C01BFEFEB1A73
:1041E000FB0A8BAB9CABCE01C3960E94E909C701C9
:1041F0008D34910579F790E080E00E94B10981113A
:104200001AC084E095E00E94B3084AE060E072E0E2
:1042100080E090E00E947F0A8EED94E00E946F0A99
:1042200060E072E090E080E00E94BC0A8CED94E0D7
:104230000E94B3080CC0CE0101960E9489098B81AF
:104240009C81019649F48BE894E00E946F0A0E94D9
:104250006C0A8BE095E0CDCB8EE794E00E94B3082A
:104260006B817C8190E080E04AE00E947F0A0981B6
:104270001A8117FF03C01195019511090450110906
:1042800080E794E00E94B308C8010E94330B89E6DE
:1042900094E00E94B30889819A8197FF04C08EE55B
:1042A00094E00E94B3080E946C0AB80187E090E095
:1042B0000E94BC0A8CE594E0BBCFF2E0DF12C2CBD7
:1042C0001092185E80913057813329F481E08093F9
:1042D000185E0E94A80F0E94C30CB4CB2224239422
:1042E000D210B0CB0E94500BADCB3324339487E671
:1042F0009BE0D310A7CB7DCB44244394D410A2CB16
:104300008DE49BE00E946F0A0E94340AE1E9F8E51F
:104310001082118212821382E15AFF4F3BEC832EEE
:104320003AE5932E8E169F0699F710920E5810922A
:104330000F58109210581092115884CB99249394CE
:10434000D91080CB03E715E0F801F490FF2061F06D
:10435000FAE0FF1203C08DE00E94CD088F2D0E946D
:10436000CD080F5F1F4FF0CF81E795E042CBBFE351
:10437000BD1508F46FCBED2DF0E0E15DF84A8083C8
:10438000D394D092DC5666CB80910804881F88278E
:10439000881FE7CB8091A80483FB882780F9E1CBB5
:1043A000933009F4F0CBD8011A968C93BFEFCB1A57
:1043B000DB0A005F1F4FE3E0CE16D10409F096CB75
:1043C0008091E556882311F40C94B32B1092E55696
:1043D0002090E4562FAE822D90E006E1209EF00161
:1043E0001124E555F24A26E1833098F434893111DD
:1043F0000DC0289FD001299FB00D1124A555B24AA8
:1044000050961D921D921D921C925397769601967E
:10441000EBCF1091E356A3961FAFA397812F90E0A7
:104420002FE5129FD0011124A357B74A25E18C3004
:10443000B8F51C963C911C9731112EC0289FF001B5
:10444000299FF00D1124E155F34A108A118A128A2E
:10445000138AFD01EC54F109108211821282138239
:10446000349610821182128213821482158216826F
:1044700017821D921C92119712961D921C921397EF
:1044800014961D921D921D921C92179718961D92BC
:104490001D921D921C921B970196A15ABF4FC7CF28
:1044A0002BE338E5D70117964D915C91189741158C
:1044B000510589F013968D919D910D90BC91A02D81
:1044C000840F951FA11DB11DF70183839483A583DC
:1044D000B68317821086F0E1EF0EF11C2E153F0512
:1044E00009F720904740309048400BEA1DE50BAF9C
:1044F0001CAF10E000E04FAC041508F0EEC07801EE
:1045000083E0EE0CFF1C8A95E1F7E20CF31CF70147
:10451000E058FF4F20813181428153816481758150
:1045200086819781D1014D905D906D907C900E9425
:10453000C5314B015C01C301B2010E944E2F9B01AA
:10454000AC01C501B4010E942831B6E1B09F9001D1
:10455000B19F300D1124F901E555F24AEFABF8AFE8
:10456000608B718B828B938BF7012085318542851F
:1045700053856485758586859785D1014D905D90BD
:104580006D907C901397808422968FAE22979184B1
:104590006D969FAE6D97A2842E96AFAE2E97B38484
:1045A0006296BFAE6297C4846696CFAE6697D58496
:1045B0006A96DFAE6A9786846B968FAE6B97978408
:1045C0006C969FAE6C97CD90DD90ED90FC90AFA96E
:1045D000B8AD50968D909D90AD90BC905397299614
:1045E0008CAE9DAEAEAEBFAE29970E94C1314B01DD
:1045F0005C01C301B2010E944E2F9B01AC01C501B9
:10460000B4010E9428314B015C0122962FAD229704
:104610006D963FAD6D972E964FAD2E9762965FAD1E
:10462000629766966FAD66976A967FAD6A976B964E
:104630008FAD6B976C969FAD6C970E94C1319B01BB
:10464000AC01C501B4010E94AF2F4B015C01C70151
:10465000B6010E944E2F9B01AC01C501B4010E941E
:1046600028319B01AC0129966CAD7DAD8EAD9FAD1F
:1046700029970E94C330EFA9F8AD608B718B828BB4
:10468000938B60897189828993890E946E32AFA968
:10469000B8AD50966D937D938D939C9353975096A0
:1046A0006D917D918D919C915397EBADFCAD2181E6
:1046B0003281438154810E94AF2FAFA9B8AD50968B
:1046C0006D937D938D939C9353970F5F1F4FEBAD2D
:1046D000FCAD7696EBAFFCAF0ECFF10184819581F6
:1046E000A681B78180819181A281B3818091E256B8
:1046F0008091E0569091E1560DE818E521960EAFB5
:104700001FAF21970BE318E50FAB18AF6D961FAEE7
:104710006D974C01B12CA12CEB968CAE9DAEAEAE3C
:10472000BFAEEB97A3969FACA3976D96AFAC6D977A
:104730009A1409F4B6C4AFA9B8AD0D90BC91A02DE0
:10474000ABAFBCAF1F968C91B8E08B9F800111245A
:10475000020D131DF801E058FF4F20813181428185
:1047600053816481758186819781F1018080918078
:10477000A280B3800E94C5316B017C01C501B401E8
:104780000E944E2F9B01AC01C701B6010E94283147
:10479000ABADBCAD50966D937D938D939C93539729
:1047A000F801208531854285538564857585868528
:1047B0009785D1014D905D906D907C90139780848A
:1047C00022968FAE229791842E969FAE2E97A2842A
:1047D0006296AFAE6297B3846696BFAE6697C484A6
:1047E0006A96CFAE6A97D5846B96DFAE6B97E684F8
:1047F0006C96EFAE6C97F7846E96FFAE6E97CD9089
:10480000DD90ED90FC90ABADBCAD50968D909D9041
:10481000AD90BC90539729968CAE9DAEAEAEBFAE18
:1048200029970E94C1314B015C01C301B2010E9472
:104830004E2F9B01AC01C501B4010E9428314B01F0
:104840005C0122962FAD22972E963FAD2E97629651
:104850004FAD629766965FAD66976A966FAD6A9741
:104860006B967FAD6B976C968FAD6C976E969FAD88
:104870006E970E94C1319B01AC01C501B4010E9439
:10488000AF2F4B015C01C701B6010E944E2F9B0167
:10489000AC01C501B4010E9428319B01AC012996ED
:1048A0006CAD7DAD8EAD9FAD29970E94C330EBAD51
:1048B000FCAD608B718B828B938B6089718982894F
:1048C00093890E946E32ABADBCAD50966D937D93D3
:1048D0008D939C93539750966D917D918D919C9162
:1048E000539711968D909D90AD90BC9014976196C2
:1048F0008CAE9DAEAEAEBFAE6197A50194010E9495
:10490000AF2FEBADFCAD608B718B828B938BF8017D
:10491000E850FF4F2081318142815381648175814C
:1049200086819781E858FF4F408062964FAE62972C
:10493000518066965FAE669782806A968FAE6A9760
:1049400093806B969FAE6B97A4806C96AFAE6C977E
:10495000B5806E96BFAE6E97C680A496CFAEA49774
:10496000D780A596DFAEA597D1018D909D90AD9093
:10497000BC90F801F085A696FFAFA697D8011996CE
:10498000BC91A796BFAFA797F801F285A896FFAF95
:10499000A897D8011B96BC91A996BFAFA997F8011B
:1049A000F485AA96FFAFAA97D8011D96BC91AB9645
:1049B000BFAFAB97F801F685AC96FFAFAC97D801C7
:1049C0001F96BC91AD96BFAFAD97F101408051806D
:1049D00062807380AFA9B8AD12960D90BC91A02DE6
:1049E0002796AEAFBFAF27971F96EC91F0E03196B8
:1049F000B3E0EE0FFF1FBA95E1F7E20DF31DC080A3
:104A0000AE96CFAEAE97D180AF96DFAEAF97E280D5
:104A1000E096EFAEE097F380E196FFAEE197C480B9
:104A2000E296CFAEE297D580E396DFAEE397E680DD
:104A3000E496EFAEE497F780E596FFAEE597D101F7
:104A4000CD90DD90ED90FC902596CCAEDDAEEEAE37
:104A5000FFAE25970E94C131EFA9F8AD22A133A185
:104A600044A155A10E94AF2F6B017C0162962FAD2E
:104A7000629766963FAD66976A964FAD6A976B965A
:104A80005FAD6B976C966FAD6C976E967FAD6E97C2
:104A9000A4968FADA497A5969FADA5970E94C1310E
:104AA000AFA9B8AD96962D913D914D915C91999796
:104AB0000E94AF2F9B01AC01C701B6010E94C43018
:104AC0006B017C01C501B4010E944E2F9B01AC011A
:104AD000C701B6010E9428316B017C01A6962FAD5B
:104AE000A697A7963FADA797A8964FADA897A9966A
:104AF0005FADA997AA966FADAA97AB967FADAB971E
:104B0000AC968FADAC97AD969FADAD970E94C1317D
:104B10004B015C01C301B2010E944E2F9B01AC010D
:104B2000C501B4010E9428314B015C01AE962FAD46
:104B3000AE97AF963FADAF97E0964FADE097E19659
:104B40005FADE197E2966FADE297E3967FADE397B5
:104B5000E4968FADE497E5969FADE5970E94C1314D
:104B60009B01AC01C501B4010E94AF2F4B015C0158
:104B700025966CAD7DAD8EAD9FAD25970E944E2FD5
:104B80009B01AC01C501B4010E9428319B01AC011D
:104B9000C701B6010E94C3306B017C012796EEADC0
:104BA000FFAD2797218132814381548161966CAD9D
:104BB0007DAD8EAD9FAD61970E94AF2FA70196018D
:104BC0000E94AF2F65966CAF7DAF8EAF9FAF65979C
:104BD000AFA9B8AD14960D90BC91A02D2396AEAFA1
:104BE000BFAF239727964EAC5FAC279720E030E00D
:104BF000A9014A165B0609F458C1F801E851FE4FB5
:104C000050806A965FAE6A9781806B968FAE6B9785
:104C100092806C969FAE6C97A3806E96AFAE6E97A7
:104C2000B480A496BFAEA497C580A596CFAEA59735
:104C3000D680A696DFAEA697E780A796EFAEA79799
:104C4000E858FF4F20813181428153816481758111
:104C500086819781D1018D909D90AD90BC90F80197
:104C6000F085A896FFAFA897D8011996BC91A99690
:104C7000BFAFA997F801F285AA96FFAFAA97D8010E
:104C80001B96BC91AB96BFAFAB97F801F485AC9681
:104C9000FFAFAC97D8011D96BC91AD96BFAFAD9755
:104CA000F801F685AE96FFAFAE97D8011F96BC917E
:104CB000AF96BFAFAF97F1014080518062807380A3
:104CC0002396AEADBFAD23971F96EC91F0E03196E1
:104CD000A3E0EE0FFF1FAA95E1F7E20DF31DC080E0
:104CE000E096CFAEE097D180E196DFAEE197E2802B
:104CF000E296EFAEE297F380E396FFAEE39704818E
:104D0000E4960FAFE4971581E5961FAFE597C6804F
:104D1000E696CFAEE697D780E796DFAEE797D1016C
:104D2000ED90FD900D911C916996ECAEFDAE0EAF2D
:104D30001FAF69970E94C131EFA9F8ADFE9620819F
:104D40003181428153810E94AF2F6B017C016A96B1
:104D50002FAD6A976B963FAD6B976C964FAD6C9786
:104D60006E965FAD6E97A4966FADA497A5967FAD36
:104D7000A597A6968FADA697A7969FADA7970E94D9
:104D8000C131EFA9F8AD22AD33AD44AD55AD0E94B0
:104D9000AF2F9B01AC01C701B6010E94C4306B016B
:104DA0007C01C501B4010E944E2F9B01AC01C701DB
:104DB000B6010E9428316B017C01A8962FADA897FF
:104DC000A9963FADA997AA964FADAA97AB965FADAE
:104DD000AB97AC966FADAC97AD967FADAD97AE96F9
:104DE0008FADAE97AF969FADAF970E94C1314B018B
:104DF0005C01C301B2010E944E2F9B01AC01C501B1
:104E0000B4010E9428314B015C01E0962FADE09780
:104E1000E1963FADE197E2964FADE297E3965FAD45
:104E2000E397E4966FADE497E5967FADE597E69658
:104E30008FADE697E7969FADE7970E94C1319B0142
:104E4000AC01C501B4010E94AF2F4B015C01699612
:104E50006CAD7DAD8EAD9FAD69970E944E2F9B01CD
:104E6000AC01C501B4010E9428319B01AC01C7010E
:104E7000B6010E94C3306B017C012396AEADBFAD7D
:104E8000239711962D913D914D915C9114976196C8
:104E90006CAD7DAD8EAD9FAD61970E94AF2FA70128
:104EA00096010E94AF2F9B01AC0165966CAD7DAD64
:104EB0008EAD9FAD65970E94C3304B015C01279674
:104EC0004EAC5FAC27972396CEACDFAC239720E0A7
:104ED00030E0A9014C145D0439F4D20150962D91B3
:104EE0003D914D915C915397EBADFCAD608971891B
:104EF000828993890E94AF2F2B013C01AC019B0159
:104F0000C501B4010E9428316B017C0126E636E61A
:104F100046E85FE30E94663218160CF4B9C026E634
:104F200036E646E85FEBC701B601B4D787FDB0C0EF
:104F3000A7019601C701B6010E94AC328111A8C039
:104F40002196AEADBFAD21971896CD92DD92ED9230
:104F5000FC921B9720E030E040E05FE3C501B40124
:104F60000E94C4300E9490312196AEADBFAD219712
:104F70006D937C9320E030E040E05FE3C301B20139
:104F80000E94C4300E9490312196EEADFFAD219772
:104F900062837383D1016D917D918D919C9110916C
:104FA000E2567CD7A5019401DAD76B017C01EB9620
:104FB0006CAD7DAD8EAD9FADEB9770D79B01AC0115
:104FC000C701B601CCD76B017C01612F70E090E086
:104FD00080E066D79B01AC01C701B601C0D720E8CD
:104FE00036E948E15BE40E942831EFA9F8AD26815B
:104FF0003781408551850E94C4306B017C0120E0DF
:1050000030E041E655E40E9428310E949031072E9D
:10501000000C880B990B2196AEADBFAD219714966D
:105020000D911D912D913C911797060F171F281F69
:10503000391FFD01048315832683378331D720E090
:1050400030E041E655E48BD79B01AC01C701B601C6
:105050000E94C330AFA9B8AD16966D937D938D9322
:105060009C9319976D960FAD6D970F5F6D960FAF6F
:105070006D97A15ABF4FAFABB8AF21960EAD1FAD24
:105080002197015A1F4F21960EAF1FAF21974ACB90
:105090002196EEADFFAD21971086118612861386FC
:1050A00059CF80910758882309F44FC0E0910A58DE
:1050B000F0E0319613E0EE0FFF1F1A95E1F7E20DD5
:1050C000F31D208131814281538164817581868104
:1050D0009781D1018D909D90AD90BC900E94C1317F
:1050E0006B017C01C501B401D9D69B01AC01C7019C
:1050F000B6010E9428316B017C01609105587091C6
:1051000006587695679590E080E0C8D69B01AC0183
:10511000C701B6010E94C43020E030E040E05FE308
:105120000E94C4300E9495316093085870930958CA
:10513000C10188529D4F2816390661F0F101108295
:1051400081010F5F1F4F1801F6CF1092085810927F
:105150000958EECF8091F2569091F356A091F456F3
:10516000B091F556892B8A2B8B2B99F480E00E9405
:105170006C0D65E070E080E090E00E944007609177
:10518000525E7091535E8091545E9091555E0E9484
:105190000E098091F2569091F356A091F456B09179
:1051A000F5560196A11DB11D8093F2569093F356CA
:1051B000A093F456B093F556A6EF8A2EA6E59A2E44
:1051C000740110E000E0B6E1DB2ED09EF001D19E2C
:1051D000F00D1124E555F24A60897189828993891D
:1051E00020E030E048EC52E4BAD60E949031D7017A
:1051F0006D937D937D010F5F1F4F0330110529F7DC
:10520000E8E0CE2EE7E5DE2EFCEFEF2EF6E5FF2EF2
:1052100086EE96E5A7019601AFEABCE51FE5549638
:105220000C91549770E060E0002349F0FC0160812C
:10523000169FF0011124E357F74A60817181FA014A
:1052400061937193AF01412C512C3201002359F02D
:10525000FC016081169FF0011124EF56F74A40804F
:10526000518062807380F9014192519261927192F2
:105270009F0155960196FDE5AD32BF0781F68091FD
:105280000E5890910F58A0911058B09111588093DA
:10529000205790932157A0932257B0932357809182
:1052A000185E882309F46DC082E3E2EFF6E5DE01C3
:1052B000119601900D928A95E1F7B12CB0925C5E47
:1052C0008DE30E948906682F64608DE30E947C064E
:1052D0000E9464072B013C0180916F57803109F0D7
:1052E0004BC280912957811147C284E20E948906EE
:1052F00090E09195819591098C349F4F0CF03CC2C0
:1053000084E00E94700784E00E9470070E94640796
:105310002B013C0187E20E94890687FD3CC20E9466
:105320006407641975098609970964367105810552
:10533000910580F384E00E9470070E9464072B01AE
:105340003C010E94640764197509860997096E314A
:1053500071058105910508F057C20E94550C8823FC
:1053600081F380912C5790912D57059751F780919B
:105370002857882331F362E370E080E090E00E94D8
:1053800040074090F2565090F3566090F45670905B
:10539000F55680915A5E882309F43CC286E19CE070
:1053A0000E94B3084AE0C301B2010E947F0A01E0F3
:1053B00010E082E19CE00E94B308C8010E94330B18
:1053C0008CE091E40E94790AD4016D917D914D01A8
:1053D000072E000C880B990B63D52AE037ED43E2CA
:1053E0005CE3BDD542E00E94680B0F5F1F4F0430A5
:1053F0001105F9F601E010E08EE09CE00E94B30890
:10540000C8010E94330B8CE091E40E94790AF701F5
:10541000819191917F010E94330B0F5F1F4F0730E5
:10542000110551F701E010E08AE09CE00E94B3080A
:10543000C8010E94330B8CE091E40E94790AD601E6
:105440006D917D918D919D916D010E940C0B0F5F6F
:105450001F4F0730110541F78091565E882379F080
:1054600080E09CE00E94B308609120577091215722
:1054700080912257909123574AE00E947F0A8EEF35
:105480009BE00E946F0A6CE370E080E090E00E9475
:10549000400781E00E946C0D62E370E080E090E0E4
:1054A0000E94400780E00E946C0D209020573090B1
:1054B000215740902257509023572FAA38AE49AE1B
:1054C0005AAE40901C5750901D5760901E577090D8
:1054D0001F578091185790911957A0911A57B09162
:1054E0001B57409114575091155760911657709162
:1054F0001757009110571091115720911257309162
:105500001357C0900C57D0900D57E0900E57F09065
:105510000F578090085790900957A0900A57B09065
:105520000B57E091ED5DF091EE5D14012E1A3F0AEC
:10553000F10137FE03C0F195E195F109E83CF10571
:105540000CF064C0E091F15DF091F25D16012E1A4D
:105550003F0AF10137FE03C0F195E195F109E83CFE
:10556000F1050CF053C0E091F55DF091F65D180186
:105570002E1A3F0AF10137FE03C0F195E195F109BA
:10558000E83CF1050CF042C0E091F95DF091FA5D64
:105590001A012E1A3F0AF10137FE03C0F195E19579
:1055A000F109E83CF10594F5E091FD5DF091FE5DB7
:1055B0001C012E1A3F0AF10137FE03C0F195E19557
:1055C000F109E83CF10514F5E091015EF091025E0D
:1055D00012012E1A3F0AF10137FE03C0F195E19541
:1055E000F109E83CF10594F4E091055EF091065E66
:1055F0002FA838AC2E1A3F0AF10137FE03C0F195EF
:10560000E195F109E83CF1050CF4ADC08092ED5D47
:105610009092EE5DA092EF5DB092F05DC092F15D70
:10562000D092F25DE092F35DF092F45D0093F55D4F
:105630001093F65D2093F75D3093F85D4093F95D2C
:105640005093FA5D6093FB5D7093FC5D8093FD5D0C
:105650009093FE5DA093FF5DB093005E4092015E6B
:105660005092025E6092035E7092045E8FA898ACC6
:10567000A9ACBAAC8092055E9092065EA092075EDD
:10568000B092085E00910D5E10910E5E011511053D
:1056900049F1C801957189839A83CE0101960E94D0
:1056A000820990E080930F5E9093105E09831A83C5
:1056B0006FEFCE0101960E94E90980910D5E9091F5
:1056C0000E5E20910B5E30910C5E820F931F8093D3
:1056D0000D5E90930E5E2091135E3091145E8217E2
:1056E000930744F08091115E9091125E80930D5E5D
:1056F00090930E5E80910F5E9091105E880F991FBF
:10570000992781608F3F910509F46EC180930F5EE8
:105710009093105E60910F5E80910D5E90910E5E91
:1057200089839A83CE0101960E94E90900910D5E5A
:1057300010910E5E89E0E82E8EE5F82E9DEEC92EC2
:105740009DE5D92E0C5E1D45C8018C0D9D1D8983DC
:105750009A83D6016D916D01CE0101960E94E909EF
:10576000EC14FD0489F7A89564E170E080E090E016
:105770000E9440070C94701C0E946407641975090C
:1057800086099709683E73408105910508F0BBCDF5
:105790000E94550CA1CD0E946E0680E80E9457061B
:1057A00085E30E94570685E00E94570680915B5E64
:1057B0000E94570680E40E9457068E010F5F1F4F1C
:1057C000D8018D918D010E9457062DA83EA8021583
:1057D0001305B1F70E9449068CE00E9470070E94F1
:1057E00064072B013C0188E20E94890683FDA2CD5B
:1057F0000E94640764197509860997096436710562
:105800008105910580F396CDB39473E0372EB310E4
:1058100055CDB1CD89EF9BE00E94B3084AE0C301AA
:10582000B2010E947F0A01E010E086EF9BE00E9437
:10583000B308C8010E94330B8DE091E40E94790AFD
:10584000F401619171914F01072E000C880B990BA7
:1058500027D32AE037ED43E25CE381D342E00E94A4
:10586000680B0F5F1F4F04301105F9F601E010E0DF
:1058700083EF9BE00E94B308C8010E94330B8DE0C8
:1058800091E40E94790AD7018D919D917D010E943A
:10589000330B0F5F1F4F0730110551F701E010E088
:1058A00080EF9BE00E94B308C8010E94330B8DE09B
:1058B00091E40E94790AF60161917191819191912F
:1058C0006F010E940C0B0F5F1F4F0730110541F74E
:1058D0008091565E882379F088EE9BE00E94B308A1
:1058E00060912057709121578091225790912357B2
:1058F0004AE00E947F0A8091595E811107C00E9490
:105900006C0A68E270E080E090E0C1CD5FEAE52ECD
:105910005CE5F52E10E000E065E1B62E85EE9BE03B
:105920000E94B30868010F5F1F4FC8010E94330B2C
:105930008DE091E40E94790AD70154968C918823D6
:1059400009F44AC0BC9CF001BD9CF00D1124E15546
:10595000F34A608971898289938943E00E94680BC8
:10596000B5E1EB0EF11C06301105C1F63FEAE32E5E
:105970003CE5F32E01E010E04FE5D42E81EE9BE0F4
:105980000E94B308C8010E94330B8DE091E40E948D
:10599000790AF7018489882319F1F801EB51F94A52
:1059A000E081DE9EF0011124EB56F74A608171819F
:1059B0008281938144E00E94680B0F5F1F4FF5E1E5
:1059C000EF0EF11C07301105C9F60E946C0A60E564
:1059D00070E080E090E05BCD60E070E0CB01BDCF97
:1059E00060E070E0CB01E6CF8EEF90E08FCE6D2DC2
:1059F00081E00E949B0D7C010C946A1E602F81E067
:105A00000E949B0D7C016D2D8C2D0E94C70D2D9643
:105A10006CAF7DAF8EAF9FAF2D970C946A1E8F92A7
:105A20009F92AF92BF92CF92DF92EF92FF92CF936D
:105A3000DF93EC01688179818A819B816115710511
:105A40008105910521F464E279ED8BE597E02DE184
:105A500033EF41E050E03AD349015A019B01AC01D8
:105A6000A7EAB1E44FD36B017C01ACEEB4EFA50122
:105A7000940154D3C60ED71EE81EF91EF7FE06C0C9
:105A800081E0C81AD108E10880E8F80AC882D98202
:105A9000EA82FB82C701B6019F77DF91CF91FF9029
:105AA000EF90DF90CF90BF90AF909F908F90089530
:105AB0008F929F92AF92BF92CF92DF92EF92FF921E
:105AC00060914D4070914E4080914F409091504078
:105AD000611571058105910521F464E279ED8BE58D
:105AE00097E02DE133EF41E050E0F0D249015A0157
:105AF0009B01AC01A7EAB1E405D36B017C01ACEEDC
:105B0000B4EFA50194010AD3C60ED71EE81EF91EF4
:105B1000F7FE06C081E0C81AD108E10880E8F80A5B
:105B2000C0924D40D0924E40E0924F40F092504093
:105B3000C701B6019F77FF90EF90DF90CF90BF90A5
:105B4000AF909F908F90089560934D4070934E401A
:105B500080934F409093504008956627772725C043
:105B6000FC0188279927E89421912032E9F3293014
:105B700010F02E30C8F32B3239F02D3231F4689406
:105B800003C00BD0820F911D219120532A30C8F3FE
:105B90001EF4909581959F4F08957AE0979F902DE0
:105BA000879F802D910D112408958F929F92AF921F
:105BB000BF92CF92DF92EF92FF920F931F93CF93FA
:105BC000DF935C017B016115710519F0DB018D9399
:105BD0009C9385010F5F1F4FF501D0818D2F90E0C1
:105BE00039D16C01892BA9F5DD32A9F50F5F1F4F63
:105BF000D5011196DC91C1E05801F1E0AF1AB1086E
:105C000043E050E06CEF72E0C5012CD1892B61F5C7
:105C1000680182E0C80ED11C45E050E067EF72E0F9
:105C2000C60120D1892B21F4680197E0C90ED11C4F
:105C3000E114F10419F0D701CD92DC9260E070E03C
:105C400080E89FEFC111F9C060E070E080E89FE755
:105C5000F4C05801BECFDB3229F485010E5F1F4F1F
:105C6000F501D181C0E0C8CF43E050E064EF72E0BD
:105C7000C501F8D0892BE9F0F80110E000E020E040
:105C800030E0A9015F01B0ED8B2E8D0E89E0881503
:105C9000C0F19C2E689491F88C2F8870C2FF16C0BA
:105CA000811102C00F5F1F4F3196D501DC91C92DC4
:105CB000E9CFE114F10429F00E5F1F4FF7010083D3
:105CC000118360E070E080EC9FE7B7C0882311F09B
:105CD00001501109A5E0B0E015D29B01AC01220FE3
