:1002000031C6000059C6000057C600000C940B18F8
:1002100053C6000051C600004FC600004DC6000086
:100220000C944A1849C6000047C6000045C60000A5
:1002300043C6000041C600003FC600003DC60000A6
:100240003BC6000039C6000037C6000035C60000B6
:1002500033C6000031C600002FC600002DC60000C6
:100260000C94411829C600000C94981825C600006B
:1002700023C6000021C600000C9444180C941318E7
:100280001BC6000019C6000017C600000C943B18DE
:1002900013C6000011C600000FC600000DC6000006
:1002A0000BC6000009C6000007C6000005C6000016
:1002B00003C600000C9447180C943E18FDC50000BE
:1002C000FBC50000F9C50000F7C50000F5C500003A
:1002D000F3C500000C949D170C9498170C94A2176A
:1002E000EBC50000E9C50000E7C50000E5C500005A
:1002F000E3C5000005A84CCDB2D44EB93836A902EA
:100300000C50B9918688083CA6AAAA2ABE00000013
:10031000803F4E414E494E495459494E46CDCCCC72
:100320003D0AD7233C17B7D13877CC2B329595E6C9
:10033000241FB14F0A000020410000C84200401CA9
:100340004620BCBE4CCA1B0E5AAEC59D74766F6C5F
:1003500074616765203D2031706861736500656D6B
:100360006F6E547834006861726477617265203D05
:10037000200076657273696F6E203D20005F7465A2
:100380006D7065726174757265006669726D776112
:100390007265203D20656D6F6E5F434D5F3643543F
:1003A0000074656D705F656E61626C65203D203024
:1003B000004E6F2074656D70657261747572652092
:1003C00073656E736F7273206465746563746564BE
:1003D0002C2064697361626C696E672074656D704E
:1003E000657261747572650074656D705F656E61CC
:1003F000626C65203D20300074656D705F656E61D4
:10040000626C65203D2031006A736F6E203D206F65
:100410006666006A736F6E203D206F6E00646174C3
:10042000616C6F67203D20002C20694C6561640081
:100430006943616C00617373756D656456203D207E
:10044000007643616C203D20004C6F77506F7765DC
:10045000724C616273002C207266466F726D61741B
:10046000203D20002C207266506F776572203D2061
:10047000002C2072664E6F6465203D2000204D48A0
:100480007A2C20726647726F7570203D20005246AC
:10049000203D206F6E2C20726642616E64203D20EC
:1004A000005246203D206F6666006D73002C207060
:1004B000756C7365506572696F64203D20006F66CE
:1004C000660070756C7365203D20004E6F204545B9
:1004D00050524F4D20636F6E666967004C6F6164C8
:1004E000656420454550524F4D20636F6E666967C5
:1004F000007672656661203D20000A002028686948
:100500006464656E292E00206279746573002C2066
:10051000446174612073697A653A200020536967E9
:100520006E61747572653A20004E6F20646174616B
:1005300020626C6F636B20666F756E64202D2045A2
:100540004550524F4D206170706561727320746F19
:1005500020626520666F726D617474656420746FCB
:10056000204F454D205374616E6461726420627542
:100570007420756E757365642E000A0020627974AC
:1005800065732C206E6F7420666F726D6174746574
:100590006420746F204F454D205374616E64617206
:1005A000640053697A653A2000446F6E652E204ED0
:1005B000657720636F6E6669672073617665642076
:1005C000746F20454550524F4D00536176696E67F8
:1005D0002E2E2E00536B657463682077696C6C2037
:1005E0006E6F772072657374617274207573696EB3
:1005F000672064656661756C7420636F6E666967F9
:100600002E00526573657474696E672E2E2E00205D
:10061000000A417661696C61626C6520636F6D6D83
:10062000616E64733A0A6C09092D206C6973742039
:100630007468652073657474696E67730A7209095A
:100640002D20726573746F726520736B65746368B7
:100650002064656661756C74730A7309092D2073D3
:100660006176652073657474696E677320746F209A
:10067000454550524F4D0A7609092D2073686F7712
:10068000206669726D776172652076657273696F35
:100690006E0A7A09092D207A65726F20656E65727F
:1006A00067792076616C7565730A7809092D206574
:1006B0007869742C206C6F636B20616E6420636FAB
:1006C0006E74696E75650A3F09092D2073686F772E
:1006D0002074686973207465787420616761696E3D
:1006E0000A0A773C783E09092D207475726E2052F3
:1006F000464D20576972656C65737320646174613F
:10070000206F66663A2078203D2030206F72206F7F
:100710006E3A2078203D20310A623C6E3E09092D58
:100720002073657420722E662E2062616E64206EC6
:10073000203D20612073696E676C65206E756D6564
:1007400072616C3A2034203D203433334D487A2C8A
:100750002038203D203836384D487A2C2039203D2D
:10076000203931354D487A20286D617920726571C4
:10077000756972652068617264776172652063686B
:10078000616E6765290A703C6E6E3E09092D207303
:1007900065742074686520722E662E20706F7765F0
:1007A000722E206E6E202D20616E20696E7465673A
:1007B00065722030202D2033312072657072657390
:1007C000656E74696E67202D31382064426D207427
:1007D0006F202B31332064426D2E20446566617595
:1007E0006C743A20323520282B372064426D290A58
:1007F000673C6E6E6E3E092D20736574204E6574E5
:10080000776F726B2047726F757020206E6E6E204E
:100810002D20616E20696E746567657220284F45D2
:100820004D2064656661756C74203D20323130293D
:100830000A6E3C6E6E3E09092D20736574206E6F42
:100840006465204944206E3D20616E20696E7465A8
:1008500067657220287374616E64617264206E6FC4
:100860006465206964732061726520312E2E3630F4
:10087000290A0A643C78782E783E092D2078782E53
:1008800078203D206120666C6F6174696E6720700E
:100890006F696E74206E756D62657220666F72206E
:1008A00074686520646174616C6F6767696E672046
:1008B000706572696F640A633C6E3E09092D206E93
:1008C000203D203020666F72204F46462C206E203F
:1008D0003D203120666F72204F4E2C20656E616284
:1008E0006C6520766F6C746167652C20637572721D
:1008F000656E74202620706F776572206661637460
:100900006F722076616C75657320746F20736572E9
:1009100069616C206F757470757420666F722063E6
:10092000616C6962726174696F6E2E200A6A3C6E36
:100930003E09092D207475726E204A534F4E205384
:10094000657269616C20666F726D6174206F6E20D4
:10095000283129206F72206F6666202830292E0AE0
:10096000663C78783E09092D207878203D2074680F
:1009700065206C696E65206672657175656E637958
:1009800020696E20487A3A206E6F726D616C6C79C6
:1009900020656974686572203530206F72203630AA
:1009A0000A6B3C783E203C79792E793E203C7A7A5D
:1009B0002E7A3E0A09092D2043616C6962726174C6
:1009C0006520616E20616E616C6F67756520696E70
:1009D000707574206368616E6E656C3A0A0909204F
:1009E0002078203D20612073696E676C65206E75EC
:1009F0006D6572616C3A2030203D20766F6C7461B9
:100A000067652063616C6962726174696F6E2C2026
:100A100031203D206374312063616C6962726174BE
:100A2000696F6E2C2032203D206374322063616C2C
:100A30006962726174696F6E2C206574630A0909BA
:100A4000202079792E79203D206120666C6F6174B9
:100A5000696E6720706F696E74206E756D62657265
:100A600020666F722074686520766F6C74616765AC
:100A70002F63757272656E742063616C6962726156
:100A800074696F6E20636F6E7374616E740A090906
:100A900020207A7A2E7A203D206120666C6F617466
:100AA000696E6720706F696E74206E756D62657215
:100AB00020666F72207468652070686173652063BA
:100AC000616C6962726174696F6E20666F72207406
:100AD00068697320632E742E20287A206973206E33
:100AE0006F74206E65656465642C206F7220696781
:100AF0006E6F72656420696620737570706C6965CD
:100B0000642C207768656E2078203D2030290A0902
:100B1000092020652E672E206B30203235362E3886
:100B20000A0909202020202020206B312039302E76
:100B30003920322E30300A613C78782E783E092DEB
:100B40002078782E78203D206120666C6F61746972
:100B50006E6720706F696E74206E756D62657220AD
:100B6000666F722074686520617373756D656420AB
:100B7000766F6C74616765206966206E6F20612EE8
:100B8000632E2069732064657465637465640A6DFF
:100B90003C783E203C79793E092D206D6574657264
:100BA0002070756C736520636F756E74696E673A3B
:100BB0000A090920202078203D203020666F72200D
:100BC0004F46462C2078203D203120666F72204F02
:100BD0004E2C203C79793E203D20616E20696E7458
:100BE0006567657220666F72207468652070756C29
:100BF0007365206D696E696D756D20706572696FC2
:100C00006420696E206D732E202879206973206E10
:100C10006F74206E65656465642C206F722069674F
:100C20006E6F726564207768656E2078203D203095
:100C3000290A743C783E09092D207475726E20745F
:100C4000656D7065726174757265206D656173752F
:100C500072656D656E74206F6E206F72206F663ADC
:100C60002078203D2030206F72206F6E3A2078204F
:100C70003D20310A00456E657267792076616C759A
:100C800065732073657420746F207A65726F0043FA
:100C90006F6E74696E75696E672E2E2E00726650C7
:100CA0006F776572203D200072664E6F6465203D4F
:100CB00020002C20694C656164006943616C0076FA
:100CC00043616C203D2000726647726F7570203D55
:100CD000200066726571203D2000617373756D653B
:100CE0006456726D73203D2000646174616C6F679F
:100CF000203D20006A736F6E203D206F6666006A9B
:100D0000736F6E203D206F6E00204D487A00726632
:100D100042616E64203D2000005EBCE2613FDD83E5
:100D2000C29C7E20A3FD1F41009D23BE46DB65F8CB
:100D30008C11AF32CA57E9742C7066002C49002C14
:100D400070756C73653A002C54002C45002C5000D3
:100D50002C56726D733A004D53473A007D002C2299
:100D600070756C7365223A002C2254002C224500C9
:100D70002C2250002C2256726D73223A007B224D99
:100D80005347223A002056004143206D697373692E
:100D90006E67202D204170706172656E7420506FF7
:100DA0007765722063616C6320656E61626C656457
:100DB0002C20617373756D696E672000414320704C
:100DC000726573656E74202D205265616C20506FC2
:100DD0007765722063616C6320656E61626C656427
:100DE0000020656E61626C65642E0054656D7065EF
:100DF000726174757265206D6561737572656D657C
:100E00006E742069730053656E736F72206D617923
:100E1000206E6F742062652072656C6961626C651A
:100E200000200030002C20776974682061646472AF
:100E300065737365732E2E2E0054656D7065726137
:100E4000747572652053656E736F727320666F756B
:100E50006E64203D20000A0000080A400CFFC0001C
:100E6000C000141C11241FBECFEFCDBFDFE7DEBFD3
:100E700011E4A0E0B0E4EEEAF3E700E00BBF02C04B
:100E800007900D92A437B107D9F726E4A4E7B1E49F
:100E900001C01D92A33DB207E1F717E0C2E3D7E01E
:100EA00004C02197FE010E949D39C133D107C9F7C3
:100EB0000E94901D0C94D539A3C98091CC468D30E9
:100EC00011F42D9A0895873011F40F9A0895813105
:100ED00009F44B9A089500009091D046911109C0F1
:100EE000809344098091430987FFFCCF8091440996
:100EF0000895809364098091630987FFFCCF8091F6
:100F0000640908958091CC468D3011F42D98089590
:100F1000873011F40F980895813109F44B980895A2
:100F2000CF93DF93D82FC62FEDDF8D2F8068D3DFCF
:100F30008C2FD1DFDF91CF91C0CFCF93C82FE2DFCD
:100F40008C2FC9DF80E0C7DFC82FB7DF8C2FCF9190
:100F50000895CF9390915C45981791F0C82F81E048
:100F6000ECDF837E682F6C2B81E0DADF80915C45BB
:100F7000811104C087E2E1DF87FFF8CFC0935C45B1
:100F8000CF9108950F931F93CF93DF93EC0184E0EB
:100F9000E0DF2097D9F088818823C1F0B3DF8EEBA2
:100FA0009ADF8E01005F1F4F899195DFC017D1072F
:100FB000D9F783DFC1E08DE3C0DF8E7F682F6C2B14
:100FC0008DE3DF91CF911F910F91AACFC0E0F3CFB6
:100FD000CF93DF93282F30E09FEF893220F5E9018E
:100FE000CD55DF4B98819F3FE9F0F901E453FF4B6A
:100FF000A08140E2A49FD0011124BC5FF901EB5015
:10100000FF4BE081E830C0F5AD01405F5F4FE40F7A
:10101000F52FF11D4FB7F89412969C939081977F0E
:1010200090834FBF988190930146893240F52453B5
:101030003F4BF9018081F4E08F9FC0011124809320
:1010400002469093034610920C4610920E46109260
:101050000D4610920B4610920A46109209461092C5
:1010600008461092074610920646109205461092C6
:101070000446DF91CF910895F0E0E0E0CBCF8CEF14
:1010800093E0DDCF90910146E0910246F091034656
:10109000292F209580FF15C0F894818182238183B8
:1010A0008081892B808380E58A95F1F78181982B57
:1010B00091837894A9E4B1E01197F1F700C00000A2
:1010C0000895F8948181822381838081892B808394
:1010D000A5E8B1E01197F1F700C000008181982BDD
:1010E00091837894B8E2BA95F1F70895809101461A
:1010F000E0910246F0910346F8949081982B9083FA
:101100002181382F30952323218398E19A95F1F797
:1011100090819323908390E59A95F1F7928178944A
:10112000EDE3F1E03197F1F700C00000982381E092
:1011300009F480E00895893260F590E0FC01EB50FD
:10114000FF4BE081EF3F29F184539F4BDC018C91F1
:1011500090E0DC01AA0FBB1FAA5ABF4B2D913C9116
:1011600021153105B1F04E2F50E0440F551F240FCB
:10117000351FD9016D937C93E05FA5E0880F991F1F
:10118000AA95E1F7E80FF0E0FC5F8081887F82603C
:1011900080830895109217451092154510921645B8
:1011A0001092134510921445109212451092114559
:1011B00088E2C3DE82FF06C08DE3BFDE682F646075
:1011C0008DE3AEDE80E1C5CEAF92BF92CF92DF92CB
:1011D000EF92FF920F931F93CF93DF936C017B01EC
:1011E0008B01040F151FEB015E01AE18BF08C0177D
:1011F000D10759F06991D601ED91FC910190F081F0
:10120000E02DC6010995892B79F7C501DF91CF91B2
:101210001F910F91FF90EF90DF90CF90BF90AF9014
:101220000895FC0155894689252F30E0842F90E0F0
:10123000821B930B541710F0CF96089501970895D1
:10124000FC0193898489981761F0A489AE0FBF2FA0
:10125000B11D57968C9194899F5F9F73948B90E0FA
:1012600008958FEF9FEF0895FC0193898489981763
:1012700031F08489E80FF11D878990E008958FEFA0
:101280009FEF0895FC0193892489892F90E0805C69
:101290009F4F821B91098F7399270895CF93DF93F6
:1012A000EC01E881F9810680F781E02D0995EC8554
:1012B000FD85868116828581158280E484838C89F0
:1012C0008B8B1A8ADF91CF9108958F929F92AF9264
:1012D000BF92FF920F931F93CF93DF938C014A012C
:1012E0005B01D22FC32FDC0152968C91529780FF65
:1012F00007C0ED91FC910288F389E02DC8010995A2
:10130000D11101C0D3E0FD2EE894F2F8DC2FD09586
:10131000D07CB1E68B16B3EE9B06B6E1AB06B1040A
:1013200028F0D260B694A7949794879460E078ED03
:1013300088EB95E0A50194010E944537C90120344E
:10134000310510F480E490E03C2F3B72D7FD30680B
:101350004D2F487C30FD41605FB7F894D8011C9652
:10136000ED91FC911682F7828087918735FF8FC0BF
:101370004F7781E084878FEF85873F7D3583D683E4
:10138000F8012189C08986859785FC0133E0239F78
:10139000E00DF11D1124659174912C1708F059C0CE
:1013A000272F46FF76C0793288F430E0F901ED55F9
:1013B000FF4BA081AF3F51F024533F4BF9013081E7
:1013C00020E2329FF0011124FC5FA18347FF2AC075
:1013D00021E0270F293230F530E0F901ED55FF4BC0
:1013E000D081DF3FF9F0F901E453FF4BA081F0E237
:1013F000AF9FD0011124BC5F2B503F4BF9011081EE
:10140000F0E0E0E0183030F49D01205F3F4FF9013B
:10141000E10FF11D3FB7F8941296DC93208128600C
:1014200020833FBF40FF15C023E0270F293288F4F7
:1014300030E0F901ED55FF4B40814F3F51F024530F
:101440003F4BD901EC91B0E2EB9FF0011124FC5F1E
:101450004183FC0123E0C29FE00DF11D1124319670
:1014600025913491F901FF27EE51FA4F9081832F96
:1014700080958923682B60835FBFDF91CF911F9197
:101480000F91FF90BF90AF909F908F90089514861A
:1014900074CF342F307509F499CF793208F096CF94
:1014A00030E0F901ED55FF4BD081DF3F09F48ECFDD
:1014B000F901E453FF4BA081E0E2AE9FD00111247B
:1014C000BC5F2B503F4BF9011081F0E0E0E0183099
:1014D00030F49D01205F3F4FF901E10FF11D3FB74F
:1014E000F8941296DC932081286020833FBF6ECF52
:1014F000FC010FB607FE04C0809111018823A9F0FA
:10150000A485B58514968C91149785FF0EC0958996
:101510008689981739F015968C9115978F7D1596B9
:101520008C930895E8940C94AD1708950F931F932E
:10153000CF93DF93EC018A89982F91609A8B2D8944
:101540009E8929130AC0EC85FD85948195FF05C00D
:1015500081FD0DC080E4848312C0062F1D891F5FAA
:101560001F738E89811315C0CE01C2DFFACF85812A
:101570008F77806490E49483EC85FD858583EC858A
:10158000FD85628381E090E0DF91CF911F910F9103
:101590000895ED89EC0FFD2FF11DE95AFF4F0083EF
:1015A0001D8BEC85FD858A8981FF09C085818F7738
:1015B000806690E49483EC85FD858583E3CF858107
:1015C0008062FBCF0F931F93CF93DF938C01D0E00A
:1015D000C0E0F801EC0FFD1F6491662339F08DE542
:1015E00095E4A4DF892B11F02196F3CFCE01DF9192
:1015F000CF911F910F910895682F8DE595E496CFB7
:10160000CF93DF93EC018A8980FF0BC0EC85FD85C9
:10161000858185FD03C0848186FD03C0CE0168DF1E
:10162000F5CFDF91CF91089581E008950F98079A43
:1016300020E533EC93E0179A44E1F9013197F1F793
:101640004150D9F7482F179AF9013197F1F7179AB6
:1016500059E0F9013197F1F75150D9F7415099F715
:10166000915049F7E7CF9FB7F894E0912A0BF0919A
:101670002B0B8091260B209105443091064440911C
:101680000744509108449FBF80FF08C0EC3E8CE2A5
:10169000F80720F42F5F3F4F4F4F5F4F0F01169415
:1016A0000794169407941694079416940794F001DF
:1016B00016940794E00DF11D16940794102C1694BF
:1016C00001181694010C169401181694010C169426
:1016D000011816941694010C1124E019F109A8EED2
:1016E000B3E00E9435376E0F7F1F811D911D089555
:1016F0008F929F92AF92BF92CF92DF92EF92FF9222
:101700006B017C01B0DF4B015C01C114D104E10429
:10171000F104B1F0A8DF681979098A099B09683ECC
:1017200073408105910588F321E0C21AD108E108D0
:10173000F10888EE880E83E0981EA11CB11CE5CF4D
:10174000FF90EF90DF90CF90BF90AF909F908F90E1
:1017500008952FB7F89460910544709106448091E4
:101760000744909108442FBF0895CF92DF92EF92E3
:10177000FF920F931F93CF93DF93082F10E096E112
:10178000899FE0011124CD5ED94B8E819F81A88570
:10179000B985892B8A2B8B2B99F1DBDFCA88DB88F3
:1017A000EC88FD886C197D098E099F09CE80DF8049
:1017B000E884F984C616D706E806F90658F48E853B
:1017C0009F85A889B9890196A11DB11D8E879F8724
:1017D000A88BB98BBEDF26E1209FF001219FF00D81
:1017E0001124ED5EF94B628B738B848B958BDF91AB
:1017F000CF911F910F91FF90EF90DF90CF900895C0
:101800008E859F85A889B9890196A11DB11D8E87F6
:101810009F87A88BB98BEBCF80E0A7CF81E0A5CFC6
:1018200028E030E041E071E09091DE43E091DC435C
:10183000F091DD43A92FA095582F542370930444B1
:10184000552341F151815A2351835081592B5083A3
:1018500050E55A95F1F75181952B918310920444EC
:10186000A9E4B1E01197F1F700C00000440F215046
:101870003109D1F661110DC0E091DC43F091DD43F7
:1018800090818091DE438095982390839181892374
:101890008183089551815A2351835081592B50835C
:1018A000A7E6B1E01197F1F700C000005181952B38
:1018B000918310920444B8E2BA95F1F7D7CF8091A2
:1018C000DE43E091DC43F091DD439081282F2095A9
:1018D000922390833DE7315061F190E19A95F1F7C1
:1018E00092819823C1F39181922391839081982BC7
:1018F0009083AFE3BBE01197F1F700C0000091E0E7
:1019000090930444908192239083A3EAB1E01197CD
:10191000F1F700C000009281982381E009F080E097
:1019200010920444EBE9F9E03197F1F700C00000B0
:10193000089580E00895CF92DF92EF92FF920F9387
:101940001F93CF93DF938091094090E025E0959518
:1019500087952A95E1F78095909583709927C0EF38
:10196000D2E002C0D595C7958A95E2F7209148400C
:1019700030914940DE010E94AC3928E13CEF4FEF45
:101980005FEF0E94193780910D4490910E440197AA
:10199000280F391F2093E0433093E14320E030E0EB
:1019A0004AE754E460912C4070912D4080912E4084
:1019B00090912F400E9462360E944B388E01DD0FBD
:1019C000220B330B6B017C01C01AD10AE20AF30A25
:1019D000A7019601A8EEB3E00E943537685873411D
:1019E000810991090E94013620910B4030910C40F1
:1019F00040910D4050910E400E94DE370E944B38BE
:101A00006093E4437093E5438093E6439093E74308
:101A1000DF91CF911F910F91FF90EF90DF90CF90CA
:101A20000895CF92DF92EF92FF926B017C01C092FA
:101A30002C40D0922D40E0922E40F0922F406091A9
:101A400048407091494090E080E00E940136A70133
:101A500096010E9462360E944B3860930D44709349
:101A60000E4420E034E244E759E4C701B6010E9485
:101A7000623620910B4030910C4040910D405091C6
:101A80000E400E94DE370E944B3860937144709381
:101A900072448093734490937444FF90EF90DF906E
:101AA000CF9049CFEF92FF920F931F93CF93DF9385
:101AB000E0910F44CE2FD0E07E01EE0CFF1CEE0C27
:101AC000FF1CD701A05DBF4B4D935D936D937C933D
:101AD0001397B701615F7F4BDB010D931D932D932E
:101AE0003C9313979E012B583B4B91E0D9019C935B
:101AF000A82FB0E0AF5EBB4BEC93EF5FE0930F44D9
:101B0000F0E0EE5FFF4B8083DF91CF911F910F914B
:101B1000FF90EF900895DC01ED91FC91F170FC5E77
:101B200080810895CF92DF92EF92FF920F931F93DF
:101B3000CF93DF9300D0CDB7DEB76C017C0103E01B
:101B400010E009831A83CE010196E5DFF701819346
:101B50007F010F5F1F4F0730110599F7C6010F90E6
:101B60000F90DF91CF911F910F91FF90EF90DF9039
:101B7000CF9008950F931F93CF93DF9300D000D0A1
:101B8000CDB7DEB78C0119821A82CE010196C3DF70
:101B90008F34F9F481E090E089839A83CE01019635
:101BA000BADF8534B1F482E090E089839A83CE0174
:101BB0000196B1DF8D3469F481E00115110551F012
:101BC000CE010196AFDF81E02B813C8120173107E8
:101BD00009F080E02496CDBFDEBFDF91CF911F9149
:101BE0000F9108951F93CF93DF93EC01162F93DF8E
:101BF0008117B1F09FB780910210282F227081FDCC
:101C0000FACFF8948DE984BF2093001023E184BFBC
:101C100020930010E881F981F170FC5E10839FBF72
:101C2000CE01DF91CF911F910895CF92DF92EF9275
:101C3000FF920F931F93CF93DF9300D0CDB7DEB702
:101C40006C017C0103E010E009831A83F7016191C4
:101C50007F01CE010196C6DF0F5F1F4F07301105D0
:101C600099F7C6010F900F90DF91CF911F910F91BF
:101C7000FF90EF90DF90CF9008950F931F93CF9335
:101C8000DF9300D0CDB7DEB7009163461091644674
:101C90008091654690916646081719079CF4C80123
:101CA000957189839A836FEFCE0101969BDF109225
:101CB0005F461092604680915D4690915E46080FA7
:101CC000191FE6CF0F900F90DF91CF911F910F91C9
:101CD0000895DC01ED91FC910088F189E02D23E06D
:101CE00030E00994FC0101900020E9F73197AF0141
:101CF000481B590BBC018DE595E466CA88E391E465
:101D0000F1CFCF93DF935EDCEC01F8DF8C0F9D1FEA
:101D1000DF91CF9108958AE893E054DC8DE793E05A
:101D2000F0DF82E793E04EDC8BE391E4DBDF86E6D5
:101D300093E048DC8EE593E0E4DF8DE493E0E1CFCF
:101D4000009709F0CFCF90E080E008958F929F92A6
:101D5000AF92BF920F931F93CF93DF93CDB7DEB7B0
:101D6000A197CDBFDEBF19A2423008F44AE08E0130
:101D70000F5D1F4F842E912CB12CA12CA501940135
:101D80000E944537E62FB901CA01EA30D4F4E05D7C
:101D9000D801EE938D01232B242B252B79F790E08E
:101DA00080E0109711F0CD019DDFA196CDBFDEBF81
:101DB000DF91CF911F910F91BF90AF909F908F9027
:101DC0000895E95CE5CFAF92BF92CF92DF92EF9298
:101DD000FF920F931F93CF93DF9300D0CDB7DEB761
:101DE0006C015B0110E000E00A151B057CF5780131
:101DF000EC0CFD1C85E1F822E982FA82CE01019605
:101E00008ADE803110F480E3F7DB0F5F1F4FE98239
:101E1000FA82CE0101967FDE682F70E090E080E0CC
:101E200040E194DF8DE591E48BDFC801877099274D
:101E3000892B19F48DE591E483DFC8018F70992710
:101E4000892B91F686E59EE0BDDBCECF0F900F90FB
:101E5000DF91CF911F910F91FF90EF90DF90CF9086
:101E6000BF90AF900895CF92DF92EF92FF92CF9301
:101E7000DF9397FF17C06B017C018DE2BDDBEC01A6
:101E800066277727CB016C197D098E099F094AE0E7
:101E90005DDF8C0F9D1FDF91CF91FF90EF90DF9062
:101EA000CF9008954AE0DF91CF91FF90EF90DF90BF
:101EB000CF904CCFBC01990F880B990BD4CF82ECFB
:101EC00094E080DB8091AC46882371F081E090E063
:101ED000F1DF8DEA94E076DB8091AD469091AE46DD
:101EE000E9DF8AEA94E00DCF8EEB94E0FCCFDF923D
:101EF000EF92FF920F931F93CF93DF9320910E46A3
:101F0000222379F010920C4610920E4610920D4644
:101F100080E0DF91CF911F910F91FF90EF90DF90C4
:101F2000089520910146E0910246F0910346F8940D
:101F30003081422F40953423308378945DE75150AF
:101F400009F330E13A95F1F732813223C1F3F89485
:101F50003181342331833081322B30837894AFE365
:101F6000BBE01197F1F700C00000F89430813423F2
:101F70003083A3EAB1E01197F1F700C0000032818D
:101F80007894EBE9F9E03197F1F700C000002323E2
:101F900009F0B8CF7C01C8E0D0E011E081E0912FDA
:101FA000907F09F480E06ED8110F2197B9F7F8946B
:101FB000E0910246F09103468081209101462095F0
:101FC00028232083E0910246F091034681812091ED
:101FD00001462095282321837894D1E000E0D12C7C
:101FE000C1E084D8182F82D81130E9F48130D1F5BE
:101FF000C13408F487CFD0920C46D11003C081E0E1
:1020000080930E4680910446882309F47BCFA4E098
:10201000B6E4F701C70108962D9121938E179F070B
:10202000D9F781E076CFE02FF0E0181311C080914E
:102030000C46C817A8F4DF01AF5FB94B13968C911B
:102040008D2381F410E0C93010F4C0930D46DC2ECE
:10205000EF5FF94B83819D2F9095892383830AC07D
:102060008C13F0CFE02FF0E0EF5FF94B83818D2BE5
:10207000838311E0812F06D8CF5FDD0F11F40F5F4E
:10208000D1E0083008F4ADCFB3CFCF92DF92EF921A
:10209000FF920F931F93CF93DF9389E39EE092DA31
:1020A00060915B4570E090E080E04AE04FDE88E4BC
:1020B00091E446DE6091644070E090E080E04AE0A8
:1020C00045DE80915B45882309F448C085E29EE0A7
:1020D00018DE10E000E080915B458017110609F0E2
:1020E0000CF43CC0680183E0CC0CDD1C8A95E1F760
:1020F000F12CE12CC0915945D0915A45CC0DDD1DF4
:10210000CE0DDF1D8881803118F483E29EE05ADA1B
:10211000688170E090E080E040E118DE81E29EE0BE
:1021200051DA8FEFE81AF80AE8E0EE16F10411F739
:102130008091594590915A45C80ED91EF601868165
:10214000833019F486E09EE03DDAD8DD65E070E08A
:1021500080E090E0CDDA0F5F1F4FBDCFCFDD8BEE7B
:102160009DE030DA80915845811114C083E491E4F8
:10217000E7DD81EE9DE0C5DDC1DD65E070E080E07A
:1021800090E0DF91CF911F910F91FF90EF90DF9042
:10219000CF90AECA8AE391E4EBCF4F925F926F92F9
:1021A0007F928F929F92AF92BF92CF92DF92EF92E7
:1021B000FF920F931F93CF936B017C01742EAC01A0
:1021C0009B010E944E39882391F08DE491E4CF91D8
:1021D0001F910F91FF90EF90DF90CF90BF90AF9045
:1021E0009F908F907F906F905F904F907BCD460136
:1021F0005701E894B7F82FEF3FEF4FE75FE7C501CE
:10220000B4010E944E3981110DC02FEF3FEF4FE70F
:102210005FE7C501B4010E94FD3518161CF481E585
:1022200091E4D5CF2FEF3FEF4FE75FE4C701B60151
:102230000E94023918161CF485E591E4C8CF2FEFEF
:102240003FEF4FE75FECC701B6010E94FD3587FD08
:10225000F3CF20E030E0A901C701B6010E94FD35AF
:1022600010E000E087FF07C08DE2C6D98C01F7FAC5
:10227000F094F7F8F094C0E060E070E080E09FE355
:102280007C1641F020E030E040E251E40E94DE376D
:10229000CF5FF6CFA70196010E9477372B013C0153
:1022A0000E944B384B015C014AE050DD7C01E00E9E
:1022B000F11ECC23A9F1C501B4010E9401369B0196
:1022C000AC01C301B2010E9476374B015C0189E584
:1022D00091E408DDE80EF91EC15010F120E030E075
:1022E00040E251E4C501B4010E9462362B013C0179
:1022F0000E944B384B01B12CA12C4AE0C501B4011E
:1023000025DDE80EF91EC501B4010E9401369B01CE
:10231000AC01C301B2010E9476374B015C01DCCFF6
:10232000C701CF911F910F91FF90EF90DF90CF9059
:10233000BF90AF909F908F907F906F905F904F90E5
:102340000895CF93DF9329DFEC01D8DC8C0F9D1F1C
:10235000DF91CF910895CF93DF93682F70E090E0E5
:1023600080E04AE0F3DCEC01C9DC8C0F9D1FDF91BB
:10237000CF9108950F931F93CF93DF9380915C4586
:10238000803109F071C088E20E949D0782FF44C03D
:1023900084E00E94A9070E94820780E00E946B07E8
:1023A00080E00E946B07D82FC82F833408F0C2E466
:1023B000C093124580E00E946B07082F80E00E94C6
:1023C0006B07182F80E00E946B07282F30E0A901CF
:1023D00096E0440F551F9A95E1F744275370402B20
:1023E0004093134550931445322F222722273370F0
:1023F000212B20931545309316459091CA4694178A
:10240000150611F0452B11F4D330B8F41092124593
:102410000E945D070E94CA0880915C45803121F5C9
:1024200080911245882311F184E00E94A90781E080
:10243000DF91CF911F910F910895C350C09317451D
:10244000807880931145D0E0DC1728F480E00E946A
:102450006B07DF5FF9CF0E945D0780E10E94A9074B
:1024600084E20E949D07D8CF0E94CA0880E0E0CF96
:1024700080916A46882309F439C08EE894E0A2D896
:10248000809167468B3249F1863551F18B3559F190
:1024900090E080E00FDD8DE794E094D8609168468D
:1024A00070E090E080E04AE051DC81E794E08AD877
:1024B000809169468F7390E0FDDC84E694E082D8D9
:1024C00060916B4670E090E080E04AE03FDC86E59A
:1024D00094E078D889E494E014CC81EB91E0DACFF1
:1024E00084E693E0D7CF83E993E0D4CF81EA94E008
:1024F000F3CF0F931F93CF93DF9381E494E062D8DF
:1025000060916C4670916D4680916E4690916F46D9
:1025100042E050E016DF85E394E054D860917046C5
:1025200070917146809172469091734642E050E0FE
:1025300008DF08E716E4C1E0D0E080E394E042D889
:10254000CE01B8DC8BE591E4FBDBF8016191719180
:10255000819191918F0142E020DE88E294E032D8AF
:10256000CE01A8DC8BE591E4EBDBF8016489758989
:102570008689978942E050E0E4DE2196C730D10594
:10258000E1F69DDC75DF8DE194E01CD86091A846F2
:102590007091A9468091AA469091AB4642E050E0E6
:1025A000D0DE8091C946811107C088E094E0DF91B8
:1025B000CF911F910F91A5CB83E194E0F8CF0F93BA
:1025C0001F93CF93DF93893208F07CC090E0DC0149
:1025D000AD55BF4B2C912F3F09F474C08C010453AF
:1025E0001F4BE801E881D0E2ED9FF0011124FC5F70
:1025F000611133C0268330812323AC014B505F4BE4
:10260000211111C0EA012881309749F1283038F5AD
:102610007096E20FF11D3FB7F8942081611122C03E
:10262000277F20833FBFFA0130813F3F09F44AC032
:10263000E8012881363058F53091E605432F477080
:10264000241312C0EC91E53008F0EE0F8091010ADE
:10265000E095E823E093010A35C02583CCCFF0E074
:10266000E0E0D9CF2860DDCF387169F4213079F40A
:10267000EC91E53008F0EE0F8091410AE095E823F7
:10268000E093410A1FC0383111F4263089F3845990
:102690009F4BFC01808185FF13C030E1839FF001D7
:1026A0001124F75F91819770973061F4EC91853236
:1026B00070F4803298F48830E1F2803121F202C067
:1026C0008111F4CFDF91CF911F910F910895803444
:1026D00071F08038B9F71092A006F4CF90E1899F8D
:1026E000F0011124F75F81818F7E8183EBCF809190
:1026F000920B8E2339F3C0E22C9F900111243C5F92
:10270000E83030F5205F3F4FE20FF32FF11D4FB758
:10271000F8949091800B9E7F9093800B90918E0BFC
:1027200090FFFCCF2091920B90E08095909530E047
:102730008223932328ED24BF8093920B8091800BFA
:1027400081608093800B80818F7780834FBFBACF69
:10275000F0E0E0E0DCCF0F931F93CF93DF93CDB792
:10276000DEB72897CDBFDEBF2091594530915A453D
:10277000232B31F02091274430912844232B61F4FE
:102780001092584510925B452896CDBFDEBFDF9171
:10279000CF911F910F910895182F809165400E944D
:1027A000E807E09165408FEFE93228F4AE2FB0E002
:1027B000AD55BF4B8C918093DE438CEF93E0E932B3
:1027C00040F4F0E0E453FF4B808124E0829FC0019D
:1027D00011248093DC439093DD43109358451123DB
:1027E00009F495C020E030E040E85FE360912C40C0
:1027F00070912D4080912E4090912F400E94FD3588
:1028000087FF03C08FE180930940009109409091B8
:102810006440E0912744F091284480E020E335E7CC
:10282000981721F0219331938F5FFACF10920C46C5
:1028300010920E4610920D4610920B4610920A46C8
:1028400010920946109208461092074610920646CA
:10285000109205461092044610925B45CE010196F7
:1028600046DB882349F089818832C1F780915B4536
:102870008F5F80935B45F2CF8091644090915B4580
:10288000891710F480935B45E0915945F0915A45C2
:1028900080818832A1F010E080915B45181778F4B0
:1028A00038E0139FC00111242091594530915A45B9
:1028B000820F931F1CDB882311F01F5FEDCF0E9456
:1028C0005F0C60E08CEC0E94100C60E08EE40E94D3
:1028D000100C60E080E00E94100C60E080E00E943C
:1028E000100C60E0802F0E94100C0E945F0C60E0D2
:1028F0008CEC0E94100C61E088E40E94100C64E1F2
:1029000070E080E090E00E94780B15D83DCF809178
:102910002B4087FDFACF8932A4F4282F082E000C13
:10292000330BF901ED55FF4B90819F3F51F024533C
:102930003F4BD901EC91B0E2EB9FF0011124FC5F19
:10294000918360E03CDE80912B408932F0F690E08C
:10295000FC01ED55FF4B20812F3FB9F2FC01E45300
:10296000FF4BA081E0E2AE9FD0011124BC5F8B50F1
:102970009F4BFC013081F0E0E0E0383028F4CD01DD
:102980004096FC01E30FF11D9FB7F89412962C932B
:102990008081877F80839FBFB8CF8091AF46DBDE89
:1029A00064E670E080E090E00E94780B8091AF4692
:1029B0008823F9F06ADB80915845882381F0809163
:1029C0005B4590E0892B71F481EB93E09AD981EA21
:1029D00093E097D980E0BFDE1092DC44089590E048
:1029E00080E0F0CF88EF93E08CD981E08093DC44E5
:1029F000089588EE93E085D9EFCF0F931F93CF937F
:102A0000DF93CDB7DEB72C97CDBFDEBF681BF1F0EB
:102A1000062F10E0682F70E0685E7A4BA801CE01A7
:102A200001960E94C639E1E0F0E0EC0FFD1FE00FD7
:102A3000F11F1082CE0101960E9463342C96CDBF07
:102A4000DEBFDF91CF911F910F91089590E080E05C
:102A5000F5CF0F931F93CF93DF93CDB7DEB72C97AE
:102A6000CDBFDEBF681BF1F0062F10E0682F70E0CD
:102A7000685E7A4BA801CE0101960E94C639E1E05A
:102A8000F0E0EC0FFD1FE00FF11F1082CE01019668
:102A90000E9460342C96CDBFDEBFDF91CF911F9195
:102AA0000F91089560E070E0CB01F4CF4F925F92F8
:102AB0006F927F928F929F92AF92BF92CF92DF924E
:102AC000EF92FF92CF93DF93C82F80900B409090AE
:102AD0000C40A0900D40B0900E4060914840709125
:102AE000494090E080E00E9401366B017C016091DA
:102AF0005040709151406F5F7F4F072E000C880B44
:102B0000990B0E940336A50194010E9462362BEDB9
:102B10003FE049EC50E40E946236A70196010E9412
:102B2000623620E034E244E759E40E94DE372B01AC
:102B30003C01D0E0BE016F5F7F4F072E000C880B79
:102B4000990B0E940336A50194010E946236A701E9
:102B500096010E94623620E034E244E759E40E9484
:102B6000DE376B017C01CC0FDD1FCC0FDD1FFE01BA
:102B7000E15FFF4B20E030E044EB53E46081718182
:102B8000828193810E94DE379B01AC01C701B601AF
:102B90000E9477372BED3FE049EC50E40E9462360B
:102BA0004B015C010E9406396B017C01C301B2013B
:102BB0000E9406399B01AC01C701B6010E94DE37B5
:102BC0006B017C01FE01EF5BFB4BC082D182E28294
:102BD000F382C501B4010E94DB374B015C01C301E4
:102BE000B2010E94DB379B01AC01C75ADB4BC70126
:102BF000B6010E9462369B01AC01C501B4010E947E
:102C00007637688379838A839B83DF91CF91FF90A6
:102C1000EF90DF90CF90BF90AF909F908F907F907C
:102C20006F905F904F900895CF938093484090931A
:102C30004940BC0190E080E00E94013620912C4088
:102C400030912D4040912E4050912F400E9462368D
:102C50000E944B3860930D4470930E440E949B0C6D
:102C6000C0E08091504090915140C817190624F45B
:102C70008C2F1CDFCF5FF5CFCF910895CF92DF92DD
:102C8000EF92FF920F931F93CF93DF93CDB7DEB7F1
:102C9000AD97CDBFDEBF8DE08093CC468EE08093B4
:102CA000CD468FE08093CE4680E18093CF4681E091
:102CB0008093D04610916846909169469093CA4699
:102CC0001092CB4690E290932104809341049FB7E9
:102CD000F89482E08093420480915104877F80932E
:102CE00051049FBF8091CF46893288F490E0FC0167
:102CF000ED55FF4B20812F3F51F084539F4BDC015A
:102D0000EC91B0E2EB9FF0011124FC5F21830E9463
:102D10005D078091D0468111B5C08091E4058C7F1C
:102D20008093E405809141098460809341098091FA
:102D300040098162809340090E94A90B6B017C01CC
:102D40006AEA8FE20E9490078FE20E949D078A3A0A
:102D500059F00E94A90B6C197D098E099F096233F5
:102D600071058105910560F30E94A90B6C197D091D
:102D70008E099F09623371058105910508F0B3C082
:102D80000E94A90B6B017C0165E58FE20E94900710
:102D90008FE20E949D07853559F00E94A90B6C199E
:102DA0007D098E099F09623371058105910560F3E4
:102DB0000E94A90B6C197D098E099F096233710568
:102DC0008105910508F08FC0FE0133968BE2DF018B
:102DD0001D928A95E9F781E0898384E08A8322E065
:102DE0002B8393E09D832E838F8380E4888725E067
:102DF00029879A8796E09B8793E39C8797E09D8736
:102E000028E02F8729E0298B29E12B8B32E43C8BAA
:102E100025E22D8B8E8B26E22F8B988F98E2998F4F
:102E200020E12A8F99E29B8F9CED9C8F9EE29D8FE3
:102E300098E89E8F9FE29F8F9DE298A390E399A3CD
:102E400047E34BA340E94CA348E34DA33EA33CE337
:102E50003FA33FE838A73DE339A72AA72FE62BA7D2
:102E60009CA79CE69E87888B1AA38E010F5F1F4F3D
:102E7000F80180818823B1F061810E9490070E5F84
:102E80001F4FF6CF8091E405837F8093E405809106
:102E900061098460809361098091600981628093F7
:102EA00060094ACF90E080E00E94C20769E981E1B1
:102EB0000E94900784E00E94A9070E94A90B6B0161
:102EC0007C0187E20E949D0787FD0BC00E94A90B31
:102ED0006C197D098E099F09623371058105910581
:102EE00080F30E94A90B8FE591E40E94C207209114
:102EF0006946F4E12F9F8001112460E070E0CB016E
:102F00000115110541F00E940B349801110F440B7B
:102F1000550B0E941937AD96CDBFDEBFDF91CF9123
:102F20001F910F91FF90EF90DF90CF900C94780B52
:102F3000EF93FF93EDE5F5E408C0EF93FF93EDE524
:102F4000F5E432C0EF93E0E653C02F932FB72F93F1
:102F50008F939F93AF93BF936894CF93DF9320E0B9
:102F6000C485D8E09689DF01A90FB21FA95ABF4FC7
:102F70008C9120E42C838A839F5F9F738D812589A8
:102F8000291302C08F7D8D83968BDF91CF9116F030
:102F90000C94950ABF91AF919F918F912F912FBF64
:102FA0002F91FF91EF9118952F932FB72F938F9318
:102FB0009F93CF93DF93C485D8E08981988181FD69
:102FC0000DC0C38981E08C0F8F732489281731F0DD
:102FD000CE0FDF2F20E0D21F9F8B838BDF91CF910D
:102FE0009F918F912F912FBF2F91FF91EF91189566
:102FF000FF938F938FB78F93F8E08081848187FF51
:10300000FCCF85818F7B806885838F918FBF8F9167
:10301000FF91EF9118951F920F920FB60F92112406
:1030200084E00E94160B1F920F920FB60F9211248C
:103030008F939F93AF93BF938091054490910644E3
:10304000A0910744B09108440196A11DB11D809341
:10305000054490930644A0930744B093084481E04C
:103060008093260BBF91AF919F918F910F900FBED0
:103070000F901F9018950F930AE00FC00F9308E070
:103080000CC00F9306E009C00F9304E006C00F9335
:1030900002E003C00F9300E000C00F920FB60F9242
:1030A0000BB60F921F921124FF921F932F933F9301
:1030B0004F935F936F937F938F939F93AF93BF9340
:1030C000CF93DF93EF93FF93A6E5B0E4A00FB11D7C
:1030D000CD91DC91000F0D5FA02FB0E0FC90109718
:1030E00061F01F2D169518F041F02296FBCFE99163
:1030F000F9913097B9F30995F5CFA02FB0E0FC9284
:10310000FF91EF91DF91CF91BF91AF919F918F91FF
:103110007F916F915F914F913F912F911F91FF9000
:103120001F900F900BBE0F900FBE0F900F91189530
:103130001F920F920FB60F9211240BB60F922F927F
:103140003F924F925F926F927F928F929F92AF9237
:10315000BF92CF92DF92EF92FF920F931F932F9324
:103160003F934F935F936F937F938F939F93AF930F
:10317000BF93EF93FF93CF93DF93CDB7DEB726973F
:10318000CDBFDEBF81E080930D06409010065090C9
:10319000110620910444E0910344A2E0AE0F809117
:1031A000504090915140A817190621F01CF0A1E061
:1031B000AE0FA81BB0E0AE5FBF4B3C91309308064A
:1031C00021116FC14091094450910A4460910B4410
:1031D00070910C444F5F5F4F6F4F7F4F4093094496
:1031E00050930A4460930B4470930C44E111E2C184
:1031F00080910144909102448093FF439093004456
:10320000809111469091124696958795481A590AD1
:1032100040920144509202448091FD439091FE43BC
:103220009C013695279536952795821B930B920125
:1032300057FE04C02227332724193509820F931F14
:103240008093FD439093FE4360910F46709110462A
:1032500021E06817790708F020E020937D441414DA
:1032600015040CF05AC021E030E02093FB4330936A
:10327000FC43E091FB43F091FC434091F5435091B6
:10328000F643E417F50709F44DC02091DF432F5FA3
:103290002093DF432091DF43233030F01092DF434F
:1032A000E093F743F093F8432091E8432111109203
:1032B000E8438090F7439090F8432091004030918C
:1032C00001406817790708F023C181E0881691044E
:1032D00009F05CC04130510509F45EC08091E243C1
:1032E0009091E34301968093E2439093E3434091AE
:1032F0000A404423D1F00A97C0F010920A4010927D
:10330000E2431092E343C9018C5F9E4FF901E81735
:10331000F90759F010823196FACF1092FB431092C0
:10332000FC43A7CF1092DF43B5CF8091E243909149
:10333000E3434091E0435091E1438417950739F40A
:1033400040910A40411103C041E040937C444091C8
:103350000D4450910E4484179507F0F080910A4077
:1033600081111AC01092E2431092E34380914E40C3
:1033700090914F4020934E4030934F4080930040B7
:103380009093014081E080937B4406C0452B21F05F
:103390001092F9431092FA43E0910040F0910140FD
:1033A0009F0120533F4FD9014D915D916D917C91CB
:1033B00013974F5F5F4F6F4F7F4F4D935D936D93AB
:1033C0007C9313978091F9439091FA4301968093EF
:1033D000F9439093FA432850310929833A83D9015C
:1033E000AC901196BC90119712963C901297139640
:1033F0001C91139714966C90149715967C901597C2
:1034000016960C91169717962C909201D2010E9455
:10341000A6396B017C01FF0CCC08DC2C76019B01EA
:10342000AC016C2D7C2D8C2D9C2DC32CD12E7301C9
:10343000122D0E94B239A981BA812C9311963C9326
:10344000119712964C93129713965C9313971496B8
:103450006C93149715967C93159716968C931697E4
:1034600017969C93A080B180C280D380E480F580C1
:1034700006811781952D990F990B9201492F592F8C
:10348000692F792F892F0E94B2392083318342839B
:10349000538364837583868397838092F5439092E8
:1034A000F643809103448F5F809303442091504002
:1034B000309151408217130619F014F01092034412
:1034C0002696CDBFDEBFDF91CF91FF91EF91BF91E7
:1034D000AF919F918F917F916F915F914F913F91AC
:1034E0002F911F910F91FF90EF90DF90CF90BF90A1
:1034F000AF909F908F907F906F905F904F903F9094
:103500002F900F900BBE0F900FBE0F901F9018952D
:103510004091094450910A4460910B4470910C44CD
:103520008091E4439091E543A091E643B091E74355
:1035300084179507A607B70748F4809126448111A0
:1035400005C081E080937C448093264440910944E7
:1035500050910A4460910B4470910C4480917144E5
:1035600090917244A0917344B0917444841795076C
:10357000A607B70708F010CF1092094410920A442A
:1035800010920B4410920C4481E080930A401092F8
:10359000E2431092E34340914E4050914F402093BC
:1035A0004E4030934F404093004050930140EBCE4B
:1035B0001C9232C12E2E312C821593050CF471CF42
:1035C0003101B1E06B1A7108D301AB58BB4BE6E097
:1035D0004E1651046CF381E08C93A0910040B091A1
:1035E0000140A983BA83D30193E0AA0FBB1F9A9528
:1035F000E1F7E981FA81AE0FBF1FAC52BF4FAC902B
:103600001196BC9011971296CC9012971396DC905D
:1036100013971496EC9014971596FC9015971696A0
:103620000C91169717961C911797C301880F991F35
:1036300087519C4BFC0180809180992D990F990BAB
:103640009401492F592F692F792F892F0E94B23960
:103650002C9311963C93119712964C9312971396B4
:103660005C93139714966C93149715967C93159707
:1036700016968C93169717969C938091114690916D
:10368000124696958795881A990AF10143E0EE0F44
:10369000FF1F4A95E1F7A981BA81EA0FFB1FA080BD
:1036A000B18032801381B481BD8325812983068155
:1036B0002780A091FF43B091004494010E94A63955
:1036C0006B017C01FF0CCC08DC2C76019B01AC016A
:1036D0006C2D7C2D8C2D9C2DC32CD12EED80F98052
:1036E000122D0E94B2392083318342835383648335
:1036F000758386839783A0A8B1A832A813A934A99B
:103700003D8345A9498306A927A8A0910144B0910A
:10371000024494010E94A6396B017C01FF0CCC0885
:10372000DC2C76019B01AC016C2D7C2D8C2D9C2D0D
:10373000C32CD12EED80F980122D0E94B23920AB1E
:1037400031AB42AB53AB64AB75AB86AB97ABCF0140
:10375000805A9F4F8D839E83DC01AC901196BC9064
:1037600011971296CC9012971396DC90139714969B
:10377000EC9014971596FC90159716960C91169749
:1037800017961C919401D4010E94A6399B01AC01AB
:10379000550F220B322FA90129833A834B835C8377
:1037A0009B01AC016981762F862F962F0E94B2393A
:1037B000AD81BE812C9311963C93119712964C9338
:1037C000129713965C93139714966C93149715960F
:1037D0007C93159716968C93169717969C93E057A3
:1037E000FF4FA080B180C280D380E480F580068145
:1037F0001781992D990F990B9401492F592F692FF2
:10380000792F892F0E94B2392083318342835383D9
:103810006483758386839783F301EE0FFF1FE7515F
:10382000FC4B408251823DCEEF92FF920F931F934B
:10383000CF93DF9300D0CDB7DEB710925F451092E3
:10384000604588EE93E0A0E0B0E0809361459093FE
:103850006245A0936345B093644582E291E480930E
:103860005D4590935E4580E698E08093694590932E
:103870006A4588E59EE080936B4590936C4582E0B5
:1038800080936D4510926E4510926F4540E05BE16C
:1038900067EB70E080E08F5F863011F487E00BC04B
:1038A0007695679557954795413099E059079DE37F
:1038B0006907710580F794E090930046482F409582
:1038C000242F217030E044E0220F331F4A95E1F7A6
:1038D00031E08162822B8093FF4540E459E04093C0
:1038E000F4455093F5459093F74586E08093F8456D
:1038F0001092FA451092FB4510921346109214460E
:1039000023E020931746309318468EE690E0A0E01F
:10391000B0E08093194690931A46A0931B46B0934B
:103920001C4610921D4610921E4610921F46109281
:103930002046109221461092224610922346109261
:1039400024461092294610922A4620932D46309301
:103950002E4680932F4690933046A0933146B093E5
:1039600032461092334610923446109235461092E9
:1039700036461092374610923846109239461092C9
:103980003A4681E090E00090664002C0880F991F9F
:103990000A94E2F7809311469093124655E096956B
:1039A00087955A95E1F780930F4690931046809142
:1039B00065400E94E8078EEF90E080936146909307
:1039C00062468DE190E080935D4690935E468DE087
:1039D00090E080935B4690935C4684E890E080930F
:1039E0006346909364468DEF91E080936546909393
:1039F000664610925F461092604604E810E0098324
:103A00001A83CE0101960E948B0D78019DE1E90E8B
:103A1000F11C8F3F09F47CC000935F461093604611
:103A20008DEFE81681E0F8065CF4E982FA82CE01B7
:103A300001960E948B0D8F3F09F466C00E943D0ED7
:103A40008AE08093CC468BE08093CD468CE08093D7
:103A5000CE468DE08093CF461092D0468BE2809385
:103A6000674682ED8093684681E18093694681E0F4
:103A700080936A4699E190936B4643E353E36AEC83
:103A800072E440936C4650936D4660936E4670931B
:103A90006F4640E050E060E773E440937046509317
:103AA0007146609372467093734640E050E068E45C
:103AB00072E44093744650937546609376467093D3
:103AC00077464DEC5CEC6CE171E44093A846509372
:103AD000A9466093AA467093AB468093AC4624E611
:103AE00030E02093AD463093AE468093AF461092BF
:103AF000C8461092C9460F900F90DF91CF911F9149
:103B00000F91FF90EF9008959DE1E90EF11C88CF91
:103B100087018DEFE81681E0F80609F070CF90CFAD
:103B2000CF93DF93CDB7DEB7C55CD109CDBFDEBF84
:103B300088ED21E030E084BF2093620091E084BFF3
:103B4000909363009DE284BF9093800093E084BFD4
:103B50009093600080E090E22091650020FDD7C244
:103B600021E02093030A8EEF8093260A8093270A90
:103B70009BE09093000A32E03093E6052093430ADD
:103B80008093660A8093670A9093400A9093E705B2
:103B9000E0E0FBE027E09EEF85E021839487158637
:103BA00080837096E0343BE0F307B9F72FEF3FE0F6
:103BB0002093AA0B3093AB0B90E89093820B10925A
:103BC000810B2EEF30E02093AE0B3093AF0B98EDCE
:103BD00024E194BF2093680091E19093800B80933F
:103BE00002069EE09093050690E69093030680936C
:103BF00000068091B000887F85608093B00080913E
:103C0000B200887F85608093B2008FED9EE2809342
:103C10002C0B90932D0B81E08093250B1092210BA0
:103C200083E08093200B789484E08093210461E00A
:103C30008AE00E94DF1240E052EC61E070E08DE526
:103C400095E40E94690E0E948B0E9FB7F89480E164
:103C500080930204809114048860809314049FBFB1
:103C60009FB7F89480E280930204809115048860E5
:103C7000809315049FBF8091080485FD05C0809145
:103C800069468F5F80936946E8E7F6E480E996E449
:103C900000E010E020EA31E44DEC5CEC6CE470E410
:103CA0000193119321933193448B558B668B778BC2
:103CB0008E179F07A9F780E090E0A8ECB2E480930C
:103CC000784690937946A0937A46B0937B4680E0FD
:103CD00090E0A8E4B2E480937C4690937D46A09364
:103CE0007E46B0937F468093804690938146A09312
:103CF0008246B093834682E290E00E94BA0D882308
:103D000041F1CE0101960E94920D09811A8117FDA1
:103D100020C0680143E0C40ED11C97E6E92E96E46A
:103D2000F92E87E090E05C015FEFA51AB50A8DAB34
:103D30009EABCE01C5960E948B0DD7018D937D0160
:103D4000C501AC14BD0478F38CED94E0043011058A
:103D500011F48BEC94E00E94810E0E947912809104
:103D6000080484FD03C081E08093104480916A467A
:103D700081110E943E168EE0809305068091030615
:103D8000809303061092B00086E08093020681E0E3
:103D900080930006809100068093000687E0809360
:103DA000080660E070E0CB0150E040E0E1E0E09325
:103DB0000A0620910D0620FFFCCF4A30510544F041
:103DC0002091100630911106620F731F811D911D05
:103DD0004F5F5F4F4A31B7E25B0749F70E940136F8
:103DE00020E030E44CE156E40E94DE3720E030EF82
:103DF0004FE755E40E94DE379B01AC0166E676E6AC
:103E000086E69FE30E94DE376B017C0181EF94E040
:103E10000E94E20A44E050E0C701B6010E94A111ED
:103E20008CE090E080936640909367408EEF94E53D
:103E3000ADE1B2E480930B4090930C40A0930D4011
:103E4000B0930E4080E090E180931146909312462B
:103E500080E890E080930F4690931046C0922740F0
:103E6000D0922840E0922940F0922A402AE037ED93
:103E700043E25CE360916C4670916D4680916E46C2
:103E800090916F460E94623620E030E048E454E4AE
:103E90000E9462361092024060934A4070934B40F9
:103EA00080934C4090934D40C0909046D090914666
:103EB000E0909246F09093462AEF3EE74AEA5EE3AE
:103EC000609178467091794680917A4690917B46D0
:103ED0000E94DE37AB01BC019701860183E00E949E
:103EE000520DC0909446D0909546E0909646F09042
:103EF00097462AEF3EE74AEA5EE360917C4670917E
:103F00007D4680917E4690917F460E94DE37AB01D0
:103F1000BC019701860184E00E94520DC090984632
:103F2000D0909946E0909A46F0909B462AEF3EE763
:103F30004AEA5EE3609180467091814680918246B4
:103F4000909183460E94DE37AB01BC019701860148
:103F500085E00E94520DC0909C46D0909D46E09016
:103F60009E46F0909F462AEF3EE74AEA5EE3609164
:103F700084467091854680918646909187460E943E
:103F8000DE37AB01BC019701860186E00E94520D2D
:103F9000C090A046D090A146E090A246F090A346E3
:103FA0002AEF3EE74AEA5EE36091884670918946CF
:103FB00080918A4690918B460E94DE37AB01BC010E
:103FC0009701860188E00E94520DC090A446D090CF
:103FD000A546E090A646F090A7462AEF3EE74AEABB
:103FE0005EE360918C4670918D4680918E469091F3
:103FF0008F460E94DE37AB01BC019701860189E044
:104000000E94520D80911044811187C082E390E09C
:104010000E9414166091A8467091A9468091AA4604
:104020009091AB460E94110D80917046909171461F
:10403000A0917246B0917346809352409093534042
:10404000A0935440B093554086E0809317468093E8
:1040500018468091AC468093134681E080931446C5
:104060008091AD469091AE46092E000CAA0BBB0B79
:104070008093194690931A46A0931B46B0931C4612
:104080008CE0809365408BE080932B4088E08093A8
:10409000210461E08BE00E94DF128FE580930940EC
:1040A00080EB96E48093594590935A451092B04620
:1040B00086ED94E4809327449093284483E0809392
:1040C0006440C0905F46D0906046C114D10409F4AA
:1040D000B5C086010F5F1F4F8FE3E82E86E4F82EF0
:1040E00080915D4690915E468C0D9D1D08171907C5
:1040F000BCF4C801957189839A83CE0101960E9410
:104100008B0DF70181937F010F5F1F4FE9CF01975F
:1041100009F022CD83E00E94160B8CE390E078CF6B
:1041200040903F46509040466090414670904246D5
:104130008090434690904446A0904546B0904646B5
:10414000C0904746D0904846E0904946F0904A4695
:1041500000914B4610914C4620914D4630914E4671
:1041600040914F4650915046609151467091524651
:104170008091534690915446A0915546B091564631
:104180008BAF9CAFADAFBEAF809157469091584674
:10419000A0915946B0915A4640928E4450928F4415
:1041A0006092904470929144809292449092934491
:1041B000A0929444B0929544C0929644D092974471
:1041C000E0929844F092994400939A4410939B444F
:1041D00020939C4430939D4440939E4450939F442D
:1041E0006093A0447093A144CBACDCACEDACFEACCE
:1041F000C092A244D092A344E092A444F092A54479
:1042000080931D4690931E46A0931F46B093204670
:104210000E94CD1480910F44882339F1282F30E07B
:1042200020935040309351408F5F90E08630E8F407
:10423000FC01EB58FB4B10820196F8CF1BAE1CAE75
:104240001DAE1EAE40E050E0BA0100E010E0980163
:10425000C12CD12C7601812C912C5401412C512C54
:10426000320180E090E0DC0197CF409027405090F1
:1042700028406090294070902A40609111467091CA
:10428000124690E080E00E9401364B015C012091D3
:104290004A4030914B4040914C4050914D40C301B9
:1042A000B2010E946236A50194010E94DE3760933C
:1042B0004A4070934B4080934C4090934D4019E29C
:1042C000C12E14E4D12E00E3E02E00E4F02E10E025
:1042D00000E0809150409091514008171907FCF47C
:1042E000D7012D913D914D915C91C301B2010E9486
:1042F0006236A50194010E94DE37F7016193719344
:10430000819391937F01802F0E945615D6011D92B3
:104310001D921D921D926D010F5F1F4FDACF8CE031
:104320009CE080931546909316468EE09CE0809327
:104330002B4690932C4681E080930A4010920944CA
:1043400010920A4410920B4410920C449EE09093F9
:10435000050690910306909303061092B00098E032
:1043600090930206809300069091000690930006B9
:10437000909100069260909300061092080690912A
:104380000C06916090930C0680930A067894C09076
:104390002C40D0902D40E0902E40F0902F40609126
:1043A00048407091494090E080E00E940136A701AA
:1043B00096010E9462360E944B3860930D447093C0
:1043C0000E4410927B4420E034E244E759E4C701F4
:1043D000B6010E94623620910B4030910C40409112
:1043E0000D4050910E400E94DE370E944B38609382
:1043F000714470937244809373449093744403E1C6
:1044000016E4F12CF80180818823A9F18481E82F3A
:10441000F0E0893220F5DF01AD55BF4B2C912F3FE5
:10442000F1F0DF01A453BF4B8C9130E2839FC001B8
:1044300011249C5FEB50FF4BE081E83008F098C0FE
:10444000AC01405F5F4FE40FF52FF11D3FB7F894CB
:10445000DC0112962C938081886080833FBF6EE0E0
:104460007CE080912E46F11004C06CE07CE08091ED
:1044700018460E949B080A5E1F4FB1E0FB1275C0F0
:104480001092DD441092DE441092DF441092E0441A
:1044900060E070E080E090E40E94110DFE01F5966E
:1044A000EFABF8AF9E01265F3F4F29AF3AAF8DE5E6
:1044B00095E40E944209892B09F4A6C08DE595E494
:1044C0000E942009F09025448A3009F08FC4AF2D56
:1044D000B0E0A85EBA4B1C92E0911845EF53EC3364
:1044E00008F08AC00E2E000CFF0BE758FD4D0C940F
:1044F0009D39DE26FC22FC22FC22FC22FC22FC222E
:10450000FC22FC22FC22FC22FC22FC22FC22FC22BB
:10451000FC22FC22FC22FC22FC22FC22FC22FC22AB
:10452000FC22FC22FC22FC22FC22FC22FC22FC229B
:10453000FC22FC22FC22C523BB22EF22AA23DE237D
:10454000E523FC23FC22852591230B2420252A2505
:104550008525FC229D25FC22AB25D6258F26FC2215
:10456000B0269E26B726FC22BE26FF24F3944ACF0F
:10457000F0E0E0E06BCF32E0F3123EC089E195E479
:104580000E9463348430E1F08830E1F08930E1F456
:104590008BE5809367468EE09DE00E94E20A809161
:1045A00067468B3299F08635A1F08B35A9F483E903
:1045B00093E00E945A0F89E09DE00E94810E1CC08A
:1045C0008BE2E7CF86E5E5CF80E0E3CF81EB91E0BA
:1045D000F0CF84E693E0EDCF90E080E0EACF42E0D8
:1045E000F4120AC089E195E40E946334019709F04E
:1045F00095C081E08093C84680E4A8E1B5E41D92AF
:104600008A95E9F71092254480917C44882369F1CA
:1046100010927C4480915845882339F180912B4039
:1046200087FD19C08932A4F4282F082E000C330B03
:10463000F901ED55FF4B90819F3F51F024533F4BC3
:10464000D901EC91B0E2EB9FF0011124FC5F918362
:1046500061E00E94DF120E945F0C60E08CEC0E941F
:10466000100C61E084E40E94100C80917B4488234C
:1046700011F40C947E3210927B44F89420915040B7
:104680003091514040914E4050914F4090E080E039
:10469000821793070CF0B7C3FC01EB58FB4B60810A
:1046A00061113AC0FC0163E0EE0FFF1F6A95E1F76C
:1046B000E40FF51F10861186128613861486158660
:1046C0001686178610AE11AE12AE13AE14AE15AE2E
:1046D00016AE17AEDF01A859BF4F1C9211961C925F
:1046E000119712961C92129713961C921397149678
:1046F0001C92149715961C92159716961C92169755
:1047000017961C92E856FF4F108211821282138274
:1047100014821582168217820196BACF1092C8466B
:104720006BCF52E0F51268CF89E195E40E946334C3
:10473000019751F481E08093C9468091C94688234E
:1047400031F08FEF9CE039CF1092C946F6CF84EF5D
:104750009CE033CF89E195E40E9460346B017C01D9
:104760000E94110DC092A846D092A946E092AA4696
:10477000F092AB4689EE9CE00E94E20A42E050E0F3
:10478000C701B6010E94A11137CF89E195E40E94CB
:1047900060346B017C01C0925240D0925340E09251
:1047A0005440F0925540C0927046D0927146E092CB
:1047B0007246F09273468AED9CE0DECF8AE08C93DD
:1047C00089E195E40E94A00E17CF63E0F61214CFA2
:1047D00089E195E40E9460340E9446386B01CB0168
:1047E0000E94141682ED9CE00E94E20AC6010E941B
:1047F0005A0F0E947E0E00CF89E195E40E94633437
:104800008093684687EC9CE00E94E20A80916846AB
:104810000E94AB11F1CE60E270E088E195E40E9465
:10482000BB39009711F40C94BB338C01085115442B
:10483000C801992760E270E0875E9A4B0E94BB39FD
:10484000EE24E394E00E009711F40C94AA33DC01FB
:10485000A851B5446D01602F81E00E94FD148C01C8
:104860006C2D8E2D0E94291523966CAF7DAF8EAFD7
:104870009FAF23976F2D81E08C0D0E942915E5963F
:104880006CAF7DAF8EAF9FAFE59780902740909043
:104890002840A0902940B0902A4060911146709124
:1048A000124690E080E00E9401362B013C01011588
:1048B000110509F03FC02AE037ED43E25CE323969F
:1048C0006CAD7DAD8EAD9FAD23970E94623620E02A
:1048D00030E048E454E40E946236A50194010E944D
:1048E0006236A30192010E94DE3760934A407093C2
:1048F0004B4080934C4090934D402396CCACDDAC24
:10490000EEACFFAC2397C0926C46D0926D46E0921D
:104910006E46F0926F468FEB9CE00E94E20A609137
:104920006C4670916D4680916E4690916F4642E064
:1049300050E028CFF801EE0FFF1FEB56FF4B019020
:10494000F081E02DFF27EF5EFB4BD08024E0D29E6C
:1049500070011124A701405D5F4B1A012AEF3EE769
:104960004AEA5EE323966CAD7DAD8EAD9FAD239795
:104970000E94DE37A50194010E946236A3019201D4
:104980000E94DE37D1016D937D938D939C93139795
:10499000F701E15FFF4BE5962CAD3DAD4EAD5FAD50
:1049A000E59720833183428353838D2D0E945615D2
:1049B000C801880F991F880F991FAC014D59594B99
:1049C0007A0123966CAD7DAD8EAD9FAD2397DA0154
:1049D00051966D937D938D939C935497E5962CAD52
:1049E0003DAD4EAD5FADE59799962D933D934D93BB
:1049F0005C939C978AEB9CE00E94E20AC8010E94AB
:104A00005A0F8BE591E40E94A00EF701618972892B
:104A10008389948942E00E94CD1082EB9CE00E9441
:104A2000E20AC8010E945A0F8BE591E40E94A00E91
:104A3000D70199966D917D918D919C919C9777CF9F
:104A4000B1E0FB12D9CD0E948B0E0E9479120E9418
:104A50004510D2CD60E270E088E195E40E94BB3958
:104A6000009741F56F2D81E00E94FD148C01011526
:104A70001105D9F10130110509F43FC023966CAD41
:104A80007DAD8EAD9FAD23970E9446388B01072EDA
:104A9000000C220B330B0093194610931A462093F7
:104AA0001B4630931C466093AD467093AE460E9401
:104AB0005F0FA2CDFC01E851F5446F016E2F81E03C
:104AC0000E94FD148C016F2D81E08C0D0E94FD145D
:104AD000BC01990F880B990B0E94033623966CAF8B
:104AE0007DAF8EAF9FAF2397C2CF1092134681E068
:104AF000809314461092AC46C1CF81E08093134658
:104B0000809314468093AC46B9CF89E195E40E9426
:104B10006334882379F099278034910514F08FE36A
:104B200090E08093694688EA9CE00E94E20A8091C6
:104B300069466ECE81E090E0F4CF89E195E40E9471
:104B400063348F7180936B468DE99CE00E94E20A8A
:104B500080916B465DCEF1E0FF124ECD82E096E093
:104B60000E94810E82E290E00E94BA0D882389F0B3
:104B7000CE0101960E94920D89819A8197FD09C00C
:104B800091958195910989839A83CE0101960E941E
:104B9000150E84ED95E00E94810E68EC70E080E0D7
:104BA00090E00E94780B0C94000026CD22242394E0
:104BB000F21022CD8AEC95E00E94810E82E290E014
:104BC0000E94BA0D811128C019821A826FE4CE01A9
:104BD00001960E94F20D81E090E089839A8365E45A
:104BE000CE0101960E94F20D82E090E089839A83C3
:104BF0006DE4CE0101960E94F20D03E010E00983FE
:104C00001A836FEFCE0101960E94F20D0F5F1F4FC6
:104C1000011522E0120799F747E650E049835A83CD
:104C200082E290E08B839C83CE0101960E94150E58
:104C300007E616E487E090E0D8016D918D017C01D4
:104C4000BFEFEB1AFB0A8DAB9EABCE01C5960E945F
:104C5000F20DC7018A36910579F790E080E00E9455
:104C6000BA0D81111AC082EA95E00E94E20A4AE078
:104C700060E072E080E090E00E94A60E8CE795E094
:104C80000E94810E60E072E090E080E00E94E30EFE
:104C90008AE795E00E94E20A0CC0CE0101960E94CC
:104CA000920D8B819C81019649F489E295E00E94E6
:104CB000810E0E947E0E89EA95E07FCC8CE195E022
:104CC0000E94E20A6B817C8190E080E04AE00E94D1
:104CD000A60E09811A8117FF03C0119501951109CC
:104CE000045011098EE095E00E94E20AC8010E947A
:104CF0005A0F87E095E00E94E20A89819A8197FF26
:104D000004C08CEF94E00E94E20A0E947E0EB8017B
:104D100087E090E00E94E30E8AEF94E0BBCFF2E0E0
:104D2000FF126ACC1092AF4680911945813319F475
:104D300081E08093AF460E94CD145ECCE2E02E2E3F
:104D4000F2105ACC10926A4680911945813329F4A9
:104D500081E080936A460E943E160E9438124CCC35
:104D600033243394F31048CC0E948B0E45CCCC24D2
:104D7000C3948FE89CE0FC103FCC1FCCDD24D3947F
:104D8000FD103ACC85E79CE00E94810E0E943D0E0A
:104D9000EEE8F4E4119211921192119276EAE72E64
:104DA00074E4F72EEE16FF06A9F710921D46109236
:104DB0001E4610921F46109220461ECC21E0F21291
:104DC0001BCC01E116E0F801F490FF2061F0FAE05D
:104DD000FF1203C08DE00E94FC0A0F5F1F4F8F2D52
:104DE0000E94FC0AF0CF8FE096E0E7CBBFE3BF154F
:104DF00008F40ACCEF2DF0E0E85EFA4B8083F394E0
:104E0000F092254401CCB3E1CB2EB6E4DB2E10E0CA
:104E100000E0EE24E394F12C96E1B92EF6018181B5
:104E2000882309F476C080818823C9F1848189327E
:104E300028F590E0FC01ED55FF4B40814F3FF1F02C
:104E4000FC01E453FF4B2081F0E22F9F90011124DD
:104E50003C5F8B509F4BDC018C91F0E0E0E08830B0
:104E600020F4F9017096E80FF11D9FB7F894D9016D
:104E700012964C938081886080839FBF6CE07CE0B9
:104E8000809118460115110521F06EE07CE08091BB
:104E90002E460E949B083DC001E010E0BFCF8581F7
:104EA0008932A0F590E0FC01EB50FF4B20812F3FB1
:104EB00069F184539F4BDC018C91E82FE295EE0F52
:104EC000E07EE20FF0E0E05FFB4F9081917F908306
:104ED00090E0FC0174E0EE0FFF1F7A95E1F7422F9E
:104EE00050E0170102C0220C331C2A95E2F72382FE
:104EF000880F991FFC01EA5AFF4B440F551F019080
:104F0000F081E02DE40FF51F10821182D601119679
:104F10001C92B09EF001B19EF00D11249F012D5EF8
:104F2000394BF90186859785A089B189892B8A2B10
:104F30008B2BC1F04685578560897189F601828582
:104F40009385A485B585840F951FA61FB71F8287FB
:104F50009387A487B587D9011E961D921D921D9235
:104F60001C925197B6E1CB0ED11C0130110509F00E
:104F700093CF789400914E4010914F40F801E85340
:104F8000FF4F208131814281538164817581868107
:104F900097813896EBAFFCAF80809180A280B38080
:104FA000D801BC912896BFAF2897F801F1812A96C5
:104FB000FFAF2A97D80112963C90129713962C9027
:104FC00013971496CC9014972C96CFAE2C971596D9
:104FD000DC9015972E96DFAE2E971696EC901697CE
:104FE0006096EFAE60971796FC9017976296FFAEAB
:104FF0006297CC906496CFAE64971196DC9011972F
:105000006696DFAE66971296EC9012976896EFAEB2
:1050100068971396FC9013976C96FFAE6C97149656
:10502000CC901497A096CFAEA0971596DC901597CC
:10503000A296DFAEA2971696EC901697A696EFAEC4
:10504000A6971796FC90AA96FFAEAA97ABADBCADFB
:105050004D905D906D907C901397CD90DD90ED908C
:10506000FC902796CCAEDDAEEEAEFFAE27970E9449
:105070007B386B017C01C501B4010E9403369B01A2
:10508000AC01C701B6010E94DE376B017C01289696
:105090002FAD28972A963FAD2A97432D522D2C9657
:1050A0006FAD2C972E967FAD2E9760968FAD609743
:1050B00062969FAD62970E9477384B015C016496BF
:1050C0002FAD649766963FAD669768964FAD68972B
:1050D0006C965FAD6C97A0966FADA097A2967FADD2
:1050E000A297A6968FADA697AA969FADAA970E9463
:1050F00077389B01AC01C501B4010E9462364B01B7
:105100005C01C301B2010E9403369B01AC01C501E1
:10511000B4010E94DE374B015C0127966CAD7DAD7A
:105120008EAD9FAD27970E9403369B01AC01C50150
:10513000B4010E94DE379B01AC01C701B6010E9499
:1051400076370E941039C0904A40D0904B40E09092
:105150004C40F0904D406B96CCAEDDAEEEAEFFAE67
:105160006B97A70196010E9462366F966CAF7DAF78
:105170008EAF9FAF6F9760937E4470937F44809310
:10518000804490938144ABADBCAD8D909D90AD902B
:10519000BC902090504030905140A1962EAE3FAE32
:1051A000A197609171447091724480917344909181
:1051B00074440E9401366B017C01D1011196A50156
:1051C00094010E943F370E9403369B01AC01C70146
:1051D000B6010E94DE37A5966CAF7DAF8EAF9FAF54
:1051E000A59730907D44CD56DF4F3882C359D040CB
:1051F000C0905240D0905340E0905440F0905540C1
:10520000CC56DF4FC882D982EA82FB82C459D04093
:10521000C0902C40D0902D40E0902E40F0902F4038
:10522000AD96CCAEDDAEEEAEFFAEAD972EE834E47B
:10523000E9962EAF3FAFE99742E854E42F964EAF80
:105240005FAF2F976EEB74E463966EAF7FAF63979B
:1052500089E594E4E7968EAF9FAFE797A1E4B4E4C5
:10526000EB96AEAFBFAFEB97E6EAF4E46596EEAF30
:10527000FFAF65976196EEAFFFAF619740E350E4F3
:1052800067964EAF5FAF679725966EAF7FAF259756
:1052900082E894E429968EAF9FAF2997A9E2B4E4FF
:1052A0002D96AEAFBFAF2D97EEE8F4E42B96EEAFA0
:1052B000FFAF2B97312C212CA196CEACDFACA19760
:1052C0002C143D040CF0D5C4310163E0660C771C4E
:1052D0006A95E1F7600E711ED3011896BC91C8560D
:1052E000DF4FB883C859D040F301F185C756DF4F6F
:1052F000F883C959D040D3011A96BC91C656DF4FE6
:10530000B883CA59D040F301F385C556DF4FF883FF
:10531000CB59D040D3011C96BC91C456DF4FB88303
:10532000CC59D040F301F585C356DF4FF883CD59F2
:10533000D040D3011E96BC91C256DF4FB883CE59E0
:10534000D040F301F785C156DF4FF883CF59D040E5
:10535000E796AEADBFADE797CD90DD90ED90FD90B7
:10536000E796AEAFBFAFE797EF96CCAEDDAEEEAE51
:10537000FFAEEF97F301F0ADC056DF4FF883C05A90
:10538000D040D301D996BC91CF55DF4FB883C15AD5
:10539000D040F301F2ADCE55DF4FF883C25AD04072
:1053A000D301DB96BC91CD55DF4FB883C35AD040B3
:1053B000F301F4ADCC55DF4FF883C45AD040D3018C
:1053C000DD96BC91CB55DF4FB883C55AD040F30171
:1053D000F6ADCA55DF4FF883C65AD040D301DF96E9
:1053E000BC91C955DF4FB883C75AD040EB96AEADDC
:1053F000BFADEB97CD90DD90ED90FD90EB96AEAF0D
:10540000BFAFEB97C158DF4FC882D982EA82FB82D7
:10541000CF57D040ABADBCADCD90DD90ED90FC90C2
:10542000CD57DF4FC882D982EA82FB82C358D04071
:10543000F801F081C855DF4FF883C85AD040D80131
:105440001196BC91C755DF4FB883C95AD040F801B7
:10545000F281C655DF4FF883CA5AD040D80113965F
:10546000BC91C555DF4FB883CB5AD040F801F481C9
:10547000C455DF4FF883CC5AD040D8011596BC9163
:10548000C355DF4FB883CD5AD040F801F681C255DD
:10549000DF4FF883CE5AD040D8011796BC91C15542
:1054A000DF4FB883CF5AD0407301E8E9EE0EF11C0C
:1054B000D701BC91C055DF4FB883C05BD040F70126
:1054C000F181CF54DF4FF883C15BD040D7011296F2
:1054D000BC91CE54DF4FB883C25BD040F701F3815B
:1054E000CD54DF4FF883C35BD040D7011496BC91F5
:1054F000CC54DF4FB883C45BD040F701F581CB5467
:10550000DF4FF883C55BD040D7011696BC91CA54D3
:10551000DF4FB883C65BD040F701F781C954DF4F36
:10552000F883C75BD040ABADBCAD2D913D914D91A3
:105530005C911397C957DF4F288339834A835B8374
:10554000C758D0402D913D914D915C91C557DF4F8B
:10555000288339834A835B83CB58D0406796AEADAE
:10556000BFAD67972D913D914D915D916796AEAF1F
:10557000BFAF6797A9962CAF3DAF4EAF5FAFA9976E
:10558000D301A859BF4F2C9111963C9111971296B7
:105590004C91129713965C91139714966C911497F3
:1055A00015967C91159716968C91169717969C9147
:1055B000EBADFCAD80809180A280B380D701BC911F
:1055C000C854DF4FB883C85BD040F701F181C7549E
:1055D000DF4FF883C95BD040D7011296BC91C65407
:1055E000DF4FB883CA5BD040F701F381C554DF4F6A
:1055F000F883CB5BD040D7011496BC91C454DF4FE5
:10560000B883CC5BD040F701F581C354DF4FF883FA
:10561000CD5BD040D7011696BC91C254DF4FB88302
:10562000CE5BD040F701F781C154DF4FF883CF5BE9
:10563000D040D701BC91C054DF4FB883C05CD0408C
:10564000F701F181CF53DF4FF883C15CD040D70120
:105650001296BC91CE53DF4FB883C25CD040F701A5
:10566000F381CD53DF4FF883C35CD040D70114964C
:10567000BC91CC53DF4FB883C45CD040F701F581B7
:10568000CB53DF4FF883C55CD040D70116964C90C2
:10569000169717965C90ABADBCADCD90DD90ED90BC
:1056A000FC901397E196CCAEDDAEEEAEFFAEE19787
:1056B000CD90DD90ED90FC90C157DF4FC882D9822C
:1056C000EA82FB82CF58D0400E947B386B017C017C
:1056D000C501B4010E9403369B01AC01C701B601AC
:1056E0000E94DE376B017C01C854DF4F2881C85B04
:1056F000D040C754DF4F3881C95BD040C654DF4F1C
:105700004881CA5BD040C554DF4F5881CB5BD04045
:10571000C454DF4F6881CC5BD040C354DF4F7881E5
:10572000CD5BD040C254DF4F8881CE5BD040C154A6
:10573000DF4F9881CF5BD0400E9477384B015C01EE
:10574000C054DF4F2881C05CD040CF53DF4F388139
:10575000C15CD040CE53DF4F4881C25CD040CD53B6
:10576000DF4F5881C35CD040CC53DF4F6881C45CAD
:10577000D040CB53DF4F7881C55CD040C2010E943E
:1057800077389B01AC01C501B4010E9462364B0120
:105790005C01E1966CAD7DAD8EAD9FADE1970E9451
:1057A00003369B01AC01C501B4010E94DE374B01F9
:1057B0005C01C157DF4F688179818A819B81CF5815
:1057C000D0400E9403369B01AC01C501B4010E9488
:1057D000DE379B01AC01C701B6010E9476370E94FB
:1057E00010399B01AC01F301EC52FF4F80818181A4
:1057F000828183818481858186818781EBADFCAD47
:1058000080819181A281B381A9966CAD7DAD8EAD71
:105810009FADA9970E9462366B017C016196AEAD87
:10582000BFAD6197CD92DD92ED92FD926196AEAFE4
:10583000BFAF61972D96AEADBFAD2D972D913D9128
:105840004D915C91E1962CAF3DAF4EAF5FAFE197CC
:10585000CD56DF4FB881C359D040BB2309F4DDC119
:10586000C856DF4F2881C859D040C756DF4F38810E
:10587000C959D040C656DF4F4881CA59D040C55695
:10588000DF4F5881CB59D040C456DF4F6881CC5987
:10589000D040C356DF4F7881CD59D040C256DF4F3C
:1058A0008881CE59D040C156DF4F9881CF59D04022
:1058B0000E947738EF962CAD3DAD4EAD5FADEF97C2
:1058C0000E9462364B015C01C056DF4F2881C05AEE
:1058D000D040CF55DF4F3881C15AD040CE55DF4F31
:1058E0004881C25AD040CD55DF4F5881C35AD0406D
:1058F000CC55DF4F6881C45AD040CB55DF4F7881FB
:10590000C55AD040CA55DF4F8881C65AD040C955C4
:10591000DF4F9881C75AD0400E947738C158DF4F77
:10592000288139814A815B81CF57D0400E946236FD
:105930009B01AC01C501B4010E9477374B015C01AA
:10594000CD57DF4F688179818A819B81C358D040D0
:105950000E9403369B01AC01C501B4010E94DE37F1
:105960004B015C01C855DF4F2881C85AD040C7554C
:10597000DF4F3881C95AD040C655DF4F4881CA5AD7
:10598000D040C555DF4F5881CB5AD040C455DF4F6A
:105990006881CC5AD040C355DF4F7881CD5AD04072
:1059A000C255DF4F8881CE5AD040C155DF4F988114
:1059B000CF5AD0400E9477382B013C01C055DF4FB1
:1059C0002881C05BD040CF54DF4F3881C15BD040CD
:1059D000CE54DF4F4881C25BD040CD54DF4F588159
:1059E000C35BD040CC54DF4F6881C45BD040CB5404
:1059F000DF4F7881C55BD040CA54DF4F8881C65BDA
:105A0000D040C954DF4F9881C75BD0400E9477389F
:105A10009B01AC01C301B2010E9462362B013C0123
:105A2000C957DF4F688179818A819B81C758D040EF
:105A30000E9403369B01AC01C301B2010E94DE3714
:105A40002B013C01C557DF4F688179818A819B8199
:105A5000CB58D0400E9403369B01AC01C301B20178
:105A60000E94DE379B01AC01C501B4010E9476376C
:105A70006B962CAD3DAD4EAD5FAD6B970E9462361F
:105A8000A9962CAD3DAD4EAD5FADA9970E94623693
:105A90004B015C01A70196016F966CAD7DAD8EAD9B
:105AA0009FAD6F970E9462369B01AC01C501B401A6
:105AB0000E94DE376B017C0126E636E646E85FE3AE
:105AC0000E94023918160CF49EC026E636E646E817
:105AD0005FEBC701B6010E94FD3587FD94C0A701A9
:105AE0009601C701B6010E944E3981118CC02596DE
:105AF000EEADFFAD2597C082D182E282F38220E035
:105B000030E040E05FE3C501B4010E9477370E94B6
:105B100046382996EEADFFAD299760837183AD9627
:105B20002CAD3DAD4EAD5FADAD97C501B4010E944A
:105B30006236A5962CAD3DAD4EAD5FADA5970E94EA
:105B4000DE37E1962CAD3DAD4EAD5FADE1970E94E5
:105B500077376B017C0120E030E041E655E40E949C
:105B6000DE370E9446382B96AEADBFAD2B978D9099
:105B70009D90AD90BD902B96AEAFBFAF2B97FD0122
:105B80003497AB01770F660B770BDB01CA01880DE9
:105B9000991DAA1DBB1D80839183A283B383CB0172
:105BA000BA010E94033620E030E041E655E40E944D
:105BB00062369B01AC01C701B6010E9476372D9673
:105BC000EEADFFAD2D9761937193819391932D96D7
:105BD000EEAFFFAF2D97FFEF2F1A3F0A29962EAD9C
:105BE0003FAD29972E5F3F4F29962EAF3FAF2997A4
:105BF00025964EAD5FAD25974C5F5F4F25964EAF16
:105C00005FAF259759CB2596AEADBFAD25971D92B9
:105C10001D921D921C92139772CFCC56DF4F288194
:105C200039814A815B81C459D0400E9462366B0140
:105C30007C012596AEADBFAD25971D921D921D929C
:105C40001C92139720E030E040E05FE30E9477373A
:105C50000E9446382996EEADFFAD29976083718387
:105C6000AD962CAD3DAD4EAD5FADAD97C701B60164
:105C70005ECFE0914E40F0914F40CF018C5F9E4F40
:105C80008E179F0719F010823196FACF80915845F0
:105C9000882309F4E5C0B12C56E0A52E80915B4520
:105CA000B816B8F090916440282F30E0220F331FCF
:105CB000E0912744F0912844E20FF31F891708F080
:105CC000C8C0A0E32A2EA5E73A2E219231928F5F19
:105CD000F5CF2DEC3CEC4CE45EE360912C407091F0
