:1002000015C5000045C5000043C500000C94BB1097
:100210003FC500003DC500003BC5000039C50000DA
:100220000C947A1135C5000033C5000031C50000BB
:100230002FC500002DC500002BC5000029C50000FA
:1002400027C5000025C5000023C5000021C500000A
:100250001FC500001DC500001BC5000019C500001A
:1002600017C5000015C500000C94961111C50000BB
:100270000FC500000DC500000BC500000C94C31095
:1002800007C5000005C5000003C500000C946811F7
:10029000FFC40000FDC40000FBC40000F9C400005E
:1002A000F7C40000F5C40000F3C40000F1C400006E
:1002B000EFC40000EDC40000EBC40000E9C400007E
:1002C000E7C40000E5C40000E3C40000E1C400008E
:1002D000DFC400000C94E5100C94DF100C94EB10BC
:1002E000D7C40000D5C40000D3C40000D1C40000AE
:1002F000CFC400004E414E494E495459494E46CD57
:10030000CCCC3D0AD7233C17B7D13877CC2B3295CC
:1003100095E6241FB14F0A000020410000C84200AA
:10032000401C4620BCBE4CCA1B0E5AAEC59D747004
:100330006861736500766F6C74616765203D2000AD
:10034000656D6F6E547834006861726477617265B0
:10035000203D200076657273696F6E203D20006637
:1003600069726D77617265203D20656D6F6E5F44C7
:10037000425F364354006A736F6E203D206F66669D
:10038000006A736F6E203D206F6E00646174616C53
:100390006F67203D20002C20694C65616400694333
:1003A000616C007643616C203D20004C6F77506F8C
:1003B0007765724C616273002C207266466F726DB5
:1003C0006174203D20002C207266506F776572208A
:1003D0003D20002C2072664E6F6465203D20002079
:1003E0004D487A2C20726647726F7570203D200050
:1003F0005246203D206F6E2C20726642616E642052
:100400003D20005246203D206F6666006D73002C33
:100410002070756C7365506572696F64203D2000B3
:100420006F66660070756C7365203D20004E6F200E
:10043000454550524F4D20636F6E666967004C6FA3
:100440006164656420454550524F4D20636F6E6670
:100450006967007672656661203D20000A002028E9
:1004600068696464656E292E002062797465730082
:100470002C20446174612073697A653A200020530E
:1004800069676E61747572653A20004E6F20646111
:10049000746120626C6F636B20666F756E64202DD3
:1004A00020454550524F4D20617070656172732038
:1004B000746F20626520666F726D6174746564206C
:1004C000746F204F454D205374616E6461726420D7
:1004D00062757420756E757365642E000A00206263
:1004E000797465732C206E6F7420666F726D617401
:1004F00074656420746F204F454D205374616E64A1
:100500006172640053697A653A2000446F6E652E0B
:10051000204E657720636F6E66696720736176652C
:100520006420746F20454550524F4D0053617669E9
:100530006E672E2E2E00536B657463682077696C8E
:100540006C206E6F7720726573746172742075739E
:10055000696E672064656661756C7420636F6E6692
:1005600069672E00526573657474696E672E2E2E4E
:100570000020000A417661696C61626C6520636FDE
:100580006D6D616E64733A0A6C09092D206C697394
:1005900074207468652073657474696E67730A7279
:1005A00009092D20726573746F726520736B657411
:1005B00063682064656661756C74730A7309092D3C
:1005C00020736176652073657474696E6773207437
:1005D0006F20454550524F4D0A7609092D2073680A
:1005E0006F77206669726D776172652076657273C8
:1005F000696F6E0A7A09092D207A65726F20656E1F
:10060000657267792076616C7565730A7809092DC2
:1006100020657869742C206C6F636B20616E642098
:10062000636F6E74696E75650A3F09092D207368E2
:100630006F772074686973207465787420616761CE
:10064000696E0A0A773C783E09092D207475726E2E
:100650002052464D20576972656C65737320646142
:100660007461206F66663A2078203D2030206F72DA
:10067000206F6E3A2078203D20310A623C6E3E09A0
:10068000092D2073657420722E662E2062616E64BF
:10069000206E203D20612073696E676C65206E7549
:1006A0006D6572616C3A2034203D203433334D48FF
:1006B0007A2C203439203D203433332E39324D48C2
:1006C0007A2C2038203D203836384D487A2C203975
:1006D000203D203931354D487A20286D61792072CE
:1006E00065717569726520686172647761726520F1
:1006F0006368616E6765290A703C6E6E3E09092D5C
:10070000207365742074686520722E662E20706FC9
:100710007765722E206E6E202D20616E20696E74BA
:10072000656765722030202D20333120726570722C
:100730006573656E74696E67202D31382064426D73
:1007400020746F202B31332064426D2E2044656667
:1007500061756C743A20323520282B372064426D45
:10076000290A673C6E6E6E3E092D20736574204E1B
:100770006574776F726B2047726F757020206E6E94
:100780006E202D20616E20696E7465676572202869
:100790004F454D2064656661756C74203D20323193
:1007A00030290A6E3C6E6E3E09092D207365742057
:1007B0006E6F6465204944206E3D20616E20696E35
:1007C000746567657220287374616E646172642059
:1007D0006E6F6465206964732061726520312E2E0E
:1007E0003630290A0A643C78782E783E092D207824
:1007F000782E78203D206120666C6F6174696E6789
:1008000020706F696E74206E756D62657220666F00
:10081000722074686520646174616C6F6767696ECB
:100820006720706572696F640A633C6E3E09092D2A
:10083000206E203D203020666F72204F46462C20CF
:100840006E203D203120666F72204F4E2C20656E49
:1008500061626C6520766F6C746167652C206375CE
:100860007272656E74202620706F776572206661E3
:1008700063746F722076616C75657320746F20737A
:10088000657269616C206F757470757420666F7223
:100890002063616C6962726174696F6E2E200A6AEE
:1008A0003C6E3E09092D207475726E204A534F4EDE
:1008B0002053657269616C20666F726D6174206F80
:1008C0006E20283129206F72206F6666202830291B
:1008D0002E0A663C78783E09092D207878203D2044
:1008E000746865206C696E65206672657175656EE9
:1008F000637920696E20487A3A206E6F726D616C60
:100900006C7920656974686572203530206F7220BB
:1009100036300A6B3C783E203C79792E793E203C7B
:100920007A7A2E7A3E0A09092D2043616C69627237
:1009300061746520616E20616E616C6F6775652002
:10094000696E707574206368616E6E656C3A0A0931
:1009500009202078203D20612073696E676C652036
:100960006E756D6572616C3A2030203D20766F6C3B
:10097000746167652063616C6962726174696F6E2E
:100980002C2031203D206374312063616C696272D8
:100990006174696F6E2C2032203D206374322063B5
:1009A000616C6962726174696F6E2C206574630A90
:1009B0000909202079792E79203D206120666C6F0D
:1009C0006174696E6720706F696E74206E756D62F8
:1009D000657220666F722074686520766F6C746132
:1009E00067652F63757272656E742063616C6962EE
:1009F000726174696F6E20636F6E7374616E740AD6
:100A0000090920207A7A2E7A203D206120666C6FB9
:100A10006174696E6720706F696E74206E756D62A7
:100A2000657220666F7220746865207068617365F6
:100A30002063616C6962726174696F6E20666F72A7
:100A4000207468697320632E742E20287A206973BD
:100A5000206E6F74206E65656465642C206F722053
:100A600069676E6F72656420696620737570706C5B
:100A70006965642C207768656E2078203D203029D8
:100A80000A09092020652E672E206B30203235366A
:100A90002E380A0909202020202020206B312039FF
:100AA000302E3920322E30300A6D3C783E203C7991
:100AB000793E092D206D657465722070756C7365C3
:100AC00020636F756E74696E673A0A0909202020E9
:100AD00078203D203020666F72204F46462C2078CB
:100AE000203D203120666F72204F4E2C203C7979BA
:100AF0003E203D20616E20696E74656765722066D8
:100B00006F72207468652070756C7365206D696EF6
:100B1000696D756D20706572696F6420696E206DF6
:100B2000732E202879206973206E6F74206E65659E
:100B30006465642C206F722069676E6F7265642033
:100B40007768656E2078203D2030290A00456E6563
:100B50007267792076616C75657320736574207493
:100B60006F207A65726F00436F6E74696E75696E7F
:100B7000672E2E2E007266506F776572203D200022
:100B800072664E6F6465203D20002C20694C6561C3
:100B900064006943616C007643616C203D20007203
:100BA0006647726F7570203D200066726571203D4A
:100BB0002000646174616C6F67203D20006A736F70
:100BC0006E203D206F6666006A736F6E203D206F59
:100BD0006E00204D487A00726642616E64203D20AE
:100BE000002C7066002C49002C70756C73653A00FF
:100BF0002C45002C50002C56004D53473A007D00E8
:100C00002C2270756C7365223A002C2245002C2230
:100C100050002C2256007B224D5347223A000A00F6
:100C200000080A400CFFC000C000E81511241FBED8
:100C3000CFEFCDBFDFE7DEBF80E38093011088ED0B
:100C400090EB84BF9093011011E4A0E0B0E4ECEECF
:100C5000F4E600E00BBF02C007900D92A031B1078F
:100C6000D9F72EE5A0E1B1E401C01D92A036B2078C
:100C7000E1F716E0C6E1D6E004C02197FE010E942C
:100C80004832C531D107C9F70E942A170C94743233
:100C9000B7CA8091595E8D3011F42D9A089587302E
:100CA00011F40F9A0895813109F44B9A08950000C8
:100CB00090915D5E911109C0809344098091430930
:100CC00087FFFCCF80914409089580936409809147
:100CD000630987FFFCCF8091640908958091595E74
:100CE0008D3011F42D980895873011F40F980895E0
:100CF000813109F44B980895CF93DF93D82FC62FF5
:100D0000EDDF8D2F8068D3DF8C2FD1DFDF91CF9186
:100D1000C0CFCF93C82FE2DF8C2FC9DF80E0C7DFC1
:100D2000C82FB7DF8C2FCF910895079A20E533ECB9
:100D300093E0179A44E1F9013197F1F74150D9F75F
:100D4000482F179AF9013197F1F7179A59E0F901ED
:100D50003197F1F75150D9F7415099F7915049F730
:100D6000E7CF9FB7F894E0912A0BF0912B0B80917D
:100D7000260B2091205730912157409122575091B6
:100D800023579FBF80FF08C0CF018827892B21F4FC
:100D90002F5F3F4F4F4F5F4F0F01169407941694EC
:100DA00007941694079416940794F00116940794E8
:100DB000E00DF11D16940794102C1694011816944A
:100DC000010C169401181694010C1694011816942F
:100DD0001694010C1124E019F109A8EEB3E00E9469
:100DE00013306E0F7F1F811D911D0895CF92DF92EA
:100DF000EF92FF92CF93DF936B017C01B2DFEB01A7
:100E0000C114D104E104F10471F0ABDF6C1B7D0B64
:100E1000683E7340A8F381E0C81AD108E108F108E0
:100E2000C851DC4FEDCFDF91CF91FF90EF90DF9075
:100E3000CF9008952FB7F894609120577091215763
:100E400080912257909123572FBF0895CF92DF9220
:100E5000EF92FF92CF9390916B579817E9F0C82FBC
:100E600081E057DF837E682F6C2B81E045DFE2DF76
:100E70006B017C0180916B57811114C087E249DFBF
:100E800087FD10C0D7DF6C197D098E099F09643674
:100E900071058105910570F3CF91FF90EF90DF9080
:100EA000CF900895C0936B57F7CF0F931F93CF93B5
:100EB000DF93EC0184E0CADF2097D9F08881882392
:100EC000C1F00CDF8EEBF3DE8E01005F1F4F8991C6
:100ED000EEDEC017D107D9F7DCDEC1E08DE319DF04
:100EE0008E7F682F6C2B8DE3DF91CF911F910F9137
:100EF00003CFC0E0F3CF10922A57109228571092D8
:100F00002957109226571092275710922557109262
:100F1000245788E2FEDE82FF06C08DE3FADE682FEA
:100F200064608DE3E9DE80E191CFAF92BF92CF9212
:100F3000DF92EF92FF920F931F93CF93DF936C0199
:100F40007B018B01040F151FEB015E01AE18BF087A
:100F5000C017D10759F06991D601ED91FC9101902C
:100F6000F081E02DC6010995892B79F7C501DF9144
:100F7000CF911F910F91FF90EF90DF90CF90BF9096
:100F8000AF900895FC0151894289252F30E0842FCC
:100F900090E0821B930B541710F0CF9608950197A1
:100FA0000895FC0197858089981761F0A089AE0F9C
:100FB000BF2FB11D53968C9190899F5F9F73908B2B
:100FC00090E008958FEF9FEF0895FC019785808949
:100FD000981731F08089E80FF11D838990E008951A
:100FE0008FEF9FEF0895FC0197852089892F90E06E
:100FF000805C9F4F821B91098F7399270895FC0194
:101000000FB607FE04C0809111018823A9F0A085C6
:10101000B18514968C91149785FF0EC091898289B1
:10102000981307C015968C9115978F7D15968C9304
:101030000895E8940C94F81008950F931F93CF939C
:10104000DF93EC018E8581608E8799898A89981358
:101050000BC0E885F985848185FF06C08E8581FDFA
:101060000DC080E4848312C0062F19891F5F1F738F
:101070008A89811315C0CE01C2DFFACF85818F77AF
:10108000806490E49483E885F9858583E885F98513
:10109000628381E090E0DF91CF911F910F910895DD
:1010A000E989EC0FFD2FF11DED5AFF4F0083198BDD
:1010B0008E85E885F98581FF09C085818F778066F7
:1010C00090E49483E885F9858583E3CF8581806208
:1010D000FBCF0F931F93CF93DF938C01D0E0C0E041
:1010E000F801EC0FFD1F6491662339F08CE697E55B
:1010F000A4DF892B11F02196F3CFCE01DF91CF91A0
:101100001F910F910895682F8CE697E596CFCF93A6
:10111000DF93EC018E85882359F0E885F985858178
:1011200085FD03C0848186FD03C0CE0168DFF5CF55
:10113000DF91CF9108958F929F92AF92BF92CF92FD
:10114000DF92EF92FF920F93CF936B017C0120E02F
:1011500030E040E05FE30E94DB2E87FF05C0C12C3A
:10116000D12CE12C8FE3F82EC0920540D09206409E
:10117000E0920740F09208408090E0569090E1564F
:10118000C091E25620E836E948E15BE4C701B601C8
:101190000E94402F6B017C01B12CA12CC501B40130
:1011A0000E94DF2E9B01AC01C701B6010E94B9303D
:1011B0000E9426316B017C0160E876E988E990E0C5
:1011C000A50194010E942330CA01B90100914A404F
:1011D000202F30E050E040E00E9423304427552784
:1011E000C701B601621B730B840B950B2C2F30E0EB
:1011F00050E040E00E9423302093D2563093D356E3
:101200004093D4565093D556CF910F91FF90EF90C5
:10121000DF90CF90BF90AF909F908F900895DC01AA
:10122000ED91FC91F170FC5E80810895CF92DF9288
:10123000EF92FF920F931F93CF93DF9300D0CDB720
:10124000DEB76C017C0103E010E009831A83CE0154
:101250000196E5DFF70181937F010F5F1F4F073094
:10126000110599F7C6010F900F90DF91CF911F9153
:101270000F91FF90EF90DF90CF9008950F931F9301
:10128000CF93DF9300D000D0CDB7DEB78C011982A9
:101290001A82CE010196C3DF8F34F9F481E090E029
:1012A00089839A83CE010196BADF8534B1F482E056
:1012B00090E089839A83CE010196B1DF8D3469F481
:1012C00081E00115110551F0CE010196AFDF81E0FB
:1012D0002B813C812017310709F080E02496CDBF97
:1012E000DEBFDF91CF911F910F9108951F93CF9390
:1012F000DF93EC01162F93DF8117B1F09FB7809138
:101300000210282F227081FDFACFF8948DE984BF56
:101310002093001023E184BF20930010E881F9811D
:10132000F170FC5E10839FBFCE01DF91CF911F91C2
:101330000895CF92DF92EF92FF920F931F93CF9376
:10134000DF9300D0CDB7DEB76C017C0103E010E085
:1013500009831A83F70161917F01CE010196C6DFEF
:101360000F5F1F4F0730110599F7C6010F900F90BF
:10137000DF91CF911F910F91FF90EF90DF90CF9071
:1013800008950F931F93CF93DF9300D0CDB7DEB7AF
:1013900000910D5E10910E5E80910F5E9091105E37
:1013A000081719079CF4C801957189839A836FEF18
:1013B000CE0101969BDF1092095E10920A5E809129
:1013C000075E9091085E080F191FE6CF0F900F90EF
:1013D000DF91CF911F910F910895FC0101900020A2
:1013E000E9F73197AF01481B590BBC018CE697E533
:1013F0009CCD8EED90E4F1CFCF93DF936ADEEC01CC
:10140000F8DF8C0F9D1FDF91CF910895009709F0B1
:10141000E4CF90E080E008958F929F92AF92BF92C8
:101420000F931F93CF93DF93CDB7DEB7A197CDBFB7
:10143000DEBF19A2423008F44AE08E010F5D1F4F53
:10144000842E912CB12CA12CA50194010E94233053
:10145000E62FB901CA01EA30D4F4E05DD801EE9379
:101460008D01232B242B252B79F790E080E010971A
:1014700011F0CD01B2DFA196CDBFDEBFDF91CF91DC
:101480001F910F91BF90AF909F908F900895E95C4E
:10149000E5CFAF92BF92CF92DF92EF92FF920F9380
:1014A0001F93CF93DF9300D0CDB7DEB76C015B0104
:1014B00010E000E00A151B057CF57801EC0CFD1C22
:1014C00085E1F822E982FA82CE010196A8DE803118
:1014D00010F480E318DE0F5F1F4FE982FA82CE011D
:1014E00001969DDE682F70E090E080E040E194DF9F
:1014F00089EF90E48BDFC80187709927892B19F455
:1015000089EF90E483DFC8018F709927892B91F6CA
:101510008EE19CE0DEDDCECF0F900F90DF91CF917A
:101520001F910F91FF90EF90DF90CF90BF90AF9001
:101530000895CF92DF92EF92FF92CF93DF9397FFC0
:1015400017C06B017C018DE2DEDDEC016627772799
:10155000CB016C197D098E099F094AE05DDF8C0F74
:101560009D1FDF91CF91FF90EF90DF90CF90089576
:101570004AE0DF91CF91FF90EF90DF90CF904CCF7A
:10158000BC01990F880B990BD4CF84E294E0A1DDC4
:101590008091525E882371F081E090E0F1DF8FE06E
:1015A00094E097DD8091535E9091545EE9DF8CE08A
:1015B00094E022CF80E294E0FCCF8FE593E01CDF43
:1015C00084E593E086DD81EE90E407DF88E493E034
:1015D00080DD80E493E010DF85E393E07ADD81E055
:1015E00090E0CEDF8FE293E007CF4F925F926F9251
:1015F0007F928F929F92AF92BF92CF92DF92EF92A3
:10160000FF920F931F93CF936B017C01742EAC015B
:101610009B010E943D32882391F089EE90E4CF91A6
:101620001F910F91FF90EF90DF90CF90BF90AF9000
:101630009F908F907F906F905F904F90CECE46019D
:101640005701E894B7F82FEF3FEF4FE75FE7C50189
:10165000B4010E943D3281110DC02FEF3FEF4FE7E3
:101660005FE7C501B4010E94DB2E18161CF48DEE55
:1016700090E4D5CF2FEF3FEF4FE75FE4C701B6010E
:101680000E94F73118161CF481EF90E4C8CF2FEFB9
:101690003FEF4FE75FECC701B6010E94DB2E87FDED
:1016A000F3CF20E030E0A901C701B6010E94DB2E94
:1016B00010E000E087FF07C08DE225DD8C01F7FA1E
:1016C000F094F7F8F094C0E060E070E080E09FE311
:1016D0007C1641F020E030E040E251E40E94B93055
:1016E000CF5FF6CFA70196010E9455302B013C0138
:1016F0000E9426314B015C014AE08EDE7C01E00E47
:10170000F11ECC23A9F1C501B4010E94DF2E9B017B
:10171000AC01C301B2010E9454304B015C0185EF62
:1017200090E45BDEE80EF91EC15010F120E030E0DD
:1017300040E251E4C501B4010E94402F2B013C015D
:101740000E9426314B01B12CA12C4AE0C501B40105
:1017500063DEE80EF91EC501B4010E94DF2E9B0175
:10176000AC01C301B2010E9454304B015C01DCCFDB
:10177000C701CF911F910F91FF90EF90DF90CF9015
:10178000BF90AF909F908F907F906F905F904F90A1
:101790000895CF93DF9329DFEC012BDE8C0F9D1F83
:1017A000DF91CF910895CF93DF93682F70E090E0A1
:1017B00080E04AE031DEEC011CDE8C0F9D1FDF91E2
:1017C000CF9108950F931F93CF93DF9380916B5721
:1017D000803109F062C088E29CDA82FF3BC084E07D
:1017E00035DB7CDA80E063DA80E061DAD82FC82F5D
:1017F000833408F0C2E4C093255780E058DA082FFC
:1018000080E055DA182F80E052DA282F30E0A90165
:1018100096E0440F551F9A95E1F744275370402BEB
:101820004093265750932757322F22272227337071
:10183000212B20932857309329579091575E941766
:10184000150611F0452B11F4D330A0F41092255752
:1018500020DA51DB80916B578031F9F48091255764
:101860008823E1F084E0F2DA81E0DF91CF911F91EB
:101870000F910895C350C0932A57807880932457BE
:10188000D0E0DC1720F480E012DADF5FFACF01DA73
:1018900080E1DCDA84E23DDADDCF2DDB80E0E5CFEC
:1018A0008091145E882309F449C080EF93E011DC35
:1018B0008091115E8B3271F1813389F18635A1F10E
:1018C0008B3509F436C060E070E0CB0142E08DDE7C
:1018D0008FED93E0FEDB6091125E70E090E080E0BF
:1018E0004AE09ADD83ED93E0F4DB8091135E8F7321
:1018F00090E046DE86EC93E0ECDB6091155E70E0F4
:1019000090E080E04AE088DD88EB93E0E2DB8BEA60
:1019100093E072CD60E070E888ED93E4D7CF63EC9C
:1019200075EF88ED93E4D2CF60E070E089E594E450
:10193000CDCF60E070EC84E694E4C8CF83E094E01F
:10194000E8CF0F931F93CF93DF9383EA93E0C1DB3C
:101950006091165E7091175E8091185E9091195E8D
:1019600042E050E016DF0EE11EE5C1E0D0E08EE976
:1019700093E0AFDBCE0104DE87EF90E447DDF801B2
:1019800061917191819191918F0142E02EDE86E902
:1019900093E09FDBCE01F4DD87EF90E437DDF801C3
:1019A000648975898689978942E050E0F2DE219644
:1019B000C730D105E1F6E9DD73DF8BE893E089DB21
:1019C00060914E5E70914F5E8091505E9091515E3D
:1019D00042E050E0DEDE8091565E811107C086E76E
:1019E00093E0DF91CF911F910F9106CD81E893E0B5
:1019F000F8CF94E0811119C09093260490912004AF
:101A000092FD0AC09FB7F894811112C080913204F0
:101A1000877F809332049FBF8091E605982F97704F
:101A2000913051F0887171F0089590932504E6CFBC
:101A3000809132048860EDCF8091010A8B7F809382
:101A4000010A08958091410A8B7F8093410A08958D
:101A50000F931F93CF93DF93CDB7DEB72C97CDBFF6
:101A6000DEBF681BF1F0062F10E0682F70E0655DA7
:101A7000784AA801CE0101960E946532E1E0F0E0CB
:101A8000EC0FFD1FE00FF11F1082CE0101960E94A6
:101A9000412D2C96CDBFDEBFDF91CF911F910F91CD
:101AA000089590E080E0F5CF0F931F93CF93DF93DD
:101AB000CDB7DEB72C97CDBFDEBF681BF1F0062F88
:101AC00010E0682F70E0655D784AA801CE010196AC
:101AD0000E946532E1E0F0E0EC0FFD1FE00FF11F26
:101AE0001082CE0101960E943E2D2C96CDBFDEBF06
:101AF000DF91CF911F910F91089560E070E0CB01CD
:101B0000F4CF2F923F924F925F926F927F928F927B
:101B10009F92AF92BF92CF92DF92EF92FF920F937C
:101B20001F93CF93DF93CDB7DEB72A97CDBFDEBF2C
:101B300089879A87162F7A01222E312CB101032C26
:101B4000000C880B990B0E94E12E4B015C01612F68
:101B500070E090E080E00E94E12E20E030E044EB75
:101B600053E40E94402F2B013C01B70190E080E03C
:101B70000E94DF2E9B01AC01C301B2010E94402FE5
:101B8000A50194010E94402F20E836E948E15BE47A
:101B90000E94B9302B013C01E985FA8505818081DD
:101BA000081B110B21813281438154816681778129
:101BB000808591850E945430A30192010E94B93022
:101BC0006B017C01B801012E000C880B990B0E945F
:101BD000E12EA50194010E94B9309B01AC01C7011F
:101BE000B6010E9455306D837E838F8398870E9453
:101BF000943169837A838B839C8320E030E040E8D2
:101C00005FE30E9455306B017C0120E030E0A901C8
:101C100069817A818B819C810E94F73187FDA2C006
:101C2000A7019601C501B4010E94402F0E942131F5
:101C3000E985FA856287738716861786E985FA85AE
:101C400026853785020F131F06871787020D131D80
:101C50000487158720E030E044EB53E4C301B20170
:101C60000E94B9302BED3FE049EC50E40E94402F38
:101C70006B017C0129813A814B815C816D817E8180
:101C80008F8198850E945430A30192010E94402FB9
:101C900020E030E044EB53E40E94B9302BED3FE00C
:101CA00049EC50E40E94402F4B015C01A7019601D2
:101CB0000E94B9302B013C01E985FA85448A558A96
:101CC000668A778AA5019401C501B4010E94402F5C
:101CD00020E030E040E05FE30E94402F9B01AC0138
:101CE00060E070E080E89FE30E9454304B015C01AB
:101CF000A7019601C701B6010E94402F20E030E005
:101D000040E05FE30E94402F9B01AC0160E070E087
:101D100080E89FE30E945430A30192010E94402F6B
:101D20009B01AC01C501B4010E945430E985FA85DC
:101D3000608B718B828B938B2A96CDBFDEBFDF9138
:101D4000CF911F910F91FF90EF90DF90CF90BF90B8
:101D5000AF909F908F907F906F905F904F903F904B
:101D60002F900895E985FA8512861386C701B6017A
:101D70009058A50194010E94402F0E942131E985CD
:101D8000FA85668777875ACFCF92DF92FF920F93BB
:101D90001F93CF93DF930FE5089FF0011124EF010C
:101DA000C95CD74AAA81BB811F962C911F972A8BA9
:101DB00016964D915D916D917C9119974B8B5C8B33
:101DC0006D8B7E8BA881B9811F962C911F972F8BCD
:101DD00016964D915D916D917C911997488F598F11
:101DE0006A8F7B8F2091E256C090E056D090E156EA
:101DF000F0904A408F01A6016F2DCF01875B974A73
:101E000080DEEC81FD818A819B818E179F0729F1FD
:101E100087858AA786819781A085B1858BA79CA796
:101E2000ADA7BEA7E881F98187858FA786819781B5
:101E3000A085B18588AB99ABAAABBBAB2091E2562C
:101E4000A6016F2DC8018F59974ADF91CF911F913D
:101E50000F91FF90DF90CF9054CEDF91CF911F91E3
:101E60000F91FF90DF90CF900895CF92DF92EF9285
:101E7000FF920F931F93CF93DF93CDB7DEB7AD974C
:101E8000CDBFDEBF8DE08093595E8EE080935A5EB9
:101E90008FE080935B5E80E180935C5E81E0809365
:101EA0005D5E0091125E1091115E9091135E9093B1
:101EB000575E1092585E90E2909321048093410403
:101EC0009FB7F89482E08093420480915104877F09
:101ED000809351049FBF80915C5E893288F490E0CA
:101EE000FC01EF5AFF4B20812F3F51F086589F4B4A
:101EF000DC01EC91B0E2EB9FF0011124FC5F218347
:101F00000E94490680915D5E8111DBC08091E405ED
:101F10008C7F8093E405809141098460809341091E
:101F2000809140098162809340090E941A076B01E9
:101F30007C016AEA8FE20E947C068FE20E94890699
:101F40008A3A59F00E941A076C197D098E099F0977
:101F5000623371058105910560F30E941A076C19BF
:101F60007D098E099F09623371058105910508F08D
:101F7000DDC00E941A076B017C0165E58FE20E94BB
:101F80007C068FE20E948906853559F00E941A0767
:101F90006C197D098E099F096233710581059105D0
:101FA00060F30E941A076C197D098E099F0962333C
:101FB00071058105910508F0B9C0FE0133968BE2E9
:101FC000DF011D928A95E9F781E0898394E09A8385
:101FD00022E02B8383E08D832E839F8390E4988778
:101FE00025E029878A8786E08B8783E38C8787E0D3
:101FF0008D8728E02F8729E0298B29E12B8B22E48C
:102000002C8B35E23D8B9E8B96E29F8B888F88E2EE
:10201000898F90E19A8F89E28B8F8CED8C8F8EE285
:102020008D8F88E88E8F8FE28F8F8DE288A380E37B
:1020300089A337E33BA330E93CA338E33DA32EA3B8
:102040002CE32FA32FE828A72DE329A79AA79FE623
:102050009BA78CA78EE41F3159F01B3241F011333E
:1020600031F089ED163521F084EE1B3509F08CE650
:102070008E871F31B1F180E41B3241F0113329F01A
:1020800080E0163519F01B3561F18AE7888B1F3126
:1020900041F01B3231F0113331F1163511F01B359F
:1020A00011F580E08A8B0AA38E010F5F1F4FF801A4
:1020B00080818823D1F061810E947C060E5F1F4FD2
:1020C000F6CF8091E405837F8093E40580916109D8
:1020D00084608093610980916009816280936009C6
:1020E00024CF80ECD3CF81EEDDCF90E080E00E9462
:1020F000550769E981E10E947C0684E00E94260779
:102100000E941A076B017C0187E20E94890687FD05
:102110000BC00E941A076C197D098E099F09623352
:1021200071058105910580F30E941A078BEF90E4F9
:102130000E9455072091135EF4E12F9F8001112426
:1021400060E070E0CB010115110541F00E94E92C1F
:102150009801110F440B550B0E94F72FAD96CDBF80
:10216000DEBFDF91CF911F910F91FF90EF90DF9035
:10217000CF900C94F6061F920F920FB60F92112477
:1021800084E00E949506EF93FF93E0E2F7E58F93DA
:102190008FB78F9380818F5F808381818F4F818301
:1021A00082818F4F828383818F4F838381E08093ED
:1021B000260B8F918FBF8F91FF91EF911895EF9321
:1021C000FF93F898ECE6F7E50BC0EF93FF93F898D0
:1021D000ECE6F7E534C0EF93FF93ECE6F7E55FC07C
:1021E0002F932FB72F938F939F93AF93BF936894A1
:1021F000CF93DF9320E0C085D8E09289DF01A90F5B
:10220000B21FAD5ABF4F8C9120E42C838A839F5F0D
:102210009F738D812189291302C08F7D8D83928BBD
:10222000DF91CF9116F00C941C08BF91AF919F9154
:102230008F912F912FBF2F91FF91EF9118952F9391
:102240002FB72F933F938F939F93CF93DF93C085A7
:10225000D8E02E812F7E2E83898198818674880F05
:102260003685382B82FD0DC0C78581E08C0F8F73BA
:102270002089281791F0CE0FDF2F20E0D21F9B8BF3
:1022800087873687DF91CF919F918F913F912F91D3
:102290002FBF2F91FF91EF9118953064F2CF8F935C
:1022A0008FB78F939F93CF93DF93C085D8E09D81A5
:1022B00088818C8187FDFCCF9F7B90689D83DF9117
:1022C000CF919F918F918FBF8F91FF91EF91189533
:1022D0001F920F920FB60F9211248F9388E0809374
:1022E000A90481E08093DD568F910F900FBE0F906F
:1022F0001F9018951F920F920FB60F9211248F9373
:102300009F93809109048093090486FF03C091E0A4
:102310009093DF5687FF03C081E08093DE569F9144
:102320008F910F900FBE0F901F9018951F920F92D4
:102330000FB60F9211240BB60F922F923F924F922D
:102340005F926F927F928F929F92AF92BF92CF9245
:10235000DF92EF92FF920F931F932F933F934F9330
:102360005F936F937F938F939F93AF93BF93EF93FD
:10237000FF93CF93DF93CDB7DEB72A97CDBFDEBFF4
:1023800081E080930D0680911006909111068D8357
:102390009E838091D1568E5F9091E256891718F0F6
:1023A0009091E256891B90E0FC01EE0FFF1FE80FB1
:1023B000F91FE75EFF4B8081809308068D819E8127
:1023C000209101583091025836952795821B930B26
:1023D0008D839E838D819E81E091CF56F091D05662
:1023E000EE0FFF1FE153F14B8083918319821A8214
:1023F0001B821C822D813E810D811E8122241302AD
:10240000B001029FA00112037209500D611D721DDF
:1024100030037209500D611D721D112449835A83C6
:102420006B837C8389809A80AB80BC80A0910140C3
:10243000B0910240E091D15608E0E09FF0011124F4
:10244000EA0FFB1FE058FF4F20803180428053800D
:1024500064807580068117819401A50160E070E0B9
:1024600080E090E05101620173010E9451322083AB
:1024700031834283538364837583868397834D813D
:102480005E81E091D15618E0E19FF0011124EA0F3E
:10249000FB1FA084B184C284D384E484F5840685C0
:1024A0001785952F990F990B9A01492F592F692F4D
:1024B000792F892F0E945132208731874287538795
:1024C0006487758786879787E091D1568E2F90E035
:1024D000FC01EE0FFF1FE80FF91FE75EFF4B808145
:1024E0008111CFC08091CD4E9091CE4E9C013695FA
:1024F000279536952795AC01421B530B9A018D8188
:102500009E81181619060CF478C08D819E819195D4
:1025100081959109820F931F8093CD4E9093CE4E5B
:1025200021E04091FF57509100584817590708F093
:1025300020E02093BC5D8D819E81181619060CF059
:102540005FC081E090E08093CB4E9093CC4E209181
:10255000CB4E3091CC4E8091C74E9091C84E2817EB
:10256000390709F452C08091C44E8F5F8093C44EE6
:102570008091C44E882351F01092C44E8091CB4E6E
:102580009091CC4E8093C94E9093CA4E8091C94E83
:102590009091CA4E019709F016C38091C74E909151
:1025A000C84E019709F465C08091C54E9091C64E02
:1025B00001968093C54E9093C64E209104402223ED
:1025C00039F1209103402817190609F008F51092F7
:1025D00004401092C54E1092C64E14961D921D9244
:1025E0001D921C921797CD0188529D4FFD01E8174F
:1025F000F90771F010823196FACF8D819E818ACFD2
:102600001092CB4E1092CC4EA2CF1092C44EB0CFAF
:1026100014964D915D916D917C9117974F5F5F4F2F
:102620006F4F7F4F14964D935D936D937C931797E7
:102630000D911D912D913C9113974091D25650913F
:10264000D3566091D4567091D556041715072607B6
:10265000370778F080914B4090914C40A0934B40CD
:10266000B0934C40809301409093024081E080936E
:10267000E5568091C94E9091CA4E8093C74E909373
:10268000C84E9091D1568091E456981708F445C2EF
:102690008090CF569090D056E091D1568E2F90E0FA
:1026A000FC01EE0FFF1FE80FF91FE75EFF4B0180F3
:1026B000F281E02D848D958D881A990A53E0952238
:1026C000E091CF56F091D056A091D1568A2F90E04C
:1026D000DC01AA0FBB1FA80FB91FA75EBF4B119645
:1026E0000D90BC91A02D5E968D919C91E81BF90BED
:1026F000F3702091CF563091D056A091D1568A2FA9
:1027000090E0DC01AA0FBB1FA80FB91FA75EBF4B4B
:1027100011960D90BC91A02D90968D919C91281BA7
:10272000390BD901B370AF83B887880C991C840129
:102730000153114B4801D8016D917C91EE0FFF1FA1
:10274000E153F14B40815181222457029001469F71
:10275000800156033209100D211D321D7403320908
:10276000100D211D321D112428013901E091014075
:10277000F0910240A091D15618E0A19FD001112400
:10278000AE0FBF1FA850BF4FAC901196BC901197D1
:1027900012962C90129713963C90139714960C91C6
:1027A0001497098715961C9115971A8716960C9100
:1027B000169717961C91179773016201FF0CCC08AE
:1027C000DC2C76019201A3016C2D7C2D8C2D9C2D8F
:1027D0006101E984FA840E9451322C9311963C9352
:1027E000119712964C93129713965C931397149625
:1027F0006C93149715967C93159716968C93169751
:1028000017969C93D4016D917C91AF81B885AA0FE6
:10281000BB1FA153B14B4D915C91222457029001F3
:10282000469F800156033209100D211D321D74038D
:102830003209100D211D321D112448015901A091AA
:10284000D15618E0A19FD0011124AE0FBF1FA0598F
:10285000BE4F2C9011963C9011971296CC901297E7
:102860001396DC9013971496EC9014971596FC90A1
:10287000159716960C91169717961C911797240189
:102880003501770C4408542C32019401A501642DC4
:10289000742D842D942D51010E9451322C93119648
:1028A0003C93119712964C93129713965C9313973F
:1028B00014966C93149715967C93159716968C9393
:1028C000169717969C93A091D1568091D1562A2F96
:1028D00030E0D901AA0FBB1FA20FB31FA75EBF4BE9
:1028E00011962D913C9190E0DC01AA0FBB1FA80F1F
:1028F000B91FA75EBF4B11968D919C91D90112967D
:102900002D913C91DC0114968D919C9128173907EB
:1029100009F403C18090CF569090D056A091D15623
:102920008A2F90E0DC01AA0FBB1FA80FB91FA75E7A
:10293000BF4B11960D90BC91A02DD4968D919C917A
:10294000881A990AB3E09B222091CF563091D05635
:102950008091D15690E0DC01AA0FBB1FA80FB91FD0
:10296000A75EBF4B11960D90BC91A02DD6968D9170
:102970009C91D901A81BB90BBD0173704091CF5632
:102980005091D0568091D156282F30E0C901880F40
:10299000991F820F931F875E9F4BDC0111968D91CB
:1029A0009C91DC01D8968D919C91481B590BDA01C2
:1029B000B370AF83B887880C991C84010153114B05
:1029C0004801D8018D919C91DB01AA0FBB1FA15337
:1029D000B14B4D915C91BC01222457029001469F5E
:1029E000800156033209100D211D321D7403320976
:1029F000100D211D321D112428013901A091D1563D
:102A000078E0A79FD0011124AE0FBF1FA851BE4F81
:102A1000AC901196BC90119712962C901297139629
:102A20003C90139714960C911497098715961C9156
:102A300015971A8716960C91169717961C9117974B
:102A400079016201FF0CCC08DC2C76019201A30114
:102A50006C2D7C2D8C2D9C2D6101E984FA840E94C3
:102A600051322C9311963C93119712964C931297D6
:102A700013965C93139714966C93149715967C9306
:102A8000159716968C93169717969C93D4016D9173
:102A90007C91AF81B885AA0FBB1FA153B14B4D915B
:102AA0005C91222457029001469F8001560332090F
:102AB000100D211D321D74033209100D211D321D10
:102AC0001124280139018091D15618E0819FC0015D
:102AD0001124E80FF91FE05AFD4FB081A181C28097
:102AE000D380E480F5800681178153014201BB0C3D
:102AF0008808982C54019201A301682D782D882D07
:102B0000982DAB2EBA2E0E945132208331834283FE
:102B1000538364837583868397838091D1568F5FB7
:102B20008093D1568091CF569091D0560196809344
:102B3000CF569093D0569091D1568091E2569817E7
:102B400088F01092D156E0910140F09102408081CE
:102B50009181A281B3810196A11DB11D80839183D2
:102B6000A283B3838091CF569091D0569370809377
:102B7000CF569093D0562A96CDBFDEBFDF91CF912E
:102B8000FF91EF91BF91AF919F918F917F916F9145
:102B90005F914F913F912F911F910F91FF90EF9077
:102BA000DF90CF90BF90AF909F908F907F906F906D
:102BB0005F904F903F902F900F900BBE0F900FBEE5
:102BC0000F901F9018958091C74E9091C84E51CD8F
:102BD000EF92FF920F931F93CF93DF9300D0CDB767
:102BE000DEB710926E5710926F5788EE93E0A0E018
:102BF000B0E08093705790937157A0937257B09341
:102C0000735780ED90E480936C5790936D5780E6F6
:102C100098E0809374579093755780E29CE080937E
:102C200076579093775782E0809378571092795730
:102C300010927A5780E090E0A8ECB2E48093A85D0F
:102C40009093A95DA093AA5DB093AB5D1092BB5D1C
:102C50001092BC5D8093BE5D9093BF5DA093C05DFC
:102C6000B093C15D1092D15D1092D25D8093D45D1E
:102C70009093D55DA093D65DB093D75D1092E75D3C
:102C80001092E85DEBEAFCE581839283A383B48331
:102C9000148A75962DE5E73AF207B1F787E398E5D0
:102CA000FC01E25AFF4F1082815A9F4F4CE58B3A4C
:102CB0009407B1F7E7E0F8E524E130E092E081E045
:102CC00020833183928313821482158216821782A5
:102CD0001086118682871386709648E5E733F407DD
:102CE00079F710920358109204581092055880E01A
:102CF00090E1809301589093025880E091E0809396
:102D0000FF57909300588EEF90E080930B5E909366
:102D10000C5E8DE190E08093075E9093085E8DE0FD
:102D200090E08093055E9093065E84E890E0809347
:102D30000D5E90930E5E8DEF91E080930F5E909309
:102D4000105E1092095E10920A5E04E810E009839A
:102D50001A83CE0101960E940F0978019DE1E90EC8
:102D6000F11C8F3F09F46EC00093095E10930A5E58
:102D70002DEFE21621E0F2065CF4E982FA82CE0140
:102D800001960E940F098F3F09F458C00E94C109A3
:102D90008AE08093595E8BE080935A5E8CE080934A
:102DA0005B5E8DE080935C5E10925D5E81E380935C
:102DB000115E82ED8093125E8BE18093135E81E061
:102DC0008093145E99E19093155E4AE959E96AECA3
:102DD00072E44093165E5093175E6093185E709392
:102DE000195E40E050E068E472E440931A5E50934C
:102DF0001B5E60931C5E70931D5E4DEC5CEC6CE1A1
:102E000071E440934E5E50934F5E6093505E7093BA
:102E1000515E8093525E84E690E08093535E90937F
:102E2000545E1092555E1092565E0F900F90DF9197
:102E3000CF911F910F91FF90EF9008954DE1E40E17
:102E4000F11C96CF87018DEFE81681E0F80609F0B6
:102E50007ECF9ECFCF93DF93CDB7DEB7C657D109D4
:102E6000CDBFDEBF88ED21E030E084BF209362005B
:102E700091E084BF909363009DE284BF90938000B3
:102E800093E084BF9093600080E090E22091650021
:102E900020FD05C321E02093030A8EEF8093260ACC
:102EA0008093270A9BE09093000A32E03093E60576
:102EB0002093430A8093660A8093670A9093400A9E
:102EC0009093E70537E03093010B80930C0B109241
:102ED0000D0B95E09093000B3093110B80931C0B1E
:102EE00010921D0B9093100B3093310B80933C0B81
:102EF00010923D0B9093300B4FEF5FE04093AA0B85
:102F00005093AB0B80E88093820B1092810B4EEFB5
:102F100050E04093AE0B5093AF0B88ED34E184BF8B
:102F20003093680081E18093800BE0E0F6E09283CB
:102F30008EE0858380E6838390838091B000887FD4
:102F400085608093B0008091B200887F8560809317
:102F5000B2008FED9EE280932C0B90932D0B20936B
:102F6000250B1092210B83E08093200B789484E052
:102F70008093210481E00E94F90C80917A5780FFB0
:102F800014C08CE697E50E948708E0917457F09191
:102F90007557868116828581158280E484838091AD
:102FA0007C5780937B5710927A571FB7F894E09123
:102FB0007457F0917557168233E0378381E493E0BC
:102FC00080879187148680E8858380EC86832091B2
:102FD0007957609178578091765790917757FC0197
:102FE000239FE00DF11D112445915491261708F0FF
:102FF0003FC0252F30E0593280F4F901EF5AFF4BE2
:1030000070817F3F51F026583F4BD901EC91B0E2DF
:10301000EB9FF0011124FC5F718371E0750F272F86
:1030200030E0793228F5F901EF5AFF4B70817F3F8C
:10303000F9F0F901E658FF4BA081E0E2AE9FD00124
:103040001124BC5F2D553F4BF9010081F0E0E0E019
:10305000083030F49D01205F3F4FF901E00FF11D72
:103060003FB7F89412967C932081286020833FBF5D
:10307000FC0103E0609FE00DF11D112431962591C4
:103080003491F901FF27EE51FA4F9081832F8095FB
:103090008923482B40831FBF0E94DD0A9FB7F89405
:1030A00080E180930204809114048860809314046A
:1030B0009FBF9FB7F89480E280930204809115042B
:1030C0008860809315049FBF8091080485FD05C02A
:1030D0008091135E8F5F8093135E0EE11EE50BAB54
:1030E0001CAB86E39EE5F80100E010E020EA31E445
:1030F0004DEC5CEC6CE470E40193119321933193FB
:10310000448B558B668B778B8E179F07A9F780E0D2
:1031100090E0A8ECB2E480931E5E90931F5EA093B3
:10312000205EB093215E80E090E0A8E4B2E480935A
:10313000225E9093235EA093245EB093255E8093DD
:10314000265E9093275EA093285EB093295E80E26E
:1031500090E00E943E09882341F1CE0101960E9431
:10316000160909811A8117FD20C0680123E0C20EEB
:10317000D11CF1E1EF2EFEE5FF2E87E090E05C012F
:103180003FEFA31AB30A8FA798ABCE018F960E9488
:103190000F09D7018D937D01C501AC14BD0478F3EF
:1031A0008EE394E00430110511F48DE294E00E9466
:1031B000FC090E94A10C8091080484FD03C081E0F9
:1031C0008093DB568091145E81110E94350F8EE052
:1031D0008093050680910306809303061092B00049
:1031E00086E08093020681E08093000680910006CD
:1031F0008093000687E08093080660E070E0CB01D2
:1032000050E040E0E1E0E0930A0620910D0620FF47
:10321000FCCF4A30510544F0209110063091110640
:10322000620F731F811D911D4F5F5F4F4A31B7E2DF
:103230005B0749F70E94DF2E20E030E44CE156E4C2
:103240000E94B93020E030EF4FE755E40E94B930DA
:103250009B01AC0166E676E686E69FE30E94B93004
:103260006B017C0183E594E00E94690844E050E032
:10327000C701B6010E94C90B4090165E5090175EC0
:103280006090185E7090195E1092A75D8090464025
:1032900090904740A0904840B09049408FAA98AE87
:1032A000A9AEBAAE609101587091025890E080E0EA
:1032B0000E94DF2E4B015C0123EA33E240E051E43F
:1032C000C301B2010E94402F2FA938AD49AD5AADBC
:1032D0000E94402FA50194010E94B9306093A85D1F
:1032E0007093A95D8093AA5D9093AB5D1092AC5DE5
:1032F0008AE097EDA3E2BEE38093AD5D9093AE5D6F
:10330000A093AF5DB093B05D1092B15D1092B25DCD
:103310001092B35D1092B45D1092B55D0BEA1CE59E
:1033200020E0ABA9BCA958962D903D904D905C90A3
:103330005B976D917D918D919D91ABABBCAB7724EB
:103340007394720EF801208320E030E040E450E4F2
:103350000E94402F2FA938AD49AD5AAD0E94402F91
:10336000A50194010E94B930D80111966D937D9307
:103370008D939C93149715961C921597F8012682AD
:1033800037824086518612861B961D921D921D9291
:103390001C921E970B5E1F4F272D263011F6909121
:1033A000E356A6EEB6E52BEA3CE580E01FE547EAEA
:1033B0005DE571E0682F690F8F5F169FF0011124A2
:1033C000E95CF74A208331834283538344835583E6
:1033D000E25AFF4F70836D932B5E3F4F863051F75B
:1033E000E6E03E2E390E3092E3568091DB56811195
:1033F0005CC082E380934A408AE0809303406091FE
:103400004E5E70914F5E8091505E9091515E0E9431
:103410009B08C0924640D0924740E0924840F092CC
:1034200049408091525E80931058882309F43FC030
:1034300089E0809316048091535E9091545E80934E
:1034400007589093085882E08093095881E0809350
:103450001158E090095EF0900A5EE114F10409F45D
:1034600082C187010F5F1F4F79EEC72E7DE5D72EF2
:103470008091075E9091085E8E0D9F1D08171907B9
:10348000CCF4C801957189839A83CE0101960E947C
:103490000F09F60181936F010F5F1F4FE9CF01976D
:1034A00009F0F4CC83E00E9495068CE3A3CF109240
:1034B0001604C1CF4090E95D5090EA5D6090EB5DED
:1034C0007090EC5D8090ED5D9090EE5DA090EF5D72
:1034D000B090F05DC090F15DD090F25DE090F35D52
:1034E000F090F45D0091F55D1091F65D2091F75D2F
:1034F0003091F85D4091F95D5091FA5D6091FB5D0E
:103500007091FC5D8091FD5D9091FE5DA091FF5DED
:10351000B091005E8BAB9CABADABBEAB8091015E5E
:103520009091025EA091035EB091045E40928D582E
:1035300050928E5860928F58709290588092EC58AA
:103540009092ED58A092EE58B092EF58C0924B591D
:10355000D0924C59E0924D59F0924E590093AA598D
:103560001093AB592093AC593093AD594093095AFD
:1035700050930A5A60930B5A70930C5A8BA89CA8CC
:10358000ADA8BEA88092685A9092695AA0926A5AD1
:10359000B0926B5A80930A5890930B58A0930C5892
:1035A000B0930D5885E18093DA5688E090E08093DF
:1035B000D8569093D95688EE91E08093E056909338
:1035C000E1561092D7569091E4564BEA5CE5E7E35A
:1035D000F8E580E011E0DF01A25ABF4F2C912223D1
:1035E00009F453C0A82FB0E09D01220F331FA20F92
:1035F000B31F9D01275E3F4B7901D9012C912F3FCD
:10360000C1F422813381D90154966C915497611190
:1036100010C01F968C931F9754961C9354972C910F
:1036200030E0275F3F4BD9012C91D7012C938F5F5E
:103630009F5F24813581628173812617370729F1C5
:10364000682F70E0DB01AA0FBB1FA60FB71FBD01DB
:10365000675E7F4B7B01DB016C916F3FB1F4D90159
:1036600054966C915497611110C01F968C931F97BC
:1036700054961C9354972C9130E0275F3F4BD9010F
:103680002C918F5FD7012C939F5FE15AFF4F4E170C
:103690005F0709F0A0CF9093E4568093D75690919E
:1036A000D65627E338E561E0D901A25ABF4F4C91C5
:1036B000442359F1A82FB0E0AD01440F551FA40FCA
:1036C000B51F8D01075E1F4BD8014C914F3FE9F4A8
:1036D000D9014D915C91DA0154967C915497711106
:1036E00014C01F968C931F9754966C9354974C91CB
:1036F00050E0445F5F4BDA014C91D8014C938F5FEF
:1037000011962D933C9312979F5F215A3F4F2E178E
:103710003F0751F68093D7569093D6569091035811
:103720009923A9F0809306582091184091E0980FB2
:103730009093D75690E0FC01EE0FFF1FE80FF91FA2
:10374000E75EFF4B20831092045810920558809139
:10375000D7568093E25610E01315E0F4812F0E94B3
:10376000C40E1F5FF9CF1BAA1CAA1DAA1EAA40E007
:1037700050E0BA0100E010E09801C12CD12C760194
:10378000812C912C5401412C512C320180E090E08D
:10379000DC01CCCE1091E25620E836E948E15BE44A
:1037A00060910540709106408091074090910840DB
:1037B0000E94402F20E030E044EF53E40E94B930F3
:1037C0000E9426316B017C0120914A4030E050E09C
:1037D00040E06BE070E580E090E00E942330C7019C
:1037E000B601621B730B840B950B212F30E050E068
:1037F00040E00E9423302093D2563093D35640931A
:10380000D4565093D5561092E55681E080930440EB
:1038100095E190930506909103069093030610920C
:10382000B0009091D8569093020680930006909134
:103830000006909300069091000692609093000617
:103840001092080690910C06916090930C0680935C
:103850000A0678941092F2561092F3561092F4568B
:103860001092F55660E070E080E090E40E949B08C2
:103870008E01015D1F4F09AB1AAB8CE697E50E94E4
:10388000F307892B09F4B3C08CE697E50E94D107B2
:10389000D090DC568A3009F02DC5AD2DB0E0A55D85
:1038A000B84A1C92E0912B57EF53EC3308F097C0C5
:1038B0000E2E000CFF0BE15AF34E0C94483262219D
:1038C000EF1CEF1CEF1CEF1CEF1CEF1CEF1CEF1CA0
:1038D000EF1CEF1CEF1CEF1CEF1CEF1CEF1CEF1C90
:1038E000EF1CEF1CEF1CEF1CEF1CEF1CEF1CEF1C80
:1038F000EF1CEF1CEF1CEF1CEF1CEF1CEF1CEF1C70
:10390000EF1CEF1C9B1CE21CB41DCF1DD61DEE1D31
:10391000EF1C1A209B1DFD1DB11FB91F1A20EF1CA3
:103920003220EF1C40206B20EF1CEF1C352124219E
:103930003C21EF1C43218EEF8D0D823008F04FC0EB
:103940008CE297E50E94412D843019F1813329F0F2
:10395000883009F1893009F58BE58093115E87ED98
:103960009BE00E9469088091115E8B32C1F0813327
:10397000D9F08635F1F08B3509F560E070EC84E61E
:1039800094E442E00E94F50A82ED9BE00E94FC096B
:1039900026C08BE2E2CF86E5E0CF80E0DECF60E0BC
:1039A00070E888ED93E4EDCF63EC75EF88ED93E478
:1039B000E8CF60E070E089E594E4E3CF60E070E098
:1039C000CB01DFCF12E0D1120AC08CE297E50E9452
:1039D000412D019709F0ACC081E08093555E80E4F1
:1039E000ABE2B7E51D928A95E9F71092DC5680911B
:1039F000DF5690911058992389F0882379F081E05F
:103A0000809312580E941A076093135870931458A9
:103A100080931558909316581092DF568091DE5679
:103A200090912058992389F0882379F081E0809340
:103A300022580E941A076093235870932458809349
:103A40002558909326581092DE568091DD5690911D
:103A50003058992389F0882379F081E08093325897
:103A60000E941A07609333587093345880933558E6
:103A7000909336581092DD5627E0E22E28E5F22E7C
:103A80008701D12CC12C560194E0AA0CBB1C9A953D
:103A9000E1F7F501E95FF74A4F018385D8011996EF
:103AA0009C91992309F445C4882309F442C40E94D7
:103AB0001A07F40124853585468557851B012C019D
:103AC000221A330A440A550AB201A101D8018D9184
:103AD0009C91B0E0A0E084179507A607B70708F00F
:103AE00028C4B1E0CB1609F412C4E2E0CE1609F402
:103AF00014C48091080486FB882780F9F501E95FEA
:103B0000F74A1386D8011A969C911A97981709F4C8
:103B100010C412969C91811106C4923009F006C41B
:103B2000F801278130852F5F3F4F27833087FEC301
:103B30001092555E54CF22E0D21251CF8CE297E51D
:103B40000E94412D019751F481E08093565E80914F
:103B5000565E882331F088EC9BE018CF1092565EB9
:103B6000F6CF8DEB9BE012CF8CE297E50E943E2DC5
:103B70006B017C010E949B08C0924E5ED0924F5E0A
:103B8000E092505EF092515E82EB9BE00E946908E9
:103B900042E050E0C701B6010E94C90B20CF8AE085
:103BA0008C938CE297E50E94060A19CF33E0D3127A
:103BB00016CF8CE297E50E943E2D0E942131162FF0
:103BC000072F60934A408AEA9BE00E946908812F90
:103BD000902F0E94C00A0E94F90901CF8CE297E55C
:103BE0000E94412D8093125E8FE99BE00E9469083C
:103BF0008091125E0E94D30BF2CE60E270E08BE205
:103C000097E50E945A32009711F40C94882C8C018D
:103C10000B521745C801992760E270E0845D984A0D
:103C20000E945A32CC24C394C00E009711F40C9415
:103C30008F2CAC014B5257455A01602F81E00E94F6
:103C4000280D7C016A2D8C2D0E94540D29966CAF95
:103C50007DAF8EAF9FAF29976D2D81E08A0D0E94B9
:103C6000540D6E966CAF7DAF8EAF9FAF6E97E11423
:103C7000F10409F08BC023EA33E240E051E42996D5
:103C80006CAD7DAD8EAD9FAD29970E94402F2091E8
:103C900046403091474040914840509149400E94F1
:103CA000402F6B017C01609101587091025890E0A7
:103CB00080E00E94DF2E9B01AC01C701B6010E948B
:103CC000B9306093A85D7093A95D8093AA5D9093CD
:103CD000AB5D2AE037ED43E25EE36091AD5D70914C
:103CE000AE5D8091AF5D9091B05D0E94DB2E882328
:103CF00081F11092AC5D8AE097EDA3E2BEE3809380
:103D0000AD5D9093AE5DA093AF5DB093B05D10924A
:103D1000B15D1092B25D1092B35D1092B45D1092DD
:103D2000B55D10E08091E356181798F480913958EA
:103D300090913A58875A9D4539F080913B5890911F
:103D40003C58875A9D4519F4812F0E94C40E1F5F6D
:103D5000E9CF29962CAC3DAC4EAC5FAC29972092B4
:103D6000165E3092175E4092185E5092195E87E997
:103D70009BE00E9469086091165E7091175E8091C9
:103D8000185E9091195E42E050E006CFCC24CA94B0
:103D9000CE0C4BE0342E3C1408F49DC0AC2CB12C5E
:103DA00025E1C29E800111240555134A20E030E030
:103DB00040E450E429966CAD7DAD8EAD9FAD299762
:103DC0000E94402F2091464030914740409148400A
:103DD000509149400E94402F2B013C0160910158B5
:103DE0007091025890E080E00E94DF2E9B01AC01B0
:103DF000C301B2010E94B930D80111966D937D9331
:103E00008D939C93149716962D913D914D915C91B5
:103E100019976E966CAD7DAD8EAD9FAD6E970E947D
:103E2000DB2E882309F457C0F80115826E962CAC5E
:103E30003DAC4EAC5FAC6E97268237824086518691
:103E4000128613861486158616868FE58A9D800154
:103E50008B9D100D1124095C174AD801ED91FC913E
:103E60004681578160857185F801408F518F628F3F
:103E7000738F2091E256A090E056B090E15690905A
:103E80004A40C89E60011124A501692DC601875BC7
:103E9000974A0E94810DD80112962D913C9113975B
:103EA00014968D919C91159728173907A1F0ED91E3
:103EB000FC9186819781A085B185F80180AB91AB9B
:103EC000A2ABB3AB2091E256A501692DC6018F5973
:103ED000974A0E94810D8701000F111F000F111FCB
:103EE000035F114A29962CAC3DAC4EAC5FAC2997D0
:103EF000D8011D962D923D924D925C9250976E96F0
:103F00002CAC3DAC4EAC5FAC6E9795962D923D922D
:103F10004D925C92989782E99BE00E946908C701E4
:103F20000E94C00A87EF90E40E94060AF8016585A6
:103F300076858785908942E00E94F50A8AE89BE0B1
:103F40000E946908C7010E94C00A87EF90E40E949E
:103F5000060AD80195966D917D918D919C919897C7
:103F600012CFB1E0DB123BCD0E94DD0A0E94A10C12
:103F700036CD60E270E08BE297E50E945A320097FE
:103F800071F56D2D81E00E94280D8C010115110540
:103F900009F440C00130110509F443C029966CAD05
:103FA0007DAD8EAD9FAD29970E9426316093075855
:103FB0007093085882E08093095881E080931158EB
:103FC00029966CAD7DAD8EAD9FAD29970E942131B4
:103FD0006093535E7093545E0E94C50A00CDFC014D
:103FE000EB52F7457F016E2F81E00E94280D8C0176
:103FF0006D2D81E08E0D0E94280DBC01990F880B5C
:10400000990B0E94E12E29966CAF7DAF8EAF9FAFCA
:104010002997BCCF10921058109216041092525E3D
:10402000BDCF81E08093105899E09093160480935F
:10403000525EB4CF8CE297E50E94412D882379F03F
:1040400099278034910514F08FE390E08093135EFC
:1040500080E89BE00E9469088091135ECBCD81E0EF
:1040600090E0F4CF8CE297E50E94412D8F71809310
:10407000155E85E79BE00E9469088091155EBACDC8
:10408000F1E0DF12ACCC84E695E00E94FC0980E20E
:1040900090E00E943E09882389F0CE0101960E949B
:1040A000160989819A8197FD09C091958195910999
:1040B00089839A83CE0101960E94990986E395E04F
:1040C0000E94FC0968EC70E080E090E00E94F60637
:1040D0000C94000084CC22242394D21080CC8CE257
:1040E00095E00E94FC0980E290E00E943E09811167
:1040F00028C019821A826FE4CE0101960E947609C7
:1041000081E090E089839A8365E4CE0101960E9464
:10411000760982E090E089839A836DE4CE0101966E
:104120000E94760903E010E009831A836FEFCE0145
:1041300001960E9476090F5F1F4F011522E01207BA
:1041400099F74AE450E049835A8380E290E08B83F8
:104150009C83CE0101960E94990901E11EE587E04A
:1041600090E0D8016D918D017C01BFEFEB1AFB0A45
:104170008FA798ABCE018F960E947609C7018D3428
:10418000910579F790E080E00E943E0981111AC004
:1041900084E095E00E9469084AE060E072E080E017
:1041A00090E00E940C0A8EED94E00E94FC0960E011
:1041B00072E090E080E00E94490A8CED94E00E9459
:1041C00069080CC0CE0101960E9416098B819C8162
:1041D000019649F48BE894E00E94FC090E94F909D9
:1041E0008BE095E0D3CB8EE794E00E9469086B8169
:1041F0007C8190E080E04AE00E940C0A09811A81EB
:1042000017FF03C01195019511090450110980E7AA
:1042100094E00E946908C8010E94C00A89E694E0FF
:104220000E94690889819A8197FF04C08EE594E015
:104230000E9469080E94F909B80187E090E00E9495
:10424000490A8CE594E0BBCFF2E0DF12C8CB1092B4
:10425000145E80912C57813329F481E08093145EA1
:104260000E94350F0E94500CBACB22242394D21006
:10427000B6CB0E94DD0AB3CB3324339487E69BE0B0
:10428000D310ADCB83CB44244394D410A8CB8DE47E
:104290009BE00E94FC090E94C109EDE8F8E510824C
:1042A000118212821382E15AFF4F0AE5E73CF007C0
:1042B000B1F710920A5810920B5810920C581092A5
:1042C0000D588DCB11E0D1128ACB03E715E0F80130
:1042D000F490FF2061F0FAE0FF1203C08DE00E942D
:1042E00083088F2D0E9483080F5F1F4FF0CF81E757
:1042F00095E04CCBBFE3BD1508F479CBED2DF0E094
:10430000E55DF84A8083D394D092DC5670CB8091DF
:104310000804881F8827881FF1CB8091A80483FB9D
:10432000882780F9EBCB933009F4FACBD8011A96A1
:104330008C93BFEFCB1ADB0A005F1F4FE3E0CE1672
:10434000D10409F0A0CB8091E556882311F40C9498
:10435000432B1092E5562090E4562FAA822D90E030
:1043600006E1209EF0011124E955F24A26E183304E
:1043700098F4348931110DC0289FD001299FB00DC8
:104380001124A955B24A50961D921D921D921C925D
:10439000539776960196EBCF1091E3566F961FAF29
:1043A0006F97812F90E02FE5129FD0011124A7571E
:1043B000B74A25E18C30B8F51C963C911C97311119
:1043C0002EC0289FF001299FF00D1124E555F34AD6
:1043D000108A118A128A138AFD01EC54F1091082A5
:1043E00011821282138234961082118212821382F9
:1043F00014821582168217821D921C9211971296B2
:104400001D921C92139714961D921D921D921C9240
:10441000179718961D921D921D921C921B9701963C
:10442000A15ABF4FC7CFD70117962D913C9118972E
:104430002115310589F013968D919D910D90BC91B8
:10444000A02D820F931FA11DB11DF70183839483BB
:10445000A583B68317821086F0E1EF0EF11C07E307
:10446000E01608E5F006F9F620904B4030904C40FD
:1044700007EA1DE50BAF1CAF10E000E04FA80415E4
:1044800008F0EAC0780183E0EE0CFF1C8A95E1F7A2
:10449000E20CF31CF701E058FF4F2081318142818B
:1044A00053816481758186819781D1014D905D90A2
:1044B0006D907C900E9456314B015C01C301B201AA
:1044C0000E94DF2E9B01AC01C501B4010E94B930EE
:1044D000B6E1B09F9001B19F300D1124F901E9556B
:1044E000F24AEBABFCAB608B718B828B938BF70149
:1044F00020853185428553856485758586859785B8
:10450000D1014D905D906D907C90139780848DAE1D
:10451000918469969FAE6997A2842A96AFAE2A9736
:10452000B3842E96BFAE2E97C4846296CFAE6297A8
:10453000D5846696DFAE6697868467968FAE67975A
:10454000978468969FAE6897CD90DD90ED90FC9033
:10455000ABA9BCA950968D909D90AD90BC905397FF
:1045600025968CAE9DAEAEAEBFAE25970E94523161
:104570004B015C01C301B2010E94DF2E9B01AC0123
:10458000C501B4010E94B9304B015C012DAD6996A3
:104590003FAD69972A964FAD2A972E965FAD2E971D
:1045A00062966FAD629766967FAD669767968FADA0
:1045B000679768969FAD68970E9452319B01AC0146
:1045C000C501B4010E94402F4B015C01C701B60137
:1045D0000E94DF2E9B01AC01C501B4010E94B930DD
:1045E0009B01AC0125966CAD7DAD8EAD9FAD259741
:1045F0000E945430EBA9FCA9608B718B828B938B4A
:1046000060897189828993890E94FF31ABA9BCA915
:1046100050966D937D938D939C93539750966D9187
:104620007D918D919C915397EBADFCAD21813281B1
:10463000438154810E94402FABA9BCA950966D9331
:104640007D938D939C9353970F5F1F4FEBADFCAD04
:104650007696EBAFFCAF12CFF10184819581A681F4
:10466000B78180819181A281B3818091E25680914E
:10467000E0569091E15609E818E50BAF1CAF07E34F
:1046800018E50BAB1CAB69961FAE69974C01B12CBA
:10469000A12CE7968CAE9DAEAEAEBFAEE7976F96FF
:1046A0009FAC6F976996AFAC69979A1409F49BC455
:1046B000ABA9BCA90D90BC91A02DAFABB8AF1F9614
:1046C0008C91B8E08B9F80011124020D131DF8011D
:1046D000E058FF4F2081318142815381648175818F
:1046E00086819781F10180809180A280B3800E94B1
:1046F00056316B017C01C501B4010E94DF2E9B0184
:10470000AC01C701B6010E94B930AFA9B8AD50964F
:104710006D937D938D939C935397F80120853185FC
:10472000428553856485758586859785D1014D9031
:104730005D906D907C90139780848DAE91842A96C5
:104740009FAE2A97A2842E96AFAE2E97B384629620
:10475000BFAE6297C4846696CFAE6697D5846796DF
:10476000DFAE6797E6846896EFAE6897F7846A963F
:10477000FFAE6A97CD90DD90ED90FC90AFA9B8ADFB
:1047800050968D909D90AD90BC90539725968CAE91
:104790009DAEAEAEBFAE25970E9452314B015C017B
:1047A000C301B2010E94DF2E9B01AC01C501B4011F
:1047B0000E94B9304B015C012DAD2A963FAD2A977E
:1047C0002E964FAD2E9762965FAD629766966FAD4F
:1047D000669767967FAD679768968FAD68976A967C
:1047E0009FAD6A970E9452319B01AC01C501B40193
:1047F0000E94402F4B015C01C701B6010E94DF2ED1
:104800009B01AC01C501B4010E94B9309B01AC0110
:1048100025966CAD7DAD8EAD9FAD25970E94543031
:10482000EFA9F8AD608B718B828B938B6089718956
:10483000828993890E94FF31AFA9B8AD50966D93DC
:104840007D938D939C93539750966D917D918D910F
:104850009C91539711968D909D90AD90BC9014971C
:104860002D968CAE9DAEAEAEBFAE2D97A501940138
:104870000E94402FEFA9F8AD608B718B828B938BD8
:10488000F801E850FF4F20813181428153816481DA
:10489000758186819781E858FF4F40802E964FAEF4
:1048A0002E97518062965FAE6297828066968FAE39
:1048B0006697938067969FAE6797A4806896AFAE21
:1048C0006897B5806A96BFAE6A97C680A096CFAE4D
:1048D000A097D780A196DFAEA197D1018D909D9032
:1048E000AD90BC90F801F085A296FFAFA297D801D9
:1048F0001996BC91A396BFAFA397F801F285A49631
:10490000FFAFA497D8011B96BC91A596BFAFA59702
:10491000F801F485A696FFAFA697D8011D96BC9125
:10492000A796BFAFA797F801F685A896FFAFA897FF
:10493000D8011F96BC91A996BFAFA997F1014080FD
:10494000518062807380ABA9BCA912960D90BC9176
:10495000A02D2396AEAFBFAF23971F96EC91F0E04A
:104960003196B3E0EE0FFF1FBA95E1F7E20DF31DAC
:10497000C080AA96CFAEAA97D180AB96DFAEAB9798
:10498000E280AC96EFAEAC97F380AD96FFAEAD97FC
:10499000C480AE96CFAEAE97D580AF96DFAEAF9760
:1049A000E680E096EFAEE097F780E196FFAEE19704
:1049B000D101CD90DD90ED90FC902196CCAEDDAE96
:1049C000EEAEFFAE21970E945231EBA9FCA922A1C5
:1049D00033A144A155A10E94402F6B017C012E966A
:1049E0002FAD2E9762963FAD629766964FAD669754
:1049F00067965FAD679768966FAD68976A967FAD6B
:104A00006A97A0968FADA097A1969FADA1970E949F
:104A10005231ABA9BCA996962D913D914D915C91D7
:104A200099970E94402F9B01AC01C701B6010E94DB
:104A300055306B017C01C501B4010E94DF2E9B0142
:104A4000AC01C701B6010E94B9306B017C01A2968E
:104A50002FADA297A3963FADA397A4964FADA49771
:104A6000A5965FADA597A6966FADA697A7967FADC5
:104A7000A797A8968FADA897A9969FADA9970E94D2
:104A800052314B015C01C301B2010E94DF2E9B0138
:104A9000AC01C501B4010E94B9304B015C01AA967A
:104AA0002FADAA97AB963FADAB97AC964FADAC97F9
:104AB000AD965FADAD97AE966FADAE97AF967FAD4D
:104AC000AF97E0968FADE097E1969FADE1970E949A
:104AD00052319B01AC01C501B4010E94402F4B0132
:104AE0005C0121966CAD7DAD8EAD9FAD21970E948E
:104AF000DF2E9B01AC01C501B4010E94B9309B01BE
:104B0000AC01C701B6010E9454306B017C012396B1
:104B1000EEADFFAD239721813281438154812D96E3
:104B20006CAD7DAD8EAD9FAD2D970E94402FA7013E
:104B300096010E94402F61966CAF7DAF8EAF9FAF04
:104B40006197ABA9BCA914960D90BC91A02DADAFF7
:104B5000BEAF23964EAC5FAC239720E030E0A901B6
:104B60004A165B0609F453C1F801E851FE4F508024
:104B700066965FAE6697818067968FAE67979280E4
:104B800068969FAE6897A3806A96AFAE6A97B48026
:104B9000A096BFAEA097C580A196CFAEA197D680B4
:104BA000A296DFAEA297E780A396EFAEA397E85850
:104BB000FF4F2081318142815381648175818681DB
:104BC0009781D1018D909D90AD90BC90F801F085BA
:104BD000A496FFAFA497D8011996BC91A596BFAF34
:104BE000A597F801F285A696FFAFA697D8011B9668
:104BF000BC91A796BFAFA797F801F485A896FFAF21
:104C0000A897D8011D96BC91A996BFAFA997F801A6
:104C1000F685AA96FFAFAA97D8011F96BC91AB96CE
:104C2000BFAFAB97F1014080518062807380ADAD22
:104C3000BEAD1F96EC91F0E03196A3E0EE0FFF1FA2
:104C4000AA95E1F7E20DF31DC080AC96CFAEAC970C
:104C5000D180AD96DFAEAD97E280AE96EFAEAE9767
:104C6000F380AF96FFAEAF970481E0960FAFE09769
:104C70001581E1961FAFE197C680E296CFAEE2972D
:104C8000D780E396DFAEE397D101ED90FD900D91D3
:104C90001C916596ECAEFDAE0EAF1FAF65970E94FE
:104CA0005231EBA9FCA9FE962081318142815381CA
:104CB0000E94402F6B017C0166962FAD6697679628
:104CC0003FAD679768964FAD68976A965FAD6A97F4
:104CD000A0966FADA097A1967FADA197A2968FAD3C
:104CE000A297A3969FADA3970E945231EBA9FCA96E
:104CF00022AD33AD44AD55AD0E94402F9B01AC01B8
:104D0000C701B6010E9455306B017C01C501B40199
:104D10000E94DF2E9B01AC01C701B6010E94B93091
:104D20006B017C01A4962FADA497A5963FADA597E6
:104D3000A6964FADA697A7965FADA797A8966FAD1D
:104D4000A897A9967FADA997AA968FADAA97AB967B
:104D50009FADAB970E9452314B015C01C301B20180
:104D60000E94DF2E9B01AC01C501B4010E94B93045
:104D70004B015C01AC962FADAC97AD963FADAD97B6
:104D8000AE964FADAE97AF965FADAF97E0966FAD75
:104D9000E097E1967FADE197E2968FADE297E396DB
:104DA0009FADE3970E9452319B01AC01C501B40154
:104DB0000E94402F4B015C0165966CAD7DAD8EADC0
:104DC0009FAD6597FCD79B01AC01C501B4010E9462
:104DD000B9309B01AC01C701B6010E9454306B0190
:104DE0007C01ADADBEAD11962D913D914D915C9183
:104DF00014972D966CAD7DAD8EAD9FAD2D970E9415
:104E0000402FA70196010E94402F9B01AC016196A3
:104E10006CAD7DAD8EAD9FAD61970E9454304B015E
:104E20005C0123964EAC5FAC2397CDACDEAC20E0AA
:104E300030E0A9014C145D0439F4D20150962D9153
:104E40003D914D915C915397EFA9F8AD60897189BF
:104E5000828993890E94402F2B013C01AC019B0168
:104E6000C501B4010E94B9306B017C0126E636E62B
:104E700046E85FE30E94F73118160CF4ADC026E651
:104E800036E646E85FEBC701B60195D787FDA4C0BB
:104E9000A7019601C701B6010E943D3281119CC055
:104EA000ABADBCAD1896CD92DD92ED92FC921B9706
:104EB00020E030E040E05FE3C501B4010E945530DE
:104EC0000E942131ABADBCAD6D937C9320E030E00E
:104ED00040E05FE3C301B2010E9455300E942131DE
:104EE000EBADFCAD62837383D1016D917D918D91AA
:104EF0009C911091E25663D7A5019401C1D76B0133
:104F00007C01E7966CAD7DAD8EAD9FADE79757D731
:104F10009B01AC01C701B601B3D76B017C01612FC6
:104F200070E090E080E04DD79B01AC01C701B60175
:104F3000A7D720E836E948E15BE40E94B930EBA945
:104F4000FCA926813781408551850E9455306B012F
:104F50007C0120E030E041E655E40E94B9300E9437
:104F60002131072E000C880B990BABADBCAD14960C
:104F70000D911D912D913C911797060F171F281F1A
:104F8000391FFD0104831583268337831AD720E058
:104F900030E041E655E474D79B01AC01C701B6018E
:104FA0000E945430ABA9BCA916966D937D938D9346
:104FB0009C93199769960FAD69970F5F69960FAF2C
:104FC0006997A15ABF4FABABBCAB0BAD1CAD015A3F
:104FD0001F4F0BAF1CAF63CBEBADFCAD1086118642
:104FE0001286138665CF80910358882309F44FC039
:104FF000E0910658F0E0319673E0EE0FFF1F7A95CE
:10500000E1F7E20DF31D20813181428153816481FA
:10501000758186819781D1018D909D90AD90BC90D6
:105020000E9452316B017C01C501B401C8D69B01BD
:10503000AC01C701B6010E94B9306B017C016091DF
:105040000158709102587695679590E080E0B7D648
:105050009B01AC01C701B6010E94553020E030E051
:1050600040E05FE30E9455300E942631609304586F
:1050700070930558C10188529D4F2816390661F07A
:10508000F101108281010F5F1F4F1801F6CF1092BE
:10509000045810920558EECF8091F2569091F35635
:1050A000A091F456B091F556892B8A2B8B2B99F44D
:1050B00080E00E94F90C65E070E080E090E00E94E2
:1050C000F60660914E5E70914F5E8091505E9091B9
:1050D000515E0E949B088091F2569091F356A091E8
:1050E000F456B091F5560196A11DB11D8093F2566C
:1050F0009093F356A093F456B093F5566091B75D34
:105100007091B85D8091B95D9091BA5D20E030E01A
:1051100048EC52E4B5D60E9421316093F656709364
:10512000F75604E017E588EFC82E86E5D82E86EE00
:1051300096E5A6019801ABEABCE56FE5F62E54961C
:10514000EC90549770E060E0EE2049F0FC01608143
:10515000F69EF0011124E757F74A60817181FA0148
:1051600061937193AF01812C912C5401EE2059F081
:10517000FC016081F69EF0011124E357F74A80801C
:105180009180A280B380F90181929192A192B19213
:105190009F0155960196FDE5A932BF0781F68091E2
:1051A0000A5890910B58A0910C58B0910D588093CB
:1051B0001C5790931D57A0931E57B0931F57809173
:1051C000145E882309F46DC08EE2E2EFF6E5DE019D
:1051D000119601900D928A95E1F7B12CB092585E2C
:1051E0008DE30E948906682F64608DE30E947C062F
:1051F0000E941A072B013C0180916B57803109F006
:105200004BC280912557811147C284E20E948906D2
:1052100090E09195819591098C349F4F0CF03CC2A0
:1052200084E00E94260784E00E9426070E941A0755
:105230002B013C0187E20E94890687FD3CC20E9447
:105240001A0764197509860997096436710581057D
:10525000910580F384E00E9426070E941A072B0123
:105260003C010E941A0764197509860997096E3175
:1052700071058105910508F058C20E94E20B882350
:1052800081F38091285790912957059751F7809184
:105290002457882331F362E370E080E090E00E94BD
:1052A000F6068090F2569090F356A090F456B09087
:1052B000F5568091565E882309F43DC286E19CE054
:1052C0000E9469084AE0C501B4010E940C0A82E10B
:1052D0009CE00E94690881E090E00E94C00A8CE096
:1052E00091E40E94060A6091F6567091F756072ED7
:1052F000000C880B990B65D52AE037ED43E25CE39F
:10530000BFD542E00E94F50AEE24E394F12C8EE032
:105310009CE00E946908C7010E94C00A8CE091E4E9
:105320000E94060AD6018D919D916D010E94C00ACE
:10533000BFEFEB1AFB0AE7E0EE16F10441F7EE24AB
:10534000E394F12C8AE09CE00E946908C7010E9466
:10535000C00A8CE091E40E94060AD8016D917D910B
:105360008D919D918D010E94990ABFEFEB1AFB0A66
:10537000E7E0EE16F10431F78091525E882379F070
:1053800080E09CE00E94690860911C5770911D5755
:1053900080911E5790911F574AE00E940C0A8EEF91
:1053A0009BE00E94FC096CE370E080E090E00E94CA
:1053B000F60681E00E94F90C62E370E080E090E084
:1053C0000E94F60680E00E94F90C20901C57309055
:1053D0001D5740901E5750901F572BAA3CAA4DAA0C
:1053E0005EAA409018575090195760901A577090C5
:1053F0001B578091145790911557A0911657B09153
:105400001757409110575091115760911257709152
:10541000135700910C5710910D5720910E57309152
:105420000F57C0900857D0900957E0900A57F09056
:105430000B578090045790900557A0900657B09056
:105440000757E091E95DF091EA5D14012E1A3F0AD9
:10545000F10137FE03C0F195E195F109E83CF10552
:105460000CF064C0E091ED5DF091EE5D16012E1A36
:105470003F0AF10137FE03C0F195E195F109E83CDF
:10548000F1050CF053C0E091F15DF091F25D18016F
:105490002E1A3F0AF10137FE03C0F195E195F1099B
:1054A000E83CF1050CF042C0E091F55DF091F65D4D
:1054B0001A012E1A3F0AF10137FE03C0F195E1955A
:1054C000F109E83CF10594F5E091F95DF091FA5DA0
:1054D0001C012E1A3F0AF10137FE03C0F195E19538
:1054E000F109E83CF10514F5E091FD5DF091FE5DF8
:1054F00012012E1A3F0AF10137FE03C0F195E19522
:10550000F109E83CF10594F4E091015EF091025E4E
:105510002BA83CA82E1A3F0AF10137FE03C0F195D3
:10552000E195F109E83CF1050CF4ADC08092E95D2C
:105530009092EA5DA092EB5DB092EC5DC092ED5D61
:10554000D092EE5DE092EF5DF092F05D0093F15D40
:105550001093F25D2093F35D3093F45D4093F55D1D
:105560005093F65D6093F75D7093F85D8093F95DFD
:105570009093FA5DA093FB5DB093FC5D4092FD5D5E
:105580005092FE5D6092FF5D7092005E8BA89CA8B9
:10559000ADA8BEA88092015E9092025EA092035ECA
:1055A000B092045E0091095E10910A5E011511052A
:1055B00049F1C801957189839A83CE0101960E94B1
:1055C0000F0990E080930B5E90930C5E09831A8321
:1055D0006FEFCE0101960E9476098091095E90914D
:1055E0000A5E2091075E3091085E820F931F8093C0
:1055F000095E90930A5E20910F5E3091105E8217D3
:10560000930744F080910D5E90910E5E8093095E49
:1056100090930A5E80910B5E90910C5E880F991FAB
:10562000992781608F3F910509F46FC180930B5ECC
:1056300090930C5E60910B5E8091095E90910A5E82
:1056400089839A83CE0101960E9476090091095EB2
:1056500010910A5E85E0E82E8EE5F82E99EEC92EAF
:105660009DE5D92E085E1D45C8018C0D9D1D8983C1
:105670009A83D6016D916D01CE0101960E94760943
:10568000EC14FD0489F7A89564E170E080E090E0F7
:105690000E94F6060C943D1C0E941A0764197509B5
:1056A00086099709683E73408105910508F0BBCDD6
:1056B0000E94E20BA1CD0E946E0680E80E94570670
:1056C00081E30E94570685E00E9457068091575E4D
:1056D0000E94570680E40E945706AE014F5F5F4F5D
:1056E0007A01D7018D917D010E94570629A83AA819
:1056F0002E143F04B1F70E9449068CE00E94260751
:105700000E941A072B013C0188E20E94890683FD52
:10571000A1CD0E941A076419750986099709643694
:1057200071058105910580F395CDB394B3E03B2ECF
:10573000B31054CDB0CD89EF9BE00E9469084AE0D8
:10574000C501B4010E940C0A86EF9BE00E94690823
:1057500081E090E00E94C00A8DE091E40E94060A78
:105760006091F6567091F756072E000C880B990B36
:1057700028D32AE037ED43E25CE382D342E00E9483
:10578000F50AEE24E394F12C83EF9BE00E94690874
:10579000C7010E94C00A8DE091E40E94060AD6016A
:1057A0008D919D916D010E94C00ABFEFEB1AFB0A1B
:1057B000E7E0EE16F10441F7EE24E394F12C80EFDC
:1057C0009BE00E946908C7010E94C00A8DE091E435
:1057D0000E94060AD8016D917D918D919D918D0158
:1057E0000E94990ABFEFEB1AFB0AE7E0EE16F104FC
:1057F00031F78091525E882379F088EE9BE00E9419
:10580000690860911C5770911D5780911E579091A7
:105810001F574AE00E940C0A8091555E811107C013
:105820000E94F90968E270E080E090E0C0CD5BEA98
:10583000E52E5CE5F52E10E000E065E1B62E85EE84
:105840009BE00E94690868010F5F1F4FC8010E941A
:10585000C00A8DE091E40E94060AD70154968C910B
:10586000882309F44AC0BC9CF001BD9CF00D1124B2
:10587000E555F34A608971898289938943E00E94E2
:10588000F50AB5E1EB0EF11C06301105C1F63BEA55
:10589000E32E3CE5F32E01E010E04FE5D42E81EE3F
:1058A0009BE00E946908C8010E94C00A8DE091E453
:1058B0000E94060AF7018489882319F1F801EB5147
:1058C000F94AE081DE9EF0011124EF56F74A60812B
:1058D00071818281938144E00E94F50A0F5F1F4F1E
:1058E000F5E1EF0EF11C07301105C9F60E94F90928
:1058F00060E570E080E090E05ACD60E070E0CB01C0
:10590000BDCF60E070E0CB01E6CF8EEF90E08ECEB1
:105910006D2D81E00E94280D7C010C94371E602FB4
:1059200081E00E94280D7C016D2D8C2D0E94540D6C
:1059300029966CAF7DAF8EAF9FAF29970C94371E21
:105940008F929F92AF92BF92CF92DF92EF92FF928F
:10595000CF93DF93EC01688179818A819B81611506
:1059600071058105910521F464E279ED8BE597E0FD
:105970002DE133EF41E050E03AD349015A019B0158
:10598000AC01A7EAB1E44FD36B017C01ACEEB4EFFC
:10599000A501940154D3C60ED71EE81EF91EF7FECA
:1059A00006C081E0C81AD108E10880E8F80AC88278
:1059B000D982EA82FB82C701B6019F77DF91CF913E
:1059C000FF90EF90DF90CF90BF90AF909F908F901F
:1059D00008958F929F92AF92BF92CF92DF92EF92F3
:1059E000FF9260914D4070914E4080914F40909158
:1059F0005040611571058105910521F464E279ED4E
:105A00008BE597E02DE133EF41E050E0F0D2490122
:105A10005A019B01AC01A7EAB1E405D36B017C01FB
:105A2000ACEEB4EFA50194010AD3C60ED71EE81E52
:105A3000F91EF7FE06C081E0C81AD108E10880E827
:105A4000F80AC0924D40D0924E40E0924F40F09202
:105A50005040C701B6019F77FF90EF90DF90CF9045
:105A6000BF90AF909F908F90089560934D4070933A
:105A70004E4080934F40909350400895662777277B
:105A800025C0FC0188279927E89421912032E9F369
:105A9000293010F02E30C8F32B3239F02D3231F48A
:105AA000689403C00BD0820F911D219120532A309E
:105AB000C8F31EF4909581959F4F08957AE0979FC3
:105AC000902D879F802D910D112408958F929F9284
:105AD000AF92BF92CF92DF92EF92FF920F931F93FC
:105AE000CF93DF935C017B016115710519F0DB0138
:105AF0008D939C9385010F5F1F4FF501D0818D2FF2
:105B000090E039D16C01892BA9F5DD32A9F50F5F41
:105B10001F4FD5011196DC91C1E05801F1E0AF1A99
:105B2000B10843E050E06CEF72E0C5012CD1892B45
:105B300061F5680182E0C80ED11C45E050E067EFD6
:105B400072E0C60120D1892B21F4680197E0C90ECB
:105B5000D11CE114F10419F0D701CD92DC9260E080
:105B600070E080E89FEFC111F9C060E070E080E86C
:105B70009FE7F4C05801BECFDB3229F485010E5FE8
:105B80001F4FF501D181C0E0C8CF43E050E064EF82
:105B900072E0C501F8D0892BE9F0F80110E000E0CF
:105BA00020E030E0A9015F01B0ED8B2E8D0E89E081
:105BB0008815C0F19C2E689491F88C2F8870C2FFD4
:105BC00016C0811102C00F5F1F4F3196D501DC91C5
:105BD000C92DE9CFE114F10429F00E5F1F4FF70141
:105BE0000083118360E070E080EC9FE7B7C08823FA
:105BF00011F001501109A5E0B0E015D29B01AC01F4
:105C0000220F331F441F551F280D311D411D511DEB
:105C1000283999E93907490799E15907B0F2C6606F
:105C20009C2ED3CFAEEF8A1206C0C3FD3CC09C2E83
:105C3000689493F8CACFDF7DD534A9F580818D3281
:105C400039F4C061DF011296818162E070E006C024
:105C5000DF018B32C1F3119661E070E080535D018A
:105C6000A61AB70A8A30F8F4E0E8CE16ECE0DE06B1
:105C70005CF4B601660F771F660F771FC60ED71E3E
:105C8000CC0CDD1CC80ED11C5D01FFEFAF1ABF0AA2
:105C90008C9180538A3098F1C4FF03C0D194C19491
:105CA000D1080C0D1D1DC1FF09C0E114F10431F034
:105CB00081E0A81AB108D701AD92BC92CA01B9011E
:105CC0007ED0C370C33009F490584B015C0120E0D2
:105CD00030E0A90170D0882309F43EC0CBE2D3E0C4
