:100200000C9425110C944F110C944F110C94D32184
:100210000C944F110C944F110C944F110C944F11DE
:100220000C9415220C944F110C944F110C944F11F7
:100230000C944F110C944F110C944F110C944F11BE
:100240000C944F110C944F110C94AD260C944F113B
:100250000C944F110C944F110C944F110C944F119E
:100260000C944F110C944F110C9431220C944F119B
:100270000C944F110C944F110C944F110C94DB21E2
:100280000C944F110C944F110C944F110C940322A9
:100290000C944F110C944F110C944F110C944F115E
:1002A0000C944F110C944F110C9483260C944F1105
:1002B0000C944F110C944F110C944F110C944F113E
:1002C0000C944F110C944F110C944F110C944F112E
:1002D0000C944F110C9465210C9460210C946A21AC
:1002E0000C944F110C944F110C944F110C944F110E
:1002F0000C944F114E414E494E495459494E46CDEA
:10030000CCCC3D0AD7233C17B7D13877CC2B3295CC
:1003100095E6241FB14F0A000020410000C84200AA
:10032000401C4620BCBE4CCA1B0E5AAEC59D74AEC6
:10033000D580A83FD300408D142002A1C8DA1281D5
:100340007FD9F1DB40A4A6AF706861736500766F5A
:100350006C74616765203D2000656D6F6E50693279
:10036000006861726477617265203D200076657275
:1003700073696F6E203D20006669726D77617265EA
:10038000203D20656D6F6E5F44425F364354006AC6
:10039000736F6E203D206F6666006A736F6E203D3E
:1003A000206F6E00646174616C6F67203D20002CCB
:1003B00020694C656164006943616C007643616C3F
:1003C000203D20004C6F77506F7765724C616273EF
:1003D000002C207266466F726D6174203D20002CE7
:1003E000207266506F776572203D20002C20726667
:1003F0004E6F6465203D2000204D487A2C207266A7
:1004000047726F7570203D20005246203D206F6E70
:100410002C20726642616E64203D20005246203DD1
:10042000206F6666006D73002C2070756C736550CC
:100430006572696F64203D20006F66660070756CA0
:100440007365203D200000030C0F30333C3FC0C3D8
:10045000CCCFF0F3FCFF4E6F20454550524F4D205E
:10046000636F6E666967004C6F6164656420454523
:1004700050524F4D20636F6E6669670076726566F5
:1004800061203D20001E6C0D0E2060020103080754
:100490000A08010303050701040104060306060711
:1004A00006060606060101060606060D09070808E7
:1004B00007070907010508070907090709080707CA
:1004C00007090D08090802040205080206060506C8
:1004D00006040606010206010906060606040504CE
:1004E000060709060706030103070700000000FED0
:1004F000141E001E0000009090F89690F896900050
:100500001C00001C000000182422FF424284081036
:10051000103C1008041C22221CC0308C4240800079
:1005200000100C00000C10100C805C2262920C80F9
:10053000000C101010100C08101E00F00C021C60B3
:1005400080020CF080601C04140E140400000000F3
:1005500000404040F84040400000000C0000000017
:10056000708080808000000000001000C0380618F5
:10057000040000FC02020202FC0C101010100C0817
:1005800004FE00001C0C020282423C1018141010E1
:10059000100C02222222DC0C101010100C804030B3
:1005A0000804FE0004040404041C04381612121289
:1005B000E20C1010101804F844222222C40C10106F
:1005C00010100C020202E21A0600001C000000DCFF
:1005D00022222222DC0C101010100C3C424242223B
:1005E000FC0810101008040810087040A0A010109B
:1005F0000800000004040890909090909000000083
:10060000000000081010A0A0400804040000000C26
:10061000028242221C000014000000E01804C422E0
:10062000121212A2720408F00C30404C9090908884
:100630009C90504C200080E09C829CE0800018043C
:1006400000000000000418FE2222222222DC1C10DE
:10065000101010100CF80402020202040804081022
:100660001010100804FE020202020204F81C10100E
:100670001010100804FE2222222222221C10101028
:10068000101010FE2222222222021C000000000074
:1006900000F804020202424244C80408101010107C
:1006A000100804FE2020202020FE1C000000000076
:1006B0001CFE1C00000000FE0C1010100CFE804000
:1006C00020508804021C00000000040810FE0000F6
:1006D000000000001C101010101010FE0C30C000A4
:1006E000C0300CFE1C000004180400001CFE04189E
:1006F000608000FE1C00000004081CF804020202D6
:10070000020204F8040810101010100804FE4242FF
:100710004242423C1C000000000000F804020202B9
:10072000020204F8040810101014081C10FE4242C3
:1007300042C242423C1C000000000408101C22225D
:100740002242428C0C10101010100C020202FE0209
:1007500002020000001C000000FE0000000000FE7D
:100760000408101010080406186080008060180645
:100770000000000418040000000638C000C03C025D
:100780003CC000C038060000041804000000041833
:10079000040000020C906060900C02100C0000003D
:1007A000040C1002041820C02018040200000000ED
:1007B0001C0000000000028242221A0602101814D7
:1007C0001010101010FE02FC800638C0000000045B
:1007D0001802FE80FC201C021C200000000000000B
:1007E0000000000000000080808080808080800207
:1007F0000400001088484848F00C101010081CFE37
:1008000010080808F01C081010100CF00808081058
:100810000C10101008F008080810FE0C101010083A
:100820001CF048484848700C101010100808FC0ACA
:100830000A001C0000F008080810F84C90909088FE
:100840007CFE10080808F01C000000001CFA1C00C8
:10085000FA807CFE8040A010081C0000000C10FEF6
:100860001CF8100808F0100808F01C0000001C001C
:1008700000001CF810080808F01C000000001CF024
:1008800008080808F00C101010100CF810080808E0
:10089000F0FC081010100CF008080810F80C1010EC
:1008A0001008FCF81008081C000000304848489068
:1008B000081010100C08FE0808001C1010F80000AA
:1008C0000000F80C101010081C18608000806018E0
:1008D0000000041804000018E000E018E000E01830
:1008E0000004180400041804000830C0C0300810C8
:1008F0000C00000C101860800080601800808C7064
:100900000C000008088868180810181410101080CF
:100910007C02007C80FEFC027C80807C00402020E9
:100920006040402000000000000000FC04040404BB
:1009300004FC1C10101010101C697A151920600797
:1009400003070F0C16100207070B0F0407030A0C0E
:100950000A0C0B0D0C0C0C0C0D03040D0E0E0A14DE
:10096000100D0F0F0C0B100E06080E0B100E110CB5
:10097000110E0D0F0D0F150E0D0E060A060E0F04AB
:100980000B0C0B0C0C070C0B03060C02130B0C0CC2
:100990000C080A080B0C110C0C0B0B020B0F0000BF
:1009A0000000000000000000000000000000000047
:1009B000000000000000000000000038F8F8007F90
:1009C0007F000C0C000000FCFC000000FCFC00019F
:1009D0000000000100000000000000000000000016
:1009E000000000000080808080F0B8808080F8984F
:1009F000808040606161F17F4341E1F97F61616125
:100A0000010000000F030000080F010000000000BB
:100A10000000000000000000000000000000008056
:100A2000C0E06060FC60606060E000070F1C1818A8
:100A3000FF383030E0E080060E0C0C0CFF0C0C068A
:100A4000070301000000000000000000000000F0AB
:100A5000F8180C0C1CF8F000000000C0E03808008A
:100A60000000000000070F0C08080C0F07C0F03C46
:100A70000F0300F8F80C0C0C1CF8F000000000004C
:100A8000000C0F030000000000070F0C080C0C07FF
:100A90000300000000000000000000000000000053
:100AA000000000000000000060F8F80C0C0C0CF8CE
:100AB000F8600000000000C0F0F90F07060E1B31BF
:100AC00071E0C0FC3C00000003070E0C0C0C0C0C89
:100AD00006070303070E0C000000000000000000E2
:100AE00000000000000000FCFC000100000000000D
:100AF00080E0781C0C04FCFF0700000000010F3FA1
:100B000078E0800000000000808080040C1C78E009
:100B100080000000000087FFFC0080E0783F0F00AD
:100B20008080800000000010302060C0FCC0602089
:100B3000301002020301011F010103020600000040
:100B400000000000000000000000000000000000A5
:100B500000000000000000000000E0E000000000D5
:100B6000000018181818181818FFFF181818181867
:100B700018000000000000000F0F0000000000003F
:100B80000000000000000000000000000000000065
:100B900000000000000000E0FC3E0E00000000002D
:100BA000000000000000181818181818180000009D
:100BB0000000000000000000000000000000000035
:100BC000000E0E0E000000000000000000C0F83C07
:100BD00004000000C0F83F07000000E0781F070095
:100BE000000000000000000000000000000000C045
:100BF000F078180C0C0C1838F0E080FFFF000000B3
:100C000000000000E1FF3F0107070C0C0C0C0C0E6C
:100C100007010000000000000000000000000000CC
:100C2000606070F8FC0000000000000000FFFF00A2
:100C30000000000C0C0C0C0F0F0C0C0C0C00000036
:100C4000000000000000000018180C0C0C1C1878A4
:100C5000F0E000000080C0E070381C0F0701000EBB
:100C60000F0F0D0C0C0C0C0C0C0C0C0000000000F9
:100C7000000000000000000018181C0C0C0C1C38B0
:100C8000F8F000000000040E0E0E1BF9F0060E0C2A
:100C90000C0C0C0C0C0E0703000000000000000000
:100CA0000000000000000080C06030F8F8F800008C
:100CB00070786E6763616060FFFFFF606000000036
:100CC00000000000000F0F0F0000000000000000F7
:100CD0000000000000000000F8F818181818181894
:100CE000181800000707060606060E0CFCF8E006BA
:100CF0000E0C0C0C0C0C0C0E070300000000000086
:100D00000000000000000080E0F0301818080C0C13
:100D10000C0000FFFF0C06060606060EBCF8F001EC
:100D200003070E0C0C0C0C0E070301000000000062
:100D3000000000000000001818181818181818985B
:100D4000F8783800000000C0F0781E0701000000AD
:100D5000000C0F0701000000000000000000000070
:100D600000000000000000E0F0B81C0C0C0C0C1897
:100D7000F8F000F1F31F0E060C0C1C1EF3F1C0037B
:100D8000070E0C0C08080C0C070301000000000003
:100D90000000000000000080E0F018180C0C0C1897
:100DA00038F0E0C0010F1F18383030301098FFFFC6
:100DB0000F00000C0C0C0C0C0E06030300000000CE
:100DC000000000000000000000000080808003039D
:100DD000030E0E0E0000000080808000030303E07D
:100DE000FC3E0600000000000000000000000000C3
:100DF000808080C01838386C6CC6C6C383810101FE
:100E000000000000000000000001010303060000D4
:100E100000000000000000000000000000000000D2
:100E2000000000000000000000C6C6C6C6C6C6C658
:100E3000C6C6C6C6C6C6C600000000000000000048
:100E400000000000000000000000000000000000A2
:100E5000000000C0C0808000000000000000000012
:100E600000000001018383C3C6666C3C383810065D
:100E70000303030101000000000000000000000067
:100E8000000000000000000000000018180C0C0C0E
:100E90001C18F8F0E000000078780C0E0703000042
:100EA00000000C0C0000000000000000000000002A
:100EB0000000000080C06030181888888C8C8C88F6
:100EC00088183070E080007CFF010000FCFF830187
:100ED00001010181FF00000000FF7C0003070C18E6
:100EE00030312323636363612303020203010000A3
:100EF00000000000000000000000000000000000F2
:100F00000000000000000000C0F83838F8E0800061
:100F10000000000000C0F87F6F61606060677FFCC8
:100F2000E00000080E0F03000000000000000001B8
:100F30000F0F0C0000000000000000000000000087
:100F4000000000F8F8F8181818181818B8F0E000A1
:100F5000FFFFFF0C0C0C0C0E0E0F1DF8F00F0F0F07
:100F60000C0C0C0C0C0C0E0607030000000000001B
:100F7000000000000000000080E0F03818180C0CA1
:100F80000C1C181838301EFFF38000000000000011
:100F9000000000000000000307070E0C0C0C0C0CF6
:100FA0000C0E06060000000000000000000000001B
:100FB000000000F8F8F8181818181818183070E021
:100FC000C000FFFFFF000000000000000080F3FFF2
:100FD0003F0F0F0F0C0C0C0C0C0E06070303000048
:100FE000000000000000000000000000000000F809
:100FF000F8F8181818181818181818FFFFFF060620
:10100000060606060606060F0F0F0C0C0C0C0C0C41
:101010000C0C0C000000000000000000000000F8B4
:10102000F8F81818181818181818FFFFFF0C0C0CEF
:101030000C0C0C0C000F0F0F000000000000000053
:1010400000000000000000000000000080E0F03020
:101050001818080C0C0C0C181838301EFFF3800000
:10106000000000001818181838F8F80000030307EB
:101070000E0C0C0C0C0C0C0C0E07070000000000F2
:101080000000000000000000000000F8F8F8000078
:10109000000000000000F8F8F8FFFFFF0606060653
:1010A00006060606FFFFFF0F0F0F000000000000FE
:1010B00000000F0F0F000000000000000000000003
:1010C0000000000808F8F808080000FFFF00000C06
:1010D0000C0F0F0C0C0000000000000000080808B6
:1010E000F8F8F80000000000FFFFFF0C0C0C0C0CDF
:1010F0000707010000000000000000F8F8F80000F9
:101100000080C0E07038180800FFFFFF1C1E1F7F22
:10111000F1E0C0000000000F0F0F00000000000110
:1011200003070E0C08000000000000000000000093
:10113000000000F8F8F80000000000000000FFFFC9
:10114000FF00000000000000000F0F0F0C0C0C0C43
:101150000C0C0C0C0000000000000000000000F867
:10116000F8F878E0800000000080E07838F8F8FFB8
:10117000FFFF0001071E78703E07010000FFFF0F10
:101180000F0F00000000000000000000000F0F0023
:10119000000000000000000000000000000000F857
:1011A000F8F838F0C08000000000F8F8F8FFFFFF02
:1011B0000000030F3EF8E080FFFFFF0F0F0F00005D
:1011C0000000000003070F0F0F00000000000000E8
:1011D0000000000000000000C0E0F03818180C0CFF
:1011E0000C181838F0E080001EFFF38000000000AB
:1011F000000000000080F3FF3E00000307060E0C15
:101200000C0C0C0C0E060703000000000000000090
:101210000000000000000000000000F8F8F81818B6
:101220001818183870E0C0FFFFFF10101818181CAD
:101230000E07030F0F0F0000000000000000000069
:10124000000000000000000000000000C0E0F038D6
:1012500018180C0C0C181838F0E080001EFFF380F2
:1012600000000000000000000080E7FF1E000003F7
:1012700007060E0C0C0C1C7CFEC6C783C0C0000009
:10128000000000000000000000000080808000F8E6
:10129000F8F818181818181878F0C00000FFFFFFA9
:1012A0001818183878ECC7870100000F0F0F0000DE
:1012B0000000000001030F0E080000000000000005
:1012C00000000000000000E0F038181C0C0C0C1CA2
:1012D000181818000307070E0C0C0C1C1C1878F0CB
:1012E000E0060E0C0C0C0C0C0C0C0E07030100009D
:1012F0000000000000000000000000181818181876
:1013000018F8F8F81818181818180000000000004D
:10131000FFFFFF0000000000000000000000000FC1
:101320000F0F00000000000000000000000000009F
:1013300000000000000000F8F800000000000000BD
:101340000000F8F8FFFFC00000000000000000FFF0
:10135000FF0003070E0C0C0C0C0C0C07070100001F
:10136000000000000000000000000038F8E08000ED
:10137000000000000000C0F878080001073FFCE012
:101380000000C0F07E0F03000000000000010F0FFE
:101390000E0F03000000000000000000000000002D
:1013A0000000000000000008F8F8800000000000C5
:1013B000F078F8F00000000000C0F87800000F7F1F
:1013C000F88000F07F0700000FFFF000C0FC7F07EF
:1013D0000000000000070F0F070000000000000FD2
:1013E0000F0F0700000000000000000000000000D8
:1013F0000000000000000000000000001838F0E0CD
:1014000080000000C0E078381800000080E1773FDD
:101410001E7FF3C0800000080C0F030100000000D5
:101420000003070E0C000000000000000000000098
:101430000000001878F0C08000000080E0F038085C
:101440000000000307FEFCFE070100000000000092
:1014500000000F0F0F00000000000000000000005F
:1014600000000000000000001818181818181818BC
:1014700098F8F83818000080C0E0703C0E070301AF
:101480000000000C0E0F0D0C0C0C0C0C0C0C0C0CBA
:101490000C0000000000000000000000000000FC44
:1014A000FC04040404FFFF00000000FFFF808080B4
:1014B000808080808080800C3CF8C00000000000AC
:1014C00000000001073EF8C000000000000000001E
:1014D00000073F78C000000000000000000000048A
:1014E000040404FCFC00000000FFFF80808080FFFB
:1014F000FF808080808080000080C0E038183870D5
:10150000E0800000000C0E07010000000000000356
:10151000070E0800000000000000000000000000AE
:1015200000000000000000000000000000000000BB
:1015300000000000000000000000000000000000AB
:1015400000000000000000000000000000C0C0C05B
:10155000C0C0C0C0C0C0C0C0C0C0C0C0000000008B
:101560000000000000000000000000030F1C10003D
:10157000000000000000000000000000808080806B
:1015800080808080800080E1E1313131111919FFC4
:10159000FF03070F0C0C0C0C0C060F0F00000000D3
:1015A00000000000000000FCFC00008080808080C3
:1015B000000000FFFF030101010101038FFEF80F8E
:1015C0000F0E0C0C0C0C0C0E0703000000000000AA
:1015D000000000000000000000008080808080800B
:1015E0008000F8FE8F0301010101010101000307E2
:1015F0000E0C0C0C0C0C0C04000000000000000091
:1016000000000000000080C0C0C0C08080FCFCF86A
:10161000FE8F03010000010103FFFF0003070E0C12
:101620000C0C0C06060F0F0000000000000000006C
:101630000000000000008080C0C0C08080000078F2
:10164000FEFF333131303131333F3C000307060CAC
:101650000C0C0C0C0C0E060000000000000000003A
:1016600000000080E0F8BC8C8C8C01FFFF010101C0
:1016700001000F0F0000000000000000000000004B
:10168000000080808080808080000078FECF030191
:101690000101010103FFFE0003C7868E8C8C86C604
:1016A000F77F0F000080808080808000000000FCB9
:1016B000FC000080808080808000FFFF0303010128
:1016C000010103FFFE0F0F000000000000000F0FDC
:1016D00000000000000000000000009C9C00FFFFD4
:1016E000000F0F00000000008080809C9C00010122
:1016F00001FFFF808080C0FF7F808080800000FC31
:10170000FC00000000000080808000FFFFE0707897
:10171000FCCE87030100000F0F000000000103074B
:101720000E0C08000000000000000000000000FC9B
:10173000FCFFFF0F0F000080800000808080808011
:1017400000000080808080808000FFFF0303010193
:10175000010107FFFF030101010103FFFF0F0F005C
:101760000000000000000F0F0000000000000F0F3D
:101770000000000000000000000000000000000069
:101780000000008080000080808080808000FFFF5B
:1017900003030101010103FFFE0F0F000000000021
:1017A00000000F0F0000000000000000000000001B
:1017B000000080C0C0C0C080000000F8FE8F0301A0
:1017C0000000010107FFFC0003070E1C18181C0C89
:1017D000070701000000000000000000000000807A
:1017E0008000008080808080000000FFFF030101F6
:1017F000010101038FFE78FFFF0E0C0C0C0C0C0690
:1018000007010080800000000000000000000000D0
:10181000000080808080808080808078FECF0301FF
:101820000101010103FFFF0003070E0C0C0C0C0665
:1018300007FFFF0000000000000000000080808023
:1018400080000080808080FFFF0703010101010FFD
:101850000F00000000000000000000000000000079
:10186000008080808080808080001F3F31317161E6
:1018700061E1C3060E0C0C0C0C0C0C0707000000F9
:101880000000000000000080F8F880808080800167
:10189000FFFF01010101010003070F0C0C0C0C00FC
:1018A0000000000000000080800000000000000038
:1018B0008080FFFF00000000000000FFFF03070F13
:1018C0000C0C0C0C06060F0F0000000000000000BE
:1018D0000000008080000000000000000080800107
:1018E000073FF8E00000C0F83E0F010000000007CD
:1018F0000F0F0701000000000000000000000000C2
:1019000000000080800000000000008080000000D7
:1019100000008080011FFFF00080F83F070F7EF07D
:101920008080F87F070000000F0F0F01000000000B
:10193000030F0F070000000000000000000000007F
:101940000000000000000080808000000000000017
:101950008080800001038FDCF8F8FC8E070100080E
:101960000C0F0301000001030F0E0800000000002F
:101970000000000000000080800000000000000067
:1019800000808001073FFCE08000E0F83E0F01008E
:10199000000080F37F1F070000000000000080802F
:1019A00000000000000000808080808080808080B7
:1019B0008000010181C1E1711D0F0703000C0E0FB2
:1019C0000D0C0C0C0C0C0C0C0000000000000000B6
:1019D0000000000000000000F8F80C0C0404303097
:1019E0003078CE87030000000000000000037FFE77
:1019F000C08080800000000000000000008080FCAB
:101A0000FCFFFFFFFF808004040C0C3CF8E00000AA
:101A10000000000000000087CF58703030808080C8
:101A2000C0F07F1F00000000008080000000000068
:101A300000000000000000000000000000000000A6
:101A4000000060781C0606060C1830606060603E7E
:101A50001E00000000000000000000000000000068
:101A60000000000000000000000000000000002F47
:101A700003198040005374617274696E6720656D4C
:101A80006F6E506932204F4C4544000A0020286890
:101A9000696464656E292E00206279746573002C78
:101AA00020446174612073697A653A20002053698B
:101AB000676E61747572653A20004E6F20646174C0
:101AC0006120626C6F636B20666F756E64202D20E1
:101AD000454550524F4D206170706561727320749E
:101AE0006F20626520666F726D6174746564207426
:101AF0006F204F454D205374616E646172642062A3
:101B0000757420756E757365642E000A0020627905
:101B10007465732C206E6F7420666F726D617474BF
:101B2000656420746F204F454D205374616E64616D
:101B300072640053697A653A2000446F6E652E2006
:101B40004E657720636F6E666967207361766564A2
:101B500020746F20454550524F4D00536176696E99
:101B6000672E2E2E00536B657463682077696C6C4A
:101B7000206E6F772072657374617274207573695B
:101B80006E672064656661756C7420636F6E66694C
:101B9000672E00526573657474696E672E2E2E0071
:101BA00020000A417661696C61626C6520636F6D2B
:101BB0006D616E64733A0A6C09092D206C69737447
:101BC000207468652073657474696E67730A72099E
:101BD000092D20726573746F726520736B65746371
:101BE000682064656661756C74730A7309092D2039
:101BF000736176652073657474696E677320746FA2
:101C000020454550524F4D0A7609092D2073686FC3
:101C100077206669726D7761726520766572736987
:101C20006F6E0A7A09092D207A65726F20656E65DC
:101C30007267792076616C7565730A7809092D20C1
:101C4000657869742C206C6F636B20616E6420630F
:101C50006F6E74696E75650A3F09092D2073686F90
:101C6000772074686973207465787420616761698E
:101C70006E0A0A773C783E09092D207475726E2031
:101C800052464D20576972656C65737320646174A8
:101C900061206F66663A2078203D2030206F7220E8
:101CA0006F6E3A2078203D20310A623C6E3E090971
:101CB0002D2073657420722E662E2062616E642062
:101CC0006E203D20612073696E676C65206E756DB6
:101CD0006572616C3A2034203D203433334D487AAC
:101CE0002C2038203D203836384D487A2C20392099
:101CF0003D203931354D487A20286D617920726553
:101D000071756972652068617264776172652063BC
:101D100068616E6765290A703C6E6E3E09092D2068
:101D20007365742074686520722E662E20706F773C
:101D300065722E206E6E202D20616E20696E746596
:101D40006765722030202D203331207265707265F6
:101D500073656E74696E67202D31382064426D2082
:101D6000746F202B31332064426D2E2044656661F0
:101D7000756C743A20323520282B372064426D2947
:101D80000A673C6E6E6E3E092D20736574204E65A9
:101D900074776F726B2047726F757020206E6E6E55
:101DA000202D20616E20696E746567657220284F52
:101DB000454D2064656661756C74203D203231307C
:101DC000290A6E3C6E6E3E09092D20736574206EE3
:101DD0006F6465204944206E3D20616E20696E74F9
:101DE0006567657220287374616E64617264206E29
:101DF0006F6465206964732061726520312E2E3610
:101E000030290A0A643C78782E783E092D207878AB
:101E10002E78203D206120666C6F6174696E6720AA
:101E2000706F696E74206E756D62657220666F7278
:101E30002074686520646174616C6F6767696E67A0
:101E400020706572696F640A633C6E3E09092D203B
:101E50006E203D203020666F72204F46462C206E4B
:101E6000203D203120666F72204F4E2C20656E6120
:101E7000626C6520766F6C746167652C2063757287
:101E800072656E74202620706F77657220666163BC
:101E9000746F722076616C75657320746F20736542
:101EA0007269616C206F757470757420666F722032
:101EB00063616C6962726174696F6E2E200A6A3C9C
:101EC0006E3E09092D207475726E204A534F4E20C4
:101ED00053657269616C20666F726D6174206F6EFC
:101EE00020283129206F72206F6666202830292E25
:101EF0000A663C78783E09092D207878203D2074C8
:101F00006865206C696E65206672657175656E63C3
:101F10007920696E20487A3A206E6F726D616C6C20
:101F20007920656974686572203530206F722036BB
:101F3000300A6B3C783E203C79792E793E203C7A01
:101F40007A2E7A3E0A09092D2043616C696272611A
:101F5000746520616E20616E616C6F6775652069C4
:101F60006E707574206368616E6E656C3A0A09095B
:101F7000202078203D20612073696E676C65206E9B
:101F8000756D6572616C3A2030203D20766F6C74FF
:101F90006167652063616C6962726174696F6E2C40
:101FA0002031203D206374312063616C696272616D
:101FB00074696F6E2C2032203D206374322063617F
:101FC0006C6962726174696F6E2C206574630A09B2
:101FD00009202079792E79203D206120666C6F617F
:101FE00074696E6720706F696E74206E756D6265BE
:101FF0007220666F722074686520766F6C746167FA
:10200000652F63757272656E742063616C696272AC
:102010006174696F6E20636F6E7374616E740A0908
:102020000920207A7A2E7A203D206120666C6F612B
:1020300074696E6720706F696E74206E756D62656D
:102040007220666F72207468652070686173652005
:1020500063616C6962726174696F6E20666F722071
:102060007468697320632E742E20287A2069732087
:102070006E6F74206E65656465642C206F722069D4
:10208000676E6F72656420696620737570706C6925
:1020900065642C207768656E2078203D2030290A01
:1020A00009092020652E672E206B30203235362E10
:1020B000380A0909202020202020206B31203930C7
:1020C0002E3920322E30300A6D3C783E203C797912
:1020D0003E092D206D657465722070756C736520E6
:1020E000636F756E74696E673A0A0909202020785B
:1020F000203D203020666F72204F46462C207820ED
:102100003D203120666F72204F4E2C203C79793E65
:10211000203D20616E20696E746567657220666F70
:1021200072207468652070756C7365206D696E69C6
:102130006D756D20706572696F6420696E206D73B6
:102140002E202879206973206E6F74206E65656477
:1021500065642C206F722069676E6F7265642077EA
:1021600068656E2078203D2030290A00456E657232
:1021700067792076616C7565732073657420746F60
:10218000207A65726F00436F6E74696E75696E6751
:102190002E2E2E007266506F776572203D200072E1
:1021A000664E6F6465203D20002C20694C6561649B
:1021B000006943616C007643616C203D20007266CB
:1021C00047726F7570203D200066726571203D205A
:1021D00000646174616C6F67203D20006A736F6EEC
:1021E000203D206F6666006A736F6E203D206F6E23
:1021F00000204D487A00726642616E64203D2000E6
:102200002C7066002C49002C70756C73653A002C9C
:1022100045002C50002C56004D53473A007D002CB1
:102220002270756C7365223A002C2245002C2250D6
:10223000002C2256007B224D5347223A000A000010
:10224000080A400CFFC000C0D72611241FBECFEFE4
:10225000CDBFDFE7DEBF11E4A0E0B0E4E6EDF8E8D3
:1022600000E00BBF02C007900D92AA34B107D9F766
:1022700020E6AAE4B1E401C01D92AD3EB207E1F749
:1022800011E1C5E2D1E104C02197FE010E94394469
:10229000C432D107C9F70E9461280C9469440C9498
:1022A00000018091D2608D3011F42D9A089587300D
:1022B00011F40F9A0895813109F44B9A08950000A2
:1022C0009091D660911109C080934409809143098F
:1022D00087FFFCCF80914409089580936409809121
:1022E000630987FFFCCF8091640908958091D260D3
:1022F0008D3011F42D980895873011F40F980895BA
:10230000813109F44B980895CF93DF93D82FC62FCE
:10231000EDDF8D2F8068D3DF8C2FD1DFDF91CF9160
:10232000C0CFCF93C82FE2DF8C2FC9DF80E0C7DF9B
:10233000C82FB7DF8C2FCF910895CF939091A857D6
:10234000981791F0C82F81E0ECDF837E682F6C2B0B
:1023500081E0DADF8091A857811104C087E2E1DFD4
:1023600087FFF8CFC093A857CF9108950F931F937D
:10237000CF93DF93EC0184E0E0DF2097D9F08881F0
:102380008823C1F0B3DF8EEB9ADF8E01005F1F4F11
:10239000899195DFC017D107D9F783DFC1E08DE3BD
:1023A000C0DF8E7F682F6C2B8DE3DF91CF911F9163
:1023B0000F91AACFC0E0F3CFE0915E5EF0915F5E37
:1023C0008581837009F443C0838180FF40C05091B0
:1023D000615E5E7F30E020E090E04581842F837075
:1023E0002F5F3F4F213C6DE5360740F0823049F1C9
:1023F000813049F184E093E094830895642F6C70F8
:1024000021F08CE0858382E1F6CF813021F457837F
:1024100030E020E0E2CF823001F746FFDECF44FF1C
:1024200004C0992341F383E0E6CF8091625E981760
:1024300060F4A92FB0E0A659B14A8C9180879F5FC4
:10244000E7CF85E0D8CF81E1D6CF80E0D4CF80E15F
:102450000895CF92DF92EF92FF92CF93DF936A01BC
:10246000815096E1899FE0011124C851D24A8883A6
:1024700023EA33E240E051E4CB01B6010E9431414E
:102480002091494030914A4040914B4050914C40FE
:102490000E9431416B017C01609142587091435818
:1024A00090E080E00E94D0409B01AC01C701B601E2
:1024B0000E94AA4269837A838B839C831D828AE06F
:1024C00097EDA3E2BEE38E839F83A887B9871A8620
:1024D0001B861C861D861E86DF91CF91FF90EF9094
:1024E000DF90CF9008951092675710926557109221
:1024F0006657109263571092645710926257109269
:10250000615788E20EDF82FF06C08DE30ADF682F85
:1025100064608DE3F9DE80E110CFAF92BF92CF927D
:10252000DF92EF92FF920F931F93CF93DF936C0193
:102530007B018B01040F151FEB015E01AE18BF0874
:10254000C017D10759F06991D601ED91FC91019026
:10255000F081E02DC6010995892B79F7C501DF913E
:10256000CF911F910F91FF90EF90DF90CF90BF9090
:10257000AF900895FC0155894689252F30E0842FBE
:1025800090E0821B930B541710F0CF96089501979B
:102590000895FC0193898489981761F0A489AE0F8E
:1025A000BF2FB11D57968C9194899F5F9F73948B19
:1025B00090E008958FEF9FEF0895FC01938984893F
:1025C000981731F08489E80FF11D878990E008950C
:1025D0008FEF9FEF0895FC0193892489892F90E064
:1025E000805C9F4F821B91098F7399270895CF9329
:1025F000DF93EC01E881F9810680F781E02D0995F0
:10260000EC85FD85868116828581158280E4848330
:102610008C898B8B1A8ADF91CF9108958F929F922C
:10262000AF92BF92FF920F931F93CF93DF938C01D2
:102630004A015B01D22FC32FDC0152968C91529735
:1026400080FF07C0ED91FC910288F389E02DC8015D
:102650000995D11101C0D3E0FD2EE894F2F8DC2FEA
:10266000D095D07CB1E68B16B3EE9B06B6E1AB06F7
:10267000B10428F0D260B694A7949794879460E050
:1026800078ED88EB95E0A50194010E941442C90100
:102690002034310510F480E490E03C2F3B72D7FDEC
:1026A00030684D2F487C30FD41605FB7F894D80109
:1026B0001C96ED91FC911682F7828087918735FFF9
:1026C0008FC04F7781E084878FEF85873F7D35838B
:1026D000D683F8012189C08986859785FC0133E07E
:1026E000239FE00DF11D1124659174912C1708F0C2
:1026F00059C0272F46FF76C0793288F430E0F901BF
:10270000EF5AFF4BA081AF3F51F026583F4BF901E4
:10271000308120E2329FF0011124FC5FA18347FF4A
:102720002AC021E0270F293230F530E0F901EF5AB5
:10273000FF4BD081DF3FF9F0F901E658FF4BA08154
:10274000F0E2AF9FD0011124BC5F2D553F4BF90142
:102750001081F0E0E0E0183030F49D01205F3F4F41
:10276000F901E10FF11D3FB7F8941296DC93208137
:10277000286020833FBF40FF15C023E0270F293288
:1027800088F430E0F901EF5AFF4B40814F3F51F0A0
:1027900026583F4BD901EC91B0E2EB9FF001112498
:1027A000FC5F4183FC0123E0C29FE00DF11D112479
:1027B000319625913491F901FF27EE51FA4F90811E
:1027C000832F80958923682B60835FBFDF91CF9132
:1027D0001F910F91FF90BF90AF909F908F900895A1
:1027E000148674CF342F307509F499CF793208F0FC
:1027F00096CF30E0F901EF5AFF4BD081DF3F09F46B
:102800008ECFF901E658FF4BA081E0E2AE9FD001E8
:102810001124BC5F2D553F4BF9011081F0E0E0E041
:10282000183030F49D01205F3F4FF901E10FF11D99
:102830003FB7F8941296DC932081286020833FBF35
:102840006ECFFC010FB607FE04C0809111018823F2
:10285000A9F0A485B58514968C91149785FF0EC0B8
:1028600095898689981739F015968C9115978F7DE3
:1028700015968C930895E8940C94752108950F9300
:102880001F93CF93DF93EC018A89982F91609A8BE5
:102890002D899E8929130AC0EC85FD85948195FFB9
:1028A00005C081FD0DC080E4848312C0062F1D8900
:1028B0001F5F1F738E89811315C0CE01C2DFFACF4F
:1028C00085818F77806490E49483EC85FD85858392
:1028D000EC85FD85628381E090E0DF91CF911F91CF
:1028E0000F910895ED89EC0FFD2FF11DE95AFF4F6F
:1028F00000831D8BEC85FD858A8981FF09C0858158
:102900008F77806690E49483EC85FD858583E3CFA3
:1029100085818062FBCFEF92FF920F931F93CF933D
:10292000DF938C017B01D0E0C0E0F701EC0FFD1FCD
:102930006491662331F0C801A2DF892B11F0219642
:10294000F4CFCE01DF91CF911F910F91FF90EF90C7
:10295000089595CFCF93DF93EC018A8980FF0BC058
:10296000EC85FD85858185FD03C0848186FD03C0DE
:10297000CE0167DFF5CFDF91CF91089581E0089513
:102980000F98079A20E533EC93E0179A44E1F90198
:102990003197F1F74150D9F7482F179AF90131973C
:1029A000F1F7179A59E0F9013197F1F75150D9F73A
:1029B000415099F7915049F7E7CF9FB7F894E091CC
:1029C0002A0BF0912B0B8091260B20910C57309104
:1029D0000D5740910E5750910F579FBF80FF08C071
:1029E000EC3E8CE2F80720F42F5F3F4F4F4F5F4FD4
:1029F0000F0116940794169407941694079416944E
:102A00000794F00116940794E00DF11D16940794B5
:102A1000102C169401181694010C16940118169493
:102A2000010C1694011816941694010C1124E01947
:102A3000F109A8EEB3E00E9404426E0F7F1F811DD2
:102A4000911D08958F929F92AF92BF92CF92DF9285
:102A5000EF92FF926B017C01B0DF4B015C01C1146E
:102A6000D104E104F104B1F0A8DF681979098A09F9
:102A70009B09683E73408105910588F321E0C21AE5
:102A8000D108E108F10888EE880E83E0981EA11CA9
:102A9000B11CE5CFFF90EF90DF90CF90BF90AF904B
:102AA0009F908F9008952FB7F89460910C57709174
:102AB0000D5780910E5790910F572FBF0895815059
:102AC000909120572FE5929FF0011124E858F74A82
:102AD00045E1849F900111242451334A208331839E
:102AE000615026E1629FB00111246851724A6283ED
:102AF000738364837583E25AFF4F21E02083E82FBC
:102B0000F0E0ED5DF84A90839F5F90932057089521
:102B10008F929F92AF92BF92CF92DF92EF92FF92ED
:102B20000F93CF936B017C0120E030E040E05FE346
:102B30000E94CC4087FF05C0C12CD12CE12C8FE333
:102B4000F82EC0920540D0920640E0920740F092E5
:102B5000084080901D5790901E57C0911F5720E845
:102B600036E948E15BE4C701B6010E9431416B01DF
:102B70007C01B12CA12CC501B4010E94D0409B0165
:102B8000AC01C701B6010E94AA420E9417436B0123
:102B90007C0160E876E988E990E0A50194010E9453
:102BA0001442CA01B90100914640202F30E050E0A4
:102BB00040E00E94144244275527C701B601621B1A
:102BC000730B840B950B2C2F30E050E040E00E94FB
:102BD000144220931057309311574093125750933B
:102BE0001357CF910F91FF90EF90DF90CF90BF9050
:102BF000AF909F908F900895DC01ED91FC91F17062
:102C0000FC5E80810895CF92DF92EF92FF920F9346
:102C10001F93CF93DF9300D0CDB7DEB76C017C015B
:102C200003E010E009831A83CE010196E5DFF70186
:102C300081937F010F5F1F4F0730110599F7C60180
:102C40000F900F90DF91CF911F910F91FF90EF9018
:102C5000DF90CF9008950F931F93CF93DF9300D011
:102C600000D0CDB7DEB78C0119821A82CE01019651
:102C7000C3DF8F34F9F481E090E089839A83CE0139
:102C80000196BADF8534B1F482E090E089839A83BB
:102C9000CE010196B1DF8D3469F481E00115110593
:102CA00051F0CE010196AFDF81E02B813C812017EE
:102CB000310709F080E02496CDBFDEBFDF91CF91D0
:102CC0001F910F9108951F93CF93DF93EC01162F5F
:102CD00093DF8117B1F09FB780910210282F2270E7
:102CE00081FDFACFF8948DE984BF2093001023E191
:102CF00084BF20930010E881F981F170FC5E10839D
:102D00009FBFCE01DF91CF911F910895CF92DF92A7
:102D1000EF92FF920F931F93CF93DF9300D0CDB725
:102D2000DEB76C017C0103E010E009831A83F70130
:102D300061917F01CE010196C6DF0F5F1F4F073003
:102D4000110599F7C6010F900F90DF91CF911F9158
:102D50000F91FF90EF90DF90CF9008950F931F9306
:102D6000CF93DF9300D0CDB7DEB700914E5E1091C8
:102D70004F5E8091505E9091515E081719079CF448
:102D8000C801957189839A836FEFCE0101969BDF0D
:102D900010924A5E10924B5E8091485E9091495E1F
:102DA000080F191FE6CF0F900F90DF91CF911F9161
:102DB0000F910895CF93DF93EC018D85882329F03F
:102DC00081508D87DF91CF9108959C818E819817D6
:102DD000C8F788896827E881F9810084F185E02DAA
:102DE00042E0CE0109958C818F5F8C83EBCFDC01B3
:102DF000ED91FC910084F185E02D40E009940F9362
:102E00001F93CF938C01FC016483C085C60F6C2F88
:102E10006F70EDDF6C2F62956F706061C801CF91AC
:102E20001F910F91E4CFFC012781269526952695C9
:102E3000621730F465832385620F6770606BD7CFAC
:102E400008951F93CF93DF93EC01142F8E816817A1
:102E500010F4CE01D4DF612FCE01DF91CF911F910D
:102E6000E2CFCF92DF92EF92FF920F931F93CF9317
:102E7000DF93EC01F62EC42ED22E1D868F8186950F
:102E800086958695081710F00FEF080F1D2D011776
:102E900070F0412F6F2DCE01D4DFEF2CCE1428F02F
:102EA0006889CE0187DFE394F9CF1F5FF0CF4D2D06
:102EB0006F2DCE01DF91CF911F910F91FF90EF9079
:102EC000DF90CF90BECF0F93CF93DF93C7EDD0E6C7
:102ED0001B861A8660E4CE018ADF0F81069506956F
:102EE000069501504E81415020E060E0CE01B9DFEF
:102EF000DF91CF910F9108952F923F924F925F9261
:102F00006F927F928F929F92AF92BF92CF92DF92F9
:102F1000EF92FF920F931F93CF93DF93CDB7DEB75E
:102F20002697CDBFDEBFDC011E962D913C91211569
:102F3000310509F46CC18D839E83F901329664904A
:102F400031964491E42EF12CB7E0EB0EF11C53E0E6
:102F5000F594E7945A95E1F7E982319654913196C8
:102F6000E4916D3009F5FC018681811118C081E082
:102F700090E02696CDBFDEBFDF91CF911F910F91DC
:102F8000FF90EF90DF90CF90BF90AF909F908F9089
:102F90007F906F905F904F903F902F90089560E0EA
:102FA0008D819E812CDFE3CF6A3009F063C0AD8153
:102FB000BE8116968C911697882319F060E0CD019A
:102FC0001EDFED81FE8101890E9DE02C11246581BB
:102FD0006E0D8485882349F02781269526952695B0
:102FE0008E2D821B860F181624F08D819E811BDF8B
:102FF000BECFAD81BE811B969C911B97890F8770B8
:103000001B968C931B972E1915962C9315971E962D
:10301000ED91FC91309761F13396E491F0E03796B1
:1030200033E0F595E7953A95E1F70E9F002D1124D1
:10303000EFEFE20F0E0FED81FE814681415064817A
:10304000CF010FDFAD81BE811C968C911C97813022
:1030500009F08DCF1B966C911B97660F660F660F5C
:103060006F731A966C931A976064CD01C0DE7FCFA0
:1030700000E0DECF651708F4CAC08E2F90E0FC0197
:10308000E50FF11D6E171F060CF0C1C089010A5F24
:103090001F4F651BED81FE8171855189759F502DF4
:1030A00011245C83F90154912F5F3F4FF901249162
:1030B000352F2230310508F06DC06E9CC0016F9C29
:1030C000900D1124689FF001699FF00D11240E0FDF
:1030D0001F1F512CAD81BE811496BC91BA83ED8126
:1030E000FE812580F585FB83862C912CAA24A39450
:1030F000B12C312C8981381608F087C0412CAD8164
:10310000BE8151968C915197481608F077C0EB819B
:103110001D96EC93311002C0442049F0AD81BE8170
:1031200015964C9115974F5F6A81CD018ADED12C9F
:10313000C12CC61408F056C0F801EC0DFD1D7490AA
:10314000552061F0EA14FB0449F4E72DF0E0052C6A
:1031500002C0F595E7950A94E2F77E2EED81FE8197
:103160008189823079F4442009F438C072948FE068
:103170007822E72DF0E0EA5BFB4F7490672D8D819C
:103180009E8118DE672D8D819E8114DE8FEFC81A17
:10319000D80ACFCF477028E0522E541A411101C0EF
:1031A000512CF801612C30E020E0661631F044919A
:1031B000240F311D63943196F8CF600E712E711C6F
:1031C000F3016490E29EF001E39EF00DF29EF00D9B
:1031D00011248E0F9F1F080F191F7CCFF72DFF7032
:1031E0007F2EC7CFD12CAC81DA1631F060E08D8113
:1031F0009E81E0DDD394F7CF439481CF3394080DC3
:10320000191DBFEFAB1ABB0A75CF622DEECE90E051
:1032100080E0AFCEDC011C96ED91FC91938181851D
:1032200013821186938391E09583818708959C0191
:1032300026563F4FDC015296EC91529751968C9155
:10324000E81730F4E20FF32FF11D808190E008952C
:103250008FEF9FEF0895FC01DC01A656BF4F9289C6
:103260008189981740F4A90FB11D2C919F5F928B13
:10327000822F90E008958FEF9FEF0895FC018189E0
:103280009289891B990B0895CF92DF92EF92FF925A
:103290000F931F93CF936C014338510510F042E810
:1032A00050E0C42F7B0110E000E00C1780F4D70140
:1032B0006D917D01D601ED91FC910190F081E02DA1
:1032C000C601099598012F5F3F4F892B49F4C8012A
:1032D000CF911F910F91FF90EF90DF90CF900895C5
:1032E0008901E3CFFC01A089A23858F4A80FB92FB7
:1032F000B11D58966C9380898F5F808B81E090E040
:10330000089590E080E00895DC011A96ED91FC911B
:103310001B97309731F015968C91882311F090E02F
:1033200009940895CF93DF93FC01A081B1811B968E
:103330008C911B97982F9C7029F01D968C9115826B
:10334000148229C086FF2AC0EF0180FF1DC081FFC3
:1033500011C01D968C918383CF01D6DF1C821F8202
:10336000E885F985309709F00995E881F98183E0CE
:10337000828711C01D968C911D97838315821682BA
:1033800083E01A968C9307C080E41B968C93CF0140
:10339000BBDF1D821E82DF91CF91089587FFFBCF97
:1033A00081FF22C084FF09C0828187FF06C08F771A
:1033B000828382E01A968C93C3CF82818068828355
:1033C000C7818481C81770F4CE0FDF2FD11D8C8583
:1033D0001D968C931D9783E01A968C9387818F5F3F
:1033E0008783D9CF82E0CDCF1D969C911D97858193
:1033F000823868F4DF01A80FB11DA257BF4F9C931C
:1034000085818F5F85830190F081E02DB0CF86E0CC
:103410001A968C9315821682BECFDC01ED91FC9139
:103420000088F189E02D23E030E00994089590E0D0
:1034300080E008950F931F93CF93DF938091A85757
:10344000803109F070C088E20E94911182FF43C070
:1034500084E00E949D110E94761180E00E945F111D
:1034600080E00E945F11D82FC82F833408F0C2E497
:10347000C093625780E00E945F11082F80E00E9495
:103480005F11182F80E00E945F11282F30E0A90102
:1034900096E0440F551F9A95E1F744275370402B4F
:1034A0004093635750936457322F2227222733705B
:1034B000212B20936557309366579091D0609417D5
:1034C000150611F0452B11F4D330B0F41092625769
:1034D0000E94511108D88091A857803121F5809120
:1034E0006257882311F184E00E949D1181E0DF91F1
:1034F000CF911F910F910895C350C0936757807863
:1035000080936157D0E0DC1728F480E00E945F11BF
:10351000DF5FF9CF0E94511180E10E949D1184E28A
:103520000E949111D8CF0E94731280E0E0CF94E006
:1035300081111BC0909346049091400492FD0AC0F3
:103540009FB7F894811114C080915204877F8093B3
:1035500052049FBF8091E6058770823029F48091E4
:10356000010A8B7F8093010A089590934504E4CF6C
:10357000809152048860EBCF0F931F93CF93DF931A
:10358000EC01062F142F8B89813120F4882329F038
:10359000411103C00E94DC111B8A8B8981110DC06F
:1035A0008A89880F8093615E1092625E60E41111D7
:1035B00001C060E082E59EE595DE602F82E59EE534
:1035C00091DE123041F48B898F5F8B8BDF91CF912D
:1035D0001F910F9108950E94DC111B8AF7CF0F9362
:1035E0001F93CF93DF93CDB7DEB72C97CDBFDEBF50
:1035F000681BF1F0062F10E0682F70E06859784AD8
:10360000A801CE0101960E945A44E1E0F0E0EC0FDF
:10361000FD1FE00FF11F1082CE0101960E94323F84
:103620002C96CDBFDEBFDF91CF911F910F910895F2
:1036300090E080E0F5CF0F931F93CF93DF93CDB74A
:10364000DEB72C97CDBFDEBF681BF1F0062F10E070
:10365000682F70E06859784AA801CE0101960E944F
:103660005A44E1E0F0E0EC0FFD1FE00FF11F108283
:10367000CE0101960E942F3F2C96CDBFDEBFDF9179
:10368000CF911F910F91089560E070E0CB01F4CFCE
:10369000FB0101900020E9F73197AF01461B570B62
:1036A000DC01ED91FC910280F381E02D099466E04C
:1036B00071E4EECF0F931F93CF93DF93EC012BD9DF
:1036C0008C01CE01F4DF800F911FDF91CF911F910C
:1036D0000F9108958F929F92AF92BF92EF92FF92B7
:1036E0000F931F93CF93DF93CDB7DEB7A197CDBFD5
:1036F000DEBF7C01FA01CB0119A2223008F42AE0D6
:103700008E010F5D1F4F822E912CB12CA12CBF0179
:10371000A50194010E941442F901CA016A30ECF437
:10372000605DD8016E938D01232B242B252B79F717
:1037300090E080E0109719F0BD01C701A9DFA196C4
:10374000CDBFDEBFDF91CF911F910F91FF90EF9022
:10375000BF90AF909F908F900895695CE2CFCF9219
:10376000DF92EF92FF920F931F93CF93DF9377FF38
:103770001BC06A017B01EC016DE2EBD88C01442790
:103780005527BA014C195D096E097F092AE0CE015F
:10379000A1DF800F911FDF91CF911F910F91FF90BB
:1037A000EF90DF90CF9008952AE0DF91CF911F91A5
:1037B0000F91FF90EF90DF90CF908CCFAB01770F00
:1037C000660B770BCCCF6DE374E089EA97E5A3D85D
:1037D0008091CB6069E374E0882399F063E070E046
:1037E00089EA97E5EBDF68E274E089EA97E593D828
:1037F0006091CC607091CD6089EA97E5DFDF65E28A
:1038000074E089EA97E556CF68E773E089EA97E5BF
:1038100051DF6DE673E089EA97E57DD869E071E4F0
:1038200089EA97E535DF61E673E089EA97E573D8C1
:1038300069E573E089EA97E53DDF6EE473E089EAC4
:1038400097E569D863E070E089EA97E5B7DF68E457
:1038500073E089EA97E52ECF4F925F926F927F9245
:103860008F929F92AF92BF92CF92DF92EF92FF9290
:103870000F931F93CF936B017C01742EAC019B01BE
:103880000E942E4461E171E4811126C04601570176
:10389000E894B7F82FEF3FEF4FE75FE7C501B401BA
:1038A0000E942E4481110CC02FEF3FEF4FE75FE7DE
:1038B000C501B4010E94CC4065E171E4181664F0C2
:1038C0002FEF3FEF4FE75FE4C701B6010E94E843E7
:1038D0001816A4F469E171E489EA97E5CF911F9184
:1038E0000F91FF90EF90DF90CF90BF90AF909F909F
:1038F0008F907F906F905F904F90CACE2FEF3FEFE9
:103900004FE75FECC701B6010E94CC4087FDE2CFD4
:1039100020E030E0A901C701B6010E94CC4010E0D0
:1039200000E087FF09C06DE289EA97E512D88C01B3
:10393000F7FAF094F7F8F094C0E060E070E080E00F
:103940009FE37C1641F020E030E040E251E40E9429
:10395000AA42CF5FF6CFA70196010E9446422B01F3
:103960003C010E9417434B015C012AE0BC01A40109
:1039700089EA97E5AFDE7C01E00EF11ECC23C9F1A8
:10398000C501B4010E94D0409B01AC01C301B2014A
:103990000E9445424B015C0164E471E489EA97E5C9
:1039A00077DEE80EF91EC15020F120E030E040E261
:1039B00051E4C501B4010E9431412B013C010E9438
:1039C00017434B01B12CA12C2AE0B501A40189EACF
:1039D00097E580DEE80EF91EC501B4010E94D040D3
:1039E0009B01AC01C301B2010E9445424B015C0145
:1039F000DACFC701CF911F910F91FF90EF90DF9029
:103A0000CF90BF90AF909F908F907F906F905F907E
:103A10004F900895CF93DF931FDFEC0189EA97E57C
:103A200046DE8C0F9D1FDF91CF910895CF93DF93DA
:103A3000482F50E070E060E02AE089EA97E54ADE2E
:103A4000EC0189EA97E533DE8C0F9D1FDF91CF9162
:103A5000089580918D606CE174E0882309F44CC076
:103A600069E074E089EA97E50E948B1480918A608E
:103A700061EB71E08B3251F064E673E0863531F032
:103A800070E060E08B3511F463E973E089EA97E553
:103A900095DE68EF73E089EA97E50E948B14409108
:103AA0008B6050E070E060E02AE089EA97E512DE82
:103AB0006CEE73E089EA97E50E948B1460918C604C
:103AC0006F7370E089EA97E579DE6FED73E089EA5C
:103AD00097E50E948B1440918E6050E070E060E0AA
:103AE0002AE089EA97E5F6DD61ED73E089EA97E57A
:103AF0000E948B1464EC73E089EA97E5DBCD6115D5
:103B0000710509F0C5CD90E080E00895AF92BF92B5
:103B1000CF92DF92EF92FF920F931F93CF93DF9399
:103B200000D0CDB7DEB76C015B0110E000E00A15F4
:103B30001B050CF03BC07801EC0CFD1C85E1F82264
:103B4000E982FA82CE01019657D8803128F460E3E9
:103B500089EA97E50E94A9140F5F1F4FE982FA8254
:103B6000CE01019649D8482F50E070E060E020E196
:103B700089EA97E5AFDD6FE171E489EA97E5BFDF98
:103B8000C80187709927892B29F46FE171E489EACC
:103B900097E5B5DFC8018F709927892B41F66DE352
:103BA00072E289EA97E50E948B14C1CF0F900F90C3
:103BB000DF91CF911F910F91FF90EF90DF90CF9009
:103BC000BF90AF9008950F931F93CF93DF936CEB4B
:103BD00073E089EA97E50E948B1460918F60709181
:103BE0009060809191609091926042E050E012DF8D
:103BF00007E910E6C1E0D0E067EB73E089EA97E5FA
:103C00000E948B14BE0189EA97E5D8DD6DE171E46D
:103C100089EA97E574DFF801619171918191919141
:103C20008F0142E019DE6FEA73E089EA97E50E94AE
:103C30008B14BE0189EA97E5C1DD6DE171E489EA83
:103C400097E55DDFF801648975898689978942E087
:103C500050E0E0DE2196C730D10571F6B4DDF9DE23
:103C600064EA73E089EA97E50E948B146091C7606B
:103C70007091C8608091C9609091CA6042E050E044
:103C8000C9DE8091CF606FE873E0882311F06AE9A4
:103C900073E089EA97E5DF91CF911F910F910ACDEB
:103CA0000E944B442F923F924F925F926F927F926D
:103CB0008F929F92AF92BF92CF92DF92EF92FF923C
:103CC0000F931F93CF93DF93CDB7DEB72A97CDBF66
:103CD000DEBF89879A87162F7A01222E312CB101F7
:103CE000032C000C880B990B0E94D2404B015C0105
:103CF000612F70E090E080E00E94D24020E030E050
:103D000044EB53E40E9431412B013C01B70190E0A8
:103D100080E00E94D0409B01AC01C301B2010E942F
:103D20003141A50194010E94314120E836E948E182
:103D30005BE40E94AA422B013C01E985FA850581DA
:103D40008081081B110B218132814381548166815E
:103D50007781808591850E944542A30192010E944E
:103D6000AA426B017C01B801012E000C880B990B53
:103D70000E94D240A50194010E94AA429B01AC017D
:103D8000C701B6010E9446426D837E838F83988768
:103D90000E94854369837A838B839C8320E030E093
:103DA00040E85FE30E9446426B017C0120E030E086
:103DB000A90169817A818B819C810E94E84387FDFA
:103DC000A2C0A7019601C501B4010E9431410E9421
:103DD0001243E985FA856287738716861786E98517
:103DE000FA8526853785020F131F06871787020D70
:103DF000131D0487158720E030E044EB53E4C30132
:103E0000B2010E94AA422BED3FE049EC50E40E942F
:103E100031416B017C0129813A814B815C816D814B
:103E20007E818F8198850E944542A30192010E9464
:103E3000314120E030E044EB53E40E94AA422BEDF4
:103E40003FE049EC50E40E9431414B015C01A70185
:103E500096010E94AA422B013C01E985FA85448A19
:103E6000558A668A778AA5019401C501B4010E942A
:103E7000314120E030E040E05FE30E9431419B01AE
:103E8000AC0160E070E080E89FE30E9445424B0196
:103E90005C01A7019601C701B6010E94314120E0F3
:103EA00030E040E05FE30E9431419B01AC0160E003
:103EB00070E080E89FE30E944542A30192010E94C6
:103EC00031419B01AC01C501B4010E944542E98525
:103ED000FA85608B718B828B938B2A96CDBFDEBF68
:103EE000DF91CF911F910F91FF90EF90DF90CF90D6
:103EF000BF90AF909F908F907F906F905F904F900A
:103F00003F902F900895E985FA8512861386C701A0
:103F1000B6019058A50194010E9431410E941243BC
:103F2000E985FA85668777875ACFCF92DF92FF922D
:103F30000F931F93CF93DF930FE5089FF001112498
:103F4000EF01C858D74AAA81BB811F962C911F97B1
:103F50002A8B16964D915D916D917C9119974B8BA3
:103F60005C8B6D8B7E8BA881B9811F962C911F97DE
:103F70002F8B16964D915D916D917C911997488F7D
:103F8000598F6A8F7B8F20911F57C0901D57D090FB
:103F90001E57F09046408F01A6016F2DCF01865726
:103FA000974A80DEEC81FD818A819B818E179F0775
:103FB00029F187858AA786819781A085B1858BA7FE
:103FC0009CA7ADA7BEA7E881F98187858FA78681C9
:103FD0009781A085B18588AB99ABAAABBBAB20918B
:103FE0001F57A6016F2DC8018E55974ADF91CF91BB
:103FF0001F910F91FF90DF90CF9054CEDF91CF9122
:104000001F910F91FF90DF90CF900895CF92DF9294
:10401000EF92FF920F931F93CF93DF93CDB7DEB74D
:10402000AD97CDBFDEBF87E08093D26084E0809300
:10403000D36085E08093D46086E08093D560109251
:10404000D66010918B6080918C608093D0601092CC
:10405000D16080E88093010480E1809301049FB7E0
:10406000F89480E28093020480911504877F809306
:1040700015049FBF8091D560893288F490E0FC01DF
:10408000EF5AFF4B20812F3F51F086589F4BDC01A8
:10409000EC91B0E2EB9FF0011124FC5F21830E94C0
:1040A00051118091D6608111B5C08091E4058C7F5B
:1040B0008093E40580914109846080934109809157
:1040C00040098162809340090E9453156B017C0175
:1040D0006AEA8FE20E9484118FE20E9491118A3A6B
:1040E00059F00E9453156C197D098E099F0962339E
:1040F00071058105910560F30E9453156C197D09C6
:104100008E099F09623371058105910508F0B3C0DE
:104110000E9453156B017C0165E58FE20E948411BA
:104120008FE20E949111853559F00E9453156C1948
:104130007D098E099F09623371058105910560F340
:104140000E9453156C197D098E099F096233710510
:104150008105910508F08FC0FE0133968BE2DF01E7
:104160001D928A95E9F781E0898384E08A8322E0C1
:104170002B8393E09D832E838F8380E4888725E0C3
:1041800029879A8796E09B8793E39C8797E09D8792
:1041900028E02F8729E0298B29E12B8B32E43C8B07
:1041A00025E22D8B8E8B26E22F8B988F98E2998FAC
:1041B00020E12A8F99E29B8F9CED9C8F9EE29D8F40
:1041C00098E89E8F9FE29F8F9DE298A390E399A32A
:1041D00047E34BA340E94CA348E34DA33EA33CE394
:1041E0003FA33FE838A73DE339A72AA72FE62BA72F
:1041F0009CA79CE69E87888B1AA38E010F5F1F4F9A
:10420000F80180818823B1F061810E9484110E5FE2
:104210001F4FF6CF8091E405837F8093E405809162
:104220006109846080936109809160098162809353
:1042300060094ACF90E080E00E94B61169E981E10F
:104240000E94841184E00E949D110E9453156B010D
:104250007C0187E20E94911187FD0BC00E945315DB
:104260006C197D098E099F096233710581059105DD
:1042700080F30E94531581E291E40E94B6112091CF
:104280008C60F4E12F9F8001112460E070E0CB018D
:104290000115110541F00E94DA3E9801110F440BFF
:1042A000550B0E94E841AD96CDBFDEBFDF91CF91A7
:1042B0001F910F91FF90EF90DF90CF900C942215FB
:1042C000EF93FF93E9EAF7E508C0EF93FF93E9EA7C
:1042D000F7E532C0EF93E0E653C02F932FB72F934B
:1042E0008F939F93AF93BF936894CF93DF9320E016
:1042F000C485D8E09689DF01A90FB21FA95ABF4F24
:104300008C9120E42C838A839F5F9F738D81258904
:10431000291302C08F7D8D83968BDF91CF9116F08C
:104320000C943E14BF91AF919F918F912F912FBF0D
:104330002F91FF91EF9118952F932FB72F938F9374
:104340009F93CF93DF93C485D8E08981988181FDC5
:104350000DC0C38981E08C0F8F732489281731F039
:10436000CE0FDF2F20E0D21F9F8B838BDF91CF9169
:104370009F918F912F912FBF2F91FF91EF911895C2
:10438000FF938F938FB78F93F8E08081848187FFAD
:10439000FCCF85818F7B806885838F918FBF8F91C4
:1043A000FF91EF9118951F920F920FB60F92112463
:1043B00084E00E94C0141F920F920FB60F92112436
:1043C0008F939F93AF93BF9380910C5790910D570C
:1043D000A0910E57B0910F570196A11DB11D80936A
:1043E0000C5790930D57A0930E57B0930F5781E041
:1043F0008093260BBF91AF919F918F910F900FBE2D
:104400000F901F9018951F920F920FB60F921124C4
:104410008F9388E08093A90481E080931A578F914D
:104420000F900FBE0F901F9018951F920F920FB60E
:104430000F9211248F939F93809109048093090414
:1044400086FF03C091E090931C5787FF03C081E073
:1044500080931B579F918F910F900FBE0F901F90CD
:1044600018951F920F920FB60F9211240BB60F9250
:104470002F923F924F925F926F927F928F929F9274
:10448000AF92BF92CF92DF92EF92FF920F931F9362
:104490002F933F934F935F936F937F938F939F934C
:1044A000AF93BF93EF93FF93CF93DF93CDB7DEB777
:1044B0002A97CDBFDEBF81E080930D068091100664
:1044C000909111068D839E8380910B578E5F909102
:1044D0001F57891718F090911F57891B90E0FC0116
:1044E000EE0FFF1FE80FF91FE75EFF4B80818093FF
:1044F00008068D819E81209142583091435836950F
:104500002795821B930B8D839E838D819E81E091E5
:104510000957F0910A57EE0FFF1FE75FF04B8083BA
:10452000918319821A821B821C822D813E810D810A
:104530001E8122241302B001029FA00112037209FE
:10454000500D611D721D30037209500D611D721DE9
:10455000112449835A836B837C8389809A80AB8042
:10456000BC80A0910140B0910240E0910B5708E05F
:10457000E09FF0011124EA0FFB1FE058FF4F20805D
:104580003180428053806480758006811781940158
:10459000A50160E070E080E090E0510162017301EC
:1045A0000E94424420833183428353836483758312
:1045B000868397834D815E81E0910B5718E0E19FE0
:1045C000F0011124EA0FFB1FA084B184C284D384BC
:1045D000E484F58406851785952F990F990B9A0128
:1045E000492F592F692F792F892F0E944244208704
:1045F0003187428753876487758786879787E091DD
:104600000B578E2F90E0FC01EE0FFF1FE80FF91FF4
:10461000E75EFF4B80818111CFC08091074F909161
:10462000084F9C013695279536952795AC01421B7E
:10463000530B9A018D819E81181619060CF478C0CF
:104640008D819E81919581959109820F931F809311
:10465000074F9093084F21E04091405850914158A6
:104660004817590708F020E02093FD5D8D819E8159
:10467000181619060CF05FC081E090E08093054F9A
:104680009093064F2091054F3091064F8091014F36
:104690009091024F2817390709F452C08091FE4EBD
:1046A0008F5F8093FE4E8091FE4E882351F01092D2
:1046B000FE4E8091054F9091064F8093034F90934B
:1046C000044F8091034F9091044F019709F016C356
:1046D0008091014F9091024F019709F465C080913C
:1046E000FF4E9091004F01968093FF4E9093004FA4
:1046F00020910440222339F1209103402817190604
:1047000009F008F5109204401092FF4E1092004FED
:1047100014961D921D921D921C921797CD018852DE
:104720009D4FFD01E817F90771F010823196FACF1D
:104730008D819E818ACF1092054F1092064FA2CF95
:104740001092FE4EB0CF14964D915D916D917C917B
:1047500017974F5F5F4F6F4F7F4F14964D935D9349
:104760006D937C9317970D911D912D913C9113970B
:1047700040911057509111576091125770911357F3
:10478000041715072607370778F080914740909166
:104790004840A0934740B093484080930140909395
:1047A000024081E0809322578091034F9091044F03
:1047B0008093014F9093024F90910B578091215716
:1047C000981708F445C28090095790900A57E091D5
:1047D0000B578E2F90E0FC01EE0FFF1FE80FF91F23
:1047E000E75EFF4B0180F281E02D848D958D881A64
:1047F000990A53E09522E0910957F0910A57A09148
:104800000B578A2F90E0DC01AA0FBB1FA80FB91F1E
:10481000A75EBF4B11960D90BC91A02D5E968D9119
:104820009C91E81BF90BF3702091095730910A57BE
:10483000A0910B578A2F90E0DC01AA0FBB1FA80F95
:10484000B91FA75EBF4B11960D90BC91A02D9096FD
:104850008D919C91281B390BD901B370AF83B88718
:10486000880C991C8401075F104B4801D8016D9199
:104870007C91EE0FFF1FE75FF04B408151812224B6
:1048800057029001469F800156033209100D211DE9
:10489000321D74033209100D211D321D112428010F
:1048A0003901E0910140F0910240A0910B5718E0CE
:1048B000A19FD0011124AE0FBF1FA850BF4FAC90D5
:1048C0001196BC90119712962C90129713963C90CB
:1048D000139714960C911497098715961C911597A8
:1048E0001A8716960C91169717961C9117977301B5
:1048F0006201FF0CCC08DC2C76019201A3016C2D27
:104900007C2D8C2D9C2D6101E984FA840E94424407
:104910002C9311963C93119712964C9312971396E1
:104920005C93139714966C93149715967C93159734
:1049300016968C93169717969C93D4016D917C9143
:10494000AF81B885AA0FBB1FA75FB04B4D915C919B
:10495000222457029001469F800156033209100D10
:10496000211D321D74033209100D211D321D112429
:1049700048015901A0910B5718E0A19FD0011124C3
:10498000AE0FBF1FA059BE4F2C9011963C901197AF
:104990001296CC9012971396DC9013971496EC9085
:1049A00014971596FC90159716960C9116971796D6
:1049B0001C91179724013501770C4408542C3201BF
:1049C0009401A501642D742D842D942D51010E9414
:1049D00042442C9311963C93119712964C93129744
:1049E00013965C93139714966C93149715967C9377
:1049F000159716968C93169717969C93A0910B5724
:104A000080910B572A2F30E0D901AA0FBB1FA20FAC
:104A1000B31FA75EBF4B11962D913C9190E0DC0136
:104A2000AA0FBB1FA80FB91FA75EBF4B11968D9190
:104A30009C91D90112962D913C91DC0114968D9197
:104A40009C912817390709F403C180900957909069
:104A50000A57A0910B578A2F90E0DC01AA0FBB1FC9
:104A6000A80FB91FA75EBF4B11960D90BC91A02D4A
:104A7000D4968D919C91881A990AB3E09B2220913B
:104A8000095730910A5780910B5790E0DC01AA0F2B
:104A9000BB1FA80FB91FA75EBF4B11960D90BC910D
:104AA000A02DD6968D919C91D901A81BB90BBD0163
:104AB00073704091095750910A5780910B57282FD6
:104AC00030E0C901880F991F820F931F875E9F4BAB
:104AD000DC0111968D919C91DC01D8968D919C9171
:104AE000481B590BDA01B370AF83B887880C991C47
:104AF0008401075F104B4801D8018D919C91DB0127
:104B0000AA0FBB1FA75FB04B4D915C91BC01222443
:104B100057029001469F800156033209100D211D56
:104B2000321D74033209100D211D321D112428017C
:104B30003901A0910B5778E0A79FD0011124AE0F47
:104B4000BF1FA851BE4FAC901196BC901197129602
:104B50002C90129713963C90139714960C911497DF
:104B6000098715961C9115971A8716960C9116971A
:104B700017961C91179779016201FF0CCC08DC2C69
:104B800076019201A3016C2D7C2D8C2D9C2D610151
:104B9000E984FA840E9442442C9311963C93119725
:104BA00012964C93129713965C93139714966C93EA
:104BB000149715967C93159716968C9316971796BF
:104BC0009C93D4016D917C91AF81B885AA0FBB1FD6
:104BD000A75FB04B4D915C91222457029001469FF4
:104BE000800156033209100D211D321D7403320954
:104BF000100D211D321D11242801390180910B5700
:104C000018E0819FC0011124E80FF91FE05AFD4F01
:104C1000B081A181C280D380E480F58006811781B4
:104C200053014201BB0C8808982C54019201A30146
:104C3000682D782D882D982DAB2EBA2E0E944244D7
:104C40002083318342835383648375838683978370
:104C500080910B578F5F80930B57809109579091EC
:104C60000A5701968093095790930A5790910B57D2
:104C700080911F57981788F010920B57E0910140D0
:104C8000F091024080819181A281B3810196A11DA2
:104C9000B11D80839183A283B38380910957909142
:104CA0000A5793708093095790930A572A96CDBF5D
:104CB000DEBFDF91CF91FF91EF91BF91AF919F91B7
:104CC0008F917F916F915F914F913F912F911F91A4
:104CD0000F91FF90EF90DF90CF90BF90AF909F909B
:104CE0008F907F906F905F904F903F902F900F909C
:104CF0000BBE0F900FBE0F901F9018958091014F23
:104D00009091024F51CD1F920F920FB60F92112426
:104D10000BB60F922F933F934F935F936F937F93B5
:104D20008F939F93AF93BF93EF93FF938EE59EE591
:104D30000E949219FF91EF91BF91AF919F918F9136
:104D40007F916F915F914F913F912F910F900BBE8B
:104D50000F900FBE0F901F9018951F920F920FB6D5
:104D60000F9211240BB60F922F933F934F935F93A3
:104D70006F937F938F939F93AF93BF93EF93FF9323
:104D80008AE79FE50E949219FF91EF91BF91AF9141
:104D90009F918F917F916F915F914F913F912F9153
:104DA0000F900BBE0F900FBE0F901F901895EF92B3
:104DB000FF920F931F93CF93DF9300D0CDB7DEB751
:104DC0001092AB571092AC5788EE93E0A0E0B0E0A1
:104DD0008093AD579093AE57A093AF57B093B05711
:104DE00080ED90E48093A9579093AA5780E698E0CD
:104DF0008093B5579093B6578FE392E28093B7575D
:104E00009093B85782E08093B9571092BA57109296
:104E1000BB5780E090E0A8ECB2E48093E95D90930A
:104E2000EA5DA093EB5DB093EC5D1092FC5D109297
:104E3000FD5D8093FF5D9093005EA093015EB09353
:104E4000025E1092125E1092135E8093155E909334
:104E5000165EA093175EB093185E1092285E1092B3
:104E6000295EECEEFCE581839283A383B483148AEC
:104E700075962DE5E83EF207B1F788E798E5FC0165
:104E8000E25AFF4F1082815A9F4F4CE58C3E9407A7
:104E9000B1F7E8E4F8E524E130E092E081E0208336
:104EA00031839283138214821582168217821086B0
:104EB000118682871386709648E5E837F40779F7FC
:104EC00010924458109245581092465880E090E154
:104ED000809342589093435880E091E080934058EB
:104EE000909341588EEF90E080934C5E90934D5E8E
:104EF0008DE190E08093485E9093495E8DE090E074
:104F00008093465E9093475E84E890E080934E5E87
:104F100090934F5E8DEF91E08093505E9093515E41
:104F200010924A5E10924B5E04E810E009831A83E7
:104F3000CE0101960E94FC1578019DE1E90EF11C5D
:104F40008F3F09F4B6C000934A5E10934B5E2DEF7D
:104F5000E21621E0F2065CF4E982FA82CE010196C3
:104F60000E94FC158F3F09F4A0C00E94AE1610925B
:104F7000705F1092715F48EE53E060E070E0409324
:104F8000725F5093735F6093745F7093755F8AEE86
:104F900090E480936E5F90936F5F20E039E0209300
:104FA0007A5F30937B5F1092545E1092555E40930F
:104FB000565E5093575E6093585E7093595E80932F
:104FC000525E9093535E80E299E080935E5E909390
:104FD0005F5E1092D9601092DA601092E3601092D6
:104FE000E4601092E5601092E6601092E76081E064
:104FF0008093E8602CEF30E42093D7603093D86042
:105000009AE09093D2609BE09093D3609CE0909361
:10501000D4609DE09093D5601092D6609BE290930F
:105020008A6092ED90938B609BE190938C601092DC
:105030008D6099E190938E604AE959E96AEC72E4D7
:1050400040938F60509390606093916070939260F2
:1050500040E050E068E472E44093936050939460C1
:1050600060939560709396604DEC5CEC6CE171E43C
:105070004093C7605093C8606093C9607093CA60E2
:105080008093CB6084E690E08093CC609093CD6079
:105090001092CE601092CF600F900F90DF91CF9161
:1050A0001F910F91FF90EF9008954DE1E40EF11CD8
:1050B0004ECF87018DEFE81681E0F80609F036CF74
:1050C00056CFCF93DF93CDB7DEB7CA57D109CDBF47
:1050D000DEBF88ED21E030E084BF2093620091E0E4
:1050E00084BF909363009DE284BF9093800093E01F
:1050F00084BF9093600080E090E22091650020FDE5
:10510000FCC021E02093030A8EEF8093260A80934F
:10511000270A9BE09093000A32E03093E605209343
:10512000430A8093660A8093670A9093400A90939B
:10513000E705E0E0FBE027E09EEF85E02183948730
:10514000158680837096E0340BE0F007B9F72FEFF7
:105150003FE02093AA0B3093AB0B90E89093820B27
:105160001092810B2EEF30E02093AE0B3093AF0BFB
:1051700098ED24E194BF2093680091E19093800B17
:10518000809302069EE09093050690E690930306B6
:10519000809300068091B000887F85608093B00086
:1051A0008091B200887F85608093B2008FED9EE28F
:1051B00080932C0B90932D0B81E08093250B109204
:1051C000210B83E08093200B789484E0809341044A
:1051D00081E00E94971A40E052EC61E070E089EAB9
:1051E00097E50E940D1A0E94041C65E77AE189EA9E
:1051F00097E50E945A1B68EE73E080E090E00E9401
:105200002215E0915E5EF0915F5EE11519E0F10715
:1052100009F079C08091E5058C7F82608093E50577
:105220008091605E807641F5E11539E0F30709F081
:1052300077C08091E5058370823009F06DC08CE005
:10524000809346048091605E80628093605E81E01E
:10525000838385839091605E95FF21C096819C3603
:1052600079F0238113829CE6968390819D7F9083C1
:10527000238320FF05C085838091605E85FF0FC07A
:105280008681853161F09381138285E186838081F7
:105290008D7F8083938390FF02C081E0858310928D
:1052A000EA608CE38093E9601092DB601092DC602E
:1052B000EFE6FAE185919491E82EE1E7FAE1F490C6
:1052C000E2E7FAE1E491E093DD60E3E7FAE1E491FB
:1052D000E093DE60E4E7FAE1E491E093DF608C01C3
:1052E000802F8E198F1570F5F801649187ED90E687
:1052F0000E94F7160F5F1F4FF3CF019709F0FDCE05
:1053000083E00E94C014E03229E0F20709F088CF60
:105310008091E50588E082CF8CE08093060492CFEF
:10532000E03249E0F40709F08DCF8091E5058C70FB
:10533000883021F48CE08093260484CF8CE0809325
:10534000A60480CF0E946317E9E3F9E0E093E560EB
:10535000F093E660E491EAE3F9E0E49182E080937F
:10536000E0600E94631741E06FE087ED90E60E94E5
:10537000211762E371E487ED90E60E947F1DE5E866
:10538000F4E0E093E560F093E6608491E6E8F4E011
:10539000E491F82F319709F0F0C11092E06046E0F7
:1053A00068E287ED90E60E9421176AE371E487EDD9
:1053B00090E60E947F1D8091605E85FF0CC0E091A9
:1053C0005E5EF0915F5E86FF138216828091605E62
:1053D0008F7D8093605E8091605E86FF0FC0E0915C
:1053E0005E5EF0915F5E85FF1382148611861686DD
:1053F0008091605E8F7B8093605E11829FB7F8948E
:1054000084E08093220480913204877F8093320469
:105410009FBF9FB7F89488E0809322048091330463
:10542000877F809333049FBFE7E92E2EE0E63E2E70
:105430008FEA90E6F10100E010E020EA31E44DEC63
:105440005CEC6CE470E40193119321933193448BF1
:10545000558B668B778B8E179F07A9F780E090E0BE
:10546000A8ECB2E48093976090939860A0939960C1
:10547000B0939A6080E090E0A8E4B2E480939B60EF
:1054800090939C60A0939D60B0939E6080939F607A
:105490009093A060A093A160B093A26080E290E09E
:1054A0000E942B16882341F1CE0101960E9403161B
:1054B00009811A8117FD20C06801F3E0CF0ED11CCD
:1054C0007AE8E72E70E6F72E87E090E05C012FEF98
:1054D000A21AB20A8BAB9CABCE01C3960E94FC15FC
:1054E000D7018D937D01C501AC14BD0478F367E647
:1054F00074E00430110511F466E574E089EA97E57B
:105500000E945A1B0E94E31D80918D6081110E94B0
:1055100006208EE0809305068091030680930306A3
:105520001092B00086E08093020681E0809300062E
:10553000809100068093000687E08093080660E073
:1055400070E0CB0150E040E0E1E0E0930A062091FA
:105550000D0620FFFCCF4A30510544F02091100683
:1055600030911106620F731F811D911D4F5F5F4FB8
:105570004A31B7E25B0749F70E94D04020E030E4AF
:105580004CE156E40E94AA4220E030EF4FE755E498
:105590000E94AA429B01AC0166E676E686E69FE39E
:1055A0000E94AA426B017C016CE774E089EA97E5EE
:1055B0000E948B1444E050E0C701B6010E940A1D0E
:1055C00040918F6050919060609191607091926075
:1055D00081E00E94291240918F605091906060910B
:1055E00091607091926082E00E94291240918F60D8
:1055F00050919060609191607091926083E00E9400
:1056000029128090494090904A40A0904B40B09021
:105610004C408BAE9CAEADAEBEAE60914258709128
:10562000435890E080E00E94D0402B013C010CEEFA
:105630001CE520E0D10158968D909D90AD90BC90D6
:105640005B97F10161917191819191911F01F1E05D
:10565000F20FFFABD8012C9320E030E040E450E49F
:105660000E9431412BAD3CAD4DAD5EAD0E9431414C
:10567000A30192010E94AA42F8016183728383838D
:105680009483158286829782A086B18612861386BD
:105690001486158616860B5E1F4F2FA9263051F6ED
:1056A00061E081E00E945F1562E082E00E945F1588
:1056B00063E083E00E945F1561E084E00E945F1573
:1056C00062E085E00E945F1563E086E00E945F155E
:1056D00082E3809346408AE0809303406091C760F4
:1056E0007091C8608091C9609091CA600E948815CD
:1056F000C0924940D0924A40E0924B40F0924C40D8
:105700008091CB60809371588823D9F189E0809390
:10571000B3048091CC609091CD6080936858909351
:10572000695882E080936A5881E080937258C090F3
:105730004A5ED0904B5EC114D10409F46FC186015A
:105740000F5F1F4F6AE2E62E6EE5F62E8091485EEF
:105750009091495E8C0D9D1D08171907ACF4C80186
:10576000957189839A83CE0101960E94FC15D70119
:105770008D937D010F5F1F4FE9CF81E08093E06043
:105780000ECE1092B304C5CF40902A5E50902B5E8F
:1057900060902C5E70902D5E80902E5E90902F5EBB
:1057A000A090305EB090315EC090325ED090335E9B
:1057B000E090345EF090355E0091365E1091375E79
:1057C0002091385E3091395E40913A5E50913B5E57
:1057D00060913C5E70913D5E80913E5E90913F5E37
:1057E000A091405EB091415E8FAB98AFA9AFBAAFC8
:1057F0008091425E9091435EA091445EB091455E7F
:1058000040926FB7509270B7609271B7709272B752
:105810008092CE589092CF58A092D058B092D15842
:10582000C0922D59D0922E59E0922F59F0923059B2
:1058300000938C5910938D5920938E5930938F5922
:105840004093EB595093EC596093ED597093EE5996
:105850002FA838AC49AC5AAC20924A5A30924B5AD5
:1058600040924C5A50924D5A80934B5890934C58BA
:10587000A0934D58B0934E5885E18093185788E017
:1058800090E0809316579093175788EE91E080939D
:105890001D5790931E571092155790912157A6EDC2
:1058A000B8E580E041E02C91222309F44CC0682F38
:1058B00070E09B01220F331F260F371F275E3F4BDF
:1058C000F9015081BD016C5571095F3F99F4FB01ED
:1058D00000811181F801548951110CC08787448BD4
:1058E0005081E52FF0E0E75FFF4B5081F9015083D5
:1058F0008F5F9F5FFD01EA55F10920813181FB0136
:105900006081718126173707F1F0E82FF0E0BF01C1
:10591000660F771FE60FF71FBF01675E7F4BFB0126
:1059200050815F3F81F4F901548951110CC0878780
:10593000448B208130E0275F3F4BF90120818F5F4E
:10594000FB0120839F5FA15ABF4FFDE5AA34BF072B
:1059500009F0A9CF90932157809315579091145730
:105960004CEE5CE5A8E7B8E561E0FD01E25AFF4FC7
:105970002081222319F1E82FF0E09F01220F331F2D
:10598000E20FF31F8F01075E1F4BF80120812F3FAD
:10599000A9F42D913C911197F901748971110EC0F0
:1059A0008787648B208130E0245F3F4BF9012081A1
:1059B000F80120838F5FA183B2839F5FA15ABF4FFD
:1059C0004A175B0791F6809315579093145790915F
:1059D00044589923A9F0809347582091184091E0AA
:1059E000980F9093155790E0FC01EE0FFF1FE80F02
:1059F000F91FE75EFF4B20831092455810924658DE
:105A00008091155780931F5710E0809120571817E9
:105A1000E0F4812F0E94951F1F5FF7CF1FAA18AED9
:105A200019AE1AAE40E050E0BA0100E010E0980173
:105A3000C12CD12C7601812C912C5401412C512C5C
:105A4000320180E090E0DC01DBCE10911F5720E8AE
:105A500036E948E15BE46091054070910640809131
:105A60000740909108400E94314120E030E044EF2F
:105A700053E40E94AA420E94174369597140810968
:105A80009109212F30E050E040E00E941442209321
:105A90001057309311574093125750931357109249
:105AA000225781E08093044095E190930506909100
:105AB0000306909303061092B000909116579093AE
:105AC0000206809300069091000690930006909144
:105AD00000069260909300061092080690910C06C2
:105AE000916090930C0680930A06789410922F5739
:105AF00010923057109231571092325760E070E098
:105B000080E090E40E9488158E010D5C1F4F0DAB64
:105B10001EAB89EA97E50E94EB12892B09F4A3C01A
:105B200089EA97E50E94C912D09019578A3009F086
:105B300068C5AD2DB0E0A859B84A1C92E0916857ED
:105B4000EF53EC3308F087C00E2E000CFF0BE55529
:105B5000F24D0C943944E5322B2E2B2E2B2E2B2E6E
:105B60002B2E2B2E2B2E2B2E2B2E2B2E2B2E2B2E6D
:105B70002B2E2B2E2B2E2B2E2B2E2B2E2B2E2B2E5D
:105B80002B2E2B2E2B2E2B2E2B2E2B2E2B2E2B2E4D
:105B90002B2E2B2E2B2E2B2E2B2E2B2EE72D1E2E8F
:105BA000EF2E0C2F152F332F2B2E7531D72E442F80
:105BB0000C31143175312B2E8F312B2E9F31CE317C
:105BC0002B2E2B2EA532AB32BD322B2EC43212E03F
:105BD000D11241C089E697E50E94323F843041F1FD
:105BE000883041F1893041F58BE580938A6066EF1A
:105BF00071E289EA97E50E948B1480918A6061EBDB
:105C000071E08B3251F064E673E0863531F063E980
:105C100073E08B3511F070E060E089EA97E50E944F
:105C2000DE1B61EF71E289EA97E50E945A1B13C0FF
:105C30008BE2DBCF86E5D9CF80E0D7CF22E0D2124E
:105C40000AC089E697E50E94323F019709F0ACC08F
:105C500081E08093CE6080E4A8E6B7E51D928A9546
:105C6000E9F71092195780911C5790915158992338
:105C700089F0882379F081E0809353580E9453156E
:105C80006093545870935558809356589093575832
:105C900010921C5780911B5790916158992389F05D
:105CA000882379F081E0809363580E9453156093B4
:105CB0006458709365588093665890936758109213
:105CC0001B5780911A5790917158992389F0882316
:105CD00079F081E0809373580E9453156093745853
