:100200000C941F110C9451110C9451110C947F25D6
:100210000C9451110C9451110C9451110C945111D6
:100220000C943E260C9451110C9451110C945111C4
:100230000C9451110C9451110C9451110C945111B6
:100240000C9451110C9451110C94D62A0C94511108
:100250000C9451110C9451110C9451110C94511196
:100260000C9451110C9451110C945A260C94511168
:100270000C9451110C9451110C9451110C9487252C
:100280000C9451110C9451110C9451110C942C2676
:100290000C9451110C9451110C9451110C94511156
:1002A0000C9451110C9451110C94AC2A0C945111D2
:1002B0000C9451110C9451110C9451110C94511136
:1002C0000C9451110C9451110C9451110C94511126
:1002D0000C9451110C94A9250C94A3250C94AF25D2
:1002E0000C9451110C9451110C9451110C94511106
:1002F0000C9451114E414E494E495459494E46CDE8
:10030000CCCC3D0AD7233C17B7D13877CC2B3295CC
:1003100095E6241FB14F0A000020410000C84200AA
:10032000401C4620BCBE4CCA1B0E5AAEC59D74AEC6
:10033000D580A83FD300408D142002A1C8DA1281D5
:100340007FD9F1DB40A4A6AF4E6F20454550524FF8
:100350004D20636F6E666967004C6F616465642051
:10036000454550524F4D20636F6E66696700767247
:10037000656661203D20001E6C0D0E2060020103A9
:1003800008070A0801030305070104010406030620
:10039000060706060606060101060606060D0907FB
:1003A00008080707090701050807090709070908D9
:1003B000070707090D0809080204020508020606D6
:1003C00005060604060601020601090606060604DD
:1003D00005040607090607060301030707000000D6
:1003E00000FE141E001E0000009090F89690F896F3
:1003F00090001C00001C000000182422FF424284D0
:100400000810103C1008041C22221CC0308C4240F2
:10041000800000100C00000C10100C805C22629216
:100420000C80000C101010100C08101E00F00C02B4
:100430001C6080020CF080601C04140E1404000088
:10044000000000404040F84040400000000C000028
:100450000000708080808000000000001000C03824
:100460000618040000FC02020202FC0C101010101E
:100470000C0804FE00001C0C020282423C101814FE
:100480001010100C02222222DC0C101010100C8014
:1004900040300804FE0004040404041C043816124E
:1004A0001212E20C1010101804F844222222C40C7C
:1004B000101010100C020202E21A0600001C0000CC
:1004C00000DC22222222DC0C101010100C3C4242D4
:1004D0004222FC0810101008040810087040A0A068
:1004E0001010080000000404089090909090900074
:1004F0000000000000081010A0A040080404000044
:10050000000C028242221C000014000000E01804CB
:10051000C422121212A2720408F00C30404C9090C7
:1005200090889C90504C200080E09C829CE0800051
:10053000180400000000000418FE2222222222DCFF
:100540001C10101010100CF804020202020408041F
:1005500008101010100804FE020202020204F81C27
:1005600010101010100804FE2222222222221C1039
:100570001010101010FE2222222222021C00000065
:10058000000000F804020202424244C804081010AD
:100590001010100804FE2020202020FE1C00000067
:1005A00000001CFE1C00000000FE0C1010100CFED1
:1005B000804020508804021C00000000040810FE47
:1005C0000000000000001C101010101010FE0C3075
:1005D000C000C0300CFE1C000004180400001CFE0B
:1005E0000418608000FE1C00000004081CF80402CF
:1005F0000202020204F8040810101010100804FE91
:1006000042424242423C1C000000000000F804024A
:100610000202020204F8040810101014081C10FE54
:10062000424242C242423C1C000000000408101C2E
:1006300022222242428C0C10101010100C020202D6
:10064000FE0202020000001C000000FE000000008C
:1006500000FE040810101008040618608000806076
:1006600018060000000418040000000638C000C08E
:100670003C023CC000C03806000004180400000022
:100680000418040000020C906060900C02100C0032
:100690000000040C1002041820C0201804020000FE
:1006A00000001C0000000000028242221A06021014
:1006B00018141010101010FE02FC800638C0000044
:1006C00000041802FE80FC201C021C200000000018
:1006D000000000000000000000808080808080809A
:1006E00080020400001088484848F00C10101008E0
:1006F0001CFE10080808F01C081010100CF0080868
:1007000008100C10101008F008080810FE0C10104B
:1007100010081CF048484848700C101010100808C9
:10072000FC0A0A001C0000F008080810F84C909021
:1007300090887CFE10080808F01C000000001CFADD
:100740001C00FA807CFE8040A010081C0000000CF9
:1007500010FE1CF8100808F0100808F01C0000003B
:100760001C0000001CF810080808F01C0000000025
:100770001CF008080808F00C101010100CF81008F5
:100780000808F0FC081010100CF008080810F80C0D
:1007900010101008FCF81008081C00000030484831
:1007A0004890081010100C08FE0808001C1010F8E3
:1007B00000000000F80C101010081C186080008069
:1007C00060180000041804000018E000E018E000C1
:1007D000E0180004180400041804000830C0C030F9
:1007E00008100C00000C1018608000806018008059
:1007F0008C700C0000080888681808101814101075
:1008000010807C02007C80FEFC027C80807C0040AA
:1008100020206040402000000000000000FC040494
:10082000040404FC1C10101010101C697A15192007
:10083000600703070F0C16100207070B0F040703CE
:100840000A0C0A0C0B0D0C0C0C0C0D03040D0E0EF7
:100850000A14100D0F0F0C0B100E06080E0B100EC5
:10086000110C110E0D0F0D0F150E0D0E060A060EB2
:100870000F040B0C0B0C0C070C0B03060C02130BD8
:100880000C0C0C080A080B0C110C0C0B0B020B0FB8
:100890000000000000000000000000000000000058
:1008A0000000000000000000000000000038F8F820
:1008B000007F7F000C0C000000FCFC000000FCFC32
:1008C0000001000000010000000000000000000026
:1008D0000000000000000080808080F0B8808080F0
:1008E000F898808040606161F17F4341E1F97F6168
:1008F0006161010000000F030000080F010000000B
:1009000000000000000000000000000000000000E7
:100910000080C0E06060FC60606060E000070F1C69
:100920001818FF383030E0E080060E0C0C0CFF0C7D
:100930000C0607030100000000000000000000009A
:1009400000F0F8180C0C1CF8F000000000C0E038B3
:1009500008000000000000070F0C08080C0F07C07B
:10096000F03C0F0300F8F80C0C0C1CF8F000000031
:100970000000000C0F030000000000070F0C080C23
:100980000C07030000000000000000000000000051
:100990000000000000000000000060F8F80C0C0CE3
:1009A0000CF8F8600000000000C0F0F90F07060E18
:1009B0001B3171E0C0FC3C00000003070E0C0C0C66
:1009C0000C0C06070303070E0C00000000000000DB
:1009D000000000000000000000FCFC00010000001E
:1009E000000080E0781C0C04FCFF07000000000100
:1009F0000F3F78E0800000000000808080040C1C25
:100A000078E080000000000087FFFC0080E0783F75
:100A10000F008080800000000010302060C0FCC00B
:100A20006020301002020301011F010103020600D1
:100A300000000000000000000000000000000000B6
:100A4000000000000000000000000000E0E00000E6
:100A50000000000018181818181818FFFF181818A8
:100A6000181818000000000000000F0F0000000020
:100A70000000000000000000000000000000000076
:100A8000000000000000000000E0FC3E0E0000003E
:100A900000000000000000001818181818181800AE
:100AA0000000000000000000000000000000000046
:100AB0000000000E0E0E000000000000000000C04C
:100AC000F83C04000000C0F83F07000000E0781F79
:100AD000070000000000000000000000000000000F
:100AE00000C0F078180C0C0C1838F0E080FFFF0004
:100AF000000000000000E1FF3F0107070C0C0C0C98
:100B00000C0E0701000000000000000000000000C3
:100B10000000606070F8FC0000000000000000FFB2
:100B2000FF000000000C0C0C0C0F0F0C0C0C0C0048
:100B30000000000000000000000018180C0C0C1C45
:100B40001878F0E000000080C0E070381C0F07014A
:100B5000000E0F0F0D0C0C0C0C0C0C0C0C000000FC
:100B60000000000000000000000018181C0C0C0C15
:100B70001C38F8F000000000040E0E0E1BF9F00601
:100B80000E0C0C0C0C0C0C0E0703000000000000F7
:100B900000000000000000000080C06030F8F8F89D
:100BA000000070786E6763616060FFFFFF60600047
:100BB000000000000000000F0F0F00000000000008
:100BC00000000000000000000000F8F818181818D5
:100BD0001818181800000707060606060E0CFCF881
:100BE000E0060E0C0C0C0C0C0C0E070300000000B1
:100BF00000000000000000000080E0F0301818083D
:100C00000C0C0C0000FFFF0C06060606060EBCF8D6
:100C1000F00103070E0C0C0C0C0E07030100000082
:100C2000000000000000000000181818181818181C
:100C30001898F8783800000000C0F0781E0701000E
:100C40000000000C0F070100000000000000000081
:100C5000000000000000000000E0F0B81C0C0C0CCC
:100C60000C18F8F000F1F31F0E060C0C1C1EF3F12B
:100C7000C003070E0C0C08080C0C07030100000051
:100C800000000000000000000080E0F018180C0CCC
:100C90000C1838F0E0C0010F1F18383030301098B1
:100CA000FFFF0F00000C0C0C0C0C0E0603030000E1
:100CB00000000000000000000000000000808080B4
:100CC0000303030E0E0E000000008080800003036B
:100CD00003E0FC3E060000000000000000000000F1
:100CE0000000808080C01838386C6CC6C6C3838111
:100CF00001010000000000000000000101030306E4
:100D000000000000000000000000000000000000E3
:100D10000000000000000000000000C6C6C6C6C6F5
:100D2000C6C6C6C6C6C6C6C6C600000000000000CD
:100D300000000000000000000000000000000000B3
:100D40000000000000C0C080800000000000000023
:100D5000000000000001018383C3C6666C3C383884
:100D60001006030303010100000000000000000062
:100D70000000000000000000000000000018180C37
:100D80000C0C1C18F8F0E000000078780C0E07033B
:100D9000000000000C0C000000000000000000003B
:100DA00000000000000080C06030181888888C8C1B
:100DB0008C8888183070E080007CFF010000FCFF08
:100DC000830101010181FF00000000FF7C00030797
:100DD0000C18303123236363636123030202030190
:100DE0000000000000000000000000000000000003
:100DF00000000000000000000000C0F83838F8E0F3
:100E000080000000000000C0F87F6F6160606067D4
:100E10007FFCE00000080E0F03000000000000004F
:100E200000010F0F0C000000000000000000000097
:100E30000000000000F8F8F8181818181818B8F092
:100E4000E000FFFFFF0C0C0C0C0E0E0F1DF8F00F56
:100E50000F0F0C0C0C0C0C0C0E060703000000000E
:100E60000000000000000000000080E0F0381818CA
:100E70000C0C0C1C181838301EFFF380000000000A
:100E80000000000000000000000307070E0C0C0C1F
:100E90000C0C0C0E06060000000000000000000014
:100EA0000000000000F8F8F8181818181818183082
:100EB00070E0C000FFFFFF000000000000000080A5
:100EC000F3FF3F0F0F0F0C0C0C0C0C0E0607030367
:100ED0000000000000000000000000000000000012
:100EE00000F8F8F8181818181818181818FFFFFF45
:100EF0000606060606060606060F0F0F0C0C0C0C5F
:100F00000C0C0C0C0C0000000000000000000000A5
:100F100000F8F8F81818181818181818FFFFFF0C20
:100F20000C0C0C0C0C0C000F0F0F0000000000004C
:100F3000000000000000000000000000000080E051
:100F4000F0301818080C0C0C0C181838301EFFF371
:100F50008000000000001818181838F8F800000386
:100F600003070E0C0C0C0C0C0C0C0E0707000000F9
:100F700000000000000000000000000000F8F8F889
:100F80000000000000000000F8F8F8FFFFFF060670
:100F9000060606060606FFFFFF0F0F0F0000000003
:100FA000000000000F0F0F00000000000000000014
:100FB00000000000000808F8F808080000FFFF0023
:100FC000000C0C0F0F0C0C000000000000000008CB
:100FD0000808F8F8F80000000000FFFFFF0C0C0CF8
:100FE0000C0C0707010000000000000000F8F8F8F2
:100FF00000000080C0E07038180800FFFFFF1C1ED2
:101000001F7FF1E0C0000000000F0F0F0000000084
:10101000000103070E0C08000000000000000000A3
:101020000000000000F8F8F80000000000000000D8
:10103000FFFFFF00000000000000000F0F0F0C0C6E
:101040000C0C0C0C0C0C0000000000000000000058
:1010500000F8F8F878E0800000000080E07838F8C8
:10106000F8FFFFFF0001071E78703E07010000FF38
:10107000FF0F0F0F00000000000000000000000F35
:101080000F00000000000000000000000000000051
:1010900000F8F8F838F0C08000000000F8F8F8FF19
:1010A000FFFF0000030F3EF8E080FFFFFF0F0F0F70
:1010B00000000000000003070F0F0F0000000000F9
:1010C00000000000000000000000C0E0F038181828
:1010D0000C0C0C181838F0E080001EFFF3800000A4
:1010E0000000000000000080F3FF3E000003070640
:1010F0000E0C0C0C0C0C0E06070300000000000088
:1011000000000000000000000000000000F8F8F8F7
:1011100018181818183870E0C0FFFFFF10101818C2
:10112000181C0E07030F0F0F000000000000000046
:101130000000000000000000000000000000C0E00F
:10114000F03818180C0C0C181838F0E080001EFF4E
:10115000F38000000000000000000080E7FF1E0098
:10116000000307060E0C0C0C1C7CFEC6C783C0C017
:1011700000000000000000000000000000808080EF
:1011800000F8F8F818181818181878F0C00000FFC0
:10119000FFFF1818183878ECC7870100000F0F0FF1
:1011A00000000000000001030F0E08000000000016
:1011B000000000000000000000E0F038181C0C0CDB
:1011C0000C1C181818000307070E0C0C0C1C1C181C
:1011D00078F0E0060E0C0C0C0C0C0C0C0E07030146
:1011E00000000000000000000000000000181818B7
:1011F000181818F8F8F8181818181818000000002F
:101200000000FFFFFF0000000000000000000000E1
:10121000000F0F0F000000000000000000000000A1
:10122000000000000000000000F8F80000000000CE
:1012300000000000F8F8FFFFC00000000000000000
:1012400000FFFF0003070E0C0C0C0C0C0C07070131
:101250000000000000000000000000000038F8E07E
:101260008000000000000000C0F878080001073F7F
:10127000FCE00000C0F07E0F030000000000000151
:101280000F0F0E0F03000000000000000000000020
:1012900000000000000000000008F8F880000000D6
:1012A0000000F078F8F00000000000C0F8780000BE
:1012B0000F7FF88000F07F0700000FFFF000C0FCF8
:1012C0007F070000000000070F0F0700000000006C
:1012D000000F0F0F070000000000000000000000DA
:1012E00000000000000000000000000000001838AE
:1012F000F0E080000000C0E078381800000080E1D5
:10130000773F1E7FF3C0800000080C0F0301000030
:1013100000000003070E0C000000000000000000A9
:1013200000000000001878F0C08000000080E0F0AD
:1013300038080000000307FEFCFE07010000000063
:10134000000000000F0F0F00000000000000000070
:1013500000000000000000000000181818181818FD
:10136000181898F8F83818000080C0E0703C0E0794
:1013700003010000000C0E0F0D0C0C0C0C0C0C0CDF
:101380000C0C0C0000000000000000000000000039
:1013900000FCFC04040404FFFF00000000FFFF80C9
:1013A0008080808080808080800C3CF8C0000000BD
:1013B000000000000001073EF8C00000000000002F
:1013C000000000073F78C00000000000000000009F
:1013D0000004040404FCFC00000000FFFF80808087
:1013E00080FFFF808080808080000080C0E038180F
:1013F0003870E0800000000C0E07010000000000C3
:101400000003070E080000000000000000000000BC
:1014100000000000000000000000000000000000CC
:1014200000000000000000000000000000000000BC
:10143000000000000000000000000000000000C0EC
:10144000C0C0C0C0C0C0C0C0C0C0C0C0C0C000001C
:1014500000000000000000000000000000030F1C5E
:10146000100000000000000000000000000080806C
:10147000808080808080800080E1E13131311119ED
:1014800019FFFF03070F0C0C0C0C0C060F0F0000CC
:10149000000000000000000000FCFC0000808080D4
:1014A0008080000000FFFF030101010101038FFEA6
:1014B000F80F0F0E0C0C0C0C0C0E070300000000B4
:1014C000000000000000000000000000808080801C
:1014D00080808000F8FE8F030101010101010100FD
:1014E00003070E0C0C0C0C0C0C0400000000000098
:1014F000000000000000000080C0C0C0C08080FC70
:10150000FCF8FE8F03010000010103FFFF00030749
:101510000E0C0C0C0C06060F0F0000000000000063
:1015200000000000000000008080C0C0C08080007B
:101530000078FEFF333131303131333F3C00030757
:10154000060C0C0C0C0C0C0E060000000000000039
:10155000000000000080E0F8BC8C8C8C01FFFF01D3
:10156000010101000F0F000000000000000000005A
:101570000000000080808080808080000078FECFA6
:1015800003010101010103FFFE0003C7868E8C8C5D
:1015900086C6F77F0F00008080808080800000007A
:1015A00000FCFC000080808080808000FFFF03033F
:1015B0000101010103FFFE0F0F0000000000000009
:1015C0000F0F00000000000000000000009C9C00C5
:1015D000FFFF000F0F00000000008080809C9C0037
:1015E000010101FFFF808080C0FF7F80808080003C
:1015F00000FCFC00000000000080808000FFFFE095
:101600007078FCCE87030100000F0F00000000017E
:1016100003070E0C0800000000000000000000009E
:1016200000FCFCFFFF0F0F00008080000080808026
:10163000808000000080808080808000FFFF0303A6
:101640000101010107FFFF030101010103FFFF0F7A
:101650000F000000000000000F0F0000000000005D
:101660000F0F00000000000000000000000000005C
:10167000000000000080800000808080808080006A
:10168000FFFF03030101010103FFFE0F0F00000034
:10169000000000000F0F000000000000000000002C
:1016A0000000000080C0C0C0C080000000F8FE8FB5
:1016B00003010000010107FFFC0003070E1C1818BE
:1016C0001C0C0707010000000000000000000000E3
:1016D00000808000008080808080000000FFFF0389
:1016E0000101010101038FFE78FFFF0E0C0C0C0CB1
:1016F0000C060701008080000000000000000000D0
:101700000000000080808080808080808078FECF14
:1017100003010101010103FFFF0003070E0C0C0C84
:101720000C0607FFFF000000000000000000008022
:10173000808080000080808080FFFF07030101011E
:10174000010F0F000000000000000000000000007A
:101750000000008080808080808080001F3F3131C9
:10176000716161E1C3060E0C0C0C0C0C0C07070038
:1017700000000000000000000080F8F880808080F9
:101780008001FFFF01010101010003070F0C0C0C98
:101790000C0000000000000000808000000000003D
:1017A00000008080FFFF00000000000000FFFF033A
:1017B000070F0C0C0C0C06060F0F000000000000B9
:1017C0000000000000808000000000000000008099
:1017D0008001073FF8E00000C0F83E0F0100000064
:1017E00000070F0F070100000000000000000000CC
:1017F00000000000008080000000000000808000E9
:10180000000000008080011FFFF00080F83F070FFC
:101810007EF08080F87F070000000F0F0F010000AE
:101820000000030F0F070000000000000000000090
:101830000000000000000000008080800000000028
:1018400000008080800001038FDCF8F8FC8E070127
:1018500000080C0F0301000001030F0E0800000038
:101860000000000000000000008080000000000078
:10187000000000808001073FFCE08000E0F83E0FA0
:101880000100000080F37F1F07000000000000003F
:1018900080800000000000000080808080808080C8
:1018A00080808000010181C1E1711D0F0703000CE0
:1018B0000E0F0D0C0C0C0C0C0C0C000000000000AA
:1018C00000000000000000000000F8F80C0C040408
:1018D00030303078CE8703000000000000000003A5
:1018E0007FFEC080808000000000000000000080BB
:1018F00080FCFCFFFFFFFF808004040C0C3CF8E040
:1019000000000000000000000087CF5870303080D9
:101910008080C0F07F1F0000000000808000000079
:1019200000000000000000000000000000000000B7
:101930000000000060781C0606060C18306060602D
:10194000603E1E00000000000000000000000000DB
:101950000000000000000000000000000000000087
:10196000002F03198040005374617274696E672000
:10197000656D6F6E506932204F4C45440070686150
:10198000736500766F6C74616765203D2000656D3E
:101990006F6E506932006861726477617265203DD4
:1019A000200076657273696F6E203D200066697253
:1019B0006D77617265203D20656D6F6E5F44425F9B
:1019C000364354004C6F77506F7765724C61627389
:1019D000002C207266466F726D6174203D20002CD1
:1019E000207266506F776572203D20002C20726651
:1019F0004E6F6465203D2000204D487A2C20726691
:101A000047726F7570203D20005246203D206F6E5A
:101A10002C20726642616E64203D20005246203DBB
:101A2000206F6666006A736F6E203D206F666600E9
:101A30006A736F6E203D206F6E00646174616C6F1D
:101A400067203D20002C20694C656164006943617A
:101A50006C007643616C203D20006D73002C20707B
:101A6000756C7365506572696F64203D20006F6608
:101A7000660070756C7365203D200000030C0F300C
:101A8000333C3FC0C3CCCFF0F3FCFF0A00202868F2
:101A9000696464656E292E00206279746573002C78
:101AA00020446174612073697A653A20002053698B
:101AB000676E61747572653A20004E6F20646174C0
:101AC0006120626C6F636B20666F756E64202D20E1
:101AD000454550524F4D206170706561727320749E
:101AE0006F20626520666F726D6174746564207426
:101AF0006F204F454D205374616E646172642062A3
:101B0000757420756E757365642E000A0020627905
:101B10007465732C206E6F7420666F726D617474BF
:101B2000656420746F204F454D205374616E64616D
:101B300072640053697A653A2000446F6E652E2006
:101B40004E657720636F6E666967207361766564A2
:101B500020746F20454550524F4D00536176696E99
:101B6000672E2E2E00536B657463682077696C6C4A
:101B7000206E6F772072657374617274207573695B
:101B80006E672064656661756C7420636F6E66694C
:101B9000672E00526573657474696E672E2E2E0071
:101BA00020000A417661696C61626C6520636F6D2B
:101BB0006D616E64733A0A6C09092D206C69737447
:101BC000207468652073657474696E67730A72099E
:101BD000092D20726573746F726520736B65746371
:101BE000682064656661756C74730A7309092D2039
:101BF000736176652073657474696E677320746FA2
:101C000020454550524F4D0A7609092D2073686FC3
:101C100077206669726D7761726520766572736987
:101C20006F6E0A7A09092D207A65726F20656E65DC
:101C30007267792076616C7565730A7809092D20C1
:101C4000657869742C206C6F636B20616E6420630F
:101C50006F6E74696E75650A3F09092D2073686F90
:101C6000772074686973207465787420616761698E
:101C70006E0A0A623C6E3E09092D2073657420725B
:101C80002E662E2062616E64206E203D20612073DE
:101C9000696E676C65206E756D6572616C3A203493
:101CA000203D203433334D487A2C2038203D2038D5
:101CB00036384D487A2C2039203D203931354D4871
:101CC0007A20286D61792072657175697265206866
:101CD00061726477617265206368616E6765290A65
:101CE000703C6E6E3E09092D207365742074686522
:101CF00020722E662E20706F7765722E206E6E20F9
:101D00002D20616E20696E74656765722030202D0C
:101D100020333120726570726573656E74696E6709
:101D2000202D31382064426D20746F202B313320F8
:101D300064426D2E2044656661756C743A203235BC
:101D400020282B372064426D290A673C6E6E6E3E58
:101D5000092D20736574204E6574776F726B204770
:101D6000726F757020206E6E6E202D20616E20695E
:101D70006E746567657220284F454D206465666105
:101D8000756C74203D20323130290A6E3C6E6E3EF7
:101D900009092D20736574206E6F64652049442005
:101DA0006E3D20616E20696E7465676572202873D0
:101DB00074616E64617264206E6F6465206964731F
:101DC0002061726520312E2E3630290A0A643C7853
:101DD000782E783E092D2078782E78203D206120BD
:101DE000666C6F6174696E6720706F696E74206EC7
:101DF000756D62657220666F72207468652064611B
:101E000074616C6F6767696E6720706572696F6473
:101E10000A633C6E3E09092D206E203D203020666D
:101E20006F72204F46462C206E203D203120666F79
:101E300072204F4E2C20656E61626C6520766F6C4F
:101E4000746167652C2063757272656E742026203C
:101E5000706F77657220666163746F722076616C53
:101E600075657320746F2073657269616C206F757E
:101E70007470757420666F722063616C6962726140
:101E800074696F6E2E200A6A3C6E3E09092D20741B
:101E900075726E204A534F4E2053657269616C20F3
:101EA000666F726D6174206F6E20283129206F7209
:101EB000206F6666202830292E0A663C78783E0915
:101EC000092D207878203D20746865206C696E6546
:101ED000206672657175656E637920696E20487A37
:101EE0003A206E6F726D616C6C79206569746865FB
:101EF00072203530206F722036300A6B3C783E20DD
:101F00003C79792E793E203C7A7A2E7A3E0A09096C
:101F10002D2043616C69627261746520616E20617D
:101F20006E616C6F67756520696E7075742063688B
:101F3000616E6E656C3A0A0909202078203D2061A7
:101F40002073696E676C65206E756D6572616C3AA1
:101F50002030203D20766F6C746167652063616C72
:101F60006962726174696F6E2C2031203D20637448
:101F7000312063616C6962726174696F6E2C20320A
:101F8000203D206374322063616C69627261746900
:101F90006F6E2C206574630A0909202079792E79E7
:101FA000203D206120666C6F6174696E6720706FE0
:101FB000696E74206E756D62657220666F72207432
:101FC000686520766F6C746167652F6375727265E2
:101FD0006E742063616C6962726174696F6E2063F4
:101FE0006F6E7374616E740A090920207A7A2E7AF2
:101FF000203D206120666C6F6174696E6720706F90
:10200000696E74206E756D62657220666F722074E1
:1020100068652070686173652063616C69627261D4
:1020200074696F6E20666F72207468697320632E06
:10203000742E20287A206973206E6F74206E656577
:102040006465642C206F722069676E6F726564200E
:10205000696620737570706C6965642C207768659B
:102060006E2078203D2030290A09092020652E673E
:102070002E206B30203235362E380A0909202020D8
:10208000202020206B312039302E3920322E303064
:102090000A6D3C783E203C79793E092D206D6574AF
:1020A00065722070756C736520636F756E74696EF0
:1020B000673A0A090920202078203D203020666FE9
:1020C00072204F46462C2078203D203120666F72CA
:1020D000204F4E2C203C79793E203D20616E2069B6
:1020E0006E746567657220666F7220746865207013
:1020F000756C7365206D696E696D756D20706572A4
:10210000696F6420696E206D732E202879206973B1
:10211000206E6F74206E65656465642C206F72207C
:1021200069676E6F726564207768656E2078203D00
:102130002030290A00456E657267792076616C75DA
:1021400065732073657420746F207A65726F004325
:102150006F6E74696E75696E672E2E2E0052616403
:10216000696F2069732068616E646C6564206279B0
:1021700020746865205069206F6E20746865206542
:102180006D6F6E506932007266506F776572203DD8
:10219000200072664E6F6465203D20002C20694C43
:1021A000656164006943616C007643616C203D2089
:1021B00000726647726F7570203D2000667265710F
:1021C000203D2000646174616C6F67203D20006ACF
:1021D000736F6E203D206F6666006A736F6E203DE0
:1021E000206F6E00204D487A00726642616E642056
:1021F0003D20002C7066002C49002C70756C7365B6
:102200003A002C45002C50002C56004D53473A0004
:102210007D002C2270756C7365223A002C224500DB
:102220002C2250002C2256007B224D5347223A008C
:102230000A0000080A400CFFC000C000002B112457
:102240001FBECFEFCDBFDFE7DEBF80E3809301107D
:1022500088ED90EB84BF9093011011E4A0E0B0E40E
:10226000E8EFF7E800E00BBF02C007900D92A23440
:10227000B107D9F720E6A2E4B1E401C01D92AC3D5C
:10228000B207E1F711E1CFE1D1E104C02197FE01EE
:102290000E94CA43CE31D107C9F70E948A2C0C9400
:1022A000FA430C9400018091C1608D3011F42D9A95
:1022B0000895873011F40F9A0895813109F44B9AEB
:1022C000089500009091C560911109C08093440960
:1022D0008091430987FFFCCF809144090895809342
:1022E00064098091630987FFFCCF80916409089598
:1022F0008091C1608D3011F42D980895873011F4CC
:102300000F980895813109F44B980895CF93DF9386
:10231000D82FC62FEDDF8D2F8068D3DF8C2FD1DF34
:10232000DF91CF91C0CFCF93C82FE2DF8C2FC9DFD1
:1023300080E0C7DFC82FB7DF8C2FCF910895E091E1
:10234000685FF091695F8581837009F442C0838181
:1023500080FF3FC050916C5F5E7F30E020E090E0F6
:102360004581842F83702F5F3F4F213C6DE53607F9
:1023700040F0823041F1813041F184E093E0948378
:10238000089543FF04C088E0858382E1F7CF813060
:1023900021F4578330E020E0E3CF823009F746FF95
:1023A000DFCF44FF04C0992349F383E0E7CF809156
:1023B0006D5F981760F4A92FB0E0AB58B04A8C91CC
:1023C00080879F5FE7CF85E0D9CF81E1D7CF80E0DD
:1023D000D5CF80E10895CF92DF92EF92FF92CF9315
:1023E000DF936A01815096E1899FE0011124C35275
:1023F000D24A888323EA33E240E051E4CB01B601BC
:102400000E94C2402091494030914A4040914B4047
:1024100050914C400E94C2406B017C016091375842
:102420007091385890E080E00E9461409B01AC01BF
:10243000C701B6010E943B4269837A838B839C83E8
:102440001D828AE097EDA3E2BEE38E839F83A88777
:10245000B9871A861B861C861D861E86DF91CF9142
:10246000FF90EF90DF90CF900895079A20E533EC2E
:1024700093E0179A44E1F9013197F1F74150D9F708
:10248000482F179AF9013197F1F7179A59E0F90196
:102490003197F1F75150D9F7415099F7915049F7D9
:1024A000E7CF9FB7F894E0912A0BF0912B0B809126
:1024B000260B2091565730915757409158575091BD
:1024C00059579FBF80FF08C0CF018827892B21F46F
:1024D0002F5F3F4F4F4F5F4F0F0116940794169495
:1024E00007941694079416940794F0011694079491
:1024F000E00DF11D16940794102C169401181694F3
:10250000010C169401181694010C169401181694D7
:102510001694010C1124E019F109A8EEB3E00E9411
:1025200095416E0F7F1F811D911D0895CF92DF92FF
:10253000EF92FF92CF93DF936B017C01B2DFEB014F
:10254000C114D104E104F10471F0ABDF6C1B7D0B0D
:10255000683E7340A8F381E0C81AD108E108F10889
:10256000C851DC4FEDCFDF91CF91FF90EF90DF901E
:10257000CF9008952FB7F8946091565770915757A0
:1025800080915857909159572FBF0895CF92DF925D
:10259000EF92FF92CF939091A1579817E9F0C82F2F
:1025A00081E0C1DE837E682F6C2B81E0AFDEE2DF4D
:1025B0006B017C018091A157811114C087E2B3DEC9
:1025C00087FD10C0D7DF6C197D098E099F0964361D
:1025D00071058105910570F3CF91FF90EF90DF9029
:1025E000CF900895C093A157F7CF0F931F93CF9328
:1025F000DF93EC0184E0CADF2097D9F0888188233B
:10260000C1F076DE8EEB5DDE8E01005F1F4F89919B
:1026100058DEC017D107D9F746DEC1E08DE383DE6F
:102620008E7F682F6C2B8DE3DF91CF911F910F91DF
:102630006DCEC0E0F3CF1092605710925E571092AB
:102640005F5710925C5710925D5710925B57109233
:102650005A5788E268DE82FF06C08DE364DE682F89
:1026600064608DE353DE80E191CFAF92BF92CF9251
:10267000DF92EF92FF920F931F93CF93DF936C0142
:102680007B018B01040F151FEB015E01AE18BF0823
:10269000C017D10759F06991D601ED91FC910190D5
:1026A000F081E02DC6010995892B79F7C501DF91ED
:1026B000CF911F910F91FF90EF90DF90CF90BF903F
:1026C000AF900895FC0151894289252F30E0842F75
:1026D00090E0821B930B541710F0CF96089501974A
:1026E0000895FC0197858089981761F0A089AE0F45
:1026F000BF2FB11D53968C9190899F5F9F73908BD4
:1027000090E008958FEF9FEF0895FC0197858089F1
:10271000981731F08089E80FF11D838990E00895C2
:102720008FEF9FEF0895FC0197852089892F90E016
:10273000805C9F4F821B91098F7399270895FC013C
:102740000FB607FE04C0809111018823A9F0A0856F
:10275000B18514968C91149785FF0EC0918982895A
:10276000981307C015968C9115978F7D15968C93AD
:102770000895E8940C94BC2508950F931F93CF936C
:10278000DF93EC018E8581608E8799898A89981301
:102790000BC0E885F985848185FF06C08E8581FDA3
:1027A0000DC080E4848312C0062F19891F5F1F7338
:1027B0008A89811315C0CE01C2DFFACF85818F7758
:1027C000806490E49483E885F9858583E885F985BC
:1027D000628381E090E0DF91CF911F910F91089586
:1027E000E989EC0FFD2FF11DED5AFF4F0083198B86
:1027F0008E85E885F98581FF09C085818F778066A0
:1028000090E49483E885F9858583E3CF85818062B0
:10281000FBCFEF92FF920F931F93CF93DF938C0127
:102820007B01D0E0C0E0F701EC0FFD1F649166234F
:1028300031F0C801A2DF892B11F02196F4CFCE012F
:10284000DF91CF911F910F91FF90EF90089595CF59
:10285000CF93DF93EC018E85882359F0E885F985C5
:10286000858185FD03C0848186FD03C0CE0167DFBD
:10287000F5CFDF91CF9108958150909115572FE5B5
:10288000929FF0011124E359F74A45E1849F90019A
:1028900011242F51334A20833183615026E1629FF6
:1028A000B00111246352724A628373836483758317
:1028B000E25AFF4F21E02083E82FF0E0E85EF84A7B
:1028C00090839F5F9093155708958F929F92AF9238
:1028D000BF92CF92DF92EF92FF920F93CF936B0153
:1028E0007C0120E030E040E05FE30E945D4087FF34
:1028F00005C0C12CD12CE12C8FE3F82EC0921140E1
:10290000D0921240E0921340F092144080901257FF
:1029100090901357C091145720E836E948E15BE4E2
:10292000C701B6010E94C2406B017C01B12CA12CF1
:10293000C501B4010E9461409B01AC01C701B60111
:102940000E943B420E94A8426B017C0160E876E94C
:1029500088E990E0A50194010E94A541CA01B9014E
:1029600000914640202F30E050E040E00E94A54119
:1029700044275527C701B601621B730B840B950BC7
:102980002C2F30E050E040E00E94A5412093FD4E06
:102990003093FE4E4093FF4E5093004FCF910F91D6
:1029A000FF90EF90DF90CF90BF90AF909F908F906F
:1029B0000895DC01ED91FC91F170FC5E8081089539
:1029C000CF92DF92EF92FF920F931F93CF93DF93FB
:1029D00000D0CDB7DEB76C017C0103E010E00983C5
:1029E0001A83CE010196E5DFF70181937F010F5F26
:1029F0001F4F0730110599F7C6010F900F90DF9117
:102A0000CF911F910F91FF90EF90DF90CF9008959D
:102A10000F931F93CF93DF9300D000D0CDB7DEB7D5
:102A20008C0119821A82CE010196C3DF8F34F9F42A
:102A300081E090E089839A83CE010196BADF8534E4
:102A4000B1F482E090E089839A83CE010196B1DFF0
:102A50008D3469F481E00115110551F0CE01019624
:102A6000AFDF81E02B813C812017310709F080E046
:102A70002496CDBFDEBFDF91CF911F910F910895B6
:102A80001F93CF93DF93EC01162F93DF8117B1F0E3
:102A90009FB780910210282F227081FDFACFF89401
:102AA0008DE984BF2093001023E184BF20930010A0
:102AB000E881F981F170FC5E10839FBFCE01DF9148
:102AC000CF911F910895CF92DF92EF92FF920F93D3
:102AD0001F93CF93DF9300D0CDB7DEB76C017C019D
:102AE00003E010E009831A83F70161917F01CE01B1
:102AF0000196C6DF0F5F1F4F0730110599F7C6011A
:102B00000F900F90DF91CF911F910F91FF90EF9059
:102B1000DF90CF9008950F931F93CF93DF9300D052
:102B2000CDB7DEB70091435E1091445E8091455E63
:102B30009091465E081719079CF4C8019571898326
:102B40009A836FEFCE0101969BDF10923F5E109249
:102B5000405E80913D5E90913E5E080F191FE6CF6A
:102B60000F900F90DF91CF911F910F910895CF9308
:102B7000DF93EC018D85882329F081508D87DF91CB
:102B8000CF9108959C818E819817C8F7888968270E
:102B9000E881F9810084F185E02D42E0CE010995BC
:102BA0008C818F5F8C83EBCFDC01ED91FC910084F5
:102BB000F185E02D40E009940F931F93CF938C0192
:102BC000FC016483C085C60F6C2F6F70EDDF6C2F26
:102BD00062956F706061C801CF911F910F91E4CF32
:102BE000FC012781269526952695621730F465838A
:102BF0002385620F6770606BD7CF08951F93CF93C3
:102C0000DF93EC01142F8E81681710F4CE01D4DF0E
:102C1000612FCE01DF91CF911F91E2CFCF92DF9252
:102C2000EF92FF920F931F93CF93DF93EC01F62E59
:102C3000C42ED22E1D868F8186958695869508177F
:102C400010F00FEF080F1D2D011770F0412F6F2DA1
:102C5000CE01D4DFEF2CCE1428F06889CE0187DFB7
:102C6000E394F9CF1F5FF0CF4D2D6F2DCE01DF9193
:102C7000CF911F910F91FF90EF90DF90CF90BECF3B
:102C80000F93CF93DF93C6ECD0E61B861A8660E4E1
:102C9000CE018ADF0F8106950695069501504E817B
:102CA000415020E060E0CE01B9DFDF91CF910F917C
:102CB00008952F923F924F925F926F927F928F92E0
:102CC0009F92AF92BF92CF92DF92EF92FF920F93BB
:102CD0001F93CF93DF93CDB7DEB72797CDBFDEBF6E
:102CE0008E839F83DC011E968D919C91009709F441
:102CF00072C1FC013296549031962491E22EF12C4F
:102D0000B7E0EB0EF11C43E0F594E7944A95E1F748
:102D1000E98231963491319644916D3011F5EE810E
:102D2000FF818681811118C081E090E02796CDBF98
:102D3000DEBFDF91CF911F910F91FF90EF90DF9059
:102D4000CF90BF90AF909F908F907F906F905F904B
:102D50004F903F902F90089560E08E819F812CDFEF
:102D6000E3CF6A3009F063C0AE81BF8116968C91C3
:102D70001697882319F060E0CD011EDFEE81FF81F8
:102D800001890E9DE02C112465816E0D84858823B8
:102D900049F027812695269526958E2D821B860F34
:102DA000181624F08E819F811BDFBECFAE81BF81BC
:102DB0001B969C911B97890F87701B968C931B9772
:102DC0002E1915962C9315971E96ED91FC91309720
:102DD00061F13396E491F0E0379633E0F595E795AD
:102DE0003A95E1F70E9F002D1124EFEFE20F0E0F41
:102DF000EE81FF81468141506481CF010FDFAE81BA
:102E0000BF811C968C911C97813009F08DCF1B9649
:102E10006C911B97660F660F660F6F731A966C9313
:102E20001A976064CD01C0DE7FCF00E0DECF63176C
:102E300060F1A32FA40FBB27BB1F6A171B062CF53D
:102E4000631B212C8C010A5F1F4FEE81FF8151858E
:102E50003189539F302D11243D83211014C0FC0172
:102E600034910196FC018491932F0297A0F45E9C0B
:102E700090015F9C300D1124629FC001639F900DF3
:102E80001124080F191F612C28C0603209F0A3C05B
:102E900022242394D7CF277088E0682E621A21114C
:102EA00001C0612CF80120E090E080E0621731F071
:102EB0003491830F911D2F5F3196F8CFF801E60F03
:102EC000F11D5490E89EF001E99EF00DF89EF00D82
:102ED0001124E40FF11D0E0F1F1FAE81BF81149648
:102EE000BC91BA83EE81FF81F581FB83AE81BF8106
:102EF0001D96BC91BC83852C912CAA24A394B12C43
:102F0000312CE9813E1608F064C0412CAE81BF81AE
:102F100051968C915197481608F054C0EC811D963B
:102F2000EC93311002C0442049F0AE81BF81159668
:102F30004C9115974F5F6A81CD0160DED12CC12C79
:102F4000C514A0F5712C211004C0F801EC0DFD1D75
:102F50007490662061F0EA14FB0449F4E72DF0E078
:102F6000062C02C0F595E7950A94E2F77E2EEE81D5
:102F7000FF818189823071F44420A1F072948FE046
:102F80007822E72DF0E0E558F54E7490672D8E819C
:102F90009F81EDDD672D8E819F81E9DD3FEFC31AB3
:102FA000D30ACECFF72DFF707F2EEBCFD12C8D81A2
:102FB000D81631F060E08E819F81D9DDD394F7CFB0
:102FC0004394A4CF3394AFEFAA1ABA0A080D191D7F
:102FD00098CF6B81E7CE90E080E0A8CE8091FB4E49
:102FE000882329F0813120F080518093FB4E089591
:102FF0008093500080E0F9CF1F93CF93DF93EC01D3
:10300000E881F981838586FF47C080FF35C015853B
:1030100081FF25C08E81882341F0E0DFEB85FC85B0
:10302000309719F08E8190E009951C831D821886D7
:10303000E985FA85309709F009958D81882399F003
:1030400083E09091FB4E992381F0905F9093FB4E2B
:10305000E881F9818287DF91CF911F9108951C83C8
:103060001E821F82EDCF86E0ECCF90915000292F79
:10307000217020935000EACFB1DFEB85FC853097BB
:1030800029F08E81882311F090E009951E821D821F
:103090001F82188682E0DCCF87FF31C081FF1EC00F
:1030A000887139F08A8183FF04C01D82877F8A83FB
:1030B000F1CF8B818F5F8B838A8188608A83A8851B
:1030C0008D81A81738F7AC0FBD2FB11D1D968C91BF
:1030D000858788858F5F888783E0BACF8585EE8175
:1030E000E23868F4EC0FFD2FF11DE157FF4F8083AC
:1030F0008E818F5F8E83823878F386E0A9CF80E05F
:10310000A7CFDC011896ED91FC9193818185138204
:103110001186938391E09583818708959C012956B8
:103120003F4FDC011F96EC911F971E968C91E8177C
:1031300030F4E20FF32FF11D808190E008958FEFBE
:103140009FEF0895FC01DC01A956BF4F9785868546
:10315000981740F4A90FB11D2C919F5F9787822F7C
:1031600090E008958FEF9FEF0895FC018685978585
:10317000891B990B0895FC01A585A23858F4A80F66
:10318000B92FB11D55966C9385858F5F858781E03A
:1031900090E0089590E080E00895BF92CF92DF9292
:1031A000EF92FF920F931F93CF93DF937C016A01FD
:1031B000B62EEB010C2F0B1910E00C151D0528F491
:1031C0006991C701D8DF892BA9F7C801DF91CF9199
:1031D0001F910F91FF90EF90DF90CF90BF900895D7
:1031E000089590E080E008950F931F93CF93DF93AD
:1031F0008091A157803109F063C088E294D882FFA2
:103200003BC084E0C3D974D880E05BD880E059D853
:10321000D82FC82F833408F0C2E4C0935B5780E0F6
:1032200050D8082F80E04DD8182F80E04AD8282F9A
:1032300030E0A90196E0440F551F9A95E1F7442725
:103240005370402B40935C5750935D57322F222789
:1032500022273370212B20935E5730935F57909134
:10326000BF609417150611F0452B11F4D330A0F46C
:1032700010925B5718D8DFD98091A157803101F5A2
:1032800080915B578823E9F084E080D981E0DF9169
:10329000CF911F910F910895C350C09360578078CC
:1032A00080935A57D0E0DC1720F480E00AD8DF5F23
:1032B000FACF0E94531180E169D984E234D8DCCF7F
:1032C000BAD980E0E4CF94E081111BC0909346040A
:1032D0009091400492FD0AC09FB7F894811114C0E8
:1032E00080915204877F809352049FBF8091E605AE
:1032F0008770823029F48091010A8B7F8093010AC4
:10330000089590934504E4CF809152048860EBCFF8
:103310000F931F93CF93DF93EC01062F142F8B890C
:10332000813120F4882321F0411102C008D81B8A82
:103330008B8981110DC08A89880F80936C5F1092F0
:103340006D5F60E4111101C060E080E69FE513DF6E
:10335000602F80E69FE50FDF123041F48B898F5F8D
:103360008B8BDF91CF911F910F9108950E949F1138
:103370001B8AF7CF0F931F93CF93DF93CDB7DEB7A1
:103380002C97CDBFDEBF681BF1F0062F10E0682F31
:1033900070E06F59784AA801CE0101960E94EB4374
:1033A000E1E0F0E0EC0FFD1FE00FF11F1082CE0115
:1033B00001960E94C33E2C96CDBFDEBFDF91CF9118
:1033C0001F910F91089590E080E0F5CF0F931F9328
:1033D000CF93DF93CDB7DEB72C97CDBFDEBF681B91
:1033E000F1F0062F10E0682F70E06F59784AA801BD
:1033F000CE0101960E94EB43E1E0F0E0EC0FFD1FEF
:10340000E00FF11F1082CE0101960E94C03E2C9663
:10341000CDBFDEBFDF91CF911F910F91089560E086
:1034200070E0CB01F4CFFB0101900020E9F7319768
:10343000AF01461B570BDC01ED91FC910280F3813B
:10344000E02D09946EEF70E4EECF0F931F93CF93AE
:10345000DF93EC01DED98C01CE01F4DF800F911FE8
:10346000DF91CF911F910F9108958F929F92AF920C
:10347000BF92EF92FF920F931F93CF93DF93CDB73D
:10348000DEB7A197CDBFDEBF7C01FA01CB0119A247
:10349000223008F42AE08E010F5D1F4F822E912CFE
:1034A000B12CA12CBF01A50194010E94A541F901F5
:1034B000CA016A30ECF4605DD8016E938D01232B54
:1034C000242B252B79F790E080E0109719F0BD01AF
:1034D000C701A9DFA196CDBFDEBFDF91CF911F91BC
:1034E0000F91FF90EF90BF90AF909F908F900895B5
:1034F000695CE2CFCF92DF92EF92FF920F931F931E
:10350000CF93DF9377FF1BC06A017B01EC016DE273
:103510009ED98C0144275527BA014C195D096E09C3
:103520007F092AE0CE01A1DF800F911FDF91CF91AB
:103530001F910F91FF90EF90DF90CF9008952AE0B8
:10354000DF91CF911F910F91FF90EF90DF90CF907F
:103550008CCFAB01770F660B770BCCCF62E77AE1AC
:1035600082EA97E556D98091BA606EE67AE18823BF
:1035700099F063E070E082EA97E5EBDF6DE57AE1D0
:1035800082EA97E546D96091BB607091BC6082EA9F
:1035900097E5DFDF6AE57AE182EA97E556CF6DEAE3
:1035A00079E182EA97E551DF62EA79E182EA97E51B
:1035B00030D961E071E482EA97E535DF66E979E1C7
:1035C00082EA97E526D96EE879E182EA97E53DDF60
:1035D00063E879E182EA97E51CD963E070E082EA6A
:1035E00097E5B7DF6DE779E182EA97E52ECF4F9255
:1035F0005F926F927F928F929F92AF92BF92CF9283
:10360000DF92EF92FF920F931F93CF936B017C0198
:10361000742EAC019B010E94BF4369E071E48111EB
:1036200026C046015701E894B7F82FEF3FEF4FE768
:103630005FE7C501B4010E94BF4381110CC02FEFA9
:103640003FEF4FE75FE7C501B4010E945D406DE0C9
:1036500071E4181664F02FEF3FEF4FE75FE4C70106
:10366000B6010E9479431816A4F461E171E482EA7C
:1036700097E5CF911F910F91FF90EF90DF90CF9042
:10368000BF90AF909F908F907F906F905F904F9082
:10369000CACE2FEF3FEF4FE75FECC701B6010E94A4
:1036A0005D4087FDE2CF20E030E0A901C701B6010F
:1036B0000E945D4010E000E087FF09C06DE282EAF1
:1036C00097E5C5D88C01F7FAF094F7F8F094C0E0CC
:1036D00060E070E080E09FE37C1641F020E030E0A5
:1036E00040E251E40E943B42CF5FF6CFA701960132
:1036F0000E94D7412B013C010E94A8424B015C0172
:103700002AE0BC01A40182EA97E5AFDE7C01E00E6D
:10371000F11ECC23C9F1C501B4010E9461409B0197
:10372000AC01C301B2010E94D6414B015C016BE2C6
:1037300071E482EA97E577DEE80EF91EC15020F1C8
:1037400020E030E040E251E4C501B4010E94C240F3
:103750002B013C010E94A8424B01B12CA12C2AE074
:10376000B501A40182EA97E580DEE80EF91EC501E5
:10377000B4010E9461409B01AC01C301B2010E94EF
:10378000D6414B015C01DACFC701CF911F910F9158
:10379000FF90EF90DF90CF90BF90AF909F908F9071
:1037A0007F906F905F904F900895CF93DF931FDFCE
:1037B000EC0182EA97E546DE8C0F9D1FDF91CF91E9
:1037C0000895CF93DF93482F50E070E060E02AE047
:1037D00082EA97E54ADEEC0182EA97E533DE8C0F58
:1037E0009D1FDF91CF9108956115710509F01BCEE2
:1037F00090E080E00895AF92BF92CF92DF92EF9277
:10380000FF920F931F93CF93DF9300D0CDB7DEB716
:103810006C015B0110E000E00A151B050CF03AC0DA
:103820007801EC0CFD1C85E1F822E982FA82CE01D8
:103830000196BFD8803120F460E382EA97E507D88B
:103840000F5F1F4FE982FA82CE010196B2D8482F4E
:1038500050E070E060E020E182EA97E506DE67E193
:1038600071E482EA97E5C0DFC80187709927892B48
:1038700029F467E171E482EA97E5B6DFC8018F7049
:103880009927892B49F660E372E282EA97E50E9464
:103890000914C2CF0F900F90DF91CF911F910F911C
:1038A000FF90EF90DF90CF90BF90AF9008950F936F
:1038B0001F93CF93DF9362E57AE182EA97E50E9456
:1038C000091460917E6070917F608091806090911A
:1038D000816042E050E069DF06E810E6C1E0D0E038
:1038E0006DE47AE182EA97E50E940914BE0182EA5A
:1038F00097E52FDE65E171E482EA97E575DFF8016F
:1039000061917191819191918F0142E070DE65E446
:103910007AE182EA97E50E940914BE0182EA97E5FE
:1039200018DE65E171E482EA97E55EDFF8016489FB
:1039300075898689978942E050E037DF2196C73044
:10394000D10571F60BDE80917C606CE17AE1882311
:1039500009F44CC069E07AE182EA97E50E94091413
:103960008091796061EB71E08B3251F064E673E035
:10397000863531F070E060E08B3511F463E973E077
:1039800082EA97E5E6DD68EF79E182EA97E50E9451
:10399000091440917A6050E070E060E02AE082EA29
:1039A00097E563DD6CEE79E182EA97E50E94091400
:1039B00060917B606F7370E082EA97E5CADD6FED1E
:1039C00079E182EA97E50E94091440917D6050E018
:1039D00070E060E02AE082EA97E547DD61ED79E199
:1039E00082EA97E50E94091464EC79E182EA97E59E
:1039F0002CDD6AE37AE182EA97E50E94091460917E
:103A0000B6607091B7608091B8609091B96042E003
:103A100050E0CBDE8091BE6065E27AE1882311F050
:103A200060E37AE182EA97E5DF91CF911F910F91F0
:103A30000CCD0E94DC432F923F924F925F926F9287
:103A40007F928F929F92AF92BF92CF92DF92EF922E
:103A5000FF920F931F93CF93DF93CDB7DEB72A97D3
:103A6000CDBFDEBF89879A87162F7A01222E312C8F
:103A7000B101032C000C880B990B0E9463404B0191
:103A80005C01612F70E090E080E00E94634020E0E4
:103A900030E044EB53E40E94C2402B013C01B701EB
:103AA00090E080E00E9461409B01AC01C301B20143
:103AB0000E94C240A50194010E94C24020E836E95C
:103AC00048E15BE40E943B422B013C01E985FA8519
:103AD00005818081081B110B218132814381548132
:103AE00066817781808591850E94D641A3019201EC
:103AF0000E943B426B017C01B801012E000C880B37
:103B0000990B0E946340A50194010E943B429B01D6
:103B1000AC01C701B6010E94D7416D837E838F83BC
:103B200098870E94164369837A838B839C8320E065
:103B300030E040E85FE30E94D7416B017C0120E068
:103B400030E0A90169817A818B819C810E9479434F
:103B500087FDA2C0A7019601C501B4010E94C24021
:103B60000E94A342E985FA856287738716861786C5
:103B7000E985FA8526853785020F131F0687178783
:103B8000020D131D0487158720E030E044EB53E459
:103B9000C301B2010E943B422BED3FE049EC50E4EF
:103BA0000E94C2406B017C0129813A814B815C817A
:103BB0006D817E818F8198850E94D641A3019201FB
:103BC0000E94C24020E030E044EB53E40E943B42BC
:103BD0002BED3FE049EC50E40E94C2404B015C01F8
:103BE000A70196010E943B422B013C01E985FA8521
:103BF000448A558A668A778AA5019401C501B40171
:103C00000E94C24020E030E040E05FE30E94C240FA
:103C10009B01AC0160E070E080E89FE30E94D64128
:103C20004B015C01A7019601C701B6010E94C24089
:103C300020E030E040E05FE30E94C2409B01AC0125
:103C400060E070E080E89FE30E94D641A30192010A
:103C50000E94C2409B01AC01C501B4010E94D64143
:103C6000E985FA85608B718B828B938B2A96CDBF09
:103C7000DEBFDF91CF911F910F91FF90EF90DF900A
:103C8000CF90BF90AF909F908F907F906F905F90FC
:103C90004F903F902F900895E985FA8512861386FC
:103CA000C701B6019058A50194010E94C2400E942C
:103CB000A342E985FA85668777875ACFCF92DF924C
:103CC000FF920F931F93CF93DF930FE5089FF001AF
:103CD0001124EF01C359D74AAA81BB811F962C91A9
:103CE0001F972A8B16964D915D916D917C91199736
:103CF0004B8B5C8B6D8B7E8BA881B9811F962C9131
:103D00001F972F8B16964D915D916D917C91199710
:103D1000488F598F6A8F7B8F20911457C09012570C
:103D2000D0901357F09046408F01A6016F2DCF0120
:103D30008158974A80DEEC81FD818A819B818E17B4
:103D40009F0729F187858AA786819781A085B185FC
:103D50008BA79CA7ADA7BEA7E881F98187858FA710
:103D600086819781A085B18588AB99ABAAABBBABA7
:103D700020911457A6016F2DC8018956974ADF91EB
:103D8000CF911F910F91FF90DF90CF9054CEDF9194
:103D9000CF911F910F91FF90DF90CF9008952F92B8
:103DA0003F924F925F926F927F928F929F92AF92CB
:103DB000BF92CF92DF92EF92FF920F931F93CF9318
:103DC000DF93CDB7DEB7E897CDBFDEBF84E0809349
:103DD000410481E078DA8091B05780FF14C082EA14
:103DE00097E50E942814E091AA57F091AB5786817D
:103DF00016828581158280E484838091B2578093F6
:103E0000B1571092B0576FB7F894E091AA57F0915C
:103E1000AB57168233E0378381E493E08087918744
:103E2000148680E8858380EC86832091AF5770915B
:103E3000AE578091AC579091AD57FC01239FE00D98
:103E4000F11D112445915491271708F03EC05932B5
:103E500090F4252F30E0F901EF5AFF4BA081AF3FDE
:103E600051F026583F4BF901308120E2329FF0019A
:103E70001124FC5FA18321E0250F293230F530E0C9
:103E8000F901EF5AFF4B10811F3FF9F0F901E65895
:103E9000FF4BA081E0E2AE9FD0011124BC5F2D5505
:103EA0003F4BF9010081F0E0E0E0083030F49D0183
:103EB000205F3F4FF901E00FF11D3FB7F8941296D4
:103EC0001C932081286020833FBFFC0123E0729F68
:103ED000E00DF11D1124319625913491F901FF2750
:103EE000EE51FA4F9081832F80958923482B408390
:103EF0006FBF55DB67E679E182EA97E5A6DA68EEFF
:103F000073E080E090E00E949612E0914F5EF091A5
:103F1000505EE11539E0F30709F07EC08091E505B8
:103F20008C7F82608093E5058091515E81FD33C076
:103F300082FD31C0E11589E0F80709F07CC080916D
:103F4000E50583709CE0823009F070C090934604D0
:103F50009091010990FF05C081116BC08CE08093A6
:103F600046048091515E82608093515E81E083833C
:103F700085839091515E91FF21C096819C3679F0A6
:103F8000238113829CE6968390819D7F9083238377
:103F900020FF05C085838091515E81FF0FC086811F
:103FA000853161F09381138285E1868380818D7FE5
:103FB0008083938390FF02C081E085831092D96053
:103FC0008CE38093D8601092CA601092CB60E1E6D7
:103FD000F9E1C590D490E3E6F9E1F490E4E6F9E183
:103FE000E491E093CC60E5E6F9E1E491E093CD6003
:103FF000E6E6F9E1E491E093CE6010E000E00F1511
:10400000B0F5F601E00FF11F649186EC90E60E9496
:10401000D4150F5F1F4FF3CFE03249E0F40709F0EA
:1040200083CF8091E505837F88607CCF90930604E1
:104030008FCF80EC94CFE03299E0F90709F091CF6F
:104040008091E5058C709CE0883061F490932604A3
:104050009091210990FF85CF811107C08CE080935A
:1040600026047FCF9093A604F3CF80ECF8CF0E9474
:104070004016EBE2F8E0E093D460F093D560E49171
:10408000ECE2F8E0E49182E08093CF600E94401679
:1040900041E06FE086EC90E60E94FE1569E171E474
:1040A00086EC90E6A1DBE7E7F3E0E093D460F093E1
:1040B000D5608491E8E7F3E0E491F82F319709F0B7
:1040C000ACC11092CF6046E068E286EC90E60E94B8
:1040D000FE1561E271E486EC90E686DB8091515E2C
:1040E00081FF0BC0E0914F5EF091505E138216820B
:1040F0008091515E8D7F8093515E8091515E82FFF1
:104100000DC0E0914F5EF091505E148611861686C8
:104110008091515E8B7F8093515E11829FB7F8949E
:1041200084E08093220480913204877F809332045C
:104130009FBF9FB7F89488E0809322048091330456
:10414000877F809333049FBF96E8292E90E6392E0F
:1041500029E7E22E20E6F22EF10140E050E060EA8D
:1041600071E48DEC9CECACE4B0E441935193619329
:104170007193848B958BA68BB78B20E6EE39F20773
:10418000A1F780E090E0A8ECB2E480938660909381
:104190008760A0938860B093896080E090E0A8E495
:1041A000B2E480938A6090938B60A0938C60B0930C
:1041B0008D6080938E6090938F60A0939060B09399
:1041C000916080E290E00E940815882321F1CE01E1
:1041D00001960E94E01409811A8117FD1CC0680134
:1041E00033E0C30ED11C87E090E05C014FEFA41ACE
:1041F000B40A8EA79FA7CE018E960E94D914D7012C
:104200008D937D01C501AC14BD0478F369E573E0BD
:104210000430110511F468E473E082EA97E515D9DA
:1042200046DB80917C60882309F446C187E0809357
:10423000C16084E08093C26085E08093C36086E0C3
:104240008093C4601092C56010917A6080917B6009
:104250008093BF601092C06080E88093010480E189
:10426000809301049FB7F89480E2809302048091C8
:104270001504877F809315049FBF8091C4608932A5
:1042800088F490E0FC01EF5AFF4B20812F3F51F062
:1042900086589F4BDC01EC91B0E2EB9FF0011124BA
:1042A000FC5F21830E9453118091C5608111B9C0C8
:1042B0008091E4058C7F8093E405809141098460BE
:1042C00080934109809140098162809340090E9456
:1042D000BA126B017C016AEA8FE20E9486118FE2BA
:1042E0000E9493118A3A59F00E94BA126C197D0902
:1042F0008E099F09623371058105910560F30E9463
:10430000BA126C197D098E099F0962337105810506
:10431000910508F0B7C00E94BA126B017C0165E5F7
:104320008FE20E9486118FE20E949311853559F029
:104330000E94BA126C197D098E099F0962337105BA
:104340008105910560F30E94BA126C197D098E09EE
:104350009F09623371058105910508F093C0FE0144
:1043600033968BE2DF011D928A95E9F781E089831C
:1043700084E08A8322E02B8393E09D832E838F83C6
:1043800080E4888725E029879A8796E09B8793E3D6
:104390009C8797E09D8728E02F8729E0298B29E1DA
:1043A0002B8B32E43C8B25E22D8B8E8B26E22F8BE0
:1043B000988F98E2998F20E12A8F99E29B8F9CED4C
:1043C0009C8F9EE29D8F98E89E8F9FE29F8F9DE23B
:1043D00098A390E399A347E34BA340E94CA348E398
:1043E0004DA33EA33CE33FA33FE838A73DE339A7F5
:1043F0002AA72FE62BA79CA79CE69E87888B1AA34B
:104400008E010F5F1F4FF80180818823D1F06181F9
:104410000E9486110E5F1F4FF6CF81E08093CF6020
:1044200052CE8091E405837F8093E40580916109F9
:104430008460809361098091600981628093600942
:1044400046CF90E080E00E94F51269E981E10E9488
:10445000861184E00E94C6120E94BA126B017C0190
:1044600087E20E94931187FD0BC00E94BA126C195B
:104470007D098E099F09623371058105910580F3DD
:104480000E94BA128DE291E40E94F51220917B60A5
:10449000F4E12F9F8001112460E070E0CB01011551
:1044A000110541F00E946B3E9801110F440B550B12
:1044B0000E9479410E9496128EE0809305068091B9
:1044C0000306809303061092B00086E080930206F4
:1044D00081E080930006809100068093000687E0CB
:1044E0008093080660E070E0CB0150E040E021E0FE
:1044F00020930A0630910D0630FFFCCF4A3051055B
:1045000044F0E0911006F09111066E0F7F1F811D9F
:10451000911D4F5F5F4F4A3137E2530749F70E94C1
:10452000614020E030E44CE156E40E943B4220E050
:1045300030EF4FE755E40E943B429B01AC0166E639
:1045400076E686E69FE30E943B426B017C016EE6C5
:1045500073E082EA97E50E94091444E050E0C70145
:10456000B60123D940917E6050917F606091806058
:104570007091816081E00E94EB1140917E605091CA
:104580007F60609180607091816082E00E94EB1199
:1045900040917E6050917F606091806070918160F9
:1045A00083E00E94EB114090494050904A40609057
:1045B0004B4070904C40609137587091385890E063
:1045C00080E00E9461404B015C0101EE1CE520E0AF
:1045D000D10158968D919D910D90BC91A02D88ABE5
:1045E00099ABAAABBBABF1016191719181919191B2
:1045F0001F01F1E0F20FFCABD8012C9320E030E07A
:1046000040E450E40E94C240A30192010E94C240D3
:10461000A50194010E943B42F80161837283838368
:104620009483158288A999A9AAA9BBA9868397838F
:10463000A087B187128613861486158616860B5EB0
:104640001F4F2CA9263021F661E081E00E943C1426
:1046500062E082E00E943C1461E083E00E943C142E
:1046600062E084E00E943C1461E085E00E943C141A
:1046700062E086E00E943C148CE3809346408AE02E
:10468000809315406091B6607091B7608091B8607A
:104690009091B9600E946514C0924940D0924A40FE
:1046A000E0924B40F0924C408091BA608093665803
:1046B0008823B9F189E08093B3048091BB60909125
:1046C000BC6080935D5890935E5882E080935F5801
:1046D00081E080936758E0903F5EF090405EE11487
:1046E000F10409F47FC187010F5F1F4F8FE1C82ECE
:1046F0008EE5D82E80913D5E90913E5E8E0D9F1D81
:10470000081719078CF4C801957189839A83CE0123
:1047100001960E94D914F60181936F010F5F1F4F1C
:10472000E9CF1092B304C9CF40901F5E5090205E35
:104730006090215E7090225E8090235E9090245E57
:10474000A090255EB090265EC090275ED090285E37
:10475000E090295EF0902A5E00912B5E10912C5E15
:1047600020912D5E30912E5E40912F5E5091305EF3
:104770006091315E7091325E8091335E9091345ED3
:10478000A091355EB091365E8DAB9EABAFABB8AF4E
:104790008091375E9091385EA091395EB0913A5E1B
:1047A00088AB99ABAAABBBAB4092C3585092C458EC
:1047B0006092C5587092C65880922259909223599F
:1047C000A0922459B0922559C0928159D092825911
:1047D000E0928359F09284590093E0591093E15983
:1047E0002093E2593093E35940933F5A5093405AF3
:1047F0006093415A7093425A8DA99EA9AFA9B8AD52
:1048000080939E5A90939F5AA093A05AB093A15A16
:1048100088A999A9AAA9BBA9809340589093415807
:10482000A0934258B093435885E18093FA4E88E0B4
:1048300090E08093F84E9093F94E88EE91E080934B
:104840001257909313571092F74E909116572DE6EA
:1048500038E5F90180E061E0DF01A25ABF4F4C91D9
:10486000442309F451C0482F50E0DA01AA0FBB1FBE
:10487000A40FB51F8D01075E1F4BD8014C914F3F10
:10488000C1F442815381DA0154967C91549771119D
:1048900010C01F968C931F9754966C9354974C910D
:1048A00050E04F5F5F4BDA014C91D8014C938F5F22
:1048B0009F5F44815581A281B3814A175B0721F133
:1048C000082F10E0D801AA0FBB1FA00FB11F8D0148
:1048D000075E1F4BD8017C917F3FB1F4DA015496FB
:1048E0007C915497711110C01F968C931F9754960A
:1048F0006C9354974C9150E04F5F5F4BDA014C91B1
:104900008F5FD8014C939F5FE15AFF4FBCE5E13EBA
:10491000FB0709F0A1CF8093F74E90931657909123
:10492000F64E61E0D901A25ABF4F4C91442359F190
:10493000482F50E0DA01AA0FBB1FA40FB51F8D014D
:10494000075E1F4BD8014C914F3FE9F4D9014D91BF
:104950005C91DA0154967C915497711114C01F96A2
:104960008C931F9754966C9354974C9150E04C5FE6
:104970005F4BDA014C91D8014C938F5F11962D93C8
:104980003C9312979F5F215A3F4FE217F30751F66E
:104990008093F74E9093F64E909139589923A9F051
:1049A00080933C582091104091E0980F9093F74EDF
:1049B00090E0FC01EE0FFF1FE80FF91FE75EFF4BD1
:1049C000208310923A5810923B588091F74E809372
:1049D000145710E0809115571817E0F4812F6ED905
:1049E0001F5FF8CF18AA19AA1AAA1BAA412C512C8A
:1049F0003201812C912C5401C12CD12C760100E084
:104A000010E0980140E050E0BA011DAA1EAA1FAABA
:104A100018AECACE1091145720E836E948E15BE49D
:104A20006091114070911240809113409091144018
:104A30000E94C24020E030E044EF53E40E943B4239
:104A40000E94A8426555714081099109212F30E0EB
:104A500050E040E00E94A5412093FD4E3093FE4E71
:104A60004093FF4E5093004F1092175781E0809370
:104A7000164095E1909305069091030690930306E6
:104A80001092B0009091F84E909302068093000629
:104A9000909100069093000690910006926090938A
:104AA00000061092080690910C06916090930C06F7
:104AB00080930A06789410922457109225571092EA
:104AC00026571092275760E070E080E090E40E9443
:104AD0006514E896CDBFDEBFDF91CF911F910F9196
:104AE000FF90EF90DF90CF90BF90AF909F908F900E
:104AF0007F906F905F904F903F902F9008951F92FE
:104B00000F920FB60F92112484E00E943512EF939A
:104B1000FF93E6E5F7E58F938FB78F9380818F5FE3
:104B2000808381818F4F818382818F4F82838381B4
:104B30008F4F838381E08093260B8F918FBF8F915E
:104B4000FF91EF911895EF93FF93F898E2EAF7E55C
:104B50000BC0EF93FF93F898E2EAF7E534C0EF93C8
:104B6000FF93E2EAF7E55FC02F932FB72F938F9360
:104B70009F93AF93BF936894CF93DF9320E0C0855A
:104B8000D8E09289DF01A90FB21FAD5ABF4F8C91B7
:104B900020E42C838A839F5F9F738D812189291351
:104BA00002C08F7D8D83928BDF91CF9116F00C9494
:104BB000BC13BF91AF919F918F912F912FBF2F91D8
:104BC000FF91EF9118952F932FB72F933F938F93CA
:104BD0009F93CF93DF93C085D8E02E812F7E2E83C5
:104BE000898198818674880F3685382B82FD0DC0A7
:104BF000C78581E08C0F8F732089281791F0CE0F25
:104C0000DF2F20E0D21F9B8B87873687DF91CF91E4
:104C10009F918F913F912F912FBF2F91FF91EF91F6
:104C200018953064F2CF8F938FB78F939F93CF9364
:104C3000DF93C085D8E09D8188818C8187FDFCCF82
:104C40009F7B90689D83DF91CF919F918F918FBFC4
:104C50008F91FF91EF9118951F920F920FB60F92BF
:104C600011248F9388E08093A90481E080930F57EB
:104C70008F910F900FBE0F901F9018951F920F925B
:104C80000FB60F9211248F939F9380910904809304
:104C9000090486FF03C091E09093115787FF03C07A
:104CA00081E0809310579F918F910F900FBE0F90CE
:104CB0001F9018951F920F920FB60F9211240BB6EA
:104CC0000F922F923F924F925F926F927F928F92AC
:104CD0009F92AF92BF92CF92DF92EF92FF920F938B
:104CE0001F932F933F934F935F936F937F938F9374
:104CF0009F93AF93BF93EF93FF93CF93DF93CDB782
:104D0000DEB72A97CDBFDEBF81E080930D0680918C
:104D10001006909111068D839E8380910D578E5FB2
:104D200090911457891718F090911457891B90E0AF
:104D3000FC01EE0FFF1FE80FF91FE75EFF4B8081BC
:104D4000809308068D819E81209137583091385884
:104D500036952795821B930B8D839E838D819E8133
:104D6000E0910B57F0910C57EE0FFF1FE55FF04BF2
:104D70008083918319821A821B821C822D813E813D
:104D80000D811E8122241302B001029FA001120393
:104D90007209500D611D721D30037209500D611DA5
:104DA000721D112449835A836B837C8389809A8086
:104DB000AB80BC80A0911740B0911840E0910D5796
:104DC00008E0E09FF0011124EA0FFB1FE058FF4FBD
:104DD00020803180428053806480758006811781F5
:104DE0009401A50160E070E080E090E05101620173
:104DF00073010E94D34320833183428353836483AE
:104E00007583868397834D815E81E0910D5718E00D
:104E1000E19FF0011124EA0FFB1FA084B184C2843A
:104E2000D384E484F58406851785952F990F990B13
:104E30009A01492F592F692F792F892F0E94D34327
:104E4000208731874287538764877587868797874E
:104E5000E0910D578E2F90E0FC01EE0FFF1FE80F41
:104E6000F91FE75EFF4B80818111CFC08091094F10
:104E700090910A4F9C013695279536952795AC0160
:104E8000421B530B9A018D819E81181619060CF452
:104E900078C08D819E81919581959109820F931F94
:104EA0008093094F90930A4F21E0409135585091DB
:104EB00036584817590708F020E02093F25D8D819D
:104EC0009E81181619060CF05FC081E090E0809377
:104ED000074F9093084F2091074F3091084F8091D2
:104EE000034F9091044F2817390709F452C080915D
:104EF000FC4E8F5F8093FC4E8091FC4E882351F0D6
:104F00001092FC4E8091074F9091084F8093054F6F
:104F10009093064F8091054F9091064F019709F0AD
:104F200016C38091034F9091044F019709F465C017
:104F30008091014F9091024F01968093014F909381
:104F4000024F20911640222339F120911540281755
:104F5000190609F008F5109216401092014F1092B0
:104F6000024F14961D921D921D921C921797CD010F
:104F700088529D4FFD01E817F90771F010823196B4
:104F8000FACF8D819E818ACF1092074F1092084FE1
:104F9000A2CF1092FC4EB0CF14964D915D916D91C1
:104FA0007C9117974F5F5F4F6F4F7F4F14964D93D4
:104FB0005D936D937C9317970D911D912D913C916D
:104FC00013974091FD4E5091FE4E6091FF4E7091AF
:104FD000004F041715072607370778F080914740E0
:104FE00090914840A0934740B09348408093174029
:104FF0009093184081E0809317578091054F9091CE
:10500000064F8093034F9093044F90910D578091DA
:105010001657981708F445C280900B5790900C577C
:10502000E0910D578E2F90E0FC01EE0FFF1FE80F6F
:10503000F91FE75EFF4B0180F281E02D848D958D95
:10504000881A990A53E09522E0910B57F0910C577A
:10505000A0910D578A2F90E0DC01AA0FBB1FA80F6B
:10506000B91FA75EBF4B11960D90BC91A02D5E9607
:105070008D919C91E81BF90BF37020910B573091A7
:105080000C57A0910D578A2F90E0DC01AA0FBB1F8F
:10509000A80FB91FA75EBF4B11960D90BC91A02D14
:1050A00090968D919C91281B390BD901B370AF83D9
:1050B000B887880C991C8401055F104B4801D80102
:1050C0006D917C91EE0FFF1FE55FF04B40815181A8
:1050D000222457029001469F800156033209100D89
:1050E000211D321D74033209100D211D321D1124A2
:1050F00028013901E0911740F0911840A0910D5717
:1051000018E0A19FD0011124AE0FBF1FA850BF4FC0
:10511000AC901196BC90119712962C901297139602
:105120003C90139714960C911497098715961C912F
:1051300015971A8716960C91169717961C91179724
:1051400073016201FF0CCC08DC2C76019201A301F3
:105150006C2D7C2D8C2D9C2D6101E984FA840E949C
:10516000D3432C9311963C93119712964C9312971C
:1051700013965C93139714966C93149715967C93DF
:10518000159716968C93169717969C93D4016D914C
:105190007C91AF81B885AA0FBB1FA55FB04B4D9125
:1051A0005C91222457029001469F800156033209E8
:1051B000100D211D321D74033209100D211D321DE9
:1051C000112448015901A0910D5718E0A19FD00169
:1051D0001124AE0FBF1FA059BE4F2C9011963C90CA
:1051E00011971296CC9012971396DC901397149601
:1051F000EC9014971596FC90159716960C911697AF
:1052000017961C91179724013501770C4408542CEC
:1052100032019401A501642D742D842D942D51012A
:105220000E94D3432C9311963C93119712964C9362
:10523000129713965C93139714966C931497159684
:105240007C93159716968C93169717969C93A0911E
:105250000D5780910D572A2F30E0D901AA0FBB1F9F
:10526000A20FB31FA75EBF4B11962D913C9190E00A
:10527000DC01AA0FBB1FA80FB91FA75EBF4B119679
:105280008D919C91D90112962D913C91DC0114963F
:105290008D919C912817390709F403C180900B5711
:1052A00090900C57A0910D578A2F90E0DC01AA0F27
:1052B000BB1FA80FB91FA75EBF4B11960D90BC91E5
:1052C000A02DD4968D919C91881A990AB3E09B22C7
:1052D00020910B5730910C5780910D5790E0DC01D5
:1052E000AA0FBB1FA80FB91FA75EBF4B11960D9049
:1052F000BC91A02DD6968D919C91D901A81BB90B7C
:10530000BD01737040910B5750910C5780910D5710
:10531000282F30E0C901880F991F820F931F875EE5
:105320009F4BDC0111968D919C91DC01D8968D915B
:105330009C91481B590BDA01B370AF83B887880C76
:10534000991C8401055F104B4801D8018D919C91F7
:10535000DB01AA0FBB1FA55FB04B4D915C91BC0157
:10536000222457029001469F800156033209100DF6
:10537000211D321D74033209100D211D321D11240F
:1053800028013901A0910D5778E0A79FD001112481
:10539000AE0FBF1FA851BE4FAC901196BC90119795
:1053A00012962C90129713963C90139714960C918A
:1053B0001497098715961C9115971A8716960C91C4
:1053C000169717961C91179779016201FF0CCC086C
:1053D000DC2C76019201A3016C2D7C2D8C2D9C2D53
:1053E0006101E984FA840E94D3432C9311963C9383
:1053F000119712964C93129713965C9313971496E9
:105400006C93149715967C93159716968C93169714
:1054100017969C93D4016D917C91AF81B885AA0FAA
:10542000BB1FA55FB04B4D915C91222457029001A8
:10543000469F800156033209100D211D321D740351
:105440003209100D211D321D1124280139018091CE
:105450000D5718E0819FC0011124E80FF91FE05A91
:10546000FD4FB081A181C280D380E480F5800681A8
:10547000178153014201BB0C8808982C54019201FA
:10548000A301682D782D882D982DAB2EBA2E0E9461
:10549000D34320833183428353836483758386831C
:1054A000978380910D578F5F80930D5780910B5795
:1054B00090910C57019680930B5790930C579091B5
:1054C0000D5780911457981788F010920D57E0915E
:1054D0001740F091184080819181A281B38101969B
:1054E000A11DB11D80839183A283B38380910B574B
:1054F00090910C57937080930B5790930C572A966A
:10550000CDBFDEBFDF91CF91FF91EF91BF91AF9102
:105510009F918F917F916F915F914F913F912F91CB
:105520001F910F91FF90EF90DF90CF90BF90AF90C1
:105530009F908F907F906F905F904F903F902F90B3
:105540000F900BBE0F900FBE0F901F90189580917B
:10555000034F9091044F51CD1F920F920FB60F92AF
:1055600011240BB60F922F933F934F935F936F933A
:105570007F938F939F93AF93BF93EF93FF938FE4AA
:105580009EE50E94FC17FF91EF91BF91AF919F9113
:105590008F917F916F915F914F913F912F910F90DC
:1055A0000BBE0F900FBE0F901F9018951F920F9279
:1055B0000FB60F9211240BB60F922F933F934F9378
:1055C0005F936F937F938F939F93AF93BF93EF936B
:1055D000FF9388E69FE50E94FC17FF91EF91BF9132
:1055E000AF919F918F917F916F915F914F913F917B
:1055F0002F910F900BBE0F900FBE0F901F9018951C
:10560000EF92FF920F931F93CF93DF9300D0CDB70C
:10561000DEB71092A4571092A55788EE93E0A0E051
:10562000B0E08093A6579093A757A093A857B09344
:10563000A95780ED90E48093A2579093A35780E6FA
:1056400098E08093AA579093AB5782E392E28093BD
:10565000AC579093AD5782E08093AE571092AF57FE
:105660001092B05780E090E0A8ECB2E48093DE5D49
:105670009093DF5DA093E05DB093E15D1092F15DEA
:105680001092F25D8093F45D9093F55DA093F65DCA
:10569000B093F75D1092075E1092085E80930A5EE9
:1056A00090930B5EA0930C5EB0930D5E10921D5E06
:1056B00010921E5EE1EEFCE581839283A383B483A6
:1056C000148A75962DE5ED3DF207B1F78DE698E564
:1056D000FC01E25AFF4F1082815A9F4F4CE5813EF8
:1056E0009407B1F7EDE3F8E524E130E092E081E0E2
:1056F000208331839283138214821582168217824B
:105700001086118682871386709648E5ED36F40779
:1057100079F71092395810923A5810923B5880E01D
:1057200090E1809337589093385880E091E08093CF
:105730003558909336588EEF90E08093415E909369
:10574000425E8DE190E080933D5E90933E5E8DE001
:1057500090E080933B5E90933C5E84E890E0809381
:10576000435E9093445E8DEF91E08093455E90930D
:10577000465E10923F5E1092405E04E810E009839E
:105780001A83CE0101960E94D91478019DE1E90E99
:10579000F11C8F3F09F4B6C000933F5E1093405E4A
:1057A0002DEFE21621E0F2065CF4E982FA82CE01E6
:1057B00001960E94D9148F3F09F4A0C00E948B1556
:1057C0001092625F1092635F48EE53E060E070E019
:1057D0004093645F5093655F6093665F7093675F0B
:1057E00082EE90E48093605F9093615F20E039E007
:1057F0002093685F3093695F1092495E10924A5E11
:1058000040934B5E50934C5E60934D5E70934E5E42
:105810008093475E9093485E80E299E080934F5E6C
:105820009093505E1092C8601092C9601092D2603E
:105830001092D3601092D4601092D5601092D6600E
:1058400081E08093D76024EF30E42093C6603093EA
:10585000C7609AE09093C1609BE09093C2609CE027
:105860009093C3609DE09093C4601092C5609BE2EA
:105870009093796092ED90937A609BE190937B6036
:1058800010927C6099E190937D604AE959E96AEC55
:1058900072E440937E6050937F6060938060709369
:1058A000816040E050E068E472E44093826050938D
:1058B000836060938460709385604DEC5CEC6CE178
:1058C00071E44093B6605093B7606093B860709392
:1058D000B9608093BA6084E690E08093BB60909357
:1058E000BC601092BD601092BE600F900F90DF916F
:1058F000CF911F910F91FF90EF9008954DE1E40E2D
:10590000F11C4ECF87018DEFE81681E0F80609F013
:1059100036CF56CFCF93DF93CDB7DEB7C857D10977
:10592000CDBFDEBF88ED21E030E084BF2093620070
:1059300091E084BF909363009DE284BF90938000C8
:1059400093E084BF9093600080E090E22091650036
:1059500020FDD2C021E02093030A8EEF8093260A17
:105960008093270A9BE09093000A32E03093E6058B
:105970002093430A8093660A8093670A9093400AB3
:105980009093E70537E03093010B80930C0B109256
:105990000D0B95E09093000B3093110B80931C0B33
:1059A00010921D0B9093100B3093310B80933C0B96
:1059B00010923D0B9093300B4FEF5FE04093AA0B9A
:1059C0005093AB0B80E88093820B1092810B4EEFCB
:1059D00050E04093AE0B5093AF0B88ED34E184BFA1
:1059E0003093680081E18093800BE0E0F6E09283E1
:1059F0008EE0858380E6838390838091B000887FEA
:105A000085608093B0008091B200887F856080932C
:105A1000B2008FED9EE280932C0B90932D0B209380
:105A2000250B1092210B83E08093200B78940E9429
:105A3000CF1E8E010D5C1F4F0DAB1EAB82EA97E5AA
:105A40000E949313892B09F4A9C082EA97E50E946A
:105A50007113D0900E578A3009F05FC5AD2DB0E0BC
:105A6000AF59B84A1C92E0916157EF53EC3308F0FC
:105A70008DC00E2E000CFF0BE05CF24D0C94CA435F
:105A80007132C62DC62DC62DC62DC62DC62DC62DCE
:105A9000C62DC62DC62DC62DC62DC62DC62DC62D6E
:105AA000C62DC62DC62DC62DC62DC62DC62DC62D5E
:105AB000C62DC62DC62DC62DC62DC62DC62DC62D4E
:105AC000C62DC62DC62D822DB92D8A2EA72EB02EFD
:105AD000CE2EC62D1031722EDF2EA730AF301031F2
:105AE000C62D2A31C62D3A316931C62DC62D433215
:105AF00040324932C62D5032019709F027CF83E05A
:105B00000E94351212E0D11241C082E697E50E9450
:105B1000C33E843041F1883041F1893041F58BE555
:105B20008093796069EE71E282EA97E50E94091438
:105B30008091796061EB71E08B3251F064E673E043
:105B4000863531F063E973E08B3511F070E060E089
:105B500082EA97E50E94A91A64EE71E282EA97E56B
:105B60000E94251A13C08BE2DBCF86E5D9CF80E0F7
:105B7000D7CF22E0D2120AC082E697E50E94C33E48
:105B8000019709F0ACC081E08093BD6080E4A1E69C
:105B9000B7E51D928A95E9F710920E57809111573B
:105BA00090914658992389F0882379F081E0809379
:105BB00048580E94BA126093495870934A5880938B
:105BC0004B5890934C5810921157809110579091C8
:105BD0005658992389F0882379F081E080935858AA
:105BE0000E94BA126093595870935A5880935B5828
:105BF00090935C581092105780910F57909166586F
:105C0000992389F0882379F081E0809368580E9475
:105C1000BA126093695870936A5880936B58909346
:105C20006C5810920F579DE3E92E98E5F92E8701E5
:105C3000D12CC12C560184E0AA0CBB1C8A95E1F73B
:105C4000F501E35CF74A4F018385D80119969C91D1
:105C5000992309F481C4882309F47EC40E94BA12EE
:105C6000F40124853585468557851B012C01221AB0
:105C7000330A440A550AB201A101D8018D919C91C1
:105C8000B0E0A0E084179507A607B70708F064C442
:105C9000B1E0CB1609F44EC4E2E0CE1609F450C4CC
:105CA0008091080486FB882780F9F501E35CF74AB8
:105CB0001386D8011A969C911A97981709F44CC428
:105CC00012969C91811142C4923009F042C4F801AD
:105CD000278130852F5F3F4F278330873AC410924A
