:100200000C9449120C9473120C9473120C948C2756
:100210000C9473120C9473120C9473120C9473124A
:100220000C94CB270C9473120C9473120C947312CD
:100230000C9473120C9473120C9473120C9473122A
:100240000C9473120C9473120C94BF2B0C947312B5
:100250000C9473120C9473120C9473120C9473120A
:100260000C94C2270C9473120C9419280C947312DA
:100270000C9473120C9473120C94C5270C9494274D
:100280000C9473120C9473120C9473120C94BC277C
:100290000C9473120C9473120C9473120C947312CA
:1002A0000C9473120C9473120C94952B0C9473127F
:1002B0000C9473120C94C8270C94BF270C947312DF
:1002C0000C9473120C9473120C9473120C9473129A
:1002D0000C9473120C941E270C9419270C9423274A
:1002E0000C9473120C9473120C9473120C9473127A
:1002F0000C94731205A84CCDB2D44EB93836A9026D
:100300000C50B9918688083CA6AAAA2ABE00000013
:10031000803F4E414E494E495459494E46CDCCCC72
:100320003D0AD7233C17B7D13877CC2B329595E6C9
:10033000241FB14F0A000020410000C84200401CA9
:100340004620BCBE4CCA1B0E5AAEC59D74AED580AD
:10035000A83FD300408D142002A1C8DA12817FD9B2
:10036000F1DB40A4A6AF766F6C74616765203D2019
:1003700031706861736500656D6F6E506932006839
:1003800061726477617265203D20007665727369E1
:100390006F6E203D20006669726D77617265203D49
:1003A00020656D6F6E5F434D5F3643545F74656DBE
:1003B00070657261747572650074656D705F656EED
:1003C00061626C65203D2030004E6F2074656D7059
:1003D000657261747572652073656E736F727320D8
:1003E00064657465637465642C2064697361626C10
:1003F000696E672074656D706572617475726500F1
:1004000074656D705F656E61626C65203D203000C3
:1004100074656D705F656E61626C65203D203100B2
:100420006A736F6E203D206F6666006A736F6E2080
:100430003D206F6E00646174616C6F67203D200029
:100440002C20694C656164006943616C00617373C1
:10045000756D656456203D20007643616C203D201B
:10046000004C6F77506F7765724C616273002C207F
:100470007266466F726D6174203D20002C2072669A
:10048000506F776572203D20002C2072664E6F649D
:1004900065203D2000204D487A2C20726647726FFF
:1004A0007570203D20005246203D206F6E2C20723A
:1004B0006642616E64203D20005246203D206F66FA
:1004C00066006D73002C2070756C736550657269E1
:1004D0006F64203D20006F66660070756C73652048
:1004E0003D200000030C0F30333C3FC0C3CCCFF0A5
:1004F000F3FCFF4E6F20454550524F4D20636F6E09
:10050000666967004C6F6164656420454550524FD1
:100510004D20636F6E666967007672656661203D87
:1005200020001E6C0D0E206002010308070A08015E
:100530000303050701040104060306060706060671
:1005400006060101060606060D0907080807070941
:100550000701050807090709070908070707090D23
:100560000809080204020508020606050606040634
:100570000601020601090606060604050406070927
:10058000060706030103070700000000FE141E0013
:100590001E0000009090F89690F89690001C0000C5
:1005A0001C000000182422FF4242840810103C1056
:1005B00008041C22221CC0308C4240800000100C19
:1005C00000000C10100C805C2262920C80000C1059
:1005D0001010100C08101E00F00C021C6080020CA1
:1005E000F080601C04140E14040000000000404061
:1005F00040F84040400000000C0000000070808087
:10060000808000000000001000C0380618040000C0
:10061000FC02020202FC0C101010100C0804FE0078
:10062000001C0C020282423C1018141010100C0224
:10063000222222DC0C101010100C8040300804FE26
:100640000004040404041C043816121212E20C10F4
:1006500010101804F844222222C40C101010100CA0
:10066000020202E21A0600001C000000DC22222224
:1006700022DC0C101010100C3C42424222FC0810EC
:10068000101008040810087040A0A0101008000006
:1006900000040408909090909090000000000000EA
:1006A000081010A0A0400804040000000C028242C0
:1006B000221C000014000000E01804C422121212D0
:1006C000A2720408F00C30404C909090889C90509E
:1006D0004C200080E09C829CE08000180400000018
:1006E00000000418FE2222222222DC1C101010100E
:1006F000100CF80402020202040804081010101082
:100700000804FE020202020204F81C10101010106D
:100710000804FE2222222222221C10101010101087
:10072000FE2222222222021C000000000000F80407
:10073000020202424244C8040810101010100804BB
:10074000FE2020202020FE1C00000000001CFE1CBB
:1007500000000000FE0C1010100CFE80402050889D
:1007600004021C00000000040810FE00000000004D
:10077000001C101010101010FE0C30C000C0300C07
:10078000FE1C000004180400001CFE041860800019
:10079000FE1C00000004081CF8040202020202040D
:1007A000F8040810101010100804FE4242424242A1
:1007B0003C1C000000000000F804020202020204D7
:1007C000F8040810101014081C10FE424242C242E5
:1007D000423C1C000000000408101C22222242425D
:1007E0008C0C10101010100C020202FE020202000B
:1007F00000001C000000FE0000000000FE040810C5
:1008000010100804061860800080601806000000C0
:100810000418040000000638C000C03C023CC000C0
:10082000C03806000004180400000004180400008A
:10083000020C906060900C02100C000000040C1080
:1008400002041820C020180402000000001C000050
:10085000000000028242221A060210181410101022
:100860001010FE02FC800638C0000000041802FED2
:1008700080FC201C021C2000000000000000000082
:100880000000000080808080808080800204000062
:100890001088484848F00C101010081CFE1008087A
:1008A00008F01C081010100CF0080808100C1010AC
:1008B0001008F008080810FE0C101010081CF04872
:1008C000484848700C101010100808FC0A0A001C58
:1008D0000000F008080810F84C909090887CFE10FA
:1008E000080808F01C000000001CFA1C00FA807CBC
:1008F000FE8040A010081C0000000C10FE1CF81028
:100900000808F0100808F01C0000001C0000001C83
:10091000F810080808F01C000000001CF008080887
:1009200008F00C101010100CF810080808F0FC0863
:100930001010100CF008080810F80C10101008FC2B
:10094000F81008081C0000003048484890081010B3
:10095000100C08FE0808001C1010F800000000F839
:100960000C101010081C1860800080601800000433
:100970001804000018E000E018E000E01800041877
:100980000400041804000830C0C03008100C000037
:100990000C101860800080601800808C700C0000C3
:1009A000080888681808101814101010807C0200BD
:1009B0007C80FEFC027C80807C00402020604040E7
:1009C0002000000000000000FC0404040404FC1CDF
:1009D00010101010101C697A151920600703070FFA
:1009E0000C16100207070B0F0407030A0C0A0C0B66
:1009F0000D0C0C0C0C0D03040D0E0E0A14100D0F33
:100A00000F0C0B100E06080E0B100E110C110E0D14
:100A10000F0D0F150E0D0E060A060E0F040B0C0B14
:100A20000C0C070C0B03060C02130B0C0C0C080A25
:100A3000080B0C110C0C0B0B020B0F00000000003C
:100A400000000000000000000000000000000000A6
:100A5000000000000000000038F8F8007F7F000C64
:100A60000C000000FCFC000000FCFC000100000089
:100A70000100000000000000000000000000000075
:100A8000000080808080F0B8808080F8988080406E
:100A9000606161F17F4341E1F97F616161010000C3
:100AA000000F030000080F0100000000000000001C
:100AB00000000000000000000000000080C0E060B6
:100AC00060FC60606060E000070F1C1818FF3830A1
:100AD00030E0E080060E0C0C0CFF0C0C0607030146
:100AE000000000000000000000000000F0F8180CFA
:100AF0000C1CF8F000000000C0E038080000000006
:100B00000000070F0C08080C0F07C0F03C0F030093
:100B1000F8F80C0C0C1CF8F00000000000000C0FA2
:100B2000030000000000070F0C080C0C0703000076
:100B300000000000000000000000000000000000B5
:100B4000000000000060F8F80C0C0C0CF8F86000D5
:100B500000000000C0F0F90F07060E1B3171E0C065
:100B6000FC3C00000003070E0C0C0C0C0C060703E9
:100B700003070E0C00000000000000000000000051
:100B800000000000FCFC0001000000000080E07894
:100B90001C0C04FCFF0700000000010F3F78E08000
:100BA0000000000000808080040C1C78E0800000C1
:100BB00000000087FFFC0080E0783F0F008080800D
:100BC0000000000010302060C0FCC0602030100227
:100BD000020301011F0101030206000000000000E2
:100BE0000000000000000000000000000000000005
:100BF00000000000000000E0E0000000000000181D
:100C0000181818181818FFFF1818181818180000C6
:100C100000000000000F0F000000000000000000B6
:100C200000000000000000000000000000000000C4
:100C300000000000E0FC3E0E00000000000000008C
:100C400000000018181818181818000000000000FC
:100C500000000000000000000000000000000E0E78
:100C60000E000000000000000000C0F83C0400007E
:100C700000C0F83F07000000E0781F0700000000F8
:100C8000000000000000000000000000C0F0781824
:100C90000C0C0C1838F0E080FFFF00000000000092
:100CA00000E1FF3F0107070C0C0C0C0C0E070100C4
:100CB0000000000000000000000000000060607004
:100CC000F8FC0000000000000000FFFF0000000032
:100CD0000C0C0C0C0F0F0C0C0C0C00000000000096
:100CE000000000000018180C0C0C1C1878F0E00034
:100CF000000080C0E070381C0F0701000E0F0F0DC0
:100D00000C0C0C0C0C0C0C0C000000000000000083
:100D1000000000000018181C0C0C0C1C38F8F00027
:100D2000000000040E0E0E1BF9F0060E0C0C0C0C4D
:100D30000C0C0E0703000000000000000000000083
:100D40000000000080C06030F8F8F8000070786E95
:100D50006763616060FFFFFF6060000000000000EB
:100D600000000F0F0F000000000000000000000056
:100D70000000000000F8F8181818181818181800C3
:100D8000000707060606060E0CFCF8E0060E0C0C23
:100D90000C0C0C0C0E07030000000000000000000B
:100DA0000000000080E0F0301818080C0C0C000067
:100DB000FFFF0C06060606060EBCF8F00103070E40
:100DC0000C0C0C0C0E0703010000000000000000DA
:100DD00000000000181818181818181898F8783813
:100DE00000000000C0F0781E0701000000000C0F9A
:100DF00007010000000000000000000000000000EB
:100E000000000000E0F0B81C0C0C0C0C18F8F0000E
:100E1000F1F31F0E060C0C1C1EF3F1C003070E0CA1
:100E20000C08080C0C070301000000000000000083
:100E30000000000080E0F018180C0C0C1838F0E0EE
:100E4000C0010F1F18383030301098FFFF0F00001E
:100E50000C0C0C0C0C0E060303000000000000003C
:100E600000000000000000008080800303030E0EDD
:100E70000E0000000080808000030303E0FC3E06BB
:100E800000000000000000000000000000808080E2
:100E9000C01838386C6CC6C6C383810101000000DD
:100EA0000000000000000101030306000000000034
:100EB0000000000000000000000000000000000032
:100EC000000000000000C6C6C6C6C6C6C6C6C6C666
:100ED000C6C6C6C6000000000000000000000000FA
:100EE0000000000000000000000000000000000002
:100EF000C0C0808000000000000000000000000072
:100F000001018383C3C6666C3C38381006030303B3
:100F100001010000000000000000000000000000CF
:100F2000000000000000000018180C0C0C1C18F841
:100F3000F0E000000078780C0E0703000000000CC1
:100F40000C00000000000000000000000000000095
:100F50000080C06030181888888C8C8C8888183085
:100F600070E080007CFF010000FCFF8301010101B3
:100F700081FF00000000FF7C0003070C18303123C4
:100F80002363636361230302020301000000000086
:100F90000000000000000000000000000000000051
:100FA0000000000000C0F83838F8E08000000000C1
:100FB0000000C0F87F6F61606060677FFCE0000048
:100FC000080E0F030000000000000000010F0F0CCE
:100FD0000000000000000000000000000000000011
:100FE000F8F8F8181818181818B8F0E000FFFFFF04
:100FF0000C0C0C0C0E0E0F1DF8F00F0F0F0C0C0C40
:101000000C0C0C0E0607030000000000000000009E
:10101000000000000080E0F03818180C0C0C1C18C0
:101020001838301EFFF380000000000000000000B0
:10103000000000000307070E0C0C0C0C0C0C0E0635
:10104000060000000000000000000000000000009A
:10105000F8F8F8181818181818183070E0C000FFC1
:10106000FFFF000000000000000080F3FF3F0F0FB3
:101070000F0C0C0C0C0C0E06070303000000000004
:10108000000000000000000000000000F8F8F81860
:101090001818181818181818FFFFFF060606060675
:1010A000060606060F0F0F0C0C0C0C0C0C0C0C0C8F
:1010B000000000000000000000000000F8F8F81830
:1010C00018181818181818FFFFFF0C0C0C0C0C0C33
:1010D0000C000F0F0F0000000000000000000000D7
:1010E00000000000000000000080E0F03018180848
:1010F0000C0C0C0C181838301EFFF3800000000098
:10110000001818181838F8F800000303070E0C0C24
:101110000C0C0C0C0C0E0707000000000000000077
:101120000000000000000000F8F8F80000000000D7
:10113000000000F8F8F8FFFFFF06060606060606A0
:1011400006FFFFFF0F0F0F00000000000000000F60
:101150000F0F000000000000000000000000000071
:101160000808F8F808080000FFFF00000C0C0F0F3B
:101170000C0C0000000000000000080808F8F8F857
:101180000000000000FFFFFF0C0C0C0C0C07070117
:101190000000000000000000F8F8F800000080C027
:1011A000E07038180800FFFFFF1C1E1F7FF1E0C031
:1011B000000000000F0F0F00000000000103070EE9
:1011C0000C0800000000000000000000000000000B
:1011D000F8F8F80000000000000000FFFFFF00002A
:1011E0000000000000000F0F0F0C0C0C0C0C0C0C7E
:1011F0000C0000000000000000000000F8F8F87883
:10120000E0800000000080E07838F8F8FFFFFF0081
:1012100001071E78703E07010000FFFF0F0F0F004F
:10122000000000000000000000000F0F00000000A0
:10123000000000000000000000000000F8F8F8388E
:10124000F0C08000000000F8F8F8FFFFFF00000386
:101250000F3EF8E080FFFFFF0F0F0F0000000000BF
:101260000003070F0F0F0000000000000000000047
:101270000000000000C0E0F03818180C0C0C181822
:1012800038F0E080001EFFF3800000000000000046
:10129000000080F3FF3E00000307060E0C0C0C0C50
:1012A0000C0E060703000000000000000000000014
:1012B0000000000000000000F8F8F81818181818CE
:1012C0003870E0C0FFFFFF10101818181C0E07033D
:1012D0000F0F0F00000000000000000000000000E1
:1012E000000000000000000000C0E0F03818180CFA
:1012F0000C0C181838F0E080001EFFF3800000008E
:1013000000000000000080E7FF1E00000307060E3B
:101310000C0C0C1C7CFEC6C783C0C0000000000083
:10132000000000000000000080808000F8F8F8183D
:10133000181818181878F0C00000FFFFFF181818C8
:101340003878ECC7870100000F0F0F000000000085
:101350000001030F0E080000000000000000000064
:1013600000000000E0F038181C0C0C0C1C181818B9
:10137000000307070E0C0C0C1C1C1878F0E0060E7E
:101380000C0C0C0C0C0C0C0E0703010000000000F0
:101390000000000000000000181818181818F8F8CD
:1013A000F8181818181818000000000000FFFFFFB8
:1013B0000000000000000000000000000F0F0F0000
:1013C000000000000000000000000000000000001D
:1013D00000000000F8F8000000000000000000F825
:1013E000F8FFFFC00000000000000000FFFF000346
:1013F000070E0C0C0C0C0C0C070701000000000081
:10140000000000000000000038F8E080000000004C
:10141000000000C0F878080001073FFCE00000C0B1
:10142000F07E0F03000000000000010F0F0E0F03FD
:1014300000000000000000000000000000000000AC
:101440000000000008F8F8800000000000F078F8C4
:10145000F00000000000C0F87800000F7FF8800066
:10146000F07F0700000FFFF000C0FC7F07000000C6
:101470000000070F0F070000000000000F0F0F070C
:10148000000000000000000000000000000000005C
:101490000000000000000000001838F0E0800000AC
:1014A00000C0E078381800000080E1773F1E7FF32D
:1014B000C0800000080C0F030100000000000307BB
:1014C0000E0C000000000000000000000000000002
:1014D0001878F0C08000000080E0F03808000000BC
:1014E0000307FEFCFE070100000000000000000FE3
:1014F0000F0F0000000000000000000000000000CE
:101500000000000000181818181818181898F8F893
:101510003818000080C0E0703C0E07030100000096
:101520000C0E0F0D0C0C0C0C0C0C0C0C0C0C00000D
:10153000000000000000000000000000FCFC0404AB
:101540000404FFFF00000000FFFF80808080808097
:10155000808080800C3CF8C000000000000000008B
:1015600001073EF8C0000000000000000000073F37
:1015700078C0000000000000000000000404040423
:10158000FCFC00000000FFFF80808080FFFF808067
:1015900080808080000080C0E038183870E08000D3
:1015A00000000C0E070100000000000003070E08F9
:1015B000000000000000000000000000000000002B
:1015C000000000000000000000000000000000001B
:1015D000000000000000000000000000000000000B
:1015E00000000000000000000000C0C0C0C0C0C07B
:1015F000C0C0C0C0C0C0C0C0C0000000000000002B
:101600000000000000000000030F1C10000000009C
:10161000000000000000000000808080808080804A
:1016200080800080E1E1313131111919FFFF03079A
:101630000F0C0C0C0C0C060F0F000000000000003B
:1016400000000000FCFC0000808080808000000022
:10165000FFFF030101010101038FFEF80F0F0E0CC4
:101660000C0C0C0C0E070300000000000000000032
:10167000000000000000008080808080808000F8F2
:10168000FE8F03010101010101010003070E0C0C93
:101690000C0C0C0C04000000000000000000000016
:1016A00000000080C0C0C0C08080FCFCF8FE8F033A
:1016B000010000010103FFFF0003070E0C0C0C0CDE
:1016C00006060F0F000000000000000000000000F0
:1016D0000000008080C0C0C08080000078FEFF3322
:1016E0003131303131333F3C000307060C0C0C0C18
:1016F0000C0C0E06000000000000000000000000BE
:1017000080E0F8BC8C8C8C01FFFF01010101000F0F
:101710000F0000000000000000000000000000803A
:10172000808080808080000078FECF03010101016D
:101730000103FFFE0003C7868E8C8C86C6F77F0FE1
:10174000000080808080808000000000FCFC0000A1
:1017500080808080808000FFFF030301010101037E
:10176000FFFE0F0F000000000000000F0F00000040
:1017700000000000000000009C9C00FFFF000F0F15
:1017800000000000008080809C9C00010101FFFFA0
:10179000808080C0FF7F808080800000FCFC000093
:1017A0000000000080808000FFFFE07078FCCE87A2
:1017B000030100000F0F000000000103070E0C08DA
:1017C000000000000000000000000000FCFCFFFF23
:1017D0000F0F00008080000080808080800000006B
:1017E00080808080808000FFFF03030101010107EA
:1017F000FFFF030101010103FFFF0F0F00000000C5
:101800000000000F0F0000000000000F0F0000009C
:1018100000000000000000000000000000000000C8
:101820008080000080808080808000FFFF030301B3
:1018300001010103FFFE0F0F000000000000000F78
:101840000F00000000000000000000000000008009
:10185000C0C0C0C080000000F8FE8F03010000017E
:101860000107FFFC0003070E1C18181C0C070701DA
:101870000000000000000000000000008080000068
:101880008080808080000000FFFF030101010101D2
:10189000038FFE78FFFF0E0C0C0C0C0C06070100EA
:1018A00080800000000000000000000000000080B8
:1018B000808080808080808078FECF0301010101DC
:1018C0000103FFFF0003070E0C0C0C0C0607FFFFC3
:1018D0000000000000000000000080808080000008
:1018E00080808080FFFF0703010101010F0F0000CE
:1018F00000000000000000000000000000008080E8
:10190000808080808080001F3F3131716161E1C340
:10191000060E0C0C0C0C0C0C07070000000000005D
:101920000000000080F8F8808080808001FFFF01C7
:10193000010101010003070F0C0C0C0C000000005A
:10194000000000008080000000000000008080FF98
:10195000FF00000000000000FFFF03070F0C0C0C4D
:101960000C06060F0F000000000000000000000041
:1019700080800000000000000000808001073FF828
:10198000E00000C0F83E0F0100000000070F0F0745
:101990000100000000000000000000000000000046
:1019A00080800000000000008080000000000080B7
:1019B00080011FFFF00080F83F070F7EF08080F865
:1019C0007F070000000F0F0F0100000000030F0F42
:1019D0000700000000000000000000000000000000
:1019E00000000000808080000000000000808080F7
:1019F0000001038FDCF8F8FC8E070100080C0F03D0
:101A000001000001030F0E080000000000000000AC
:101A100000000000808000000000000000008080C6
:101A200001073FFCE08000E0F83E0F01000000806D
:101A3000F37F1F070000000000000080800000000E
:101A40000000000080808080808080808080000195
:101A50000181C1E1711D0F0703000C0E0F0D0C0C6D
:101A60000C0C0C0C0C00000000000000000000003A
:101A70000000000000F8F80C0C040430303078CE80
:101A800087030000000000000000037FFEC080808C
:101A9000800000000000000000008080FCFCFFFFD0
:101AA000FFFF808004040C0C3CF8E0000000000004
:101AB0000000000087CF58703030808080C0F07FF9
:101AC0001F000000000080800000000000000000F7
:101AD00000000000000000000000000000000060A6
:101AE000781C0606060C1830606060603E1E000020
:101AF00000000000000000000000000000000000E6
:101B00000000000000000000000000004D031980EC
:101B100040005374617274696E6720656D6F6E501A
:101B20006932204F4C4544000A00202868696464EB
:101B3000656E292E00206279746573002C20446143
:101B400074612073697A653A2000205369676E6179
:101B5000747572653A20004E6F2064617461206272
:101B60006C6F636B20666F756E64202D2045455049
:101B7000524F4D206170706561727320746F2062E6
:101B80006520666F726D617474656420746F204F98
:101B9000454D205374616E646172642062757420D7
:101BA000756E757365642E000A0020627974657322
:101BB0002C206E6F7420666F726D61747465642082
:101BC000746F204F454D205374616E6461726400E0
:101BD00053697A653A2000446F6E652E204E657712
:101BE00020636F6E66696720736176656420746F29
:101BF00020454550524F4D00536176696E672E2E39
:101C00002E00536B657463682077696C6C206E6F6F
:101C1000772072657374617274207573696E6720C2
:101C200064656661756C7420636F6E6669672E000B
:101C3000526573657474696E672E2E2E0020000A3B
:101C4000417661696C61626C6520636F6D6D616E78
:101C500064733A0A6C09092D206C697374207468E6
:101C6000652073657474696E67730A7209092D20A3
:101C7000726573746F726520736B6574636820643A
:101C8000656661756C74730A7309092D207361763A
:101C9000652073657474696E677320746F204545A1
:101CA00050524F4D0A7609092D2073686F772066D0
:101CB00069726D776172652076657273696F6E0AFD
:101CC0007A09092D207A65726F20656E65726779D1
:101CD0002076616C7565730A7809092D206578692D
:101CE000742C206C6F636B20616E6420636F6E7464
:101CF000696E75650A3F09092D2073686F77207436
:101D0000686973207465787420616761696E0A0A76
:101D1000773C783E09092D207475726E2052464D2D
:101D200020576972656C6573732064617461206FFC
:101D300066663A2078203D2030206F72206F6E3A20
:101D40002078203D20310A623C6E3E09092D207327
:101D5000657420722E662E2062616E64206E203DB6
:101D600020612073696E676C65206E756D657261A8
:101D70006C3A2034203D203433334D487A2C2038BF
:101D8000203D203836384D487A2C2039203D2039E6
:101D900031354D487A20286D6179207265717569F9
:101DA0007265206861726477617265206368616E34
:101DB0006765290A703C6E6E3E09092D20736574B3
:101DC0002074686520722E662E20706F7765722EE3
:101DD000206E6E202D20616E20696E7465676572BD
:101DE0002030202D20333120726570726573656E4E
:101DF00074696E67202D31382064426D20746F2025
:101E00002B31332064426D2E2044656661756C74FD
:101E10003A20323520282B372064426D290A673C4E
:101E20006E6E6E3E092D20736574204E6574776F5B
:101E3000726B2047726F757020206E6E6E202D20A1
:101E4000616E20696E746567657220284F454D206C
:101E500064656661756C74203D20323130290A6EEC
:101E60003C6E6E3E09092D20736574206E6F6465AB
:101E7000204944206E3D20616E20696E746567655F
:101E80007220287374616E64617264206E6F646581
:101E9000206964732061726520312E2E3630290A44
:101EA0000A643C78782E783E092D2078782E7820A8
:101EB0003D206120666C6F6174696E6720706F6988
:101EC0006E74206E756D62657220666F7220746824
:101ED0006520646174616C6F6767696E6720706507
:101EE00072696F640A633C6E3E09092D206E203DC5
:101EF000203020666F72204F46462C206E203D20F9
:101F00003120666F72204F4E2C20656E61626C65C9
:101F100020766F6C746167652C2063757272656ED4
:101F200074202620706F77657220666163746F720B
:101F30002076616C75657320746F207365726961BA
:101F40006C206F757470757420666F722063616C9D
:101F50006962726174696F6E2E200A6A3C6E3E0976
:101F6000092D207475726E204A534F4E20536572AE
:101F700069616C20666F726D6174206F6E2028310C
:101F800029206F72206F6666202830292E0A663C51
:101F900078783E09092D207878203D2074686520E6
:101FA0006C696E65206672657175656E637920690E
:101FB0006E20487A3A206E6F726D616C6C79206584
:101FC0006974686572203530206F722036300A6B74
:101FD0003C783E203C79792E793E203C7A7A2E7AE4
:101FE0003E0A09092D2043616C69627261746520A3
:101FF000616E20616E616C6F67756520696E7075CA
:1020000074206368616E6E656C3A0A090920207855
:10201000203D20612073696E676C65206E756D656B
:1020200072616C3A2030203D20766F6C7461676578
:102030002063616C6962726174696F6E2C2031205B
:102040003D206374312063616C6962726174696FF1
:102050006E2C2032203D206374322063616C6962F3
:10206000726174696F6E2C206574630A09092020FF
:1020700079792E79203D206120666C6F6174696EDC
:102080006720706F696E74206E756D626572206670
:102090006F722074686520766F6C746167652F635A
:1020A000757272656E742063616C696272617469C5
:1020B0006F6E20636F6E7374616E740A090920205D
:1020C0007A7A2E7A203D206120666C6F6174696E89
:1020D0006720706F696E74206E756D626572206620
:1020E0006F72207468652070686173652063616C2D
:1020F0006962726174696F6E20666F7220746869BC
:102100007320632E742E20287A206973206E6F74DA
:10211000206E65656465642C206F722069676E6F40
:1021200072656420696620737570706C6965642CD3
:10213000207768656E2078203D2030290A09092023
:1021400020652E672E206B30203235362E380A0956
:1021500009202020202020206B312039302E3920EA
:10216000322E30300A613C78782E783E092D207866
:10217000782E78203D206120666C6F6174696E67EF
:1021800020706F696E74206E756D62657220666F67
:10219000722074686520617373756D656420766F55
:1021A0006C74616765206966206E6F20612E632EF6
:1021B0002069732064657465637465640A6D3C7896
:1021C0003E203C79793E092D206D65746572207042
:1021D000756C736520636F756E74696E673A0A0972
:1021E0000920202078203D203020666F72204F4645
:1021F000462C2078203D203120666F72204F4E2CD7
:10220000203C79793E203D20616E20696E746567BF
:10221000657220666F72207468652070756C7365D6
:10222000206D696E696D756D20706572696F6420CF
:10223000696E206D732E202879206973206E6F746B
:10224000206E65656465642C206F722069676E6F0F
:10225000726564207768656E2078203D2030290AF9
:10226000743C783E09092D207475726E2074656D7A
:102270007065726174757265206D656173757265E4
:102280006D656E74206F6E206F72206F663A2078D5
:10229000203D2030206F72206F6E3A2078203D2044
:1022A000310A00456E657267792076616C756573D9
:1022B0002073657420746F207A65726F00436F6EAF
:1022C00074696E75696E672E2E2E007266506F7778
:1022D0006572203D200072664E6F6465203D2000CF
:1022E0002C20694C656164006943616C0076436130
:1022F0006C203D2000726647726F7570203D200093
:1023000066726571203D2000617373756D6564565A
:10231000726D73203D2000646174616C6F67203DB5
:1023200020006A736F6E203D206F6666006A736FCF
:102330006E203D206F6E00204D487A00726642612B
:102340006E64203D2000005EBCE2613FDD83C29CE4
:102350007E20A3FD1F41009D23BE46DB65F88C1146
:10236000AF32CA57E9742C7066002C49002C707586
:102370006C73653A002C54002C45002C50002C56F0
:10238000726D733A004D53473A007D002C227075F0
:102390006C7365223A002C2254002C2245002C221A
:1023A00050002C2256726D73223A007B224D534707
:1023B000223A002056004143206D697373696E67AD
:1023C000202D204170706172656E7420506F7765AA
:1023D000722063616C6320656E61626C65642C20A1
:1023E000617373756D696E6720004143207072657B
:1023F00073656E74202D205265616C20506F776577
:10240000722063616C6320656E61626C656400209C
:10241000656E61626C65642E0054656D70657261F5
:1024200074757265206D6561737572656D656E7426
:102430002069730053656E736F72206D6179206E31
:102440006F742062652072656C6961626C65002042
:102450000030002C207769746820616464726573B1
:102460007365732E2E2E0054656D706572617475E0
:1024700072652053656E736F727320666F756E643C
:10248000203D20000A0000080A400CFFC000C000E8
:10249000E92B11241FBECFEFCDBFDFE7DEBF11E474
:1024A000A0E0B0E4ECEEF6E900E00BBF02C007905C
:1024B0000D92A63AB107D9F729E4A6EAB1E401C022
:1024C0001D92A035B207E1F712E1C9E4D2E104C0E0
:1024D0002197FE010E94384BC834D107C9F70E94EA
:1024E000AD2D0C94744B0C940001809135498D30C6
:1024F00011F42D9A0895873011F40F9A08958131BF
:1025000009F44B9A0895000090913949911109C03E
:10251000809344098091430987FFFCCF809144094F
:102520000895809364098091630987FFFCCF8091AF
:1025300064090895809135498D3011F42D980895DE
:10254000873011F40F980895813109F44B9808955C
:10255000CF93DF93D82FC62FEDDF8D2F8068D3DF89
:102560008C2FD1DFDF91CF91C0CFCF93C82FE2DF87
:102570008C2FC9DF80E0C7DFC82FB7DF8C2FCF914A
:102580000895CF9390918D45981791F0C82F81E0D1
:10259000ECDF837E682F6C2B81E0DADF80918D4544
:1025A000811104C087E2E1DF87FFF8CFC0938D453A
:1025B000CF9108950F931F93CF93DF93EC0184E0A5
:1025C000E0DF2097D9F088818823C1F0B3DF8EEB5C
:1025D0009ADF8E01005F1F4F899195DFC017D107E9
:1025E000D9F783DFC1E08DE3C0DF8E7F682F6C2BCE
:1025F0008DE3DF91CF911F910F91AACFC0E0F3CF70
:10260000CF93DF93282F30E09FEF893220F5E90147
:10261000CD55DF4B98819F3FE9F0F901E453FF4B23
:10262000A08140E2A49FD0011124BC5FF901EB50CE
:10263000FF4BE081E830C0F5AD01405F5F4FE40F34
:10264000F52FF11D4FB7F89412969C939081977FC8
:1026500090834FBF988190933246893240F524533E
:102660003F4BF9018081F4E08F9FC00111248093DA
:1026700033469093344610923D4610923F46109256
:102680003E4610923C4610923B4610923A461092BB
:1026900039461092384610923746109236461092BC
:1026A0003546DF91CF910895F0E0E0E0CBCF8CEF9D
:1026B00093E0DDCF90913246E0913346F09134467D
:1026C000292F209580FF15C0F89481818223818372
:1026D0008081892B808380E58A95F1F78181982B11
:1026E00091837894A9E4B1E01197F1F700C000005C
:1026F0000895F8948181822381838081892B80834E
:10270000A5E8B1E01197F1F700C000008181982B96
:1027100091837894B8E2BA95F1F7089580913246A2
:10272000E0913346F0913446F8949081982B908351
:102730002181382F30952323218398E19A95F1F751
:1027400090819323908390E59A95F1F79281789404
:10275000EDE3F1E03197F1F700C00000982381E04C
:1027600009F480E00895E091A446F091A5468581A2
:10277000837009F443C0838180FF40C05091A74615
:102780005E7F30E020E090E04581842F83702F5FF2
:102790003F4F213C6DE5360740F0823049F18130F2
:1027A00049F184E093E094830895642F6C7021F0E4
:1027B0008CE0858382E1F6CF813021F4578330E0CD
:1027C00020E0E2CF823001F746FFDECF44FF04C0B5
:1027D000992341F383E0E6CF8091A846981760F4EF
:1027E000A92FB0E0A055B94B8C9180879F5FE7CFB0
:1027F00085E0D8CF81E1D6CF80E0D4CF80E10895C5
:10280000893260F590E0FC01EB50FF4BE081EF3F37
:1028100029F184539F4BDC018C9190E0DC01AA0FDD
:10282000BB1FAA5ABF4B2D913C9121153105B1F028
:102830004E2F50E0440F551F240F351FD9016D93C3
:102840007C93E05FA5E0880F991FAA95E1F7E80F58
:10285000F0E0FC5F8081887F826080830895109221
:1028600048451092464510924745109244451092B3
:102870004545109243451092424588E276DE82FF3C
:1028800006C08DE372DE682F64608DE361DE80E157
:1028900078CEAF92BF92CF92DF92EF92FF920F93DA
:1028A0001F93CF93DF936C017B018B01040F151FE6
:1028B000EB015E01AE18BF08C017D10759F069914E
:1028C000D601ED91FC910190F081E02DC6010995B2
:1028D000892B79F7C501DF91CF911F910F91FF905F
:1028E000EF90DF90CF90BF90AF900895FC01558995
:1028F0004689252F30E0842F90E0821B930B5417DC
:1029000010F0CF96089501970895FC01938984896A
:10291000981761F0A489AE0FBF2FB11D57968C9107
:1029200094899F5F9F73948B90E008958FEF9FEF42
:102930000895FC0193898489981731F08489E80F00
:10294000F11D878990E008958FEF9FEF0895FC01B6
:1029500093892489892F90E0805C9F4F821B910985
:102960008F7399270895CF93DF93EC01E881F98164
:102970000680F781E02D0995EC85FD85868116821C
:102980008581158280E484838C898B8B1A8ADF9100
:10299000CF9108958F929F92AF92BF92FF920F9323
:1029A0001F93CF93DF938C014A015B01D22FC32F7A
:1029B000DC0152968C91529780FF07C0ED91FC91FB
:1029C0000288F389E02DC8010995D11101C0D3E037
:1029D000FD2EE894F2F8DC2FD095D07CB1E68B1672
:1029E000B3EE9B06B6E1AB06B10428F0D260B69414
:1029F000A7949794879460E078ED88EB95E0A50123
:102A000094010E94E048C9012034310510F480E4AB
:102A100090E03C2F3B72D7FD30684D2F487C30FD55
:102A200041605FB7F894D8011C96ED91FC91168235
:102A3000F7828087918735FF8FC04F7781E0848749
:102A40008FEF85873F7D3583D683F8012189C08943
:102A500086859785FC0133E0239FE00DF11D11244D
:102A6000659174912C1708F059C0272F46FF76C046
:102A7000793288F430E0F901ED55FF4BA081AF3F8A
:102A800051F024533F4BF901308120E2329FF00195
:102A90001124FC5FA18347FF2AC021E0270F2932C0
:102AA00030F530E0F901ED55FF4BD081DF3FF9F013
:102AB000F901E453FF4BA081F0E2AF9FD001112454
:102AC000BC5F2B503F4BF9011081F0E0E0E0183083
:102AD00030F49D01205F3F4FF901E10FF11D3FB739
:102AE000F8941296DC932081286020833FBF40FF3A
:102AF00015C023E0270F293288F430E0F901ED55A5
:102B0000FF4B40814F3F51F024533F4BD901EC9193
:102B1000B0E2EB9FF0011124FC5F4183FC0123E054
:102B2000C29FE00DF11D1124319625913491F901D8
:102B3000FF27EE51FA4F9081832F80958923682BD0
:102B400060835FBFDF91CF911F910F91FF90BF9086
:102B5000AF909F908F900895148674CF342F307566
:102B600009F499CF793208F096CF30E0F901ED55AC
:102B7000FF4BD081DF3F09F48ECFF901E453FF4BC7
:102B8000A081E0E2AE9FD0011124BC5F2B503F4BEF
:102B9000F9011081F0E0E0E0183030F49D01205F91
:102BA0003F4FF901E10FF11D3FB7F8941296DC9306
:102BB0002081286020833FBF6ECFFC010FB607FE47
:102BC00004C0809111018823A9F0A485B5851496CD
:102BD0008C91149785FF0EC095898689981739F0D6
:102BE00015968C9115978F7D15968C930895E89482
:102BF0000C942E2708950F931F93CF93DF93EC012E
:102C00008A89982F91609A8B2D899E8929130AC0F1
:102C1000EC85FD85948195FF05C081FD0DC080E4A4
:102C2000848312C0062F1D891F5F1F738E89811335
:102C300015C0CE01C2DFFACF85818F77806490E422
:102C40009483EC85FD858583EC85FD85628381E039
:102C500090E0DF91CF911F910F910895ED89EC0FD6
:102C6000FD2FF11DE95AFF4F00831D8BEC85FD857B
:102C70008A8981FF09C085818F77806690E494837B
:102C8000EC85FD858583E3CF85818062FBCFEF9264
:102C9000FF920F931F93CF93DF938C017B01D0E0C2
:102CA000C0E0F701EC0FFD1F6491662331F0C8010D
:102CB000A2DF892B11F02196F4CFCE01DF91CF91C5
:102CC0001F910F91FF90EF90089595CFCF93DF93D1
:102CD000EC018A8980FF0BC0EC85FD85858185FD2F
:102CE00003C0848186FD03C0CE0167DFF5CFDF918D
:102CF000CF91089581E008950F98079A20E533EC6D
:102D000093E0179A44E1F9013197F1F74150D9F76F
:102D1000482F179AF9013197F1F7179A59E0F901FD
:102D20003197F1F75150D9F7415099F7915049F740
:102D3000E7CF9FB7F894E0912A0BF0912B0B80918D
:102D4000260B2091374430913844409139445091BA
:102D50003A449FBF80FF08C0EC3E8CE2F80720F4A5
:102D60002F5F3F4F4F4F5F4F0F01169407941694FC
:102D700007941694079416940794F00116940794F8
:102D8000E00DF11D16940794102C1694011816945A
:102D9000010C169401181694010C1694011816943F
:102DA0001694010C1124E019F109A8EEB3E00E9479
:102DB000D0486E0F7F1F811D911D08958F929F92A5
:102DC000AF92BF92CF92DF92EF92FF926B017C01A4
:102DD000B0DF4B015C01C114D104E104F104B1F096
:102DE000A8DF681979098A099B09683E7340810543
:102DF000910588F321E0C21AD108E108F10888EEB4
:102E0000880E83E0981EA11CB11CE5CFFF90EF90C7
:102E1000DF90CF90BF90AF909F908F9008952FB785
:102E2000F89460913744709138448091394490917E
:102E30003A442FBF0895CF92DF92EF92FF920F9303
:102E40001F93CF93DF93082F10E096E1899FE00155
:102E50001124CC5BD94B8E819F81A885B985892BA4
:102E60008A2B8B2B99F1DBDFCA88DB88EC88FD8805
:102E70006C197D098E099F09CE80DF80E884F98472
:102E8000C616D706E806F90658F48E859F85A889E8
:102E9000B9890196A11DB11D8E879F87A88BB98B1B
:102EA000BEDF26E1209FF001219FF00D1124EC5B95
:102EB000F94B628B738B848B958BDF91CF911F9134
:102EC0000F91FF90EF90DF90CF9008958E859F85B2
:102ED000A889B9890196A11DB11D8E879F87A88BEE
:102EE000B98BEBCF80E0A7CF81E0A5CF28E030E021
:102EF00041E071E090911044E0910E44F0910F4454
:102F0000A92FA095582F542370933644552341F18F
:102F100051815A2351835081592B508350E55A9542
:102F2000F1F75181952B918310923644A9E4B1E0D9
:102F30001197F1F700C00000440F21503109D1F67C
:102F400061110DC0E0910E44F0910F449081809189
:102F500010448095982390839181892381830895DB
:102F600051815A2351835081592B5083A7E6B1E0F8
:102F70001197F1F700C000005181952B91831092B9
:102F80003644B8E2BA95F1F7D7CF80911044E0917A
:102F90000E44F0910F449081282F20959223908326
:102FA0003DE7315061F190E19A95F1F792819823D4
:102FB000C1F39181922391839081982B9083AFE309
:102FC000BBE01197F1F700C0000091E09093364408
:102FD000908192239083A3EAB1E01197F1F700C0AA
:102FE00000009281982381E009F080E0109236443D
:102FF000EBE9F9E03197F1F700C00000089580E0B7
:103000000895CF92DF92EF92FF920F931F93CF9389
:10301000DF938091094090E025E0959587952A956A
:10302000E1F78095909583709927C0EFD2E002C0B8
:10303000D595C7958A95E2F720914840309149404F
:10304000DE010E94474B28E13CEF4FEF5FEF0E940B
:10305000B44880913F44909140440197280F391F14
:10306000209312443093134420E030E04AE754E4C4
:1030700060912C4070912D4080912E4090912F4076
:103080000E94FD470E94E6498E01DD0F220B330BA3
:103090006B017C01C01AD10AE20AF30AA70196016A
:1030A000A8EEB3E00E94D0486858734181099109A5
:1030B0000E949C4720910B4030910C4040910D4064
:1030C00050910E400E9479490E94E649609316444F
:1030D000709317448093184490931944DF91CF91D3
:1030E0001F910F91FF90EF90DF90CF900895CF92B6
:1030F000DF92EF92FF926B017C01C0922C40D09244
:103100002D40E0922E40F0922F4060914840709107
:10311000494090E080E00E949C47A70196010E94F0
:10312000FD470E94E64960933F447093404420E08D
:1031300034E244E759E4C701B6010E94FD472091FB
:103140000B4030910C4040910D4050910E400E9438
:1031500079490E94E64960938E4470938F4480932E
:10316000904490939144FF90EF90DF90CF9049CF9F
:10317000EF92FF920F931F93CF93DF93E09141441F
:10318000CE2FD0E07E01EE0CFF1CEE0CFF1CD70111
:10319000A05DBF4B4D935D936D937C931397B701E7
:1031A000615F7F4BDB010D931D932D933C93139730
:1031B0009E012E563B4B91E0D9019C93A82FB0E085
:1031C000A552BB4BEC93EF5FE0934144F0E0EE5F20
:1031D000FF4B8083DF91CF911F910F91FF90EF9074
:1031E0000895DC01ED91FC91F170FC5E8081089501
:1031F000CF92DF92EF92FF920F931F93CF93DF93C3
:1032000000D0CDB7DEB76C017C0103E010E009838C
:103210001A83CE010196E5DFF70181937F010F5FED
:103220001F4F0730110599F7C6010F900F90DF91DE
:10323000CF911F910F91FF90EF90DF90CF90089565
:103240000F931F93CF93DF9300D000D0CDB7DEB79D
:103250008C0119821A82CE010196C3DF8F34F9F4F2
:1032600081E090E089839A83CE010196BADF8534AC
:10327000B1F482E090E089839A83CE010196B1DFB8
:103280008D3469F481E00115110551F0CE010196EC
:10329000AFDF81E02B813C812017310709F080E00E
:1032A0002496CDBFDEBFDF91CF911F910F9108957E
:1032B0001F93CF93DF93EC01162F93DF8117B1F0AB
:1032C0009FB780910210282F227081FDFACFF894C9
:1032D0008DE984BF2093001023E184BF2093001068
:1032E000E881F981F170FC5E10839FBFCE01DF9110
:1032F000CF911F910895CF92DF92EF92FF920F939B
:103300001F93CF93DF9300D0CDB7DEB76C017C0164
:1033100003E010E009831A83F70161917F01CE0178
:103320000196C6DF0F5F1F4F0730110599F7C601E1
:103330000F900F90DF91CF911F910F91FF90EF9021
:10334000DF90CF9008950F931F93CF93DF9300D01A
:10335000CDB7DEB700919446109195468091964680
:1033600090919746081719079CF4C80195718983B5
:103370009A836FEFCE0101969BDF109290461092D8
:10338000914680918E4690918F46080F191FE6CF87
:103390000F900F90DF91CF911F910F910895CF93D0
:1033A000DF93EC018D85882329F081508D87DF9193
:1033B000CF9108959C818E819817C8F788896827D6
:1033C000E881F9810084F185E02D42E0CE01099584
:1033D0008C818F5F8C83EBCFDC01ED91FC910084BD
:1033E000F185E02D40E009940F931F93CF938C015A
:1033F000FC016483C085C60F6C2F6F70EDDF6C2FEE
:1034000062956F706061C801CF911F910F91E4CFF9
:10341000FC012781269526952695621730F4658351
:103420002385620F6770606BD7CF08951F93CF938A
:10343000DF93EC01142F8E81681710F4CE01D4DFD6
:10344000612FCE01DF91CF911F91E2CFCF92DF921A
:10345000EF92FF920F931F93CF93DF93EC01F62E21
:10346000C42ED22E1D868F81869586958695081747
:1034700010F00FEF080F1D2D011770F0412F6F2D69
:10348000CE01D4DFEF2CCE1428F06889CE0187DF7F
:10349000E394F9CF1F5FF0CF4D2D6F2DCE01DF915B
:1034A000CF911F910F91FF90EF90DF90CF90BECF03
:1034B0000F93CF93DF93CAE3D9E41B861A8660E4A7
:1034C000CE018ADF0F8106950695069501504E8143
:1034D000415020E060E0CE01B9DFDF91CF910F9144
:1034E00008952F923F924F925F926F927F928F92A8
:1034F0009F92AF92BF92CF92DF92EF92FF920F9383
:103500001F93CF93DF93CDB7DEB72697CDBFDEBF36
:10351000DC011E962D913C912115310509F46CC1F9
:103520008D839E83F9013296649031964491E42E06
:10353000F12CB7E0EB0EF11C53E0F594E7945A95AB
:10354000E1F7E982319654913196E4916D3009F5B5
:10355000FC018681811118C081E090E02696CDBFE4
:10356000DEBFDF91CF911F910F91FF90EF90DF9021
:10357000CF90BF90AF909F908F907F906F905F9013
:103580004F903F902F90089560E08D819E812CDFB9
:10359000E3CF6A3009F063C0AD81BE8116968C918D
:1035A0001697882319F060E0CD011EDFED81FE81C2
:1035B00001890E9DE02C112465816E0D8485882380
:1035C00049F027812695269526958E2D821B860FFC
:1035D000181624F08D819E811BDFBECFAD81BE8188
:1035E0001B969C911B97890F87701B968C931B973A
:1035F0002E1915962C9315971E96ED91FC913097E8
:1036000061F13396E491F0E0379633E0F595E79574
:103610003A95E1F70E9F002D1124EFEFE20F0E0F08
:10362000ED81FE81468141506481CF010FDFAD8184
:10363000BE811C968C911C97813009F08DCF1B9612
:103640006C911B97660F660F660F6F731A966C93DB
:103650001A976064CD01C0DE7FCF00E0DECF651732
:1036600008F4CAC08E2F90E0FC01E50FF11D6E1723
:103670001F060CF0C1C089010A5F1F4F651BED8159
:10368000FE8171855189759F502D11245C83F9014C
:1036900054912F5F3F4FF9012491352F223031058E
:1036A00008F06DC06E9CC0016F9C900D1124689F46
:1036B000F001699FF00D11240E0F1F1F512CAD81D9
:1036C000BE811496BC91BA83ED81FE812580F5857B
:1036D000FB83862C912CAA24A394B12C312C8981B4
:1036E000381608F087C0412CAD81BE8151968C916F
:1036F0005197481608F077C0EB811D96EC93311076
:1037000002C0442049F0AD81BE8115964C911597B9
:103710004F5F6A81CD018ADED12CC12CC61408F01E
:1037200056C0F801EC0DFD1D7490552061F0EA14AF
:10373000FB0449F4E72DF0E0052C02C0F595E79570
:103740000A94E2F77E2EED81FE818189823079F440
:10375000442009F438C072948FE07822E72DF0E01D
:10376000ED51FB4F7490672D8D819E8118DE672D82
:103770008D819E8114DE8FEFC81AD80ACFCF477093
:1037800028E0522E541A411101C0512CF801612C2D
:1037900030E020E0661631F04491240F311D63942F
:1037A0003196F8CF600E712E711CF3016490E29E89
:1037B000F001E39EF00DF29EF00D11248E0F9F1F7D
:1037C000080F191F7CCFF72DFF707F2EC7CFD12C8C
:1037D000AC81DA1631F060E08D819E81E0DDD3941A
:1037E000F7CF439481CF3394080D191DBFEFAB1A67
:1037F000BB0A75CF622DEECE90E080E0AFCEDC014B
:103800001C96ED91FC91938181851382118693839F
:1038100091E09583818708959C0126563F4FDC01F6
:103820005296EC91529751968C91E81730F4E20F32
:10383000F32FF11D808190E008958FEF9FEF0895A1
:10384000FC01DC01A656BF4F92898189981740F48C
:10385000A90FB11D2C919F5F928B822F90E008954C
:103860008FEF9FEF0895FC0181899289891B990B45
:103870000895CF92DF92EF92FF920F931F93CF9311
:103880006C014338510510F042E850E0C42F7B0131
:1038900010E000E00C1780F4D7016D917D01D60196
:1038A000ED91FC910190F081E02DC6010995980100
:1038B0002F5F3F4F892B49F4C801CF911F910F9182
:1038C000FF90EF90DF90CF9008958901E3CFFC0146
:1038D000A089A23858F4A80FB92FB11D58966C933F
:1038E00080898F5F808B81E090E0089590E080E098
:1038F0000895DC011A96ED91FC911B97309731F0F9
:1039000015968C91882311F090E009940895CF9337
:10391000DF93FC01A081B1811B968C911B97982F9E
:103920009C7029F01D968C911582148229C086FF07
:103930002AC0EF0180FF1DC081FF11C01D968C9130
:103940008383CF01D6DF1C821F82E885F9853097FB
:1039500009F00995E881F98183E0828711C01D96FD
:103960008C911D9783831582168283E01A968C931F
:1039700007C080E41B968C93CF01BBDF1D821E82A3
:10398000DF91CF91089587FFFBCF81FF22C084FF95
:1039900009C0828187FF06C08F77828382E01A96F2
:1039A0008C93C3CF828180688283C7818481C8174A
:1039B00070F4CE0FDF2FD11D8C851D968C931D9733
:1039C00083E01A968C9387818F5F8783D9CF82E0BB
:1039D000CDCF1D969C911D978581823868F4DF01BB
:1039E000A80FB11DA257BF4F9C9385818F5F858320
:1039F0000190F081E02DB0CF86E01A968C9315826D
:103A00001682BECFDC01ED91FC910088F189E02D9A
:103A100023E030E00994089590E080E00895DF927B
:103A2000EF92FF920F931F93CF93DF9320913F4626
:103A3000222379F010923D4610923F4610923E4666
:103A400080E0DF91CF911F910F91FF90EF90DF9079
:103A5000089520913246E0913346F0913446F8942F
:103A60003081422F40953423308378945DE7515064
:103A700009F330E13A95F1F732813223C1F3F8943A
:103A80003181342331833081322B30837894AFE31A
:103A9000BBE01197F1F700C00000F89430813423A7
:103AA0003083A3EAB1E01197F1F700C00000328142
:103AB0007894EBE9F9E03197F1F700C00000232397
:103AC00009F0B8CF7C01C8E0D0E011E081E0912F8F
:103AD000907F09F480E00E945A13110F2197B1F7EB
:103AE000F894E0913346F09134468081209132463B
:103AF000209528232083E0913346F091344681813C
:103B0000209132462095282321837894D1E000E04B
:103B1000D12CC1E00E948E13182F0E948E131130F9
:103B2000E9F48130D1F5C13408F484CFD0923D4618
:103B3000D11003C081E080933F46809135468823B1
:103B400009F478CFA5E3B6E4F701C70108962D91F3
:103B500021938E179F07D9F781E073CFE02FF0E014
:103B6000181311C080913D46C817A8F4DF01AE5C60
:103B7000B94B13968C918D2381F410E0C93010F469
:103B8000C0933E46DC2EEE5CF94B83819D2F9095D1
:103B9000892383830AC08C13F0CFE02FF0E0EE5C22
:103BA000F94B83818D2B838311E0812F0E945A135F
:103BB000CF5FDD0F11F40F5FD1E0083008F4AACF1A
:103BC000B2CF0F931F93CF93DF9380918D458031B8
:103BD00009F071C088E20E94B51282FF44C084E0FF
:103BE0000E94C1120E949A1280E00E94831280E01B
:103BF0000E948312D82FC82F833408F0C2E4C093E8
:103C0000434580E00E948312082F80E00E948312C7
:103C1000182F80E00E948312282F30E0A90196E03F
:103C2000440F551F9A95E1F744275370402B40935A
:103C3000444550934545322F222722273370212BAC
:103C40002093464530934745909133499417150684
:103C500011F0452B11F4D330B8F4109243450E9473
:103C600075120E942F1480918D45803121F580912D
:103C70004345882311F184E00E94C11281E0DF9165
:103C8000CF911F910F910895C350C09348458078FC
:103C900080934245D0E0DC1728F480E00E94831234
:103CA000DF5FF9CF0E94751280E10E94C11284E2A9
:103CB0000E94B512D8CF0E942F1480E0E0CF0F935E
:103CC0001F93CF93DF93893208F07CC090E0DC0132
:103CD000AD55BF4B2C912F3F09F474C08C01045398
:103CE0001F4BE801E881D0E2ED9FF0011124FC5F59
:103CF000611133C0268330812323AC014B505F4BCD
:103D0000211111C0EA012881309749F1283038F596
:103D10007096E20FF11D3FB7F8942081611122C027
:103D2000277F20833FBFFA0130813F3F09F44AC01B
:103D3000E8012881363058F53091E605432F477069
:103D4000241312C0EC91E53008F0EE0F8091010AC7
:103D5000E095E823E093010A35C02583CCCFF0E05D
:103D6000E0E0D9CF2860DDCF387169F4213079F4F3
:103D7000EC91E53008F0EE0F8091410AE095E823E0
:103D8000E093410A1FC0383111F4263089F3845979
:103D90009F4BFC01808185FF13C030E1839FF001C0
:103DA0001124F75F91819770973061F4EC9185321F
:103DB00070F4803298F48830E1F2803121F202C050
:103DC0008111F4CFDF91CF911F910F91089580342D
:103DD00071F08038B9F71092A006F4CF90E1899F76
:103DE000F0011124F75F81818F7E8183EBCF809179
:103DF000920B8E2339F3C0E22C9F900111243C5F7B
:103E0000E83030F5205F3F4FE20FF32FF11D4FB741
:103E1000F8949091800B9E7F9093800B90918E0BE5
:103E200090FFFCCF2091920B90E08095909530E030
:103E30008223932328ED24BF8093920B8091800BE3
:103E400081608093800B80818F7780834FBFBACF52
:103E5000F0E0E0E0DCCF0F931F93CF93DF93CDB77B
:103E6000DEB72897CDBFDEBF20918A4530918B45C4
:103E7000232B31F02091444430914544232B61F4AD
:103E80001092894510928C452896CDBFDEBFDF91F8
:103E9000CF911F910F910895182F809165400E9436
:103EA0000013E09165408FEFE93228F4AE2FB0E0C7
:103EB000AD55BF4B8C91809310448CEF93E0E93269
:103EC00040F4F0E0E453FF4B808124E0829FC00186
:103ED000112480930E4490930F441093894511232D
:103EE00009F496C020E030E040E85FE360912C40A8
:103EF00070912D4080912E4090912F400E949847C4
:103F000087FF03C08FE180930940009109409091A1
:103F10006440E0914444F091454480E020E335E77B
:103F2000981721F0219331938F5FFACF10923D467D
:103F300010923F4610923E4610923C4610923B46ED
:103F400010923A46109239461092384610923746EF
:103F5000109236461092354610928C45CE0101964D
:103F60005EDD882349F089818832C1F780918C45D4
:103F70008F5F80938C45F2CF8091644090918C4507
:103F8000891710F480938C45E0918A45F0918B4518
:103F900080818832A1F010E080918C45181778F468
:103FA00038E0139FC001112420918A4530918B4540
:103FB000820F931F34DD882311F01F5FEDCF0E9425
:103FC000C51760E08CEC0E94761760E08EE40E94DA
:103FD000761760E080E00E94761760E080E00E9443
:103FE000761760E0802F0E9476170E94C51760E068
:103FF0008CEC0E94761761E088E40E94761764E1F9
:1040000070E080E090E00E94DE160E9401183CCF34
:1040100080912B4087FDF9CF8932A4F4282F082EF8
:10402000000C330BF901ED55FF4B90819F3F51F090
:1040300024533F4BD901EC91B0E2EB9FF0011124E6
:10404000FC5F918360E03BDE80912B408932E8F693
:1040500090E0FC01ED55FF4B20812F3FB1F2FC01B8
:10406000E453FF4BA081E0E2AE9FD0011124BC5F7E
:104070008B509F4BFC013081F0E0E0E0383028F4B9
:10408000CD014096FC01E30FF11D9FB7F894129605
:104090002C938081877F80839FBFB7CF0F931F931F
:1040A000CF93DF93EC01062F142F8B89813120F4FD
:1040B000882329F0411103C00E94B3131B8A8B8906
:1040C00081110DC08A89880F8093A7461092A84657
:1040D00060E4111101C060E088E996E4F8DB602F2C
:1040E00088E996E4F4DB123041F48B898F5F8B8B87
:1040F000DF91CF911F910F9108950E94B3131B8AF6
:10410000F7CF0F931F93CF93DF93CDB7DEB72C97E5
:10411000CDBFDEBF681BF1F0062F10E0682F70E006
:10412000675B7A4BA801CE0101960E94654BE1E0E6
:10413000F0E0EC0FFD1FE00FF11F1082CE010196A1
:104140000E94FE452C96CDBFDEBFDF91CF911F911F
:104150000F91089590E080E0F5CF0F931F93CF93D8
:10416000DF93CDB7DEB72C97CDBFDEBF681BF1F074
:10417000062F10E0682F70E0675B7A4BA801CE0134
:1041800001960E94654BE1E0F0E0EC0FFD1FE00FAF
:10419000F11F1082CE0101960E94FB452C96CDBFE7
:1041A000DEBFDF91CF911F910F91089560E070E025
:1041B000CB01F4CFFB0101900020E9F73197AF016B
:1041C000461B570BDC01ED91FC910280F381E02D41
:1041D000099468E571E4EECF0F931F93CF93DF93BB
:1041E000EC010E9447168C01CE01F3DF800F911F76
:1041F000DF91CF911F910F91089566E973E08EE8EA
:1042000095E4EADF6BE873E08EE895E40E944716D8
:104210006BE571E48EE895E4CDDF6FE773E08EE83F
:1042200095E40E94471667E773E08EE895E4D4DFD3
:1042300066E673E08EE895E4CFCF8F929F92AF92BF
:10424000BF92EF92FF920F931F93CF93DF93CDB75F
:10425000DEB7A197CDBFDEBF7C01FA01CB0119A269
:10426000223008F42AE08E010F5D1F4F822E912C20
:10427000B12CA12CBF01A50194010E94E048F901D5
:10428000CA016A30ECF4605DD8016E938D01232B76
:10429000242B252B79F790E080E0109719F0BD01D1
:1042A000C70188DFA196CDBFDEBFDF91CF911F91FF
:1042B0000F91FF90EF90BF90AF909F908F900895D7
:1042C000695CE2CFCF92DF92EF92FF920F931F9340
:1042D000CF93DF9377FF1CC06A017B01EC016DE295
:1042E0000E9465168C0144275527BA014C195D09B7
:1042F0006E097F092AE0CE01A0DF800F911FDF91B8
:10430000CF911F910F91FF90EF90DF90CF90089584
:104310002AE0DF91CF911F910F91FF90EF90DF90F6
:10432000CF908BCFAB01770F660B770BCBCF6AEDBE
:1043300074E08EE895E40E9447168091154966ED79
:1043400074E08823A1F063E070E08EE895E4EADF92
:1043500065EC74E08EE895E40E944716609116497A
:10436000709117498EE895E4DDDF62EC74E08EE829
:1043700095E432CF4F925F926F927F928F929F928D
:10438000AF92BF92CF92DF92EF92FF920F931F9363
:10439000CF936B017C01742EAC019B010E94E94A12
:1043A00063E671E4811126C046015701E894B7F82D
:1043B0002FEF3FEF4FE75FE7C501B4010E94E94AE5
:1043C00081110CC02FEF3FEF4FE75FE7C501B4014C
:1043D0000E94984767E671E4181664F02FEF3FEFEC
:1043E0004FE75FE4C701B6010E949D4A1816A4F486
:1043F0006BE671E48EE895E4CF911F910F91FF90E9
:10440000EF90DF90CF90BF90AF909F908F907F9074
:104410006F905F904F90CECE2FEF3FEF4FE75FEC66
:10442000C701B6010E94984787FDE2CF20E030E047
:10443000A901C701B6010E94984710E000E087FF7C
:104440000AC06DE28EE895E40E9465168C01F7FAC9
:10445000F094F7F8F094C0E060E070E080E09FE353
:104460007C1641F020E030E040E251E40E947949BE
:10447000CF5FF6CFA70196010E9412492B013C01A4
:104480000E94E6494B015C012AE0BC01A4018EE8D0
:1044900095E4D3DE7C01E00EF11ECC23C9F1C50109
:1044A000B4010E949C479B01AC01C301B2010E9470
:1044B00011494B015C0160EA71E48EE895E47ADE13
:1044C000E80EF91EC15020F120E030E040E251E456
:1044D000C501B4010E94FD472B013C010E94E64941
:1044E0004B01B12CA12C2AE0B501A4018EE895E482
:1044F000A4DEE80EF91EC501B4010E949C479B0191
:10450000AC01C301B2010E9411494B015C01DACF39
:10451000C701CF911F910F91FF90EF90DF90CF9047
:10452000BF90AF909F908F907F906F905F904F90D3
:104530000895CF93DF931EDFEC018EE895E449DE0A
:104540008C0F9D1FDF91CF910895CF93DF93482F5C
:1045500050E070E060E02AE08EE895E46EDEEC0169
:104560008EE895E436DE8C0F9D1FDF91CF91089584
:104570008091D34869EB74E0882309F44CC066EA63
:1045800074E08EE895E40E9447168091D04861EB74
:1045900071E08B3251F064E673E0863531F070E003
:1045A00060E08B3511F463E973E08EE895E4BADEE0
:1045B00065E974E08EE895E40E9447164091D14881
:1045C00050E070E060E02AE08EE895E436DE69E8CD
:1045D00074E08EE895E40E9447166091D2486F73AC
:1045E00070E08EE895E49EDE6CE774E08EE895E47A
:1045F0000E9447164091D44850E070E060E02AE005
:104600008EE895E41ADE6EE674E08EE895E40E948A
:10461000471661E674E08EE895E4DECD611571051C
:1046200009F0C8CD90E080E00895AF92BF92CF929C
:10463000DF92EF92FF920F931F93CF93DF9300D0FF
:10464000CDB7DEB76C015B0110E000E00A151B0579
:104650000CF03DC07801EC0CFD1C85E1F822E982EC
:10466000FA82CE0101960E94F118803128F460E3AD
:104670008EE895E40E9465160F5F1F4FE982FA826B
:10468000CE0101960E94F118482F50E070E060E0E2
:1046900020E18EE895E4D1DD6BE771E48EE895E4E6
:1046A000BDDFC80187709927892B29F46BE771E476
:1046B0008EE895E4B3DFC8018F709927892B31F616
:1046C00064E874E28EE895E40E944716BFCF0F902D
:1046D0000F90DF91CF911F910F91FF90EF90DF909E
:1046E000CF90BF90AF900895CF92DF92EF92FF925C
:1046F0000F931F93CF93DF9367E674E28EE895E400
:104700000E94471640918C4550E070E060E02AE03E
:104710008EE895E492DD64E771E48EE895E47EDF4F
:104720004091644050E070E060E02AE08EE895E45B
:1047300084DD80918C45882309F457C063E574E2D9
:104740008EE895E449DD10E000E080918C4580170B
:10475000110609F00CF449C0680183E0CC0CDD1CA3
:104760008A95E1F7F12CE12CC0918A45D0918B45D7
:10477000CC0DDD1DCE0DDF1D8881803130F461E56B
:1047800074E28EE895E40E944716488150E070E09C
:1047900060E020E18EE895E450DD6FE474E28EE89D
:1047A00095E40E9447168FEFE81AF80A88E0E816A9
:1047B000F104D1F6E0918A45F0918B45EC0DFD1D99
:1047C0008681833031F464E374E28EE895E40E94DC
:1047D00047168EE895E4FDDC65E070E080E090E04F
:1047E0000E94DE160F5F1F4FB0CF8EE895E4F1DC1C
:1047F00069E174E28EE895E40E944716809189454C
:104800006FE671E4882311F06AE571E48EE895E4BF
:1048100005DF6FE074E28EE895E4DEDC8EE895E477
:10482000D8DC65E070E080E090E0DF91CF911F91EF
:104830000F91FF90EF90DF90CF900C94DE16809157
:10484000184909DB64E670E080E090E00E94DE1623
:1048500080911849882329F147DF80918945882371
:10486000A1F080918C4590E0892B91F469EC73E084
:104870008EE895E4B1DC69EB73E08EE895E4ACDC9E
:1048800080E0E9DA10920D45089590E080E0ECCFE9
:1048900060E174E08EE895E49FDC81E080930D4553
:1048A000089560E074E08EE895E496DCEBCF0F931A
:1048B0001F93CF93DF9369E574E08EE895E40E943F
:1048C00047166091D5487091D6488091D74890910D
:1048D000D84842E050E02DDE6DE474E08EE895E4C7
:1048E0000E9447166091D9487091DA488091DB4860
:1048F0009091DC4842E050E01CDE01EE18E4C1E09B
:10490000D0E068E474E08EE895E40E944716BE01AA
:104910008EE895E407DD69E771E48EE895E47EDED4
:10492000F80161917191819191918F0142E022DDB5
:1049300060E474E08EE895E40E944716BE018EE8BC
:1049400095E4F0DC69E771E48EE895E467DEF80150
:10495000648975898689978942E050E0EADD21966D
:10496000C730D10571F6E3DC03DE65E374E08EE861
:1049700095E40E9447166091114970911249809107
:1049800013499091144942E050E0D3DD80913249BF
:1049900060E274E0882311F06BE274E08EE895E445
:1049A000DF91CF911F910F9117CC0E94564B4F92E0
:1049B0005F926F927F928F929F92AF92BF92CF92AF
:1049C000DF92EF92FF92CF93DF93C82F80900B403E
:1049D00090900C40A0900D40B0900E4060914840E7
:1049E0007091494090E080E00E949C476B017C01FF
:1049F00060915040709151406F5F7F4F072E000CC7
:104A0000880B990B0E949E47A50194010E94FD47C7
:104A10002BED3FE049EC50E40E94FD47A7019601D1
:104A20000E94FD4720E034E244E759E40E947949BE
:104A30002B013C01D0E0BE016F5F7F4F072E000CC1
:104A4000880B990B0E949E47A50194010E94FD4787
:104A5000A70196010E94FD4720E034E244E759E4B3
:104A60000E9479496B017C01CC0FDD1FCC0FDD1F4B
:104A7000FE01E15FFF4B20E030E044EB53E4608156
:104A80007181828193810E9479499B01AC01C701A8
:104A9000B6010E9412492BED3FE049EC50E40E9420
:104AA000FD474B015C010E94A14A6B017C01C301DF
:104AB000B2010E94A14A9B01AC01C701B6010E944C
:104AC00079496B017C01FE01E25AFB4BC082D18225
:104AD000E282F382C501B4010E9476494B015C0178
:104AE000C301B2010E9476499B01AC01CA58DB4B5D
:104AF000C701B6010E94FD479B01AC01C501B4018D
:104B00000E941149688379838A839B83DF91CF91C7
:104B1000FF90EF90DF90CF90BF90AF909F908F90DD
:104B20007F906F905F904F900895CF93809348400F
:104B300090934940BC0190E080E00E949C47209106
:104B40002C4030912D4040912E4050912F400E949A
:104B5000FD470E94E64960933F44709340440E94A1
:104B60000118C0E08091504090915140C81719063B
:104B700024F48C2F1CDFCF5FF5CFCF910895CF9217
:104B8000DF92EF92FF920F931F93CF93DF93CDB7F6
:104B9000DEB7AD97CDBFDEBF87E08093354984E0B7
:104BA0008093364985E08093374986E08093384981
:104BB000109239491091D1488091D248809333495D
:104BC0001092344980E88093010480E180930104CD
:104BD0009FB7F89480E28093020480911504877F48
:104BE000809315049FBF80913849893288F490E002
:104BF000FC01ED55FF4B20812F3F51F084539F4B1B
:104C0000DC01EC91B0E2EB9FF0011124FC5F218309
:104C10000E947512809139498111B5C08091E405D7
:104C20008C7F8093E40580914109846080934109E1
:104C3000809140098162809340090E940F176B01A7
:104C40007C016AEA8FE20E94A8128FE20E94B512EC
:104C50008A3A59F00E940F176C197D098E099F0935
:104C6000623371058105910560F30E940F176C197D
:104C70007D098E099F09623371058105910508F050
:104C8000B3C00E940F176B017C0165E58FE20E94A3
:104C9000A8128FE20E94B512853559F00E940F17B5
:104CA0006C197D098E099F09623371058105910593
:104CB00060F30E940F176C197D098E099F096233FA
:104CC00071058105910508F08FC0FE0133968BE2D6
:104CD000DF011D928A95E9F781E0898384E08A8368
:104CE00022E02B8393E09D832E838F8380E488874B
:104CF00025E029879A8796E09B8793E39C8797E036
:104D00009D8728E02F8729E0298B29E12B8B32E42E
:104D10003C8B25E22D8B8E8B26E22F8B988F98E291
:104D2000998F20E12A8F99E29B8F9CED9C8F9EE2C8
:104D30009D8F98E89E8F9FE29F8F9DE298A390E3BE
:104D400099A347E34BA340E94CA348E34DA33EA3FB
:104D50003CE33FA33FE838A73DE339A72AA72FE666
:104D60002BA79CA79CE69E87888B1AA38E010F5FBA
:104D70001F4FF80180818823B1F061810E94A81241
:104D80000E5F1F4FF6CF8091E405837F8093E4058B
:104D900080916109846080936109809160098162DA
:104DA000809360094ACF90E080E00E94DA1269E9BE
:104DB00081E10E94A81284E00E94C1120E940F1794
:104DC0006B017C0187E20E94B51287FD0BC00E9437
:104DD0000F176C197D098E099F09623371058105D2
:104DE000910580F30E940F178DE791E40E94DA127B
:104DF0002091D248F4E12F9F8001112460E070E0FF
:104E0000CB010115110541F00E94A6459801110F33
:104E1000440B550B0E94B448AD96CDBFDEBFDF9169
:104E2000CF911F910F91FF90EF90DF90CF900C9456
:104E3000DE16EF93FF93EEE8F5E408C0EF93FF93DF
:104E4000EEE8F5E432C0EF93E0E653C02F932FB7BE
:104E50002F938F939F93AF93BF936894CF93DF93D8
:104E600020E0C485D8E09689DF01A90FB21FA95AB6
:104E7000BF4F8C9120E42C838A839F5F9F738D8129
:104E80002589291302C08F7D8D83968BDF91CF9169
:104E900016F00C94FA15BF91AF919F918F912F91BD
:104EA0002FBF2F91FF91EF9118952F932FB72F932D
:104EB0008F939F93CF93DF93C485D8E089819881A6
:104EC00081FD0DC0C38981E08C0F8F732489281761
:104ED00031F0CE0FDF2F20E0D21F9F8B838BDF912D
:104EE000CF919F918F912F912FBF2F91FF91EF9194
:104EF0001895FF938F938FB78F93F8E0808184810B
:104F000087FFFCCF85818F7B806885838F918FBFE2
:104F10008F91FF91EF9118951F920F920FB60F92FC
:104F2000112484E00E947C161F920F920FB60F92FC
:104F300011248F939F93AF93BF93809137449091A7
:104F40003844A0913944B0913A440196A11DB11D55
:104F50008093374490933844A0933944B0933A44B3
:104F600081E08093260BBF91AF919F918F910F901D
:104F70000FBE0F901F9018950F930AE00FC00F936C
:104F800008E00CC00F9306E009C00F9304E006C0D0
:104F90000F9302E003C00F9300E000C00F920FB622
:104FA0000F920BB60F921F921124FF921F932F9313
:104FB0003F934F935F936F937F938F939F93AF93A1
:104FC000BF93CF93DF93EF93FF93A6E5B0E4A00FD9
:104FD000B11DCD91DC91000F0D5FA02FB0E0FC90D2
:104FE000109761F01F2D169518F041F02296FBCF17
:104FF000E991F9913097B9F30995F5CFA02FB0E079
:10500000FC92FF91EF91DF91CF91BF91AF919F9172
:105010008F917F916F915F914F913F912F911F9150
:10502000FF901F900F900BBE0F900FBE0F900F912F
:1050300018951F920F920FB60F9211240BB60F9274
:105040002F923F924F925F926F927F928F929F9298
:10505000AF92BF92CF92DF92EF92FF920F931F9386
:105060002F933F934F935F936F937F938F939F9370
:10507000AF93BF93EF93FF93CF93DF93CDB7DEB79B
:105080002697CDBFDEBF81E080930D0640901006CD
:105090005090110620913644E0913544A2E0AE0FC5
:1050A0008091504090915140A817190621F01CF0B2
:1050B000A1E0AE0FA81BB0E0AE5FBF4B3C913093B8
:1050C000080621116FC140913B4450913C446091CE
:1050D0003D4470913E444F5F5F4F6F4F7F4F409311
:1050E0003B4450933C4460933D4470933E44E111F3
:1050F000E2C1809133449091344480933144909341
:105100003244809142469091434696958795481A3D
:10511000590A409233445092344480912F449091E4
:1051200030449C013695279536952795821B930B25
:10513000920157FE04C02227332724193509820F14
:10514000931F80932F449093304460914046709118
:10515000414621E06817790708F020E020939A443F
:10516000141415040CF05AC021E030E020932D44B3
:1051700030932E44E0912D44F0912E4440912744E9
:1051800050912844E417F50709F44DC020911144CB
:105190002F5F2093114420911144233030F010925E
:1051A0001144E0932944F0932A4420911A44211198
:1051B00010921A448090294490902A4420910040F3
:1051C000309101406817790708F023C181E0881603
:1051D000910409F05CC04130510509F45EC0809132
:1051E000144490911544019680931444909315446F
:1051F00040910A404423D1F00A97C0F010920A402F
:105200001092144410921544C9018C5F9E4FF9010D
:10521000E817F90759F010823196FACF10922D4411
:1052200010922E44A7CF10921144B5CF8091144410
:10523000909115444091124450911344841795075E
:1052400039F440910A40411103C041E04093994430
:1052500040913F445091404484179507F0F080916D
:105260000A4081111AC01092144410921544809182
:105270004E4090914F4020934E4030934F4080934A
:1052800000409093014081E08093984406C0452BF4
:1052900021F010922B4410922C44E0910040F091A8
:1052A00001409F0120533F4FD9014D915D916D9178
:1052B0007C9113974F5F5F4F6F4F7F4F4D935D937F
:1052C0006D937C93139780912B4490912C4401967D
:1052D00080932B4490932C442850310929833A839E
:1052E000D901AC901196BC90119712963C901297F0
:1052F00013961C91139714966C90149715967C90A6
:10530000159716960C91169717962C909201D2012C
:105310000E94414B6B017C01FF0CCC08DC2C760118
:105320009B01AC016C2D7C2D8C2D9C2DC32CD12E82
:105330007301122D0E944D4BA981BA812C931196B5
:105340003C93119712964C93129713965C93139774
:1053500014966C93149715967C93159716968C93C8
:10536000169717969C93A080B180C280D380E4806A
:10537000F58006811781952D990F990B9201492F80
:10538000592F692F792F892F0E944D4B208331830C
:1053900042835383648375838683978380922744F3
:1053A00090922844809135448F5F809335442091BA
:1053B0005040309151408217130619F014F01092AA
:1053C00035442696CDBFDEBFDF91CF91FF91EF919F
:1053D000BF91AF919F918F917F916F915F914F910D
:1053E0003F912F911F910F91FF90EF90DF90CF9001
:1053F000BF90AF909F908F907F906F905F904F90F5
:105400003F902F900F900BBE0F900FBE0F901F90EC
:10541000189540913B4450913C4460913D447091BB
:105420003E448091164490911744A0911844B09145
:10543000194484179507A607B70748F48091434499
:10544000811105C081E08093994480934344409149
:105450003B4450913C4460913D4470913E44809166
:105460008E4490918F44A0919044B09191448417C0
:105470009507A607B70708F010CF10923B4410928B
:105480003C4410923D4410923E4481E080930A4097
:10549000109214441092154440914E4050914F4048
:1054A00020934E4030934F40409300405093014032
:1054B000EBCE1C9232C12E2E312C821593050CF4AA
:1054C00071CF3101B1E06B1A7108D301AE56BB4BFD
:1054D000E6E04E1651046CF381E08C93A0910040FD
:1054E000B0910140A983BA83D30193E0AA0FBB1FF7
:1054F0009A95E1F7E981FA81AE0FBF1FAC52BF4F19
:10550000AC901196BC9011971296CC90129713966E
:10551000DC9013971496EC9014971596FC901597C1
:1055200016960C91169717961C911797C301880F22
:10553000991F855E9B4BFC0180809180992D990F6E
:10554000990B9401492F592F692F792F892F0E9488
:105550004D4B2C9311963C93119712964C931297A6
:1055600013965C93139714966C93149715967C93EB
:10557000159716968C93169717969C938091424692
:105580009091434696958795881A990AF10143E0D0
:10559000EE0FFF1F4A95E1F7A981BA81EA0FFB1FC1
:1055A000A080B18032801381B481BD83258129839D
:1055B00006812780A0913144B091324494010E9429
:1055C000414B6B017C01FF0CCC08DC2C76019B016C
:1055D000AC016C2D7C2D8C2D9C2DC32CD12EED80FF
:1055E000F980122D0E944D4B2083318342835383D7
:1055F0006483758386839783A0A8B1A832A813A972
:1056000034A93D8345A9498306A927A8A09133441D
:10561000B091344494010E94414B6B017C01FF0C1A
:10562000CC08DC2C76019B01AC016C2D7C2D8C2DE3
:105630009C2DC32CD12EED80F980122D0E944D4B54
:1056400020AB31AB42AB53AB64AB75AB86AB97AB26
:10565000CF01805A9F4F8D839E83DC01AC901196C1
:10566000BC9011971296CC9012971396DC901397DA
:105670001496EC9014971596FC90159716960C912D
:10568000169717961C919401D4010E94414B9B01DF
:10569000AC01550F220B322FA90129833A834B838A
:1056A0005C839B01AC016981762F862F962F0E9427
:1056B0004D4BAD81BE812C9311963C931197129660
:1056C0004C93129713965C93139714966C931497BC
:1056D00015967C93159716968C93169717969C9310
:1056E000E057FF4FA080B180C280D380E480F58076
:1056F00006811781992D990F990B9401492F592FE4
:10570000692F792F892F0E944D4B2083318342834B
:1057100053836483758386839783F301EE0FFF1FA2
:10572000E55EFB4B408251823DCE1F920F920FB639
:105730000F9211240BB60F922F933F934F935F93C9
:105740006F937F938F939F93AF93BF93EF93FF9349
:1057500084EA96E40E94871CFF91EF91BF91AF917C
:105760009F918F917F916F915F914F913F912F9179
:105770000F900BBE0F900FBE0F901F9018951F92A9
:105780000F920FB60F9211240BB60F922F933F93E7
:105790004F935F936F937F938F939F93AF93BF9339
:1057A000EF93FF9380EC97E40E94871CFF91EF91A9
:1057B000BF91AF919F918F917F916F915F914F9129
:1057C0003F912F910F900BBE0F900FBE0F901F9027
:1057D0001895EF92FF920F931F93CF93DF9300D012
:1057E000CDB7DEB7109290451092914588EE93E0C8
:1057F000A0E0B0E08093924590939345A0939445A8
:10580000B093954582E291E480938E4590938F45C5
:1058100080E698E080939A4590939B4586E894E2D1
:1058200080939C4590939D4582E080939E45109285
:105830009F451092A04540E05BE167EB70E080E09F
:105840008F5F863011F487E00BC07695679557958A
:105850004795413099E059079DE36907710580F745
:1058600094E090933146482F4095242F217030E0EA
:1058700044E0220F331F4A95E1F731E08162822B29
:105880008093304640E459E04093254650932646A5
:105890009093284686E08093294610922B461092DA
:1058A0002C46109244461092454623E020934846E9
:1058B000309349468EE690E0A0E0B0E080934A46FF
:1058C00090934B46A0934C46B0934D4610924E4653
:1058D00010924F46109250461092514610925246E6
:1058E00010925346109254461092554610925A46C2
:1058F00010925B4620935E4630935F4680936046ED
:1059000090936146A0936246B093634610926446BA
:10591000109265461092664610926746109268464D
:105920001092694610926A4610926B4681E090E0B0
:105930000090664002C0880F991F0A94E2F7809396
:1059400042469093434655E0969587955A95E1F7E0
:105950008093404690934146809165400E94001399
:105960008EEF90E080939246909393468DE190E085
:1059700080938E4690938F468DE090E080938C4686
:1059800090938D4684E890E080939446909395465A
:105990008DEF91E0809396469093974610929046B3
:1059A0001092914604E810E009831A83CE01019613
:1059B0000E94F11878019DE1E90EF11C8F3F09F476
:1059C000C4C000939046109391468DEFE81681E095
:1059D000F8065CF4E982FA82CE0101960E94F11881
:1059E0008F3F09F4AEC00E94A3191092B6471092DF
:1059F000B74748EE53E060E070E04093B8475093FB
:105A0000B9476093BA477093BB478CE391E48093A6
:105A1000B4479093B54720E039E02093C0473093D6
:105A2000C14710929A4610929B4640939C465093D1
:105A30009D4660939E4670939F46809398469093B0
:105A4000994680E299E08093A4469093A5461092EF
:105A50003C4910923D491092464910924749109294
:105A600048491092494910924A4981E080934B4934
:105A70002EE431E420933A4930933B499AE09093E5
:105A800035499BE0909336499CE0909337499DE0DF
:105A900090933849109239499BE29093D04892ED07
:105AA0009093D14891E19093D2481092D34899E1D4
:105AB0009093D44843E353E36AEC72E44093D548AF
:105AC0005093D6486093D7487093D84840E050E050
:105AD00060E773E44093D9485093DA486093DB4819
:105AE0007093DC4840E050E068E472E44093DD48A5
:105AF0005093DE486093DF487093E0484DEC5CECD7
:105B00006CE171E440931149509312496093134939
:105B1000709314498093154984E690E08093164968
:105B200090931749109218491092314910923249B6
:105B30000F900F90DF91CF911F910F91FF90EF90F9
:105B400008959DE1E90EF11C40CF87018DEFE81625
:105B500081E0F80609F028CF48CFCF93DF93CDB787
:105B6000DEB7C15CD109CDBFDEBF88ED21E030E0FA
:105B700084BF2093620091E084BF909363009DE214
:105B800084BF9093800093E084BF9093600080E096
:105B900090E22091650020FDFDC021E02093030AE2
:105BA0008EEF8093260A8093270A9BE09093000A49
:105BB00032E03093E6052093430A8093660A80938F
:105BC000670A9093400A9093E705E0E0FBE027E046
:105BD0009EEF85E021839487158680837096E0345C
:105BE0003BE0F307B9F72FEF3FE02093AA0B309388
:105BF000AB0B90E89093820B1092810B2EEF30E06C
:105C00002093AE0B3093AF0B98ED24E194BF20931B
:105C1000680091E19093800B809302069EE0909340
:105C2000050690E690930306809300068091B000ED
:105C3000887F85608093B0008091B200887F856006
:105C40008093B2008FED9EE280932C0B90932D0BEE
:105C500081E08093250B1092210B83E08093200B31
:105C6000789484E08093410461E080E10E945F1EAB
:105C700040E052EC61E070E08EE895E40E94021D85
:105C80000E94FD2062E17BE18EE895E40E94EC2019
:105C900068EE73E080E090E00E94DE16E091A4469A
:105CA000F091A546E11549E0F40709F079C080912B
:105CB000E5058C7F82608093E5058091A64680761D
:105CC00041F5E11569E0F60709F077C08091E50537
:105CD0008370823009F06DC08CE08093460480911F
