:100200000C9429110C945B110C945B110C94EE2549
:100210000C945B110C945B110C945B110C945B11AE
:100220000C9424260C945B110C945B110C945B11C0
:100230000C945B110C945B110C945B110C945B118E
:100240000C945B110C945B110C94BC2A0C945B1104
:100250000C945B110C945B110C945B110C945B116E
:100260000C945B110C945B110C9440260C945B1164
:100270000C945B110C945B110C945B110C94F6259F
:100280000C945B110C945B110C945B110C94122672
:100290000C945B110C945B110C945B110C945B112E
:1002A0000C945B110C945B110C94922A0C945B11CE
:1002B0000C945B110C945B110C945B110C945B110E
:1002C0000C945B110C945B110C945B110C945B11FE
:1002D0000C945B110C946B250C9465250C94712582
:1002E0000C945B110C945B110C945B110C945B11DE
:1002F0000C945B114E414E494E495459494E46CDDE
:10030000CCCC3D0AD7233C17B7D13877CC2B3295CC
:1003100095E6241FB14F0A000020410000C84200AA
:10032000401C4620BCBE4CCA1B0E5AAEC59D74AEC6
:10033000D580A83FD300408D142002A1C8DA1281D5
:100340007FD9F1DB40A4A6AF4E6F20454550524FF8
:100350004D20636F6E666967004C6F616465642051
:10036000454550524F4D20636F6E66696700767247
:10037000656661203D20001E6C0D0E2060020103A9
:1003800008070A0801030305070104010406030620
:10039000060706060606060101060606060D0907FB
:1003A00008080707090701050807090709070908D9
:1003B000070707090D0809080204020508020606D6
:1003C00005060604060601020601090606060604DD
:1003D00005040607090607060301030707000000D6
:1003E00000FE141E001E0000009090F89690F896F3
:1003F00090001C00001C000000182422FF424284D0
:100400000810103C1008041C22221CC0308C4240F2
:10041000800000100C00000C10100C805C22629216
:100420000C80000C101010100C08101E00F00C02B4
:100430001C6080020CF080601C04140E1404000088
:10044000000000404040F84040400000000C000028
:100450000000708080808000000000001000C03824
:100460000618040000FC02020202FC0C101010101E
:100470000C0804FE00001C0C020282423C101814FE
:100480001010100C02222222DC0C101010100C8014
:1004900040300804FE0004040404041C043816124E
:1004A0001212E20C1010101804F844222222C40C7C
:1004B000101010100C020202E21A0600001C0000CC
:1004C00000DC22222222DC0C101010100C3C4242D4
:1004D0004222FC0810101008040810087040A0A068
:1004E0001010080000000404089090909090900074
:1004F0000000000000081010A0A040080404000044
:10050000000C028242221C000014000000E01804CB
:10051000C422121212A2720408F00C30404C9090C7
:1005200090889C90504C200080E09C829CE0800051
:10053000180400000000000418FE2222222222DCFF
:100540001C10101010100CF804020202020408041F
:1005500008101010100804FE020202020204F81C27
:1005600010101010100804FE2222222222221C1039
:100570001010101010FE2222222222021C00000065
:10058000000000F804020202424244C804081010AD
:100590001010100804FE2020202020FE1C00000067
:1005A00000001CFE1C00000000FE0C1010100CFED1
:1005B000804020508804021C00000000040810FE47
:1005C0000000000000001C101010101010FE0C3075
:1005D000C000C0300CFE1C000004180400001CFE0B
:1005E0000418608000FE1C00000004081CF80402CF
:1005F0000202020204F8040810101010100804FE91
:1006000042424242423C1C000000000000F804024A
:100610000202020204F8040810101014081C10FE54
:10062000424242C242423C1C000000000408101C2E
:1006300022222242428C0C10101010100C020202D6
:10064000FE0202020000001C000000FE000000008C
:1006500000FE040810101008040618608000806076
:1006600018060000000418040000000638C000C08E
:100670003C023CC000C03806000004180400000022
:100680000418040000020C906060900C02100C0032
:100690000000040C1002041820C0201804020000FE
:1006A00000001C0000000000028242221A06021014
:1006B00018141010101010FE02FC800638C0000044
:1006C00000041802FE80FC201C021C200000000018
:1006D000000000000000000000808080808080809A
:1006E00080020400001088484848F00C10101008E0
:1006F0001CFE10080808F01C081010100CF0080868
:1007000008100C10101008F008080810FE0C10104B
:1007100010081CF048484848700C101010100808C9
:10072000FC0A0A001C0000F008080810F84C909021
:1007300090887CFE10080808F01C000000001CFADD
:100740001C00FA807CFE8040A010081C0000000CF9
:1007500010FE1CF8100808F0100808F01C0000003B
:100760001C0000001CF810080808F01C0000000025
:100770001CF008080808F00C101010100CF81008F5
:100780000808F0FC081010100CF008080810F80C0D
:1007900010101008FCF81008081C00000030484831
:1007A0004890081010100C08FE0808001C1010F8E3
:1007B00000000000F80C101010081C186080008069
:1007C00060180000041804000018E000E018E000C1
:1007D000E0180004180400041804000830C0C030F9
:1007E00008100C00000C1018608000806018008059
:1007F0008C700C0000080888681808101814101075
:1008000010807C02007C80FEFC027C80807C0040AA
:1008100020206040402000000000000000FC040494
:10082000040404FC1C10101010101C697A15192007
:10083000600703070F0C16100207070B0F040703CE
:100840000A0C0A0C0B0D0C0C0C0C0D03040D0E0EF7
:100850000A14100D0F0F0C0B100E06080E0B100EC5
:10086000110C110E0D0F0D0F150E0D0E060A060EB2
:100870000F040B0C0B0C0C070C0B03060C02130BD8
:100880000C0C0C080A080B0C110C0C0B0B020B0FB8
:100890000000000000000000000000000000000058
:1008A0000000000000000000000000000038F8F820
:1008B000007F7F000C0C000000FCFC000000FCFC32
:1008C0000001000000010000000000000000000026
:1008D0000000000000000080808080F0B8808080F0
:1008E000F898808040606161F17F4341E1F97F6168
:1008F0006161010000000F030000080F010000000B
:1009000000000000000000000000000000000000E7
:100910000080C0E06060FC60606060E000070F1C69
:100920001818FF383030E0E080060E0C0C0CFF0C7D
:100930000C0607030100000000000000000000009A
:1009400000F0F8180C0C1CF8F000000000C0E038B3
:1009500008000000000000070F0C08080C0F07C07B
:10096000F03C0F0300F8F80C0C0C1CF8F000000031
:100970000000000C0F030000000000070F0C080C23
:100980000C07030000000000000000000000000051
:100990000000000000000000000060F8F80C0C0CE3
:1009A0000CF8F8600000000000C0F0F90F07060E18
:1009B0001B3171E0C0FC3C00000003070E0C0C0C66
:1009C0000C0C06070303070E0C00000000000000DB
:1009D000000000000000000000FCFC00010000001E
:1009E000000080E0781C0C04FCFF07000000000100
:1009F0000F3F78E0800000000000808080040C1C25
:100A000078E080000000000087FFFC0080E0783F75
:100A10000F008080800000000010302060C0FCC00B
:100A20006020301002020301011F010103020600D1
:100A300000000000000000000000000000000000B6
:100A4000000000000000000000000000E0E00000E6
:100A50000000000018181818181818FFFF181818A8
:100A6000181818000000000000000F0F0000000020
:100A70000000000000000000000000000000000076
:100A8000000000000000000000E0FC3E0E0000003E
:100A900000000000000000001818181818181800AE
:100AA0000000000000000000000000000000000046
:100AB0000000000E0E0E000000000000000000C04C
:100AC000F83C04000000C0F83F07000000E0781F79
:100AD000070000000000000000000000000000000F
:100AE00000C0F078180C0C0C1838F0E080FFFF0004
:100AF000000000000000E1FF3F0107070C0C0C0C98
:100B00000C0E0701000000000000000000000000C3
:100B10000000606070F8FC0000000000000000FFB2
:100B2000FF000000000C0C0C0C0F0F0C0C0C0C0048
:100B30000000000000000000000018180C0C0C1C45
:100B40001878F0E000000080C0E070381C0F07014A
:100B5000000E0F0F0D0C0C0C0C0C0C0C0C000000FC
:100B60000000000000000000000018181C0C0C0C15
:100B70001C38F8F000000000040E0E0E1BF9F00601
:100B80000E0C0C0C0C0C0C0E0703000000000000F7
:100B900000000000000000000080C06030F8F8F89D
:100BA000000070786E6763616060FFFFFF60600047
:100BB000000000000000000F0F0F00000000000008
:100BC00000000000000000000000F8F818181818D5
:100BD0001818181800000707060606060E0CFCF881
:100BE000E0060E0C0C0C0C0C0C0E070300000000B1
:100BF00000000000000000000080E0F0301818083D
:100C00000C0C0C0000FFFF0C06060606060EBCF8D6
:100C1000F00103070E0C0C0C0C0E07030100000082
:100C2000000000000000000000181818181818181C
:100C30001898F8783800000000C0F0781E0701000E
:100C40000000000C0F070100000000000000000081
:100C5000000000000000000000E0F0B81C0C0C0CCC
:100C60000C18F8F000F1F31F0E060C0C1C1EF3F12B
:100C7000C003070E0C0C08080C0C07030100000051
:100C800000000000000000000080E0F018180C0CCC
:100C90000C1838F0E0C0010F1F18383030301098B1
:100CA000FFFF0F00000C0C0C0C0C0E0603030000E1
:100CB00000000000000000000000000000808080B4
:100CC0000303030E0E0E000000008080800003036B
:100CD00003E0FC3E060000000000000000000000F1
:100CE0000000808080C01838386C6CC6C6C3838111
:100CF00001010000000000000000000101030306E4
:100D000000000000000000000000000000000000E3
:100D10000000000000000000000000C6C6C6C6C6F5
:100D2000C6C6C6C6C6C6C6C6C600000000000000CD
:100D300000000000000000000000000000000000B3
:100D40000000000000C0C080800000000000000023
:100D5000000000000001018383C3C6666C3C383884
:100D60001006030303010100000000000000000062
:100D70000000000000000000000000000018180C37
:100D80000C0C1C18F8F0E000000078780C0E07033B
:100D9000000000000C0C000000000000000000003B
:100DA00000000000000080C06030181888888C8C1B
:100DB0008C8888183070E080007CFF010000FCFF08
:100DC000830101010181FF00000000FF7C00030797
:100DD0000C18303123236363636123030202030190
:100DE0000000000000000000000000000000000003
:100DF00000000000000000000000C0F83838F8E0F3
:100E000080000000000000C0F87F6F6160606067D4
:100E10007FFCE00000080E0F03000000000000004F
:100E200000010F0F0C000000000000000000000097
:100E30000000000000F8F8F8181818181818B8F092
:100E4000E000FFFFFF0C0C0C0C0E0E0F1DF8F00F56
:100E50000F0F0C0C0C0C0C0C0E060703000000000E
:100E60000000000000000000000080E0F0381818CA
:100E70000C0C0C1C181838301EFFF380000000000A
:100E80000000000000000000000307070E0C0C0C1F
:100E90000C0C0C0E06060000000000000000000014
:100EA0000000000000F8F8F8181818181818183082
:100EB00070E0C000FFFFFF000000000000000080A5
:100EC000F3FF3F0F0F0F0C0C0C0C0C0E0607030367
:100ED0000000000000000000000000000000000012
:100EE00000F8F8F8181818181818181818FFFFFF45
:100EF0000606060606060606060F0F0F0C0C0C0C5F
:100F00000C0C0C0C0C0000000000000000000000A5
:100F100000F8F8F81818181818181818FFFFFF0C20
:100F20000C0C0C0C0C0C000F0F0F0000000000004C
:100F3000000000000000000000000000000080E051
:100F4000F0301818080C0C0C0C181838301EFFF371
:100F50008000000000001818181838F8F800000386
:100F600003070E0C0C0C0C0C0C0C0E0707000000F9
:100F700000000000000000000000000000F8F8F889
:100F80000000000000000000F8F8F8FFFFFF060670
:100F9000060606060606FFFFFF0F0F0F0000000003
:100FA000000000000F0F0F00000000000000000014
:100FB00000000000000808F8F808080000FFFF0023
:100FC000000C0C0F0F0C0C000000000000000008CB
:100FD0000808F8F8F80000000000FFFFFF0C0C0CF8
:100FE0000C0C0707010000000000000000F8F8F8F2
:100FF00000000080C0E07038180800FFFFFF1C1ED2
:101000001F7FF1E0C0000000000F0F0F0000000084
:10101000000103070E0C08000000000000000000A3
:101020000000000000F8F8F80000000000000000D8
:10103000FFFFFF00000000000000000F0F0F0C0C6E
:101040000C0C0C0C0C0C0000000000000000000058
:1010500000F8F8F878E0800000000080E07838F8C8
:10106000F8FFFFFF0001071E78703E07010000FF38
:10107000FF0F0F0F00000000000000000000000F35
:101080000F00000000000000000000000000000051
:1010900000F8F8F838F0C08000000000F8F8F8FF19
:1010A000FFFF0000030F3EF8E080FFFFFF0F0F0F70
:1010B00000000000000003070F0F0F0000000000F9
:1010C00000000000000000000000C0E0F038181828
:1010D0000C0C0C181838F0E080001EFFF3800000A4
:1010E0000000000000000080F3FF3E000003070640
:1010F0000E0C0C0C0C0C0E06070300000000000088
:1011000000000000000000000000000000F8F8F8F7
:1011100018181818183870E0C0FFFFFF10101818C2
:10112000181C0E07030F0F0F000000000000000046
:101130000000000000000000000000000000C0E00F
:10114000F03818180C0C0C181838F0E080001EFF4E
:10115000F38000000000000000000080E7FF1E0098
:10116000000307060E0C0C0C1C7CFEC6C783C0C017
:1011700000000000000000000000000000808080EF
:1011800000F8F8F818181818181878F0C00000FFC0
:10119000FFFF1818183878ECC7870100000F0F0FF1
:1011A00000000000000001030F0E08000000000016
:1011B000000000000000000000E0F038181C0C0CDB
:1011C0000C1C181818000307070E0C0C0C1C1C181C
:1011D00078F0E0060E0C0C0C0C0C0C0C0E07030146
:1011E00000000000000000000000000000181818B7
:1011F000181818F8F8F8181818181818000000002F
:101200000000FFFFFF0000000000000000000000E1
:10121000000F0F0F000000000000000000000000A1
:10122000000000000000000000F8F80000000000CE
:1012300000000000F8F8FFFFC00000000000000000
:1012400000FFFF0003070E0C0C0C0C0C0C07070131
:101250000000000000000000000000000038F8E07E
:101260008000000000000000C0F878080001073F7F
:10127000FCE00000C0F07E0F030000000000000151
:101280000F0F0E0F03000000000000000000000020
:1012900000000000000000000008F8F880000000D6
:1012A0000000F078F8F00000000000C0F8780000BE
:1012B0000F7FF88000F07F0700000FFFF000C0FCF8
:1012C0007F070000000000070F0F0700000000006C
:1012D000000F0F0F070000000000000000000000DA
:1012E00000000000000000000000000000001838AE
:1012F000F0E080000000C0E078381800000080E1D5
:10130000773F1E7FF3C0800000080C0F0301000030
:1013100000000003070E0C000000000000000000A9
:1013200000000000001878F0C08000000080E0F0AD
:1013300038080000000307FEFCFE07010000000063
:10134000000000000F0F0F00000000000000000070
:1013500000000000000000000000181818181818FD
:10136000181898F8F83818000080C0E0703C0E0794
:1013700003010000000C0E0F0D0C0C0C0C0C0C0CDF
:101380000C0C0C0000000000000000000000000039
:1013900000FCFC04040404FFFF00000000FFFF80C9
:1013A0008080808080808080800C3CF8C0000000BD
:1013B000000000000001073EF8C00000000000002F
:1013C000000000073F78C00000000000000000009F
:1013D0000004040404FCFC00000000FFFF80808087
:1013E00080FFFF808080808080000080C0E038180F
:1013F0003870E0800000000C0E07010000000000C3
:101400000003070E080000000000000000000000BC
:1014100000000000000000000000000000000000CC
:1014200000000000000000000000000000000000BC
:10143000000000000000000000000000000000C0EC
:10144000C0C0C0C0C0C0C0C0C0C0C0C0C0C000001C
:1014500000000000000000000000000000030F1C5E
:10146000100000000000000000000000000080806C
:10147000808080808080800080E1E13131311119ED
:1014800019FFFF03070F0C0C0C0C0C060F0F0000CC
:10149000000000000000000000FCFC0000808080D4
:1014A0008080000000FFFF030101010101038FFEA6
:1014B000F80F0F0E0C0C0C0C0C0E070300000000B4
:1014C000000000000000000000000000808080801C
:1014D00080808000F8FE8F030101010101010100FD
:1014E00003070E0C0C0C0C0C0C0400000000000098
:1014F000000000000000000080C0C0C0C08080FC70
:10150000FCF8FE8F03010000010103FFFF00030749
:101510000E0C0C0C0C06060F0F0000000000000063
:1015200000000000000000008080C0C0C08080007B
:101530000078FEFF333131303131333F3C00030757
:10154000060C0C0C0C0C0C0E060000000000000039
:10155000000000000080E0F8BC8C8C8C01FFFF01D3
:10156000010101000F0F000000000000000000005A
:101570000000000080808080808080000078FECFA6
:1015800003010101010103FFFE0003C7868E8C8C5D
:1015900086C6F77F0F00008080808080800000007A
:1015A00000FCFC000080808080808000FFFF03033F
:1015B0000101010103FFFE0F0F0000000000000009
:1015C0000F0F00000000000000000000009C9C00C5
:1015D000FFFF000F0F00000000008080809C9C0037
:1015E000010101FFFF808080C0FF7F80808080003C
:1015F00000FCFC00000000000080808000FFFFE095
:101600007078FCCE87030100000F0F00000000017E
:1016100003070E0C0800000000000000000000009E
:1016200000FCFCFFFF0F0F00008080000080808026
:10163000808000000080808080808000FFFF0303A6
:101640000101010107FFFF030101010103FFFF0F7A
:101650000F000000000000000F0F0000000000005D
:101660000F0F00000000000000000000000000005C
:10167000000000000080800000808080808080006A
:10168000FFFF03030101010103FFFE0F0F00000034
:10169000000000000F0F000000000000000000002C
:1016A0000000000080C0C0C0C080000000F8FE8FB5
:1016B00003010000010107FFFC0003070E1C1818BE
:1016C0001C0C0707010000000000000000000000E3
:1016D00000808000008080808080000000FFFF0389
:1016E0000101010101038FFE78FFFF0E0C0C0C0CB1
:1016F0000C060701008080000000000000000000D0
:101700000000000080808080808080808078FECF14
:1017100003010101010103FFFF0003070E0C0C0C84
:101720000C0607FFFF000000000000000000008022
:10173000808080000080808080FFFF07030101011E
:10174000010F0F000000000000000000000000007A
:101750000000008080808080808080001F3F3131C9
:10176000716161E1C3060E0C0C0C0C0C0C07070038
:1017700000000000000000000080F8F880808080F9
:101780008001FFFF01010101010003070F0C0C0C98
:101790000C0000000000000000808000000000003D
:1017A00000008080FFFF00000000000000FFFF033A
:1017B000070F0C0C0C0C06060F0F000000000000B9
:1017C0000000000000808000000000000000008099
:1017D0008001073FF8E00000C0F83E0F0100000064
:1017E00000070F0F070100000000000000000000CC
:1017F00000000000008080000000000000808000E9
:10180000000000008080011FFFF00080F83F070FFC
:101810007EF08080F87F070000000F0F0F010000AE
:101820000000030F0F070000000000000000000090
:101830000000000000000000008080800000000028
:1018400000008080800001038FDCF8F8FC8E070127
:1018500000080C0F0301000001030F0E0800000038
:101860000000000000000000008080000000000078
:10187000000000808001073FFCE08000E0F83E0FA0
:101880000100000080F37F1F07000000000000003F
:1018900080800000000000000080808080808080C8
:1018A00080808000010181C1E1711D0F0703000CE0
:1018B0000E0F0D0C0C0C0C0C0C0C000000000000AA
:1018C00000000000000000000000F8F80C0C040408
:1018D00030303078CE8703000000000000000003A5
:1018E0007FFEC080808000000000000000000080BB
:1018F00080FCFCFFFFFFFF808004040C0C3CF8E040
:1019000000000000000000000087CF5870303080D9
:101910008080C0F07F1F0000000000808000000079
:1019200000000000000000000000000000000000B7
:101930000000000060781C0606060C18306060602D
:10194000603E1E00000000000000000000000000DB
:101950000000000000000000000000000000000087
:10196000002F03198040005374617274696E672000
:10197000656D6F6E506932204F4C45440070686150
:10198000736500766F6C74616765203D2000656D3E
:101990006F6E506932006861726477617265203DD4
:1019A000200076657273696F6E203D200066697253
:1019B0006D77617265203D20656D6F6E5F44425F9B
:1019C000364354004C6F77506F7765724C61627389
:1019D000002C207266466F726D6174203D20002CD1
:1019E000207266506F776572203D20002C20726651
:1019F0004E6F6465203D2000204D487A2C20726691
:101A000047726F7570203D20005246203D206F6E5A
:101A10002C20726642616E64203D20005246203DBB
:101A2000206F6666006A736F6E203D206F666600E9
:101A30006A736F6E203D206F6E00646174616C6F1D
:101A400067203D20002C20694C656164006943617A
:101A50006C007643616C203D20006D73002C20707B
:101A6000756C7365506572696F64203D20006F6608
:101A7000660070756C7365203D200000030C0F300C
:101A8000333C3FC0C3CCCFF0F3FCFF0A00202868F2
:101A9000696464656E292E00206279746573002C78
:101AA00020446174612073697A653A20002053698B
:101AB000676E61747572653A20004E6F20646174C0
:101AC0006120626C6F636B20666F756E64202D20E1
:101AD000454550524F4D206170706561727320749E
:101AE0006F20626520666F726D6174746564207426
:101AF0006F204F454D205374616E646172642062A3
:101B0000757420756E757365642E000A0020627905
:101B10007465732C206E6F7420666F726D617474BF
:101B2000656420746F204F454D205374616E64616D
:101B300072640053697A653A2000446F6E652E2006
:101B40004E657720636F6E666967207361766564A2
:101B500020746F20454550524F4D00536176696E99
:101B6000672E2E2E00536B657463682077696C6C4A
:101B7000206E6F772072657374617274207573695B
:101B80006E672064656661756C7420636F6E66694C
:101B9000672E00526573657474696E672E2E2E0071
:101BA00020000A417661696C61626C6520636F6D2B
:101BB0006D616E64733A0A6C09092D206C69737447
:101BC000207468652073657474696E67730A72099E
:101BD000092D20726573746F726520736B65746371
:101BE000682064656661756C74730A7309092D2039
:101BF000736176652073657474696E677320746FA2
:101C000020454550524F4D0A7609092D2073686FC3
:101C100077206669726D7761726520766572736987
:101C20006F6E0A7A09092D207A65726F20656E65DC
:101C30007267792076616C7565730A7809092D20C1
:101C4000657869742C206C6F636B20616E6420630F
:101C50006F6E74696E75650A3F09092D2073686F90
:101C6000772074686973207465787420616761698E
:101C70006E0A0A623C6E3E09092D2073657420725B
:101C80002E662E2062616E64206E203D20612073DE
:101C9000696E676C65206E756D6572616C3A203493
:101CA000203D203433334D487A2C2038203D2038D5
:101CB00036384D487A2C2039203D203931354D4871
:101CC0007A20286D61792072657175697265206866
:101CD00061726477617265206368616E6765290A65
:101CE000703C6E6E3E09092D207365742074686522
:101CF00020722E662E20706F7765722E206E6E20F9
:101D00002D20616E20696E74656765722030202D0C
:101D100020333120726570726573656E74696E6709
:101D2000202D31382064426D20746F202B313320F8
:101D300064426D2E2044656661756C743A203235BC
:101D400020282B372064426D290A673C6E6E6E3E58
:101D5000092D20736574204E6574776F726B204770
:101D6000726F757020206E6E6E202D20616E20695E
:101D70006E746567657220284F454D206465666105
:101D8000756C74203D20323130290A6E3C6E6E3EF7
:101D900009092D20736574206E6F64652049442005
:101DA0006E3D20616E20696E7465676572202873D0
:101DB00074616E64617264206E6F6465206964731F
:101DC0002061726520312E2E3630290A0A643C7853
:101DD000782E783E092D2078782E78203D206120BD
:101DE000666C6F6174696E6720706F696E74206EC7
:101DF000756D62657220666F72207468652064611B
:101E000074616C6F6767696E6720706572696F6473
:101E10000A633C6E3E09092D206E203D203020666D
:101E20006F72204F46462C206E203D203120666F79
:101E300072204F4E2C20656E61626C6520766F6C4F
:101E4000746167652C2063757272656E742026203C
:101E5000706F77657220666163746F722076616C53
:101E600075657320746F2073657269616C206F757E
:101E70007470757420666F722063616C6962726140
:101E800074696F6E2E200A6A3C6E3E09092D20741B
:101E900075726E204A534F4E2053657269616C20F3
:101EA000666F726D6174206F6E20283129206F7209
:101EB000206F6666202830292E0A663C78783E0915
:101EC000092D207878203D20746865206C696E6546
:101ED000206672657175656E637920696E20487A37
:101EE0003A206E6F726D616C6C79206569746865FB
:101EF00072203530206F722036300A6B3C783E20DD
:101F00003C79792E793E203C7A7A2E7A3E0A09096C
:101F10002D2043616C69627261746520616E20617D
:101F20006E616C6F67756520696E7075742063688B
:101F3000616E6E656C3A0A0909202078203D2061A7
:101F40002073696E676C65206E756D6572616C3AA1
:101F50002030203D20766F6C746167652063616C72
:101F60006962726174696F6E2C2031203D20637448
:101F7000312063616C6962726174696F6E2C20320A
:101F8000203D206374322063616C69627261746900
:101F90006F6E2C206574630A0909202079792E79E7
:101FA000203D206120666C6F6174696E6720706FE0
:101FB000696E74206E756D62657220666F72207432
:101FC000686520766F6C746167652F6375727265E2
:101FD0006E742063616C6962726174696F6E2063F4
:101FE0006F6E7374616E740A090920207A7A2E7AF2
:101FF000203D206120666C6F6174696E6720706F90
:10200000696E74206E756D62657220666F722074E1
:1020100068652070686173652063616C69627261D4
:1020200074696F6E20666F72207468697320632E06
:10203000742E20287A206973206E6F74206E656577
:102040006465642C206F722069676E6F726564200E
:10205000696620737570706C6965642C207768659B
:102060006E2078203D2030290A09092020652E673E
:102070002E206B30203235362E380A0909202020D8
:10208000202020206B312039302E3920322E303064
:102090000A6D3C783E203C79793E092D206D6574AF
:1020A00065722070756C736520636F756E74696EF0
:1020B000673A0A090920202078203D203020666FE9
:1020C00072204F46462C2078203D203120666F72CA
:1020D000204F4E2C203C79793E203D20616E2069B6
:1020E0006E746567657220666F7220746865207013
:1020F000756C7365206D696E696D756D20706572A4
:10210000696F6420696E206D732E202879206973B1
:10211000206E6F74206E65656465642C206F72207C
:1021200069676E6F726564207768656E2078203D00
:102130002030290A00456E657267792076616C75DA
:1021400065732073657420746F207A65726F004325
:102150006F6E74696E75696E672E2E2E0052616403
:10216000696F2069732068616E646C6564206279B0
:1021700020746865205069206F6E20746865206542
:102180006D6F6E506932007266506F776572203DD8
:10219000200072664E6F6465203D20002C20694C43
:1021A000656164006943616C007643616C203D2089
:1021B00000726647726F7570203D2000667265710F
:1021C000203D2000646174616C6F67203D20006ACF
:1021D000736F6E203D206F6666006A736F6E203DE0
:1021E000206F6E00204D487A00726642616E642056
:1021F0003D20002C7066002C49002C616E616C6FD4
:10220000673A002C70756C73653A002C45002C50B1
:10221000002C56004D53473A007D002C22616E6120
:102220006C6F67223A002C2270756C7365223A003D
:102230002C2245002C2250002C2256007B224D538C
:1022400047223A000A0000080A400CFFC000C00004
:10225000E62A11241FBECFEFCDBFDFE7DEBF80E34C
:102260008093011088ED90EB84BF9093011011E4EE
:10227000A0E0B0E4EEEFF7E800E00BBF02C007908B
:102280000D92A234B107D9F720E6A2E4B1E401C06F
:102290001D92AE3DB207E1F711E1C9E2D1E104C000
:1022A0002197FE010E94CD43C832D107C9F70E9491
:1022B000702C0C94FD430C9400018091C3608D3010
:1022C00011F42D9A0895873011F40F9A08958131F1
:1022D00009F44B9A089500009091C760911109C0CC
:1022E000809344098091430987FFFCCF8091440982
:1022F0000895809364098091630987FFFCCF8091E2
:10230000640908958091C3608D3011F42D9808956B
:10231000873011F40F980895813109F44B9808958E
:10232000CF93DF93D82FC62FEDDF8D2F8068D3DFBB
:102330008C2FD1DFDF91CF91C0CFCF93C82FE2DFB9
:102340008C2FC9DF80E0C7DFC82FB7DF8C2FCF917C
:102350000895CF939091A357981791F0C82F81E0DB
:10236000ECDF837E682F6C2B81E0DADF8091A3574E
:10237000811104C087E2E1DF87FFF8CFC093A35744
:10238000CF9108950F931F93CF93DF93EC0184E0D7
:10239000E0DF2097D9F088818823C1F0B3DF8EEB8E
:1023A0009ADF8E01005F1F4F899195DFC017D1071B
:1023B000D9F783DFC1E08DE3C0DF8E7F682F6C2B00
:1023C0008DE3DF91CF911F910F91AACFC0E0F3CFA2
:1023D000E091515EF091525E8581837009F442C0B4
:1023E000838180FF3FC05091555E5E7F30E020E0EA
:1023F00090E04581842F83702F5F3F4F213C6DE536
:10240000360740F0823041F1813041F184E093E0C1
:102410009483089543FF04C088E0858382E1F7CF69
:10242000813021F4578330E020E0E3CF823009F798
:1024300046FFDFCF44FF04C0992349F383E0E7CF91
:102440008091565E981760F4A92FB0E0A25AB14A65
:102450008C9180879F5FE7CF85E0D9CF81E1D7CF8F
:1024600080E0D5CF80E10895CF92DF92EF92FF9286
:10247000CF93DF936A01815096E1899FE001112497
:10248000C152D24A888323EA33E240E051E4CB01CF
:10249000B6010E94C5402091494030914A40409188
:1024A0004B4050914C400E94C5406B017C016091B3
:1024B000395870913A5890E080E00E9464409B0146
:1024C000AC01C701B6010E943E4269837A838B83C7
:1024D0009C831D828AE097EDA3E2BEE38E839F83F7
:1024E000A887B9871A861B861C861D861E86DF91E3
:1024F000CF91FF90EF90DF90CF90089510926257A8
:10250000109260571092615710925E5710925F5769
:1025100010925D5710925C5788E20FDF82FF06C071
:102520008DE30BDF682F64608DE3FADE80E111CF6D
:10253000AF92BF92CF92DF92EF92FF920F931F93D1
:10254000CF93DF936C017B018B01040F151FEB010F
:102550005E01AE18BF08C017D10759F06991D601C6
:10256000ED91FC910190F081E02DC6010995892B38
:1025700079F7C501DF91CF911F910F91FF90EF90F7
:10258000DF90CF90BF90AF900895FC0151894289B0
:10259000252F30E0842F90E0821B930B541710F00E
:1025A000CF96089501970895FC0197858089981723
:1025B00061F0A089AE0FBF2FB11D53968C91908909
:1025C0009F5F9F73908B90E008958FEF9FEF08952A
:1025D000FC0197858089981731F08089E80FF11DFB
:1025E000838990E008958FEF9FEF0895FC01978510
:1025F0002089892F90E0805C9F4F821B91098F7307
:1026000099270895FC010FB607FE04C080911101BF
:102610008823A9F0A085B18514968C91149785FF25
:102620000EC091898289981307C015968C911597D1
:102630008F7D15968C930895E8940C947E250895CB
:102640000F931F93CF93DF93EC018E8581608E876C
:1026500099898A8998130BC0E885F985848185FF5B
:1026600006C08E8581FD0DC080E4848312C0062FD4
:1026700019891F5F1F738A89811315C0CE01C2DFBC
:10268000FACF85818F77806490E49483E885F9851B
:102690008583E885F985628381E090E0DF91CF91C1
:1026A0001F910F910895E989EC0FFD2FF11DED5A4F
:1026B000FF4F0083198B8E85E885F98581FF09C05E
:1026C00085818F77806690E49483E885F98585839A
:1026D000E3CF85818062FBCFEF92FF920F931F9330
:1026E000CF93DF938C017B01D0E0C0E0F701EC0FCA
:1026F000FD1F6491662331F0C801A2DF892B11F020
:102700002196F4CFCE01DF91CF911F910F91FF90D1
:10271000EF90089595CFCF93DF93EC018E858823BA
:1027200059F0E885F985858185FD03C0848186FDA2
:1027300003C0CE0167DFF5CFDF91CF910895079AEF
:1027400020E533EC93E0179A44E1F9013197F1F772
:102750004150D9F7482F179AF9013197F1F7179A95
:1027600059E0F9013197F1F75150D9F7415099F7F4
:10277000915049F7E7CF9FB7F894E0912A0BF09179
:102780002B0B8091260B20910E5730910F574091C3
:102790001057509111579FBF80FF08C0CF01882765
:1027A000892B21F42F5F3F4F4F4F5F4F0F0116943E
:1027B0000794169407941694079416940794F001BE
:1027C00016940794E00DF11D16940794102C16949E
:1027D00001181694010C169401181694010C169405
:1027E000011816941694010C1124E019F109A8EEB1
:1027F000B3E00E9498416E0F7F1F811D911D0895C7
:10280000CF92DF92EF92FF92CF93DF936B017C0127
:10281000B2DFEB01C114D104E104F10471F0ABDFCC
:102820006C1B7D0B683E7340A8F381E0C81AD10889
:10283000E108F108C851DC4FEDCFDF91CF91FF9057
:10284000EF90DF90CF9008952FB7F89460910E57D6
:1028500070910F5780911057909111572FBF089585
:102860008150909119572FE5929FF0011124E15961
:10287000F74A45E1849F900111242D51334A20836A
:102880003183615026E1629FB00111246152724A86
:102890006283738364837583E25AFF4F21E0208350
:1028A000E82FF0E0E45EF84A90839F5F9093195719
:1028B00008958F929F92AF92BF92CF92DF92EF9244
:1028C000FF920F93CF936B017C0120E030E040E05A
:1028D0005FE30E94604087FF05C0C12CD12CE12C32
:1028E0008FE3F82EC0921140D0921240E092134034
:1028F000F09214408090165790901757C091185737
:1029000020E836E948E15BE4C701B6010E94C54012
:102910006B017C01B12CA12CC501B4010E94644063
:102920009B01AC01C701B6010E943E420E94AB422E
:102930006B017C0160E876E988E990E0A5019401EB
:102940000E94A841CA01B90100914640202F30E001
:1029500050E040E00E94A84144275527C701B60136
:10296000621B730B840B950B2C2F30E050E040E082
:102970000E94A8412093FD4E3093FE4E4093FF4E9F
:102980005093004FCF910F91FF90EF90DF90CF9039
:10299000BF90AF909F908F900895DC01ED91FC91D6
:1029A000F170FC5E80810895CF92DF92EF92FF92EA
:1029B0000F931F93CF93DF9300D0CDB7DEB76C0199
:1029C0007C0103E010E009831A83CE010196E5DF64
:1029D000F70181937F010F5F1F4F0730110599F7B2
:1029E000C6010F900F90DF91CF911F910F91FF9033
:1029F000EF90DF90CF9008950F931F93CF93DF93C5
:102A000000D000D0CDB7DEB78C0119821A82CE017A
:102A10000196C3DF8F34F9F481E090E089839A83D3
:102A2000CE010196BADF8534B1F482E090E089836B
:102A30009A83CE010196B1DF8D3469F481E00115EE
:102A4000110551F0CE010196AFDF81E02B813C8171
:102A50002017310709F080E02496CDBFDEBFDF915B
:102A6000CF911F910F9108951F93CF93DF93EC01A6
:102A7000162F93DF8117B1F09FB780910210282F96
:102A8000227081FDFACFF8948DE984BF2093001065
:102A900023E184BF20930010E881F981F170FC5E8E
:102AA00010839FBFCE01DF91CF911F910895CF92E8
:102AB000DF92EF92FF920F931F93CF93DF9300D09B
:102AC000CDB7DEB76C017C0103E010E009831A8307
:102AD000F70161917F01CE010196C6DF0F5F1F4FA5
:102AE0000730110599F7C6010F900F90DF91CF9134
:102AF0001F910F91FF90EF90DF90CF9008950F936B
:102B00001F93CF93DF9300D0CDB7DEB70091455E22
:102B10001091465E8091475E9091485E08171907B4
:102B20009CF4C801957189839A836FEFCE01019659
:102B30009BDF1092415E1092425E80913F5E9091C9
:102B4000405E080F191FE6CF0F900F90DF91CF91D5
:102B50001F910F910895CF93DF93EC018D8588230A
:102B600029F081508D87DF91CF9108959C818E81CE
:102B70009817C8F788896827E881F9810084F1856A
:102B8000E02D42E0CE0109958C818F5F8C83EBCFE5
:102B9000DC01ED91FC910084F185E02D40E0099489
:102BA0000F931F93CF938C01FC016483C085C60FE4
:102BB0006C2F6F70EDDF6C2F62956F706061C801D4
:102BC000CF911F910F91E4CFFC0127812695269587
:102BD0002695621730F465832385620F6770606BFA
:102BE000D7CF08951F93CF93DF93EC01142F8E81DD
:102BF000681710F4CE01D4DF612FCE01DF91CF91A1
:102C00001F91E2CFCF92DF92EF92FF920F931F932B
:102C1000CF93DF93EC01F62EC42ED22E1D868F812A
:102C2000869586958695081710F00FEF080F1D2DD5
:102C3000011770F0412F6F2DCE01D4DFEF2CCE1491
:102C400028F06889CE0187DFE394F9CF1F5FF0CFCA
:102C50004D2D6F2DCE01DF91CF911F910F91FF90E0
:102C6000EF90DF90CF90BECF0F93CF93DF93C8EC60
:102C7000D0E61B861A8660E4CE018ADF0F810695B6
:102C80000695069501504E81415020E060E0CE014E
:102C9000B9DFDF91CF910F9108952F923F924F921C
:102CA0005F926F927F928F929F92AF92BF92CF92DC
:102CB000DF92EF92FF920F931F93CF93DF93CDB7E5
:102CC000DEB72697CDBFDEBFDC011E962D913C916D
:102CD0002115310509F46CC18D839E83F90132966B
:102CE000649031964491E42EF12CB7E0EB0EF11C88
:102CF00053E0F594E7945A95E1F7E98231965491BF
:102D00003196E4916D3009F5FC018681811118C07E
:102D100081E090E02696CDBFDEBFDF91CF911F917D
:102D20000F91FF90EF90DF90CF90BF90AF909F906A
:102D30008F907F906F905F904F903F902F9008956D
:102D400060E08D819E812CDFE3CF6A3009F063C0A3
:102D5000AD81BE8116968C911697882319F060E09C
:102D6000CD011EDFED81FE8101890E9DE02C112435
:102D700065816E0D8485882349F0278126952695E7
:102D800026958E2D821B860F181624F08D819E812C
:102D90001BDFBECFAD81BE811B969C911B97890F17
:102DA00087701B968C931B972E1915962C9315974D
:102DB0001E96ED91FC91309761F13396E491F0E02D
:102DC000379633E0F595E7953A95E1F70E9F002D9C
:102DD0001124EFEFE20F0E0FED81FE81468141508D
:102DE0006481CF010FDFAD81BE811C968C911C9751
:102DF000813009F08DCF1B966C911B97660F660F83
:102E0000660F6F731A966C931A976064CD01C0DEDB
:102E10007FCF00E0DECF651708F4CAC08E2F90E0A8
:102E2000FC01E50FF11D6E171F060CF0C1C08901F2
:102E30000A5F1F4F651BED81FE8171855189759F6A
:102E4000502D11245C83F90154912F5F3F4FF901FC
:102E50002491352F2230310508F06DC06E9CC001E1
:102E60006F9C900D1124689FF001699FF00D112453
:102E70000E0F1F1F512CAD81BE811496BC91BA83D9
:102E8000ED81FE812580F585FB83862C912CAA247B
:102E9000A394B12C312C8981381608F087C0412CBD
:102EA000AD81BE8151968C915197481608F077C03C
:102EB000EB811D96EC93311002C0442049F0AD81A6
:102EC000BE8115964C9115974F5F6A81CD018ADEC0
:102ED000D12CC12CC61408F056C0F801EC0DFD1D14
:102EE0007490552061F0EA14FB0449F4E72DF0E0FA
:102EF000052C02C0F595E7950A94E2F77E2EED8148
:102F0000FE818189823079F4442009F438C07294BA
:102F10008FE07822E72DF0E0E558F54E7490672DAC
:102F20008D819E8118DE672D8D819E8114DE8FEF4D
:102F3000C81AD80ACFCF477028E0522E541A411130
:102F400001C0512CF801612C30E020E0661631F010
:102F50004491240F311D63943196F8CF600E712E89
:102F6000711CF3016490E29EF001E39EF00DF29E6D
:102F7000F00D11248E0F9F1F080F191F7CCFF72D06
:102F8000FF707F2EC7CFD12CAC81DA1631F060E014
:102F90008D819E81E0DDD394F7CF439481CF33942C
:102FA000080D191DBFEFAB1ABB0A75CF622DEECE0F
:102FB00090E080E0AFCEDC011896ED91FC9193811A
:102FC000818513821186938391E09583818708958B
:102FD0009C0129563F4FDC011F96EC911F971E96CE
:102FE0008C91E81730F4E20FF32FF11D808190E00F
:102FF00008958FEF9FEF0895FC01DC01A956BF4FA4
:1030000097858685981740F4A90FB11D2C919F5F75
:103010009787822F90E008958FEF9FEF0895FC012E
:1030200086859785891B990B0895FC01A585A23893
:1030300058F4A80FB92FB11D55966C9385858F5FF5
:10304000858781E090E0089590E080E00895BF9248
:10305000CF92DF92EF92FF920F931F93CF93DF9364
:103060007C016A01B62EEB010C2F0B1910E00C1538
:103070001D0528F46991C701D8DF892BA9F7C8017C
:10308000DF91CF911F910F91FF90EF90DF90CF9044
:10309000BF9008958091FB4E882329F0813120F064
:1030A00080518093FB4E08958093500080E0F9CFCB
:1030B0001F93CF93DF93EC01E881F981838586FF2D
:1030C00047C080FF35C0158581FF25C08E818823CC
:1030D00041F0E0DFEB85FC85309719F08E8190E0C0
:1030E00009951C831D821886E985FA85309709F0B9
:1030F00009958D81882399F083E09091FB4E992367
:1031000081F0905F9093FB4EE881F9818287DF9197
:10311000CF911F9108951C831E821F82EDCF86E000
:10312000ECCF90915000292F217020935000EACFCE
:10313000B1DFEB85FC85309729F08E81882311F073
:1031400090E009951E821D821F82188682E0DCCFE6
:1031500087FF31C081FF1EC0887139F08A8183FFEB
:1031600004C01D82877F8A83F1CF8B818F5F8B8321
:103170008A8188608A83A8858D81A81738F7AC0F6B
:10318000BD2FB11D1D968C91858788858F5F88879F
:1031900083E0BACF8585EE81E23868F4EC0FFD2F2D
:1031A000F11DE157FF4F80838E818F5F8E838238C0
:1031B00078F386E0A9CF80E0A7CF089590E080E083
:1031C00008950F931F93CF93DF938091A35780317E
:1031D00009F062C088E2B1D882FF3BC084E0B9D870
:1031E00091D880E078D880E076D8D82FC82F833463
:1031F00008F0C2E4C0935D5780E06DD8082F80E0EE
:103200006AD8182F80E067D8282F30E0A90196E00F
:10321000440F551F9A95E1F744275370402B409374
:103220005E5750935F57322F222722273370212B6E
:1032300020936057309361579091C16094171506A1
:1032400011F0452B11F4D330A0F410925D5735D80E
:1032500055D98091A3578031F9F480915D57882327
:10326000E1F084E076D881E0DF91CF911F910F915A
:103270000895C350C0936257807880935C57D0E024
:10328000DC1720F480E027D8DF5FFACF16D880E182
:1032900060D884E252D8DDCF31D980E0E5CF94E028
:1032A00081111BC0909346049091400492FD0AC086
:1032B0009FB7F894811114C080915204877F809346
:1032C00052049FBF8091E6058770823029F4809177
:1032D000010A8B7F8093010A089590934504E4CFFF
:1032E000809152048860EBCF0F931F93CF93DF93AD
:1032F000EC01062F142F8B89813120F4882321F0D3
:10330000411102C065D81B8A8B8981110DC08A8941
:10331000880F8093555E1092565E60E4111101C0D3
:1033200060E089E49EE581DE602F89E49EE57DDE34
:10333000123041F48B898F5F8B8BDF91CF911F917E
:103340000F91089545D81B8AF8CF0F931F93CF9301
:10335000DF93CDB7DEB72C97CDBFDEBF681BF1F092
:10336000062F10E0682F70E06D59784AA801CE0151
:1033700001960E94EE43E1E0F0E0EC0FFD1FE00F4C
:10338000F11F1082CE0101960E94C63E2C96CDBF41
:10339000DEBFDF91CF911F910F91089590E080E003
:1033A000F5CF0F931F93CF93DF93CDB7DEB72C9755
:1033B000CDBFDEBF681BF1F0062F10E0682F70E074
:1033C0006D59784AA801CE0101960E94EE43E1E0D2
:1033D000F0E0EC0FFD1FE00FF11F1082CE0101960F
:1033E0000E94C33E2C96CDBFDEBFDF91CF911F91CF
:1033F0000F91089560E070E0CB01F4CFFB010190E4
:103400000020E9F73197AF01461B570BDC01ED9126
:10341000FC910280F381E02D09946EEF70E4EECF11
:103420000F931F93CF93DF93EC0156D98C01CE01FC
:10343000F4DF800F911FDF91CF911F910F910895BD
:103440008F929F92AF92BF92EF92FF920F931F9332
:10345000CF93DF93CDB7DEB7A197CDBFDEBF7C01A1
:10346000FA01CB0119A2223008F42AE08E010F5D87
:103470001F4F822E912CB12CA12CBF01A5019401CC
:103480000E94A841F901CA016A30ECF4605DD801DC
:103490006E938D01232B242B252B79F790E080E070
:1034A000109719F0BD01C701A9DFA196CDBFDEBFFE
:1034B000DF91CF911F910F91FF90EF90BF90AF9050
:1034C0009F908F900895695CE2CFCF92DF92EF9248
:1034D000FF920F931F93CF93DF9377FF1BC06A0177
:1034E0007B01EC016DE216D98C0144275527BA0106
:1034F0004C195D096E097F092AE0CE01A1DF800F1A
:10350000911FDF91CF911F910F91FF90EF90DF906E
:10351000CF9008952AE0DF91CF911F910F91FF90F6
:10352000EF90DF90CF908CCFAB01770F660B770BCE
:10353000CCCF62E77AE184EA97E5CED88091BC608F
:103540006EE67AE1882399F061E070E084EA97E51D
:10355000EBDF6DE57AE184EA97E5BED86091BD6066
:103560007091BE6084EA97E5DFDF6AE57AE184EA7C
:1035700097E556CF6DEA79E184EA97E551DF62EA93
:1035800079E184EA97E5A8D861E071E484EA97E5F7
:1035900035DF66E979E184EA97E59ED86EE879E15E
:1035A00084EA97E53DDF63E879E184EA97E594D81A
:1035B00063E070E084EA97E5B7DF6DE779E184EADC
:1035C00097E52ECF4F925F926F927F928F929F924C
:1035D000AF92BF92CF92DF92EF92FF920F931F9321
:1035E000CF936B017C01742EAC019B010E94C243FE
:1035F00069E071E4811126C046015701E894B7F8EB
:103600002FEF3FEF4FE75FE7C501B4010E94C243D0
:1036100081110CC02FEF3FEF4FE75FE7C501B40109
:103620000E9460406DE071E4181664F02FEF3FEFE8
:103630004FE75FE4C701B6010E947C431816A4F46B
:1036400061E171E484EA97E5CF911F910F91FF90BA
:10365000EF90DF90CF90BF90AF909F908F907F9032
:103660006F905F904F90CACE2FEF3FEF4FE75FEC28
:10367000C701B6010E94604087FDE2CF20E030E044
:10368000A901C701B6010E94604010E000E087FF79
:1036900009C06DE284EA97E53DD88C01F7FAF09411
:1036A000F7F8F094C0E060E070E080E09FE37C1603
:1036B00041F020E030E040E251E40E943E42CF5F22
:1036C000F6CFA70196010E94DA412B013C010E942E
:1036D000AB424B015C012AE0BC01A40184EA97E5FE
:1036E000AFDE7C01E00EF11ECC23C9F1C501B401AF
:1036F0000E9464409B01AC01C301B2010E94D94108
:103700004B015C016BE271E484EA97E577DEE80E39
:10371000F91EC15020F120E030E040E251E4C50143
:10372000B4010E94C5402B013C010E94AB424B01F9
:10373000B12CA12C2AE0B501A40184EA97E580DE32
:10374000E80EF91EC501B4010E9464409B01AC0162
:10375000C301B2010E94D9414B015C01DACFC7011C
:10376000CF911F910F91FF90EF90DF90CF90BF907E
:10377000AF909F908F907F906F905F904F90089543
:10378000CF93DF931FDFEC0184EA97E546DE8C0FD1
:103790009D1FDF91CF910895CF93DF93482F50E085
:1037A00070E060E02AE084EA97E54ADEEC0184EA12
:1037B00097E533DE8C0F9D1FDF91CF910895611542
:1037C000710509F01BCE90E080E00895AF92BF92A2
:1037D000CF92DF92EF92FF920F931F93CF93DF93DD
:1037E00000D0CDB7DEB76C015B0110E000E00A1538
:1037F0001B050CF03BC07801EC0CFD1C85E1F822A8
:10380000E982FA82CE010196C8D8803128F460E3BB
:1038100084EA97E50E948A130F5F1F4FE982FA82BC
:10382000CE010196BAD8482F50E070E060E020E168
:1038300084EA97E505DE67E171E484EA97E5BFDF96
:10384000C80187709927892B29F467E171E484EA1C
:1038500097E5B5DFC8018F709927892B41F664E49D
:1038600072E284EA97E50E946C13C1CF0F900F902B
:10387000DF91CF911F910F91FF90EF90DF90CF904C
:10388000BF90AF9008950F931F93CF93DF9362E59E
:103890007AE184EA97E50E946C13609180607091F0
:1038A0008160809182609091836042E050E068DFA7
:1038B00008E810E6C1E0D0E06DE47AE184EA97E53B
:1038C0000E946C13BE0184EA97E52EDE65E171E487
:1038D00084EA97E574DFF80161917191819191918A
:1038E0008F0142E06FDE65E47AE184EA97E50E94A9
:1038F0006C13BE0184EA97E517DE65E171E484EAA2
:1039000097E55DDFF801648975898689978942E0CA
:1039100050E036DF2196C730D10571F60ADE80917E
:103920007E606CE17AE1882309F44CC069E07AE1B9
:1039300084EA97E50E946C1380917B6061EB71E0F3
:103940008B3251F064E673E0863531F070E060E070
:103950008B3511F463E973E084EA97E5E5DD68EF00
:1039600079E184EA97E50E946C1340917C6050E015
:1039700070E060E02AE084EA97E562DD6CEE79E1D0
:1039800084EA97E50E946C1360917D606F7370E02C
:1039900084EA97E5C9DD6FED79E184EA97E50E9455
:1039A0006C1340917F6050E070E060E02AE084EAB0
:1039B00097E546DD61ED79E184EA97E50E946C13B5
:1039C00064EC79E184EA97E52BDD6AE37AE184EA45
:1039D00097E50E946C136091B8607091B960809116
:1039E000BA609091BB6042E050E0CADE8091C06056
:1039F00065E27AE1882311F060E37AE184EA97E5F1
:103A0000DF91CF911F910F910BCD0E94DF432F9239
:103A10003F924F925F926F927F928F929F92AF925E
:103A2000BF92CF92DF92EF92FF920F931F93CF93AB
:103A3000DF93CDB7DEB72A97CDBFDEBF89879A87E0
:103A4000162F7A01222E312CB101032C000C880B89
:103A5000990B0E9466404B015C01612F70E090E081
:103A600080E00E94664020E030E044EB53E40E9496
:103A7000C5402B013C01B70190E080E00E9464400A
:103A80009B01AC01C301B2010E94C540A501940194
:103A90000E94C54020E836E948E15BE40E943E42CE
:103AA0002B013C01E985FA8505818081081B110BFA
:103AB000218132814381548166817781808591851E
:103AC0000E94D941A30192010E943E426B017C01F8
:103AD000B801012E000C880B990B0E946640A501CD
:103AE00094010E943E429B01AC01C701B6010E94B5
:103AF000DA416D837E838F8398870E94194369839F
:103B00007A838B839C8320E030E040E85FE30E946F
:103B1000DA416B017C0120E030E0A90169817A8102
:103B20008B819C810E947C4387FDA2C0A7019601E6
:103B3000C501B4010E94C5400E94A642E985FA85EC
:103B40006287738716861786E985FA852685378505
:103B5000020F131F06871787020D131D0487158791
:103B600020E030E044EB53E4C301B2010E943E4246
:103B70002BED3FE049EC50E40E94C5406B017C0115
:103B800029813A814B815C816D817E818F8198850D
:103B90000E94D941A30192010E94C54020E030E07B
:103BA00044EB53E40E943E422BED3FE049EC50E4ED
:103BB0000E94C5404B015C01A70196010E943E4254
:103BC0002B013C01E985FA85448A558A668A778A01
:103BD000A5019401C501B4010E94C54020E030E078
:103BE00040E05FE30E94C5409B01AC0160E070E0F3
:103BF00080E89FE30E94D9414B015C01A701960137
:103C0000C701B6010E94C54020E030E040E05FE31C
:103C10000E94C5409B01AC0160E070E080E89FE33A
:103C20000E94D941A30192010E94C5409B01AC01B1
:103C3000C501B4010E94D941E985FA85608B718B79
:103C4000828B938B2A96CDBFDEBFDF91CF911F91E0
:103C50000F91FF90EF90DF90CF90BF90AF909F902B
:103C60008F907F906F905F904F903F902F9008952E
:103C7000E985FA8512861386C701B6019058A50119
:103C800094010E94C5400E94A642E985FA85668794
:103C900077875ACFCF92DF92FF920F931F93CF93E4
:103CA000DF930FE5089FF0011124EF01C159D74AB6
:103CB000AA81BB811F962C911F972A8B16964D9136
:103CC0005D916D917C9119974B8B5C8B6D8B7E8B8D
:103CD000A881B9811F962C911F972F8B16964D9115
:103CE0005D916D917C911997488F598F6A8F7B8F69
:103CF00020911857C0901657D0901757F090464013
:103D00008F01A6016F2DCF018F57974A80DEEC817E
:103D1000FD818A819B818E179F0729F187858AA75C
:103D200086819781A085B1858BA79CA7ADA7BEA7EB
:103D3000E881F98187858FA786819781A085B185E4
:103D400088AB99ABAAABBBAB20911857A6016F2DDE
:103D5000C8018756974ADF91CF911F910F91FF902D
:103D6000DF90CF9054CEDF91CF911F910F91FF90B4
:103D7000DF90CF9008952F923F924F925F926F9273
:103D80007F928F929F92AF92BF92CF92DF92EF92EB
:103D9000FF920F931F93CF93DF93CDB7DEB7E897D2
:103DA000CDBFDEBF84E08093410481E078DA80916A
:103DB000B25780FF14C084EA97E50E948B13E0910C
:103DC000AC57F091AD57868116828581158280E4CB
:103DD00084838091B4578093B3571092B2576FB7D2
:103DE000F894E091AC57F091AD57168233E03783E9
:103DF00081E493E080879187148680E8858380EC56
:103E000086832091B1577091B0578091AE579091B1
:103E1000AF57FC01239FE00DF11D112445915491F2
:103E2000271708F03EC0593290F4252F30E0F901F1
:103E3000EF5AFF4BA081AF3F51F026583F4BF9019D
:103E4000308120E2329FF0011124FC5FA18321E048
:103E5000250F293230F530E0F901EF5AFF4B108180
:103E60001F3FF9F0F901E658FF4BA081E0E2AE9F59
:103E7000D0011124BC5F2D553F4BF9010081F0E0CA
:103E8000E0E0083030F49D01205F3F4FF901E00F82
:103E9000F11D3FB7F89412961C932081286020836F
:103EA0003FBFFC0123E0729FE00DF11D112431960C
:103EB00025913491F901FF27EE51FA4F9081832F1C
:103EC00080958923482B40836FBF54DB67E679E1F7
:103ED00084EA97E5A5DA68EE73E080E090E00E945E
:103EE0000014E091515EF091525EE11539E0F30764
:103EF00009F07EC08091E5058C7F82608093E505A6
:103F00008091535E81FD33C082FD31C0E11589E0AF
:103F1000F80709F07CC08091E50583709CE0823051
:103F200009F070C0909346049091010990FF05C07C
:103F300081116BC08CE0809346048091535E826057
:103F40008093535E81E0838385839091535E91FFDC
:103F500021C096819C3679F0238113829CE696835A
:103F600090819D7F9083238320FF05C0858380916E
:103F7000535E81FF0FC08681853161F0938113828A
:103F800085E1868380818D7F8083938390FF02C04B
:103F900081E085831092DB608CE38093DA6010927D
:103FA000CC601092CD60E1E6F9E1C590D490E3E6F3
:103FB000F9E1F490E4E6F9E1E491E093CE60E5E61E
:103FC000F9E1E491E093CF60E6E6F9E1E491E09372
:103FD000D06010E000E00F15B0F5F601E00FF11F22
:103FE000649188EC90E60E94C8150F5F1F4FF3CFD5
:103FF000E03249E0F40709F083CF8091E505837F43
:1040000088607CCF909306048FCF80EC94CFE03211
:1040100099E0F90709F091CF8091E5058C709CE05B
:10402000883061F4909326049091210990FF85CF08
:10403000811107C08CE0809326047FCF9093A60463
:10404000F3CF80ECF8CF0E943416EBE2F8E0E09377
:10405000D660F093D760E491ECE2F8E0E49182E07E
:104060008093D1600E94341641E06FE088EC90E6C6
:104070000E94F21569E171E488EC90E6A0DBE7E7C5
:10408000F3E0E093D660F093D7608491E8E7F3E043
:10409000E491F82F319709F0ACC11092D16046E05D
:1040A00068E288EC90E60E94F21561E271E488EC27
:1040B00090E685DB8091535E81FF0BC0E091515EFD
:1040C000F091525E138216828091535E8D7F8093B1
:1040D000535E8091535E82FF0DC0E091515EF0917E
:1040E000525E1486118616868091535E8B7F809374
:1040F000535E11829FB7F89484E0809322048091EC
:104100003204877F809332049FBF9FB7F89488E082
:104110008093220480913304877F809333049FBF70
:1041200098E8292E90E6392E2BE7E22E20E6F22E93
:10413000F10140E050E060EA71E48DEC9CECACE40D
:10414000B0E44193519361937193848B958BA68BCB
:10415000B78B20E6E03AF207A1F780E090E0A8EC08
:10416000B2E48093886090938960A0938A60B09352
:104170008B6080E090E0A8E4B2E480938C60909340
:104180008D60A0938E60B0938F60809390609093C9
:104190009160A0939260B093936080E290E00E945F
:1041A000FC14882321F1CE0101960E94D4140981C8
:1041B0001A8117FD1CC0680133E0C30ED11C87E0D3
:1041C00090E05C014FEFA41AB40A8EA79FA7CE011E
:1041D0008E960E94CD14D7018D937D01C501AC143C
:1041E000BD0478F369E573E00430110511F468E467
:1041F00073E084EA97E514D946DB80917E608823DA
:1042000009F446C187E08093C36084E08093C46072
:1042100085E08093C56086E08093C6601092C76099
:1042200010917C6080917D608093C1601092C2602B
:1042300080E88093010480E1809301049FB7F894A3
:1042400080E28093020480911504877F8093150497
:104250009FBF8091C660893288F490E0FC01EF5ADC
:10426000FF4B20812F3F51F086589F4BDC01EC9192
:10427000B0E2EB9FF0011124FC5F21830E945D11ED
:104280008091C7608111B9C08091E4058C7F8093D3
:10429000E40580914109846080934109809140093F
:1042A0008162809340090E9424146B017C016AEAB8
:1042B0008FE20E9490118FE20E949D118A3A59F07C
:1042C0000E9424146C197D098E099F0962337105BF
:1042D0008105910560F30E9424146C197D098E09F3
:1042E0009F09623371058105910508F0B7C00E94EE
:1042F00024146B017C0165E58FE20E9490118FE22E
:104300000E949D11853559F00E9424146C197D0975
:104310008E099F09623371058105910560F30E9442
:1043200024146C197D098E099F096233710581057A
:10433000910508F093C0FE0133968BE2DF011D92D8
:104340008A95E9F781E0898384E08A8322E02B83E0
:1043500093E09D832E838F8380E4888725E02987DF
:104360009A8796E09B8793E39C8797E09D8728E058
:104370002F8729E0298B29E12B8B32E43C8B25E226
:104380002D8B8E8B26E22F8B988F98E2998F20E1D0
:104390002A8F99E29B8F9CED9C8F9EE29D8F98E8DF
:1043A0009E8F9FE29F8F9DE298A390E399A347E39E
:1043B0004BA340E94CA348E34DA33EA33CE33FA3FA
:1043C0003FE838A73DE339A72AA72FE62BA79CA7EC
:1043D0009CE69E87888B1AA38E010F5F1F4FF80102
:1043E00080818823D1F061810E9490110E5F1F4F60
:1043F000F6CF81E08093D16052CE8091E405837F37
:104400008093E405809161098460809361098091C3
:10441000600981628093600946CF90E080E00E944D
:10442000C21169E981E10E94901184E00E94A91102
:104430000E9424146B017C0187E20E949D1187FD7C
:104440000BC00E9424146C197D098E099F096233E8
:1044500071058105910580F30E9424148DE291E499
:104460000E94C21120917D60F4E12F9F80011124F0
:1044700060E070E0CB010115110541F00E946E3E35
:104480009801110F440B550B0E947C410E940014AF
:104490008EE08093050680910306809303061092B8
:1044A000B00086E08093020681E080930006809150
:1044B00000068093000687E08093080660E070E0C5
:1044C000CB0150E040E021E020930A0630910D0638
:1044D00030FFFCCF4A30510544F0E0911006F091D6
:1044E00011066E0F7F1F811D911D4F5F5F4F4A3177
:1044F00037E2530749F70E94644020E030E44CE182
:1045000056E40E943E4220E030EF4FE755E40E941F
:104510003E429B01AC0166E676E686E69FE30E949A
:104520003E426B017C016EE673E084EA97E50E94EF
:104530006C1344E050E0C701B60122D9409180607D
:1045400050918160609182607091836081E00E94EF
:1045500034124091806050918160609182607091CE
:10456000836082E00E9434124091806050918160AB
:10457000609182607091836083E00E943412409069
:10458000494050904A4060904B4070904C40609140
:10459000395870913A5890E080E00E9464404B0195
:1045A0005C0103EE1CE520E0D10158968D919D91B0
:1045B0000D90BC91A02D88AB99ABAAABBBABF10120
:1045C00061917191819191911F01F1E0F20FFCAB2A
:1045D000D8012C9320E030E040E450E40E94C54034
:1045E000A30192010E94C540A50194010E943E4290
:1045F000F8016183728383839483158288A999A9C2
:10460000AAA9BBA986839783A087B1871286138640
:104610001486158616860B5E1F4F2CA9263021F6B0
:1046200061E081E00E94301462E082E00E94301478
:1046300063E083E00E94301461E084E00E94301463
:1046400062E085E00E94301463E086E00E9430144E
:1046500082E3809346408AE0809315406091B86081
:104660007091B9608091BA609091BB600E945914BA
:10467000C0924940D0924A40E0924B40F0924C4068
:104680008091BC60809348588823C9F189E0809369
:1046900016048091BD609091BE6080933F589093C6
:1046A000405882E08093415881E08093495880933C
:1046B0003B58E090415EF090425EE114F10409F451
:1046C00077C187010F5F1F4F81E2C82E8EE5D82E7C
:1046D00080913F5E9091405E8E0D9F1D08171907D7
:1046E0008CF4C801957189839A83CE0101960E944A
:1046F000CD14F60181936F010F5F1F4FE9CF109228
:104700001604C7CF4090215E5090225E6090235ED9
:104710007090245E8090255E9090265EA090275E2B
:10472000B090285EC090295ED0902A5EE0902B5E0B
:10473000F0902C5E00912D5E10912E5E20912F5EE8
:104740003091305E4091315E5091325E6091335EC7
:104750007091345E8091355E9091365EA091375EA7
:10476000B091385E8DAB9EABAFABB8AF8091395E88
:1047700090913A5EA0913B5EB0913C5E88AB99AB64
:10478000AAABBBAB409266B7509267B7609268B76E
:10479000709269B78092C5589092C658A092C75837
:1047A000B092C858C0922459D0922559E092265907
:1047B000F092275900938359109384592093855977
:1047C000309386594093E2595093E3596093E459EA
:1047D0007093E5598DA99EA9AFA9B8AD8093415AB0
:1047E0009093425AA093435AB093445A88A999A9E6
:1047F000AAA9BBA98093425890934358A0934458C8
:10480000B093455885E18093FA4E88E090E080931C
:10481000F84E9093F94E88EE91E08093165790935E
:1048200017571092F74E90911A572FE638E5F90175
:1048300080E061E0DF01A25ABF4F4C91442309F4AC
:1048400051C0482F50E0DA01AA0FBB1FA40FB51FBB
:104850008D01075E1F4BD8014C914F3FC1F442813F
:104860005381DA0154967C915497711110C01F96B0
:104870008C931F9754966C9354974C9150E04F5FD4
:104880005F4BDA014C91D8014C939F5F8F5F44815D
:104890005581A281B3814A175B0721F1082F10E0EF
:1048A000D801AA0FBB1FA00FB11F8D01075E1F4BC0
:1048B000D8017C917F3FB1F4DA0154967C915497F2
:1048C000711110C01F968C931F9754966C93549738
:1048D0004C9150E04F5F5F4BDA014C91D8014C9303
:1048E0009F5F8F5FE15AFF4FBCE5E33EFB0709F096
:1048F000A1CF8093F74E90931A579091F64E61E0B6
:10490000D901A25ABF4F4C91442359F1482F50E08E
:10491000DA01AA0FBB1FA40FB51F8D01075E1F4B45
:10492000D8014C914F3FE9F4D9014D915C91DA01E6
:1049300054967C915497711114C01F968C931F97B5
:1049400054966C9354974C9150E04C5F5F4BDA0156
:104950004C91D8014C9311962D933C9312979F5FE5
:104960008F5F215A3F4FE217F30751F69093F64EAF
:1049700080933E583091104021E0280F2093F74E4D
:1049800090E0FC01EE0FFF1FE80FF91FE75EFF4B01
:10499000308310923C5810923D582093185710E0E5
:1049A000809119571817E0F4812F74D91F5FF8CF41
:1049B00018AA19AA1AAA1BAA412C512C3201812C1F
:1049C000912C5401C12CD12C760100E010E098010B
:1049D00040E050E0BA011DAA1EAA1FAA18AED2CE0E
:1049E0001091185720E836E948E15BE460911140E6
:1049F0007091124080911340909114400E94C540E4
:104A000020E030E044EF53E40E943E420E94AB427B
:104A10006959714081099109212F30E050E040E04F
:104A20000E94A8412093FD4E3093FE4E4093FF4ECE
:104A30005093004F10921B5781E08093164095E1F0
:104A40009093050690910306909303061092B00090
:104A50009091F84E90930206809300069091000684
:104A60009093000690910006926090930006109239
:104A7000080690910C06916090930C0680930A06AC
:104A80007894109228571092295710922A57109212
:104A90002B5760E070E080E090E40E945914E896A3
:104AA000CDBFDEBFDF91CF911F910F91FF90EF90AF
:104AB000DF90CF90BF90AF909F908F907F906F903E
:104AC0005F904F903F902F900895EF93FF93F89849
:104AD000E4EAF7E50BC0EF93FF93F898E4EAF7E513
:104AE00034C0EF93FF93E4EAF7E55FC02F932FB74D
:104AF0002F938F939F93AF93BF936894CF93DF933C
:104B000020E0C085D8E09289DF01A90FB21FAD5A1D
:104B1000BF4F8C9120E42C838A839F5F9F738D818C
:104B20002189291302C08F7D8D83928BDF91CF91D4
:104B300016F00C941F13BF91AF919F918F912F91FD
:104B40002FBF2F91FF91EF9118952F932FB72F9390
:104B50003F938F939F93CF93DF93C085D8E02E81AF
:104B60002F7E2E83898198818674880F3685382B15
:104B700082FD0DC0C78581E08C0F8F7320892817B7
:104B800091F0CE0FDF2F20E0D21F9B8B87873687D7
:104B9000DF91CF919F918F913F912F912FBF2F91B7
:104BA000FF91EF9118953064F2CF8F938FB78F9369
:104BB0009F93CF93DF93C085D8E09D8188818C81BE
:104BC00087FDFCCF9F7B90689D83DF91CF919F9164
:104BD0008F918FBF8F91FF91EF9118951F920F9238
:104BE0000FB60F92112484E00E949F13EF93FF935E
:104BF000EEE0F7E58F938FB78F9380818F5F80838F
:104C000081818F4F818382818F4F828383818F4FF8
:104C1000838381E08093260B8F918FBF8F91FF91CB
:104C2000EF9118951F920F920FB60F9211248F9348
:104C300088E08093A90481E0809313578F910F90AF
:104C40000FBE0F901F9018951F920F920FB60F92E4
:104C500011248F939F93809109048093090486FF08
:104C600003C091E09093155787FF03C081E08093C4
:104C700014579F918F910F900FBE0F901F90189512
:104C80001F920F920FB60F9211240BB60F922F9214
:104C90003F924F925F926F927F928F929F92AF92CC
:104CA000BF92CF92DF92EF92FF920F931F932F93B9
:104CB0003F934F935F936F937F938F939F93AF93A4
:104CC000BF93EF93FF93CF93DF93CDB7DEB72A97D0
:104CD000CDBFDEBF81E080930D06809110069091DC
:104CE00011068D839E8380910D578E5F909118578A
:104CF000891718F090911857891B90E0FC01EE0F6E
:104D0000FF1FE80FF91FE75EFF4B808180930806C5
:104D10008D819E812091395830913A58369527954A
:104D2000821B930B8D839E838D819E81E0910B5717
:104D3000F0910C57EE0FFF1FE55FF04B80839183DE
:104D400019821A821B821C822D813E810D811E8157
:104D500022241302B001029FA00112037209500D18
:104D6000611D721D30037209500D611D721D1124E9
:104D700049835A836B837C8389809A80AB80BC8013
:104D8000A0911740B0911840E0910D5708E0E09FC6
:104D9000F0011124EA0FFB1FE058FF4F2080318003
:104DA0004280538064807580068117819401A5013B
:104DB00060E070E080E090E05101620173010E94C8
:104DC000D6432083318342835383648375838683F0
:104DD00097834D815E81E0910D5718E0E19FF001CE
:104DE0001124EA0FFB1FA084B184C284D384E4841D
:104DF000F58406851785952F990F990B9A01492FF0
:104E0000592F692F792F892F0E94D6432087318708
:104E1000428753876487758786879787E0910D5708
:104E20008E2F90E0FC01EE0FFF1FE80FF91FE75EE9
:104E3000FF4B80818111CFC08091094F90910A4F23
:104E40009C013695279536952795AC01421B530B4F
:104E50009A018D819E81181619060CF478C08D81F7
:104E60009E81919581959109820F931F8093094F9F
:104E700090930A4F21E04091375850913858481785
:104E8000590708F020E02093F45D8D819E8118166B
:104E900019060CF05FC081E090E08093074F90937B
:104EA000084F2091074F3091084F8091034F909108
:104EB000044F2817390709F452C08091FC4E8F5FC8
:104EC0008093FC4E8091FC4E882351F01092FC4E52
:104ED0008091074F9091084F8093054F9093064F14
:104EE0008091054F9091064F019709F016C380916C
:104EF000034F9091044F019709F465C08091014FD1
:104F00009091024F01968093014F9093024F209110
:104F10001640222339F1209115402817190609F06F
:104F200008F5109216401092014F1092024F1496FD
:104F30001D921D921D921C921797CD0188529D4F74
:104F4000FD01E817F90771F010823196FACF8D81D3
:104F50009E818ACF1092074F1092084FA2CF1092D5
:104F6000FC4EB0CF14964D915D916D917C91179749
:104F70004F5F5F4F6F4F7F4F14964D935D936D93CF
:104F80007C9317970D911D912D913C911397409112
:104F9000FD4E5091FE4E6091FF4E7091004F0417F0
:104FA00015072607370778F08091474090914840D1
:104FB000A0934740B0934840809317409093184087
:104FC00081E080931B578091054F9091064F80930D
:104FD000034F9093044F90910D5780911A57981753
:104FE00008F445C280900B5790900C57E0910D57F4
:104FF0008E2F90E0FC01EE0FFF1FE80FF91FE75E18
:10500000FF4B0180F281E02D848D958D881A990ADD
:1050100053E09522E0910B57F0910C57A0910D575A
:105020008A2F90E0DC01AA0FBB1FA80FB91FA75E53
:10503000BF4B11960D90BC91A02D5E968D919C91C9
:10504000E81BF90BF37020910B5730910C57A0918E
:105050000D578A2F90E0DC01AA0FBB1FA80FB91FC4
:10506000A75EBF4B11960D90BC91A02D90968D918F
:105070009C91281B390BD901B370AF83B887880C7A
:10508000991C8401055F104B4801D8016D917C91FA
:10509000EE0FFF1FE55FF04B408151812224570244
:1050A0009001469F800156033209100D211D321DCB
:1050B00074033209100D211D321D112428013901FC
:1050C000E0911740F0911840A0910D5718E0A19F72
:1050D000D0011124AE0FBF1FA850BF4FAC90119646
:1050E000BC90119712962C90129713963C901397A0
:1050F00014960C911497098715961C9115971A8789
:1051000016960C91169717961C91179773016201CA
:10511000FF0CCC08DC2C76019201A3016C2D7C2DB8
:105120008C2D9C2D6101E984FA840E94D6432C9336
:1051300011963C93119712964C93129713965C9389
:10514000139714966C93149715967C93159716964F
:105150008C93169717969C93D4016D917C91AF8197
:10516000B885AA0FBB1FA55FB04B4D915C9122245F
:1051700057029001469F800156033209100D211DF0
:10518000321D74033209100D211D321D11244801F6
:105190005901A0910D5718E0A19FD0011124AE0F25
:1051A000BF1FA059BE4F2C9011963C90119712969C
:1051B000CC9012971396DC9013971496EC9014975A
:1051C0001596FC90159716960C91169717961C91AC
:1051D000179724013501770C4408542C32019401AF
:1051E000A501642D742D842D942D51010E94D64368
:1051F0002C9311963C93119712964C9312971396F9
:105200005C93139714966C93149715967C9315974B
:1052100016968C93169717969C93A0910D57809194
:105220000D572A2F30E0D901AA0FBB1FA20FB31FC1
:10523000A75EBF4B11962D913C9190E0DC01AA0F27
:10524000BB1FA80FB91FA75EBF4B11968D919C91F4
:10525000D90112962D913C91DC0114968D919C916F
:105260002817390709F403C180900B5790900C5709
:10527000A0910D578A2F90E0DC01AA0FBB1FA80F49
:10528000B91FA75EBF4B11960D90BC91A02DD4966F
:105290008D919C91881A990AB3E09B2220910B571B
:1052A00030910C5780910D5790E0DC01AA0FBB1F85
:1052B000A80FB91FA75EBF4B11960D90BC91A02DF2
:1052C000D6968D919C91D901A81BB90BBD01737025
:1052D00040910B5750910C5780910D57282F30E07B
:1052E000C901880F991F820F931F875E9F4BDC01B6
:1052F00011968D919C91DC01D8968D919C91481BC3
:10530000590BDA01B370AF83B887880C991C8401FC
:10531000055F104B4801D8018D919C91DB01AA0FCC
:10532000BB1FA55FB04B4D915C91BC01222457027D
:105330009001469F800156033209100D211D321D38
:1053400074033209100D211D321D11242801390169
:10535000A0910D5778E0A79FD0011124AE0FBF1F79
:10536000A851BE4FAC901196BC90119712962C90FC
:10537000129713963C90139714960C9114970987E3
:1053800015961C9115971A8716960C9116971796D5
:105390001C91179779016201FF0CCC08DC2C760177
:1053A0009201A3016C2D7C2D8C2D9C2D6101E98433
:1053B000FA840E94D6432C9311963C93119712962F
:1053C0004C93129713965C93139714966C931497BF
:1053D00015967C93159716968C93169717969C9313
:1053E000D4016D917C91AF81B885AA0FBB1FA55FD9
:1053F000B04B4D915C91222457029001469F800151
:1054000056033209100D211D321D74033209100D8F
:10541000211D321D11242801390180910D5718E0FA
:10542000819FC0011124E80FF91FE05AFD4FB081A0
:10543000A181C280D380E480F58006811781530169
:105440004201BB0C8808982C54019201A301682DDD
:10545000782D882D982DAB2EBA2E0E94D64320830E
:1054600031834283538364837583868397838091DA
:105470000D578F5F80930D5780910B5790910C576C
:10548000019680930B5790930C5790910D578091F4
:105490001857981788F010920D57E0911740F09127
:1054A000184080819181A281B3810196A11DB11D17
:1054B00080839183A283B38380910B5790910C5783
:1054C000937080930B5790930C572A96CDBFDEBFF5
:1054D000DF91CF91FF91EF91BF91AF919F918F910C
:1054E0007F916F915F914F913F912F911F910F91FC
:1054F000FF90EF90DF90CF90BF90AF909F908F90F4
:105500007F906F905F904F903F902F900F900BBEC9
:105510000F900FBE0F901F9018958091034F9091A0
:10552000044F51CD1F920F920FB60F9211240BB65C
:105530000F922F933F934F935F936F937F938F932C
:105540009F93AF93BF93EF93FF9381E59EE50E94F6
:105550005818FF91EF91BF91AF919F918F917F91DB
:105560006F915F914F913F912F910F900BBE0F90D4
:105570000FBE0F901F9018951F920F920FB60F92AB
:1055800011240BB60F922F933F934F935F936F931A
:105590007F938F939F93AF93BF93EF93FF938AE68D
:1055A0009FE50E945818FF91EF91BF91AF919F9195
:1055B0008F917F916F915F914F913F912F910F90BC
:1055C0000BBE0F900FBE0F901F901895EF92FF9299
:1055D0000F931F93CF93DF9300D0CDB7DEB7109218
:1055E000A6571092A75788EE93E0A0E0B0E0809312
:1055F000A8579093A957A093AA57B093AB5780EDA3
:1056000090E48093A4579093A55780E698E0809308
:10561000AC579093AD5786E492E28093AE57909347
:10562000AF5782E08093B0571092B1571092B257A3
:1056300080E090E0A8ECB2E48093E05D9093E15DBF
:10564000A093E25DB093E35D1092F35D1092F45D80
:105650008093F65D9093F75DA093F85DB093F95D4C
:105660001092095E10920A5E80930C5E90930D5E1C
:10567000A0930E5EB0930F5E10921F5E1092205E9C
:10568000E3EEFCE581839283A383B483148A759649
:105690002DE5EF3DF207B1F78FE698E5FC01E25A00
:1056A000FF4F1082815A9F4F4CE5833E9407B1F71C
:1056B000EFE3F8E524E130E092E081E020833183FC
:1056C00092831382148215821682178210861186A5
:1056D00082871386709648E5EF36F40779F71092C3
:1056E0003B5810923C5810923D5880E090E18093D6
:1056F000395890933A5880E091E0809337589093CE
:1057000038588EEF90E08093435E9093445E8DE135
:1057100090E080933F5E9093405E8DE090E08093B8
:105720003D5E90933E5E84E890E08093455E90936A
:10573000465E8DEF91E08093475E9093485E1092B5
:10574000415E1092425E04E810E009831A83CE01A4
:1057500001960E94CD1478019DE1E90EF11C8F3F66
:1057600009F4B6C00093415E1093425E2DEFE2163D
:1057700021E0F2065CF4E982FA82CE0101960E94F1
:10578000CD148F3F09F4A0C00E947F151092645F72
:105790001092655F48EE53E060E070E04093665F12
:1057A0005093675F6093685F7093695F82EE90E4E7
:1057B0008093625F9093635F20E039E020936A5F9B
:1057C00030936B5F10924B5E10924C5E40934D5E37
:1057D00050934E5E60934F5E7093505E8093495E2F
:1057E00090934A5E80E299E08093515E9093525E7E
:1057F0001092CA601092CB601092D4601092D56063
:105800001092D6601092D7601092D86081E0809399
:10581000D96024EF30E42093C8603093C9609AE0E7
:105820009093C3609BE09093C4609CE09093C560AC
:105830009DE09093C6601092C7609BE290937B605E
:1058400092ED90937C609BE190937D6010927E60DE
:1058500099E190937F604AE959E96AEC72E44093D8
:10586000806050938160609382607093836040E0B9
:1058700050E068E472E440938460509385606093E4
:105880008660709387604DEC5CEC6CE171E4409352
:10589000B8605093B9606093BA607093BB608093B6
:1058A000BC6084E690E08093BD609093BE601092EF
:1058B000BF601092C0600F900F90DF91CF911F9149
:1058C0000F91FF90EF9008954DE1E40EF11C4ECF43
:1058D00087018DEFE81681E0F80609F036CF56CF44
:1058E000CF93DF93CDB7DEB7CA57D109CDBFDEBFA7
:1058F00088ED21E030E084BF2093620091E084BF16
:10590000909363009DE284BF9093800093E084BFF6
:105910009093600080E090E22091650020FDD2C06D
:1059200021E02093030A8EEF8093260A8093270AB2
:105930009BE09093000A32E03093E6052093430AFF
:105940008093660A8093670A9093400A9093E705D4
:1059500037E03093010B80930C0B10920D0B95E008
:105960009093000B3093110B80931C0B10921D0B26
:105970009093100B3093310B80933C0B10923D0BA6
:105980009093300B4FEF5FE04093AA0B5093AB0B1B
:1059900080E88093820B1092810B4EEF50E0409391
:1059A000AE0B5093AF0B88ED34E184BF30936800A9
:1059B00081E18093800BE0E0F6E092838EE08583C6
:1059C00080E6838390838091B000887F8560809398
:1059D000B0008091B200887F85608093B2008FED27
:1059E0009EE280932C0B90932D0B2093250B10920D
:1059F000210B83E08093200B78940E94BB1E8E01C4
:105A00000B5C1F4F0FAB18AF84EA97E50E94F612AC
:105A1000892B09F4A9C084EA97E50E94D412D0909A
:105A200012578A3009F05FC5AD2DB0E0AD59B84AC4
:105A30001C92E0916357EF53EC3308F08DC00E2EAB
:105A4000000CFF0BEA5DF24D0C94CD435732AC2DA8
:105A5000AC2DAC2DAC2DAC2DAC2DAC2DAC2DAC2D7E
:105A6000AC2DAC2DAC2DAC2DAC2DAC2DAC2DAC2D6E
:105A7000AC2DAC2DAC2DAC2DAC2DAC2DAC2DAC2D5E
:105A8000AC2DAC2DAC2DAC2DAC2DAC2DAC2DAC2D4E
:105A9000AC2D682D9F2D702E8D2E962EB42EAC2DF4
:105AA000F630582EC52E8D309530F630AC2D103195
:105AB000AC2D20314F31AC2DAC2D293226322F3276
:105AC000AC2D3632019709F027CF83E00E949F1357
:105AD00012E0D11241C084E697E50E94C63E8430B0
:105AE00041F1883041F1893041F58BE580937B604D
:105AF00069EE71E284EA97E50E946C1380917B6005
:105B000061EB71E08B3251F064E673E0863531F081
:105B100063E973E08B3511F070E060E084EA97E5AB
:105B20000E94941A64EE71E284EA97E50E94101ACA
:105B300013C08BE2DBCF86E5D9CF80E0D7CF22E060
:105B4000D2120AC084E697E50E94C63E019709F08A
:105B5000ACC081E08093BF6080E4A3E6B7E51D920E
:105B60008A95E9F7109212578091155790914858ED
:105B7000992389F0882379F081E080934A580E9424
:105B8000241460934B5870934C5880934D589093C5
:105B90004E58109215578091145790915858992348
:105BA00089F0882379F081E080935A580E94241468
:105BB00060935B5870935C5880935D5890935E58E7
:105BC000109214578091135790916858992389F037
:105BD000882379F081E080936A580E9424146093AE
:105BE0006B5870936C5880936D5890936E581092C8
:105BF00013579FE3E92E98E5F92E8701D12CC12C8C
:105C0000560184E0AA0CBB1C8A95E1F7F501E15C22
:105C1000F74A4F018385D80119969C91992309F47D
:105C200081C4882309F47EC40E942414F4012485CD
:105C30003585468557851B012C01221A330A440AF3
:105C4000550AB201A101D8018D919C91B0E0A0E06C
:105C500084179507A607B70708F064C4B1E0CB1610
:105C600009F44EC4E2E0CE1609F450C48091080451
:105C700086FB882780F9F501E15CF74A1386D80195
:105C80001A969C911A97981709F44CC412969C91F5
:105C9000811142C4923009F042C4F8012781308555
:105CA0002F5F3F4F278330873AC41092BF6054CF95
:105CB00032E0D31251CF84E697E50E94C63E0197A9
:105CC00061F481E08093C0608091C0606AED71E210
:105CD00081112ACF6FEC71E227CF1092C060F4CF10
