:100200000C9408110C9432110C9432110C947D2032
:100210000C9432110C9432110C9432110C94321152
:100220000C94BF200C9432110C9432110C943211A6
:100230000C9432110C9432110C9432110C94321132
:100240000C9432110C9432110C9457250C943211E9
:100250000C9432110C9432110C9432110C94321112
:100260000C9432110C9432110C94DB200C9432114A
:100270000C9432110C9432110C9432110C94852090
:100280000C9432110C9432110C9432110C94AD2058
:100290000C9432110C9432110C9432110C943211D2
:1002A0000C9432110C9432110C942D250C943211B3
:1002B0000C9432110C9432110C9432110C943211B2
:1002C0000C9432110C9432110C9432110C943211A2
:1002D0000C9432110C940F200C940A200C941420CE
:1002E0000C9432110C9432110C9432110C94321182
:1002F0000C9432114E414E494E495459494E46CD07
:10030000CCCC3D0AD7233C17B7D13877CC2B3295CC
:1003100095E6241FB14F0A000020410000C84200AA
:10032000401C4620BCBE4CCA1B0E5AAEC59D74AEC6
:10033000D580A83FD300408D142002A1C8DA1281D5
:100340007FD9F1DB40A4A6AF706861736500766F5A
:100350006C74616765203D2000656D6F6E50693279
:10036000006861726477617265203D200076657275
:1003700073696F6E203D20006669726D77617265EA
:10038000203D20656D6F6E5F44425F313243540003
:100390002C207266466F726D6174203D20002C2007
:1003A0007266506F776572203D20002C2072664E79
:1003B0006F6465203D2000204D487A2C20726647EE
:1003C000726F7570203D20005246203D206F6E2CCC
:1003D00020726642616E64203D20005246203D201E
:1003E0006F6666006A736F6E203D206F6666006AF6
:1003F000736F6E203D206F6E00646174616C6F6777
:10040000203D20002C20694C656164006943616CCB
:10041000007643616C203D20006D73002C207075C8
:100420006C7365506572696F64203D20006F66666D
:100430000070756C7365203D200000030C0F303395
:100440003C3FC0C3CCCFF0F3FCFF4E6F204545507E
:10045000524F4D20636F6E666967004C6F61646533
:100460006420454550524F4D20636F6E66696700AA
:100470007672656661203D20001E6C0D0E206002C4
:10048000010308070A080103030507010401040624
:100490000306060706060606060101060606060D01
:1004A00009070808070709070105080709070907D9
:1004B0000908070707090D080908020402050802D0
:1004C00006060506060406060102060109060606DA
:1004D00006040504060709060706030103070700CB
:1004E000000000FE141E001E0000009090F8969080
:1004F000F89690001C00001C000000182422FF4207
:1005000042840810103C1008041C22221CC0308CAD
:100510004240800000100C00000C10100C805C2287
:1005200062920C80000C101010100C08101E00F0CD
:100530000C021C6080020CF080601C04140E140479
:100540000000000000404040F84040400000000C27
:10055000000000007080808080000000000010001B
:10056000C0380618040000FC02020202FC0C101045
:1005700010100C0804FE00001C0C020282423C1009
:1005800018141010100C02222222DC0C1010101073
:100590000C8040300804FE0004040404041C0438E9
:1005A00016121212E20C1010101804F84422222223
:1005B000C40C101010100C020202E21A0600001CFB
:1005C000000000DC22222222DC0C101010100C3C57
:1005D00042424222FC081010100804081008704023
:1005E000A0A01010080000000404089090909090C3
:1005F00090000000000000081010A0A040080404B3
:100600000000000C028242221C000014000000E0E6
:100610001804C422121212A2720408F00C30404CCA
:10062000909090889C90504C200080E09C829CE0B0
:100630008000180400000000000418FE222222227C
:1006400022DC1C10101010100CF80402020202042C
:10065000080408101010100804FE0202020202042E
:10066000F81C10101010100804FE22222222222250
:100670001C101010101010FE2222222222021C0038
:100680000000000000F804020202424244C80408CC
:1006900010101010100804FE2020202020FE1C0046
:1006A000000000001CFE1C00000000FE0C101010DA
:1006B0000CFE804020508804021C0000000004084A
:1006C00010FE0000000000001C101010101010FEA2
:1006D0000C30C000C0300CFE1C00000418040000E8
:1006E0001CFE0418608000FE1C00000004081CF8BA
:1006F00004020202020204F804081010101010088C
:1007000004FE42424242423C1C000000000000F84D
:1007100004020202020204F8040810101014081C5B
:1007200010FE424242C242423C1C0000000004084B
:10073000101C22222242428C0C10101010100C02AD
:100740000202FE0202020000001C000000FE000087
:10075000000000FE04081010100804061860800055
:10076000806018060000000418040000000638C06D
:1007700000C03C023CC000C0380600000418040061
:1007800000000418040000020C906060900C02103D
:100790000C000000040C1002041820C020180402F1
:1007A000000000001C0000000000028242221A0625
:1007B000021018141010101010FE02FC800638C031
:1007C000000000041802FE80FC201C021C20000017
:1007D0000000000000000000000000808080808099
:1007E000808080020400001088484848F00C1010F7
:1007F00010081CFE10080808F01C081010100CF05F
:10080000080808100C10101008F008080810FE0C5A
:10081000101010081CF048484848700C10101010B8
:100820000808FC0A0A001C0000F008080810F84C30
:10083000909090887CFE10080808F01C00000000D2
:100840001CFA1C00FA807CFE8040A010081C0000EE
:10085000000C10FE1CF8100808F0100808F01C002E
:1008600000001C0000001CF810080808F01C000024
:1008700000001CF008080808F00C101010100CF80C
:1008800010080808F0FC081010100CF008080810F8
:10089000F80C10101008FCF81008081C00000030BC
:1008A00048484890081010100C08FE0808001C105A
:1008B00010F800000000F80C101010081C186080E0
:1008C000008060180000041804000018E000E01820
:1008D000E000E0180004180400041804000830C008
:1008E000C03008100C00000C1018608000806018E8
:1008F00000808C700C000008088868180810181414
:10090000101010807C02007C80FEFC027C80807CC9
:10091000004020206040402000000000000000FC5B
:100920000404040404FC1C10101010101C697A1537
:100930001920600703070F0C16100207070B0F049E
:1009400007030A0C0A0C0B0D0C0C0C0C0D03040D08
:100950000E0E0A14100D0F0F0C0B100E06080E0BC6
:10096000100E110C110E0D0F0D0F150E0D0E060AA7
:10097000060E0F040B0C0B0C0C070C0B03060C02E1
:10098000130B0C0C0C080A080B0C110C0C0B0B02B3
:100990000B0F00000000000000000000000000003D
:1009A000000000000000000000000000000000380F
:1009B000F8F8007F7F000C0C000000FCFC00000039
:1009C000FCFC00010000000100000000000000002D
:1009D00000000000000000000080808080F0B880EF
:1009E0008080F898808040606161F17F4341E1F947
:1009F0007F616161010000000F030000080F01002A
:100A000000000000000000000000000000000000E6
:100A100000000080C0E06060FC60606060E0000793
:100A20000F1C1818FF383030E0E080060E0C0C0C5C
:100A3000FF0C0C060703010000000000000000008E
:100A4000000000F0F8180C0C1CF8F000000000C0CA
:100A5000E03808000000000000070F0C08080C0F29
:100A600007C0F03C0F0300F8F80C0C0C1CF8F00069
:100A700000000000000C0F030000000000070F0C36
:100A8000080C0C070300000000000000000000003C
:100A900000000000000000000000000060F8F80CFA
:100AA0000C0C0CF8F8600000000000C0F0F90F0713
:100AB000060E1B3171E0C0FC3C00000003070E0C69
:100AC0000C0C0C0C06070303070E0C0000000000C2
:100AD0000000000000000000000000FCFC0001001D
:100AE0000000000080E0781C0C04FCFF0700000000
:100AF00000010F3F78E0800000000000808080044B
:100B00000C1C78E080000000000087FFFC0080E003
:100B1000783F0F008080800000000010302060C00F
:100B2000FCC06020301002020301011F010103021A
:100B300006000000000000000000000000000000AF
:100B40000000000000000000000000000000E0E0E5
:100B500000000000000018181818181818FFFF18D7
:100B60001818181818000000000000000F0F0000EF
:100B70000000000000000000000000000000000075
:100B80000000000000000000000000E0FC3E0E003D
:100B900000000000000000000000181818181818C5
:100BA000180000000000000000000000000000002D
:100BB00000000000000E0E0E00000000000000000B
:100BC00000C0F83C04000000C0F83F07000000E04F
:100BD000781F070000000000000000000000000077
:100BE000000000C0F078180C0C0C1838F0E080FF02
:100BF000FF00000000000000E1FF3F0107070C0CB0
:100C00000C0C0C0E070100000000000000000000AA
:100C100000000000606070F8FC00000000000000B0
:100C200000FFFF000000000C0C0C0C0F0F0C0C0C54
:100C30000C000000000000000000000018180C0C60
:100C40000C1C1878F0E000000080C0E070381C0F29
:100C50000701000E0F0F0D0C0C0C0C0C0C0C0C00F3
:100C600000000000000000000000000018181C0C2C
:100C70000C0C1C38F8F000000000040E0E0E1BF9DE
:100C8000F0060E0C0C0C0C0C0C0E07030000000000
:100C9000000000000000000000000080C06030F88C
:100CA000F8F8000070786E6763616060FFFFFF60B6
:100CB0006000000000000000000F0F0F00000000A7
:100CC000000000000000000000000000F8F8181804
:100CD00018181818181800000707060606060E0C44
:100CE000FCF8E0060E0C0C0C0C0C0C0E07030000BC
:100CF000000000000000000000000080E0F030185C
:100D000018080C0C0C0000FFFF0C06060606060E69
:100D1000BCF8F00103070E0C0C0C0C0E07030100CD
:100D2000000000000000000000000018181818184B
:100D300018181898F8783800000000C0F0781E07DE
:100D400001000000000C0F0701000000000000007F
:100D50000000000000000000000000E0F0B81C0CE3
:100D60000C0C0C18F8F000F1F31F0E060C0C1C1EF6
:100D7000F3F1C003070E0C0C08080C0C070301006C
:100D8000000000000000000000000080E0F01818E3
:100D90000C0C0C1838F0E0C0010F1F183830303040
:100DA0001098FFFF0F00000C0C0C0C0C0E06030338
:100DB00000000000000000000000000000000080B3
:100DC00080800303030E0E0E000000008080800070
:100DD000030303E0FC3E06000000000000000000EA
:100DE00000000000808080C01838386C6CC6C6C314
:100DF00083810101000000000000000000010103E8
:100E000003060000000000000000000000000000D9
:100E100000000000000000000000000000C6C6C680
:100E2000C6C6C6C6C6C6C6C6C6C6C6000000000040
:100E300000000000000000000000000000000000B2
:100E400000000000000000C0C08080000000000022
:100E50000000000000000001018383C3C6666C3CF3
:100E600038381006030303010100000000000000F1
:100E7000000000000000000000000000000000185A
:100E8000180C0C0C1C18F8F0E000000078780C0E20
:100E90000703000000000C0C000000000000000030
:100EA000000000000000000080C060301818888832
:100EB0008C8C8C8888183070E080007CFF010000EA
:100EC000FCFF830101010181FF00000000FF7C00A5
:100ED00003070C1830312323636363612303020289
:100EE00003010000000000000000000000000000FE
:100EF000000000000000000000000000C0F83838CA
:100F0000F8E080000000000000C0F87F6F616060C2
:100F100060677FFCE00000080E0F03000000000087
:100F2000000000010F0F0C00000000000000000096
:100F300000000000000000F8F8F818181818181839
:100F4000B8F0E000FFFFFF0C0C0C0C0E0E0F1DF8AC
:100F5000F00F0F0F0C0C0C0C0C0C0E06070300000E
:100F600000000000000000000000000080E0F038F9
:100F700018180C0C0C1C181838301EFFF3800000D9
:100F800000000000000000000000000307070E0C36
:100F90000C0C0C0C0C0E06060000000000000000FB
:100FA00000000000000000F8F8F8181818181818C9
:100FB000183070E0C000FFFFFF00000000000000DC
:100FC0000080F3FF3F0F0F0F0C0C0C0C0C0E0607EC
:100FD000030300000000000000000000000000000B
:100FE000000000F8F8F8181818181818181818FF42
:100FF000FFFF0606060606060606060F0F0F0C0C78
:101000000C0C0C0C0C0C0C0000000000000000008C
:10101000000000F8F8F81818181818181818FFFF2A
:10102000FF0C0C0C0C0C0C0C000F0F0F0000000040
:1010300000000000000000000000000000000000B0
:1010400080E0F0301818080C0C0C0C181838301E02
:10105000FFF38000000000001818181838F8F80096
:10106000000303070E0C0C0C0C0C0C0C0E070700F5
:10107000000000000000000000000000000000F878
:10108000F8F80000000000000000F8F8F8FFFFFF8B
:101090000606060606060606FFFFFF0F0F0F0000F6
:1010A0000000000000000F0F0F0000000000000013
:1010B000000000000000000808F8F808080000FF21
:1010C000FF00000C0C0F0F0C0C00000000000000D3
:1010D00000080808F8F8F80000000000FFFFFF0C07
:1010E0000C0C0C0C0707010000000000000000F8C9
:1010F000F8F800000080C0E07038180800FFFFFF1B
:101100001C1E1F7FF1E0C0000000000F0F0F000049
:101110000000000103070E0C0800000000000000A2
:1011200000000000000000F8F8F8000000000000D7
:101130000000FFFFFF00000000000000000F0F0F85
:101140000C0C0C0C0C0C0C0C00000000000000003F
:10115000000000F8F8F878E0800000000080E078F7
:1011600038F8F8FFFFFF0001071E78703E07010006
:1011700000FFFF0F0F0F0000000000000000000044
:10118000000F0F0000000000000000000000000041
:10119000000000F8F8F838F0C08000000000F8F80F
:1011A000F8FFFFFF0000030F3EF8E080FFFFFF0F96
:1011B0000F0F00000000000003070F0F0F000000DA
:1011C000000000000000000000000000C0E0F03857
:1011D00018180C0C0C181838F0E080001EFFF38073
:1011E00000000000000000000080F3FF3E0000034C
:1011F00007060E0C0C0C0C0C0E060703000000007A
:10120000000000000000000000000000000000F8E6
:10121000F8F818181818183870E0C0FFFFFF101001
:101220001818181C0E07030F0F0F00000000000015
:1012300000000000000000000000000000000000AE
:10124000C0E0F03818180C0C0C181838F0E08000CA
:101250001EFFF38000000000000000000080E7FF98
:101260001E00000307060E0C0C0C1C7CFEC6C78378
:10127000C0C000000000000000000000000000806E
:10128000808000F8F8F818181818181878F0C000BE
:1012900000FFFFFF1818183878ECC7870100000F0F
:1012A0000F0F00000000000001030F0E08000000F7
:1012B0000000000000000000000000E0F038181CF2
:1012C0000C0C0C1C181818000307070E0C0C0C1C37
:1012D0001C1878F0E0060E0C0C0C0C0C0C0C0E0715
:1012E00003010000000000000000000000000018E2
:1012F0001818181818F8F8F81818181818180000FE
:1013000000000000FFFFFF000000000000000000E0
:101310000000000F0F0F00000000000000000000A0
:101320000000000000000000000000F8F8000000CD
:10133000000000000000F8F8FFFFC00000000000FF
:10134000000000FFFF0003070E0C0C0C0C0C0C0738
:10135000070100000000000000000000000000384D
:10136000F8E08000000000000000C0F878080001EC
:10137000073FFCE00000C0F07E0F0300000000000B
:1013800000010F0F0E0F030000000000000000001E
:10139000000000000000000000000008F8F88000D5
:1013A00000000000F078F8F00000000000C0F878BD
:1013B00000000F7FF88000F07F0700000FFFF000B3
:1013C000C0FC7F070000000000070F0F07000000AF
:1013D0000000000F0F0F07000000000000000000D9
:1013E00000000000000000000000000000000000FD
:1013F0001838F0E080000000C0E0783818000000E5
:1014000080E1773F1E7FF3C0800000080C0F0301CE
:10141000000000000003070E0C00000000000000A8
:10142000000000000000001878F0C080000000807C
:10143000E0F038080000000307FEFCFE0701000092
:101440000000000000000F0F0F000000000000006F
:10145000000000000000000000000000181818182C
:101460001818181898F8F83818000080C0E0703C78
:101470000E0703010000000C0E0F0D0C0C0C0C0CE1
:101480000C0C0C0C0C000000000000000000000020
:10149000000000FCFC04040404FFFF00000000FF47
:1014A000FF808080808080808080800C3CF8C0003D
:1014B0000000000000000001073EF8C0000000002E
:1014C0000000000000073F78C0000000000000009E
:1014D00000000004040404FCFC00000000FFFF8086
:1014E000808080FFFF808080808080000080C0E05E
:1014F00038183870E0800000000C0E070100000072
:1015000000000003070E08000000000000000000BB
:1015100000000000000000000000000000000000CB
:1015200000000000000000000000000000000000BB
:1015300000000000000000000000000000000000AB
:1015400000C0C0C0C0C0C0C0C0C0C0C0C0C0C0C05B
:101550000000000000000000000000000000000388
:101560000F1C100000000000000000000000000040
:101570008080808080808080800080E1E131313116
:10158000111919FFFF03070F0C0C0C0C0C060F0FA1
:101590000000000000000000000000FCFC000080D3
:1015A00080808080000000FFFF0301010101010332
:1015B0008FFEF80F0F0E0C0C0C0C0C0E0703000026
:1015C000000000000000000000000000000080801B
:1015D000808080808000F8FE8F03010101010101FD
:1015E000010003070E0C0C0C0C0C0C040000000096
:1015F0000000000000000000000080C0C0C0C080EB
:1016000080FCFCF8FE8F03010000010103FFFF00D6
:1016100003070E0C0C0C0C06060F0F000000000058
:10162000000000000000000000008080C0C0C080FA
:1016300080000078FEFF333131303131333F3C00E0
:101640000307060C0C0C0C0C0C0E0600000000002E
:101650000000000000000080E0F8BC8C8C8C01FFD2
:10166000FF01010101000F0F000000000000000059
:101670000000000000008080808080808000007872
:10168000FECF03010101010103FFFE0003C7868EA7
:101690008C8C86C6F77F0F00008080808080800061
:1016A000000000FCFC000080808080808000FFFF44
:1016B00003030101010103FFFE0F0F000000000002
:1016C00000000F0F00000000000000000000009C60
:1016D0009C00FFFF000F0F00000000008080809C36
:1016E0009C00010101FFFF808080C0FF7F8080801F
:1016F000800000FCFC00000000000080808000FFF3
:10170000FFE07078FCCE87030100000F0F0000009F
:10171000000103070E0C080000000000000000009C
:10172000000000FCFCFFFF0F0F0000808000008025
:101730008080808000000080808080808000FFFFAB
:1017400003030101010107FFFF030101010103FF81
:10175000FF0F0F000000000000000F0F000000004E
:1017600000000F0F0000000000000000000000005B
:1017700000000000000000808000008080808080E9
:101780008000FFFF03030101010103FFFE0F0F00B3
:101790000000000000000F0F00000000000000002B
:1017A00000000000000080C0C0C0C080000000F841
:1017B000FE8F03010000010107FFFC0003070E1C60
:1017C00018181C0C070701000000000000000000B2
:1017D000000000808000008080808080000000FF8A
:1017E000FF030101010101038FFE78FFFF0E0C0CC6
:1017F0000C0C0C06070100808000000000000000B7
:1018000000000000000080808080808080808078E0
:10181000FECF03010101010103FFFF0003070E0CCE
:101820000C0C0C0607FFFF00000000000000000089
:101830000080808080000080808080FFFF0703019F
:101840000101010F0F000000000000000000000077
:1018500000000000008080808080808080001F3F2A
:101860003131716161E1C3060E0C0C0C0C0C0C07DC
:10187000070000000000000000000080F8F88080F1
:1018800080808001FFFF01010101010003070F0CAF
:101890000C0C0C0000000000000000808000000024
:1018A000000000008080FFFF00000000000000FF3B
:1018B000FF03070F0C0C0C0C06060F0F00000000B6
:1018C0000000000000000080800000000000000018
:1018D00000808001073FF8E00000C0F83E0F0100E3
:1018E000000000070F0F07010000000000000000CB
:1018F0000000000000000080800000000000008068
:101900008000000000008080011FFFF00080F83F91
:10191000070F7EF08080F87F070000000F0F0F0197
:1019200000000000030F0F0700000000000000008F
:101930000000000000000000000000808080000027
:10194000000000008080800001038FDCF8F8FC8E2E
:10195000070100080C0F0301000001030F0E08002F
:101960000000000000000000000000808000000077
:101970000000000000808001073FFCE08000E0F8EC
:101980003E0F0100000080F37F1F070000000000F1
:1019900000008080000000000000008080808080C7
:1019A000808080808000010181C1E1711D0F0703EB
:1019B000000C0E0F0D0C0C0C0C0C0C0C000000009D
:1019C000000000000000000000000000F8F80C0C0F
:1019D000040430303078CE8703000000000000009F
:1019E00000037FFEC0808080000000000000000037
:1019F000008080FCFCFFFFFFFF808004040C0C3C97
:101A0000F8E000000000000000000087CF587030B0
:101A100030808080C0F07F1F0000000000808000C8
:101A200000000000000000000000000000000000B6
:101A300000000000000060781C0606060C183060EC
:101A40006060603E1E00000000000000000000001A
:101A50000000000000000000000000000000000086
:101A60000000002F03198040005374617274696E86
:101A70006720656D6F6E506932204F4C4544000AF7
:101A800000202868696464656E292E0020627974DC
:101A90006573002C20446174612073697A653A2073
:101AA00000205369676E61747572653A20004E6F4D
:101AB000206461746120626C6F636B20666F756E69
:101AC00064202D20454550524F4D20617070656156
:101AD000727320746F20626520666F726D6174741A
:101AE000656420746F204F454D205374616E6461AE
:101AF00072642062757420756E757365642E000AB9
:101B0000002062797465732C206E6F7420666F728A
:101B10006D617474656420746F204F454D2053745B
:101B2000616E646172640053697A653A2000446FA3
:101B30006E652E204E657720636F6E666967207331
:101B40006176656420746F20454550524F4D0053B7
:101B50006176696E672E2E2E00536B657463682064
:101B600077696C6C206E6F77207265737461727424
:101B7000207573696E672064656661756C74206397
:101B80006F6E6669672E00526573657474696E675F
:101B90002E2E2E0020000A417661696C61626C6510
:101BA00020636F6D6D616E64733A0A6C09092D20B4
:101BB0006C697374207468652073657474696E67EA
:101BC000730A7209092D20726573746F7265207330
:101BD0006B657463682064656661756C74730A7301
:101BE00009092D20736176652073657474696E67C9
:101BF0007320746F20454550524F4D0A7609092DC8
:101C00002073686F77206669726D776172652076E0
:101C1000657273696F6E0A7A09092D207A65726F91
:101C200020656E657267792076616C7565730A78D8
:101C300009092D20657869742C206C6F636B206115
:101C40006E6420636F6E74696E75650A3F09092DB5
:101C50002073686F772074686973207465787420C6
:101C6000616761696E0A0A623C6E3E09092D207344
:101C7000657420722E662E2062616E64206E203D97
:101C800020612073696E676C65206E756D65726189
:101C90006C3A2034203D203433334D487A2C2038A0
:101CA000203D203836384D487A2C2039203D2039C7
:101CB00031354D487A20286D6179207265717569DA
:101CC0007265206861726477617265206368616E15
:101CD0006765290A703C6E6E3E09092D2073657494
:101CE0002074686520722E662E20706F7765722EC4
:101CF000206E6E202D20616E20696E74656765729E
:101D00002030202D20333120726570726573656E2E
:101D100074696E67202D31382064426D20746F2005
:101D20002B31332064426D2E2044656661756C74DE
:101D30003A20323520282B372064426D290A673C2F
:101D40006E6E6E3E092D20736574204E6574776F3C
:101D5000726B2047726F757020206E6E6E202D2082
:101D6000616E20696E746567657220284F454D204D
:101D700064656661756C74203D20323130290A6ECD
:101D80003C6E6E3E09092D20736574206E6F64658C
:101D9000204944206E3D20616E20696E7465676540
:101DA0007220287374616E64617264206E6F646562
:101DB000206964732061726520312E2E3630290A25
:101DC0000A643C78782E783E092D2078782E782089
:101DD0003D206120666C6F6174696E6720706F6969
:101DE0006E74206E756D62657220666F7220746805
:101DF0006520646174616C6F6767696E67207065E8
:101E000072696F640A633C6E3E09092D206E203DA5
:101E1000203020666F72204F46462C206E203D20D9
:101E20003120666F72204F4E2C20656E61626C65AA
:101E300020766F6C746167652C2063757272656EB5
:101E400074202620706F77657220666163746F72EC
:101E50002076616C75657320746F2073657269619B
:101E60006C206F757470757420666F722063616C7E
:101E70006962726174696F6E2E200A6A3C6E3E0957
:101E8000092D207475726E204A534F4E205365728F
:101E900069616C20666F726D6174206F6E202831ED
:101EA00029206F72206F6666202830292E0A663C32
:101EB00078783E09092D207878203D2074686520C7
:101EC0006C696E65206672657175656E63792069EF
:101ED0006E20487A3A206E6F726D616C6C79206565
:101EE0006974686572203530206F722036300A6B55
:101EF0003C783E203C79792E793E203C7A7A2E7AC5
:101F00003E0A09092D2043616C6962726174652083
:101F1000616E20616E616C6F67756520696E7075AA
:101F200074206368616E6E656C3A0A090920207836
:101F3000203D20612073696E676C65206E756D654C
:101F400072616C3A2030203D20766F6C7461676559
:101F50002063616C6962726174696F6E2C2031203C
:101F60003D206374312063616C6962726174696FD2
:101F70006E2C2032203D206374322063616C6962D4
:101F8000726174696F6E2C206574630A09092020E0
:101F900079792E79203D206120666C6F6174696EBD
:101FA0006720706F696E74206E756D626572206651
:101FB0006F722074686520766F6C746167652F633B
:101FC000757272656E742063616C696272617469A6
:101FD0006F6E20636F6E7374616E740A090920203E
:101FE0007A7A2E7A203D206120666C6F6174696E6A
:101FF0006720706F696E74206E756D626572206601
:102000006F72207468652070686173652063616C0D
:102010006962726174696F6E20666F72207468699C
:102020007320632E742E20287A206973206E6F74BB
:10203000206E65656465642C206F722069676E6F21
:1020400072656420696620737570706C6965642CB4
:10205000207768656E2078203D2030290A09092004
:1020600020652E672E206B30203235362E380A0937
:1020700009202020202020206B312039302E3920CB
:10208000322E30300A6D3C783E203C79793E092D65
:10209000206D657465722070756C736520636F7553
:1020A0006E74696E673A0A090920202078203D2065
:1020B0003020666F72204F46462C2078203D20311C
:1020C00020666F72204F4E2C203C79793E203D20B7
:1020D000616E20696E746567657220666F72207428
:1020E00068652070756C7365206D696E696D756DBE
:1020F00020706572696F6420696E206D732E2028D0
:1021000079206973206E6F74206E65656465642C38
:10211000206F722069676E6F726564207768656EE4
:102120002078203D2030290A00456E6572677920AD
:1021300076616C7565732073657420746F207A65A1
:10214000726F00436F6E74696E75696E672E2E2E06
:1021500000526164696F2069732068616E646C6508
:102160006420627920746865205069206F6E207445
:10217000686520656D6F6E506932007266506F77CA
:102180006572203D200072664E6F6465203D200020
:102190002C20694C656164006943616C0076436181
:1021A0006C203D2000726647726F7570203D2000E4
:1021B00066726571203D2000646174616C6F6720F8
:1021C0003D20006A736F6E203D206F6666006A7363
:1021D0006F6E203D206F6E00204D487A007266427F
:1021E000616E64203D20007D002C2250002C224690
:1021F000223A002C225631223A007B224D534722AC
:102200003A000A0000080A400CFFC000C000812507
:1022100011241FBECFEFCDBFDFE7DEBF11E4A0E08A
:10222000B0E4E6E6F3E800E00BBF02C007900D92D1
:10223000AA35B107D9F721E6AAE5B1E401C01D929C
:10224000AB34B207E1F711E1C8E0D1E104C0219756
:10225000FE010E948141C730D107C9F70E94F126D3
:102260000C94B1410C94000120910314FC012083D3
:1022700020910414218320910514228320910614B7
:1022800023830895809130618D3011F42D9A089543
:10229000873011F40F9A0895813109F44B9A08950B
:1022A000000090913461911109C08093440980919C
:1022B000430987FFFCCF8091440908958093640906
:1022C0008091630987FFFCCF809164090895809114
:1022D00030618D3011F42D980895873011F40F98E6
:1022E0000895813109F44B980895CF93DF93D82F47
:1022F000C62FEDDF8D2F8068D3DF8C2FD1DFDF91EC
:10230000CF91C0CFCF93C82FE2DF8C2FC9DF80E001
:10231000C7DFC82FB7DF8C2FCF910895CF9390914F
:10232000F257981791F0C82F81E0ECDF837E682F79
:102330006C2B81E0DADF8091F257811104C087E2D3
:10234000E1DF87FFF8CFC093F257CF9108950F9345
:102350001F93CF93DF93EC0184E0E0DF2097D9F067
:1023600088818823C1F0B3DF8EEB9ADF8E01005F96
:102370001F4F899195DFC017D107D9F783DFC1E0DF
:102380008DE3C0DF8E7F682F6C2B8DE3DF91CF91C3
:102390001F910F91AACFC0E0F3CF1092F157109286
:1023A000EF571092F0571092ED571092EE5710928F
:1023B000EC571092EB5788E2A5DF82FF06C08DE351
:1023C000A1DF682F64608DE390DF80E1A7CFE0910B
:1023D0008C5EF0918D5E8581837009F443C08381AA
:1023E00080FF40C050918F5E5E7F30E020E090E043
:1023F0004581842F83702F5F3F4F213C6DE5360769
:1024000040F0823049F1813049F184E093E09483D7
:102410000895642F6C7021F08CE0858382E1F6CF03
:10242000813021F4578330E020E0E2CF823001F7A1
:1024300046FFDECF44FF04C0992341F383E0E6CF9B
:102440008091905E981760F4A92FB0E0A856B14A29
:102450008C9180879F5FE7CF85E0D8CF81E1D6CF91
:1024600080E0D4CF80E10895AF92BF92CF92DF9207
:10247000EF92FF920F931F93CF93DF936C017B0139
:102480008B01040F151FEB015E01AE18BF08C017CA
:10249000D10759F06991D601ED91FC910190F0813D
:1024A000E02DC6010995892B79F7C501DF91CF9100
:1024B0001F910F91FF90EF90DF90CF90BF90AF9062
:1024C0000895FC0155894689252F30E0842F90E03E
:1024D000821B930B541710F0CF960895019708951F
:1024E000FC0193898489981761F0A489AE0FBF2FEE
:1024F000B11D57968C9194899F5F9F73948B90E048
:1025000008958FEF9FEF0895FC01938984899817B0
:1025100031F08489E80FF11D878990E008958FEFED
:102520009FEF0895FC0193892489892F90E0805CB6
:102530009F4F821B91098F7399270895CF93DF9343
:10254000EC01E881F9810680F781E02D0995EC85A1
:10255000FD85868116828581158280E484838C893D
:102560008B8B1A8ADF91CF9108958F929F92AF92B1
:10257000BF92FF920F931F93CF93DF938C014A0179
:102580005B01D22FC32FDC0152968C91529780FFB2
:1025900007C0ED91FC910288F389E02DC8010995EF
:1025A000D11101C0D3E0FD2EE894F2F8DC2FD095D4
:1025B000D07CB1E68B16B3EE9B06B6E1AB06B10458
:1025C00028F0D260B694A7949794879460E078ED51
:1025D00088EB95E0A50194010E944D3FC90120348C
:1025E000310510F480E490E03C2F3B72D7FD306859
:1025F0004D2F487C30FD41605FB7F894D8011C96A0
:10260000ED91FC911682F7828087918735FF8FC00C
:102610004F7781E084878FEF85873F7D3583D68331
:10262000F8012189C08986859785FC0133E0239FC5
:10263000E00DF11D1124659174912C1708F059C01B
:10264000272F46FF76C0793288F430E0F901EF5A3F
:10265000FF4BA081AF3F51F026583F4BF90130812D
:1026600020E2329FF0011124FC5FA18347FF2AC0C2
:1026700021E0270F293230F530E0F901EF5AFF4B06
:10268000D081DF3FF9F0F901E658FF4BA081F0E27D
:10269000AF9FD0011124BC5F2D553F4BF901108134
:1026A000F0E0E0E0183030F49D01205F3F4FF90189
:1026B000E10FF11D3FB7F8941296DC93208128605A
:1026C00020833FBF40FF15C023E0270F293288F445
:1026D00030E0F901EF5AFF4B40814F3F51F026584F
:1026E0003F4BD901EC91B0E2EB9FF0011124FC5F6C
:1026F0004183FC0123E0C29FE00DF11D11243196BE
:1027000025913491F901FF27EE51FA4F9081832FE3
:1027100080958923682B60835FBFDF91CF911F91E4
:102720000F91FF90BF90AF909F908F900895148667
:1027300074CF342F307509F499CF793208F096CFE1
:1027400030E0F901EF5AFF4BD081DF3F09F48ECF23
:10275000F901E658FF4BA081E0E2AE9FD0011124C1
:10276000BC5F2D553F4BF9011081F0E0E0E01830DF
:1027700030F49D01205F3F4FF901E10FF11D3FB79C
:10278000F8941296DC932081286020833FBF6ECF9F
:10279000FC010FB607FE04C0809111018823A9F047
:1027A000A485B58514968C91149785FF0EC09589E4
:1027B0008689981739F015968C9115978F7D159607
:1027C0008C930895E8940C941F2008950F931F9301
:1027D000CF93DF93EC018A89982F91609A8B2D8992
:1027E0009E8929130AC0EC85FD85948195FF05C05B
:1027F00081FD0DC080E4848312C0062F1D891F5FF8
:102800001F738E89811315C0CE01C2DFFACF858177
:102810008F77806490E49483EC85FD858583EC85D7
:10282000FD85628381E090E0DF91CF911F910F9150
:102830000895ED89EC0FFD2FF11DE95AFF4F00833C
:102840001D8BEC85FD858A8981FF09C085818F7785
:10285000806690E49483EC85FD858583E3CF858154
:102860008062FBCFEF92FF920F931F93CF93DF9382
:102870008C017B01D0E0C0E0F701EC0FFD1F6491FB
:10288000662331F0C801A2DF892B11F02196F4CF25
:10289000CE01DF91CF911F910F91FF90EF9008959E
:1028A00095CFCF93DF93EC018A8980FF0BC0EC8535
:1028B000FD85858185FD03C0848186FD03C0CE0131
:1028C00067DFF5CFDF91CF91089581E008950F98EC
:1028D000079A20E533EC93E0179A44E1F901319728
:1028E000F1F74150D9F7482F179AF9013197F1F7CD
:1028F000179A59E0F9013197F1F75150D9F7415042
:1029000099F7915049F7E7CF9FB7F894E0912A0BD8
:10291000F0912B0B8091260B20911C5730911D5765
:1029200040911E5750911F579FBF80FF08C0EC3E3B
:102930008CE2F80720F42F5F3F4F4F4F5F4F0F019E
:102940001694079416940794169407941694079473
:10295000F00116940794E00DF11D16940794102CC5
:10296000169401181694010C169401181694010C73
:102970001694011816941694010C1124E019F1090B
:10298000A8EEB3E00E943D3F6E0F7F1F811D911D99
:1029900008958F929F92AF92BF92CF92DF92EF9263
:1029A000FF926B017C01B0DF4B015C01C114D104CB
:1029B000E104F104B1F0A8DF681979098A099B09DB
:1029C000683E73408105910588F321E0C21AD10861
:1029D000E108F10888EE880E83E0981EA11CB11C66
:1029E000E5CFFF90EF90DF90CF90BF90AF909F909A
:1029F0008F9008952FB7F89460911C5770911D57D0
:102A000080911E5790911F572FBF08958150282FF6
:102A100030E095E1899FF0011124EA5CF24A848953
:102A2000882379F0F901E05EF84AE0818FE5E89FBC
:102A3000F0011124E85EF64A608171818281938100
:102A4000089560E070E0CB0108958150282F082E92
:102A5000000C330B95E18902F0011124EA5CF24A83
:102A60008489882369F0F901E05EF84AE0818FE506
:102A7000E89FF0011124EC5EF64A8081918108956F
:102A800090E080E008958F929F92AF92BF92CF9294
:102A9000DF92EF92FF920F93CF936B017C0120E0C6
:102AA00030E040E05FE30E94053E87FF05C0C12C97
:102AB000D12CE12C8FE3F82EC0920540D092064035
:102AC000E0920740F09208408090395790903A5732
:102AD000C0913B5720E836E948E15BE4C701B60105
:102AE0000E946A3E6B017C01B12CA12CC501B4018E
:102AF0000E94093E9B01AC01C701B6010E94E33F61
:102B00000E9450406B017C0160E876E988E990E022
:102B1000A50194010E944D3FCA01B90100914A40AC
:102B2000202F30E050E040E00E944D3F44275527E1
:102B3000C701B601621B730B840B950B2C2F30E081
:102B400050E040E00E944D3F20932C5730932D578A
:102B500040932E5750932F57CF910F91FF90EF90A6
:102B6000DF90CF90BF90AF909F908F9008950F937C
:102B70001F93CF93DF9300D000D0CDB7DEB7209165
:102B800000142F34A1F420910114253481F42091F4
:102B900002142D3461F4009799F08C01CE01019656
:102BA00063DB81E02B813C812017310709F080E055
:102BB0002496CDBFDEBFDF91CF911F910F91089575
:102BC00081E0F6CFDC01ED91FC91F170FC5E20819B
:102BD0006217B9F03FB720910210422F427021FDD9
:102BE000FACFF8942DE924BF4093001043E124BFAD
:102BF00040930010DC01ED91FC91F170FC5E60836C
:102C00003FBF0895CF92DF92EF92FF920F931F93F1
:102C1000CF93DF9300D0CDB7DEB76C017C0103E02A
:102C200010E009831A83F70161917F01CE010196BB
:102C3000C9DF0F5F1F4F0730110599F7C6010F90CD
:102C40000F90DF91CF911F910F91FF90EF90DF9048
:102C5000CF9008950F931F93CF93DF9300D0CDB7FC
:102C6000DEB700917C5E10917D5E80917E5E9091DA
:102C70007F5E081719079CF4C801957189839A83B0
:102C80006FEFCE0101969EDF1092785E1092795E12
:102C90008091765E9091775E080F191FE6CF0F90B6
:102CA0000F90DF91CF911F910F910895CF93DF93F4
:102CB000EC018D85882329F081508D87DF91CF919C
:102CC00008959C818E819817C8F788896827E881C4
:102CD000F9810084F185E02D42E0CE0109958C81D7
:102CE0008F5F8C83EBCFDC01ED91FC910084F1854B
:102CF000E02D40E009940F931F93CF938C01FC01CA
:102D00006483C085C60F6C2F6F70EDDF6C2F6295EA
:102D10006F706061C801CF911F910F91E4CFFC01EA
:102D20002781269526952695621730F4658323859D
:102D3000620F6770606BD7CF08951F93CF93DF93B7
:102D4000EC01142F8E81681710F4CE01D4DF612FAF
:102D5000CE01DF91CF911F91E2CFCF92DF92EF9220
:102D6000FF920F931F93CF93DF93EC01F62EC42EA7
:102D7000D22E1D868F81869586958695081710F030
:102D80000FEF080F1D2D011770F0412F6F2DCE0191
:102D9000D4DFEF2CCE1428F06889CE0187DFE394CE
:102DA000F9CF1F5FF0CF4D2D6F2DCE01DF91CF9169
:102DB0001F910F91FF90EF90DF90CF90BECF0F93B8
:102DC000CF93DF93C5E3D1E61B861A8660E4CE017C
:102DD0008ADF0F8106950695069501504E81415078
:102DE00020E060E0CE01B9DFDF91CF910F9108952F
:102DF0002F923F924F925F926F927F928F929F920B
:102E0000AF92BF92CF92DF92EF92FF920F931F93F8
:102E1000CF93DF93CDB7DEB72697CDBFDEBFDC0102
:102E20001E962D913C912115310509F46CC18D83BD
:102E30009E83F9013296649031964491E42EF12CF0
:102E4000B7E0EB0EF11C53E0F594E7945A95E1F7E7
:102E5000E982319654913196E4916D3009F5FC0187
:102E60008681811118C081E090E02696CDBFDEBF3B
:102E7000DF91CF911F910F91FF90EF90DF90CF9056
:102E8000BF90AF909F908F907F906F905F904F908A
:102E90003F902F90089560E08D819E812CDFE3CFDD
:102EA0006A3009F063C0AD81BE8116968C91169789
:102EB000882319F060E0CD011EDFED81FE810189DC
:102EC0000E9DE02C112465816E0D8485882349F0C8
:102ED00027812695269526958E2D821B860F1816FE
:102EE00024F08D819E811BDFBECFAD81BE811B96FC
:102EF0009C911B97890F87701B968C931B972E199B
:102F000015962C9315971E96ED91FC91309761F1D3
:102F10003396E491F0E0379633E0F595E7953A95EE
:102F2000E1F70E9F002D1124EFEFE20F0E0FED8160
:102F3000FE81468141506481CF010FDFAD81BE81AA
:102F40001C968C911C97813009F08DCF1B966C914B
:102F50001B97660F660F660F6F731A966C931A971E
:102F60006064CD01C0DE7FCF00E0DECF651708F4DE
:102F7000CAC08E2F90E0FC01E50FF11D6E171F06F1
:102F80000CF0C1C089010A5F1F4F651BED81FE81F6
:102F900071855189759F502D11245C83F9015491DD
:102FA0002F5F3F4FF9012491352F2230310508F072
:102FB0006DC06E9CC0016F9C900D1124689FF00144
:102FC000699FF00D11240E0F1F1F512CAD81BE8182
:102FD0001496BC91BA83ED81FE812580F585FB8333
:102FE000862C912CAA24A394B12C312C89813816DB
:102FF00008F087C0412CAD81BE8151968C915197CC
:10300000481608F077C0EB811D96EC93311002C092
:10301000442049F0AD81BE8115964C9115974F5FC4
:103020006A81CD018ADED12CC12CC61408F056C0AD
:10303000F801EC0DFD1D7490552061F0EA14FB04BD
:1030400049F4E72DF0E0052C02C0F595E7950A94C8
:10305000E2F77E2EED81FE818189823079F4442071
:1030600009F438C072948FE07822E72DF0E0E65C36
:10307000FB4F7490672D8D819E8118DE672D8D81A9
:103080009E8114DE8FEFC81AD80ACFCF477028E090
:10309000522E541A411101C0512CF801612C30E01C
:1030A00020E0661631F04491240F311D639431966F
:1030B000F8CF600E712E711CF3016490E29EF00156
:1030C000E39EF00DF29EF00D11248E0F9F1F080F4E
:1030D000191F7CCFF72DFF707F2EC7CFD12CAC816D
:1030E000DA1631F060E08D819E81E0DDD394F7CF78
:1030F000439481CF3394080D191DBFEFAB1ABB0A5F
:1031000075CF622DEECE90E080E0AFCEDC011C9654
:10311000ED91FC919381818513821186938391E0D7
:103120009583818708959C0126563F4FDC01529676
:10313000EC91529751968C91E81730F4E20FF32FEF
:10314000F11D808190E008958FEF9FEF0895FC01BD
:10315000DC01A656BF4F92898189981740F4A90FC8
:10316000B11D2C919F5F928B822F90E008958FEF7D
:103170009FEF0895FC0181899289891B990B08951D
:10318000CF92DF92EF92FF920F931F93CF936C0138
:103190004338510510F042E850E0C42F7B0110E0A5
:1031A00000E00C1780F4D7016D917D01D601ED91FF
:1031B000FC910190F081E02DC601099598012F5FE7
:1031C0003F4F892B49F4C801CF911F910F91FF9078
:1031D000EF90DF90CF9008958901E3CFFC01A089A3
:1031E000A23858F4A80FB92FB11D58966C93808956
:1031F0008F5F808B81E090E0089590E080E00895FB
:10320000DC011A96ED91FC911B97309731F01596E1
:103210008C91882311F090E009940895CF93DF9367
:10322000FC01A081B1811B968C911B97982F9C70FB
:1032300029F01D968C911582148229C086FF2AC020
:10324000EF0180FF1DC081FF11C01D968C9183830B
:10325000CF01D6DF1C821F82E885F985309709F0FF
:103260000995E881F98183E0828711C01D968C91D0
:103270001D9783831582168283E01A968C9307C06C
:1032800080E41B968C93CF01BBDF1D821E82DF91F1
:10329000CF91089587FFFBCF81FF22C084FF09C033
:1032A000828187FF06C08F77828382E01A968C9393
:1032B000C3CF828180688283C7818481C81770F4FC
:1032C000CE0FDF2FD11D8C851D968C931D9783E02B
:1032D0001A968C9387818F5F8783D9CF82E0CDCF79
:1032E0001D969C911D978581823868F4DF01A80F97
:1032F000B11DA257BF4F9C9385818F5F858301903D
:10330000F081E02DB0CF86E01A968C93158216825C
:10331000BECFDC01ED91FC910088F189E02D23E026
:1033200030E00994089590E080E008950F931F9392
:10333000CF93DF938091F257803109F071C088E21A
:103340000E94821182FF44C084E00E948E110E947C
:10335000671180E00E94501180E00E945011D82F28
:10336000C82F833408F0C2E4C093EC5780E00E9479
:103370005011082F80E00E945011182F80E00E9409
:103380005011282F30E0A90196E0440F551F9A955F
:10339000E1F744275370402B4093ED575093EE577D
:1033A000322F222722273370212B2093EF5730937F
:1033B000F05790912E619417150611F0452B11F4DA
:1033C000D330B8F41092EC570E9442110E94CD11F4
:1033D0008091F257803121F58091EC57882311F1CB
:1033E00084E00E948E1181E0DF91CF911F910F91B7
:1033F0000895C350C093F15780788093EB57D0E085
:10340000DC1728F480E00E945011DF5FF9CF0E94A2
:10341000421180E10E948E1184E20E948211D8CF75
:103420000E94CD1180E0E0CFBF92CF92DF92EF9269
:10343000FF920F931F93CF93DF93EC01B12C8C017C
:103440000C5C1F4FB0922F618DE30E948211682F98
:1034500064608DE30E947511CDDA6B017C0180916F
:10346000F257803109F067C08091EC57811163C039
:1034700084E20E94821190E09195819591098C34AB
:103480009F4F0CF058C084E00E948E1184E00E948F
:103490008E1187E20E94821187FFFBCF0E94671185
:1034A00080E80E94501187E30E94501185E00E943D
:1034B000501180912E610E94501180E40E945011A1
:1034C0007E01F70181917F010E9450110E151F05A9
:1034D000C1F70E9442118CE00E948E1188E20E9486
:1034E000821183FFFBCF84E00E948E1183DA6B018F
:1034F0007C0180DA6C197D098E099F096E31710596
:103500008105910528F512DF882399F32091EF5763
:103510003091F0572530310561F79091EB579923A1
:1035200041F3DF91CF911F910F91FF90EF90DF90CA
:10353000CF90BF9008955EDA6C197D098E099F09BE
:10354000683E73408105910508F0A0CFEFDE87CF7C
:10355000B394F9E0BF1276CF80E0E3CF94E081111D
:103560001BC0909346049091400492FD0AC09FB7FF
:10357000F894811114C080915204877F8093520483
:103580009FBF8091E6058770823029F48091010AFF
:103590008B7F8093010A089590934504E4CF809136
:1035A00052048860EBCF0F931F93CF93DF93EC010E
:1035B000062F142F8B89813120F4882329F04111A3
:1035C00003C00E94E7111B8A8B8981110DC08A8973
:1035D000880F80938F5E1092905E60E4111101C09D
:1035E00060E080E89EE5FADD602F80E89EE5F6DD8C
:1035F000123041F48B898F5F8B8BDF91CF911F91BC
:103600000F9108950E94E7111B8AF7CF0F931F9324
:10361000CF93DF93CDB7DEB72C97CDBFDEBF681B4E
:10362000F1F0062F10E0682F70E06555784AA80188
:10363000CE0101960E94A241E1E0F0E0EC0FFD1FF7
:10364000E00FF11F1082CE0101960E946B3C2C9678
:10365000CDBFDEBFDF91CF911F910F91089590E014
:1036600080E0F5CF0F931F93CF93DF93CDB7DEB7F5
:103670002C97CDBFDEBF681BF1F0062F10E0682F3E
:1036800070E06555784AA801CE0101960E94A241DA
:10369000E1E0F0E0EC0FFD1FE00FF11F1082CE0122
:1036A00001960E94683C2C96CDBFDEBFDF91CF9182
:1036B0001F910F91089560E070E0CB01F4CFFB0102
:1036C00001900020E9F73197AF01461B570BDC0151
:1036D000ED91FC910280F381E02D099466E071E4A4
:1036E000EECF0F931F93CF93DF93EC01BBD88C01E8
:1036F000CE01F4DF800F911FDF91CF911F910F91C9
:1037000008958F929F92AF92BF92EF92FF920F9384
:103710001F93CF93DF93CDB7DEB7A197CDBFDEBFA9
:103720007C01FA01CB0119A2223008F42AE08E01B3
:103730000F5D1F4F822E912CB12CA12CBF01A50132
:1037400094010E944D3FF901CA016A30ECF4605DBA
:10375000D8016E938D01232B242B252B79F790E034
:1037600080E0109719F0BD01C701A9DFA196CDBF78
:10377000DEBFDF91CF911F910F91FF90EF90BF902F
:10378000AF909F908F900895695CE2CFCF92DF92C7
:10379000EF92FF920F931F93CF93DF936B01770FFD
:1037A000EE08FF08F7FE19C0EC016DE279D88C0134
:1037B00044275527BA014C195D096E097F092AE093
:1037C000CE019FDF800F911FDF91CF911F910F914D
:1037D000FF90EF90DF90CF9008952AE0B701A60107
:1037E000DF91CF911F910F91FF90EF90DF90CF90DD
:1037F00088CF61E374E083EF97E534D88091296145
:103800006DE274E0882399F063E070E083EF97E560
:10381000BDDF6CE174E083EF97E524D860912A6105
:1038200070912B6183EF97E5B1DF69E174E083EF7D
:1038300097E557CF68E773E083EF97E552DF6DE6D2
:1038400073E083EF97E50ED869E071E483EF97E5C5
:1038500036DF61E673E083EF97E504D869E573E04E
:1038600083EF97E53EDF6EE473E083EF97E50E9418
:10387000321461E070E083EF97E588DF68E473E07D
:1038800083EF97E52ECF4F925F926F927F928F9248
:103890009F92AF92BF92CF92DF92EF92FF920F93DF
:1038A0001F93CF936B017C01742EAC019B010E948E
:1038B000674161E171E4811126C046015701E89436
:1038C000B7F82FEF3FEF4FE75FE7C501B4010E9464
:1038D000674181110CC02FEF3FEF4FE75FE7C50154
:1038E000B4010E94053E65E171E4181664F02FEF03
:1038F0003FEF4FE75FE4C701B6010E942141181670
:10390000A4F469E171E483EF97E5CF911F910F91E2
:10391000FF90EF90DF90CF90BF90AF909F908F90EF
:103920007F906F905F904F90CACE2FEF3FEF4FE7A1
:103930005FECC701B6010E94053E87FDE2CF20E0A3
:1039400030E0A901C701B6010E94053E10E000E089
:1039500087FF0AC06DE283EF97E50E9450148C0147
:10396000F7FAF094F7F8F094C0E060E070E080E0DF
:103970009FE37C1641F020E030E040E251E40E94F9
:10398000E33FCF5FF6CFA70196010E947F3F2B0157
:103990003C010E9450404B015C012AE0BC01A401A3
:1039A00083EF97E5AEDE7C01E00EF11ECC23C9F17A
:1039B000C501B4010E94093E9B01AC01C301B201E3
:1039C0000E947E3F4B015C0163E371E483EF97E566
:1039D00076DEE80EF91EC15020F120E030E040E232
:1039E00051E4C501B4010E946A3E2B013C010E94D2
:1039F00050404B01B12CA12C2AE0B501A40183EF6A
:103A000097E57FDEE80EF91EC501B4010E94093E6C
:103A10009B01AC01C301B2010E947E3F4B015C01DE
:103A2000DACFC701CF911F910F91FF90EF90DF90F8
:103A3000CF90BF90AF909F908F907F906F905F904E
:103A40004F900895CF93DF931EDFEC0183EF97E54E
:103A500045DE8C0F9D1FDF91CF910895CF93DF93AB
:103A6000482F50E070E060E02AE083EF97E549DE00
:103A7000EC0183EF97E532DE8C0F9D1FDF91CF9134
:103A800008956115710509F01ACE90E080E008955F
:103A9000CF92DF92EF92FF920F931F93CF93DF931A
:103AA0007C016B01D0E0C0E0CC15DD059CF58E01FA
:103AB0000E0D1F1D11701C5EF8018081803128F4ED
:103AC00060E383EF97E50E9450142196F80140814E
:103AD00050E070E060E020E183EF97E512DE6FE1F7
:103AE00071E483EF97E5CDDFCE0187709927892BAD
:103AF00029F46FE171E483EF97E5C3DFCE018F70A6
:103B00009927892B89F662E072E283EF97E50E949C
:103B10003214CACFDF91CF911F910F91FF90EF9098
:103B2000DF90CF9008950F931F93CF93DF9361E1C0
:103B300074E083EF97E50E9432146091BD6070914C
:103B4000BE608091BF609091C06042E050E07ADF3B
:103B500005EC10E6C1E0D0E06CE074E083EF97E59F
:103B60000E943214BE0183EF97E510DE6DE171E42F
:103B700083EF97E586DFF8016191719181919191D1
:103B80008F0142E080DE64E074E083EF97E50E94FD
:103B90003214BE0183EF97E5F9DD6DE171E483EF47
:103BA00097E56FDFF80164A575A586A597A542E0A6
:103BB00050E048DF2196CD30D10571F61ADE8091B4
:103BC000BB60882309F46AC068EC73E083EF97E573
:103BD0000E9432148091B86061EB71E08B3251F039
:103BE00064E673E0863531F070E060E08B3511F407
:103BF00063E973E083EF97E5C9DD67EB73E083EF7B
:103C000097E50E9432144091B96050E070E060E0A6
:103C10002AE083EF97E575DD6BEA73E083EF97E5C4
:103C20000E9432146091BA606F7370E083EF97E581
:103C3000ADDD6EE973E083EF97E50E9432144091A9
:103C4000BC6050E070E060E02AE083EF97E559DD6A
:103C500060E973E083EF97E50E94321469EF73E047
:103C600083EF97E50E94321460912561709126617F
:103C7000809127619091286142E050E0E3DE8091DD
:103C80002D6164EE73E0882311F06FEE73E083EF33
:103C900097E5DF91CF911F910F9123CD6BED73E0ED
:103CA00083EF97E51EDDDACF0E9493412F923F927A
:103CB0004F925F926F927F928F929F92AF92BF923C
:103CC000CF92DF92EF92FF920F931F93CF93DF93E8
:103CD000CDB7DEB72A97CDBFDEBF89879A87162F6B
:103CE0007A01222E312CB101032C000C880B990B88
:103CF0000E940B3E4B015C01612F70E090E080E080
:103D00000E940B3E20E030E044EB53E40E946A3E08
:103D10002B013C01B70190E080E00E94093E9B012D
:103D2000AC01C301B2010E946A3EA50194010E9448
:103D30006A3E20E836E948E15BE40E94E33F2B015C
:103D40003C01E985FA8505818081081B110B2181E1
:103D500032814381548166817781808591850E947B
:103D60007E3FA30192010E94E33F6B017C01B801F9
:103D7000012E000C880B990B0E940B3EA5019401AB
:103D80000E94E33F9B01AC01C701B6010E947F3F47
:103D90006D837E838F8398870E94BE4069837A8378
:103DA0008B839C8320E030E040E85FE30E947F3F0C
:103DB0006B017C0120E030E0A90169817A818B816F
:103DC0009C810E94214187FDA2C0A7019601C501E7
:103DD000B4010E946A3E0E944B40E985FA856287E1
:103DE000738716861786E985FA8526853785020F3B
:103DF000131F06871787020D131D0487158720E000
:103E000030E044EB53E4C301B2010E94E33F2BEDE9
:103E10003FE049EC50E40E946A3E6B017C0129813D
:103E20003A814B815C816D817E818F8198850E9472
:103E30007E3FA30192010E946A3E20E030E044EB05
:103E400053E40E94E33F2BED3FE049EC50E40E9435
:103E50006A3E4B015C01A70196010E94E33F2B01E2
:103E60003C01E985FA85448A558A668A778AA501E4
:103E70009401C501B4010E946A3E20E030E040E0B8
:103E80005FE30E946A3E9B01AC0160E070E080E865
:103E90009FE30E947E3F4B015C01A7019601C70191
:103EA000B6010E946A3E20E030E040E05FE30E94FD
:103EB0006A3E9B01AC0160E070E080E89FE30E94F5
:103EC0007E3FA30192010E946A3E9B01AC01C501A5
:103ED000B4010E947E3FE985FA85608B718B828BED
:103EE000938B2A96CDBFDEBFDF91CF911F910F91AB
:103EF000FF90EF90DF90CF90BF90AF909F908F900A
:103F00007F906F905F904F903F902F900895E9853C
:103F1000FA8512861386C701B6019058A50194014F
:103F20000E946A3E0E944B40E985FA856687778742
:103F30005ACFCF92DF92FF920F931F93CF93DF93CD
:103F40000FE5089FF0011124EF01CE53D74AAA8153
:103F5000BB811F962C911F972A8B16964D915D91D0
:103F60006D917C9119974B8B5C8B6D8B7E8BA881AF
:103F7000B9811F962C911F972F8B16964D915D91AD
:103F80006D917C911997488F598F6A8F7B8F209103
:103F90003B57C0903957D0903A57F0904A408F0124
:103FA000A6016F2DCF018C52974A80DEEC81FD81F6
:103FB0008A819B818E179F0729F187858AA7868131
:103FC0009781A085B1858BA79CA7ADA7BEA7E881E7
:103FD000F98187858FA786819781A085B18588AB78
:103FE00099ABAAABBBAB20913B57A6016F2DC80183
:103FF0008451974ADF91CF911F910F91FF90DF90ED
:10400000CF9054CEDF91CF911F910F91FF90DF9011
:10401000CF900895EF93FF93E3EFF7E508C0EF9398
:10402000FF93E3EFF7E532C0EF93E0E653C02F9341
:104030002FB72F938F939F93AF93BF936894CF9392
:10404000DF9320E0C485D8E09689DF01A90FB21F75
:10405000A95ABF4F8C9120E42C838A839F5F9F7362
:104060008D812589291302C08F7D8D83968BDF91E9
:10407000CF9116F00C94E513BF91AF919F918F9162
:104080002F912FBF2F91FF91EF9118952F932FB75D
:104090002F938F939F93CF93DF93C485D8E089812B
:1040A000988181FD0DC0C38981E08C0F8F732489B5
:1040B000281731F0CE0FDF2F20E0D21F9F8B838B8C
:1040C000DF91CF919F918F912F912FBF2F91FF91D2
:1040D000EF911895FF938F938FB78F93F8E08081BE
:1040E000848187FFFCCF85818F7B806885838F915A
:1040F0008FBF8F91FF91EF9118951F920F920FB67E
:104100000F92112484E00E9467141F920F920FB641
:104110000F9211248F939F93AF93BF9380911C575D
:1041200090911D57A0911E57B0911F570196A11D48
:10413000B11D80931C5790931D57A0931E57B093A9
:104140001F5781E08093260BBF91AF919F918F9174
:104150000F900FBE0F901F9018951F920F920FB6E1
:104160000F9211248F9388E08093A90481E08093BB
:1041700036578F910F900FBE0F901F9018951F927A
:104180000F920FB60F9211248F939F938091090481
:104190008093090486FF03C091E09093385787FF0E
:1041A00003C081E0809337579F918F910F900FBE8E
:1041B0000F901F9018951F920F920FB60F92112417
:1041C0000BB60F922F923F924F925F926F927F9217
:1041D0008F929F92AF92BF92CF92DF92EF92FF9217
:1041E0000F931F932F933F934F935F936F937F93FF
:1041F0008F939F93AF93BF93EF93FF93CF93DF93EF
:10420000CDB7DEB72A97CDBFDEBF81E080930D0624
:1042100080911006909111068D839E8380911B578B
:104220008E5F90913B57891718F090913B57891BEF
:1042300090E0FC01EE0FFF1FE80FF91FE75EFF4B58
:104240008081809308068D819E8120918C583091C9
:104250008D5836952795821B930B8D839E838D8178
:104260009E81E0911957F0911A57EE0FFF1FE75EFC
:10427000F04B8083918319821A821B821C822D81CC
:104280003E810D811E8122241302B001029FA001F4
:1042900012037209500D611D721D30037209500D19
:1042A000611D721D112449835A836B837C8389802D
:1042B0009A80AB80BC80A0910140B0910240E09117
:1042C0001B5708E0E09FF0011124EA0FFB1FE058A4
:1042D000FF4F20803180428053806480758006814A
:1042E00017819401A50160E070E080E090E0510149
:1042F000620173010E948A41208331834283538388
:1043000064837583868397834D815E81E0911B571B
:1043100018E0E19FF0011124EA0FFB1FA084B18493
:10432000C284D384E484F58406851785952F990F7C
:10433000990B9A01492F592F692F792F892F0E94A4
:104340008A412087318742875387648775878687AC
:104350009787E0911B578E2F90E0FC01EE0FFF1F17
:10436000E80FF91FE75EFF4B80818111CFC080917C
:10437000174F9091184F9C013695279536952795A4
:10438000AC01421B530B9A018D819E8118161906B0
:104390000CF478C08D819E81919581959109820F51
:1043A000931F8093174F9093184F21E040918A58A4
:1043B00050918B584817590708F020E02093475E2A
:1043C0008D819E81181619060CF05FC081E090E087
:1043D0008093154F9093164F2091154F3091164FA3
:1043E0008091114F9091124F2817390709F452C04C
:1043F00080910E4F8F5F80930E4F80910E4F8823D8
:1044000051F010920E4F8091154F9091164F80935E
:10441000134F9093144F8091134F9091144F019725
:1044200009F016C38091114F9091124F019709F432
:1044300065C080910F4F9091104F019680930F4F60
:104440009093104F20910440222339F12091034092
:104450002817190609F008F51092044010920F4F22
:104460001092104F14961D921D921D921C92179738
:10447000CD0188529D4FFD01E817F90771F01082B8
:104480003196FACF8D819E818ACF1092154F10926E
:10449000164FA2CF10920E4FB0CF14964D915D9152
:1044A0006D917C9117974F5F5F4F6F4F7F4F1496C1
:1044B0004D935D936D937C9317970D911D912D9165
:1044C0003C91139740912C5750912D5760912E5746
:1044D00070912F57041715072607370778F080913A
:1044E0004B4090914C40A0934B40B0934C408093F4
:1044F00001409093024081E080933E578091134F9A
:104500009091144F8093114F9093124F90911B579D
:1045100080913D57981708F445C2809019579090A4
:104520001A57E0911B578E2F90E0FC01EE0FFF1FF2
:10453000E80FF91FE75EFF4B0180F281E02D848DCB
:10454000958D881A990A53E09522E0911957F091B8
:104550001A57A0911B578A2F90E0DC01AA0FBB1FAE
:10456000A80FB91FA75EBF4B11960D90BC91A02D4F
:104570005E968D919C91E81BF90BF3702091195771
:1045800030911A57A0911B578A2F90E0DC01AA0F97
:10459000BB1FA80FB91FA75EBF4B11960D90BC9112
:1045A000A02D90968D919C91281B390BD901B37049
:1045B000AF83B887880C991C8401075E104B4801B3
:1045C000D8016D917C91EE0FFF1FE75EF04B4081AB
:1045D0005181222457029001469F800156033209DF
:1045E000100D211D321D74033209100D211D321DC5
:1045F000112428013901E0910140F0910240A0917D
:104600001B5718E0A19FD0011124AE0FBF1FA85067
:10461000BF4FAC901196BC90119712962C901297A8
:1046200013963C90139714960C911497098715963E
:104630001C9115971A8716960C91169717961C9130
:10464000179773016201FF0CCC08DC2C76019201F4
:10465000A3016C2D7C2D8C2D9C2D6101E984FA84A5
:104660000E948A412C9311963C93119712964C9379
:10467000129713965C93139714966C931497159650
:104680007C93159716968C93169717969C93D40146
:104690006D917C91AF81B885AA0FBB1FA75EB04B0F
:1046A0004D915C91222457029001469F8001560350
:1046B0003209100D211D321D74033209100D211D08
:1046C000321D112448015901A0911B5718E0A19FE8
:1046D000D0011124AE0FBF1FA059BE4F2C901196D0
:1046E0003C9011971296CC9012971396DC901397EA
:1046F0001496EC9014971596FC90159716960C91BD
:10470000169717961C91179724013501770C4408CA
:10471000542C32019401A501642D742D842D942D07
:1047200051010E948A412C9311963C931197129645
:104730004C93129713965C93139714966C9314975B
:1047400015967C93159716968C93169717969C93AF
:10475000A0911B5780911B572A2F30E0D901AA0F37
:10476000BB1FA20FB31FA75EBF4B11962D913C91AB
:1047700090E0DC01AA0FBB1FA80FB91FA75EBF4BBB
:1047800011968D919C91D90112962D913C91DC014D
:1047900014968D919C912817390709F403C18090D4
:1047A000195790901A57A0911B578A2F90E0DC015F
:1047B000AA0FBB1FA80FB91FA75EBF4B11960D9084
:1047C000BC91A02DD4968D919C91881A990AB3E042
:1047D0009B222091195730911A5780911B5790E0D6
:1047E000DC01AA0FBB1FA80FB91FA75EBF4B119614
:1047F0000D90BC91A02DD6968D919C91D901A81BAE
:10480000B90BBD0173704091195750911A5780919F
:104810001B57282F30E0C901880F991F820F931F63
:10482000875E9F4BDC0111968D919C91DC01D8969F
:104830008D919C91481B590BDA01B370AF83B887F7
:10484000880C991C8401075E104B4801D8018D919A
:104850009C91DB01AA0FBB1FA75EB04B4D915C91F1
:10486000BC01222457029001469F80015603320961
:10487000100D211D321D74033209100D211D321D32
:10488000112428013901A0911B5778E0A79FD0017E
:104890001124AE0FBF1FA851BE4FAC901196BC9013
:1048A000119712962C90129713963C90139714968A
:1048B0000C911497098715961C9115971A871696CF
:1048C0000C91169717961C91179779016201FF0CAE
:1048D000CC08DC2C76019201A3016C2D7C2D8C2D53
:1048E0009C2D6101E984FA840E948A412C931196DF
:1048F0003C93119712964C93129713965C931397CF
:1049000014966C93149715967C93159716968C9322
:10491000169717969C93D4016D917C91AF81B885C1
:10492000AA0FBB1FA75EB04B4D915C91222457028A
:104930009001469F800156033209100D211D321D42
:1049400074033209100D211D321D11242801390173
:1049500080911B5718E0819FC0011124E80FF91FB7
:10496000E05AFD4FB081A181C280D380E480F58000
:104970000681178153014201BB0C8808982C540111
:104980009201A301682D782D882D982DAB2EBA2E7B
:104990000E948A41208331834283538364837583D9
:1049A0008683978380911B578F5F80931B578091DD
:1049B000195790911A5701968093195790931A5747
:1049C00090911B5780913B57981788F010921B5776
:1049D000E0910140F091024080819181A281B381F8
:1049E0000196A11DB11D80839183A283B383809121
:1049F000195790911A5793708093195790931A579B
:104A00002A96CDBFDEBFDF91CF91FF91EF91BF918D
:104A1000AF919F918F917F916F915F914F913F9156
:104A20002F911F910F91FF90EF90DF90CF90BF904B
:104A3000AF909F908F907F906F905F904F903F903E
:104A40002F900F900BBE0F900FBE0F901F901895D8
:104A50008091114F9091124F51CD1F920F920FB62E
:104A60000F9211240BB60F922F933F934F935F93A6
:104A70006F937F938F939F93AF93BF93EF93FF9326
:104A80008CE89EE50E940E19FF91EF91BF91AF91C6
:104A90009F918F917F916F915F914F913F912F9156
:104AA0000F900BBE0F900FBE0F901F9018951F9286
:104AB0000F920FB60F9211240BB60F922F933F93C4
:104AC0004F935F936F937F938F939F93AF93BF9316
:104AD000EF93FF9388EA9FE50E940E19FF91EF91F3
:104AE000BF91AF919F918F917F916F915F914F9106
:104AF0003F912F910F900BBE0F900FBE0F901F9004
:104B000018951092F5571092F65788EE93E0A0E0B2
:104B1000B0E08093F7579093F857A093F957B0936C
:104B2000FA5780ED90E48093F3579093F45780E622
:104B300098E08093FF579093005884E092E280932E
:104B400001589093025882E08093035810920458C1
:104B50001092055880E090E0A8ECB2E48093335EB8
:104B60009093345EA093355EB093365E1092465EAD
:104B70001092475E8093495E90934A5EA0934B5E8D
:104B8000B0934C5E10925C5E10925D5E80935F5EAF
:104B90009093605EA093615EB093625E1092725ECD
:104BA0001092735EE6E3FDE581839283A383B48371
:104BB000148A75962EE5E233F207B1F782EC98E598
:104BC00026E33DE5FC01E25AFF4F1082815A9F4FD8
:104BD00028173907B9F7E2E9F8E524E130E092E077
:104BE00081E020833183928313821482158216829E
:104BF00017821086118682871386709648E5E23CFC
:104C0000F40779F710928E5810928F58109290589E
:104C100080E090E180938C5890938D5880E091E0F3
:104C200080938A5890938B588EEF90E080937A5EB1
:104C300090937B5E8DE190E08093765E9093775EBB
:104C40008DE090E08093745E9093755E84E890E0D0
:104C500080937C5E90937D5E8DEF91E080937E5E8D
:104C600090937F5E1092785E1092795E84E890E077
:104C70009C01235E3F4FFC01FC5E40814F3F09F4E5
:104C8000A9C08093785E9093795E2D3F81E03807CC
:104C900044F4F901FC5E80818F3F09F498C00E94C2
:104CA0002A1610929E5F10929F5F48EE53E060E0DC
:104CB00070E04093A05F5093A15F6093A25F7093F8
:104CC000A35F8AEE90E480939C5F90939D5F20E0C9
:104CD00039E02093A85F3093A95F1092825E109212
:104CE000835E4093845E5093855E6093865E70938E
:104CF000875E8093805E9093815E80E299E08093EE
:104D00008C5E90938D5E1092376110923861109294
:104D1000416110924261109243611092446110927D
:104D2000456181E0809346612CEF30E4209335614A
:104D3000309336619AE0909330619BE090933161BB
:104D40009CE0909332619DE09093336110923461C6
:104D50009BE29093B86092ED9093B9609CE1909340
:104D6000BA601092BB6099E19093BC604AE959E93E
:104D70006AEC72E44093BD605093BE606093BF6084
:104D80007093C06040E050E068E472E44093C1601A
:104D90005093C2606093C3607093C4604DEC5CEC50
:104DA0006CE171E440932561509326616093276123
:104DB000709328618093296184E690E080932A6152
:104DC00090932B6110922C6110922D610895235EB7
:104DD0003F4F5BCFC9018D3F21E0920709F048CFDB
:104DE00060CFCF93DF93CDB7DEB7C157D109CDBF29
:104DF000DEBF88ED21E030E084BF2093620091E0C7
:104E000084BF909363009DE284BF9093800093E001
:104E100084BF9093600080E090E22091650020FDC7
:104E2000FCC021E02093030A8EEF8093260A809332
:104E3000270A9BE09093000A32E03093E605209326
:104E4000430A8093660A8093670A9093400A90937E
:104E5000E705E0E0FBE027E09EEF85E02183948713
:104E6000158680837096E0340BE0F007B9F72FEFDA
:104E70003FE02093AA0B3093AB0B90E89093820B0A
:104E80001092810B2EEF30E02093AE0B3093AF0BDE
:104E900098ED24E194BF2093680091E19093800BFA
:104EA000809302069EE09093050690E69093030699
:104EB000809300068091B000887F85608093B00069
:104EC0008091B200887F85608093B2008FED9EE272
:104ED00080932C0B90932D0B81E08093250B1092E7
:104EE000210B83E08093200B789484E0809341042D
:104EF00081E00E94AE1A40E052EC61E070E083EF86
:104F000097E50E9489190E941A1C69E67AE183EFED
:104F100097E50E94711B68EE73E080E090E00E94CC
:104F2000C914E0918C5EF0918D5EE11519E0F107F6
:104F300009F079C08091E5058C7F82608093E5055A
:104F400080918E5E807641F5E11539E0F30709F036
:104F500077C08091E5058370823009F06DC08CE0E8
:104F60008093460480918E5E806280938E5E81E0A5
:104F70008383858390918E5E95FF21C096819C36B8
:104F800079F0238113829CE6968390819D7F9083A4
:104F9000238320FF05C0858380918E5E85FF0FC02F
:104FA0008681853161F09381138285E186838081DA
:104FB0008D7F8083938390FF02C081E08583109270
:104FC00048618CE3809347611092396110923A6195
:104FD000E3E6FAE1E590F490E5E6FAE1D490E6E65E
:104FE000FAE1E491E0933B61E7E6FAE1E491E093D2
:104FF0003C61E8E6FAE1E491E0933D6110E000E015
:105000000D1580F5F701E00FF11F649185E391E63E
:105010000E9473160F5F1F4FF3CF019709F0FDCE6B
:1050200083E00E946714E03229E0F20709F088CF9C
:105030008091E50588E082CF8CE08093060492CFD2
:10504000E03249E0F40709F08DCF8091E5058C70DE
:10505000883021F48CE08093260484CF8CE0809308
:10506000A60480CF0E94DF16EDE2F9E0E0934361F1
:10507000F0934461E491EEE2F9E0E49182E0809300
:105080003E610E94DF1641E06FE085E391E60E94F9
:105090009D1661E271E485E391E60E94411DE9E716
:1050A000F4E0E0934361F09344618491EAE7F4E033
:1050B000E491F82F319709F088C110923E6146E0E3
:1050C00068E285E391E60E949D1669E271E485E35A
:1050D00091E60E94411D80918E5E85FF0CC0E0919B
:1050E0008C5EF0918D5E86FF1382168280918E5EBB
:1050F0008F7D80938E5E80918E5E86FF0FC0E091E3
:105100008C5EF0918D5E85FF138214861186168663
:1051100080918E5E8F7B80938E5E11829FB7F89414
:1051200084E08093220480913204877F809332044C
:105130009FBF9FB7F89488E0809322048091330446
:10514000877F809333049FBF05EC10E608AB19AB53
:10515000F80140E050E060EA71E48DEC9CECACE4D6
:10516000B0E4419351936193719384A795A7A6A747
:10517000B7A710E6E53FF107A1F780E390E00E94B2
:10518000B7158823E9F0CE0101960E9434112981D8
:105190003A8137FD15C0A9014D5F5F4FA8EBB0E61E
:1051A00087E090E0FC01F170FC5E60816D930196F8
:1051B00084179507B8F36BE574E02430310511F4DA
:1051C0006AE474E083EF97E50E94711B0E94931DCF
:1051D0008091BB60882309F447C187E080933061E8
:1051E00084E08093316185E08093326186E0809332
:1051F0003361109234611091B9608091BA608093EC
:105200002E6110922F6180E88093010480E18093E9
:1052100001049FB7F89480E2809302048091150402
:10522000877F809315049FBF20913361822F90E088
:10523000293280F4FC01EF5AFF4B20812F3F51F0BF
:1052400086589F4BDC01EC91B0E2EB9FF0011124FA
:10525000FC5F21830E944211809134618111B9C0A9
:105260008091E4058C7F8093E405809141098460FE
:1052700080934109809140098162809340090E9496
:10528000FA146B017C016AEA8FE20E9475118FE2C9
:105290000E9482118A3A59F00E94FA146C197D0911
:1052A0008E099F09623371058105910560F30E94A3
:1052B000FA146C197D098E099F0962337105810505
:1052C000910508F0B7C00E94FA146B017C0165E5F6
:1052D0008FE20E9475118FE20E948211853559F08C
:1052E0000E94FA146C197D098E099F0962337105B9
:1052F0008105910560F30E94FA146C197D098E09ED
:105300009F09623371058105910508F093C0FE0184
:1053100033968BE2DF011D928A95E9F781E089835C
:1053200084E08A8322E02B8393E09D832E838F8306
:1053300080E4888725E029879A8796E09B8793E316
:105340009C8797E09D8728E02F8729E0298B29E11A
:105350002B8B32E43C8B25E22D8B8E8B26E22F8B20
:10536000988F98E2998F20E12A8F99E29B8F9CED8C
:105370009C8F9EE29D8F98E89E8F9FE29F8F9DE27B
:1053800098A390E399A347E34BA340E94CA348E3D8
:105390004DA33EA33CE33FA33FE838A73DE339A735
:1053A0002AA72FE62BA79CA79CE69E87888B1AA38B
:1053B0008E010F5F1F4FF80180818823D1F061813A
:1053C0000E9475110E5F1F4FF6CF81E080933E6102
:1053D00076CE8091E405837F8093E4058091610916
:1053E0008460809361098091600981628093600983
:1053F00046CF90E080E00E94A71169E981E10E9418
:10540000751184E00E948E110E94FA146B017C01D8
:1054100087E20E94821187FD0BC00E94FA146C196A
:105420007D098E099F09623371058105910580F31D
:105430000E94FA1485E391E40E94A7118091BA605A
:10544000F4E18F9FC00111246C01092E000CEE08BD
:10545000FF08892B09F417C20E94133CA70196018B
:105460000E94213F0E94C9148EE08093050680911E
:105470000306809303061092B00086E08093020634
:1054800081E080930006809100068093000687E00B
:105490008093080660E070E0CB0150E040E0E1E07E
:1054A000E0930A0620910D0620FFFCCF4A305105FB
:1054B00044F02091100630911106620F731F811D78
:1054C000911D4F5F5F4F4A3107E2500749F70E9435
:1054D000093E20E030E44CE156E40E94E33F20E046
:1054E00030EF4FE755E40E94E33F9B01AC0166E6D5
:1054F00076E686E69FE30E94E33F6B017C0160E76E
:1055000074E083EF97E50E94321444E050E0C70155
:10551000B6010E94221D4090BD605090BE60609018
:10552000BF607090C0601092325E80904640909054
:105530004740A0904840B09049408AAA9BAAACAA94
:10554000BDAA60918C5870918D5890E080E00E94C7
:10555000093E4B015C0123EA33E240E051E4C30120
:10556000B2010E946A3E2AA93BA94CA95DA90E94EA
:105570006A3EA50194010E94E33F6093335E7093FD
:10558000345E8093355E9093365E1092375E8AE08B
:1055900097EDA3E2BEE38093385E9093395EA093CB
:1055A0003A5EB0933B5E10923C5E10923D5E10926C
:1055B0003E5E10923F5E1092405E86E3682E8DE55F
:1055C000782E830120E0A8A9B9A9D0962D903D900E
:1055D0004D905C90D3976D917D918D919D91A8ABED
:1055E000B9ABB1E0B20FBEABF801208320E030E0F0
:1055F00040E450E40E946A3E2AA93BA94CA95DA957
:105600000E946A3EA50194010E94E33FD8011196D1
:105610006D937D938D939C93149715961C9215977B
:10562000F801268237824086518612861B961D928B
:105630001D921D921C921E970B5E1F4F2EA92C309F
:1056400011F610913C57A0E2B7E580E05FE522E358
:105650003EE541E0982F910F8F5F599FF001112493
:10566000EE53F74A60827182228333832483358329
:10567000E25AFF4F40839D93E5E16E0E711C8C3022
:1056800049F7145F10933C5782E380934A408AE0C5
:10569000809303406091256170912661809127611C
:1056A000909128610E944315C0924640D092474095
:1056B000E0924840F0924940809129618093BB5824
:1056C000882309F4E4C089E08093B30480912A61BF
:1056D00090912B618093B2589093B35882E080935D
:1056E000B45881E08093BC5885E18093345788E0BA
:1056F00090E0809332579093335788EE91E08093F7
:10570000395790933A571092315790913D57A2ECE8
:10571000B8E580E061E0FD01E25AFF4F20812223DD
:1057200009F449C0E82FF0E012964D915C9113976F
:105730009F01220F331FE20FF31F9F01275E3F4B94
:105740007901F90120812F3F81F4FA012489211187
:105750000CC08787648B208130E0275F3F4BF901C5
:105760002081F70120838F5F9F5F14962D913C91DC
:10577000159724173507F9F0E82FF0E0AF01440F33
:10578000551FE40FF51FAF01475E5F4B7A01FA0129
:1057900040814F3F81F4F901448941110CC0878752
:1057A000648B208130E0275F3F4BF90120818F5FC0
:1057B000F70120839F5FA15ABF4FFDE5A633BF07C6
:1057C00009F0A9CF90933D5780933157909130576E
:1057D00022EC38E561E0F901E25AFF4F40814423B1
:1057E00021F1E82FF0E0AF01440F551FE40FF51F42
:1057F000AF01475E5F4B7A01FA0140814F3FA9F448
:10580000F90140815181FA01748971110EC08787B5
:10581000648B408150E0445F5F4BFA014081F701A7
:1058200040838F5F218332839F5F215A3F4FA217AE
:10583000B30789F6809331579093305790918E58E3
:105840009923A9F0809391582091184091E0980FE6
:105850009093315790E0FC01EE0FFF1FE80FF91F06
:10586000E75EFF4B208310928F58109290588091E2
:10587000315780933B5700E0011760F4802F0E945E
:10588000991F0F5FF9CF60E070E0CB01EBCD109274
:10589000B3041CCF10913B5720E836E948E15BE4A4
:1058A00060910540709106408091074090910840BA
:1058B0000E946A3E20E030E044EF53E40E94E33F60
:1058C0000E9450406959714081099109212F30E0AF
:1058D00050E040E00E944D3F20932C5730932D57CD
:1058E00040932E5750932F5710923E5781E080934C
:1058F000044095E19093050690910306909303066A
:105900001092B00090913257909302068093000657
:1059100090910006909300069091000692609093FB
:1059200000061092080690910C06916090930C0668
:1059300080930A06789410927757109278571092B5
:10594000795710927A5710924357109244571092F9
:1059500045571092465760E070E080E090E40E9466
:10596000431562E0262E312C83EF97E50E949212B8
:10597000892B09F4A2C083EF97E50E947012109161
:1059800035578A3009F04EC5A12FB0E0A555B84A69
:105990001C92E091AB57EF53EC3308F086C00E2E0B
:1059A000000CFF0BEA52F34D0C948141F631552D5A
:1059B000552D552D552D552D552D552D552D552DD7
:1059C000552D552D552D552D552D552D552D552DC7
:1059D000552D552D552D552D552D552D552D552DB7
:1059E000552D552D552D552D552D552D552D552DA7
:1059F000552D122D492D192E362E3F2E5D2E552D4B
:105A00009B30012E6E2E32303A309B30552DB53002
:105A1000552DC530F430552D552DCA31C731D031F3
:105A2000552DD631123009F040C08CEA97E50E941E
:105A30006B3C843041F1883041F1893041F58BE590
:105A40008093B8606DED71E283EF97E50E943214A8
:105A50008091B86061EB71E08B3251F064E673E0E5
:105A6000863531F063E973E08B3511F070E060E06A
:105A700083EF97E50E94C61B68ED71E283EF97E51F
:105A80000E94711B12C08BE2DBCF86E5D9CF80E08C
:105A9000D7CF123051F48CEA97E50E946B3C019706
:105AA00009F0ACC081E080932C6180E4ABEAB7E5FB
:105AB0001D928A95E9F71092355780913857909149
:105AC0009B58992389F0882379F081E080939D5831
:105AD0000E94FA1460939E5870939F588093A05828
:105AE0009093A15810923857809137579091AB58A6
:105AF000992389F0882379F081E08093AD580E9442
:105B0000FA146093AE587093AF588093B058909346
:105B1000B15810923757809136579091BB589923BE
:105B200089F0882379F081E08093BD580E94FA14AF
:105B30006093BE587093BF588093C0589093C158DB
:105B40001092365722E9E22E28E5F22E8701D12C59
:105B5000C12C560194E0AA0CBB1C9A95E1F7F50103
:105B6000EE56F74A4F018385D80119969C919923E7
:105B700009F476C4882309F473C40E94FA14F4016A
:105B800024853585468557853B014C01621A730A89
:105B9000840A950AB401A301D8018D919C91B0E0CB
:105BA000A0E084179507A607B70708F059C4B1E02D
:105BB000CB1609F443C4E2E0CE1609F445C4809143
:105BC000080486FB882780F9F501EE56F74A13860C
:105BD000D8011A969C911A97981709F441C4129605
:105BE0009C91811137C4923009F037C4F8012781A4
:105BF00030852F5F3F4F278330872FC410922C6151
:105C000054CF123009F051CF8CEA97E50E946B3CDB
:105C1000019761F481E080932D6180912D616EEC9C
:105C200071E281112BCF63EC71E228CF10922D61CC
:105C3000F4CF8CEA97E50E94683C6B017C010E94DE
:105C40004315C0922561D0922661E0922761F092BF
:105C5000286168EB71E283EF97E50E94321442E01D
:105C600050E0C701B6010E94221D1FCF8AE08C932D
:105C70006CEA77E583EF97E50E94411D16CF13305C
:105C800009F013CF8CEA97E50E94683C0E944B40D4
:105C9000162F072F60934A4060EB71E283EF97E580
:105CA0000E943214612F702F83EF97E50E94C61B6C
:105CB00083EF97E50E946E1BF8CE8CEA97E50E9471
:105CC0006B3C8093B96065EA71E283EF97E50E94CF
:105CD00032148091B9600E942E1DE7CE60E270E020
